:020000040000FA
:0600000002010702214D80
:03000B0002257655
:03002B000225515A
:030053000221C3C4
:10008300021FA3E5C754F84401F5C7790122000014
:100093000080FB120086B900030200F1E4792178A5
:1000A30008B800028004F709D8FCE479297802B87B
:1000B30000028004F709D8FCE490028178AB79133D
:1000C3008002F0A3D8FCD9FA7A2B7B1590013778FC
:1000D300C479038015E493A3AD82AE838A828B83B4
:1000E300F0A3AA82AB838D828E83D8E9D9E7758288
:1000F300457583C774031201197582917583007462
:100103000012011975D00075813F751881751902A8
:10011300759F00020096C09FF59FE473D09F22D085
:1001230083D082C09FE493C0E0740193C0E0740263
:1001330093F59F22FF0000B4000028002800283018
:1001430075A000A000A000A00000080008E001F0D6
:10015300001000100010001000100010005000509C
:1001630000500010001000D0070000000000000F36
:100173000001000500307507001000010081FF0039
:10018300000000FFFFFF1C063A0622065E06FF0280
:10019300020208025000A0000000E80302CC810123
:1001A3000000C58102D081010000861502D68101BD
:1001B3000000BF0202D081010000871502D881012F
:1001C3000000D50202D081010000881502DA810106
:1001D3000000D70202D081010000891502DC8108EA
:1001E3000000D80202D0810100008A1502FC8101BF
:1001F30000008B15FF0100FF2002CC81010000BF2E
:100203008102D081010000EF1502E08100000000AF
:100213000002D48103000006031700CA0CCA0CCAEB
:100223000CCA0CCA0CCA0CCA0CCA0CCA0CCA0CCA1B
:100233000CCA0CCA0C700F820F6A0F020202020270
:1002430002020202010D000000100102CC81010034
:1002530000BC8102D081010000321602F681010048
:1002630000400702D081010000331602F281010031
:1002730000158102D081010000341602F0810100D3
:1002830000078102D081010000351602E2810100DE
:1002930000818002D0810100003616022281010014
:1002A30000A58002D081010000371602DE81010023
:1002B30000938002D081010000381602EE81010014
:1002C30000B78002D081010000391602FA810100D3
:1002D30000F98002D0810100003A1602FE8101007C
:1002E300003B1601E8030577100A07010101090124
:1002F3000101100001010A100A02436F6D6D616E66
:100303006400526573706F6E7365004D61696C6252
:100313006F780044657669636520496E666F0002F5
:10032300CC81010000C28102D081010000ED1602E0
:10033300E681030000370802D281010000F11602B2
:10034300D081010000EE1602E881000000390802A6
:10035300D481030000530802D281010000F9160280
:10036300D081010000EF1602EA810A00003B080277
:10037300D281010000021702D081010000F01602B1
:10038300EC810A00004F0802D2810100000A17FF26
:10039300FFFF0001307503020106000000000000AA
:1003A300000000000000000000000000000000004A
:1003B300000000000000FFFF0600800CE8030D09A9
:1003C3005050474675656C47617567650512500067
:1003D3002003020A000201060302F0FF50504746C1
:1003E30075656C47617567650000000000000000DB
:1003F30000201400002C141201225AA60312012219
:100403006DA6031201229EA603120122D8A603128F
:10041300012231A70312012278A703120122C0A7E8
:1004230003120122EFA7031201221EA803120122C5
:1004330055A8031201229CA803120122B5A8031296
:1004430001220AA90312012223A90312012271A97D
:1004530003120122ABA903120122A0CB0212012233
:10046300A3CC02120122DCCC02120122FFCC021225
:10047300012211CD021201224FCD02120122CBCD56
:100483000212012293CE02120122B5CE02120122E0
:100493004CCF021201229ECF02120122CFCF0212B1
:1004A3000122DCCF0212012246D0021201229DD08A
:1004B30002120122A0D002120122D9D0021201227B
:1004C300DCD002120122E6D0021201223AD102123A
:1004D30001227BD102120122AED102120122EBD101
:1004E30002120122EDD20212012291D30212012241
:1004F300FAD30212012238D402120122A99A03125A
:100503000122D19A03120122FE9A03120122369B81
:1005130003120122949B03120122E09B0312012286
:10052300479C03120122879C03120122C49C0312DD
:100533000122F29C031201229C9D03120122A69D1B
:1005430003120122B39D03120122E69D031201222D
:10055300F29D031201220A9E03120122149E03122A
:10056300012272C30312012280C30312012298C322
:1005730003120122AFC303120122BDBA01120122E9
:1005830067BB011201227ABC01120122F6BC0112DF
:10059300012214BE0112012250BE01120122EBBE40
:1005A30001120122CFBF011201229BC001120122BD
:1005B30029C2011201229AC20112012254C301125B
:1005C300012246C40112012286C4011201223AC546
:1005D300011201226CC50112012262C7011201221C
:1005E300A4C701120122C2C70112012228C80112A5
:1005F3000122F7C801120122BBC901120122DACB81
:1006030001120122ECDB02120122D6DC02120122CA
:1006130081DD02120122D2DD0212012282DE0212E8
:100623000122F3DE02120122D8DF021201220CE0C2
:100633000212012205E10212012242E10212012209
:100643001EE2021201225DE20212012279E202128B
:1006530001220EBA0312012292BA03120122BDBA79
:1006630003120122D7BB03120122A29E031201220D
:10067300B89E03120122D69E03120122E79F0312A2
:100683000122F19F031201221CA10312012213A2D2
:100693000312012280A20312012225EF021201227A
:1006A3005BF00212012292F002120122E9F002121F
:1006B3000122FEF2021201220796011201229396F1
:1006C30001120122F797011201220398011201225C
:1006D3003E9801120122AD9801120122B69901122E
:1006E3000122BF9A01120122869B01120122E39C7F
:1006F30001120122019D011201221E9D01120122FC
:10070300CB9D01120122489E01120122709E01120B
:1007130001223AA1011201223FA10112012258A391
:1007230001120122A6A30112012216A40112012221
:1007330054A40112012230A501120122F0A50112D5
:1007430001223CA6011201223FA60112012283A627
:1007530001120122CBA6011201220AA701120122D2
:100763002CA70112012260A701120122C3A70112C3
:100773000122C5F402120122D3F40212012226F54A
:100783000212012245F5021201228AF50212012208
:10079300CEF60212012269F702120122ADF702120C
:1007A3000122D7F70212012246F8021201228CF825
:1007B3000212012203F902120122B4F902120122E8
:1007C300D82500120122E8250012012289260012F1
:1007D3000122E52600120122A22700120122BE28CF
:1007E30000120122F028001201221F290012012207
:1007F300CC2A00120122432D00120122B32F001232
:100803000122A530001201229E3100120122A533DC
:1008130000120122993600120122C8370012012268
:10082300CC3900120122DC3A001201226B3C001287
:1008330001225C3D00120122AA3D00120122193E51
:10084300001201223D3E001201228E3E00120122BF
:100853002F4300120122304400120122914400125E
:100863000122BC44001201228245001201226F962C
:1008730003120122799603120122BE96031201226A
:10088300D296031201226297031201229B9703124D
:100893000122D69703120122FF97031201225398D4
:1008A300031201226898031201228A98031201227B
:1008B3009F9803120122B39803120122C8980312CE
:1008C30001220299031201222E9903120122779920
:1008D30003120122E999031201222C9A0312012225
:1008E300569A03120122819A031201225EC2031255
:1008F30001221CA402120122FFA4021201227AA5E2
:1009030002120122B5A50212012206A70212012238
:1009130094A70212012226AA02120122D8AA0212C5
:100923000122E4AB0212012257AD02120122B0AD43
:1009330002120122DD8D03120122208E03120122F5
:10094300A48E031201227B9103120122A2B503128A
:10095300012254B60312012250B7031201228FB7AA
:1009630003120122E9B70312012206BC031201227A
:1009730069BC0312012206BD031201223BBD03120F
:1009830001226BBD03120122A6BD03120122C6BDC3
:10099300031201220080031201228C800312012220
:1009A3004B81031201226382031201227D8403120D
:1009B3000122888D02120122AD8D021201227A8E4C
:1009C300021201224E8F02120122BB8F0212012258
:1009D300FB8F02120122979002120122CB91021285
:1009E3000122A6920212012205930212012291937F
:1009F30002120122FF93021201228B94021201229E
:100A0300D19402120122439502120122D5950212BA
:100A13000122769602120122969602120122DE9696
:100A23000212012227970212012243970212012286
:100A3300699702120122E39702120122F19702122F
:100A43000122809802120122E99802120122B48441
:100A5300031201223985031201227B85031201222D
:100A63005F8603120122CC86031201221087031230
:100A73000122548703120122818703120122A987CD
:100A830003120122E187031201221F8803120122AC
:100A9300468803120122C088031201220A89031225
:100AA3000122E7CB0112012286CD01120122BECF22
:100AB3000112012212D0011201223DD001120122A2
:100AC30019D10112012249D10112012278D1011257
:100AD30001228BD101120122CCD101120122F9D1C1
:100AE3000112012247D20112012283D201120122F3
:100AF300C8D20112012215D3011201228FD3011290
:100B03000122D0D501120122BAD701120122F6D750
:100B13000112012285D901120122CAD9011201222F
:100B23003DDA0112012292DA0112012297DA01124F
:100B3300012221DB0112012240DC0112012251DCDE
:100B43000112012201C2021201227AC202120122FF
:100B530034C8021201223FC902120122E8CA02125A
:100B6300012276CB021201229C63001201221D6432
:100B7300001201224A64001201229364001201222E
:100B8300946500120122ED650012012269670012CB
:100B93000122EB6700120122066800120122776826
:100BA30000120122346900120122F76900120122A6
:100BB300856A001201223C6B001201224F6B001266
:100BC3000122E86B001201227F6C00120122A66C45
:100BD300001201220F6D00120122596D0012012231
:100BE300A76D001201224C6E00120122EA6E001260
:100BF3000122776F00120122E86F001201222F7089
:100C030000120122877000120122B9700012012222
:100C13007371001201227A7200120122C372001250
:100C23000122E07200120122FF72001201223274CB
:100C330000120122E974001201220E750012012232
:100C4300237500120122937500120122D47500123C
:100C53000122F8760012012279770012012241B8AD
:100C6300021201228CB80212012298B80212012248
:100C73006CB90212012283B902120122C0B9021215
:100C83000122F1B90212012229BA021201227FBA0A
:100C93000212012295BA02120122D1BA02120122D2
:100CA300E4BA021201220BBB021201223FBB021261
:100CB300012265BC02120122AFBD02120122ABBEAA
:100CC30002120122C8BF02120122CD250012012205
:100CD30074DC01120122AFDC0112012201E00112D6
:100CE30001225DE1011201221CE20112012283E5CE
:100CF300011201226DE601120122B9E6011201225D
:100D0300D3E60112012210E7011201221BE70112AF
:100D130001225AE70112012263E7011201220DE8C1
:100D230001120122E4E80112012238E90112012231
:100D330095E90112012207EA011201229BA801127F
:100D43000122FAAB0112012200AC0112012231B3DC
:100D53000112012238B70112012213AA0312012240
:100D6300F0AA0312012234AB031201226EAB031269
:100D7300012206AC0312012275AC031201227EACE0
:100D8300031201228AAC03120122A4AC0312012232
:100D9300CEAC03120122FEAC031201222D920312E8
:100DA30001223A92031201225492031201228792E2
:100DB30003120122C592031201222A930312012274
:100DC3003F93031201224A93031201225793031202
:100DD30001226E93031201227C9303120122879353
:100DE30003120122939303120122A29303120122FD
:100DF300AD9303120122D0930312012274940312C0
:100E030001228494031201229E9403120122BB94B3
:100E130003120122D69403120122FB94031201222E
:100E23000695031201221B95031201222F9503122B
:100E330001229095031201229695031201229C959B
:100E430003120122A29503120122BA950312012271
:100E5300ED95031201220580021201229C800212E9
:100E630001223481021201222482021201225B82B6
:100E7300021201226E8202120122DC82021201227C
:100E83007784021201229E840212012240850212FB
:100E93000122758502120122868502120122FF8535
:100EA3000212012220860212012238860212012236
:100EB300908702120122998902120122E98B021200
:100EC3000122EC8C021201223B8D0212012256EB0D
:100ED3000112012253EC011201223EED0112012203
:100EE30048ED011201226AED0112012276ED011291
:100EF3000122C8EE01120122F7EE0112012227F0AE
:100F03000112012269F00112012295F1011201225D
:100F13006BF201120122BDF2011201221CF3011234
:100F2300012253F3011201228EF30112012229F748
:100F33000112012242F701120122C4F70112012218
:100F4300D2F70112012227F80112012235F801120A
:100F53000122A2F80112012214F9011201225AF905
:100F6300011201220C99021201222E99021201226E
:100F7300189B02120122BD9E0212012200A002123E
:100F83000122DAA002120122D4BD03120122F9BD0B
:100F9300031201226ABE03120122AF77001201225B
:100FA300B87700120122C17700120122F2780012F1
:100FB3000122117B00120122477B00120122817B57
:100FC30000120122B77B00120122F17B00120122E1
:100FD300257C00120122517C001201229A7C00120E
:100FE3000122D47C001201221C7D00120122727D99
:100FF30000120122A77D00120122027E00120122AB
:101003003C7E001201228D7E00120122C37E00125B
:101013000122FD7E001201222B7F001201224E7F4E
:10102300001201223FC4031201226BC403120122E6
:10103300C6C403120122D0C403120122E0C4031266
:101043000122C6F902120122EDF90212012228FA45
:1010530002120122C0C603120122EE450012012230
:10106300FE4800120122934A001201220E4B001285
:101073000122BA4B001201225D4C00120122F54CF1
:1010830000120122244D00120122BC510012012240
:101093004E52001201228A5300120122F45300120D
:1010A3000122A854001201225E5700120122985710
:1010B300001201220258001201225F58001201227D
:1010C300BC5800120122195900120122045A0012BD
:1010D30001224A5A00120122955A00120122B85ADB
:1010E30000120122FF5B00120122135C0012012295
:1010F300825D00120122C15D00120122015E001215
:101103000122545E00120122755E00120122B35EB9
:1011130000120122D960001201221A610012012279
:10112300B5610012012227620012012268630012D6
:10113300012284E9021201222AEA021201226FEB40
:1011430002120122F8EB02120122E5EC0212012243
:1011530024ED021201228EED02120122FCED021295
:10116300012283C80312012231B003120122FCB20F
:101173000312012266C803120122EAC403120122E8
:10118300FAC4031201220EC5031201228AC50312F7
:1011930001222CAD03120122D4AD0312012216B099
:1011A30003120122FA7F00120122EDFF0112012234
:1011B3003CC80312012252C803120122DAE20212CE
:1011C30001224BE302120122C2E40212012295E63C
:1011D30002120122D2E70212012296E80212012230
:1011E300B3E80212012202E90212012243E90212C8
:1011F30001228BFF01120122DFFF011201228ABFAC
:1012030003120122DFBF03120122E0C703120122EE
:101213003CC1031201226DC10312012297C10312C3
:101223000122F5C1031201225ED40212012273D4FA
:1012330002120122CFD4021201223AD50212012254
:1012430082D502120122F4D5021201221DD6021206
:1012530001222BD6021201228DD602120122CBD6F5
:1012630002120122E6D60212012281D702120122C2
:101273002AD802120122ADD802120122E6D80212A4
:10128300012271D902120122C8D90212012226DADF
:101293000212012238DA021201225EDA021201225C
:1012A30067DA02120122B8DB0212012214B8031218
:1012B30001227BB80312012238B903120122B6B905
:1012C300031201228AA203120122BDA203120122E8
:1012D300EFA30312012233A4031201220FA5031269
:1012E3000122C4FE02120122A2FF021201220AB34A
:1012F300031201224FB30312012295B303120122F9
:101303005EB50312012230C6031201224BC603123B
:1013130001225BC6031201228DC50312012259AEBD
:101323000212012235AF021201227CAF0212012206
:10133300B9AF0212012227B00212012281B00212B8
:101343000122F1B002120122C1B102120122B0B294
:101353000212012227B302120122C3B40212012294
:1013630050B502120122C3B5021201223FB6021286
:10137300012256B6021201227BB702120122D5B70F
:1013830002120122E3F90112012203FA01120122DE
:1013930009FB0112012255FB0112012275FB011207
:1013A3000122C8FB0112012235FC011201227BFC40
:1013B30001120122DFFC011201220182011201222A
:1013C3002E8701120122318A011201225A8A011247
:1013D3000122838A01120122358B011201221E8D03
:1013E30001120122698E01120122828E0112012251
:1013F300B99301120122F2930112012236940112D0
:1014030001224795011201224A8903120122758B99
:1014130003120122918C03120122AF8C03120122C9
:10142300D18C03120122A28D03120122A58D031276
:1014330001229AC70312012210C803120122DC7F82
:1014430000E066701008A3E066700A08A3E0667007
:101453000408A3E06622C3E7960809E7960809E7AC
:10146300960809E79622C3E09608A3E09608A3E04E
:101473009608A3E09622C008C3E096F50808A3E007
:1014830096420808A3E096420808A3E09645087030
:1014930001D3D00822080808EAC0E0EBC0E086F0D8
:1014A300E7A4FA180986F0E7A42AFA180986F0E7F0
:1014B300A42AFA180986F0E7A42AFA1986F0E7A401
:1014C300FBE5F02AFA190886F0E7A42BFBE5F03ACE
:1014D300FA190886F0E7A42BFBE5F03AFA18180985
:1014E30086F0E7A4C5F02BFBE43AFA1908E7C5F048
:1014F300C6A426F6E5F03BFBE43AFA1886F0E7A427
:10150300F6E5F00826F6E43B08F6E43A08F6D0E000
:10151300FBD0E0FA226016080808C6C313C618C633
:1015230013C618C613C618C613C6D5E0EA22700937
:10153300080808226016181818C6C333C608C6332D
:10154300C608C633C608C633C6D5E0EA22E627F680
:101553000809E637F60809E637F60809E637F622FA
:10156300E026F608A3E036F608A3E036F608A3E083
:1015730036F622E026F008A3E036F008A3E036F0C2
:1015830008A3E036F022C3E697F60809E697F608C3
:1015930009E697F60809E697F622C3E096F008A352
:1015A300E096F008A3E096F008A3E096F022E05658
:1015B300F608A3E056F608A3E056F608A3E056F6AD
:1015C30022E056F008A3E056F008A3E056F008A383
:1015D300E056F022E0F608A3E0F608A3E0F608A33D
:1015E300E0F622E6F008A3E6F008A3E6F008A3E697
:1015F300F022E0FAA3E0FBA3E0FCA3E0FD22E0F885
:10160300A3E0F9A3E0FAA3E0FB22E8F0A3E9F0A347
:10161300EAF0A3EBF022CAC0E0E6F0A308DAFAD0BE
:10162300E0FA22CAC0E0E0A3C582CCC582C583CD5F
:10163300C583F0A3C582CCC582C583CDC583DAE655
:10164300D0E0CA22C3E498F8E499F91216888026F8
:10165300C3E49AFAE49BFBE920E7E9121688E498CD
:10166300F8E499F922C3E498F8E499F9121688E4A6
:1016730098F8E499F9C3E49AFAE49BFB22EB20E798
:10168300CFE920E7E0B90010BB0008E88AF084F84E
:10169300AAF022E4FBC8FA22EB70227B10C833C8FD
:1016A300C933C9335007C39AC3DBF280069A50018A
:1016B3002ADBEAC833F4C8C933F4C9FA2275F0083F
:1016C300E4C833C8C933C933C99AC99B5004C92A6A
:1016D300C93BD5F0ECFBC833F4C8E4C9FA22600D6A
:1016E30008C6A2E713C618C613C6D5E0F322600CDA
:1016F30008C6C313C618C613C6D5E0F42270042265
:10170300600D18C6C333C608C633C6D5E0F4182225
:10171300251810AF08F518400C15198008F5184066
:10172300021519D2AF2200C0D0251810AF08F51842
:10173300500C05198008F51850020519D2AFD0D006
:10174300222518F58210AF08F518400C15198008EA
:10175300F51840021519D2AF851983222518F58291
:10176300E43519F583222518F8E43519F9222518EB
:10177300FAE43519FB222518FCE43519FD22E4733C
:101783002518C582C0E0E51934FFC583C0E0E5181C
:10179300C3958224F810AF088583198582188008C1
:1017A300858319858218D2AFCEF0A3E520F0A37804
:1017B30008E608F0A3DEFAEFF0A3E58124FAF8E6E1
:1017C30008F0A3E608F0A3E608F0A30808E608F08B
:1017D300A3E608F0A315811581D0E0FED0E0F8154B
:1017E3008115811581E8C0E0EEC0E0222518C5828D
:1017F300C0E0E51934FFC583C0E0E518C395822432
:10180300F910AF08858319858218800885831985A7
:101813008218D2AFCEF0A3E520F0A37808E608F053
:10182300A3DEFAEFF0A3E58124FBF8E608F0A3E6D4
:1018330008F0A30808E608F0A3E608F0A31581154D
:1018430081D0E0FED0E0F815811581E8C0E0EEC05C
:10185300E022851983851882E0A3FEE0A3F52078B2
:1018630008E0A3F608DFFAE0A3FFE0A3C0E0E0A3EB
:10187300C0E0E0A3C0E0E0A3C0E0E0A3C0E010AF9D
:10188300088582188583198008858218858319D273
:10189300AFD083D08202011F851983851882E0A30C
:1018A300FEE0A3F5207808E0A3F608DFFAE0A3FF43
:1018B300E0A3C0E0E0A3C0E0E0A3C0E0E0A3C0E099
:1018C30010AF08858218858319800885821885835F
:1018D30019D2AFD083D08222C0D02518C582C0E0F0
:1018E300E51934FFC583C0E0E518C3958224F310DE
:1018F300AF08858319858218800885831985821826
:10190300D2AFC8F0A3E9F0A3EAF0A3EBF0A3790800
:10191300E709F0A3D8FAECF0A3EDF0A3EEF0A3EF00
:10192300F0A3D0E0F0A3D0E0F0A3D0E0F0A3E52053
:10193300F0A3E5F0F0A322851983851882E0C0E0C7
:10194300A3E0F9A3E0FAA3E0FBA37808E0F608A379
:10195300DFFAE0FCA3E0FDA3E0FEA3E0FFA3E0C009
:10196300E0A3E0C0E0A3E0F5D0A3E0F520A3E0A36B
:10197300F5F010AF088583198582188008858319CF
:10198300858218D2AFD082D083D0E0F8D0E0327411
:10199300048006740280027401C0E0F40412174448
:1019A300D0E0121619227404800474028000CCC0A3
:1019B300E0EDC0E0E518C39CCCAD1950011D10AF9C
:1019C300068C188D1980068C188D19D2AF12162625
:1019D300D0E0FDD0E0FC22D083D082E9C0E0E493E4
:1019E300A3C386F0C5F095F0F908E493A386F0C588
:1019F300F095F0700BE493A3C3994005E9048002CA
:101A0300A3E475F002A42582F582E5F03583F5831E
:101A1300D0E0F9E493A3C0E0E493C0E022D083D004
:101A230082ECC0E0EDC0E0E493A3FCE493A3FDEDFE
:101A33004C600D121A6CEC24FFFCED34FFFD80EFBB
:101A4300E493A3FCE493A3FDED4C600D121AABECFD
:101A530024FFFCED34FFFD80EFD0E0FDD0E0FCE49B
:101A630093A3C0E0E493C0E022C0E0C3E4939608EC
:101A73007401939618400FE49366700808740193F9
:101A8300661870007019A3A3C3E4939608740193B6
:101A93009618A3A3400DD0E0D0E0D0E0021A5CA3D7
:101AA300A3A3A3A3A3D0E022C0E0C0F088F0E493F3
:101AB3006670080874019366187000A8F0A3A370F9
:101AC3000BD0F0D0E0D0E0D0E0021A5CA3A3D0F0BA
:031AD300D0E0223E
:101AD80074F61217EFEAFEEBFF8C088D09EE24343A
:101AE800F8E43FF9E8FCE9FDEE2435121DEBFAEEC7
:101AF8002437121DEBF88508F0A4C885F00A85097B
:101B0800F0A4250AF9EA28F8E439F97A257B0012C5
:101B18001688EA8C828D83F0FA131313541FF8EE9B
:101B280028F8E43FF9E8245DF582E439F583E0C05C
:101B3800E074075AF8D0E0B800028004C313D8FC58
:101B4800A2E0EE50082434F582E43F8018243612CF
:101B58001DEBF5F0EA84A8F0EE28F8E43FF9E82454
:101B680038F582E439F583E0F97F0302189B74F7AE
:101B78001217EFEAFEEBFFEE2434121DEBC0E0EE85
:101B88002435F582E43FF583D0E0F08E828F83A37D
:101B9800A3A3A3A3A3A3C082C0838E828F83A3A37E
:101BA800A3A3A3E0F8A3E0F9D083D082E0C398F51B
:101BB80008A3E099F509EE247F121DEB6401703E3D
:101BC800EE2480F582E43FF583C082C0838E828F45
:101BD80083A3A3A3A3A3E0240108A3E03400F9D0BE
:101BE80083D082E0687003A3E06970127CB17D0441
:101BF800120C0AEE247FF582E43FF583E4F0AC088A
:101C0800AD09EEFAEFFB121AD8E9F91225437F0263
:101C180002189BC082C083851882851983E0F8A3C7
:101C2800E0F9C3EA9CEB9D5010C3EC98ED99401B7A
:101C3800C3EA98EB995014800EC3EA98EB994007D1
:101C4800C3EC98ED994004790180027900D083D0E3
:101C58008222EAC39CFAEB9DFB2274EF1217EF90E5
:101C68000376E064086005E06407702A9061C8E0C4
:101C780060249003A4E0F4601DE0F875F00BA4C89C
:101C8800AAF02AF974A628FE740339FF8E828F837E
:101C9800A3A3A3E07003021D70906060E0C0E0EEB3
:101CA8002468F582E43FF583D0E0F0750C21750DCA
:101CB80005750800750900E5D914F50AE5D9540336
:101CC800F50E60127403650E6043E50A600AEE249F
:101CD80067121DEB7002807590051CE06401601F9F
:101CE800121DE860047A0480027A00E50AC39AFAB1
:101CF80095E0FB120AB48A088B09EA4509700512B7
:101D08000E388064121DE870048A0C8B0DE50A6099
:101D180012850C82850D83F50BE5D9F0A3150BE52B
:101D28000B70F6121DE8604474FC250AF50A780C5D
:101D3800121996AC0AA90EEEFAEFFB120CC4740243
:101D4800121729E97026AA08AB091212B2793D8E3A
:101D5800828F83A3A3A3A3E0FA7B00120916EEFAED
:101D6800EFFB120C2E120CD67900806F7403650EEF
:101D78006051850A107511007810121996AC0CADD7
:101D88000DAA08AB09120C887402121729EE2468F0
:101D9800121DEB64807004747F8001E0F50C780CF0
:101DA80012199AE50EF50C780C12199AA90AAC08C2
:101DB800AD099003A4E0FA7B001208EC7402121734
:101DC800298013900376E06408600BAC0CAD0DEE2F
:101DD800FAEFFB120D4E120E4479017F0A02189B8E
:101DE800EE2483F582E43FF583E02274F21217EFC4
:101DF80074FC121713EAFEEBFF8909A2AFE433F56E
:101E080008C2AF021EBDE0601B780C121996AC0B1D
:101E1800A90EEEFAEFFB120CBE7402121729740415
:101E2800250BF50B7401250BF5D9850ED9E50B604B
:101E380018F50A850C82850D83E0F5D9A385820CF7
:101E480085830D150AE50A70EA75E195EE2463F8B5
:101E5800E43FF97A007B00A2AFE433F50BC2AF8808
:101E6800828983E0FCA3E0FDEC4D603A8882898397
:101E7800E0FAA3E0FB8A828B83E0FCA3E0FD888282
:101E88008983ECF0A3EDF08A828B83E4F0A3F088D9
:101E9800828983E0FCA3E0FDEC4D700A8882898387
:101EA800A3A3E4F0A3F0E50BA2E092AF1212B29064
:101EB80004B8E004F0EE2463121DEBF8A3E0F9E89F
:101EC800496064EE2463121DEB2402F8A3E0340099
:101ED800F988828983E5822402F50CE43583F50DBF
:101EE800E0F50BA3E0F50EEE2462121DEB64017021
:101EF800369061D0E0F8121DE860047C0480027C12
:101F0800007480C398FA95E0FBE50B2CF8E43400E4
:101F1800F9E82402F8500109C3EA98EB99A2D265BE
:101F2800D0334003021E0E9004B8E0604D9004B90F
:101F3800E0F89004B8E0C398500C74026509703A50
:101F48009004BAE060348E828F83A3A3A3A3E085B4
:101F58001882851983121F92740212175FE8121FE4
:101F6800929004B7E028F07402121779AA18AB19F6
:101F780079011209409004B8E4F0E508A2E092AFB4
:101F880074041217297F0702189BF0A3E4F0900449
:101F9800B8E0F8228521878522C622C0E074EB12BA
:101FA80018DBA2AFE433F508C2AF759B00906182DD
:101FB800E0A2E05030E591A2E0502A7591FE74014C
:101FC80065217021122136120D901221241219A9AF
:101FD8001222ED7404121729E964017005790112BF
:101FE8000DCC121C62906182E0A2E5505DE591A2E1
:101FF800E550577591DF900376E064076005E0646B
:1020080008702F12213674016521703E120D90124E
:1020180021241219A91222ED7404121729E9640166
:1020280070057901120DCC7901EEFAEFFB121DF360
:102038008018E0640D7013900398E004F064287031
:1020480002E4F07A00E0F9120E4A906182E0A2E61A
:1020580040030220F9E591A2E640030220F97591B8
:10206800BF900376E064057008120D78120D848025
:1020780003120D7E752100120DD8E9900377F079CF
:1020880000120DCC120B7A7A017B00900375E0F9EF
:10209800121282907803E064427056900520E01492
:1020A800F0704EC2AF1220B000782AD0E0F618D0F7
:1020B800E0F6E59F5407F87005750DFF8003750D70
:1020C8007FC4C0E07829E6F50A08E6550DF50B74DB
:1020D8000B780A1216F1D0E0250AF8906270E0A297
:1020E800E740F8E8C333906272F0906270E0D2E0A3
:1020F800F0906181E0A2E35009E5E9A2E35003759D
:10210800E9F7A3E0A2E75009E591A2E7500375912A
:102118007FE508A2E092AF7F0802193A8E828F838A
:10212800E0F8A3E0C82416F582E438F5832290038A
:10213800A4E0F875F00BA4C8AAF02AF974A628FE42
:10214800740339FF22C0E0C0D0C082C0839061838D
:10215800E0A2E05009E5BFA2E0500375BFFEE0A28F
:10216800E15009E5BFA2E1500375BFFDE0A2E250CE
:1021780009E5BFA2E2500375BFFBE0A2E35009E501
:10218800BFA2E3500375BFF7E0A2E45009E5BFA280
:10219800E4500375BFEFE0A2E55009E5BFA2E550A2
:1021A8000375BFDFE0A2E65009E5BFA2E65003755C
:1021B800BFBFD083D082D0D0D0E032C0E074F2125A
:1021C80018DBE5A7A2E6500FE5A1A2E6500953A740
:1021D800BF75A1BF122217E5A7A2E5500CE5A1A281
:1021E800E5500653A7DF75A1DFE5A7A2E15009E591
:1021F800A1A2E1500375A1FDE5A7A2E2500CE5A15B
:10220800A2E2500653A7FB75A1FB7F0102193A749D
:10221800F71217EF752101900376E0640670151226
:102228000CFA8A828B83A3A3A3A3A3A3E0FAA3E057
:10223800FB120D66A2AFE433FED2AF90037CE064DC
:102248000170187A207B00900375E0F91213A87AC0
:10225800207B00900375E0F9121288906182E0D229
:10226800E6F090051DE0602185C622801690037B6C
:10227800E064017008E5C654F84405F5C653BEFC91
:10228800121F9C7401652160E4EEA2E092AF7F0208
:1022980002189B008E238F24858228858327851822
:1022A80082851983E0CEA3E0CF852882852783EB3A
:1022B800C9EAC8EDCBECCA75F010C3E833C8E933F6
:1022C800C9EA33CAEB33CBC3EA9EF526EB9FF52563
:1022D800B35004AB25AA26EC33CCED33CDD5F0DAD8
:1022E800AE23AF242274F11217EF8A088B098C0AE7
:1022F8008D0B9081AC78081215B1740F12175F78A6
:102308000C1215D79081AC780C1215B17808790C9D
:1023180012145990816450107808790C1215897834
:10232800081214794014800E780C790812158978EF
:102338000C12147950047901800279007F08021880
:102348009B74ED1217EF8A088B098C0A8D0B90810C
:10235800AC78081215B1741312175F780C1215D7E0
:102368009081AC780C1215B1780C79081214594088
:10237800117808790C121589AA08AB09AC0AAD0BBB
:102388008022751000751100751200751301781000
:10239800790C12158978107908121550AA10AB110A
:1023A800AC12AD137F0C02189B9081AC7808121503
:1023B800D78A828B8378081215C47F0402189B740D
:1023C800F51217EF8C828D8378081215D78A828BC5
:1023D80083780812159D12241FC3E09CF0A3E09D8A
:1023E800122411402290817C78081215D78A828B9A
:1023F8008378081215768A828B83A3A3A3A3E0248B
:1024080020F0A3E0344EF080A0F088828983C3E0F6
:102418009420A3E0944E22EA2404F8E43BF98C8249
:102428008D83A3A3A3A3E0FCA3E0FD888289832274
:1024380074F51217EFE9FE9004D3E0FAA3E0FBEE7F
:1024480029F8E433F974D928F582748039F583E0E2
:102458002AF508A3E03BF5097808121996908190AF
:102468001215F512229C74021217298A088B098CFE
:102478000A8D0B74107808121518AA08AB097F0486
:1024880002189B74F11217EF8A0C8B0D8C0E8D0FAE
:10249800741112175F1219AD741112175FE024013D
:1024A800F508A3E03400F509E4F50AF50B780C7992
:1024B8000812149890817078081215D7780C79084A
:1024C800121498AA0CAB0DAC0EAD0F12229C74021C
:1024D8001217298B09EA450960047A0180027A00FB
:1024E800EC2AFCE43DFD741312175FE0F8A3E0F951
:1024F800E8FEE9FFECF8EDF97A717B02121688889C
:10250800088909E4F50AF50B8E828F83780812157D
:10251800E6ECF8EDF97A717B021216888A088B09C5
:10252800740578081217008E828F83A3A3A3A3E5EE
:1025380008F0A3E509F07F0802189BC082C083E970
:10254800906000F0D083D08222C0E0C0D0E8C0E024
:10255800E9C0E0A2AFE433F8D2AFC2C7E8F9E8A215
:10256800E092AFD0E0F9D0E0F8D0D0D0E032C0E0CF
:1025780074F21218DBA2AFE433FED2AFE5BAF879F1
:1025880000900833E8F0A3E9F0A8BB7900E4C8F9A3
:10259800900833E048F0A3E049F0E5B5540F9008FF
:1025A80032F090082EE0FAA3E0FB90082DE0F91233
:1025B8001282E9EEF8EEA2E092AF7F0102193AC268
:1025C800AF0200002202011FFFFFFFFFFFFFFFFF16
:1025D800C082C083E99015EEF0D083D08202011F3B
:1025E80074F6121783E99002E8F0900348E0F508C2
:1025F80075090074027808121700AA08AB091212AC
:10260800FA9002E9122F9B9002E9123388606F90CA
:102618000348E075F003A4FAABF01212FA9003062F
:10262800122F9B900306123388700B9002E9123325
:102638005912130080489003061242ED7AFF7BFF7F
:102648001211327A0080198A087509007402780814
:10265800121700123D9574FF12279BE4F0A3F00AAD
:10266800900348E0F8EAC39840DD79051207D8904E
:1026780002E8E0F91206C47A627B08120A54023EA4
:102688003874F41217838A088B09EB5480604790DA
:1026980002E8E0F912126A8A0A8B0BAE0AAF0BEE57
:1026A8004F602A8E828F83E064B0701A1207EAE9BD
:1026B80060148E828F83A3A3A3A3E0F9EE2405FA06
:1026C800E43FFB1207BAEEFAEFFB121258AA08E52C
:1026D800096480FB80047A007B000228EB74F21204
:1026E800178374FB121713EAFEEBFFEE4F60457475
:1026F8000312175FEEF0A3EFF0851882851983ECBB
:10270800F0A3EDF0740212175FE9F0AA18AB1912E2
:1027180006BEE9F5087075741312175FE0F50AA391
:10272800E0F50BE50A450B60638E828F83122D243A
:10273800EE4F700575080280537A067B001212FA74
:102748008A0C8B0DA80CA90DE84970057508138033
:102758003B88828983E412279BEEF0A3EF1228B707
:10276800E50AF0A3E50BF09002EC1228B09002EC19
:102778006017E0FCA3E08003EAFCEBFD8C828D830C
:102788001228B070F38C828D831239B0A9087405B1
:1027980002456DF0A31242CFA32274F21217838967
:1027A80008890C750D007403780C121700850C0A43
:1027B800850D0B9002EBF09002E91237BB1228AEA0
:1027C800602E1213007900801D890C750D007402AB
:1027D800780C1217009002E9123C548882F583A302
:1027E800A3E4F0A3F009900348E0F8E9C39840D9BE
:1027F800900348E0FA850AF0A4CAA8F0850BF0A473
:1028080028FB1212FA8A0C8B0DAE0CAF0DEE4F702E
:10281800030228A4900348E0FC850AF0A4CCA8F0A1
:10282800850BF0A428FD79001212467C0080318DBA
:102838000C750D007403780C1217008A828B8312B2
:1028480028A988828983E4F01228B6A3A3F0A3F00C
:102858000DEDC3950840D8EE250AFEEF350BFF0CA9
:10286800900348E0F8ECC39850288C0C750D007460
:1028780002780C1217009002E91228A9E8240250E5
:102888000109FAE9FB8A828B83EEF0A3EFF07D0061
:1028980080BFE5089002EBF07900800279130245C9
:1028A80070123C58F922A3A312335DEA4B22A312FB
:1028B80042CFA3A3A32274F41217837900EAA2E0FB
:1028C800501F75084A750981780812199679107C85
:1028D800047D007AF07B151207D27402121729E9D9
:1028E800F980007F04021855C082C0839002EC1260
:1028F8003388601C88828983A3A3E06A7003A3E0FD
:102908006B8882898370E8A3A3A3A3123359800438
:102918007A007B000225E174F212178374FD121706
:1029280013EAFEEBFF851882851983E4F0A3F0749F
:102938000212175F7401F0123385701412098E1297
:1029480012FA9002EF122F9B1233857003022AB1FC
:1029580012309BEE2404F50AE43FF50B850A82F554
:1029680083E024FE603C24FC607424FE607E24FE28
:102978007003022A0124FE7003022A0E24FE70034B
:10298800022A1B24FE7003022A2824FE7003022A4E
:102998003524FC7003022A5624FE7003022A6E02B4
:1029A8002AAA12098E9002F1EAF0A3EB122ABD12AC
:1029B8000406E96003022AAA9002F11219AD8E8278
:1029C8008F83A3A3A3A3A31242ED8508828509835D
:1029D8001233591207A27402121729022AAAAC1834
:1029E800AD19EEFAEFFB1207F0022A79AC18AD190F
:1029F800EEFAEFFB1207F68078AC18AD19EEFAEF95
:102A0800FB1207FC806BAC18AD19EEFAEFFB12084D
:102A180002805EAC18AD19EEFAEFFB12080880517F
:102A2800AC18AD19EEFAEFFB12080E8044740212CE
:102A38001769880C890D780C121996740212177987
:102A4800EEFAEFFB12081474021217298023AC184F
:102A5800AD19EEFAEFFB12081AE9F87016740212B3
:102A6800175FE4F0803CAC18AD19EEFAEFFB1208E2
:102A780020E9F8E8602C8E828F83A3E0641460223A
:102A8800850A82850B83E09002F1F085188285190A
:102A9800831233599002F2122F9BE8A3122ABD1217
:102AA8000400EEFAEFFB120778740212175FE0F9E0
:102AB800740302456DF07CF17D02850882850983E7
:102AC80012335D2274E812178374FA121713740410
:102AD80012175FECF0A3EDF08A128B13EA2405F5C8
:102AE8000EE43513F50FEA2402F510E43513F51159
:102AF800851082F5831233591204F68A0A8B0B75F6
:102B080008007C037D0079007AF17B02121246E509
:102B18000E2402F516E4350FF517740212176988AA
:102B28000C890D780C121996850E82850F83A3A344
:102B3800A3A3E0F50C750D00780C121996E50E2488
:102B480005F50CE4350FF50D780C121996851682EB
:102B58008517831236601206DC74061217298A0C50
:102B68008B0DE50C450D7003022CED802085188235
:102B7800851983E088828983F0050885188285197C
:102B880083A3E0C0E0122D2ED0E0F00508E50A246A
:102B9800FBFAE50B34FFFBC3E5089AE49B4003020C
:102BA8002CED7E007F00851282851383A3A3A3A347
:102BB800E0F509780912199AE4F514F51578141254
:102BC80019967514EE75150278141219969002EF7D
:102BD8001219AD740912175F1219ADE50A24F9F933
:102BE800AC0CAD0D85108285118312335912084A39
:102BF8007409121729E96003022C8E850E82850F4D
:102C080083A3A3A3A3A3A3A3E0F89002EEE06870B4
:102C180075E0F5148E1578141219961242EA850E8D
:102C280082850F83A3A3A3A3A3A3A3A3123359123B
:102C380012407402121729E9604C9002F21233888C
:102C4800703BE4F51478141219967CFF7DFF790720
:102C58008510828511831233591207B47402121732
:102C68002912338E7017850E82850F83124487745C
:102C78000412175F123D48123691022D21850C82ED
:102C8800850D83122D24A818A9198814891578147C
:102C9800121996740412175F1219AD8516828517DA
:102CA80083122F911206E874041217298A0C8B0DCF
:102CB800EE4F7003022B6A122D2EEE122D391236AA
:102CC80047EF122D39F8A3E03400F9E50C450D6003
:102CD80003022B758882898374FFF00508122D2E54
:102CE80074FFF00508E508601A1313543F122FA16A
:102CF800120412E960099002F21233591212B279E1
:102D0800008016850E82850F83124487740412177B
:102D18005F123D481239B0790A02361AA3A3A3A359
:102D2800E0FEA3E0FF22A8089002F2E0281236474E
:102D380022F00508089002F2E0282274E8121783AE
:102D480074FA121713740212175F122F9B7404126D
:102D5800175FECF0A3EDF0740212175FE024051280
:102D68003630E0F50CA3E0F50D740212175FE0248D
:102D780002F510A3E03400F511851082F5831233B3
:102D8800591204F6750800750900EA24FCFEEB34B4
:102D9800FFFF8008050CE50C7002050DA808C3EEBE
:102DA80098EF94005003022F4DA818A919880E898E
:102DB8000F780E121996851482851583A3A3A3A3F1
:102DC8001242F1121996E5142405F50EE43515F5AD
:102DD8000F780E121996851482851583122F8F127B
:102DE80006DC74061217298A0E8B0FEA450F70034A
:102DF800022F4DEA2404F516E4350FF517851682DF
:102E0800F583E0F50CA3E0F50D851882851983128A
:102E180042ED8A828B83A3A3A3E0F98510828511F2
:102E2800831233591206CAE9F5096003022F4D745B
:102E38000212175F123657F509780912199AE4F544
:102E480012F51378121219967512EE75130278128C
:102E58001219969002EF1219AD740712175F121922
:102E6800ADEEF9AC0EAD0F85108285118312335982
:102E780012084A7409121729E9F5096003022F4D4F
:102E8800E508703FE4F50EF50F780E1219967CFFF1
:102E98007DFF79098510828511831233591207B491
:102EA800740212172912367D700D740412175F12FE
:102EB8002F847911022F819002EEE024029002F211
:102EC800F080149002F2E0FA9002EEE07900240219
:102ED8005001096A497072A8089002EEE0FAE82ADF
:102EE800FAE43400FBEE9AEF9B405A851682851768
:102EF80083E0C0E09002F3122D33D0E0F00508859E
:102F08001682851783A3E0C0E0089002F3122D33E0
:102F1800D0E0F005089002EE1242F1121996124222
:102F2800EAA80812362412122E74021217299002E7
:102F3800EEE02508F50874FF650C700474FF650D54
:102F48006003022D9CE508601F9002F2E0F5F0E5B1
:102F58000884122FA1120418E960099002F31233B1
:102F6800591212B279008011E509700375090A74C3
:102F78000412175F122F84A90902361A1237BFE507
:102F88000CF0A3E50DF022A3A312457CAA0CAB0D0F
:102F980022A3A3EAF0A3EBF0229002F1F07CF17DEA
:102FA8000285108285118312335D2274EC12178317
:102FB80074FC121713123AC07402121779123353A1
:102FC8001206E28A0C8B0DEA450D700302308B1253
:102FD800309BA818A9198810891178101219967CA5
:102FE800FF7DFF790B850882850983123359120703
:102FF800B47402121729123191700C850A82850B5C
:103008008312368E0230988E828F83A3A3A3A3E007
:10301800F512781212199AE4F512F51378121219AA
:10302800967512F175130278121219967810121902
:1030380096740912175F1219AD740912175FE0F937
:10304800AC0CAD0D85088285098312335912084AE4
:103058007409121729E9FE70157CF17D0285088232
:1030680085098312335912041EE9700980207416E9
:103078006E70027E009002F21233591212B2EE7094
:1030880004800B7E01850A82850B831239ADEEF927
:103098000239C2EE2402F508E43FF5092274EC1265
:1030A800178374FC121713EAFEEBFF8C0E8D0FEEDC
:1030B8002405F508E43FF50974021217798508829A
:1030C8008509831233591206E28A0C8B0DEA450DE5
:1030D8007003023181EE2402F50AE43FF50BA818CB
:1030E800A9198810891178101219967CFF7DFF792B
:1030F8000D1233531207B47402121729123191704A
:103108000B85088285098312368E807A8E828F839A
:10311800A3A3A3A3E0F512781212199A8508828551
:103128000983A3A31219AD7512F17513027812124F
:1031380019967810121996740912175F1219AD743E
:103148000912175FE0F912334F12084A740912176F
:1031580029E9FE700F7CF17D02123353120424E931
:103168007009802074166E70027E009002F212338D
:10317800591212B2EE7004800B7E0185088285090F
:10318800831239ADEEF90239C2123398F510A3E073
:10319800F511EA45112274E812178374FE12171309
:1031A8008A168B178C148D15EA2405F50CE435174F
:1031B800F50DEA2402F50EE43517F50F850E82F5B4
:1031C800831233591204F68A088B09750B007C03A5
:1031D8007D0079007AF17B02121246750A00E50833
:1031E80014F5100424FFF508E50934FFF5098054A7
:1031F8009002F1E0FA9002EEE0F8EA28F8E43400F0
:10320800F9E50898E50999500D9002F1E0F8E51004
:10321800C3989002EEF0E0F51275130078121219B7
:10322800961242EA9002F2E02AFAA3E03400FB1276
:10323800122E74021217299002EEE0F89002F1E0C3
:1032480028F0050A850C82850D83A3A3123C6440EF
:10325800030233349002F1E0C39508E49509400372
:10326800023334AE0AEE2EFEE433FF123373AC1889
:10327800AD19124305E439FB1206E28A128B13AC2E
:1032880012AD13EC4D701B750B011233631239B17B
:103298009002F21228B060031212B2A90B74020253
:1032A800361C851682851783A3A3A3A3E0F50B78A4
:1032B8000B12199AE4F512F5137812121996751271
:1032C800EE75130278121219969002EF1219AD7466
:1032D8000712175F1219ADA910850E82850F831288
:1032E800335912084A7409121729E9F50B709B9093
:1032F80002F212338860030231F8E4F512F513780C
:10330800121219967CFF7DFF790F850E82850F8337
:103318001233591207B4740212172912338E60033C
:103328000231F81233631236920232A57CF17D0223
:10333800850E82850F8312335912042AE96003022D
:10334800329879000232A5AC0CAD0D850A82850B46
:103358008312335D22E0FAA3E0FB22123373E0FA12
:10336800A3E0F9EA85148285158322850C82850DF0
:1033780083E02EF8A3E03FF988828983229002EF48
:1033880012448BE84922123398F8A3E0F9E849225D
:103398009002F2EAF0A3EBF09002F2E02274E81255
:1033A800178374FA121713740412175F122F9B8C69
:1033B800168D17740412175FE02405F50EA3E03488
:1033C80000F50F740412175FE0240212363012332E
:1033D800591204F68A0A8B0B7F007E00A818A919D7
:1033E800880889097808121996850E82850F83A3A3
:1033F800A3A3A3E0F5088E097808121996E50E2410
:1034080005F508E4350FF5097808121996850E8236
:10341800850F83A3A31236601206DC7406121729DF
:103428008A0C8B0D8029123651F00F123651F00F8D
:103438009002EE12399C1219961242EAEFF81236EF
:103448002412122E74021217299002EEE02FFFE5C3
:103458000C450D70030234E0851882851983123AF1
:10346800D2A3A3A3E0F985148285158312335912D8
:1034780006CAE9FEE50C2404F510E4350DF511EE55
:103488007050740412175F123657F508780812192D
:103498009AE4F508F50978081219967508EE750981
:1034A8000278081219969002EF1219AD74071217D4
:1034B8005F1219ADE50A24FAF9AC0CAD0D8514823A
:1034C80085158312335912084A7409121729E9FE1F
:1034D800603912366D1239B0EF7003023607900268
:1034E800F2E0F5F0EF849002F1F07CF17D028514B2
:1034F80082851583123359120430E960099002F36A
:103508001233591212B2790002361A8F08EF703B43
:10351800E4F512F51378121219967CFF7DFF7911E4
:103528008514828515831233591207B47402121751
:103538002912367D700912366D12369102361A90AC
:1035480002EEE024049002F2F080359002EEE0F8FA
:103558009002F2E0FAE82404FCE43400FDEC6A4D41
:1035680060030234E6E50A24FAFAE50B34FFFBE5CA
:103578000828F8E43400F9EA98EB9950030234E695
:10358800851082851183E0C0E09002F3E02FF8A354
:10359800E034008882F583D0E0F00F851082851131
:1035A80083A3E0C0E012363ED0E0F00F7402121799
:1035B80069880889097808121996740212175F1227
:1035C80019AD850E82850F83122F8F1206E87404B9
:1035D8001217298A0C8B0DEA450D700302342E74DC
:1035E8000212175FE0C0E012363ED0E0F00F74021E
:1035F80012175FA3E0C0E012363ED0E0023436EE88
:1036080070027E0A850E82850F831236731239B0D6
:10361800EEF974061217297F100218559002F3E08C
:1036280028FAA3E03400FB22F514A3E03400F515D2
:10363800851482F58322123642229002F3E02FFA93
:10364800A3E034008A82F5832212364274FF2212E4
:1036580037BFA3A3A3A3E02212457C850E82850F62
:103668008312335D2285108285118312448B85165F
:1036780082851783229002F3EAF0A3EBF09002F31D
:1036880012448BE849221239B6E8F0A3E9F079111F
:103698002274EA12178374FE1217138A088B098C96
:1036A800128D13EA2405FEE43509FFAC18AD198E16
:1036B800828F831233591206E28A0C8B0DEE240690
:1036C800F50EE43FF50FEA450D7003023791E50862
:1036D8002402F50AE43509F50B8A828B83A3A3A398
:1036E800E0A2E550288518828519831233591208FB
:1036F8003E8A108B11EA45116020791212334F85EA
:103708001082851183121781E9F50C707F850E826E
:10371800850F83E0600979528011750C0E806D85E4
:103728000882850983A3A3A3A3E0F9E4F508F509B2
:1037380078081219968E828F83A3A3E0F50878087B
:103748001219968E828F83A3A3A31219AD8E828F2E
:10375800831242ED1233531208507406121729E9E6
:10376800F50C7011850E82850F83E0702D1233538E
:1037780012043680257416650C7011750C007418C7
:1037880012175F1237BBE48010750C011244838551
:103798001282851383E8F0A3E9F0850E82850F83F2
:1037A800E0600479008002A90C74021217297F0EC8
:1037B8000218551237BF22E0F8A3E0F58388822269
:1037C80074EC12178374F71217138A0A8B0B8C1078
:1037D8008D11EA2405FEE4350BFF750C00AC18AD1D
:1037E800198E828F831233591206E28A088B09EAEE
:1037F80045097003023987E50A2402F50A500205D3
:103808000B8A828B83A3A3A3E0A2E5502F8518829D
:1038180085198312335912083E8A0C8B0DEA450D1F
:10382800604F7912AC08AD09123353850C82850DAF
:1038380083121781E9F50C600302398A850A8285AB
:103848000B83E0F508A3E0F509AA08FB120832EAA1
:103858004B70197AFF7BFF120832EA4B700302396A
:103868007D8A828B83E508F0A3E509F0750800805E
:1038780008750C0E02398A05089002EBE0F8E50895
:10388800C398400302397D85080E750F00740378CC
:103898000E1217008A828B83A3A3E0250EF8A3E0FB
:1038A800350F123D5170D08E828F831239A5122F99
:1038B8009B8E828F83A3A31239A5122F99EE24041D
:1038C800F508E43FF509850882F583E08882898355
:1038D800A3A3A3A3F0A3E4F0EE2405F50EE43FF5BB
:1038E8000F850E82F5831239A5A3A3A3A3122F99DE
:1038F8007512077513007812121996EEFCEFFD7415
:103908000412177112122E7402121729E4F5127894
:1039180012121996850882850983E0FC7D007917C3
:103928001233531207B47402121729740712175F5F
:10393800122F9B740712175FE0FA4B603D850882CF
:1039480085098312399C121996850E82850F831278
:1039580042ED12122E7402121729740212177912EC
:10396800335312043CE96026740712175F12335967
:103978001212B28019750C098008750C1180037534
:103988000C011244838510828511831239B0A90C69
:1039980074098028E0F50875090078082212335D5B
:1039A80088828983221239B6E8F0A3E9F022E0F888
:1039B800A3E0F9850E82850F832274041217297FEC
:1039C8000C02185574EC121783123AC0751000EEE9
:1039D8002402F50CE43FF50D850C82F5831233596A
:1039E8001208328A088B09EA45097003023AA4854D
:1039F8000A82850B83E064016003023A99AC08AD42
:103A080009AA0AAB0B120826E9606E8508828509A7
:103A180083122D26EE2406F50AE43FF50B8E828FDD
:103A280083A3A31219AD8E828F83A3A3A3A3121914
:103A3800AD850A82850B831219AD79188E828F8322
:103A4800123AD21233591208507406121729E9F89B
:103A5800741668700B850A82850B83E4F0A38014C2
:103A6800E860128E828F83123359850E82850F8308
:103A7800EAF0A3EBF088108018780E121996AC08BB
:103A8800AD09EEFAEFFB12082C7402121729E9F5BA
:103A980010AA08AB09120838E510700E850C82854B
:103AA8000D8312335912044280097416651070038D
:103AB800751000A9100239C7EAFEEBFF8C0E8D0FB6
:103AC800EE2405F50AE43FF50B2212457C850C82AD
:103AD800850D832274EA1217837508007509007E24
:103AE800007F00750A00EC2402F510E43DF5118012
:103AF80035EC65087003ED65096003023B91888227
:103B08008983A3A3E06A7003A3E06B707C88828931
:103B180083A3A3A3A3124487EE28FEEF39FFEA2864
:103B2800FAEB39FB050A123C61503A850A0C750D0F
:103B3800007403780C121700851082851183123CDB
:103B480054123D51601FE508450970A58C088D0980
:103B580088828983122D2488828983A3A3E02EFA80
:103B6800A3E03F80BEE50AC394025003023C4F75B0
:103B78000800750900EE4F6010EEFAEFFB1212AC68
:103B88008A0E8B0FEA450F70057900023C51750BC0
:103B980000023C24850B0C750D007403780C121779
:103BA80000851082851183E0250CF50CA3E0350D06
:103BB800F50DE50C2406F514E4350DF5158514828C
:103BC800F583123D566042E50C2404F512E4350DE8
:103BD800F513851282F5831219ADE50E2508FAE56D
:103BE8000F3509FB12122E740212172985128285CD
:103BF8001383E02508F508A3E03509F50985148243
:103C08008515831233591212B2E50B600D7C087DBD
:103C1800007900AA0CAB0D121246050BE50BC395F3
:103C28000A5003023B9C85108285118312448788C1
:103C3800828983A3A3A3A3A3A3E50EF0A3E50F1290
:103C480028B7EEF0A3EFF079010237B6123C5822FC
:103C5800E0250CF8A3E0350D229002EBE0F8E50A28
:103C6800C3982274F01217838A0E8B0F8C0A8D0B5F
:103C7800750D00750C0080507916EE2406F508E4E1
:103C88003FF5098E828F83A3A31219AD8E828F838D
:103C9800A3A3A3A31219AD8508828509831219ADC0
:103CA800850E82850F83A3A3123359120850740618
:103CB800121729E9F50D7416650D706C8508828553
:103CC8000983E4F0A3F0050C9002EBE0F8E50CC3DF
:103CD800985066AA0C8A08750900740378081217A8
:103CE80000850A82850B83A3A3123DA0E8FEE9FFA5
:103CF8008E828F83123D566040EA2401F508E43431
:103D080000F5099002EBE065087002E50960148887
:103D1800828983A3A3A3A3A3A3A3A31233886003C5
:103D2800023C807918023C82E9609B12448374103B
:103D380012175F123D481239B0A90D7F08021855B5
:103D4800E0FAA3E0F5838A8222F988828983124502
:103D58007CEC4D2274F61217837C0080010C9003D2
:103D680048E0F8ECC398501E8C0875090074027876
:103D780008121700123D95E06A7003A3E06B70DD2E
:103D8800E8FAE9FB80047A007B00023E389002E9F9
:103D9800123DA08882898322E02508F8A3E035092E
:103DA800F92274F21217838A088B09750A00802792
:103DB8008E828F83A3A3A3A31228AE60031212B22C
:103DC8007C087D007900EEFAEFFB1212468E828F96
:103DD80083E4F0A3F0050A123C615027850A0C75AC
:103DE8000D007403780C121700850882850983A3D7
:103DF800A3E0250CFEA3E0350DFF8E828F831233DE
:103E08008870AD85088285098374FFF0A3F00245A8
:103E18007074F61217831207E48A828B83E5824551
:103E28008370067A007B008007A3A3A3A3123359EB
:103E38007F0202185574F412178389088C828D83C7
:103E4800E06402703C124426FEA3E0F9EEF8740226
:103E58006870037429697029750A02750B00780A5D
:103E6800121996741012175F1219AD741012175F99
:103E78001219ADA9081211447406121729E9F9801C
:103E88000279010228EB74E812178374FB121713E6
:103E9800E9851882851983F08A168B17ECFEEDFFE9
:103EA8007510008E828F83A3A3A3E0A2E4502D7423
:103EB8001D12175F12335912083E8A828B83E582DE
:103EC800458370030242C5790AEEFCEFFDAA16ABE2
:103ED80017121781E9F51060030242C8741F121700
:103EE8005FE0F508A3E0F509742112175FE0F50A11
:103EF800A3E0F50B742312175FE0F50EA3E0F50FAE
:103F08008E828F83E064026003024266A3124487B4
:103F1800850882850983A3858212858313EE24068A
:103F2800F50CE43FF50D88828983124305F514E406
:103F380039F5157814121A20010000280128683F65
:103F4800070002282D4003289B3F00295C410129D6
:103F580087410229284103295C410429004266421D
:103F6800E50E450F6003024261850C82850D8312C0
:103F78004487E8FAE9FB8A828B83E0850A82850B0D
:103F8800831243101219968A828B83A3E0FCA3E064
:103F98000241EAE50E450F6003024261850A828507
:103FA8000B837401F01242FA850882850983F07C3C
:103FB800007D008E828F83A3A3A3A3E02401FAA32C
:103FC800E03400FB1206E2EA4B60408A828B83E011
:103FD8002402F8850A82850B83E028F0EA2404F895
:103FE800E43BF988828983E0851282851383124332
:103FF8001E1243101219968A828B83A31242EDE592
:10400800082403FAE43509FB0241EF850A82850B8F
:1040180083E02404F07C047D007900AA12AB13121B
:1040280012460242C8E50E450F6003024261124281
:10403800FAFEA3E0FF850A82850B837404F0EE85FF
:104048000882850983F0EF851282851383F0740353
:10405800121779EEFAEFFB1206E28A0C8B0DEA458D
:104068000D700302410B8A828B83A3A3122D247443
:1040780001121769880E890F780E121996740512A5
:10408800175F1219AD7CFF7DFF1206E87404121742
:10409800298B0FEA450F7033850C82850D831242F8
:1040A800F1121996850C82850D83A31219AD7C0235
:1040B8007D007ACE7B811204E47404121729E9701A
:1040C8000A740112175F74FFF0A3F08E828F83E0E9
:1040D80064027039750C02750D00780C1219968EF1
:1040E800828F83A31242EDE5082404FAE43509FB24
:1040F80012122E7402121729850A82850B83E02476
:10410800028009740112175FEEF0A3EFF074011238
:10411800175F1242DF740112175F1242D602425B28
:10412800E50E450F6003024261850C82850D8312FE
:104138004575AA16AB1712114A850A82850B837436
:1041480002F0850882850983EAF085128285138347
:10415800EB02425EE50E450F60030242611242FA2D
:10416800F8A3E0F9850A82850B837402F0E88508D4
:1041780082850983F0E985128285138302425E8570
:104188000C82850D83123359121228EAFAF8C39566
:104198000EE4950F405CE8650E450F70047A0080C8
:1041A80021851882851983E0FCE50E2CFCE4350F87
:1041B800FDC3EC98ED94005003E08005E50ECAC3FA
:1041C8009AFAEA850A82850B83F08A0A750B0078C9
:1041D8000A121996850C82850D83E0250EFCA3E052
:1041E800350FFDAA08AB0912122E74021217290204
:1041F80042C87510070242C8E50E450F705B850C72
:1042080082850D83124487850A82850B837407F0A3
:10421800888289831242D71242CFE08512828513A1
:1042280083F0E82402FAE439FB8A828B831242DFA6
:104238008A828B831242D6A3A31228B61242E4F0D4
:10424800E82405F8500109888289831242E4A31200
:10425800431EA3A3A3A3F0806775100B8062741D8F
:1042680012175F1233591207E48A828B83E582455D
:1042780083604A124487880C890DE8450D603E74B6
:104288002512175FE0F510781012199A780E121996
:1042980096780A1219967808121996740712175FF9
:1042A800E0F9EEFCEFFDAA16AB17850C82850D83AD
:1042B8001217817407121729E9F510800375100E7B
:1042C800A910740502361CF088828983A322A3E012
:1042D80085088285098322124325F022124325A3EB
:1042E800A3229002EF12457C22E0F50E750F0078AC
:1042F8000E22850C82850D831237BFE022E0FAA3D7
:10430800E0F8E4C8F9EA2822F08A828B83E0F50A0B
:10431800750B00780A221242CF12432522E0850845
:1043280082850983A3A32274EE12178374FE1217E1
:10433800138A088B09ECFEEDFF890AAC18AD19EE5B
:10434800FAEFFB1206E28A0C8B0DEA450D700302A8
:1043580044178518828519831233591207E48A8213
:104368008B83E58245837003024412A3A31244871A
:10437800880E890FE8450F7003024412741412174F
:104388005FE0F510A3E0F511E50AF50B780B1219BB
:104398009A741912175F1219AD7810121996741BB6
:1043A80012175FE0F9AC0CAD0DAA08AB09850E82B7
:1043B800850F831217817405121729E9F50B7052BE
:1043C80074FE650A604C850C82850D83E06402707A
:1043D80041124426FAA3E0F9EAF8740268700374FB
:1043E8002969702E851082851183124305F50CE426
:1043F80039F50D780C121996EEFCEFFDAA08AB09F9
:1044080012086874021217298008750B0E8003754C
:104418000B01A90B74021217297F0A021855A3125F
:10442800448B88828983E02274F612178374FE1203
:104438001713740C12175F124487E88518828519C0
:1044480083F0740112175FE9F0E4F508F5097808BC
:1044580012199675080278081219967404121769C9
:1044680088088909780812199679FE120850740686
:104478001217297402121729023E388E828F83126E
:10448800448B22E0F8A3E0F92274F7121783EAFEBE
:10449800EBFF89089003061242ED12114AEA540212
:1044A800600BA908EEFAEFFB1206D6800279017FAD
:1044B8000102185574F212178374FE121713EAFEDC
:1044C800EBFF890A7401650A60147402650A6003C7
:1044D80002456B7901120A72E9600302456BEEFA34
:1044E800EFFB120832EA4B6003120838A818A91922
:1044F80088088909780812199675080275090078DC
:10450800081219967508D475098178081219967CCD
:10451800FF7DFF7A017B001206DC740612172980E2
:1045280038850882850983A3A3A3A3A3A31245758D
:10453800EEFAEFFB121132E4F50CF50D780C1219B6
:1045480096740212175F1219AD7CFF7DFFAA08ABA3
:10455800091206E874041217298A088B09E5084528
:104568000970BE74021217297F060218551237BF48
:1045780012457C22E0FCA3E0FD2274F41217838A22
:10458800088B09ECFEEDFF9015EEE0F4604B7A091C
:104598007B00121252EA4B60408A828B8374B1F01E
:1045A800A3E41245E4F08A828B83A3A3E508F0A371
:1045B800E5091245E4A3EEF0A3EFF0740C12175FBF
:1045C8001244878A828B83A3A3A3A3A3A3A312392C
:1045D800B09015EEE0F912125E0228EBF08A828B99
:1045E80083A3A3A3A32274EE12178374FA121713DA
:1045F8008A0A8B0BE9FF8C088D097E00850A0C85D9
:104608000B0D780C1219DA000410CA4836465946C0
:1046180078469B46BE46E146124735474C477C479D
:104628002B484E4871489F48CA48CA48A547740154
:104638006F7019850882850983E0C39403500D853E
:104648000882850983E09016DAF080027E18024815
:10465800F274026F7015850882850983E0F8A3E07B
:10466800F99016DBE8F0A3E9F080027E180248F220
:1046780074016F7019850882850983E0C39402501C
:104688000D850882850983E0900749F080027E182D
:104698000248F274016F7019850882850983E0C3A6
:1046A8009405500D850882850983E090074AF080BB
:1046B800027E180248F274016F7019850882850914
:1046C80083E0C39402500D850882850983E0900732
:1046D8004BF080027E180248F274106F7027750C38
:1046E80010750D00780C121996AC08AD097A4C7B40
:1046F8000712122E74021217298A0C8B0D850C8250
:10470800850D8380027E180248F274016F70198546
:104718000882850983E0C39402500D8508828509C3
:1047280083E090075CF080027E180248F274016F03
:10473800700D850882850983E09016DEF080027E80
:10474800180248F274046F7026908190780C121544
:10475800D7850882850983780C1214695011850859
:104768008285098312160190075E12160D80027E5B
:10477800180248F2EF702112067CE970131210D863
:10478800E9F50D795012137EE9F50C1210C6800A6E
:104798009007F17401F080027E180248F274076FE6
:1047A800707C750E06750F00780E121996850882B2
:1047B800850983A3AC82AD83740212177112123477
:1047C80074021217298A108B1185100E85110F7C1F
:1047D800007D00AA18AB19850882850983E0F912C3
:1047E800106CE9F50CE50CC3940A502E12067CE90E
:1047F8007015A90C1210DEE9F50E795012137EE936
:10480800F50D1210C68019A80C790074F228F582EB
:10481800740739F5837401F080067E0280027E18E1
:104828000248F274016F7019850882850983E0C314
:104838009402500D850882850983E090075DF08019
:10484800027E180248F274016F7019850882850982
:1048580083E0C3940A500D850882850983E0901689
:10486800DDF080027E180248F274016F7025850819
:1048780082850983E0C394074019850882850983E6
:10488800E0C39411500D850882850983E09016DFF6
:10489800F080577E18805374016F70229007F0E003
:1048A800F50C850882850983E09007F0F0E50C7027
:1048B800399007F0E0640170311210C6802C7E1820
:1048C8008028C3E50A9427E50B9400501B74026FF7
:1048D8007016850882850983E0FCA3E0FDAA0AAB6F
:1048E8000B1204FCE9FE80027E02EEF97406121730
:1048F800297F0A02185574EC12178374DA121713F9
:10490800890D8A128B138C0A8D0B743A12175FE08B
:10491800F50C908138AC18AD197406121626AC182F
:10492800AD19AA12AB13A90D12106CE9FEEEC394CF
:104938000A4003024A72EEF91210A8E9FF9016DA4B
:10494800E064027004740180027400F508780812AB
:10495800199AAD0CEFFCEEF9AA0AAB0B12111A74F6
:10496800011217297C147D00790074121217711234
:1049780012468A0E8B0F850E08850F0974121217BE
:10498800797A1075F006EEA42424F9121378E970E8
:104998003C7C1079FF74121217711212A6E9702D5F
:1049A800742212175FAC82AD837A0475F006EEA408
:1049B8002425F9121378E9F5087412121779EFA271
:1049C800E0E433F9AA0AAB0B120586E9F87406127B
:1049D80017797A0C74702EF9121378E970797406C5
:1049E80012177112109C750E00E50EC394045067DF
:1049F800A80E7900E875F003A4C8AAF075F000A421
:104A08002AFA75F003E9A42AF9740612175FE582F9
:104A180028F508E58339F509850882850983E0F8D2
:104A2800A3E0F9E849602C850882850983A3A3E0FF
:104A3800F51075110078101219968508828509837A
:104A4800E0FCA3E0FDAA0AAB0B1208567402121789
:104A580029E9F8050E8092EFA2E1500E900748E090
:104A6800F9AA0AAB0B12085CE9F87404650C700F1C
:104A78009016DAE064027007AA0AAB0B12111479D7
:104A88000074261217297F0C02185574F712178321
:104A9800EAFEEBFF12067CE970679007F1E064011B
:104AA800701B1210D8E9F5089007F17400F07C0A21
:104AB8007D0079007AF27B0712124680397508006A
:104AC800E508C3940A502FA808790074F228F582E3
:104AD800740739F583E064017018A9081210DEE93B
:104AE800FAA808790074F228F582740739F58374F6
:104AF80000F0050880CA795012137EE9F5081210F3
:104B0800C67F0102185574F2121783890BEAFEEB6F
:104B1800FF8C088D09750A0AE50B600C14600914EE
:104B28006044146064024BB3EEFAEFFB1210BAE96A
:104B3800F50AE50AC3940A5072E5084509606C75E0
:104B48000C06750D00780C121996EEFCEFFDAA08FC
:104B5800AB0912122E74021217298A0C8B0D850CC0
:104B680082850D838045EEFAEFFB1210B4E9F50A51
:104B7800E50AC3940A5034E5084509602EAA08AB33
:104B880009A90A1210AEE98022EEFAEFFB1210C052
:104B9800E9F50AE50AC3940A5011E5084509600BCE
:104BA800AA08AB09A90A1210AEE9F8A90A7F0602F9
:104BB800185574F21217838A0C8B0DE9FF7E157451
:104BC800FF650C700474FF650D702A750800E50810
:104BD800C3940A5014EFFC7A027B00A90812108AC9
:104BE800E960027E00050880E5EF60627A027B11C9
:104BF800120A968059AA0CAB0D120A668A0A8B0B08
:104C0800850A08850B09E508450960407C007D0098
:104C1800E5082405FAE43509FB850882850983A39C
:104C2800A3A3A3E0F912106CE9F50AE50AC3940AF4
:104C3800500EEFFC7A027B00A90A12108AE97E0066
:104C4800EF600BAA08AB0912110280027E14EEF97C
:104C58007F0602185574EE1217838A0E8B0F8C0A82
:104C68008D0B741212175FE0F50CA3E0F50D7508B3
:104C78001574FF650E700474FF650F701E7E00EEDC
:104C8800C3940A5061AC0CAD0DAA0AAB0BEEF91235
:104C98001090E960037508000E80E4AA0EAB0F12AD
:104CA8000A668A108B11AE10AF11EE4F60357C008A
:104CB8007D00EE2405FAE43FFB8E828F83A3A3A335
:104CC800A3E0F912106CE9F509E509C3940A501636
:104CD800AC0CAD0DAA0AAB0BA909121090E9750826
:104CE800008003750814A9087F0A02185574F71282
:104CF8001783EAFEEBFF900762EEF0A3EFF0900750
:104D080048E0FC7D007A267B001204FCE9F5089057
:104D18000748E0F91207C07F0102185574F012170E
:104D28008374EC1217138A0C8B0D850C82850D8306
:104D3800A3A3E024FA700302519D24FD70030250DE
:104D480012147003024E1414601024FD7003024FF5
:104D5800BA1470030250510251B0AE0CAF0D900757
:104D680062E0F8A3E0F9E8496066900762E0F8A31A
:104D7800E0F5838882E0F8A3E0F9E8496052EE2480
:104D88000CF582E43FF583E0F508780812199AEEED
:104D9800240BF582E43FF583E0F98E828F83A3A389
:104DA800A3A3A3A3A3A3A3E0FCA3E0FDEE2403FA1B
:104DB800E43FFB900762E0F8A3E0F5838882E0F81F
:104DC800A3E0F583888212178174011217298039AC
:104DD8008E828F83A3A3A3A3A3A3A3A3A31219AD16
:104DE80090075E1215F51205987402121729E960EA
:104DF8001879018E828F83A3A3A3A3A3A3A3A3A33C
:104E0800E0FAA3E0FB120592E90251B0AE0CAF0D37
:104E18007508008E828F83A3E06003024F3C8E8268
:104E28008F83A3A3A3A3A3E0A2E04003024F3C9077
:104E380007FCE0F8A3E0F9E8496003024F3C7C0E68
:104E48007D007900AA18AB191212468A0A8B0BAAA0
:104E58000AAB0BEE240CF582E43FF583E0F8A3E0FF
:104E6800F9E8496036750A06750B00780A12199632
:104E7800EE240CF582E43FF583E02410FCA3E03433
:104E880000FD740212177112122E74021217298A69
:104E98000A8B0B850A82850B83804F8E828F83A3B2
:104EA800A3A3E0FAA3E0FB120A668A0E8B0F850E15
:104EB8000A850F0BE50A450B602D750E06750F0068
:104EC800780E121996E50A2405FCE4350BFD7402E8
:104ED80012177112122E74021217298A0E8B0F855F
:104EE8000E82850F8380030251B08E828F83A3A325
:104EF800A3A3A3E0A2E25004D2F08002C2F0A2F081
:104F0800E433F87900740C12175FE048F0A3E04925
:104F1800F0EEFCEFFDAA18AB191210A2E970127A94
:104F2800027B00900748E0F9121282E979000251E9
:104F3800B2750815900762E0F8A3E0F9E849606FD8
:104F4800900762E0F8A3E0F5838882A3A3E0F8A3C2
:104F5800E0F9E84960598E828F83A3E0FC79018EDD
:104F6800828F83A3A3A3E0FAA3E0FB900762E0F893
:104F7800A3E0F5838882A3A3E0F8A3E0F583888201
:104F8800121781E5086028AC0879038E828F83A305
:104F9800A3A3E0FAA3E0FB900762E0F8A3E0F5839F
:104FA8008882A3A3E0F8A3E0F58388821217810220
:104FB80051B0AE0CAF0D900762E0F8A3E0F9E849F4
:104FC8006045900762E0F8A3E0F5838882A3A3E038
:104FD800F8A3E0F9E849602F850C82850D83A3E0EA
:104FE800FC79028E828F83A3A3A3E0FAA3E0FB904F
:104FF8000762E0F8A3E0F5838882A3A3E0F8A3E0C2
:10500800F58388821217810251B0AE0CAF0D7C0077
:105018007D00EE2404FAE43FFB8E828F83A3A3A3D2
:10502800E0F912106CE9F508E508C3940A5017EE88
:10503800240AFCE43FFD7A0475F006E508A424255B
:10504800F9121372E9F80251B0AE0CAF0D90075D7A
:10505800E060199016DDE0F98E828F83A3A3A3E0A8
:10506800FAA3E0FB120592E9F80251B09016DAE0D3
:10507800701679058E828F83A3A3A3E0FAA3E0FBC1
:10508800120592E9F80251B08E828F83A3A3A3E0A0
:10509800FAA3E0FB120A668A0A8B0B850A08850BBD
:1050A80009E508450970030251B08E828F83A3A3D6
:1050B800A3A3A3A3A3E0A2E0506D8508828509837A
:1050C800A3A3A3A3E060608E828F83A3A3A3A3A35B
:1050D800A3A3A3A3E0F50AA3E0F50B7409780A12C9
:1050E80016F1E50A5401F8E50B5400F9E8A2E0408E
:1050F80036740E121779E5082405FAE43509FB859C
:105108000882850983A3A3A3A3E0F912106CE970B0
:105118001679038E828F83A3A3A3E0FAA3E0FB1280
:105128000592E9F80251B0EE2405FCE43FFD85083C
:1051380082850983A3A3A3A3E0F98E828F83A3A307
:10514800A3E0FAA3E0FB12110E900762E0F8A3E0D7
:10515800F9E8496053900762E0F8A3E0F583888294
:10516800A3A3E0F8A3E0F9E849603D7C0079008E4C
:10517800828F83A3A3A3E0FAA3E0FB900762E0F881
:10518800A3E0F5838882A3A3E0F8A3E0F5838882EF
:105198001217818013AE0CAF0D8E828F83A3A3A349
:1051A800E0FAA3E0FB121066790174141217297F44
:1051B8000802185574F512178374F2121713890927
:1051C800EAFEEBFF8C0AAC18AD197A0E75F006E50D
:1051D80009A42420F9121378E9705F7C0679FFAAE4
:1051E80018AB191212A6E97051740C12175FE0F887
:1051F800A3E0F9E8F508E50A6005EE42088004EE48
:10520800F45208A8087900740C12175FE06870035C
:10521800A3E0696021A8087900740C12175FE8F010
:10522800A3E9F0AC18AD197A0E75F006E509A424C7
:1052380020F9121372E9790180027900740E1217AD
:10524800297F0302185574F012178374E612171396
:10525800890B8A0C8B0DECFEEDFF740C1217797A12
:105268000E75F006E50BA42420F9121378E9600303
:1052780002537E7C0679FF740C1217711212A6E98C
:10528800600302537EAC18AD197A0C7470250BF9C3
:10529800121378E9600302537A750A00AA18AB1949
:1052A80012109CE50C450D702E7C0C7900AA18ABE9
:1052B800191212A6E960030253607C0C7D00790084
:1052C800AA18AB191212468A088B09850882850923
:1052D80083750A01025360AC18AD19AA0CAB0D1204
:1052E80010968A0E8B0F850E08850F09E50845096B
:1052F8007030EE4F601BAC18AD197A007B001210AD
:10530800968A0E8B0FA80EA90F88088909E849709C
:105318000479008063850882850983E50CF0A3E59C
:105328000DF0850882850983A3A3E0F87900EE686B
:105338007002EF696022EEC0E0850882850983A3C8
:10534800A3D0E0F0EE4F700D8508828509837400C4
:10535800F0A37400F0750A01E50A6016AA18AB19E3
:1053680012109CAC18AD197A0C7470250BF9121335
:1053780072E9790180027900741A1217297F0802EC
:10538800185574F61217838A088B097E00EEC394A9
:10539800045050EEF87900E875F003A4C8AAF07537
:1053A800F000A42AFA75F003E9A42AF9EC28F5829A
:1053B800ED39F583E065087004A3E065097021EE16
:1053C800F87900E875F003A4C8AAF075F000A42ADB
:1053D800FA75F003E9A42AF9EC28FAED39FB8007FD
:1053E8000E80AA7A007B007F0202185574F7121704
:1053F800837C00ECC3940440030254A3ECF87900C6
:10540800E875F003A4C8ADF075F000A42DFD75F0A3
:1054180003E9A42DF9EA28F582EB39F583E0F4FED7
:10542800A3E0F4FFECF87900E875F003A4C8ADF048
:1054380075F000A42DFD75F003E9A42DF9EA28F50F
:1054480082EB39F583EEF0A3EFF0ECF87900E8751C
:10545800F003A4C8ADF075F000A42DFD75F003E9C4
:10546800A42DF9EA28F582EB39F583A3A3E0F4C06B
:10547800E0ECF87900E875F003A4C8ADF075F00029
:10548800A42DFD75F003E9A42DF9EA28F582EB397E
:10549800F583A3A3D0E0F00C0253FB7F010218555B
:1054A80074F012178374F4121713EAFEEBFF8C08DA
:1054B8008D099007FCE0F8A3E0F9E849702CEE4F5D
:1054C8006006E508450970057901025754EEFAEFC0
:1054D800FB1210BAE99016E0F09016E0E0C3940AC7
:1054E80040081210CCE99016E0F09016E0E0C39462
:1054F8000A40030257529007FCE0F8A3E0F9E84994
:10550800600302559EEEFCEFFD7A0E75F0069016CC
:10551800E0E0A42420F9121372E9F50C7C0C7D005C
:1055280079FFAA18AB191212468A0E8B0F850E0A3C
:10553800850F0BAC18AD197A0C9016E0E02470F9C1
:10554800121372E9F50D750E0E750F00780E12190B
:1055580096EEFCEFFD9016E0E0F87900E875F00EA5
:10556800A4C8AAF075F000A42AFA75F00EE9A42AD6
:10557800F9746428FA740739FB12122E7402121790
:10558800298A0E8B0FA80EA90F9007FCE508F0A337
:10559800E509F002574E9007FCE0F8A3E0C824069E
:1055A800F582C83400F583E0F8A3E0F9E8496043E0
:1055B8009007FCE0F8A3E0C82406F582C83400F59B
:1055C80083E0FCA3E0FD7A1B75F0069016E0E0A4EA
:1055D8002421F9121372E9F89007FCE0F9A3E0C955
:1055E8002406F582C93400F5837400F0A37400F032
:1055F80002574E9007FCE0F8A3E0C8240AF582C8D9
:105608003400F583E0F8A3E0F9E84960439007FC2B
:10561800E0F8A3E0C8240AF582C83400F583E0FC6A
:10562800A3E0FD7A1B75F0069016E0E0A42422F9A9
:10563800121372E9F89007FCE0F9A3E0C9240AF50F
:1056480082C93400F5837400F0A37400F002574E49
:105658009007FCE0F8A3E0C8240CF582C83400F5F4
:1056680083E0F8A3E0F9E84960439007FCE0F8A379
:10567800E0C8240CF582C83400F583E0FCA3E0FD03
:105688007A1075F0069016E0E0A42423F91213723C
:10569800E9F89007FCE0F9A3E0C9240CF582C934C5
:1056A80000F5837400F0A37400F002574E9007FCD5
:1056B800E0F8A3E0C82408F582C83400F583E0F8D0
:1056C800A3E0F9E849606F9007FCE0F8A3E0C8247C
:1056D80008F582C83400F583E0FCA3E0FD7A107574
:1056E800F0069016E0E0A42424F9121372E9F50AF2
:1056F8009007FCE0F8A3E0C82408F582C83400F558
:1057080083E02410FCA3E03400FD7A0475F00690D1
:1057180016E0E0A42425F9121372E9F89007FCE0DA
:10572800F9A3E0C92408F582C93400F5837400F0B0
:10573800A37400F080109007F0E0600312112012AB
:10574800110879018006790080027901740C12171A
:10575800297F0802185574F712178374F212171369
:10576800E9FEAC18AD197A0E75F006EEA42420F9FE
:10577800121378E9700E740C12175FE0F8A3E0F9C1
:10578800E8F980027900740E1217297F0102185572
:1057980074F412178374F21217138909EAFEEBFFE7
:1057A800E509C3940A5004EE4F700479028041ACB5
:1057B80018AD197A0E75F006E509A42420F912131C
:1057C80078E9F508E5087026750A06750B00780A69
:1057D8001219967402121779EEFAEFFB12122E7450
:1057E800021217298A0A8B0B850A82850B83A9085E
:1057F800740E1217297F0402185574F4121783EADD
:10580800FEEBFF750800E508C3940A5043750A06C5
:10581800750B00780A121996EEFCEFFDA8087900BE
:10582800E875F00EA4C8AAF075F000A42AFA75F07D
:105838000EE9A42AF9746A28FA740739FB1212408F
:105848007402121729E96004A9088006050880B6C1
:10585800790A7F0402185574F4121783EAFEEBFFE5
:10586800750800E508C3940A5043750A06750B00CD
:10587800780A121996EEFCEFFDA8087900E875F091
:105888000EA4C8AAF075F000A42AFA75F00EE9A4CF
:105898002AF9746428FA740739FB12124074021248
:1058A8001729E96004A9088006050880B6790A7FE7
:1058B8000402185574F712178374F0121713EAFECE
:1058C800EBFF750800E508C3940A5039AC18AD1908
:1058D8007A1075F006E508A42423F9121378E97004
:1058E800207C1079FFAA18AB191212A6E97012EEE3
:1058F800FCEFFDAA18AB19120562E97004A908802B
:1059080006050880C0790A74101217297F01021849
:105918005574F4121783750800E508C3940A400308
:105928000259F3A8087900E875F00EA4C8AAF07522
:10593800F000A42AFA75F00EE9A42AF9746428FC88
:10594800740739FD7A0E75F006E508A42420F912CB
:105958001378E970030259EE7C067D0079FFAA08E6
:105968007B00EA75F00EA4CAA8F075F000A428F828
:1059780075F00EEBA428FB74642AFA74073BFB123B
:1059880012468A0A8B0BAE0AAF0B7C067D0079FFA4
:10599800AA087B00EA75F00EA4CAA8F075F000A466
:1059A80028F875F00EEBA428FB746A2AFA74073BF2
:1059B800FB1212468A0A8B0BAC0AAD0BA8087900B9
:1059C800E875F00EA4C8AAF075F000A42AFA75F0DC
:1059D8000EE9A42AF9747028F582740739F58374DE
:1059E80000F0A37400F005080259219007F0E06068
:1059F800031211201211087F0402185574F71217A8
:105A0800837E00EEC3940A50327C0679FFEEFA7B5F
:105A180000EA75F00EA4CAA8F075F000A428F8757D
:105A2800F00EEBA428FB74642AFA74073BFB1212ED
:105A3800A6E96004EEF980050E80C8790A7F0102A4
:105A4800185574F71217837E007F00EFC3940A502D
:105A5800357C0679FFC9FDC9EFF87900E875F00EC5
:105A6800A4C8AAF075F000A42AFA75F00EE9A42AD1
:105A7800F9746428FA740739FBCDF9CD1212A6E936
:105A880070010E0F80C5EEF97F0102185574F712E8
:105A980017837E007F00EFC3940A500DEE700AEF63
:105AA800F91210DEE9FE0F80EDEEF97F01021855BC
:105AB80074F012178374CB12171389099016E0E05B
:105AC8006509701D7A017B00900748E0F912128879
:105AD800E97A027B00900748E0F9121288E912116E
:105AE8002C74271217797A0E75F006E509A424207C
:105AF800F9121378E96003025BF07C0679FF7427DA
:105B08001217711212A6E96003025BF07C0E7D0089
:105B180079FF74271217711212468A0A8B0B850AAD
:105B28000C850B0D7C1B7D0079FF740C121771120C
:105B380012468A0E8B0F850E0A850F0B7C0C7D0092
