:020000040000FA
:060000000201070221913C
:03000B000225BA11
:03002B0002259516
:030053000222077F
:10008300021FE7E5C754F84401F5C77901220000D0
:100093000080FB120086B900030200F1E4792178A5
:1000A30008B800028004F709D8FCE479297802B87B
:1000B30000028004F709D8FCE490028178C3791325
:1000C3008002F0A3D8FCD9FA7A437B1590013778E4
:1000D300F879038015E493A3AD82AE838A828B8380
:1000E300F0A3AA82AB838D828E83D8E9D9E7758288
:1000F300987583FF740112011975829175830074D9
:100103000012011975D00075813F751881751902A8
:10011300759F00020096C09FF59FE473D09F22D085
:1001230083D082C09FE493C0E0740193C0E0740263
:1001330093F59F22FF0000B4000028002800283018
:1001430075A000A000A000A00000080008E001F0D6
:10015300001000100010001000100010005000509C
:1001630000500010001000D0070000000000000F36
:100173000001000500307507001000010081FF0039
:10018300000000FFFFFF50066E0656069206FF02B0
:10019300020208025000A0000000E80302D181011E
:1001A3000000CE8102D5810100009E1502DB810192
:1001B3000000BF0202D5810100009F1502DD81010D
:1001C3000000D50202D581010000A01502DF8101E4
:1001D3000000D70202D581010000A11502E18108C8
:1001E3000000D80202D581010000A21502E38101BB
:1001F3000000A315FF0100FF2002D181010000C20E
:100203008102D581010000071602E581000000008C
:100213000002D98103000006031700FE0CFE0CFE4A
:100223000CFE0CFE0CFE0CFE0CFE0CFE0CFE0CFE7B
:100233000CFE0CFE0CA40FB60F9E0F02020202026C
:1002430002020202010D000000100102D18101002F
:1002530000C58102D5810100004A16020782010010
:1002630000400702D5810100004B16020582010000
:1002730000158102D5810100004C160203820100A2
:1002830000F98002D5810100004D1602FF810100B3
:1002930000938002D5810100004E1602FD8101000A
:1002A30000818002D5810100004F1602EF81010019
:1002B30000A58002D581010000501602E7810100EC
:1002C30000B78002D581010000511602ED810100C3
:1002D30000078102D581010000521602FB81010053
:1002E30000531601E8030577100A0701010109010C
:1002F300010110000101104173796E632042756C96
:100303006B0002D181010000CB8102D58101000085
:10031300051702EB81000000370802D981030000B2
:100323004B0802D78101000006170A100A02436F27
:100333006D6D616E6400526573706F6E7365004D11
:1003430061696C626F780044657669636520496E04
:10035300666F0002D181010000C88102D5810100CE
:1003630000391702F3810300004F0802D78101000F
:10037300003D1702D5810100003A1702F581000004
:1003830000510802D9810300006B0802D7810100E4
:1003930000451702D5810100003B1702F7810A00CF
:1003A30000530802D7810100004E1702D5810100D6
:1003B300003C1702F9810A0000670802D781010097
:1003C300005617FFFFFF000130750302010600000E
:1003D300000000000000000000000000000000001A
:1003E30000000000000000000000FFFF0600800C7A
:1003F300E8030D095050474675656C47617567659D
:10040300051250002003020A000201060302F0FF56
:100413005050474675656C4761756765000000007D
:10042300000000000066140000721412012264A68A
:100433000312012277A603120122A8A603120122A6
:10044300E2A6031201223BA70312012282A7031291
:100453000122CAA703120122F9A70312012228A825
:10046300031201225FA803120122A6A8031201228C
:10047300BFA80312012214A9031201222DA90312FA
:1004830001227BA903120122B5A903120122A0CBE9
:1004930002120122A3CC02120122DCCC021201229D
:1004A300FFCC0212012211CD021201224FCD021202
:1004B3000122CBCD0212012293CE02120122B5CE2C
:1004C300021201224CCF021201229ECF02120122FC
:1004D300CFCF02120122DCCF0212012246D0021238
:1004E30001229DD002120122A0D002120122D9D0F2
:1004F30002120122DCD002120122E6D002120122F2
:100503003AD1021201227BD102120122AED1021290
:100513000122EBD102120122EDD20212012291D368
:1005230002120122FAD30212012238D4021201224A
:10053300B39A03120122DB9A03120122089B0312CE
:100543000122409B031201229E9B03120122EA9B7C
:1005530003120122519C03120122919C03120122D6
:10056300CE9C03120122FC9C03120122A69D0312BE
:100573000122B09D03120122BD9D03120122F09DB1
:1005830003120122FC9D03120122149E0312012275
:100593001E9E031201221FC7031201222DC703123D
:1005A300012245C7031201225CC703120122CABA02
:1005B3000112012274BB0112012287BC0112012224
:1005C30003BD0112012221BE011201225DBE0112EF
:1005D3000122F8BE01120122DCBF01120122A8C0D0
:1005E3000112012236C201120122A7C20112012205
:1005F30061C30112012253C40112012293C40112E7
:10060300012247C50112012279C5011201226FC7D8
:1006130001120122B1C701120122CFC70112012227
:1006230035C80112012204C901120122C8C90112ED
:100633000122E7CB011201228BDC0212012275DDBC
:100643000212012220DE0212012271DE02120122B5
:1006530021DF0212012292DF0212012277E002124D
:100663000122ABE002120122A4E102120122E1E124
:1006730002120122BDE202120122FCE20212012255
:1006830018E30212012281BC0312012205BD0312E9
:10069300012230BD031201224ABE03120122AC9E85
:1006A30003120122C29E03120122E09E03120122C1
:1006B300F19F03120122FB9F0312012226A10312C1
:1006C30001221DA2031201228AA203120122C4EFF6
:1006D30002120122FAF00212012231F10212012266
:1006E30088F1021201229DF30212012214960112D3
:1006F3000122A096011201220498011201221098EE
:10070300011201224B9801120122BA98011201220F
:10071300C39901120122CC9A01120122939B011267
:100723000122F09C011201220E9D011201222B9D38
:1007330001120122D89D01120122559E01120122AC
:100743007D9E0112012247A1011201224CA1011237
:10075300012265A301120122B3A30112012223A4E2
:100763000112012261A4011201223DA501120122FD
:10077300FDA50112012249A6011201224CA6011274
:10078300012290A601120122D8A60112012217A765
:100793000112012239A7011201226DA701120122C0
:1007A300D0A70112012264F50212012272F502128E
:1007B3000122C5F502120122E4F50212012229F6F3
:1007C300021201226DF70212012208F8021201221D
:1007D3004CF80212012276F802120122E5F8021205
:1007E30001222BF902120122A2F90212012253FA69
:1007F300021201221C26001201222C2600120122C1
:10080300CD2600120122292700120122E627001219
:100813000122022900120122342900120122632934
:1008230000120122102B00120122872D0012012237
:10083300F72F00120122E93000120122E2310012E7
:100843000122E93300120122DD36001201220C38A5
:1008530000120122103A00120122203B0012012251
:10086300AF3C00120122A03D00120122EE3D001216
:1008730001225D3E00120122813E00120122D23E7E
:100883000012012273430012012274440012012258
:10089300D54400120122004500120122C645001270
:1008A3000122799603120122839603120122C8962C
:1008B30003120122DC96031201226C970312012218
:1008C300A59703120122E09703120122099803124C
:1008D30001225D9803120122729803120122949857
:1008E30003120122A99803120122BD9803120122C7
:1008F300D298031201220C99031201223899031290
:100903000122819903120122F39903120122369ADB
:1009130003120122609A031201228B9A031201220D
:100923000BC6031201221CA402120122FFA402120D
:1009330001227AA502120122B5A50212012206A7FD
:100943000212012294A70212012226AA02120122F4
:10095300D8AA02120122E4AB0212012257AD0212FD
:100963000122B0AD02120122E78D031201222A8E69
:1009730003120122AE8E031201228591031201227A
:10098300ACB5031201225EB6031201225AB7031259
:10099300012299B703120122F3B70312012279BE90
:1009A30003120122DCBE0312012279BF03120122CA
:1009B300AEBF03120122DEBF0312012219C00312CC
:1009C300012239C0031201220080031201228C800C
:1009D300031201224B8103120122638203120122BB
:1009E3007D8403120122888D02120122AD8D021231
:1009F30001227A8E021201224E8F02120122BB8F34
:100A030002120122FB8F021201229790021201228D
:100A1300CB9102120122A692021201220593021225
:100A23000122919302120122FF93021201228B945D
:100A330002120122D19402120122439502120122D1
:100A4300D59502120122769602120122969602127F
:100A53000122DE96021201222797021201224397F6
:100A630002120122699702120122E3970212012264
:100A7300F19702120122809802120122E9980212D0
:100A83000122518903120122D68903120122188AF5
:100A930003120122FC8A03120122698B0312012231
:100AA300AD8B03120122F18B031201221E8C031260
:100AB3000122468C031201227E8C03120122BC8C7C
:100AC30003120122E38C031201225D8D0312012222
:100AD300A78D03120122F4CB0112012293CD01123F
:100AE3000122CBCF011201221FD0011201224AD0D1
:100AF3000112012226D10112012256D10112012233
:100B030085D10112012298D101120122D9D10112FA
:100B1300012206D20112012254D20112012290D2E3
:100B230001120122D5D20112012222D30112012284
:100B33009CD301120122DDD501120122C7D7011274
:100B4300012203D80112012292D901120122D7D91D
:100B5300011201224ADA011201229FDA0112012253
:100B6300A4DA011201222EDB011201224DDC011253
:100B730001225EDC0112012201C2021201227AC2A9
:100B83000212012234C8021201223FC902120122B9
:100B9300E8CA0212012276CB02120122E06300129C
:100BA30001226164001201228E6400120122D764C3
:100BB30000120122D86500120122316600120122BF
:100BC300AD67001201222F68001201224A68001249
:100BD3000122BB68001201227869001201223B6ADC
:100BE30000120122C96A00120122806B0012012245
:100BF300936B001201222C6C00120122C36C0012B1
:100C03000122EA6C00120122536D001201229D6D34
:100C130000120122EB6D00120122906E00120122DC
:100C23002E6F00120122BB6F001201222C700012E2
:100C33000122737000120122CB7000120122FD7099
:100C430000120122B77100120122BE7200120122AA
:100C5300077300120122247300120122437300124E
:100C630001227674001201222D75001201225275A1
:100C730000120122677500120122D77500120122AA
:100C83001876001201223C7700120122BD77001270
:100C9300012241B8021201228CB80212012298B833
:100CA300021201226CB90212012283B9021201223B
:100CB300C0B902120122F1B90212012229BA0212A9
:100CC30001227FBA0212012295BA02120122D1BA7D
:100CD30002120122E4BA021201220BBB0212012208
:100CE3003FBB0212012265BC02120122AFBD0212F8
:100CF3000122ABBE02120122C8BF02120122112639
:100D03000012012281DC01120122BCDC011201224A
:100D13000EE0011201226AE10112012229E201120D
:100D2300012290E5011201227AE601120122C6E6B0
:100D330001120122E0E6011201221DE70112012244
:100D430028E70112012267E70112012270E701126D
:100D530001221AE801120122F1E80112012245E9F8
:100D630001120122A2E90112012214EA0112012255
:100D7300A8A80112012207AC011201220DAC011235
:100D830001223EB30112012245B7011201221DAA1D
:100D930003120122FAAA031201223EAB031201221B
:100DA30078AB0312012210AC031201227FAC0312B1
:100DB300012288AC0312012294AC03120122AEACCF
:100DC30003120122D8AC0312012208AD031201223F
:100DD3003792031201224492031201225E920312FC
:100DE3000122919203120122CF9203120122349322
:100DF3000312012249930312012254930312012285
:100E03006193031201227893031201228693031242
:100E130001229193031201229D9303120122AC93A9
:100E230003120122B79303120122DA930312012260
:100E33007E94031201228E9403120122A8940312BA
:100E43000122C59403120122E094031201220595A5
:100E53000312012210950312012225950312012288
:100E63003995031201229A9503120122A0950312C8
:100E73000122A69503120122AC9503120122C49507
:100E830003120122F79503120122058002120122A7
:100E93009C80021201223481021201222482021256
:100EA30001225B82021201226E8202120122DC8283
:100EB300021201227784021201229E84021201226D
:100EC30040850212012275850212012286850212D3
:100ED3000122FF8502120122208602120122388696
:100EE3000212012290870212012299890212012221
:100EF300E98B02120122EC8C021201223B8D0212B9
:100F0300012263EB0112012260EC011201224BED7D
:100F13000112012255ED0112012277ED0112012286
:100F230083ED01120122D5EE0112012204EF011219
:100F3300012234F00112012276F001120122A2F102
:100F43000112012278F201120122CAF201120122D6
:100F530029F30112012260F3011201229BF3011212
:100F6300012236F7011201224FF701120122D1F7B4
:100F730001120122DFF70112012234F801120122CA
:100F830042F801120122AFF80112012221F90112E4
:100F9300012267F9011201220C99021201222E99F2
:100FA30002120122189B02120122BD9E021201228B
:100FB30000A002120122DAA00212012247C003128A
:100FC30001226CC003120122DDC0031201225ED490
:100FD3000212012267D40212012270D402120122EA
:100FE300A1D502120122C0D702120122F6D70212A2
:100FF300012230D80212012266D802120122A0D89F
:1010030002120122D4D80212012200D902120122B3
:1010130049D90212012283D902120122CBD9021229
:10102300012221DA0212012256DA02120122B1DA76
:1010330002120122EBDA021201223CDB021201222C
:1010430072DB02120122ACDB02120122DADB021292
:101053000122FDDB02120122ECC70312012218C890
:101063000312012273C8031201227DC80312012255
:101073008DC80312012265FA021201228CFA0212B0
:101083000122C7FA02120122DDC9031201223246EC
:1010930000120122424900120122D74A0012012202
:1010A300524B00120122FE4B00120122A14C0012EE
:1010B3000122394D00120122684D00120122005213
:1010C30000120122925200120122CE530012012279
:1010D300385400120122EC5400120122A2570012CC
:1010E3000122DC5700120122465800120122A358A4
:1010F300001201220059001201225D59001201223F
:10110300485A001201228E5A00120122D95A0012A3
:101113000122FC5A00120122435C00120122575C97
:1011230000120122C65D00120122055E0012012297
:10113300455E00120122985E00120122B95E001280
:101143000122F75E001201221D61001201225E617D
:1011530000120122F961001201226B6200120122C6
:10116300AC630012012223EA02120122C9EA02122D
:1011730001220EEC0212012297EC0212012284EDED
:1011830002120122C3ED021201222DEE02120122EC
:101193009BEE021201224CCB031201223BB003123D
:1011A300012206B303120122E37F001201223AC98E
:1011B300031201224AC9031201225EC9031201224A
:1011C300DAC90312012236AD03120122DEAD031286
:1011D300012220B003120122F3FF02120122EDFFCC
:1011E3000112012204CB031201221ACB03120122A2
:1011F3001EB8031201228FB80312012283B903120E
:10120300012279E302120122EAE30212012261E5DB
:101213000212012234E70212012271E802120122B2
:1012230035E90212012252E902120122A1E9021256
:101233000122E2E902120122817F00120122D57FFD
:1012430000120122FDC10312012252C20312012224
:10125300A8CA03120122E9C4031201221AC5031208
:10126300012244C503120122A2C503120122F3770E
:101273000012012208780012012264780012012270
:10128300CF78001201221779001201228979001206
:101293000122B27900120122C07900120122227ABE
:1012A30000120122607A001201227B7A00120122CD
:1012B300167B00120122BF7B00120122427C001226
:1012C30001227B7C00120122067D001201225D7D3A
:1012D30000120122BB7D00120122CD7D00120122EA
:1012E300F37D00120122FC7D001201224D7F0012CA
:1012F300012287BA03120122EEBA03120122ABBB09
:101303000312012229BC0312012294A20312012217
:10131300C7A203120122F9A3031201223DA403125F
:10132300012219A503120122AFC3031201228DC4A6
:101333000312012214B30312012259B3031201222F
:101343009FB30312012268B50312012263FF021245
:1013530001227EFF021201228EFF0212012297C890
:101363000312012259AE0212012235AF02120122E9
:101373007CAF02120122B9AF0212012227B002127E
:10138300012281B002120122F1B002120122C1B185
:1013930002120122B0B20212012227B30212012269
:1013A300C3B40212012250B502120122C3B50212C4
:1013B30001223FB60212012256B6021201227BB766
:1013C30002120122D5B702120122F0F90112012201
:1013D30010FA0112012216FB0112012262FB011213
:1013E300012282FB01120122D5FB0112012242FCE0
:1013F3000112012288FC01120122ECFC01120122DC
:101403000E82011201223B87011201223E8A011240
:101413000122678A01120122908A01120122428B62
:10142300011201222B8D01120122768E011201225B
:101433008F8E01120122C69301120122FF93011222
:101443000122439401120122549501120122B48412
:1014530003120122E98603120122058803120122E5
:1014630023880312012245880312012216890312DD
:10147300012219890312012262CA03120122D8CA66
:10148300031201222ECB03E066701008A3E06670FE
:101493000A08A3E066700408A3E06622C3E796087F
:1014A30009E7960809E7960809E79622C3E0960834
:1014B300A3E09608A3E09608A3E09622C008C3E041
:1014C30096F50808A3E096420808A3E096420808A8
:1014D300A3E09645087001D3D00822080808EAC0A3
:1014E300E0EBC0E086F0E7A4FA180986F0E7A42A47
:1014F300FA180986F0E7A42AFA180986F0E7A42A5D
:10150300FA1986F0E7A4FBE5F02AFA190886F0E752
:10151300A42BFBE5F03AFA190886F0E7A42BFBE5C8
:10152300F03AFA18180986F0E7A4C5F02BFBE43A61
:10153300FA1908E7C5F0C6A426F6E5F03BFBE43A42
:10154300FA1886F0E7A4F6E5F00826F6E43B08F679
:10155300E43A08F6D0E0FBD0E0FA22601608080867
:10156300C6C313C618C613C618C613C618C613C6F1
:10157300D5E0EA227009080808226016181818C670
:10158300C333C608C633C608C633C608C633C6D572
:10159300E0EA22E627F60809E637F60809E637F611
:1015A3000809E637F622E026F608A3E036F608A394
:1015B300E036F608A3E036F622E026F008A3E0368C
:1015C300F008A3E036F008A3E036F022C3E697F66E
:1015D3000809E697F60809E697F60809E697F6225A
:1015E300C3E096F008A3E096F008A3E096F008A302
:1015F300E096F022E056F608A3E056F608A3E0567C
:10160300F608A3E056F622E056F008A3E056F008E9
:10161300A3E056F008A3E056F022E0F608A3E0F6B4
:1016230008A3E0F608A3E0F622E6F008A3E6F00834
:10163300A3E6F008A3E6F022E0FAA3E0FBA3E0FCB4
:10164300A3E0FD22E0F8A3E0F9A3E0FAA3E0FB2284
:10165300E8F0A3E9F0A3EAF0A3EBF022CAC0E0E6C6
:10166300F0A308DAFAD0E0FA22CAC0E0E0A3C58208
:10167300CCC582C583CDC583F0A3C582CCC582C545
:1016830083CDC583DAE6D0E0CA22C3E498F8E499AF
:10169300F91216CE8026C3E49AFAE49BFBE920E70D
:1016A300E91216CEE498F8E499F922C3E498F8E431
:1016B30099F91216CEE498F8E499F9C3E49AFAE496
:1016C3009BFB22EB20E7CFE920E7E0B90010BB004A
:1016D30008E88AF084F8AAF022E4FBC8FA22EB7047
:1016E300227B10C833C8C933C9335007C39AC3DB3D
:1016F300F280069A50012ADBEAC833F4C8C933F4EE
:10170300C9FA2275F008E4C833C8C933C933C99A82
:10171300C99B5004C92AC93BD5F0ECFBC833F4C8B4
:10172300E4C9FA22600D08C6A2E713C618C613C699
:10173300D5E0F322600C08C6C313C618C613C6D57A
:10174300E0F422700422600D18C6C333C608C63302
:10175300C6D5E0F41822251810AF08F518400C156B
:10176300198008F51840021519D2AF2200C0D02500
:101773001810AF08F518500C05198008F518500219
:101783000519D2AFD0D0222518F58210AF08F5186D
:10179300400C15198008F51840021519D2AF8519A8
:1017A30083222518F582E43519F583222518F8E4F8
:1017B3003519F9222518FAE43519FB222518FCE41A
:1017C3003519FD22E4732518C582C0E0E51934FFFD
:1017D300C583C0E0E518C3958224F810AF0885835C
:1017E300198582188008858319858218D2AFCEF0B7
:1017F300A3E520F0A37808E608F0A3DEFAEFF0A350
:10180300E58124FAF8E608F0A3E608F0A3E608F079
:10181300A30808E608F0A3E608F0A315811581D014
:10182300E0FED0E0F8158115811581E8C0E0EEC037
:10183300E0222518C582C0E0E51934FFC583C0E066
:10184300E518C3958224F910AF088583198582189A
:101853008008858319858218D2AFCEF0A3E520F0E6
:10186300A37808E608F0A3DEFAEFF0A3E58124FBF2
:10187300F8E608F0A3E608F0A30808E608F0A3E6F4
:1018830008F0A315811581D0E0FED0E0F81581158D
:1018930081E8C0E0EEC0E022851983851882E0A3C9
:1018A300FEE0A3F5207808E0A3F608DFFAE0A3FF43
:1018B300E0A3C0E0E0A3C0E0E0A3C0E0E0A3C0E099
:1018C300E0A3C0E010AF08858218858319800885DE
:1018D3008218858319D2AFD083D08202011F851964
:1018E30083851882E0A3FEE0A3F5207808E0A3F641
:1018F30008DFFAE0A3FFE0A3C0E0E0A3C0E0E0A3B9
:10190300C0E0E0A3C0E010AF08858218858319808A
:1019130008858218858319D2AFD083D08222C0D0A4
:101923002518C582C0E0E51934FFC583C0E0E5187A
:10193300C3958224F310AF08858319858218800824
:10194300858319858218D2AFC8F0A3E9F0A3EAF022
:10195300A3EBF0A37908E709F0A3D8FAECF0A3ED21
:10196300F0A3EEF0A3EFF0A3D0E0F0A3D0E0F0A358
:10197300D0E0F0A3E520F0A3E5F0F0A322851983DE
:10198300851882E0C0E0A3E0F9A3E0FAA3E0FBA39B
:101993007808E0F608A3DFFAE0FCA3E0FDA3E0FE8D
:1019A300A3E0FFA3E0C0E0A3E0C0E0A3E0F5D0A381
:1019B300E0F520A3E0A3F5F010AF08858319858235
:1019C300188008858319858218D2AFD082D083D03E
:1019D300E0F8D0E03274048006740280027401C01F
:1019E300E0F40412178AD0E012165F227404800414
:1019F30074028000CCC0E0EDC0E0E518C39CCCAD20
:101A03001950011D10AF068C188D1980068C188D86
:101A130019D2AF12166CD0E0FDD0E0FC22D083D0F7
:101A230082E9C0E0E493A3C386F0C5F095F0F9081A
:101A3300E493A386F0C5F095F0700BE493A3C399E8
:101A43004005E9048002A3E475F002A42582F5822F
:101A5300E5F03583F583D0E0F9E493A3C0E0E493A4
:101A6300C0E022D083D082ECC0E0EDC0E0E493A3D9
:101A7300FCE493A3FDED4C600D121AB2EC24FFFCC1
:101A8300ED34FFFD80EFE493A3FCE493A3FDED4C61
:101A9300600D121AF1EC24FFFCED34FFFD80EFD052
:101AA300E0FDD0E0FCE493A3C0E0E493C0E022C0F7
:101AB300E0C3E49396087401939618400FE4936689
:101AC300700808740193661870007019A3A3C3E427
:101AD3009396087401939618A3A3400DD0E0D0E029
:101AE300D0E0021AA2A3A3A3A3A3A3D0E022C0E041
:101AF300C0F088F0E4936670080874019366187068
:101B030000A8F0A3A3700BD0F0D0E0D0E0D0E002A7
:101B13001AA2A3A3D0F0D0E02274F6121835EAFE7D
:101B2300EBFF8C088D09EE2434F8E43FF9E8FCE977
:101B3300FDEE2435121E2FFAEE2437121E2FF885E0
:101B430008F0A4C885F00A8509F0A4250AF9EA2853
:101B5300F8E439F97A257B001216CEEA8C828D835C
:101B6300F0FA131313541FF8EE28F8E43FF9E824AE
:101B73005DF582E439F583E0C0E074075AF8D0E0FC
:101B8300B800028004C313D8FCA2E0EE500824344A
:101B9300F582E43F80182436121E2FF5F0EA84A85C
:101BA300F0EE28F8E43FF9E82438F582E439F583C8
:101BB300E0F97F030218E174F7121835EAFEEBFF30
:101BC300EE2434121E2FC0E0EE2435F582E43FF5F7
:101BD30083D0E0F08E828F83A3A3A3A3A3A3A3C088
:101BE30082C0838E828F83A3A3A3A3A3E0F8A3E081
:101BF300F9D083D082E0C398F508A3E099F509EE04
:101C0300247F121E2F6401703EEE2480F582E43F90
:101C1300F583C082C0838E828F83A3A3A3A3A3E093
:101C2300240108A3E03400F9D083D082E068700374
:101C3300A3E06970127CB17D04120C3EEE247FF5A3
:101C430082E43FF583E4F0AC08AD09EEFAEFFB1252
:101C53001B1CE9F91225877F020218E1C082C083A9
:101C6300851882851983E0F8A3E0F9C3EA9CEB9D0C
:101C73005010C3EC98ED99401BC3EA98EB995014AC
:101C8300800EC3EA98EB994007C3EC98ED994004A2
:101C9300790180027900D083D08222EAC39CFAEBD7
:101CA3009DFB2274EF121835900376E064086005FB
:101CB300E06407702A9061C8E060249003A4E0F414
:101CC300601DE0F875F00BA4C8AAF02AF974A628E1
:101CD300FE740339FF8E828F83A3A3A3E0700302F4
:101CE3001DB4906060E0C0E0EE2468F582E43FF547
:101CF30083D0E0F0750C21750D057508007509009A
:101D0300E5D914F50AE5D95403F50E601274036599
:101D13000E6043E50A600AEE2467121E2F700280EC
:101D23007590051CE06401601F121E2C60047A0488
:101D330080027A00E50AC39AFA95E0FB120AE88A60
:101D4300088B09EA45097005120E6C8064121E2C7B
:101D530070048A0C8B0DE50A6012850C82850D8355
:101D6300F50BE5D9F0A3150BE50B70F6121E2C60ED
:101D73004474FC250AF50A780C1219DCAC0AA90E86
:101D8300EEFAEFFB120CF8740212176FE97026AA31
:101D930008AB091212F8793D8E828F83A3A3A3A304
:101DA300E0FA7B0012094AEEFAEFFB120C62120D05
:101DB3000A7900806F7403650E6051850A107511EE
:101DC3000078101219DCAC0CAD0DAA08AB09120C8B
:101DD300BC740212176FEE2468121E2F6480700405
:101DE300747F8001E0F50C780C1219E0E50EF50C18
:101DF300780C1219E0A90AAC08AD099003A4E0FA23
:101E03007B00120920740212176F8013900376E08F
:101E13006408600BAC0CAD0DEEFAEFFB120D8212F1
:101E23000E7879017F0A0218E1EE2483F582E43FFC
:101E3300F583E02274F212183574FC121759EAFE86
:101E4300EBFF8909A2AFE433F508C2AF021F01E03B
:101E5300601B780C1219DCAC0BA90EEEFAEFFB1227
:101E63000CF2740212176F7404250BF50B74012521
:101E73000BF5D9850ED9E50B6018F50A850C82851B
:101E83000D83E0F5D9A385820C85830D150AE50A38
:101E930070EA75E195EE2463F8E43FF97A007B007C
:101EA300A2AFE433F50BC2AF88828983E0FCA3E0E1
:101EB300FDEC4D603A88828983E0FAA3E0FB8A82D5
:101EC3008B83E0FCA3E0FD88828983ECF0A3EDF033
:101ED3008A828B83E4F0A3F088828983E0FCA3E009
:101EE300FDEC4D700A88828983A3A3E4F0A3F0E597
:101EF3000BA2E092AF1212F89004B8E004F0EE24C3
:101F030063121E2FF8A3E0F9E8496064EE2463121C
:101F13001E2F2402F8A3E03400F988828983E58226
:101F23002402F50CE43583F50DE0F50BA3E0F50E83
:101F3300EE2462121E2F640170369061D0E0F81215
:101F43001E2C60047C0480027C007480C398FA9584
:101F5300E0FBE50B2CF8E43400F9E82402F8500127
:101F630009C3EA98EB99A2D265D0334003021E520B
:101F73009004B8E0604D9004B9E0F89004B8E0C371
:101F830098500C74026509703A9004BAE060348E7C
:101F9300828F83A3A3A3A3E0851882851983121FCD
:101FA300D674021217A5E8121FD69004B7E028F0E2
:101FB30074021217BFAA18AB19790112097490049D
:101FC300B8E4F0E508A2E092AF740412176F7F073C
:101FD3000218E1F0A3E4F09004B8E0F82285218729
:101FE3008522C622C0E074EB121921A2AFE433F5B7
:101FF30008C2AF759B00906182E0A2E05030E5918A
:10200300A2E0502A7591FE74016521702112217A94
:10201300120DC41221681219EF122331740412171E
:102023006FE9640170057901120E00121CA690611C
:1020330082E0A2E5505DE591A2E550577591DF90EE
:102043000376E064076005E06408702F12217A7458
:10205300016521703E120DC41221681219EF12237B
:1020630031740412176FE9640170057901120E00CF
:102073007901EEFAEFFB121E378018E0640D70133E
:10208300900398E004F064287002E4F07A00E0F929
:10209300120E7E906182E0A2E6400302213DE591AB
:1020A300A2E6400302213D7591BF900376E06405EB
:1020B3007008120DAC120DB88003120DB275210019
:1020C300120E0CE9900377F07900120E00120BAE9A
:1020D3007A017B00900375E0F91212C8907803E04F
:1020E30064427056900520E014F0704EC2AF122087
:1020F300F400782AD0E0F618D0E0F6E59F5407F80C
:102103007005750DFF8003750D7FC4C0E07829E667
:10211300F50A08E6550DF50B740B780A121737D03C
:10212300E0250AF8906270E0A2E740F8E8C3339034
:102133006272F0906270E0D2E0F0906181E0A2E31D
:102143005009E5E9A2E3500375E9F7A3E0A2E750DC
:1021530009E591A2E7500375917FE508A2E092AFEC
:102163007F080219808E828F83E0F8A3E0C82416CB
:10217300F582E438F583229003A4E0F875F00BA40C
:10218300C8AAF02AF974A628FE740339FF22C0E016
:10219300C0D0C082C083906183E0A2E05009E5BF54
:1021A300A2E0500375BFFEE0A2E15009E5BFA2E142
:1021B300500375BFFDE0A2E25009E5BFA2E2500360
:1021C30075BFFBE0A2E35009E5BFA2E3500375BF6F
:1021D300F7E0A2E45009E5BFA2E4500375BFEFE0C6
:1021E300A2E55009E5BFA2E5500375BFDFE0A2E613
:1021F3005009E5BFA2E6500375BFBFD083D082D09C
:10220300D0D0E032C0E074F2121921E5A7A2E65063
:102213000FE5A1A2E6500953A7BF75A1BF12225B28
:10222300E5A7A2E5500CE5A1A2E5500653A7DF758B
:10223300A1DFE5A7A2E15009E5A1A2E1500375A141
:10224300FDE5A7A2E2500CE5A1A2E2500653A7FBCD
:1022530075A1FB7F0102198074F7121835752101EE
:10226300900376E064067015120D2E8A828B83A389
:10227300A3A3A3A3A3E0FAA3E0FB120D9AA2AFE4E6
:1022830033FED2AF90037CE0640170187A207B00A8
:10229300900375E0F91213EE7A207B00900375E04A
:1022A300F91212CE906182E0D2E6F090051DE06053
:1022B3002185C622801690037BE064017008E5C681
:1022C30054F84405F5C653BEFC121FE074016521A2
:1022D30060E4EEA2E092AF7F020218E1008E238F4A
:1022E30024858228858327851882851983E0CEA3D8
:1022F300E0CF852882852783EBC9EAC8EDCBECCAFA
:1023030075F010C3E833C8E933C9EA33CAEB33CBFA
:10231300C3EA9EF526EB9FF525B35004AB25AA2609
:10232300EC33CCED33CDD5F0DAAE23AF242274F108
:102333001218358A088B098C0A8D0B9081B27808A4
:102343001215F7740F1217A5780C12161D9081B28F
:10235300780C1215F77808790C12149F9081665047
:10236300107808790C1215CF78081214BF40148026
:102373000E780C79081215CF780C1214BF5004791B
:1023830001800279007F080218E174ED1218358A82
:10239300088B098C0A8D0B9081B278081215F7749B
:1023A300131217A5780C12161D9081B2780C121512
:1023B300F7780C790812149F40117808790C1215DC
:1023C300CFAA08AB09AC0AAD0B80227510007511BA
:1023D300007512007513017810790C1215CF78105F
:1023E3007908121596AA10AB11AC12AD137F0C022B
:1023F30018E19081B2780812161D8A828B837808BF
:1024030012160A7F040218E174F51218358C828DB6
:1024130083780812161D8A828B8378081215E312BB
:102423002463C3E09CF0A3E09D12245540229081D5
:1024330086780812161D8A828B8378081215BC8A47
:10244300828B83A3A3A3A3E02420F0A3E0344EF064
:1024530080A0F088828983C3E09420A3E0944E2275
:10246300EA2404F8E43BF98C828D83A3A3A3A3E0BD
:10247300FCA3E0FD888289832274F5121835E9FEF6
:102483009004D3E0FAA3E0FBEE29F8E433F974D91E
:1024930028F582748039F583E02AF508A3E03BF53B
:1024A3000978081219DC90819E12163B1222E074FF
:1024B3000212176F8A088B098C0A8D0B7410780827
:1024C30012155EAA08AB097F040218E174F1121811
:1024D300358A0C8B0D8C0E8D0F74111217A51219E2
:1024E300F374111217A5E02401F508A3E03400F5F5
:1024F30009E4F50AF50B780C79081214DE90817261
:10250300780812161D780C79081214DEAA0CAB0D8C
:10251300AC0EAD0F1222E0740212176F8B09EA455D
:102523000960047A0180027A00EC2AFCE43DFD7420
:10253300131217A5E0F8A3E0F9E8FEE9FFECF8EDC4
:10254300F97A717B021216CE88088909E4F50AF537
:102553000B8E828F83780812162CECF8EDF97A71C2
:102563007B021216CE8A088B097405780812174667
:102573008E828F83A3A3A3A3E508F0A3E509F07FCD
:10258300080218E1C082C083E9906000F0D083D0D4
:102593008222C0E0C0D0E8C0E0E9C0E0A2AFE433EB
:1025A300F8D2AFC2C7E8F9E8A2E092AFD0E0F9D021
:1025B300E0F8D0D0D0E032C0E074F2121921A2AF1B
:1025C300E433FED2AFE5BAF87900900833E8F0A31C
:1025D300E9F0A8BB7900E4C8F9900833E048F0A318
:1025E300E049F0E5B5540F900832F090082EE0FA78
:1025F300A3E0FB90082DE0F91212C8E9EEF8EEA271
:10260300E092AF7F01021980C2AF020000220201F3
:102613001FFFFFFFFFFFFFFFFFC082C083E990168C
:1026230006F0D083D08202011F74F61217C9E99015
:1026330002E8F0900348E0F5087509007402780891
:10264300121746AA08AB091213409002E9122FDFB2
:102653009002E91233CC606F900348E075F003A455
:10266300FAABF0121340900306122FDF9003061209
:1026730033CC700B9002E912339D121346804890BD
:1026830003061243317AFF7BFF1211667A00801929
:102693008A0875090074027808121746123DD97426
:1026A300FF1227DFE4F0A3F00A900348E0F8EAC33F
:1026B3009840DD790512080C9002E8E0F91206F85B
:1026C3007A967B08120A88023E7C74F41217C98A30
:1026D300088B09EB548060479002E8E0F91212B0CE
:1026E3008A0A8B0BAE0AAF0BEE4F602A8E828F8362
:1026F300E064B0701A12081EE960148E828F83A3FF
:10270300A3A3A3E0F9EE2405FAE43FFB1207EEEEE0
:10271300FAEFFB12129EAA08E5096480FB80047A93
:10272300007B0002292F74F21217C974FB12175988
:10273300EAFEEBFFEE4F604574031217A5EEF0A31C
:10274300EFF0851882851983ECF0A3EDF074021283
:1027530017A5E9F0AA18AB191206F2E9F508707586
:1027630074131217A5E0F50AA3E0F50BE50A450B70
:1027730060638E828F83122D68EE4F700575080299
:1027830080537A067B001213408A0C8B0DA80CA988
:102793000DE8497005750813803B88828983E4122C
:1027A30027DFEEF0A3EF1228FBE50AF0A3E50BF019
:1027B3009002EC1228F49002EC6017E0FCA3E08096
:1027C30003EAFCEBFD8C828D831228F470F38C8278
:1027D3008D831239F4A90874050245B1F0A312439D
:1027E30013A32274F21217C98908890C750D00749A
:1027F30003780C121746850C0A850D0B9002EBF03B
:102803009002E91237FF1228F2602E121346790064
:10281300801D890C750D007402780C121746900206
:10282300E9123C988882F583A3A3E4F0A3F009900E
:102833000348E0F8E9C39840D9900348E0FA850AD1
:10284300F0A4CAA8F0850BF0A428FB1213408A0C4D
:102853008B0DAE0CAF0DEE4F70030228E8900348CA
:10286300E0FC850AF0A4CCA8F0850BF0A428FD7940
:102873000012128C7C0080318D0C750D007403786E
:102883000C1217468A828B831228ED88828983E48F
:10289300F01228FAA3A3F0A3F00DEDC3950840D8D6
:1028A300EE250AFEEF350BFF0C900348E0F8ECC36E
:1028B3009850288C0C750D007402780C12174690F2
:1028C30002E91228EDE82402500109FAE9FB8A82A1
:1028D3008B83EEF0A3EFF07D0080BFE5089002EB61
:1028E300F07900800279130245B4123C9CF922A3CB
:1028F300A31233A1EA4B22A3124313A3A3A322746B
:10290300F41217C97900EAA2E0501F75084A750945
:102913008178081219DC79107C047D007A087B1613
:10292300120806740212176FE9F980007F04021877
:102933009BC082C0839002EC1233CC601C888289D6
:1029430083A3A3E06A7003A3E06B8882898370E8A2
:10295300A3A3A3A312339D80047A007B0002262540
:1029630074F21217C974FD121759EAFEEBFF8518AA
:1029730082851983E4F0A3F074021217A57401F0A1
:102983001233C970141209C21213409002EF122FAE
:10299300DF1233C97003022AF51230DFEE2404F587
:1029A3000AE43FF50B850A82F583E024FE603C24AC
:1029B300FC607424FE607E24FE7003022A4524FE1C
:1029C3007003022A5224FE7003022A5F24FE70035E
:1029D300022A6C24FE7003022A7924FC7003022A63
:1029E3009A24FE7003022AB2022AEE1209C290024E
:1029F300F1EAF0A3EB122B0112043AE96003022A75
:102A0300EE9002F11219F38E828F83A3A3A3A3A3E3
:102A130012433185088285098312339D1207D674C8
:102A23000212176F022AEEAC18AD19EEFAEFFB1281
:102A33000824022ABDAC18AD19EEFAEFFB12082ADE
:102A43008078AC18AD19EEFAEFFB120830806BAC4E
:102A530018AD19EEFAEFFB120836805EAC18AD190B
:102A6300EEFAEFFB12083C8051AC18AD19EEFAEF09
:102A7300FB120842804474021217AF880C890D7848
:102A83000C1219DC74021217BFEEFAEFFB1208489E
:102A9300740212176F8023AC18AD19EEFAEFFB1214
:102AA300084EE9F8701674021217A5E4F0803CACE6
:102AB30018AD19EEFAEFFB120854E9F8E8602C8E12
:102AC300828F83A3E064146022850A82850B83E0EE
:102AD3009002F1F085188285198312339D9002F2DA
:102AE300122FDFE8A3122B01120434EEFAEFFB12CC
:102AF30007AC74021217A5E0F974030245B1F07C28
:102B0300F17D028508828509831233A12274E812BC
:102B130017C974FA12175974041217A5ECF0A3ED30
:102B2300F08A128B13EA2405F50EE43513F50FEA48
:102B33002402F510E43513F511851082F583123361
:102B43009D12052A8A0A8B0B7508007C037D007988
:102B5300007AF17B0212128CE50E2402F516E4359D
:102B63000FF51774021217AF880C890D780C121920
:102B7300DC850E82850F83A3A3A3A3E0F50C750D5B
:102B830000780C1219DCE50E2405F50CE4350FF57D
:102B93000D780C1219DC8516828517831236A41260
:102BA3000710740612176F8A0C8B0DE50C450D7018
:102BB30003022D318020851882851983E08882895C
:102BC30083F00508851882851983A3E0C0E0122DE0
:102BD30072D0E0F00508E50A24FBFAE50B34FFFBAD
:102BE300C3E5089AE49B4003022D317E007F0085F4
:102BF3001282851383A3A3A3A3E0F509780912190D
:102C0300E0E4F514F51578141219DC7514EE751556
:102C13000278141219DC9002EF1219F374091217D7
:102C2300A51219F3E50A24F9F9AC0CAD0D85108250
:102C330085118312339D12087E740912176FE960A0
:102C430003022CD2850E82850F83A3A3A3A3A3A380
:102C5300A3E0F89002EEE0687075E0F5148E157845
:102C6300141219DC12432E850E82850F83A3A3A3AE
:102C7300A3A3A3A3A312339D121286740212176F88
:102C8300E9604C9002F21233CC703BE4F5147814F3
:102C93001219DC7CFF7DFF79078510828511831271
:102CA300339D1207E8740212176F1233D27017851F
:102CB3000E82850F831244CB74041217A5123D8C28
:102CC3001236D5022D65850C82850D83122D68A8D9
:102CD30018A9198814891578141219DC74041217A9
:102CE300A51219F3851682851783122FD512071C97
:102CF300740412176F8A0C8B0DEE4F7003022BAE08
:102D0300122D72EE122D7D12368BEF122D7DF8A34C
:102D1300E03400F9E50C450D6003022BB988828984
:102D23008374FFF00508122D7274FFF00508E5089F
:102D3300601A1313543F122FE5120446E9600990F9
:102D430002F212339D1212F879008016850E8285E5
:102D53000F831244CB74041217A5123D8C1239F45D
:102D6300790A02365EA3A3A3A3E0FEA3E0FF22A891
:102D7300089002F2E02812368B22F0050808900230
:102D8300F2E0282274E81217C974FA121759740270
:102D93001217A5122FDF74041217A5ECF0A3EDF0A0
:102DA30074021217A5E02405123674E0F50CA3E0B3
:102DB300F50D74021217A5E02402F510A3E0340008
:102DC300F511851082F58312339D12052A750800CB
:102DD300750900EA24FCFEEB34FFFF8008050CE5CF
:102DE3000C7002050DA808C3EE98EF94005003027F
:102DF3002F91A818A919880E890F780E1219DC854E
:102E03001482851583A3A3A3A31243351219DCE50A
:102E1300142405F50EE43515F50F780E1219DC852B
:102E23001482851583122FD3120710740612176F9D
:102E33008A0E8B0FEA450F7003022F91EA2404F5E3
:102E430016E4350FF517851682F583E0F50CA3E03C
:102E5300F50D8518828519831243318A828B83A3EA
:102E6300A3A3E0F985108285118312339D1206FE18
:102E7300E9F5096003022F9174021217A512369B1C
:102E8300F50978091219E0E4F512F513781212190D
:102E9300DC7512EE75130278121219DC9002EF1230
:102EA30019F374071217A51219F3EEF9AC0EAD0F4F
:102EB30085108285118312339D12087E74091217BF
:102EC3006FE9F5096003022F91E508703FE4F50E01
:102ED300F50F780E1219DC7CFF7DFF7909851082CE
:102EE30085118312339D1207E8740212176F12368D
:102EF300C1700D74041217A5122FC87911022FC5C2
:102F03009002EEE024029002F2F080149002F2E0CC
:102F1300FA9002EEE0790024025001096A497072C6
:102F2300A8089002EEE0FAE82AFAE43400FBEE9AED
:102F3300EF9B405A851682851783E0C0E09002F329
:102F4300122D77D0E0F00508851682851783A3E05C
:102F5300C0E0089002F3122D77D0E0F0050890024C
:102F6300EE1243351219DC12432EA80812366812EA
:102F73001274740212176F9002EEE02508F50874BC
:102F8300FF650C700474FF650D6003022DE0E50816
:102F9300601F9002F2E0F5F0E50884122FE51204B9
:102FA3004CE960099002F312339D1212F879008004
:102FB30011E509700375090A74041217A5122FC8C5
:102FC300A90902365E123803E50CF0A3E50DF022E1
:102FD300A3A31245C0AA0CAB0D22A3A3EAF0A3EB53
:102FE300F0229002F1F07CF17D028510828511833D
:102FF3001233A12274EC1217C974FC121759123B35
:103003000474021217BF1233971207168A0C8B0D22
:10301300EA450D70030230CF1230DFA818A91988D2
:1030230010891178101219DC7CFF7DFF790B85085C
:103033008285098312339D1207E8740212176F12F7
:1030430031D5700C850A82850B831236D20230DCAF
:103053008E828F83A3A3A3A3E0F51278121219E043
:10306300E4F512F51378121219DC7512F1751302D7
:1030730078121219DC78101219DC74091217A512D0
:1030830019F374091217A5E0F9AC0CAD0D8508828C
:1030930085098312339D12087E740912176FE9FEA6
:1030A30070157CF17D0285088285098312339D1298
:1030B3000452E97009802074166E70027E0090023B
:1030C300F212339D1212F8EE7004800B7E01850A12
:1030D30082850B831239F1EEF9023A06EE2402F5EA
:1030E30008E43FF5092274EC1217C974FC1217594E
:1030F300EAFEEBFF8C0E8D0FEE2405F508E43FF599
:103103000974021217BF85088285098312339D1241
:1031130007168A0C8B0DEA450D70030231C5EE24A8
:1031230002F50AE43FF50BA818A91988108911784C
:10313300101219DC7CFF7DFF790D1233971207E81B
:10314300740212176F1231D5700B850882850983BB
:103153001236D2807A8E828F83A3A3A3A3E0F512C3
:1031630078121219E0850882850983A3A31219F343
:103173007512F175130278121219DC78101219DC2A
:1031830074091217A51219F374091217A5E0F9129D
:10319300339312087E740912176FE9FE700F7CF1E6
:1031A3007D02123397120458E97009802074166E59
:1031B30070027E009002F212339D1212F8EE700438
:1031C300800B7E018508828509831239F1EEF902AD
:1031D3003A061233DCF510A3E0F511EA4511227427
:1031E300E81217C974FE1217598A168B178C148D9F
:1031F30015EA2405F50CE43517F50DEA2402F50E5E
:10320300E43517F50F850E82F58312339D12052AD7
:103213008A088B09750B007C037D0079007AF17BAA
:103223000212128C750A00E50814F5100424FFF548
:1032330008E50934FFF50980549002F1E0FA9002A1
:10324300EEE0F8EA28F8E43400F9E50898E509998E
:10325300500D9002F1E0F8E510C3989002EEF0E013
:10326300F51275130078121219DC12432E9002F234
:10327300E02AFAA3E03400FB121274740212176FEF
:103283009002EEE0F89002F1E028F0050A850C8246
:10329300850D83A3A3123CA840030233789002F167
:1032A300E0C39508E495094003023378AE0AEE2E95
:1032B300FEE433FF1233B7AC18AD19124349E439B6
:1032C300FB1207168A128B13AC12AD13EC4D701B55
:1032D300750B011233A71239F59002F21228F4602C
:1032E300031212F8A90B7402023660851682851741
:1032F30083A3A3A3A3E0F50B780B1219E0E4F51263
:10330300F51378121219DC7512EE75130278121286
:1033130019DC9002EF1219F374071217A51219F3AF
:10332300A910850E82850F8312339D12087E7409BE
:1033330012176FE9F50B709B9002F21233CC600306
:1033430002323CE4F512F51378121219DC7CFF7D8E
:10335300FF790F850E82850F8312339D1207E87460
:103363000212176F1233D2600302323C1233A712D8
:1033730036D60232E97CF17D02850E82850F8312F7
:10338300339D12045EE960030232DC79000232E904
:10339300AC0CAD0D850A82850B831233A122E0FAB2
:1033A300A3E0FB221233B7E0FAA3E0F9EA85148223
:1033B30085158322850C82850D83E02EF8A3E03FDB
:1033C300F988828983229002EF1244CFE8492212BE
:1033D30033DCF8A3E0F9E849229002F2EAF0A3EB28
:1033E300F09002F2E02274E81217C974FA12175926
:1033F30074041217A5122FDF8C168D17740412177D
:10340300A5E02405F50EA3E03400F50F74041217AC
:10341300A5E0240212367412339D12052A8A0A8B00
:103423000B7F007E00A818A919880889097808125B
:1034330019DC850E82850F83A3A3A3A3E0F5088E71
:103443000978081219DCE50E2405F508E4350FF5B3
:103453000978081219DC850E82850F83A3A312361F
:10346300A4120710740612176F8A0C8B0D80291291
:103473003695F00F123695F00F9002EE1239E012E6
:1034830019DC12432EEFF81236681212747402120A
:10349300176F9002EEE02FFFE50C450D7003023528
:1034A30024851882851983123B16A3A3A3E0F9850B
:1034B300148285158312339D1206FEE9FEE50C2462
:1034C30004F510E4350DF511EE705074041217A5D0
:1034D30012369BF50878081219E0E4F508F5097827
:1034E300081219DC7508EE75090278081219DC90C8
:1034F30002EF1219F374071217A51219F3E50A2440
:10350300FAF9AC0CAD0D85148285158312339D1227
:10351300087E740912176FE9FE60391236B1123949
:10352300F4EF700302364B9002F2E0F5F0EF849073
:1035330002F1F07CF17D0285148285158312339D9F
:10354300120464E960099002F312339D1212F879B0
:103553000002365E8F08EF703BE4F512F513781224
:103563001219DC7CFF7DFF79118514828515831286
:10357300339D1207E8740212176F1236C1700912D5
:1035830036B11236D502365E9002EEE02404900284
:10359300F2F080359002EEE0F89002F2E0FAE824CF
:1035A30004FCE43400FDEC6A4D600302352AE50AAD
:1035B30024FAFAE50B34FFFBE50828F8E43400F9B4
:1035C300EA98EB99500302352A851082851183E02E
:1035D300C0E09002F3E02FF8A3E034008882F58383
:1035E300D0E0F00F851082851183A3E0C0E012368E
:1035F30082D0E0F00F74021217AF880889097808A7
:103603001219DC74021217A51219F3850E82850FA5
:1036130083122FD312071C740412176F8A0C8B0D9D
:10362300EA450D700302347274021217A5E0C0E07C
:10363300123682D0E0F00F74021217A5A3E0C0E0A7
:10364300123682D0E002347AEE70027E0A850E8250
:10365300850F831236B71239F4EEF9740612176F19
:103663007F1002189B9002F3E028FAA3E03400FBDA
:1036730022F514A3E03400F515851482F583221294
:103683003686229002F3E02FFAA3E034008A82F513
:10369300832212368674FF22123803A3A3A3A3E066
:1036A300221245C0850E82850F831233A122851015
:1036B300828511831244CF85168285178322900257
:1036C300F3EAF0A3EBF09002F31244CFE84922129D
:1036D30039FAE8F0A3E9F079112274EA1217C974F0
:1036E300FE1217598A088B098C128D13EA2405FEE2
:1036F300E43509FFAC18AD198E828F8312339D1206
:1037030007168A0C8B0DEE2406F50EE43FF50FEA3F
:10371300450D70030237D5E5082402F50AE435099F
:10372300F50B8A828B83A3A3A3E0A2E55028851817
:103733008285198312339D1208728A108B11EA4510
:103743001160207912123393851082851183121729
:10375300C7E9F50C707F850E82850F83E0600979D8
:10376300528011750C0E806D850882850983A3A391
:10377300A3A3E0F9E4F508F50978081219DC8E82B1
:103783008F83A3A3E0F50878081219DC8E828F8358
:10379300A3A3A31219F38E828F831243311233979B
:1037A300120884740612176FE9F50C7011850E82E6
:1037B300850F83E0702D12339712046A80257416E7
:1037C300650C7011750C0074181217A51237FFE4FD
:1037D3008010750C011244C7851282851383E8F0AB
:1037E300A3E9F0850E82850F83E0600479008002EF
:1037F300A90C740212176F7F0E02189B1238032252
:10380300E0F8A3E0F58388822274EC1217C974F7F9
:103813001217598A0A8B0B8C108D11EA2405FEE4CA
:10382300350BFF750C00AC18AD198E828F831233E4
:103833009D1207168A088B09EA450970030239CBE2
:10384300E50A2402F50A5002050B8A828B83A3A39F
:10385300A3E0A2E5502F85188285198312339D12A8
:1038630008728A0C8B0DEA450D604F7912AC08ADD6
:1038730009123397850C82850D831217C7E9F50C5E
:1038830060030239CE850A82850B83E0F508A3E045
:10389300F509AA08FB120866EA4B70197AFF7BFF49
:1038A300120866EA4B70030239C18A828B83E508EA
:1038B300F0A3E509F07508008008750C0E0239CEF7
:1038C30005089002EBE0F8E508C39840030239C10C
:1038D30085080E750F007403780E1217468A828BC3
:1038E30083A3A3E0250EF8A3E0350F123D9570D016
:1038F3008E828F831239E9122FDF8E828F83A3A3E7
:103903001239E9122FDDEE2404F508E43FF50985A9
:103913000882F583E088828983A3A3A3A3F0A3E4A9
:10392300F0EE2405F50EE43FF50F850E82F58312C4
:1039330039E9A3A3A3A3122FDD751207751300782A
:10394300121219DCEEFCEFFD74041217B712127495
:10395300740212176FE4F51278121219DC850882CB
:10396300850983E0FC7D0079171233971207E87409
:103973000212176F74071217A5122FDF740712179D
:10398300A5E0FA4B603D8508828509831239E01270
:1039930019DC850E82850F8312433112127474026F
:1039A30012176F74021217BF123397120470E96073
:1039B3002674071217A512339D1212F88019750C7D
:1039C300098008750C118003750C011244C785101A
:1039D300828511831239F4A90C74098028E0F50853
:1039E3007509007808221233A1888289832212394B
:1039F300FAE8F0A3E9F022E0F8A3E0F9850E828566
:103A03000F8322740412176F7F0C02189B74EC123D
:103A130017C9123B04751000EE2402F50CE43FF5C0
:103A23000D850C82F58312339D1208668A088B0973
:103A3300EA45097003023AE8850A82850B83E0644C
:103A4300016003023ADDAC08AD09AA0AAB0B120808
:103A53005AE9606E850882850983122D6AEE240671
:103A6300F50AE43FF50B8E828F83A3A31219F38E1D
:103A7300828F83A3A3A3A31219F3850A82850B83E1
:103A83001219F379188E828F83123B1612339D120B
:103A93000884740612176FE9F8741668700B850AA8
:103AA30082850B83E4F0A38014E860128E828F83F7
:103AB30012339D850E82850F83EAF0A3EBF0881005
:103AC3008018780E1219DCAC08AD09EEFAEFFB1280
:103AD3000860740212176FE9F510AA08AB091208FF
:103AE3006CE510700E850C82850D8312339D1204D4
:103AF300768009741665107003751000A910023AD8
:103B03000BEAFEEBFF8C0E8D0FEE2405F50AE43F66
:103B1300F50B221245C0850C82850D832274EA12AF
:103B230017C97508007509007E007F00750A00EC4F
:103B33002402F510E43DF5118035EC65087003EDC2
:103B430065096003023BD588828983A3A3E06A7079
:103B530003A3E06B707C88828983A3A3A3A312448D
:103B6300CBEE28FEEF39FFEA28FAEB39FB050A1200
:103B73003CA5503A850A0C750D007403780C121796
:103B830046851082851183123C98123D95601FE58E
:103B930008450970A58C088D0988828983122D68D0
:103BA30088828983A3A3E02EFAA3E03F80BEE50ABF
:103BB300C394025003023C93750800750900EE4F4D
:103BC3006010EEFAEFFB1212F28A0E8B0FEA450F2A
:103BD30070057900023C95750B00023C68850B0C5F
:103BE300750D007403780C121746851082851183B6
:103BF300E0250CF50CA3E0350DF50DE50C2406F5D9
:103C030014E4350DF515851482F583123D9A60424F
:103C1300E50C2404F512E4350DF513851282F583C2
:103C23001219F3E50E2508FAE50F3509FB12127494
:103C3300740212176F851282851383E02508F50835
:103C4300A3E03509F50985148285158312339D1286
:103C530012F8E50B600D7C087D007900AA0CAB0D12
:103C630012128C050BE50BC3950A5003023BE0854A
:103C730010828511831244CB88828983A3A3A3A3D3
:103C8300A3A3E50EF0A3E50F1228FBEEF0A3EFF0DC
:103C930079010237FA123C9C22E0250CF8A3E035A7
:103CA3000D229002EBE0F8E50AC3982274F0121794
:103CB300C98A0E8B0F8C0A8D0B750D00750C008055
:103CC300507916EE2406F508E43FF5098E828F83BA
:103CD300A3A31219F38E828F83A3A3A3A31219F3B1
:103CE3008508828509831219F3850E82850F83A3C4
:103CF300A312339D120884740612176FE9F50D742D
:103D030016650D706C850882850983E4F0A3F005C0
:103D13000C9002EBE0F8E50CC3985066AA0C8A08F5
:103D230075090074037808121746850A82850B8388
:103D3300A3A3123DE4E8FEE9FF8E828F83123D9A2E
:103D43006040EA2401F508E43400F5099002EBE051
:103D530065087002E509601488828983A3A3A3A37D
:103D6300A3A3A3A31233CC6003023CC47918023C7F
:103D7300C6E9609B1244C774101217A5123D8C123A
:103D830039F4A90D7F0802189BE0FAA3E0F5838AB2
:103D93008222F9888289831245C0EC4D2274F6127F
:103DA30017C97C0080010C900348E0F8ECC39850DD
:103DB3001E8C0875090074027808121746123DD943
:103DC300E06A7003A3E06B70DDE8FAE9FB80047A34
:103DD300007B00023E7C9002E9123DE488828983E5
:103DE30022E02508F8A3E03509F92274F21217C975
:103DF3008A088B09750A0080278E828F83A3A3A369
:103E0300A31228F260031212F87C087D007900EEF9
:103E1300FAEFFB12128C8E828F83E4F0A3F0050A73
:103E2300123CA55027850A0C750D007403780C12FB
:103E33001746850882850983A3A3E0250CFEA3E02A
:103E4300350DFF8E828F831233CC70AD850882854A
:103E5300098374FFF0A3F00245B474F61217C91274
:103E630008188A828B83E582458370067A007B007B
:103E73008007A3A3A3A312339D7F0202189B74F4AC
:103E83001217C989088C828D83E06402703C124446
:103E93006AFEA3E0F9EEF87402687003742969708E
:103EA30029750A02750B00780A1219DC74101217AF
:103EB300A51219F374101217A51219F3A9081211F8
:103EC30078740612176FE9F98002790102292F74B9
:103ED300E81217C974FB121759E9851882851983EB
:103EE300F08A168B17ECFEEDFF7510008E828F8320
:103EF300A3A3A3E0A2E4502D741D1217A512339DB2
:103F03001208728A828B83E5824583700302430918
:103F1300790AEEFCEFFDAA16AB171217C7E9F510E5
:103F2300600302430C741F1217A5E0F508A3E0F524
:103F33000974211217A5E0F50AA3E0F50B74231207
:103F430017A5E0F50EA3E0F50F8E828F83E06402E0
:103F530060030242AAA31244CB850882850983A386
:103F6300858212858313EE2406F50CE43FF50D8854
:103F7300828983124349F514E439F5157814121A2A
:103F830066010000280128AC3F07000228714003A6
:103F930028DF3F0029A0410129CB4102296C4103BD
:103FA30029A04104294442AA42E50E450F600302B9
:103FB30042A5850C82850D831244CBE8FAE9FB8A7E
:103FC300828B83E0850A82850B831243541219DCAA
:103FD3008A828B83A3E0FCA3E002422EE50E450F09
:103FE30060030242A5850A82850B837401F01243A4
:103FF3003E850882850983F07C007D008E828F8355
:10400300A3A3A3A3E02401FAA3E03400FB12071641
:10401300EA4B60408A828B83E02402F8850A82851A
:104023000B83E028F0EA2404F8E43BF988828983CF
:10403300E08512828513831243621243541219DC02
:104043008A828B83A3124331E5082403FAE43509FA
:10405300FB024233850A82850B83E02404F07C044F
:104063007D007900AA12AB1312128C02430CE50EE9
:10407300450F60030242A512433EFEA3E0FF850AFB
:1040830082850B837404F0EE850882850983F0EF43
:10409300851282851383F074031217BFEEFAEFFBC8
:1040A3001207168A0C8B0DEA450D700302414F8AE5
:1040B300828B83A3A3122D6874011217AF880E8914
:1040C3000F780E1219DC74051217A51219F37CFF71
:1040D3007DFF12071C740412176F8B0FEA450F70D4
:1040E30033850C82850D831243351219DC850C82CE
:1040F300850D83A31219F37C027D007AD37B811291
:104103000518740412176FE9700A74011217A57465
:10411300FFF0A3F08E828F83E064027039750C0286
:10412300750D00780C1219DC8E828F83A312433134
:10413300E5082404FAE43509FB1212747402121719
:104143006F850A82850B83E02402800974011217AC
:10415300A5EEF0A3EFF074011217A5124323740127
:104163001217A512431A02429FE50E450F60030280
:1041730042A5850C82850D831245B9AA16AB171289
:10418300117E850A82850B837402F0850882850976
:1041930083EAF0851282851383EB0242A2E50E4582
:1041A3000F60030242A512433EF8A3E0F9850A8299
:1041B300850B837402F0E8850882850983F0E9851D
:1041C30012828513830242A2850C82850D831233EA
:1041D3009D12126EEAFAF8C3950EE4950F405CE85F
:1041E300650E450F70047A00802185188285198336
:1041F300E0FCE50E2CFCE4350FFDC3EC98ED9400D8
:104203005003E08005E50ECAC39AFAEA850A82855F
:104213000B83F08A0A750B00780A1219DC850C826D
:10422300850D83E0250EFCA3E0350FFDAA08AB093D
:10423300121274740212176F02430C7510070243B3
:104243000CE50E450F705B850C82850D831244CB04
:10425300850A82850B837407F08882898312431B46
:10426300124313E0851282851383F0E82402FAE4F3
:1042730039FB8A828B831243238A828B8312431AEC
:10428300A3A31228FA124328F0E82405F8500109E1
:1042930088828983124328A3124362A3A3A3A3F0B2
:1042A300806775100B8062741D1217A512339D125F
:1042B30008188A828B83E5824583604A1244CB883F
:1042C3000C890DE8450D603E74251217A5E0F51025
:1042D30078101219E0780E1219DC780A1219DC78BA
:1042E300081219DC74071217A5E0F9EEFCEFFDAA1A
:1042F30016AB17850C82850D831217C77407121727
:104303006FE9F510800375100EA91074050236606D
:10431300F088828983A322A3E0850882850983220A
:10432300124369F022124369A3A3229002EF1245BC
:10433300C022E0F50E750F00780E22850C82850DE4
:1043430083123803E022E0FAA3E0F8E4C8F9EA288C
:1043530022F08A828B83E0F50A750B00780A221219
:10436300431312436922E0850882850983A3A322AC
:1043730074EE1217C974FE1217598A088B09ECFEE2
:10438300EDFF890AAC18AD19EEFAEFFB1207168A96
:104393000C8B0DEA450D700302445B851882851969
:1043A3008312339D1208188A828B83E582458370BA
:1043B30003024456A3A31244CB880E890FE8450F8A
:1043C300700302445674141217A5E0F510A3E0F528
:1043D30011E50AF50B780B1219E074191217A512DF
:1043E30019F378101219DC741B1217A5E0F9AC0C41
:1043F300AD0DAA08AB09850E82850F831217C7740A
:104403000512176FE9F50B705274FE650A604C854F
:104413000C82850D83E06402704112446AFAA3E0C2
:10442300F9EAF87402687003742969702E851082A2
:10443300851183124349F50CE439F50D780C1219F3
:10444300DCEEFCEFFDAA08AB0912089C74021217FC
:104453006F8008750B0E8003750B01A90B74021294
:10446300176F7F0A02189BA31244CF88828983E0C7
:104473002274F61217C974FE121759740C1217A579
:104483001244CBE8851882851983F074011217A5AD
:10449300E9F0E4F508F50978081219DC75080278E3
:1044A300081219DC74041217AF88088909780812F6
:1044B30019DC79FE120884740612176F740212173E
:1044C3006F023E7C8E828F831244CF22E0F8A3E0FA
:1044D300F92274F71217C9EAFEEBFF890890030665
:1044E30012433112117EEA5402600BA908EEFAEF6F
:1044F300FB12070A800279017F0102189B74F212F2
:1045030017C974FE121759EAFEEBFF890A74016595
:104513000A60147402650A60030245AF7901120A46
:10452300A6E960030245AFEEFAEFFB120866EA4B19
:10453300600312086CA818A9198808890978081259
:1045430019DC75080275090078081219DC7508D999
:1045530075098178081219DC7CFF7DFF7A017B00E5
:10456300120710740612176F803885088285098335
:10457300A3A3A3A3A3A31245B9EEFAEFFB121166FB
:10458300E4F50CF50D780C1219DC74021217A51260
:1045930019F37CFF7DFFAA08AB0912071C740412F0
:1045A300176F8A088B09E508450970BE7402121754
:1045B3006F7F0602189B1238031245C022E0FCA34A
:1045C300E0FD2274F41217C98A088B09ECFEEDFF93
:1045D300901606E0F4604B7A097B00121298EA4BBE
:1045E30060408A828B8374B1F0A3E4124628F08A78
:1045F300828B83A3A3E508F0A3E509124628A3EE63
:10460300F0A3EFF0740C1217A51244CB8A828B83AC
:10461300A3A3A3A3A3A3A31239F4901606E0F9124C
:1046230012A402292FF08A828B83A3A3A3A322744B
:10463300EE1217C974FA1217598A0A8B0BE9FF8C09
:10464300088D097E00850A0C850B0D780C121A2043
:104653000004100E497A469D46BC46DF46024725B4
:1046630047564779479047C0476F489248B548E354
:10467300480E490E49E94774016F70198508828510
:104683000983E0C39403500D850882850983E09074
:1046930016F2F080027E1802493674026F70158597
:1046A3000882850983E0F8A3E0F99016F3E8F0A304
:1046B300E9F080027E1802493674016F701985088B
:1046C30082850983E0C39402500D8508828509839E
:1046D300E0900749F080027E1802493674016F703A
:1046E30019850882850983E0C39405500D850882E6
:1046F300850983E090074AF080027E1802493674E8
:10470300016F7019850882850983E0C39402500DF7
:10471300850882850983E090074BF080027E1802AA
:10472300493674106F7027750C10750D00780C12D4
:1047330019DCAC08AD097A4C7B07121274740212AF
:10474300176F8A0C8B0D850C82850D8380027E1872
:1047530002493674016F7019850882850983E0C3A5
:104763009402500D850882850983E090075CF080F0
:10477300027E1802493674016F700D85088285091F
:1047830083E09016F6F080027E1802493674046FB7
:10479300702690819E780C12161D850882850983E8
:1047A300780C1214AF5011850882850983121647BD
:1047B30090075E12165380027E18024936EF70216D
:1047C3001206B0E9701312110CE9F50D79501213AA
:1047D300C4E9F50C1210FA800A9007F17401F08015
:1047E300027E1802493674076F707C750E06750FCA
:1047F30000780E1219DC850882850983A3AC82AD8B
:104803008374021217B712127A740212176F8A1086
:104813008B1185100E85110F7C007D00AA18AB1932
:10482300850882850983E0F91210A0E9F50CE50CEF
:10483300C3940A502E1206B0E97015A90C12111276
:10484300E9F50E79501213C4E9F50D1210FA801927
:10485300A80C790074F228F582740739F583740182
:10486300F080067E0280027E1802493674016F7062
:1048730019850882850983E0C39402500D85088257
:10488300850983E090075DF080027E180249367443
:10489300016F7019850882850983E0C3940A500D5E
:1048A300850882850983E09016F5F080027E180260
:1048B300493674016F7025850882850983E0C394A6
:1048C300074019850882850983E0C39411500D853B
:1048D3000882850983E09016F7F080577E1880538D
:1048E30074016F70229007F0E0F50C85088285094A
:1048F30083E09007F0F0E50C70399007F0E0640175
:1049030070311210FA802C7E188028C3E50A942790
:10491300E50B9400501B74026F701685088285099D
:1049230083E0FCA3E0FDAA0AAB0B120530E9FE808D
:10493300027E02EEF9740612176F7F0A02189B7447
:10494300EC1217C974DA121759890D8A128B138C5A
:104953000A8D0B743A1217A5E0F50C908132AC184E
:10496300AD19740612166CAC18AD19AA12AB13A9C3
:104973000D1210A0E9FEEEC3940A4003024AB6EEFC
:10498300F91210DCE9FF9016F2E06402700474017E
:1049930080027400F50878081219E0AD0CEFFCEE04
:1049A300F9AA0AAB0B12114E740112176F7C147D16
:1049B30000790074121217B712128C8A0E8B0F85AE
:1049C3000E08850F0974121217BF7A1075F006EEE0
:1049D300A42424F91213BEE9703C7C1079FF7412ED
:1049E3001217B71212ECE9702D74221217A5AC82BC
:1049F300AD837A0475F006EEA42425F91213BEE9FB
:104A0300F50874121217BFEFA2E0E433F9AA0AAB58
:104A13000B1205BAE9F874061217BF7A0C74702EDC
:104A2300F91213BEE9707974061217B71210D07514
:104A33000E00E50EC394045067A80E7900E875F0E4
:104A430003A4C8AAF075F000A42AFA75F003E9A438
:104A53002AF974061217A5E58228F508E58339F5C6
:104A630009850882850983E0F8A3E0F9E849602C09
:104A7300850882850983A3A3E0F5107511007810DA
:104A83001219DC850882850983E0FCA3E0FDAA0AEC
:104A9300AB0B12088A740212176FE9F8050E8092A5
:104AA300EFA2E1500E900748E0F9AA0AAB0B1208F7
:104AB30090E9F87404650C700F9016F2E0640270CC
:104AC30007AA0AAB0B1211487900742612176F7FDD
:104AD3000C02189B74F71217C9EAFEEBFF1206B01B
:104AE300E970679007F1E06401701B12110CE9F59E
:104AF300089007F17400F07C0A7D0079007AF27B5C
:104B03000712128C8039750800E508C3940A502FE8
:104B1300A808790074F228F582740739F583E064F4
:104B2300017018A908121112E9FAA808790074F2A1
:104B330028F582740739F5837400F0050880CA7973
:104B4300501213C4E9F5081210FA7F0102189B747E
:104B5300F21217C9890BEAFEEBFF8C088D09750A5F
:104B63000AE50B600C146009146044146064024B82
:104B7300F7EEFAEFFB1210EEE9F50AE50AC3940A21
:104B83005072E5084509606C750C06750D00780CCC
:104B93001219DCEEFCEFFDAA08AB091212747402C1
:104BA30012176F8A0C8B0D850C82850D838045EE61
:104BB300FAEFFB1210E8E9F50AE50AC3940A503448
:104BC300E5084509602EAA08AB09A90A1210E2E913
:104BD3008022EEFAEFFB1210F4E9F50AE50AC3941A
:104BE3000A5011E5084509600BAA08AB09A90A1286
:104BF30010E2E9F8A90A7F0602189B74F21217C99A
:104C03008A0C8B0DE9FF7E1574FF650C700474FF2D
:104C1300650D702A750800E508C3940A5014EFFC6B
:104C23007A027B00A9081210BEE960027E00050823
:104C330080E5EF60627A367B11120ACA8059AA0CAA
:104C4300AB0D120A9A8A0A8B0B850A08850B09E5B4
:104C530008450960407C007D00E5082405FAE43539
:104C630009FB850882850983A3A3A3A3E0F9121096
:104C7300A0E9F50AE50AC3940A500EEFFC7A027B19
:104C830000A90A1210BEE97E00EF600BAA08AB0967
:104C930012113680027E14EEF97F0602189B74EE21
:104CA3001217C98A0E8B0F8C0A8D0B74121217A55B
:104CB300E0F50CA3E0F50D75081574FF650E70049F
:104CC30074FF650F701E7E00EEC3940A5061AC0C36
:104CD300AD0DAA0AAB0BEEF91210C4E96003750817
:104CE300000E80E4AA0EAB0F120A9A8A108B11AE43
:104CF30010AF11EE4F60357C007D00EE2405FAE421
:104D03003FFB8E828F83A3A3A3A3E0F91210A0E934
:104D1300F509E509C3940A5016AC0CAD0DAA0AAB0C
:104D23000BA9091210C4E97508008003750814A9BA
:104D3300087F0A02189B74F71217C9EAFEEBFF906B
:104D43000762EEF0A3EFF0900748E0FC7D007A26BF
:104D53007B00120530E9F508900748E0F91207F4E3
:104D63007F0102189B74F01217C974EC1217598A49
:104D73000C8B0D850C82850D83A3A3E024FA7003AD
:104D83000251E124FD7003025056147003024E5881
:104D930014601024FD7003024FFE1470030250953B
:104DA3000251F4AE0CAF0D900762E0F8A3E0F9E80E
:104DB300496066900762E0F8A3E0F5838882E0F833
:104DC300A3E0F9E8496052EE240CF582E43FF58351
:104DD300E0F50878081219E0EE240BF582E43FF5BC
:104DE30083E0F98E828F83A3A3A3A3A3A3A3A3A387
:104DF300E0FCA3E0FDEE2403FAE43FFB900762E04E
:104E0300F8A3E0F5838882E0F8A3E0F583888212B3
:104E130017C7740112176F80398E828F83A3A3A3E0
:104E2300A3A3A3A3A3A31219F390075E12163B1225
:104E330005CC740212176FE9601879018E828F8393
:104E4300A3A3A3A3A3A3A3A3A3E0FAA3E0FB120535
:104E5300C6E90251F4AE0CAF0D7508008E828F8344
:104E6300A3E06003024F808E828F83A3A3A3A3A337
:104E7300E0A2E04003024F809007FCE0F8A3E0F9D2
:104E8300E8496003024F807C0E7D007900AA18ABCD
:104E93001912128C8A0A8B0BAA0AAB0BEE240CF59F
:104EA30082E43FF583E0F8A3E0F9E8496036750A48
:104EB30006750B00780A1219DCEE240CF582E43F28
:104EC300F583E02410FCA3E03400FD74021217B74D
:104ED300121274740212176F8A0A8B0B850A828569
:104EE3000B83804F8E828F83A3A3A3E0FAA3E0FBFF
:104EF300120A9A8A0E8B0F850E0A850F0BE50A4557
:104F03000B602D750E06750F00780E1219DCE50A7D
:104F13002405FCE4350BFD74021217B712127474E6
:104F23000212176F8A0E8B0F850E82850F83800303
:104F33000251F48E828F83A3A3A3A3A3E0A2E25022
:104F430004D2F08002C2F0A2F0E433F87900740CCA
:104F53001217A5E048F0A3E049F0EEFCEFFDAA1814
:104F6300AB191210D6E970127A027B00900748E061
:104F7300F91212C8E979000251F675081590076213
:104F8300E0F8A3E0F9E849606F900762E0F8A3E076
:104F9300F5838882A3A3E0F8A3E0F9E84960598E7A
:104FA300828F83A3E0FC79018E828F83A3A3A3E086
:104FB300FAA3E0FB900762E0F8A3E0F5838882A3FD
:104FC300A3E0F8A3E0F58388821217C7E5086028F9
:104FD300AC0879038E828F83A3A3A3E0FAA3E0FB3B
:104FE300900762E0F8A3E0F5838882A3A3E0F8A327
:104FF300E0F58388821217C70251F4AE0CAF0D900F
:105003000762E0F8A3E0F9E8496045900762E0F839
:10501300A3E0F5838882A3A3E0F8A3E0F9E849605D
:105023002F850C82850D83A3E0FC79028E828F830A
:10503300A3A3A3E0FAA3E0FB900762E0F8A3E0F5E3
:10504300838882A3A3E0F8A3E0F58388821217C7BD
:105053000251F4AE0CAF0D7C007D00EE2404FAE4A3
:105063003FFB8E828F83A3A3A3E0F91210A0E9F57F
:1050730008E508C3940A5017EE240AFCE43FFD7ABE
:105083000475F006E508A42425F91213B8E9F8021B
:1050930051F4AE0CAF0D90075DE060199016F5E08A
:1050A300F98E828F83A3A3A3E0FAA3E0FB1205C6C4
:1050B300E9F80251F49016F2E0701679058E828FAA
:1050C30083A3A3A3E0FAA3E0FB1205C6E9F8025108
:1050D300F48E828F83A3A3A3E0FAA3E0FB120A9AC0
:1050E3008A0A8B0B850A08850B09E50845097003B5
:1050F3000251F48E828F83A3A3A3A3A3A3A3E0A24D
:10510300E0506D850882850983A3A3A3A3E06060B3
:105113008E828F83A3A3A3A3A3A3A3A3A3E0F50AD0
:10512300A3E0F50B7409780A121737E50A5401F85E
:10513300E50B5400F9E8A2E04036740E1217BFE500
:10514300082405FAE43509FB850882850983A3A3AE
:10515300A3A3E0F91210A0E9701679038E828F835E
:10516300A3A3A3E0FAA3E0FB1205C6E9F80251F4F6
:10517300EE2405FCE43FFD850882850983A3A3A3F0
:10518300A3E0F98E828F83A3A3A3E0FAA3E0FB122B
:105193001142900762E0F8A3E0F9E84960539007F1
:1051A30062E0F8A3E0F5838882A3A3E0F8A3E0F923
:1051B300E849603D7C0079008E828F83A3A3A3E03E
:1051C300FAA3E0FB900762E0F8A3E0F5838882A3EB
:1051D300A3E0F8A3E0F58388821217C78013AE0C0F
:1051E300AF0D8E828F83A3A3A3E0FAA3E0FB12107B
:1051F3009A7901741412176F7F0802189B74F512C1
:1052030017C974F21217598909EAFEEBFF8C0AAC2D
:1052130018AD197A0E75F006E509A42420F91213C6
:10522300BEE9705F7C0679FFAA18AB191212ECE98C
:105233007051740C1217A5E0F8A3E0F9E8F508E53E
:105243000A6005EE42088004EEF45208A8087900CB
:10525300740C1217A5E0687003A3E0696021A80825
:105263007900740C1217A5E8F0A3E9F0AC18AD1996
:105273007A0E75F006E509A42420F91213B8E9792A
:105283000180027900740E12176F7F0302189B745A
:10529300F01217C974E6121759890B8A0C8B0DEC9F
:1052A300FEEDFF740C1217BF7A0E75F006E50BA422
:1052B3002420F91213BEE960030253C27C0679FF6E
:1052C300740C1217B71212ECE960030253C2AC1844
:1052D300AD197A0C7470250BF91213BEE960030241
:1052E30053BE750A00AA18AB191210D0E50C450D70
:1052F300702E7C0C7900AA18AB191212ECE960032A
:105303000253A47C0C7D007900AA18AB1912128CED
:105313008A088B09850882850983750A010253A4CB
:10532300AC18AD19AA0CAB0D1210CA8A0E8B0F85DF
:105333000E08850F09E50845097030EE4F601BAC78
:1053430018AD197A007B001210CA8A0E8B0FA80EB3
:10535300A90F88088909E8497004790080638508E2
:1053630082850983E50CF0A3E50DF08508828509A4
:1053730083A3A3E0F87900EE687002EF696022EE80
:10538300C0E0850882850983A3A3D0E0F0EE4F70C7
:105393000D8508828509837400F0A37400F0750AF3
:1053A30001E50A6016AA18AB191210D0AC18AD1992
:1053B3007A0C7470250BF91213B8E979018002791C
:1053C30000741A12176F7F0802189B74F61217C91C
:1053D3008A088B097E00EEC394045050EEF87900DE
:1053E300E875F003A4C8AAF075F000A42AFA75F0D2
:1053F30003E9A42AF9EC28F582ED39F583E0650881
:105403007004A3E065097021EEF87900E875F003F4
:10541300A4C8AAF075F000A42AFA75F003E9A42A37
:10542300F9EC28FAED39FB80070E80AA7A007B009D
:105433007F0202189B74F71217C97C00ECC3940413
:1054430040030254E7ECF87900E875F003A4C8AD13
:10545300F075F000A42DFD75F003E9A42DF9EA28F9
:10546300F582EB39F583E0F4FEA3E0F4FFECF87981
:1054730000E875F003A4C8ADF075F000A42DFD7528
:10548300F003E9A42DF9EA28F582EB39F583EEF070
:10549300A3EFF0ECF87900E875F003A4C8ADF0755C
:1054A300F000A42DFD75F003E9A42DF9EA28F58297
:1054B300EB39F583A3A3E0F4C0E0ECF87900E875D9
:1054C300F003A4C8ADF075F000A42DFD75F003E959
:1054D300A42DF9EA28F582EB39F583A3A3D0E0F0F4
:1054E3000C02543F7F0102189B74F01217C974F425
:1054F300121759EAFEEBFF8C088D099007FCE0F8C0
:10550300A3E0F9E849702CEE4F6006E50845097001
:10551300057901025798EEFAEFFB1210EEE99016A7
:10552300F8F09016F8E0C3940A4008121100E990CD
:1055330016F8F09016F8E0C3940A400302579690C9
:1055430007FCE0F8A3E0F9E84960030255E2EEFC4A
:10555300EFFD7A0E75F0069016F8E0A42420F912F8
:1055630013B8E9F50C7C0C7D0079FFAA18AB19126E
:10557300128C8A0E8B0F850E0A850F0BAC18AD1992
:105583007A0C9016F8E02470F91213B8E9F50D754A
:105593000E0E750F00780E1219DCEEFCEFFD90165F
:1055A300F8E0F87900E875F00EA4C8AAF075F000E9
:1055B300A42AFA75F00EE9A42AF9746428FA740788
:1055C30039FB121274740212176F8A0E8B0FA80E16
:1055D300A90F9007FCE508F0A3E509F002579290A4
:1055E30007FCE0F8A3E0C82406F582C83400F5837D
:1055F300E0F8A3E0F9E84960439007FCE0F8A3E092
:10560300C82406F582C83400F583E0FCA3E0FD7AE4
:105613001B75F0069016F8E0A42421F91213B8E9DB
:10562300F89007FCE0F9A3E0C92406F582C9340029
:10563300F5837400F0A37400F00257929007FCE026
:10564300F8A3E0C8240AF582C83400F583E0F8A380
:10565300E0F9E84960439007FCE0F8A3E0C8240AB6
:10566300F582C83400F583E0FCA3E0FD7A1B75F0F6
:10567300069016F8E0A42422F91213B8E9F890076B
:10568300FCE0F9A3E0C9240AF582C93400F5837468
:1056930000F0A37400F00257929007FCE0F8A3E037
:1056A300C8240CF582C83400F583E0F8A3E0F9E8D8
:1056B3004960439007FCE0F8A3E0C8240CF582C8D6
:1056C3003400F583E0FCA3E0FD7A1075F006901634
:1056D300F8E0A42423F91213B8E9F89007FCE0F9E1
:1056E300A3E0C9240CF582C93400F5837400F0A348
:1056F3007400F00257929007FCE0F8A3E0C8240876
:10570300F582C83400F583E0F8A3E0F9E849606F57
:105713009007FCE0F8A3E0C82408F582C83400F53C
:1057230083E0FCA3E0FD7A1075F0069016F8E0A480
:105733002424F91213B8E9F50A9007FCE0F8A3E072
:10574300C82408F582C83400F583E02410FCA3E0E4
:105753003400FD7A0475F0069016F8E0A42425F9C8
:105763001213B8E9F89007FCE0F9A3E0C92408F59F
:1057730082C93400F5837400F0A37400F0801090A4
:1057830007F0E0600312115412113C79018006798D
:105793000080027901740C12176F7F0802189B7442
:1057A300F71217C974F2121759E9FEAC18AD197A3A
:1057B3000E75F006EEA42420F91213BEE9700E74E0
:1057C3000C1217A5E0F8A3E0F9E8F9800279007458
:1057D3000E12176F7F0102189B74F41217C974F22B
:1057E3001217598909EAFEEBFFE509C3940A50042D
:1057F300EE4F700479028041AC18AD197A0E75F042
:1058030006E509A42420F91213BEE9F508E508709A
:1058130026750A06750B00780A1219DC7402121732
:10582300BFEEFAEFFB121274740212176F8A0A8B1F
:105833000B850A82850B83A908740E12176F7F04E8
:1058430002189B74F41217C9EAFEEBFF750800E512
:1058530008C3940A5043750A06750B00780A121997
:10586300DCEEFCEFFDA8087900E875F00EA4C8AAE9
:10587300F075F000A42AFA75F00EE9A42AF9746A07
:1058830028FA740739FB121286740212176FE96043
:1058930004A9088006050880B6790A7F0402189BCC
:1058A30074F41217C9EAFEEBFF750800E508C39408
:1058B3000A5043750A06750B00780A1219DCEEFCD0
:1058C300EFFDA8087900E875F00EA4C8AAF075F0FA
:1058D30000A42AFA75F00EE9A42AF9746428FA746C
:1058E3000739FB121286740212176FE96004A908C4
:1058F3008006050880B6790A7F0402189B74F712A4
:1059030017C974F0121759EAFEEBFF750800E50892
:10591300C3940A5039AC18AD197A1075F006E5082E
:10592300A42423F91213BEE970207C1079FFAA186E
:10593300AB191212ECE97012EEFCEFFDAA18AB19C9
:10594300120596E97004A9088006050880C0790A43
:10595300741012176F7F0102189B74F41217C97524
:105963000800E508C3940A4003025A37A8087900DF
:10597300E875F00EA4C8AAF075F000A42AFA75F031
:105983000EE9A42AF9746428FC740739FD7A0E75AC
:10599300F006E508A42420F91213BEE97003025AA5
:1059A300327C067D0079FFAA087B00EA75F00EA41D
:1059B300CAA8F075F000A428F875F00EEBA428FB34
:1059C30074642AFA74073BFB12128C8A0A8B0BAE9F
:1059D3000AAF0B7C067D0079FFAA087B00EA75F00D
:1059E3000EA4CAA8F075F000A428F875F00EEBA475
:1059F30028FB746A2AFA74073BFB12128C8A0A8BFF
:105A03000BAC0AAD0BA8087900E875F00EA4C8AA80
:105A1300F075F000A42AFA75F00EE9A42AF974705F
:105A230028F582740739F5837400F0A37400F00538
:105A3300080259659007F0E0600312115412113CFB
:105A43007F0402189B74F71217C97E00EEC3940AF1
:105A530050327C0679FFEEFA7B00EA75F00EA4CA99
:105A6300A8F075F000A428F875F00EEBA428FB74D9
:105A7300642AFA74073BFB1212ECE96004EEF98026
:105A8300050E80C8790A7F0102189B74F71217C9A3
:105A93007E007F00EFC3940A50357C0679FFC9FD71
:105AA300C9EFF87900E875F00EA4C8AAF075F00004
:105AB300A42AFA75F00EE9A42AF9746428FA740783
:105AC30039FBCDF9CD1212ECE970010E0F80C5EE52
:105AD300F97F0102189B74F71217C97E007F00EF4C
:105AE300C3940A500DEE700AEFF9121112E9FE0F7A
:105AF30080EDEEF97F0102189B74F01217C974CB85
:105B030012175989099016F8E06509701D7A017B0F
:105B130000900748E0F91212CEE97A027B00900761
:105B230048E0F91212CEE912116074271217BF7AF6
:105B33000E75F006E509A42420F91213BEE96003EB
