:020000040000FA
:060000000201070222A923
:03000B000226D2F8
:03002B000226ADFD
:0300530002231F66
:100083000220FFE5C754F84401F5C77901220000B7
:100093000080FB120086B900030200F1E4792178A5
:1000A30008B800028004F709D8FCE479297802B87B
:1000B30000028004F709D8FCE4900281781B7914CC
:1000C3008002F0A3D8FCD9FA7A9B7B15900137788C
:1000D3002479048015E493A3AD82AE838A828B8353
:1000E300F0A3AA82AB838D828E83D8E9D9E7758288
:1000F3009E7583FF740112011975829175830074D3
:100103000012011975D00075813F751881751902A8
:10011300759F00020096C09FF59FE473D09F22D085
:1001230083D082C09FE493C0E0740193C0E0740263
:1001330093F59F22FF0000B4000028002800283018
:1001430075A000A000A000A00000080008E001F0D6
:10015300001000100010001000100010005000509C
:1001630000500010001000D0070000000000000F36
:100173000001000500307507001000010081FF0039
:10018300000000FFFFFF8806A6068E06CA06FF02D0
:10019300020208025000A0000000E80302D581011A
:1001A3000000D28102D981010000F61502DF81012E
:1001B3000000C70202D981010000F71502E18101A5
:1001C3000000DD0202D981010000F81502E381017C
:1001D3000000DF0202D981010000F91502E5810860
:1001E3000000E00202D981010000FA1502E7810153
:1001F3000000FB15FF0100FF2002D581010000C6AE
:100203008102D9810100005F1602E981000000002C
:100213000002DD810300000E031700360D360D3694
:100223000D360D360D360D360D360D360D360D36B3
:100233000D360D360DDC0FEE0FD60F020202020251
:1002430002020202010D000000100102D58101002B
:1002530000C98102D981010000A216020D820100AA
:1002630000480702D981010000A316020B82010096
:1002730000178102D981010000A41602098201003E
:1002830000FB8002D981010000A51602FB81010059
:1002930000958002D981010000A61602F1810100B8
:1002A30000838002D981010000A716021182010098
:1002B30000A78002D981010000A81602ED81010088
:1002C30000B98002D981010000A91602EB81010067
:1002D30000098102D981010000AA160207820100E8
:1002E30000AB1601E8030577100A0D095050474685
:1002F30075656C4761756765051250002003020A36
:10030300000201060302F0FF5050474675656C4733
:1003130061756765000000000000000000401200E6
:10032300004C1200005212E80300001002417379DE
:100333006E632042756C6B0053796E632042756C5B
:100343006B0002D581010000CF8102D98101000039
:10035300921702F581000000700802DD810300009E
:10036300980802DB81010000941702D98101000083
:10037300931702F781010000840802DB810100006A
:100383009F170A100A02436F6D6D616E6400526518
:1003930073706F6E7365004D61696C626F780044B2
:1003A300657669636520496E666F0002D581010039
:1003B30000CC8102D981010000E91702FF8103000B
:1003C300009C0802DB81010000ED1702D9810100C6
:1003D30000EA170201820000009E0802DD8103008B
:1003E30000B80802DB81010000F51702D981010082
:1003F30000EB17020382030000A00802DB81010067
:1004030000FE1702D981010000EC170205820100EA
:1004130000B40802DB810100000618FFFFFF0001A2
:100423003075030201060000000000000000000018
:1004330000000000000000000000000000000000B9
:100443000000FFFF0600800CE8030000020000002C
:100453000000007015761512012246D703120122FF
:10046300B3D70312012225AC0312012238AC0312C5
:10047300012269AC03120122A3AC03120122FCACDA
:100483000312012243AD031201228BAD0312012299
:10049300BAAD03120122E9AD0312012220AE031209
:1004A300012267AE0312012280AE03120122D5AEF0
:1004B30003120122EEAE031201223CAF031201220A
:1004C30076AF03120122A0CB02120122A3CC0212A7
:1004D3000122DCCC02120122FFCC0212012211CD37
:1004E300021201224FCD02120122CBCD02120122B0
:1004F30093CE02120122B5CE021201224CCF021278
:1005030001229ECF02120122CFCF02120122DCCFA1
:100513000212012246D0021201229DD002120122B0
:10052300A0D002120122D9D002120122DCD0021281
:100533000122E6D0021201223AD1021201227BD11A
:1005430002120122AED102120122EBD102120122C8
:10055300EDD20212012291D302120122FAD3021226
:10056300012238D402120122E7FB021201220FFCFE
:10057300021201223CFC0212012274FC021201222B
:10058300D2FC021201221EFD0212012285FD02127B
:100593000122C5FD0212012202FE0212012230FED7
:1005A30002120122DAFE02120122E4FE02120122E9
:1005B300F1FE0212012224FF0212012230FF021275
:1005C300012248FF0212012252FF021201226DD3BF
:1005D300031201227BD30312012293D303120122BC
:1005E300AAD303120122D0BA011201227ABB01124B
:1005F30001228DBC0112012209BD0112012227BE75
:100603000112012263BE01120122FEBE0112012268
:10061300E2BF01120122AEC0011201223CC201124B
:100623000122ADC20112012267C30112012259C482
:100633000112012299C4011201224DC501120122A6
:100643007FC50112012275C701120122B7C701122A
:100653000122D5C7011201223BC8011201220AC996
:1006630001120122CEC901120122EDCB0112012296
:100673000B7900120122F57900120122A07A0012EF
:100683000122F17A00120122A17B00120122127CC5
:1006930000120122F77C001201222B7D001201229D
:1006A300247E00120122617E001201223D7F00128E
:1006B30001227C7F00120122987F00120122C3C510
:1006C3000312012247C60312012272C6031201223A
:1006D3008CC7031201226DA40312012283A4031207
:1006E3000122A1A403120122B2A503120122BCA577
:1006F30003120122E7A603120122DEA7031201223D
:100703004BA8031201221BF10212012251F2021221
:10071300012288F202120122DFF202120122F4F412
:10072300021201221A9601120122A6960112012237
:100733000A980112012216980112012251980112FE
:100743000122C09801120122C99901120122D29AF1
:1007530001120122999B01120122F69C011201222E
:10076300149D01120122319D01120122DE9D01120D
:1007730001225B9E01120122839E011201224DA1DF
:100783000112012252A1011201226BA301120122C3
:10079300B9A30112012229A40112012267A40112A3
:1007A300012243A50112012203A6011201224FA631
:1007B3000112012252A60112012296A60112012260
:1007C300DEA6011201221DA7011201223FA7011279
:1007D300012273A701120122D6A701120122008070
:1007E300031201220E8003120122618003120122EF
:1007F300808003120122C5800312012209820312A1
:100803000122A48203120122E8820312012212832D
:1008130003120122818303120122C78303120122DF
:100823003E8403120122EF840312012234270012B3
:100833000122442700120122E52700120122412848
:1008430000120122FE28001201221A2A001201229C
:100853004C2A001201227B2A00120122282C0012AA
:1008630001229F2E001201220F31001201220132B8
:1008730000120122FA320012012201350012012274
:10088300F53700120122243900120122283B0012FD
:100893000122383C00120122C73D00120122B83E5A
:1008A30000120122063F00120122753F00120122AD
:1008B300993F00120122EA3F001201228B440012E9
:1008C30001228C4500120122ED4500120122184637
:1008D30000120122DE460012012233A0031201227C
:1008E3003DA00312012282A00312012296A003124B
:1008F300012226A1031201225FA1031201229AA160
:1009030003120122C3A10312012217A2031201221F
:100913002CA2031201224EA20312012263A203128C
:10092300012277A2031201228CA203120122C6A282
:1009330003120122F2A2031201223BA3031201229A
:10094300ADA303120122F0A3031201221AA403127E
:10095300012245A4031201225BD1031201221CA42C
:1009630002120122FFA4021201227AA5021201221D
:10097300B5A50212012206A70212012294A70212B0
:10098300012226AA02120122D8AA02120122E4ABF2
:100993000212012257AD02120122B0AD021201224E
:1009A300A19703120122E49703120122689803120C
:1009B30001223F9B0312012257C10312012209C2E4
:1009C3000312012205C30312012244C303120122AD
:1009D3009EC303120122AEC90312012211CA0312DC
:1009E3000122AECA03120122E3CA0312012213CB6E
:1009F300031201224ECB031201226ECB03120122FA
:100A0300FF89031201228B8A031201224A8B0312EC
:100A13000122628C031201227C8E03120122888D33
:100A230002120122AD8D021201227A8E02120122DC
:100A33004E8F02120122BB8F02120122FB8F021280
:100A43000122979002120122CB9102120122A69257
:100A53000212012205930212012291930212012232
:100A6300FF93021201228B9402120122D1940212EB
:100A73000122439502120122D59502120122769694
:100A830002120122969602120122DE96021201221E
:100A93002797021201224397021201226997021239
:100AA3000122E39702120122F19702120122809898
:100AB30002120122E99802120122B38E03120122CB
:100AC300388F031201227A8F031201225E900312E0
:100AD3000122CB90031201220F91031201225391A1
:100AE30003120122809103120122A8910312012211
:100AF300E091031201221E92031201224592031276
:100B03000122BF9203120122099303120122FACB9D
:100B13000112012299CD01120122D1CF011201222A
:100B230025D00112012250D0011201222CD1011231
:100B330001225CD1011201228BD1011201229ED12B
:100B430001120122DFD1011201220CD20112012272
:100B53005AD20112012296D201120122DBD20112D2
:100B6300012228D301120122A2D301120122E3D5CB
:100B730001120122CDD70112012209D8011201224B
:100B830098D901120122DDD90112012250DA011292
:100B93000122A5DA01120122AADA0112012234DBB1
:100BA3000112012253DC0112012264DC0112012231
:100BB30001C2021201227AC20212012234C80212B5
:100BC30001223FC902120122E8CA0212012276CB96
:100BD30002120122F8640012012279650012012237
:100BE300A66500120122EF6500120122F0660012D1
:100BF3000122496700120122C568001201224769D8
:100C030000120122626900120122D369001201223B
:100C1300906A00120122536B00120122E16B001251
:100C23000122986C00120122AB6C00120122446D68
:100C330000120122DB6D00120122026E001201225A
:100C43006B6E00120122B56E00120122036F0012B7
:100C53000122A86F00120122467000120122D370F4
:100C6300001201224471001201228B710012012231
:100C7300E37100120122157200120122CF720012D9
:100C83000122D673001201221F74001201223C7448
:100C9300001201225B74001201228E7500120122E0
:100CA3004576001201226A76001201227F76001235
:100CB3000122EF76001201223077001201225478CC
:100CC30000120122D5780012012241B8021201223A
:100CD3008CB80212012298B8021201226CB90212D6
:100CE300012283B902120122C0B902120122F1B911
:100CF3000212012229BA021201227FBA0212012230
:100D030095BA02120122D1BA02120122E4BA0212E6
:100D130001220BBB021201223FBB0212012265BC5E
:100D230002120122AFBD02120122ABBE0212012246
:100D3300C8BF0212012229270012012287DC0112F7
:100D43000122C2DC0112012214E00112012270E12E
:100D5300011201222FE20112012296E50112012262
:100D630080E601120122CCE601120122E6E601121D
:100D7300012223E7011201222EE7011201226DE76E
:100D83000112012276E70112012220E80112012259
:100D9300F7E8011201224BE901120122A8E901122D
:100DA30001221AEA01120122AEA8011201220DAC9E
:100DB3000112012213AC0112012244B301120122D8
:100DC3004BB701120122DEAF03120122BBB00312A3
:100DD3000122FFB00312012239B103120122D1B162
:100DE3000312012240B20312012249B2031201226B
:100DF30055B2031201226FB20312012299B20312F8
:100E03000122C9B203120122F19B03120122FE9BAC
:100E130003120122189C031201224B9C031201228C
:100E2300899C03120122EE9C03120122039D0312EB
:100E330001220E9D031201221B9D03120122329DEA
:100E430003120122409D031201224B9D0312012232
:100E5300579D03120122669D03120122719D031205
:100E63000122949D03120122389E03120122489EFF
:100E730003120122629E031201227F9E03120122AA
:100E83009A9E03120122BF9E03120122CA9E0312DD
:100E93000122DF9E03120122F39E03120122549FBB
:100EA300031201225A9F03120122609F031201229F
:100EB300669F031201227E9F03120122B19F031238
:100EC30001220580021201229C8002120122348138
:100ED300021201222482021201225B8202120122E7
:100EE3006E8202120122DC82021201227784021234
:100EF30001229E840212012240850212012275857D
:100F030002120122868502120122FF8502120122AA
:100F130020860212012238860212012290870212D1
:100F23000122998902120122E98B02120122EC8C1F
:100F3300021201223B8D0212012269EB01120122EE
:100F430066EC0112012251ED011201225BED011247
:100F530001227DED0112012289ED01120122DBEE56
:100F6300011201220AEF011201223AF001120122B9
:100F73007CF001120122A8F1011201227EF201127A
:100F83000122D0F2011201222FF30112012266F392
:100F930001120122A1F3011201223CF701120122E5
:100FA30055F701120122D7F701120122E5F70112C9
:100FB30001223AF80112012248F801120122B5F880
:100FC3000112012227F9011201226DF901120122F6
:100FD3000C99021201222E9902120122189B02126D
:100FE3000122BD9E0212012200A002120122DAA0F8
:100FF3000212012249CD031201226ECD03120122F6
:10100300DFCD031201225ED40212012267D4021241
:10101300012270D402120122A1D502120122C0D7EB
:1010230002120122F6D70212012230D80212012243
:1010330066D802120122A0D802120122D4D80212C9
:10104300012200D90212012249D90212012283D9B5
:1010530002120122CBD90212012221DA0212012249
:1010630056DA02120122B1DA02120122EBDA02127B
:1010730001223CDB0212012272DB02120122ACDBF1
:1010830002120122DADB02120122FDDB021201222B
:101093003AD40312012266D403120122C1D40312EB
:1010A3000122CBD403120122DBD4031201220185D6
:1010B30003120122288503120122638503120122F0
:1010C300C1D6031201224A47001201225A4A0012D2
:1010D3000122EF4B001201226A4C00120122164D2D
:1010E30000120122B94D00120122514E00120122B9
:1010F300804E00120122185300120122AA5300123B
:101103000122E65400120122505500120122045616
:1011130000120122BA5800120122F45800120122CF
:101123005E5900120122BB5900120122185A001203
:101133000122755A00120122605B00120122A65B94
:1011430000120122F15B00120122145C0012012241
:101153005B5D001201226F5D00120122DE5E001250
:1011630001221D5F001201225D5F00120122B05FA8
:1011730000120122D15F001201220F60001201222E
:1011830035620012012276620012012211630012FD
:101193000122836300120122C464001201227AEB4C
:1011A3000212012220EC0212012265ED0212012239
:1011B300EEED02120122DBEE021201221AEF0212FD
:1011C300012284EF02120122F2EF021201227AD8E5
:1011D30003120122E6BB03120122B1BE0312012254
:1011E30038D8031201228ED5031201229ED5031291
:1011F3000122B2D5031201222ED603120122F7B225
:10120300031201229FB303120122E1B5031201224B
:10121300F97F0012012268D803120122BBF60212E1
:101223000122CBF6021201220CF90212012242FA28
:1012330002120122ABFA02120122C9FA021201229E
:10124300EBFA02120122BCFB02120122BFFB0212C3
:101253000122E1FB021201226FD203120122BAD250
:1012630003120122C8D20312012237D3031201222F
:10127300F7B80312012217B9031201227EB9031230
:10128300012291B903120122A4B90312012234BA33
:1012930003120122A7BA03120122ECBA031201229C
:1012A30055D803120122499303120122BA93031260
:1012B3000122D79303120122FC93031201222B94E0
:1012C300031201225A9403120122D9950312012217
:1012D300D7960312012219E4021201228AE40212B0
:1012E300012201E602120122D5E70212012212E9CC
:1012F30002120122D6E902120122F3E902120122AB
:1013030042EA0212012283EA02120122C4EA021211
:101313000122E8EA0212012217EB02120122BBC7E3
:101323000312012211C8031201228EC803120122E3
:10133300C8C803120122D8C80312012211C903121B
:1013430001227CCB03120122ACCB0312012242CC3B
:1013530003120122D0CC03120122EECC031201228C
:1013630039D0031201226AD00312012294D003124E
:101373000122F2D0031201228BDC02120122A0DC33
:1013830002120122FCDC0212012267DD0212012299
:10139300AFDD0212012221DE021201224ADE021215
:1013A300012258DE02120122BADE02120122F8DE05
:1013B3000212012213DF02120122AEDF0212012206
:1013C30057E002120122DAE00212012213E10212B3
:1013D30001229EE102120122F5E10212012253E2EF
:1013E3000212012265E2021201228BE202120122A1
:1013F30094E202120122E5E302120122C9C303129D
:10140300012230C403120122EDC4031201226BC571
:101413000312012255A80312012288A803120122F4
:10142300BAA903120122FEA903120122DAAA0312A6
:101433000122FFCE03120122DDCF03120122BFBE20
:101443000312012204BF031201224ABF0312012225
:1014530013C10312012231D6031201224CD6031207
:1014630001225CD603120122E5D40312012259AEF4
:101473000212012235AF021201227CAF02120122B5
:10148300B9AF0212012227B00212012281B0021267
:101493000122F1B002120122C1B102120122B0B243
:1014A3000212012227B302120122C3B40212012243
:1014B30050B502120122C3B5021201223FB6021235
:1014C300012256B6021201227BB702120122D5B7BE
:1014D30002120122F6F90112012216FA0112012267
:1014E3001CFB0112012268FB0112012288FB01127D
:1014F3000122DBFB0112012248FC011201228EFCB6
:1015030001120122F2FC01120122148201120122B2
:10151300418701120122448A011201226D8A0112BC
:101523000122968A01120122488B01120122318D78
:10153300011201227C8E01120122958E01120122D9
:10154300CC93011201220594011201224994011244
:1015530001225A9501120122FCB5031201220CB695
:10156300031201223FB603120122B9B6031201226C
:10157300A2B70312012289B8031201228CB8031205
:101583000122B7B803120122D5B803120122C6D72C
:10159300031201220CD803120122E0FF02E066705D
:1015A3001008A3E066700A08A3E066700408A3E0CD
:1015B3006622C3E7960809E7960809E7960809E74C
:1015C3009622C3E09608A3E09608A3E09608A3E05A
:1015D3009622C008C3E096F50808A3E096420808DF
:1015E300A3E096420808A3E09645087001D3D0080B
:1015F30022080808EAC0E0EBC0E086F0E7A4FA1886
:101603000986F0E7A42AFA180986F0E7A42AFA184B
:101613000986F0E7A42AFA1986F0E7A4FBE5F02A85
:10162300FA190886F0E7A42BFBE5F03AFA190886C5
:10163300F0E7A42BFBE5F03AFA18180986F0E7A4C3
:10164300C5F02BFBE43AFA1908E7C5F0C6A426F661
:10165300E5F03BFBE43AFA1886F0E7A4F6E5F00878
:1016630026F6E43B08F6E43A08F6D0E0FBD0E0FACD
:10167300226016080808C6C313C618C613C618C6C0
:1016830013C618C613C6D5E0EA2270090808082253
:101693006016181818C6C333C608C633C608C6333F
:1016A300C608C633C6D5E0EA22E627F60809E637B8
:1016B300F60809E637F60809E637F622E026F608C3
:1016C300A3E036F608A3E036F608A3E036F622E0F8
:1016D30026F008A3E036F008A3E036F008A3E036CE
:1016E300F022C3E697F60809E697F60809E697F6A7
:1016F3000809E697F622C3E096F008A3E096F008FF
:10170300A3E096F008A3E096F022E056F608A3E0E3
:1017130056F608A3E056F608A3E056F622E056F084
:1017230008A3E056F008A3E056F008A3E056F02221
:10173300E0F608A3E0F608A3E0F608A3E0F622E645
:10174300F008A3E6F008A3E6F008A3E6F022E0FA27
:10175300A3E0FBA3E0FCA3E0FD22E0F8A3E0F9A3F0
:10176300E0FAA3E0FB22E8F0A3E9F0A3EAF0A3EB9D
:10177300F022CAC0E0E6F0A308DAFAD0E0FA22CAFF
:10178300C0E0E0A3C582CCC582C583CDC583F0A3E9
:10179300C582CCC582C583CDC583DAE6D0E0CA2233
:1017A300C3E498F8E499F91217E48026C3E49AFA9B
:1017B300E49BFBE920E7E91217E4E498F8E499F9DC
:1017C30022C3E498F8E499F91217E4E498F8E49949
:1017D300F9C3E49AFAE49BFB22EB20E7CFE920E785
:1017E300E0B90010BB0008E88AF084F8AAF022E40C
:1017F300FBC8FA22EB70227B10C833C8C933C93344
:101803005007C39AC3DBF280069A50012ADBEAC869
:1018130033F4C8C933F4C9FA2275F008E4C833C8ED
:10182300C933C933C99AC99B5004C92AC93BD5F0E6
:10183300ECFBC833F4C8E4C9FA22600D08C6A2E77A
:1018430013C618C613C6D5E0F322600C08C6C3132B
:10185300C618C613C6D5E0F422700422600D18C65C
:10186300C333C608C633C6D5E0F41822251810AF13
:1018730008F518400C15198008F51840021519D2FF
:10188300AF2200C0D0251810AF08F518500C051969
:101893008008F51850020519D2AFD0D0222518F5CB
:1018A3008210AF08F518400C15198008F51840028E
:1018B3001519D2AF851983222518F582E43519F558
:1018C30083222518F8E43519F9222518FAE4351985
:1018D300FB222518FCE43519FD22E4732518C58283
:1018E300C0E0E51934FFC583C0E0E518C395822441
:1018F300F810AF08858319858218800885831985B8
:101903008218D2AFCEF0A3E520F0A37808E608F062
:10191300A3DEFAEFF0A3E58124FAF8E608F0A3E6E4
:1019230008F0A3E608F0A30808E608F0A3E608F029
:10193300A315811581D0E0FED0E0F815811581153E
:1019430081E8C0E0EEC0E0222518C582C0E0E519B9
:1019530034FFC583C0E0E518C3958224F910AF08AE
:101963008583198582188008858319858218D2AFEB
:10197300CEF0A3E520F0A37808E608F0A3DEFAEFA3
:10198300F0A3E58124FBF8E608F0A3E608F0A3083A
:1019930008E608F0A3E608F0A315811581D0E0FE60
:1019A300D0E0F815811581E8C0E0EEC0E02285198A
:1019B30083851882E0A3FEE0A3F5207808E0A3F670
:1019C30008DFFAE0A3FFE0A3C0E0E0A3C0E0E0A3E8
:1019D300C0E0E0A3C0E0E0A3C0E010AF0885821838
:1019E3008583198008858218858319D2AFD083D067
:1019F3008202011F851983851882E0A3FEE0A3F507
:101A0300207808E0A3F608DFFAE0A3FFE0A3C0E034
:101A1300E0A3C0E0E0A3C0E0E0A3C0E010AF08850E
:101A230082188583198008858218858319D2AFD0DF
:101A330083D08222C0D02518C582C0E0E51934FFC7
:101A4300C583C0E0E518C3958224F310AF088583EE
:101A5300198582188008858319858218D2AFC8F04A
:101A6300A3E9F0A3EAF0A3EBF0A37908E709F0A355
:101A7300D8FAECF0A3EDF0A3EEF0A3EFF0A3D0E0DF
:101A8300F0A3D0E0F0A3D0E0F0A3E520F0A3E5F0CD
:101A9300F0A322851983851882E0C0E0A3E0F9A3AF
:101AA300E0FAA3E0FBA37808E0F608A3DFFAE0FC82
:101AB300A3E0FDA3E0FEA3E0FFA3E0C0E0A3E0C03A
:101AC300E0A3E0F5D0A3E0F520A3E0A3F5F010AF89
:101AD300088583198582188008858319858218D221
:101AE300AFD082D083D0E0F8D0E0327404800674A3
:101AF3000280027401C0E0F4041218A0D0E01217AF
:101B030075227404800474028000CCC0E0EDC0E050
:101B1300E518C39CCCAD1950011D10AF068C188D70
:101B23001980068C188D19D2AF121782D0E0FDD020
:101B3300E0FC22D083D082E9C0E0E493A3C386F023
:101B4300C5F095F0F908E493A386F0C5F095F0701D
:101B53000BE493A3C3994005E9048002A3E475F061
:101B630002A42582F582E5F03583F583D0E0F9E41C
:101B730093A3C0E0E493C0E022D083D082ECC0E022
:101B8300EDC0E0E493A3FCE493A3FDED4C600D12E0
:101B93001BC8EC24FFFCED34FFFD80EFE493A3FCB2
:101BA300E493A3FDED4C600D121C07EC24FFFCED48
:101BB30034FFFD80EFD0E0FDD0E0FCE493A3C0E070
:101BC300E493C0E022C0E0C3E493960874019396C3
:101BD30018400FE493667008087401936618700048
:101BE3007019A3A3C3E49396087401939618A3A34F
:101BF300400DD0E0D0E0D0E0021BB8A3A3A3A3A381
:101C0300A3D0E022C0E0C0F088F0E4936670080837
:101C130074019366187000A8F0A3A3700BD0F0D0E2
:0F1C2300E0D0E0D0E0021BB8A3A3D0F0D0E022C5
:101C340074F612194BEAFEEBFF8C088D09EE24347E
:101C4400F8E43FF9E8FCE9FDEE2435121F47FAEE0B
:101C54002437121F47F88508F0A4C885F00A8509BF
:101C6400F0A4250AF9EA28F8E439F97A257B001268
:101C740017E4EA8C828D83F0FA131313541FF8EEE1
:101C840028F8E43FF9E8245DF582E439F583E0C0FF
:101C9400E074075AF8D0E0B800028004C313D8FCFB
:101CA400A2E0EE50082434F582E43F801824361272
:101CB4001F47F5F0EA84A8F0EE28F8E43FF9E82499
:101CC40038F582E439F583E0F97F030219F774F7F4
:101CD40012194BEAFEEBFFEE2434121F47C0E0EE6C
:101CE4002435F582E43FF583D0E0F08E828F83A320
:101CF400A3A3A3A3A3A3C082C0838E828F83A3A321
:101D0400A3A3A3E0F8A3E0F9D083D082E0C398F5BD
:101D140008A3E099F509EE247F121F476401703E81
:101D2400EE2480F582E43FF583C082C0838E828FE7
:101D340083A3A3A3A3A3E0240108A3E03400F9D060
:101D440083D082E0687003A3E06970127CB97D04DB
:101D5400120C76EE247FF582E43FF583E4F0AC08C0
:101D6400AD09EEFAEFFB121C34E9F912269F7F024B
:101D74000219F7C082C083851882851983E0F8A30D
:101D8400E0F9C3EA9CEB9D5010C3EC98ED99401B1D
:101D9400C3EA98EB995014800EC3EA98EB99400774
:101DA400C3EC98ED994004790180027900D083D086
:101DB4008222EAC39CFAEB9DFB2274EF12194B902A
:101DC400037EE064086005E06407702A9061C8E05F
:101DD40060249003ACE0F4601DE0F875F00BA4C837
:101DE400AAF02AF974AE28FE740339FF8E828F8319
:101DF400A3A3A3E07003021ECC906060E0C0E0EEF9
:101E04002468F582E43FF583D0E0F0750C29750D64
:101E140005750800750900E5D914F50AE5D95403D8
:101E2400F50E60127403650E6043E50A600AEE2441
:101E340067121F4770028075900524E06401601FDB
:101E4400121F4460047A0480027A00E50AC39AFAF5
:101E540095E0FB120B208A088B09EA4509700512EC
:101E64000EA48064121F4470048A0C8B0DE50A6072
:101E740012850C82850D83F50BE5D9F0A3150BE5CE
:101E84000B70F6121F44604474FC250AF50A780CA2
:101E9400121AF2AC0AA90EEEFAEFFB120D3074021C
:101EA400121885E97026AA08AB09121402793D8E2E
:101EB400828F83A3A3A3A3E0FA7B00120982EEFA24
:101EC400EFFB120C9A120D427900806F7403650EB9
:101ED4006051850A107511007810121AF2AC0CAD1D
:101EE4000DAA08AB09120CF47402121885EE2468CA
:101EF400121F4764807004747F8001E0F50C780C35
:101F0400121AF6E50EF50C780C121AF6A90AAC08AA
:101F1400AD099003ACE0FA7B001209587402121860
:101F240085801390037EE06408600BAC0CAD0DEE6D
:101F3400FAEFFB120DBA120EB079017F0A0219F7FB
:101F4400EE2483F582E43FF583E02274F212194B08
:101F540074FC12186FEAFEEBFF8909A2AFE433F5B3
:101F640008C2AF022019E0601B780C121AF2AC0B05
:101F7400A90EEEFAEFFB120D2A74021218857404EE
:101F8400250BF50B7401250BF5D9850ED9E50B60EE
:101F940018F50A850C82850D83E0F5D9A385820C9A
:101FA40085830D150AE50A70EA75E195EE2463F858
:101FB400E43FF97A007B00A2AFE433F50BC2AF88AB
:101FC400828983E0FCA3E0FDEC4D603A888289833A
:101FD400E0FAA3E0FB8A828B83E0FCA3E0FD888225
:101FE4008983ECF0A3EDF08A828B83E4F0A3F0887C
:101FF400828983E0FCA3E0FDEC4D700A888289832A
:10200400A3A3E4F0A3F0E50BA2E092AF12140290B4
:1020140004C0E004F0EE2463121F47F8A3E0F9E8DB
:10202400496064EE2463121F472402F8A3E03400DD
:10203400F988828983E5822402F50CE43583F50D61
:10204400E0F50BA3E0F50EEE2462121F4764017065
:10205400369061D0E0F8121F4460047C0480027C56
:10206400007480C398FA95E0FBE50B2CF8E4340087
:10207400F9E82402F8500109C3EA98EB99A2D26561
:10208400D0334003021F6A9004C0E0604D9004C145
:10209400E0F89004C0E0C398500C74026509703AEB
:1020A4009004C2E060348E828F83A3A3A3A3E0854F
:1020B40018828519831220EE74021218BBE81220CC
:1020C400EE9004BFE028F074021218D5AA18AB19D8
:1020D40079011209AC9004C0E4F0E508A2E092AFE3
:1020E40074041218857F070219F7F0A3E4F0900432
:1020F400C0E0F8228521878522C622C0E074EB1255
:102104001A37A2AFE433F508C2AF759B0090618221
:10211400E0A2E05030E591A2E0502A7591FE7401EE
:1021240065217021122292120DFC122280121B05CD
:102134001224497404121885E964017005790112A6
:102144000E38121DBE906182E0A2E5505DE591A2B9
:10215400E550577591DF90037EE064076005E06405
:1021640008702F12229274016521703E120DFC1228
:102174002280121B051224497404121885E9640193
:1021840070057901120E387901EEFAEFFB121F4F38
:102194008018E0640D70139003A0E004F0642870CC
:1021A40002E4F07A00E0F9120EB6906182E0A2E651
:1021B4004003022255E591A2E6400302225575919F
:1021C400BF90037EE064057008120DE4120DF080E8
:1021D40003120DEA752100120E44E990037FF07991
:1021E40000120E38120BE67A017B0090037DE0F9B1
:1021F4001213D2907803E064427056900528E014DC
:10220400F0704EC2AF12220C00782AD0E0F618D03B
:10221400E0F6E59F5407F87005750DFF8003750D12
:102224007FC4C0E07829E6F50A08E6550DF50B747D
:102234000B780A12184DD0E0250AF8906270E0A2DB
:10224400E740F8E8C333906272F0906270E0D2E045
:10225400F0906181E0A2E35009E5E9A2E35003753F
:10226400E9F7A3E0A2E75009E591A2E750037591CD
:102274007FE508A2E092AF7F08021A968E828F83D0
:10228400E0F8A3E0C82416F582E438F5832290032D
:10229400ACE0F875F00BA4C8AAF02AF974AE28FED5
:1022A400740339FF22C0E0C0D0C082C08390618330
:1022B400E0A2E05009E5BFA2E0500375BFFEE0A232
:1022C400E15009E5BFA2E1500375BFFDE0A2E25071
:1022D40009E5BFA2E2500375BFFBE0A2E35009E5A4
:1022E400BFA2E3500375BFF7E0A2E45009E5BFA223
:1022F400E4500375BFEFE0A2E55009E5BFA2E55045
:102304000375BFDFE0A2E65009E5BFA2E6500375FE
:10231400BFBFD083D082D0D0D0E032C0E074F212FC
:102324001A37E5A7A2E6500FE5A1A2E6500953A784
:10233400BF75A1BF122373E5A7A2E5500CE5A1A2C6
:10234400E5500653A7DF75A1DFE5A7A2E15009E533
:10235400A1A2E1500375A1FDE5A7A2E2500CE5A1FD
:10236400A2E2500653A7FB75A1FB7F01021A9674E3
:10237400F712194B75210190037EE0640670151263
:102384000D668A828B83A3A3A3A3A3A3E0FAA3E08D
:10239400FB120DD2A2AFE433FED2AF900384E0640B
:1023A4000170187A207B0090037DE0F91214F87A0A
:1023B400207B0090037DE0F91213D8906182E0D273
:1023C400E6F0900525E0602185C6228016900383FF
:1023D400E064017008E5C654F84405F5C653BEFC34
:1023E4001220F87401652160E4EEA2E092AF7F024E
:1023F4000219F7008E238F24858228858327851868
:1024040082851983E0CEA3E0CF852882852783EBDC
:10241400C9EAC8EDCBECCA75F010C3E833C8E93398
:10242400C9EA33CAEB33CBC3EA9EF526EB9FF52505
:10243400B35004AB25AA26EC33CCED33CDD5F0DA7A
:10244400AE23AF242274F112194B8A088B098C0A2B
:102454008D0B9081B2780812170D740F1218BB7887
:102464000C1217339081B2780C12170D7808790C7E
:102474001215B590816650107808790C1216E5781B
:10248400081215D54014800E780C79081216E578D8
:102494000C1215D550047901800279007F080219C5
:1024A400F774ED12194B8A088B098C0A8D0B9081F5
:1024B400B2780812170D74131218BB780C12173364
:1024C4009081B2780C12170D780C79081215B5406A
:1024D400117808790C1216E5AA08AB09AC0AAD0B01
:1024E40080227510007511007512007513017810A3
:1024F400790C1216E5781079081216ACAA10AB11F3
:10250400AC12AD137F0C0219F79081B27808121740
:10251400338A828B8378081217207F040219F77498
:10252400F512194B8C828D8378081217338A828BAB
:102534008378081216F912257BC3E09CF0A3E09D72
:1025440012256D402290819A78081217338A828B63
:102554008378081216D28A828B83A3A3A3A3E024D0
:1025640020F0A3E0344EF080A0F088828983C3E099
:102574009420A3E0944E22EA2404F8E43BF98C82EC
:102584008D83A3A3A3A3E0FCA3E0FD888289832217
:1025940074F512194BE9FE9004DBE0FAA3E0FBEEBC
:1025A40029F8E433F974DB28F582748039F583E083
:1025B4002AF508A3E03BF5097808121AF29081A2E3
:1025C4001217511223F874021218858A088B098C89
:1025D4000A8D0B74107808121674AA08AB097F04CC
:1025E4000219F774F112194B8A0C8B0D8C0E8D0F96
:1025F40074111218BB121B0974111218BBE02401C8
:10260400F508A3E03400F509E4F50AF50B780C7934
:10261400081215F49081727808121733780C79082F
:102624001215F4AA0CAB0DAC0EAD0F1223F8740204
:102634001218858B09EA450960047A0180027A0040
:10264400EC2AFCE43DFD74131218BBE0F8A3E0F996
:10265400E8FEE9FFECF8EDF97A717B021217E488E1
:10266400088909E4F50AF50B8E828F83780812171E
:1026740042ECF8EDF97A717B021217E48A088B09AF
:102684007405780812185C8E828F83A3A3A3A3E534
:1026940008F0A3E509F07F080219F7C082C083E9B6
:1026A400906000F0D083D08222C0E0C0D0E8C0E0C7
:1026B400E9C0E0A2AFE433F8D2AFC2C7E8F9E8A2B8
:1026C400E092AFD0E0F9D0E0F8D0D0D0E032C0E072
:1026D40074F2121A37A2AFE433FED2AFE5BAF87936
:1026E4000090086CE8F0A3E9F0A8BB7900E4C8F90D
:1026F40090086CE048F0A3E049F0E5B5540F900869
:102704006BF0900867E0FAA3E0FB900866E0F9122A
:1027140013D2E9EEF8EEA2E092AF7F01021A96C25C
:10272400AF0200002202011FFFFFFFFFFFFFFFFFB8
:10273400C082C083E990165EF0D083D08202011F6C
:1027440074F61218DFE99002F0F0900350E0F508F7
:102754007509007402780812185CAA08AB091214EF
:102764004A9002F11230F79002F11234E4606F9053
:102774000350E075F003A4FAABF012144A90030E70
:102784001230F790030E1234E4700B9002F11234FD
:10279400B5121450804890030E1244497AFF7BFF0F
:1027A40012119E7A0080198A08750900740278084B
:1027B40012185C123EF174FF1228F7E4F0A3F00A39
:1027C400900350E0F8EAC39840DD7905120844907C
:1027D40002F0E0F91207307ACE7B08120AC0023FF9
:1027E4009474F41218DF8A088B09EB5480604790C4
:1027F40002F0E0F91213BA8A0A8B0BAE0AAF0BEEA1
:102804004F602A8E828F83E064B0701A120856E9F2
:1028140060148E828F83A3A3A3A3E0F9EE2405FAA8
:10282400E43FFB120826EEFAEFFB1213A8AA08E510
:10283400096480FB80047A007B00022A4774F21248
:1028440018DF74FB12186FEAFEEBFFEE4F6045745D
:10285400031218BBEEF0A3EFF0851882851983EC00
:10286400F0A3EDF074021218BBE9F0AA18AB191228
:10287400072AE9F508707574131218BBE0F50AA36A
:10288400E0F50BE50A450B60638E828F83122E8080
:10289400EE4F700575080280537A067B0012144AC5
:1028A4008A0C8B0DA80CA90DE849700575081380D6
:1028B4003B88828983E41228F7EEF0A3EF122A13EF
:1028C400E50AF0A3E50BF09002F4122A0C9002F44E
:1028D4006017E0FCA3E08003EAFCEBFD8C828D83AF
:1028E400122A0C70F38C828D83123B0CA908740598
:1028F4000246C9F0A312442BA32274F21218DF89F2
:1029040008890C750D007403780C12185C850C0A88
:10291400850D0B9002F3F09002F1123917122A0A76
:10292400602E1214507900801D890C750D007402FC
:10293400780C12185C9002F1123DB08882F583A3E2
:10294400A3E4F0A3F009900350E0F8E9C39840D958
:10295400900350E0FA850AF0A4CAA8F0850BF0A40D
:1029640028FB12144A8A0C8B0DAE0CAF0DEE4F707F
:1029740003022A00900350E0FC850AF0A4CCA8F0DE
:10298400850BF0A428FD79001213967C0080318D0C
:102994000C750D007403780C12185C8A828B8312F8
:1029A4002A0588828983E4F0122A12A3A3F0A3F0F3
:1029B4000DEDC3950840D8EE250AFEEF350BFF0C4C
:1029C400900350E0F8ECC39850288C0C750D0074FB
:1029D40002780C12185C9002F1122A05E8240250C5
:1029E4000109FAE9FB8A828B83EEF0A3EFF07D0004
:1029F40080BFE5089002F3F0790080027913024663
:102A0400CC123DB4F922A3A31234B9EA4B22A31287
:102A1400442BA3A3A32274F41218DF7900EAA2E0E2
:102A2400501F75084A7509817808121AF279107CCA
:102A3400047D007A607B1612083E7402121885E940
:102A4400F980007F040219B1C082C0839002F4129D
:102A540034E4601C88828983A3A3E06A7003A3E042
:102A64006B8882898370E8A3A3A3A31234B580047E
:102A74007A007B0002273D74F21218DF74FD1218ED
:102A84006FEAFEEBFF851882851983E4F0A3F074E6
:102A9400021218BB7401F01234E170141209FA1214
:102AA400144A9002F71230F71234E17003022C0D2D
:102AB4001231F7EE2404F50AE43FF50B850A82F59A
:102AC40083E024FE603C24FC607424FE607E24FECB
:102AD4007003022B5D24FE7003022B6A24FE700334
:102AE400022B7724FE7003022B8424FE7003022B36
:102AF4009124FC7003022BB224FE7003022BCA0241
:102B04002C061209FA9002F9EAF0A3EB122C19121E
:102B14000472E96003022C069002F9121B098E82EA
:102B24008F83A3A3A3A3A3124449850882850983A1
:102B34001234B512080E7402121885022C06AC1851
:102B4400AD19EEFAEFFB12085C022BD5AC18AD19E7
:102B5400EEFAEFFB1208628078AC18AD19EEFAEFCA
:102B6400FB120868806BAC18AD19EEFAEFFB120883
:102B74006E805EAC18AD19EEFAEFFB12087480514A
:102B8400AC18AD19EEFAEFFB12087A804474021205
:102B940018C5880C890D780C121AF274021218D513
:102BA400EEFAEFFB12088074021218858023AC1829
:102BB400AD19EEFAEFFB120886E9F87016740212EA
:102BC40018BBE4F0803CAC18AD19EEFAEFFB120828
:102BD4008CE9F8E8602C8E828F83A3E06414602271
:102BE400850A82850B83E09002F9F08518828519A5
:102BF400831234B59002FA1230F7E8A3122C19129A
:102C0400046CEEFAEFFB1207E474021218BBE0F94D
:102C140074030246C9F07CF97D0285088285098324
:102C24001234B92274E81218DF74FA12186F74049B
:102C34001218BBECF0A3EDF08A128B13EA2405F50D
:102C44000EE43513F50FEA2402F510E43513F511FB
:102C5400851082F5831234B51205628A0A8B0B75CE
:102C640008007C037D0079007AF97B02121396E553
:102C74000E2402F516E4350FF51774021218C588F0
:102C84000C890D780C121AF2850E82850F83A3A38A
:102C9400A3A3E0F50C750D00780C121AF2E50E24CE
:102CA40005F50CE4350FF50D780C121AF285168231
:102CB4008517831237BC12074874061218858A0CCC
:102CC4008B0DE50C450D7003022E4980208518827A
:102CD400851983E088828983F0050885188285191F
:102CE40083A3E0C0E0122E8AD0E0F00508E50A24B0
:102CF400FBFAE50B34FFFBC3E5089AE49B400302AF
:102D04002E497E007F00851282851383A3A3A3A38B
:102D1400E0F5097809121AF6E4F514F51578141299
:102D24001AF27514F67515027814121AF29002F755
:102D3400121B0974091218BB121B09E50A24F9F9BC
:102D4400AC0CAD0D8510828511831234B51208B612
:102D54007409121885E96003022DEA850E82850F35
:102D640083A3A3A3A3A3A3A3E0F89002F6E068704F
:102D740075E0F5148E157814121AF2124446850E75
:102D840082850F83A3A3A3A3A3A3A3A31234B51281
:102D940013907402121885E9604C9002FA1234E41C
:102DA400703BE4F5147814121AF27CFF7DFF790766
:102DB4008510828511831234B5120820740212180A
:102DC400851234EA7017850E82850F831245E374E9
:102DD400041218BB123EA41237ED022E7D850C821C
:102DE400850D83122E80A818A919881489157814C2
:102DF400121AF274041218BB121B09851682851765
:102E0400831230ED12075474041218858A0C8B0D4A
:102E1400EE4F7003022CC6122E8AEE122E95123734
:102E2400A3EF122E95F8A3E03400F9E50C450D60EC
:102E340003022CD18882898374FFF00508122E8A3C
:102E440074FFF00508E508601A1313543F1230FDAF
:102E540012047EE960099002FA1234B51214027960
:102E6400008016850E82850F831245E374041218C0
:102E7400BB123EA4123B0C790A023776A3A3A3A388
:102E8400E0FEA3E0FF22A8089002FAE0281237A38C
:102E940022F00508089002FAE0282274E81218DFEC
:102EA40074FA12186F74021218BB1230F7740412F9
:102EB40018BBECF0A3EDF074021218BBE024051269
:102EC400378CE0F50CA3E0F50D74021218BBE02476
:102ED40002F510A3E03400F511851082F583123455
:102EE400B5120562750800750900EA24FCFEEB348E
:102EF400FFFF8008050CE50C7002050DA808C3EE61
:102F040098EF940050030230A9A818A919880E89D3
:102F14000F780E121AF2851482851583A3A3A3A336
:102F240012444D121AF2E5142405F50EE43515F594
:102F34000F780E121AF28514828515831230EB1263
:102F4400074874061218858A0E8B0FEA450F700322
:102F54000230A9EA2404F516E4350FF51785168224
:102F6400F583E0F50CA3E0F50D851882851983122D
:102F740044498A828B83A3A3A3E0F9851082851137
:102F8400831234B5120736E9F50960030230A974D7
:102F9400021218BB1237B3F5097809121AF6E4F5D0
:102FA40012F5137812121AF27512F67513027812CA
:102FB400121AF29002F7121B0974071218BB121BA3
:102FC40009EEF9AC0EAD0F8510828511831234B56C
:102FD4001208B67409121885E9F50960030230A9CC
:102FE400E508703FE4F50EF50F780E121AF27CFF37
:102FF4007DFF79098510828511831234B51208206A
:1030040074021218851237D9700D74041218BB1289
:1030140030E079110230DD9002F6E024029002FAE9
:10302400F080149002FAE0FA9002F6E079002402AB
:103034005001096A497072A8089002F6E0FAE82A79
:10304400FAE43400FBEE9AEF9B405A85168285170A
:1030540083E0C0E09002FB122E8FD0E0F0050885DB
:103064001682851783A3E0C0E0089002FB122E8F1E
:10307400D0E0F005089002F612444D121AF2124400
:1030840046A80812378012137E7402121885900223
:10309400F6E02508F50874FF650C700474FF650DEF
:1030A4006003022EF8E508601F9002FAE0F5F0E5EF
:1030B40008841230FD120484E960099002FB123482
:1030C400B512140279008011E509700375090A74B8
:1030D400041218BB1230E0A90902377612391BE535
:1030E4000CF0A3E50DF022A3A31246D8AA0CAB0D55
:1030F40022A3A3EAF0A3EBF0229002F9F07CF97D7D
:10310400028510828511831234B92274EC1218DFFF
:1031140074FC12186F123C1C74021218D51234AFCE
:1031240012074E8A0C8B0DEA450D70030231E7122B
:1031340031F7A818A919881089117810121AF27C8D
:10314400FF7DFF790B8508828509831234B5120847
:103154002074021218851232ED700C850A82850BD8
:10316400831237EA0231F48E828F83A3A3A3A3E0F0
:10317400F5127812121AF6E4F512F5137812121AEF
:10318400F27512F97513027812121AF27810121AE3
:10319400F274091218BB121B0974091218BBE0F966
:1031A400AC0CAD0D8508828509831234B51208B6BE
:1031B4007409121885E9FE70157CF97D0285088270
:1031C4008509831234B512048AE9700980207416C3
:1031D4006E70027E009002FA1234B5121402EE7080
:1031E40004800B7E01850A82850B83123B09EEF96C
:1031F400023B1EEE2402F508E43FF5092274EC12AA
:1032040018DF74FC12186FEAFEEBFF8C0E8D0FEEC4
:103214002405F508E43FF50974021218D5850882DF
:103224008509831234B512074E8A0C8B0DEA450DBD
:1032340070030232DDEE2402F50AE43FF50BA81810
:10324400A919881089117810121AF27CFF7DFF7970
:103254000D1234AF12082074021218851232ED7068
:103264000B8508828509831237EA807A8E828F83E0
:10327400A3A3A3A3E0F5127812121AF68508828597
:103284000983A3A3121B097512F97513027812128C
:103294001AF27810121AF274091218BB121B09746C
:1032A400091218BBE0F91234AB1208B674091218EB
:1032B40085E9FE700F7CF97D021234AF120490E9A7
:1032C4007009802074166E70027E009002FA123427
:1032D400B5121402EE7004800B7E01850882850904
:1032E40083123B09EEF9023B1E1234F4F510A3E0FD
:1032F400F511EA45112274E81218DF74FE12186FF2
:103304008A168B178C148D15EA2405F50CE43517F1
:10331400F50DEA2402F50EE43517F50F850E82F556
:10332400831234B51205628A088B09750B007C037D
:103334007D0079007AF97B02121396750A00E5087C
:1033440014F5100424FFF508E50934FFF509805449
:103354009002F9E0FA9002F6E0F8EA28F8E4340082
:10336400F9E50898E50999500D9002F9E0F8E5109F
:10337400C3989002F6F0E0F5127513007812121A51
:10338400F21244469002FAE02AFAA3E03400FB1257
:10339400137E74021218859002F6E0F89002F9E0A8
:1033A40028F0050A850C82850D83A3A3123DC04035
:1033B400030234909002F9E0C39508E495094003B0
:1033C400023490AE0AEE2EFEE433FF1234CFAC1872
:1033D400AD19124461E439FB12074E8A128B13AC07
:1033E40012AD13EC4D701B750B011234BF123B0D63
:1033F4009002FA122A0C6003121402A90B7402023E
:103404003778851682851783A3A3A3A3E0F50B78E9
:103414000B121AF6E4F512F5137812121AF2751259
:10342400F67513027812121AF29002F7121B09743D
:10343400071218BB121B09A910850E82850F83126F
:1034440034B51208B67409121885E9F50B709B900F
:1034540002FA1234E46003023354E4F512F51378EB
:1034640012121AF27CFF7DFF790F850E82850F837D
:103474001234B512082074021218851234EA60035B
:103484000233541234BF1237EE0234017CF97D0248
:10349400850E82850F831234B5120496E960030207
:1034A40033F47900023401AC0CAD0D850A82850B2E
:1034B400831234B922E0FAA3E0FB221234CFE0FAFB
:1034C400A3E0F9EA85148285158322850C82850D93
:1034D40083E02EF8A3E03FF988828983229002F7E3
:1034E4001245E7E849221234F4F8A3E0F9E8492246
:1034F4009002FAEAF0A3EBF09002FAE02274E812E8
:1035040018DF74FA12186F74041218BB1230F78C97
:10351400168D1774041218BBE02405F50EA3E034CD
:1035240000F50F74041218BBE0240212378C123415
:10353400B51205628A0A8B0B7F007E00A818A919B0
:10354400880889097808121AF2850E82850F83A3E8
:10355400A3A3A3E0F5088E097808121AF2E50E2455
:1035640005F508E4350FF5097808121AF2850E827C
:10357400850F83A3A31237BC12074874061218855B
:103584008A0C8B0D80291237ADF00F1237ADF00F76
:103594009002F6123AF8121AF2124446EFF8123771
:1035A4008012137E74021218859002F6E02FFFE554
:1035B4000C450D700302363C851882851983123C34
:1035C4002EA3A3A3E0F98514828515831234B512C2
:1035D4000736E9FEE50C2404F510E4350DF511EE8B
:1035E400705074041218BB1237B3F5087808121A15
:1035F400F6E4F508F5097808121AF27508F6750963
:10360400027808121AF29002F7121B0974071218B2
:10361400BB121B09E50A24FAF9AC0CAD0D85148222
:103624008515831234B51208B67409121885E9FE9B
:1036340060391237C9123B0CEF70030237639002F2
:10364400FAE0F5F0EF849002F9F07CF97D0285143C
:10365400828515831234B512049CE960099002FB3B
:103664001234B512140279000237768F08EF703BDA
:10367400E4F512F5137812121AF27CFF7DFF79112A
:103684008514828515831234B51208207402121829
:10369400851237D970091237C91237ED023776907F
:1036A40002F6E024049002FAF080359002F6E0F885
:1036B4009002FAE0FAE82404FCE43400FDEC6A4DDC
:1036C4006003023642E50A24FAFAE50B34FFFBE50F
:1036D4000828F8E43400F9EA98EB995003023642DA
:1036E400851082851183E0C0E09002FBE02FF8A3EF
:1036F400E034008882F583D0E0F00F8510828511D4
:1037040083A3E0C0E012379AD0E0F00F74021218DD
:10371400C5880889097808121AF274021218BB12B3
:103724001B09850E82850F831230EB120754740433
:103734001218858A0C8B0DEA450D700302358A74C4
:10374400021218BBE0C0E012379AD0E0F00F740206
:103754001218BBA3E0C0E012379AD0E0023592EE13
:1037640070027E0A850E82850F831237CF123B0CBE
:10377400EEF974061218857F100219B19002FBE06D
:1037840028FAA3E03400FB22F514A3E03400F51575
:10379400851482F5832212379E229002FBE02FFAD1
:1037A400A3E034008A82F5832212379E74FF22122A
:1037B400391BA3A3A3A3E0221246D8850E82850F4A
:1037C400831234B9228510828511831245E7851648
:1037D40082851783229002FBEAF0A3EBF09002FBB0
:1037E4001245E7E84922123B12E8F0A3E9F0791107
:1037F4002274EA1218DF74FE12186F8A088B098C7F
:10380400128D13EA2405FEE43509FFAC18AD198EB8
:10381400828F831234B512074E8A0C8B0DEE240668
:10382400F50EE43FF50FEA450D70030238EDE508A7
:103834002402F50AE43509F50B8A828B83A3A3A33A
:10384400E0A2E550288518828519831234B5120840
:10385400AA8A108B11EA4511602079121234AB85C3
:1038640010828511831218DDE9F50C707F850E82B4
:10387400850F83E0600979528011750C0E806D8587
:103884000882850983A3A3A3A3E0F9E4F508F50955
:103894007808121AF28E828F83A3A3E0F5087808C1
:1038A400121AF28E828F83A3A3A3121B098E828F16
:1038B400831244491234AF1208BC7406121885E905
:1038C400F50C7011850E82850F83E0702D1234AFD4
:1038D4001204A280257416650C7011750C007418FE
:1038E4001218BB123917E48010750C011245DF85DC
:1038F4001282851383E8F0A3E9F0850E82850F8395
:10390400E0600479008002A90C74021218857F0E0D
:103914000219B112391B22E0F8A3E0F58388822250
:1039240074EC1218DF74F712186F8A0A8B0B8C1060
:103934008D11EA2405FEE4350BFF750C00AC18ADBF
:10394400198E828F831234B512074E8A088B09EAC6
:1039540045097003023AE3E50A2402F50A50020518
:103964000B8A828B83A3A3A3E0A2E5502F85188240
:103974008519831234B51208AA8A0C8B0DEA450DF9
:10398400604F7912AC08AD091234AF850C82850DF5
:10399400831218DDE9F50C6003023AE6850A828594
:1039A4000B83E0F508A3E0F509AA08FB12089EEAD8
:1039B4004B70197AFF7BFF12089EEA4B7003023AA0
:1039C400D98A828B83E508F0A3E509F075080080A5
:1039D40008750C0E023AE605089002F3E0F8E508D3
:1039E400C3984003023AD985080E750F0074037812
:1039F4000E12185C8A828B83A3A3E0250EF8A3E041
:103A0400350F123EAD70D08E828F83123B0112307F
:103A1400F78E828F83A3A3123B011230F5EE2404A8
:103A2400F508E43FF509850882F583E088828983F7
:103A3400A3A3A3A3F0A3E4F0EE2405F50EE43FF55D
:103A44000F850E82F583123B01A3A3A3A31230F5C5
:103A54007512077513007812121AF2EEFCEFFD745A
:103A6400041218CD12137E7402121885E4F512782C
:103A740012121AF2850882850983E0FC7D00791709
:103A84001234AF120820740212188574071218BB7E
:103A94001230F774071218BBE0FA4B603D850882B8
:103AA400850983123AF8121AF2850E82850F831261
:103AB400444912137E740212188574021218D51226
:103AC40034AF1204A8E9602674071218BB1234B587
:103AD4001214028019750C098008750C1180037585
:103AE4000C011245DF851082851183123B0CA90C51
:103AF40074098028E0F5087509007808221234B9A1
:103B04008882898322123B12E8F0A3E9F022E0F8CC
:103B1400A3E0F9850E82850F832274041218857F31
:103B24000C0219B174EC1218DF123C1C751000EE73
:103B34002402F50CE43FF50D850C82F5831234B5AF
:103B440012089E8A088B09EA45097003023C008525
:103B54000A82850B83E064016003023BF5AC08AD87
:103B640009AA0AAB0B120892E9606E8508828509DE
:103B740083122E82EE2406F50AE43FF50B8E828F23
:103B840083A3A3121B098E828F83A3A3A3A3121B57
:103B940009850A82850B83121B0979188E828F830B
:103BA400123C2E1234B51208BC7406121885E9F8BA
:103BB400741668700B850A82850B83E4F0A3801465
:103BC400E860128E828F831234B5850E82850F834E
:103BD400EAF0A3EBF088108018780E121AF2AC0801
:103BE400AD09EEFAEFFB1208987402121885E9F594
:103BF40010AA08AB091208A4E510700E850C828582
:103C04000D831234B51204AE800974166510700366
:103C1400751000A910023B23EAFEEBFF8C0E8D0FFA
:103C2400EE2405F50AE43FF50B221246D8850C82F2
:103C3400850D832274EA1218DF7508007509007E69
:103C4400007F00750A00EC2402F510E43DF51180B4
:103C540035EC65087003ED65096003023CED88826C
:103C64008983A3A3E06A7003A3E06B707C888289D4
:103C740083A3A3A3A31245E3EE28FEEF39FFEA28AA
:103C8400FAEB39FB050A123DBD503A850A0C750D55
:103C9400007403780C12185C851082851183123D20
:103CA400B0123EAD601FE508450970A58C088D096A
:103CB40088828983122E8088828983A3A3E02EFAC6
:103CC400A3E03F80BEE50AC394025003023DAB75F6
:103CD4000800750900EE4F6010EEFAEFFB1213FCBA
:103CE4008A0E8B0FEA450F70057900023DAD750B06
:103CF40000023D80850B0C750D007403780C1218BE
:103D04005C851082851183E0250CF50CA3E0350D4C
:103D1400F50DE50C2406F514E4350DF5158514822E
:103D2400F583123EB26042E50C2404F512E4350D2D
:103D3400F513851282F583121B09E50E2508FAE5B1
:103D44000F3509FB12137E740212188585128285C1
:103D54001383E02508F508A3E03509F509851482E5
:103D64008515831234B5121402E50B600D7C087DB1
:103D7400007900AA0CAB0D121396050BE50BC39545
:103D84000A5003023CF88510828511831245E388AA
:103D9400828983A3A3A3A3A3A3E50EF0A3E50F1233
:103DA4002A13EEF0A3EFF07901023912123DB42286
:103DB400E0250CF8A3E0350D229002F3E0F8E50AC3
:103DC400C3982274F01218DF8A0E8B0F8C0A8D0BA5
:103DD400750D00750C0080507916EE2406F508E484
:103DE4003FF5098E828F83A3A3121B098E828F83D2
:103DF400A3A3A3A3121B09850882850983121B09A7
:103E0400850E82850F83A3A31234B51208BC7406F1
:103E1400121885E9F50D7416650D706C8508828598
:103E24000983E4F0A3F0050C9002F3E0F8E50CC379
:103E3400985066AA0C8A0875090074037808121849
:103E44005C850A82850B83A3A3123EFCE8FEE9FF8E
:103E54008E828F83123EB26040EA2401F508E43476
:103E640000F5099002F3E065087002E50960148822
:103E7400828983A3A3A3A3A3A3A3A31234E460030B
:103E8400023DDC7918023DDEE9609B1245DF7410C7
:103E94001218BB123EA4123B0CA90D7F080219B1E3
:103EA400E0FAA3E0F5838A8222F9888289831246A4
:103EB400D8EC4D2274F61218DF7C0080010C9003BC
:103EC40050E0F8ECC398501E8C0875090074027811
:103ED4000812185C123EF1E06A7003A3E06B70DD17
:103EE400E8FAE9FB80047A007B00023F949002F137
:103EF400123EFC8882898322E02508F8A3E0350974
:103F0400F92274F21218DF8A088B09750A008027D7
:103F14008E828F83A3A3A3A3122A0A60031214021E
:103F24007C087D007900EEFAEFFB1213968E828FE7
:103F340083E4F0A3F0050A123DBD5027850A0C75F1
:103F44000D007403780C12185C850882850983A31C
:103F5400A3E0250CFEA3E0350DFF8E828F8312347F
:103F6400E470AD85088285098374FFF0A3F00246EE
:103F7400CC74F61218DF1208508A828B83E58245CE
:103F84008370067A007B008007A3A3A3A31234B531
:103F94007F020219B174F41218DF89088C828D83B0
:103FA400E06402703C124582FEA3E0F9EEF874026C
:103FB4006870037429697029750A02750B00780A00
:103FC400121AF274101218BB121B0974101218BBC7
:103FD400121B09A9081211B07406121885E9F98098
:103FE400027901022A4774E81218DF74FB12186F71
:103FF400E9851882851983F08A168B17ECFEEDFF8C
:104004007510008E828F83A3A3A3E0A2E4502D74C5
:104014001D1218BB1234B51208AA8A828B83E5825A
:1040240045837003024421790AEEFCEFFDAA16AB26
:10403400171218DDE9F5106003024424741F1218E6
:10404400BBE0F508A3E0F50974211218BBE0F50AFA
:10405400A3E0F50B74231218BBE0F50EA3E0F50FF3
:104064008E828F83E0640260030243C2A31245E39D
:10407400850882850983A3858212858313EE24062D
:10408400F50CE43FF50D88828983124461F514E44C
:1040940039F5157814121B7C010000280128C4404E
:1040A4000700022889410328F7400029B842012962
:1040B400E342022984420329B84204295C43C243EF
:1040C400E50E450F60030243BD850C82850D831206
:1040D40045E3E8FAE9FB8A828B83E0850A82850B53
:1040E4008312446C121AF28A828B83A3E0FCA3E04D
:1040F400024346E50E450F60030243BD850A8285EF
:104104000B837401F0124456850882850983F07C80
:10411400007D008E828F83A3A3A3A3E02401FAA3CE
:10412400E03400FB12074EEA4B60408A828B83E046
:104134002402F8850A82850B83E028F0EA2404F837
:10414400E43BF988828983E08512828513831244D3
:104154007A12446C121AF28A828B83A3124449E5C0
:10416400082403FAE43509FB02434B850A82850BD4
:1041740083E02404F07C047D007900AA12AB1312BE
:104184001396024424E50E450F60030243BD124416
:1041940056FEA3E0FF850A82850B837404F0EE8546
:1041A4000882850983F0EF851282851383F07403F6
:1041B4001218D5EEFAEFFB12074E8A0C8B0DEA4566
:1041C4000D70030242678A828B83A3A3122E80742C
:1041D400011218C5880E890F780E121AF27405128E
:1041E40018BB121B097CFF7DFF12075474041218BC
:1041F400858B0FEA450F7033850C82850D8312443D
:104204004D121AF2850C82850D83A3121B097C02C0
:104214007D007AD77B811205507404121885E970E9
:104224000A74011218BB74FFF0A3F08E828F83E02E
:1042340064027039750C02750D00780C121AF28E36
:10424400828F83A3124449E5082404FAE43509FB68
:1042540012137E7402121885850A82850B83E0246A
:1042640002800974011218BBEEF0A3EFF07401127E
:1042740018BB12443B74011218BB1244320243B7F8
:10428400E50E450F60030243BD850C82850D831244
:1042940046D1AA16AB171211B6850A82850B837410
:1042A40002F0850882850983EAF0851282851383EA
:1042B400EB0243BAE50E450F60030243BD124456B8
:1042C400F8A3E0F9850A82850B837402F0E8850877
:1042D40082850983F0E98512828513830243BA85B6
:1042E4000C82850D831234B5121378EAFAF8C3955B
:1042F4000EE4950F405CE8650E450F70047A00806B
:1043040021851882851983E0FCE50E2CFCE4350F29
:10431400FDC3EC98ED94005003E08005E50ECAC39C
:104324009AFAEA850A82850B83F08A0A750B00786B
:104334000A121AF2850C82850D83E0250EFCA3E097
:10434400350FFDAA08AB0912137E740212188502F8
:104354004424751007024424E50E450F705B850C58
:1043640082850D831245E3850A82850B837407F0E9
:104374008882898312443312442BE0851282851388
:1043840083F0E82402FAE439FB8A828B8312443BEB
:104394008A828B83124432A3A3122A12124440F05D
:1043A400E82405F850010988828983124440A31245
:1043B400447AA3A3A3A3F0806775100B8062741DD5
:1043C4001218BB1234B51208508A828B83E58245D9
:1043D40083604A1245E3880C890DE8450D603E74FC
:1043E400251218BBE0F5107810121AF6780E121A7E
:1043F400F2780A121AF27808121AF274071218BB29
:10440400E0F9EEFCEFFDAA16AB17850C82850D834F
:104414001218DD7407121885E9F510800375100E63
:10442400A9107405023778F088828983A322A3E057
:1044340085088285098322124481F022124481A3D3
:10444400A3229002F71246D822E0F50E750F0078E9
:104454000E22850C82850D8312391BE022E0FAA31B
:10446400E0F8E4C8F9EA2822F08A828B83E0F50AAE
:10447400750B00780A2212442B12448122E085082D
:1044840082850983A3A32274EE1218DF74FE121826
:104494006F8A088B09ECFEEDFF890AAC18AD19EEA2
:1044A400FAEFFB12074E8A0C8B0DEA450D700302DE
:1044B40045738518828519831234B51208508A828F
:1044C4008B83E5824583700302456EA3A31245E303
:1044D400880E890FE8450F700302456E7414121894
:1044E400BBE0F510A3E0F511E50AF50B780B121A01
:1044F400F674191218BB121B097810121AF2741BE5
:104504001218BBE0F9AC0CAD0DAA08AB09850E82FC
:10451400850F831218DD7405121885E9F50B7052A6
:1045240074FE650A604C850C82850D83E06402701C
:1045340041124582FAA3E0F9EAF874026870037440
:104544002969702E851082851183124461F50CE46B
:1045540039F50D780C121AF2EEFCEFFDAA08AB093E
:104564001208D474021218858008750B0E80037526
:104574000B01A90B74021218857F0A0219B1A31248
:1045840045E788828983E02274F61218DF74FE12EC
:10459400186F740C1218BB1245E3E885188285194C
:1045A40083F074011218BBE9F0E4F508F509780802
:1045B400121AF27508027808121AF274041218C555
:1045C400880889097808121AF279FE1208BC740660
:1045D4001218857402121885023F948E828F8312FA
:1045E40045E722E0F8A3E0F92274F71218DFEAFEA7
:1045F400EBFF890890030E1244491211B6EA5402E3
:10460400600BA908EEFAEFFB120742800279017FE2
:10461400010219B174F21218DF74FE12186FEAFE67
:10462400EBFF890A7401650A60147402650A600369
:104634000246C77901120ADEE960030246C7EEFAB0
:10464400EFFB12089EEA4B60031208A4A818A919EC
:10465400880889097808121AF27508027509007821
:1046640008121AF27508DD7509817808121AF27CAD
:10467400FF7DFF7A017B00120748740612188580BB
:1046840038850882850983A3A3A3A3A3A31246D1D3
:10469400EEFAEFFB12119EE4F50CF50D780C121AEC
:1046A400F274021218BB121B097CFF7DFFAA08AB2F
:1046B4000912075474041218858A088B09E5084501
:1046C4000970BE74021218857F060219B112391BD3
:1046D4001246D822E0FCA3E0FD2274F41218DF8A0B
:1046E400088B09ECFEEDFF90165EE0F4604B7A094E
:1046F4007B001213A2EA4B60408A828B8374B1F070
:10470400A3E4124740F08A828B83A3A3E508F0A3B5
:10471400E509124740A3EEF0A3EFF0740C1218BBA6
:104724001245E38A828B83A3A3A3A3A3A3A3123B6F
:104734000C90165EE0F91213AE022A47F08A828BBF
:1047440083A3A3A3A32274EE1218DF74FA12186FC2
:104754008A0A8B0BE9FF8C088D097E00850A0C857B
:104764000B0D780C121B36000410264A9247B547ED
:10477400D447F7471A483D486E489148A848D84856
:104784008749AA49CD49FB49264A264A0149740169
:104794006F7019850882850983E0C39403500D85E1
:1047A4000882850983E090174AF080027E18024A45
:1047B4004E74026F7015850882850983E0F8A3E0C2
:1047C400F990174BE8F0A3E9F080027E18024A4EF4
:1047D40074016F7019850882850983E0C3940250BF
:1047E4000D850882850983E0900751F080027E18C8
:1047F400024A4E74016F7019850882850983E0C3EB
:104804009405500D850882850983E0900752F08055
:10481400027E18024A4E74016F7019850882850958
:1048240083E0C39402500D850882850983E09007D4
:1048340053F080027E18024A4E74106F7027750C74
:1048440010750D00780C121AF2AC08AD097A547B7D
:104854000712137E74021218858A0C8B0D850C8244
:10486400850D8380027E18024A4E74016F7019858B
:104874000882850983E0C39402500D850882850966
:1048840083E0900764F080027E18024A4E74016F40
:10489400700D850882850983E090174EF080027EB2
:1048A40018024A4E74046F70269081A2780C121775
:1048B40033850882850983780C1215C55011850843
:1048C4008285098312175D90076612176980027E3C
:1048D40018024A4EEF70211206E8E97013121144CF
:1048E400E9F50D79501214CEE9F50C121132800A53
:1048F4009007F97401F080027E18024A4E74076F23
:10490400707C750E06750F00780E121AF2850882F7
:10491400850983A3AC82AD8374021218CD1213846B
:1049240074021218858A108B1185100E85110F7C64
:10493400007D00AA18AB19850882850983E0F91265
:1049440010D8E9F50CE50CC3940A502E1206E8E9D8
:104954007015A90C12114AE9F50E79501214CEE91A
:10496400F50D1211328019A80C790074FA28F58219
:10497400740739F5837401F080067E0280027E1884
:10498400024A4E74016F7019850882850983E0C359
:104994009402500D850882850983E0900765F080B4
:1049A400027E18024A4E74016F70198508828509C7
:1049B40083E0C3940A500D850882850983E090172B
:1049C4004DF080027E18024A4E74016F70258508EE
:1049D40082850983E0C39407401985088285098389
:1049E400E0C39411500D850882850983E090174F28
:1049F400F080577E18805374016F70229007F8E09E
:104A0400F50C850882850983E09007F8F0E50C70C1
:104A1400399007F8E064017031121132802C7E184D
:104A24008028C3E50A9427E50B9400501B74026F99
:104A34007016850882850983E0FCA3E0FDAA0AAB11
:104A44000B120568E9FE80027E02EEF97406121864
:104A5400857F0A0219B174EC1218DF74DA12186F28
:104A6400890D8A128B138C0A8D0B743A1218BBE0D1
:104A7400F50C908132AC18AD197406121782AC187B
:104A8400AD19AA12AB13A90D1210D8E9FEEEC39406
:104A94000A4003024BCEEEF9121114E9FF90174AB3
:104AA400E064027004740180027400F5087808124E
:104AB4001AF6AD0CEFFCEEF9AA0AAB0B12118674D0
:104AC400011218857C147D00790074121218CD121D
:104AD40013968A0E8B0F850E08850F09741212180F
:104AE400D57A1075F006EEA42424F91214C8E970DE
:104AF4003C7C1079FF74121218CD1213F6E9702D54
:104B040074221218BBAC82AD837A0475F006EEA44D
:104B14002425F91214C8E9F50874121218D5EFA265
:104B2400E0E433F9AA0AAB0B1205F2E9F8740612B1
:104B340018D57A0C74702EF91214C8E970797406B9
:104B44001218CD121108750E00E50EC394045067B7
:104B5400A80E7900E875F003A4C8AAF075F000A4C3
:104B64002AFA75F003E9A42AF974061218BBE5823F
:104B740028F508E58339F509850882850983E0F875
:104B8400A3E0F9E849602C850882850983A3A3E0A2
:104B9400F5107511007810121AF2850882850983C0
:104BA400E0FCA3E0FDAA0AAB0B1208C274021218BF
:104BB40085E9F8050E8092EFA2E1500E900750E0CF
:104BC400F9AA0AAB0B1208C8E9F87404650C700F53
:104BD40090174AE064027007AA0AAB0B121180799D
:104BE4000074261218857F0C0219B174F71218DFAD
:104BF400EAFEEBFF1206E8E970679007F9E064014A
:104C0400701B121144E9F5089007F97400F07C0A4E
:104C14007D0079007AFA7B071213968039750800B3
:104C2400E508C3940A502FA808790074FA28F5827D
:104C3400740739F583E064017018A90812114AE970
:104C4400FAA808790074FA28F582740739F5837490
:104C540000F0050880CA79501214CEE9F508121143
:104C6400327F010219B174F21218DF890BEAFEEBEC
:104C7400FF8C088D09750A0AE50B600C1460091491
:104C84006044146064024D0FEEFAEFFB121126E942
:104C9400F50AE50AC3940A5072E5084509606C7583
:104CA4000C06750D00780C121AF2EEFCEFFDAA0842
:104CB400AB0912137E74021218858A0C8B0D850CB5
:104CC40082850D838045EEFAEFFB121120E9F50A87
:104CD400E50AC3940A5034E5084509602EAA08ABD6
:104CE40009A90A12111AE98022EEFAEFFB12112C1B
:104CF400E9F50AE50AC3940A5011E5084509600B71
:104D0400AA08AB09A90A12111AE9F8A90A7F06022E
:104D140019B174F21218DF8A0C8B0DE9FF7E157439
:104D2400FF650C700474FF650D702A750800E508B2
:104D3400C3940A5014EFFC7A027B00A9081210F6FF
:104D4400E960027E00050880E5EF60627A6E7B11FF
:104D5400120B028059AA0CAB0D120AD28A0A8B0BD1
:104D6400850A08850B09E508450960407C007D003B
:104D7400E5082405FAE43509FB850882850983A33F
:104D8400A3A3A3E0F91210D8E9F50AE50AC3940A2B
:104D9400500EEFFC7A027B00A90A1210F6E97E009D
:104DA400EF600BAA08AB0912116E80027E14EEF9B3
:104DB4007F060219B174EE1218DF8A0E8B0F8C0A6B
:104DC4008D0B74121218BBE0F50CA3E0F50D7508F9
:104DD4001574FF650E700474FF650F701E7E00EE7F
:104DE400C3940A5061AC0CAD0DAA0AAB0BEEF912D8
:104DF40010FCE960037508000E80E4AA0EAB0F12E4
:104E04000AD28A108B11AE10AF11EE4F60357C00C0
:104E14007D00EE2405FAE43FFB8E828F83A3A3A3D7
:104E2400A3E0F91210D8E9F509E509C3940A50166C
:104E3400AC0CAD0DAA0AAB0BA9091210FCE975085C
:104E4400008003750814A9087F0A0219B174F712C7
:104E540018DFEAFEEBFF90076AEEF0A3EFF090078D
:104E640050E0FC7D007A267B00120568E9F5089085
:104E74000750E0F912082C7F010219B174F01218DE
:104E8400DF74EC12186F8A0C8B0D850C82850D83F0
:104E9400A3A3E024FA70030252F924FD7003025123
:104EA4006E147003024F7014601024FD70030251DD
:104EB400161470030251AD02530CAE0CAF0D9007E3
:104EC4006AE0F8A3E0F9E849606690076AE0F8A3AD
:104ED400E0F5838882E0F8A3E0F9E8496052EE2423
:104EE4000CF582E43FF583E0F5087808121AF6EE33
:104EF400240BF582E43FF583E0F98E828F83A3A32C
:104F0400A3A3A3A3A3A3A3E0FCA3E0FDEE2403FABD
:104F1400E43FFB90076AE0F8A3E0F5838882E0F8B9
:104F2400A3E0F58388821218DD7401121885803994
:104F34008E828F83A3A3A3A3A3A3A3A3A3121B095A
:104F44009007661217511206047402121885E9605C
:104F54001879018E828F83A3A3A3A3A3A3A3A3A3DE
:104F6400E0FAA3E0FB1205FEE902530CAE0CAF0D10
:104F74007508008E828F83A3E060030250988E82AE
:104F84008F83A3A3A3A3A3E0A2E0400302509890BD
:104F94000804E0F8A3E0F9E84960030250987C0EA5
:104FA4007D007900AA18AB191213968A0A8B0BAAF2
:104FB4000AAB0BEE240CF582E43FF583E0F8A3E0A2
:104FC400F9E8496036750A06750B00780A121AF278
:104FD400EE240CF582E43FF583E02410FCA3E034D6
:104FE40000FD74021218CD12137E74021218858A01
:104FF4000A8B0B850A82850B83804F8E828F83A355
:10500400A3A3E0FAA3E0FB120AD28A0E8B0F850E4B
:105014000A850F0BE50A450B602D750E06750F000A
:10502400780E121AF2E50A2405FCE4350BFD74022D
:105034001218CD12137E74021218858A0E8B0F85F6
:105044000E82850F83800302530C8E828F83A3A369
:10505400A3A3A3E0A2E25004D2F08002C2F0A2F023
:10506400E433F87900740C1218BBE048F0A3E0496B
:10507400F0EEFCEFFDAA18AB1912110EE970127ACA
:10508400027B00900750E0F91213D2E97900025331
:105094000E75081590076AE0F8A3E0F9E849606F17
:1050A40090076AE0F8A3E0F5838882A3A3E0F8A35D
:1050B400E0F9E84960598E828F83A3E0FC79018E80
:1050C400828F83A3A3A3E0FAA3E0FB90076AE0F82E
:1050D400A3E0F5838882A3A3E0F8A3E0F5838882A4
:1050E4001218DDE5086028AC0879038E828F83A34B
:1050F400A3A3E0FAA3E0FB90076AE0F8A3E0F5833A
:105104008882A3A3E0F8A3E0F58388821218DD0265
:10511400530CAE0CAF0D90076AE0F8A3E0F9E84930
:10512400604590076AE0F8A3E0F5838882A3A3E0D2
:10513400F8A3E0F9E849602F850C82850D83A3E08C
:10514400FC79028E828F83A3A3A3E0FAA3E0FB90F1
:10515400076AE0F8A3E0F5838882A3A3E0F8A3E05C
:10516400F58388821218DD02530CAE0CAF0D7C005F
:105174007D00EE2404FAE43FFB8E828F83A3A3A375
:10518400E0F91210D8E9F508E508C3940A5017EEBF
:10519400240AFCE43FFD7A0475F006E508A42425FE
:1051A400F91214C2E9F802530CAE0CAF0D90076566
:1051B400E0601990174DE0F98E828F83A3A3A3E0DA
:1051C400FAA3E0FB1205FEE9F802530C90174AE03B
:1051D400701679058E828F83A3A3A3E0FAA3E0FB64
:1051E4001205FEE9F802530C8E828F83A3A3A3E079
:1051F400FAA3E0FB120AD28A0A8B0B850A08850BF4
:1052040009E5084509700302530C8E828F83A3A31A
:10521400A3A3A3A3A3E0A2E0506D8508828509831C
:10522400A3A3A3A3E060608E828F83A3A3A3A3A3FD
:10523400A3A3A3A3E0F50AA3E0F50B7409780A126B
:10524400184DE50A5401F8E50B5400F9E8A2E040D2
:1052540036740E1218D5E5082405FAE43509FB85E1
:105264000882850983A3A3A3A3E0F91210D8E970E7
:105274001679038E828F83A3A3A3E0FAA3E0FB1223
:1052840005FEE9F802530CEE2405FCE43FFD850815
:1052940082850983A3A3A3A3E0F98E828F83A3A3AA
:1052A400A3E0FAA3E0FB12117A90076AE0F8A3E006
:1052B400F9E849605390076AE0F8A3E0F58388822F
:1052C400A3A3E0F8A3E0F9E849603D7C0079008EEF
:1052D400828F83A3A3A3E0FAA3E0FB90076AE0F81C
:1052E400A3E0F5838882A3A3E0F8A3E0F583888292
:1052F4001218DD8013AE0CAF0D8E828F83A3A3A38F
:10530400E0FAA3E0FB1210D2790174141218857F1D
:10531400080219B174F51218DF74F212186F8909B2
:10532400EAFEEBFF8C0AAC18AD197A0E75F006E5AF
:1053340009A42420F91214C8E9705F7C0679FFAA35
:1053440018AB191213F6E97051740C1218BBE0F87B
:10535400A3E0F9E8F508E50A6005EE42088004EEEA
:10536400F45208A8087900740C1218BBE0687003A2
:10537400A3E0696021A8087900740C1218BBE8F056
:10538400A3E9F0AC18AD197A0E75F006E509A4246A
:1053940020F91214C2E9790180027900740E1218FE
:1053A400857F030219B174F01218DF74E612186FC6
:1053B400890B8A0C8B0DECFEEDFF740C1218D57A58
:1053C4000E75F006E50BA42420F91214C8E9600355
:1053D4000254DA7C0679FF740C1218CD1213F6E924
:1053E40060030254DAAC18AD197A0C7470250BF909
:1053F4001214C8E960030254D6750A00AA18AB193E
:10540400121108E50C450D702E7C0C7900AA18AB1E
:10541400191213F6E960030254BC7C0C7D00790078
:10542400AA18AB191213968A088B09850882850974
:1054340083750A010254BCAC18AD19AA0CAB0D1249
:1054440011028A0E8B0F850E08850F09E5084509A0
:105454007030EE4F601BAC18AD197A007B0012114E
:10546400028A0E8B0FA80EA90F88088909E84970D3
:105474000479008063850882850983E50CF0A3E53F
:105484000DF0850882850983A3A3E0F87900EE680E
:105494007002EF696022EEC0E0850882850983A36B
:1054A400A3D0E0F0EE4F700D850882850983740067
:1054B400F0A37400F0750A01E50A6016AA18AB1986
:1054C400121108AC18AD197A0C7470250BF912146A
:1054D400C2E9790180027900741A1218857F0802E2
:1054E40019B174F61218DF8A088B097E00EEC39492
:1054F400045050EEF87900E875F003A4C8AAF075DA
:10550400F000A42AFA75F003E9A42AF9EC28F5823C
:10551400ED39F583E065087004A3E065097021EEB8
:10552400F87900E875F003A4C8AAF075F000A42A7D
:10553400FA75F003E9A42AF9EC28FAED39FB80079F
:105544000E80AA7A007B007F020219B174F7121848
:10555400DF7C00ECC3940440030255FFECF87900AF
:10556400E875F003A4C8ADF075F000A42DFD75F046
:1055740003E9A42DF9EA28F582EB39F583E0F4FE7A
:10558400A3E0F4FFECF87900E875F003A4C8ADF0EB
:1055940075F000A42DFD75F003E9A42DF9EA28F5B2
:1055A40082EB39F583EEF0A3EFF0ECF87900E875BF
:1055B400F003A4C8ADF075F000A42DFD75F003E967
:1055C400A42DF9EA28F582EB39F583A3A3E0F4C00E
:1055D400E0ECF87900E875F003A4C8ADF075F000CC
:1055E400A42DFD75F003E9A42DF9EA28F582EB3921
:1055F400F583A3A3D0E0F00C0255577F010219B143
:1056040074F01218DF74F412186FEAFEEBFF8C08C2
:105614008D09900804E0F8A3E0F9E849702CEE4FF6
:105624006006E5084509700579010258B0EEFAEF05
:10563400FB121126E9901750F0901750E0C3940A1A
:105644004008121138E9901750F0901750E0C394B5
:105654000A40030258AE900804E0F8A3E0F9E849D0
:1056640060030256FAEEFCEFFD7A0E75F006901711
:1056740050E0A42420F91214C2E9F50C7C0C7D003E
:1056840079FFAA18AB191213968A0E8B0F850E0A8E
:10569400850F0BAC18AD197A0C901750E02470F9F3
:1056A4001214C2E9F50D750E0E750F00780E121A5C
:1056B400F2EEFCEFFD901750E0F87900E875F00E7B
:1056C400A4C8AAF075F000A42AFA75F00EE9A42A79
:1056D400F9746C28FA740739FB12137E74021218D9
:1056E400858A0E8B0FA80EA90F900804E508F0A375
:1056F400E509F00258AA900804E0F8A3E0C82406DB
:10570400F582C83400F583E0F8A3E0F9E849604382
:10571400900804E0F8A3E0C82406F582C83400F534
:1057240083E0FCA3E0FD7A1B75F006901750E0A41B
:105734002421F91214C2E9F8900804E0F9A3E0C99D
:105744002406F582C93400F5837400F0A37400F0D4
:105754000258AA900804E0F8A3E0C8240AF582C815
:105764003400F583E0F8A3E0F9E8496043900804C5
:10577400E0F8A3E0C8240AF582C83400F583E0FC0D
:10578400A3E0FD7A1B75F006901750E0A42422F9DB
:105794001214C2E9F8900804E0F9A3E0C9240AF558
:1057A40082C93400F5837400F0A37400F00258AA8F
:1057B400900804E0F8A3E0C8240CF582C83400F58E
:1057C40083E0F8A3E0F9E8496043900804E0F8A313
:1057D400E0C8240CF582C83400F583E0FCA3E0FDA6
:1057E4007A1075F006901750E0A42423F91214C21D
:1057F400E9F8900804E0F9A3E0C9240CF582C9345F
:1058040000F5837400F0A37400F00258AA90080411
:10581400E0F8A3E0C82408F582C83400F583E0F872
:10582400A3E0F9E849606F900804E0F8A3E0C82415
:1058340008F582C83400F583E0FCA3E0FD7A107516
:10584400F006901750E0A42424F91214C2E9F50AD2
:10585400900804E0F8A3E0C82408F582C83400F5F1
:1058640083E02410FCA3E03400FD7A0475F0069074
:105874001750E0A42425F91214C2E9F8900804E0B2
:10588400F9A3E0C92408F582C93400F5837400F053
:10589400A37400F080109007F8E0600312118C12DA
:1058A400117479018006790080027901740C121850
:1058B400857F080219B174F71218DF74F212186F99
:1058C400E9FEAC18AD197A0E75F006EEA42420F9A1
:1058D4001214C8E9700E740C1218BBE0F8A3E0F9B6
:1058E400E8F980027900740E1218857F010219B15B
:1058F40074F41218DF74F212186F8909EAFEEBFFD0
:10590400E509C3940A5004EE4F700479028041AC57
:1059140018AD197A0E75F006E509A42420F91214BD
:10592400C8E9F508E5087026750A06750B00780ABB
:10593400121AF274021218D5EEFAEFFB12137E74E7
:10594400021218858A0A8B0B850A82850B83A908A3
:10595400740E1218857F040219B174F41218DFEA68
:10596400FEEBFF750800E508C3940A5043750A0668
:10597400750B00780A121AF2EEFCEFFDA808790004
:10598400E875F00EA4C8AAF075F000A42AFA75F020
:105994000EE9A42AF9747228FA740739FB121390D9
:1059A4007402121885E96004A9088006050880B607
:1059B400790A7F040219B174F41218DFEAFEEBFFCE
:1059C400750800E508C3940A5043750A06750B0070
:1059D400780A121AF2EEFCEFFDA8087900E875F0D7
:1059E4000EA4C8AAF075F000A42AFA75F00EE9A472
:1059F4002AF9746C28FA740739FB12139074021292
:105A04001885E96004A9088006050880B6790A7F2C
:105A1400040219B174F71218DF74F012186FEAFE59
:105A2400EBFF750800E508C3940A5039AC18AD19AA
:105A34007A1075F006E508A42423F91214C8E97055
:105A4400207C1079FFAA18AB191213F6E97012EE34
:105A5400FCEFFDAA18AB191205CEE97004A9088061
:105A640006050880C0790A74101218857F0102198E
:105A7400B174F41218DF750800E508C3940A4003F2
:105A8400025B4FA8087900E875F00EA4C8AAF07567
:105A9400F000A42AFA75F00EE9A42AF9746C28FC23
:105AA400740739FD7A0E75F006E508A42420F9126E
:105AB40014C8E97003025B4A7C067D0079FFAA08DA
:105AC4007B00EA75F00EA4CAA8F075F000A428F8CB
:105AD40075F00EEBA428FB746C2AFA74073BFB12D6
:105AE40013968A0A8B0BAE0AAF0B7C067D0079FFF6
:105AF400AA087B00EA75F00EA4CAA8F075F000A409
:105B040028F875F00EEBA428FB74722AFA74073B8C
:105B1400FB1213968A0A8B0BAC0AAD0BA80879000A
:105B2400E875F00EA4C8AAF075F000A42AFA75F07E
:105B34000EE9A42AF9747828F582740739F5837478
