:020000040000FA
:060000000201070222B517
:03000B000226DEEC
:03002B000226B9F1
:0300530002232B5A
:1000830002210BE5C754F84401F5C77901220000AA
:100093000080FB120086B900030200F1E4792178A5
:1000A30008B800028004F709D8FCE479297802B87B
:1000B30000028004F709D8FCE4900281781B7914CC
:1000C3008002F0A3D8FCD9FA7A9B7B15900137788C
:1000D3003079048015E493A3AD82AE838A828B8347
:1000E300F0A3AA82AB838D828E83D8E9D9E7758288
:1000F300977583FF740112011975829175830074DA
:100103000012011975D00075813F751881751902A8
:10011300759F00020096C09FF59FE473D09F22D085
:1001230083D082C09FE493C0E0740193C0E0740263
:1001330093F59F22FF0000B4000028002800283018
:1001430075A000A000A000A00000080008E001F0D6
:10015300001000100010001000100010005000509C
:1001630000500010001000D0070000000000000F36
:100173000001000500307507001000010081FF0039
:10018300000000FFFFFF8E06AC069406D006FF02B8
:10019300020208025000A0000000E80302D581011A
:1001A3000000D28102D981010000F61502DF81012E
:1001B3000000C70202D981010000F71502E18101A5
:1001C3000000DD0202D981010000F81502E381017C
:1001D3000000DF0202D981010000F91502E5810860
:1001E3000000E00202D981010000FA1502E7810153
:1001F3000000FB15FF0100FF2002D581010000C6AE
:100203008102D9810100005F1602E981000000002C
:100213000002DD810300000E0317003C0D3C0D3C82
:100223000D3C0D3C0D3C0D3C0D3C0D3C0D3C0D3C83
:100233000D3C0D3C0DE20FF40FDC0F020202020233
:1002430002020202010D000000100102D58101002B
:1002530000C98102D981010000A216020D820100AA
:1002630000480702D981010000A316020B82010096
:1002730000178102D981010000A41602098201003E
:1002830000FB8002D981010000A51602FB81010059
:1002930000958002D981010000A61602F1810100B8
:1002A30000838002D981010000A716021182010098
:1002B30000A78002D981010000A81602ED81010088
:1002C30000B98002D981010000A91602EB81010067
:1002D30000098102D981010000AA160207820100E8
:1002E30000AB1601E8030577100A0D095050474685
:1002F30075656C4761756765051250002003020A36
:10030300000201060302F0FF5050474675656C4733
:1003130061756765000000000000000000461200E0
:1003230000521200005812070101010901010110D6
:10033300000101E803000010024173796E6320425B
:10034300756C6B0053796E632042756C6B0002D53C
:1003530081010000CF8102D9810100009E1702F5BF
:1003630081000000700802DD81030000980802DBB1
:1003730081010000A01702D9810100009F1702F735
:1003830081010000840802DB81010000AB170A1021
:100393000A02436F6D6D616E6400526573706F6E18
:1003A3007365004D61696C626F78004465766963BB
:1003B3006520496E666F0002D581010000CC810281
:1003C300D981010000F51702FF810300009C080298
:1003D300DB81010000F91702D981010000F6170241
:1003E30001820000009E0802DD81030000B80802BC
:1003F300DB81010000011802D981010000F7170217
:100403000382030000A00802DB810100000A180236
:10041300D981010000F817020582010000B4080227
:10042300DB810100001218FFFFFF0001307503029A
:1004330001060000000000000000000000000000B2
:100443000000000000000000000000000000FFFFAB
:100453000600800CE8030000020000000000007C9E
:10046300158215120122B8D8031201221EB00312FD
:10047300012231B00312012262B0031201229CB0A7
:1004830003120122F5B0031201223CB1031201222F
:1004930084B103120122B3B103120122E2B10312A8
:1004A300012219B20312012260B20312012279B2AE
:1004B30003120122CEB203120122E7B20312012278
:1004C30035B3031201226FB303120122A0CB021230
:1004D3000122A3CC02120122DCCC02120122FFCCA6
:1004E3000212012211CD021201224FCD021201226A
:1004F300CBCD0212012293CE02120122B5CE0212FB
:1005030001224CCF021201229ECF02120122CFCF31
:1005130002120122DCCF0212012246D00212012272
:100523009DD002120122A0D002120122D9D00212C0
:100533000122DCD002120122E6D0021201223AD1BA
:10054300021201227BD102120122AED10212012238
:10055300EBD102120122EDD20212012291D3021237
:100563000122FAD30212012238D4021201226DA40D
:100573000312012295A403120122C2A40312012231
:10058300FAA40312012258A503120122A4A50312FF
:1005930001220BA6031201224BA60312012288A6F5
:1005A30003120122B6A60312012260A7031201223D
:1005B3006AA70312012277A703120122AAA7031233
:1005C3000122B6A703120122CEA703120122D8A744
:1005D30003120122DFD403120122EDD403120122FC
:1005E30005D5031201221CD503120122D0BA011230
:1005F30001227ABB011201228DBC0112012209BD25
:100603000112012227BE0112012263BE011201223F
:10061300FEBE01120122E2BF01120122AEC001128D
:1006230001223CC201120122ADC20112012267C3A1
:100633000112012259C40112012299C4011201229B
:100643004DC5011201227FC50112012275C7011296
:100653000122B7C701120122D5C7011201223BC8EB
:10066300011201220AC901120122CEC9011201227B
:10067300EDCB011201227AEB0212012264EC021289
:1006830001220FED0212012260ED0212012210EE8F
:100693000212012281EE0212012266EF02120122EE
:1006A3009AEF0212012293F002120122D0F00212F9
:1006B3000122ACF102120122EBF10212012207F234
:1006C30002120122F5C60312012279C70312012285
:1006D300A4C703120122BEC80312012266A8031293
:1006E30001227CA8031201229AA803120122ABA9BA
:1006F30003120122B5A903120122E0AA0312012267
:10070300D7AB0312012244AC0312012268F2021296
:1007130001229EF302120122D5F3021201222CF4CC
:100723000212012241F6021201221A96011201223B
:10073300A696011201220A980112012216980112AB
:100743000122519801120122C09801120122C99974
:1007530001120122D29A01120122999B0112012254
:10076300F69C01120122149D01120122319D0112F6
:100773000122DE9D011201225B9E01120122839E52
:10078300011201224DA10112012252A101120122E3
:100793006BA301120122B9A30112012229A40112A0
:1007A300012267A40112012243A50112012203A61B
:1007B300011201224FA60112012252A601120122A7
:1007C30096A601120122DEA6011201221DA7011223
:1007D30001223FA70112012273A701120122D6A70A
:1007E300011201220080031201220E800312012252
:1007F300618003120122808003120122C58003124B
:100803000122098203120122A48203120122E88237
:100813000312012212830312012281830312012294
:10082300C783031201223E8403120122EF840312C1
:100833000122402700120122502700120122F12732
:10084300001201224D28001201220A29001201225E
:10085300262A00120122582A00120122872A001296
:100863000122342C00120122AB2E001201221B3173
:10087300001201220D32001201220633001201225E
:100883000D35001201220138001201223039001205
:100893000122343B00120122443C00120122D33DC9
:1008A30000120122C43E00120122123F0012012253
:1008B300813F00120122A53F00120122F63F0012E0
:1008C3000122974400120122984500120122F945A2
:1008D30000120122244600120122EA4600120122DC
:1008E30033A0031201223DA00312012282A00312AE
:1008F300012296A00312012226A1031201225FA165
:10090300031201229AA103120122C3A1031201229D
:1009130017A2031201222CA2031201224EA20312D8
:10092300012263A20312012277A2031201228CA2E5
:1009330003120122C6A203120122F2A20312012210
:100943003BA303120122ADA303120122F0A303125E
:1009530001221AA40312012245A403120122E7D2A1
:10096300031201221CA402120122FFA4021201227B
:100973007AA502120122B5A50212012206A70212CC
:10098300012294A70212012226AA02120122D8AA46
:1009930002120122E4AB0212012257AD021201221C
:1009A300B0AD02120122A19703120122E4970312B0
:1009B30001226898031201223F9B0312012289C27C
:1009C300031201223BC30312012237C40312012283
:1009D30076C403120122D0C403120122E0CA031217
:1009E300012243CB03120122E0CB0312012215CCD7
:1009F3000312012245CC0312012280CC03120122EF
:100A0300A0CC03120122FF89031201228B8A031255
:100A130001224A8B03120122628C031201227C8E73
:100A230003120122888D02120122AD8D02120122CE
:100A33007A8E021201224E8F02120122BB8F021202
:100A43000122FB8F02120122979002120122CB9105
:100A530002120122A692021201220593021201221E
:100A6300919302120122FF93021201228B9402122C
:100A73000122D19402120122439502120122D5953B
:100A83000212012276960212012296960212012286
:100A9300DE960212012227970212012243970212C5
:100AA3000122699702120122E39702120122F197B0
:100AB30002120122809802120122E99802120122F5
:100AC300B38E03120122388F031201227A8F03128D
:100AD30001225E9003120122CB90031201220F9197
:100AE3000312012253910312012280910312012266
:100AF300A89103120122E091031201221E92031214
:100B03000122459203120122BF920312012209938B
:100B130003120122FACB0112012299CD0112012203
:100B2300D1CF0112012225D00112012250D001128E
:100B330001222CD1011201225CD1011201228BD19D
:100B4300011201229ED101120122DFD101120122E1
:100B53000CD2011201225AD20112012296D20112A1
:100B63000122DBD20112012228D301120122A2D3D6
:100B730001120122E3D501120122CDD70112012274
:100B830009D80112012298D901120122DDD90112DB
:100B9300012250DA01120122A5DA01120122AADA96
:100BA3000112012234DB0112012253DC0112012262
:100BB30064DC0112012201C2021201227AC2021272
:100BC300012234C8021201223FC902120122E8CADB
:100BD3000212012276CB02120122046500120122C5
:100BE300856500120122B26500120122FB65001225
:100BF3000122FC6600120122556700120122D1680E
:100C0300001201225369001201226E6900120122AF
:100C1300DF69001201229C6A001201225F6B00123D
:100C23000122ED6B00120122A46C00120122B76CA9
:100C330000120122506D00120122E76D0012012201
:100C43000E6E00120122776E00120122C16E001295
:100C530001220F6F00120122B46F001201225270A1
:100C630000120122DF7000120122507100120122D2
:100C7300977100120122EF710012012221720012FA
:100C83000122DB7200120122E273001201222B7493
:100C9300001201224874001201226774001201221B
:100CA3009A75001201225176001201227676001203
:100CB30001228B7600120122FB76001201223C777F
:100CC30000120122607800120122E1780012012251
:100CD30041B8021201228CB80212012298B8021202
:100CE30001226CB90212012283B902120122C0B996
:100CF30002120122F1B90212012229BA02120122BF
:100D03007FBA0212012295BA02120122D1BA02124B
:100D13000122E4BA021201220BBB021201223FBBE1
:100D23000212012265BC02120122AFBD021201228E
:100D3300ABBE02120122C8BF0212012235270012E4
:100D4300012287DC01120122C2DC0112012214E01C
:100D53000112012270E1011201222FE2011201228C
:100D630096E50112012280E601120122CCE601126E
:100D73000122E6E60112012223E7011201222EE7F6
:100D8300011201226DE70112012276E7011201220D
:100D930020E801120122F7E8011201224BE90112B6
:100DA3000122A8E9011201221AEA01120122AEA8C6
:100DB300011201220DAC0112012213AC0112012216
:100DC30044B3011201224BB701120122D7B303121C
:100DD3000122B4B403120122F8B40312012232B582
:100DE30003120122CAB50312012239B603120122EA
:100DF30042B6031201224EB60312012268B6031251
:100E0300012292B603120122C2B603120122F19B00
:100E130003120122FE9B03120122189C03120122DA
:100E23004B9C03120122899C03120122EE9C0312A4
:100E33000122039D031201220E9D031201221B9D19
:100E430003120122329D03120122409D031201224B
:100E53004B9D03120122579D03120122669D03122B
:100E63000122719D03120122949D03120122389ED7
:100E730003120122489E03120122629E03120122E1
:100E83007F9E031201229A9E03120122BF9E031228
:100E93000122CA9E03120122DF9E03120122F39E46
:100EA30003120122549F031201225A9F03120122AB
:100EB300609F03120122669F031201227E9F031289
:100EC3000122B19F031201220580021201229C809C
:100ED300021201223481021201222482021201220F
:100EE3005B82021201226E8202120122DC82021252
:100EF30001227784021201229E840212012240857C
:100F03000212012275850212012286850212012234
:100F1300FF85021201222086021201223886021264
:100F23000122908702120122998902120122E98B80
:100F330002120122EC8C021201223B8D02120122C9
:100F430069EB0112012266EC0112012251ED01123B
:100F530001225BED011201227DED0112012289EDD7
:100F630001120122DBEE011201220AEF011201221A
:100F73003AF0011201227CF001120122A8F10112C0
:100F830001227EF201120122D0F2011201222FF37B
:100F93000112012266F301120122A1F301120122BF
:100FA3003CF70112012255F701120122D7F7011272
:100FB3000122E5F7011201223AF80112012248F851
:100FC30001120122B5F80112012227F901120122AF
:100FD3006DF9011201220C99021201222E990212BB
:100FE3000122189B02120122BD9E0212012200A0BF
:100FF30002120122DAA002120122AECC0312012254
:10100300D3CC0312012244CD031201225ED4021277
:10101300012267D40212012270D402120122A1D547
:1010230002120122C0D702120122F6D702120122B4
:1010330030D80212012266D802120122A0D802126D
:101043000122D4D80212012200D90212012249D965
:101053000212012283D902120122CBD902120122E8
:1010630021DA0212012256DA02120122B1DA021245
:101073000122EBDA021201223CDB0212012272DBB3
:1010830002120122ACDB02120122DADB021201227C
:10109300FDDB02120122ACD503120122D8D50312C3
:1010A300012233D6031201223DD6031201224DD66B
:1010B3000312012201850312012228850312012252
:1010C30063850312012233D803120122564700120B
:1010D3000122664A00120122FB4B00120122764CC8
:1010E30000120122224D00120122C54D00120122DD
:1010F3005D4E001201228C4E001201222453001275
:101103000122B65300120122F254001201225C554F
:1011130000120122105600120122C65800120122A9
:101123000059001201226A5900120122C759001204
:101133000122245A00120122815A001201226C5BFF
:1011430000120122B25B00120122FD5B0012012298
:10115300205C00120122675D001201227B5D0012F8
:101163000122EA5E00120122295F00120122695F57
:1011730000120122BC5F00120122DD5F0012012276
:101183001B600012012241620012012282620012DE
:1011930001221D63001201228F6300120122D06419
:1011A30000120122F6F9011201229CFA0112012216
:1011B300E1FB011201226AFC0112012257FD011217
:1011C300012296FD0112012200FE011201226EFE90
:1011D30001120122D0D903120122E1BC0312012220
:1011E300ACBF03120122B3D90312012200D70312A9
:1011F300012210D70312012224D703120122A0D700
:1012030003120122F0B60312012298B7031201223E
:10121300DAB903120122F97F00120122ECFF011255
:10122300012208F80212012218F80212012259FAC7
:10123300021201228FFB02120122F8FB0212012289
:1012430016FC0212012238FC0212012209FD0212CD
:1012530001220CFD021201222EFD02120122FBD3F8
:101263000312012247D403120122A9D4031201223B
:10127300BABF03120122DABF0312012237C00312DD
:1012830001224AC0031201225DC003120122EDC0F4
:101293000312012260C1031201228FC10312012232
:1012A3006BD90312012281D903120122499303123C
:1012B3000122BA9303120122D79303120122FC9352
:1012C300031201222B94031201225A9403120122C6
:1012D300D99503120122D7960312012219E40212AF
:1012E30001228AE40212012201E602120122D5E759
:1012F3000212012212E902120122D6E9021201228C
:10130300F3E90212012242EA0212012283EA0212E3
:101313000122C4EA02120122E8EA0212012217EBB7
:1013230002120122EDC80312012243C90312012252
:10133300C0C903120122FAC9031201220ACA031205
:10134300012243CA0312012264CE03120122B9CE41
:101353000312012216D00312012246D003120122E6
:10136300DCD0031201226AD103120122C5D1031278
:101373000122F6D10312012220D2031201227ED2CE
:10138300031201228BDC02120122A0DC02120122D1
:10139300FCDC0212012267DD02120122AFDD021220
:1013A300012221DE021201224ADE0212012258DE4C
:1013B30002120122BADE02120122F8DE0212012217
:1013C30013DF02120122AEDF0212012257E00212E2
:1013D3000122DAE00212012213E1021201229EE14C
:1013E30002120122F5E10212012253E2021201224A
:1013F30065E2021201228BE20212012294E202123E
:101403000122E5E302120122FBC40312012262C599
:10141300031201221FC6031201229DC603120122D9
:101423004EAC0312012281AC03120122B3AD0312AD
:101433000122F7AD03120122D3AE03120122BF7EB4
:10144300001201229D7F0012012234FD02120122AB
:1014530079FD02120122BFFD0212012288FF02124E
:101463000122A3D703120122BED703120122CED732
:101473000312012257D60312012259AE021201228E
:1014830035AF021201227CAF02120122B9AF021260
:10149300012227B00212012281B002120122F1B00F
:1014A30002120122C1B102120122B0B202120122C0
:1014B30027B302120122C3B40212012250B5021251
:1014C3000122C3B5021201223FB60212012256B60F
:1014D300021201227BB702120122D5B702120122A6
:1014E3001779001201223779001201223D7A001286
:1014F3000122897A00120122A97A00120122FC7AC0
:1015030000120122697B00120122AF7B001201222B
:10151300137C00120122148201120122418701125D
:101523000122448A011201226D8A01120122968A44
:1015330001120122488B01120122318D0112012275
:101543007C8E01120122958E01120122CC9301128D
:1015530001220594011201224994011201225A9594
:1015630001120122F5B90312012205BA0312012265
:1015730032BA03120122B7BA03120122A0BB03122B
:10158300012287BC031201228ABC03120122A1BCDF
:1015930003120122BFBC0312012225D90312012227
:1015A300CCFF0212012295D903E066701008A3E074
:1015B30066700A08A3E066700408A3E06622C3E726
:1015C300960809E7960809E7960809E79622C3E013
:1015D3009608A3E09608A3E09608A3E09622C00825
:1015E300C3E096F50808A3E096420808A3E09642F4
:1015F3000808A3E09645087001D3D008220808081C
:10160300EAC0E0EBC0E086F0E7A4FA180986F0E749
:10161300A42AFA180986F0E7A42AFA180986F0E73B
:10162300A42AFA1986F0E7A4FBE5F02AFA1908863A
:10163300F0E7A42BFBE5F03AFA190886F0E7A42BB0
:10164300FBE5F03AFA18180986F0E7A4C5F02BFB7E
:10165300E43AFA1908E7C5F0C6A426F6E5F03BFB21
:10166300E43AFA1886F0E7A4F6E5F00826F6E43B38
:1016730008F6E43A08F6D0E0FBD0E0FA2260160858
:101683000808C6C313C618C613C618C613C618C699
:1016930013C6D5E0EA227009080808226016181854
:1016A30018C6C333C608C633C608C633C608C6330E
:1016B300C6D5E0EA22E627F60809E637F60809E682
:1016C30037F60809E637F622E026F608A3E036F6F1
:1016D30008A3E036F608A3E036F622E026F008A3D6
:1016E300E036F008A3E036F008A3E036F022C3E6C4
:1016F30097F60809E697F60809E697F60809E697C4
:10170300F622C3E096F008A3E096F008A3E096F073
:1017130008A3E096F022E056F608A3E056F608A3E5
:10172300E056F608A3E056F622E056F008A3E0568A
:10173300F008A3E056F008A3E056F022E0F608A371
:10174300E0F608A3E0F608A3E0F622E6F008A3E635
:10175300F008A3E6F008A3E6F022E0FAA3E0FBA377
:10176300E0FCA3E0FD22E0F8A3E0F9A3E0FAA3E0A4
:10177300FB22E8F0A3E9F0A3EAF0A3EBF022CAC04E
:10178300E0E6F0A308DAFAD0E0FA22CAC0E0E0A368
:10179300C582CCC582C583CDC583F0A3C582CCC524
:1017A30082C583CDC583DAE6D0E0CA22C3E498F8C4
:1017B300E499F91217F08026C3E49AFAE49BFBE953
:1017C30020E7E91217F0E498F8E499F922C3E498C2
:1017D300F8E499F91217F0E498F8E499F9C3E49A54
:1017E300FAE49BFB22EB20E7CFE920E7E0B9001006
:1017F300BB0008E88AF084F8AAF022E4FBC8FA22C6
:10180300EB70227B10C833C8C933C9335007C39A5E
:10181300C3DBF280069A50012ADBEAC833F4C8C955
:1018230033F4C9FA2275F008E4C833C8C933C9339D
:10183300C99AC99B5004C92AC93BD5F0ECFBC833EC
:10184300F4C8E4C9FA22600D08C6A2E713C618C695
:1018530013C6D5E0F322600C08C6C313C618C6131B
:10186300C6D5E0F422700422600D18C6C333C6083F
:10187300C633C6D5E0F41822251810AF08F5184072
:101883000C15198008F51840021519D2AF2200C0B3
:10189300D0251810AF08F518500C05198008F51855
:1018A30050020519D2AFD0D0222518F58210AF0807
:1018B300F518400C15198008F51840021519D2AF18
:1018C300851983222518F582E43519F58322251815
:1018D300F8E43519F9222518FAE43519FB222518FD
:1018E300FCE43519FD22E4732518C582C0E0E5192F
:1018F30034FFC583C0E0E518C3958224F810AF0810
:101903008583198582188008858319858218D2AF4B
:10191300CEF0A3E520F0A37808E608F0A3DEFAEF03
:10192300F0A3E58124FAF8E608F0A3E608F0A3E6BD
:1019330008F0A30808E608F0A3E608F0A31581154C
:1019430081D0E0FED0E0F8158115811581E8C0E073
:10195300EEC0E0222518C582C0E0E51934FFC58337
:10196300C0E0E518C3958224F910AF088583198573
:1019730082188008858319858218D2AFCEF0A3E53B
:1019830020F0A37808E608F0A3DEFAEFF0A3E581E0
:1019930024FBF8E608F0A3E608F0A30808E608F03D
:1019A300A3E608F0A315811581D0E0FED0E0F81579
:1019B300811581E8C0E0EEC0E02285198385188295
:1019C300E0A3FEE0A3F5207808E0A3F608DFFAE041
:1019D300A3FFE0A3C0E0E0A3C0E0E0A3C0E0E0A376
:1019E300C0E0E0A3C0E010AF0885821885831980AA
:1019F30008858218858319D2AFD083D08202011F54
:101A0300851983851882E0A3FEE0A3F5207808E01A
:101A1300A3F608DFFAE0A3FFE0A3C0E0E0A3C0E081
:101A2300E0A3C0E0E0A3C0E010AF0885821885837F
:101A3300198008858218858319D2AFD083D082227A
:101A4300C0D02518C582C0E0E51934FFC583C0E0C6
:101A5300E518C3958224F310AF088583198582188E
:101A63008008858319858218D2AFC8F0A3E9F0A353
:101A7300EAF0A3EBF0A37908E709F0A3D8FAECF0B6
:101A8300A3EDF0A3EEF0A3EFF0A3D0E0F0A3D0E03A
:101A9300F0A3D0E0F0A3E520F0A3E5F0F0A32285C6
:101AA3001983851882E0C0E0A3E0F9A3E0FAA3E07C
:101AB300FBA37808E0F608A3DFFAE0FCA3E0FDA3AC
:101AC300E0FEA3E0FFA3E0C0E0A3E0C0E0A3E0F5F5
:101AD300D0A3E0F520A3E0A3F5F010AF08858319A8
:101AE3008582188008858319858218D2AFD082D069
:101AF30083D0E0F8D0E0327404800674028002746C
:101B030001C0E0F4041218ACD0E01217812274046F
:101B1300800474028000CCC0E0EDC0E0E518C39CF3
:101B2300CCAD1950011D10AF068C188D1980068C91
:101B3300188D19D2AF12178ED0E0FDD0E0FC22D061
:101B430083D082E9C0E0E493A3C386F0C5F095F0A7
:101B5300F908E493A386F0C5F095F0700BE493A322
:101B6300C3994005E9048002A3E475F002A4258229
:101B7300F582E5F03583F583D0E0F9E493A3C0E083
:101B8300E493C0E022D083D082ECC0E0EDC0E0E477
:101B930093A3FCE493A3FDED4C600D121BD4EC2442
:101BA300FFFCED34FFFD80EFE493A3FCE493A3FD7E
:101BB300ED4C600D121C13EC24FFFCED34FFFD8093
:101BC300EFD0E0FDD0E0FCE493A3C0E0E493C0E0F9
:101BD30022C0E0C3E49396087401939618400FE47F
:101BE3009366700808740193661870007019A3A3B4
:101BF300C3E49396087401939618A3A3400DD0E011
:101C0300D0E0D0E0021BC4A3A3A3A3A3A3D0E022EC
:101C1300C0E0C0F088F0E49366700808740193662E
:101C2300187000A8F0A3A3700BD0F0D0E0D0E0D0E0
:0B1C3300E0021BC4A3A3D0F0D0E0220D
:101C400074F6121957EAFEEBFF8C088D09EE243466
:101C5000F8E43FF9E8FCE9FDEE2435121F53FAEEF3
:101C60002437121F53F88508F0A4C885F00A8509A7
:101C7000F0A4250AF9EA28F8E439F97A257B00125C
:101C800017F0EA8C828D83F0FA131313541FF8EEC9
:101C900028F8E43FF9E8245DF582E439F583E0C0F3
:101CA000E074075AF8D0E0B800028004C313D8FCEF
:101CB000A2E0EE50082434F582E43F801824361266
:101CC0001F53F5F0EA84A8F0EE28F8E43FF9E82481
:101CD00038F582E439F583E0F97F03021A0374F7DB
:101CE000121957EAFEEBFFEE2434121F53C0E0EE48
:101CF0002435F582E43FF583D0E0F08E828F83A314
:101D0000A3A3A3A3A3A3C082C0838E828F83A3A314
:101D1000A3A3A3E0F8A3E0F9D083D082E0C398F5B1
:101D200008A3E099F509EE247F121F536401703E69
:101D3000EE2480F582E43FF583C082C0838E828FDB
:101D400083A3A3A3A3A3E0240108A3E03400F9D054
:101D500083D082E0687003A3E06970127CB97D04CF
:101D6000120C7CEE247FF582E43FF583E4F0AC08AE
:101D7000AD09EEFAEFFB121C40E9F91226AB7F0227
:101D8000021A03C082C083851882851983E0F8A3F4
:101D9000E0F9C3EA9CEB9D5010C3EC98ED99401B11
:101DA000C3EA98EB995014800EC3EA98EB99400768
:101DB000C3EC98ED994004790180027900D083D07A
:101DC0008222EAC39CFAEB9DFB2274EF1219579012
:101DD000037EE064086005E06407702A9061C8E053
:101DE00060249003ACE0F4601DE0F875F00BA4C82B
:101DF000AAF02AF974AE28FE740339FF8E828F830D
:101E0000A3A3A3E07003021ED8906060E0C0E0EEE0
:101E10002468F582E43FF583D0E0F0750C29750D58
:101E200005750800750900E5D914F50AE5D95403CC
:101E3000F50E60127403650E6043E50A600AEE2435
:101E400067121F5370028075900524E06401601FC3
:101E5000121F5060047A0480027A00E50AC39AFADD
:101E600095E0FB120B268A088B09EA4509700512DA
:101E70000EAA8064121F5070048A0C8B0DE50A6054
:101E800012850C82850D83F50BE5D9F0A3150BE5C2
:101E90000B70F6121F50604474FC250AF50A780C8A
:101EA000121AFEAC0AA90EEEFAEFFB120D367402FE
:101EB000121891E97026AA08AB0912140E793D8E0A
:101EC000828F83A3A3A3A3E0FA7B00120988EEFA12
:101ED000EFFB120CA0120D487900806F7403650EA1
:101EE0006051850A107511007810121AFEAC0CAD05
:101EF0000DAA08AB09120CFA7402121891EE2468AC
:101F0000121F5364807004747F8001E0F50C780C1C
:101F1000121B02E50EF50C780C121B02A90AAC0884
:101F2000AD099003ACE0FA7B0012095E740212184E
:101F300091801390037EE06408600BAC0CAD0DEE55
:101F4000FAEFFB120DC0120EB679017F0A021A03D6
:101F5000EE2483F582E43FF583E02274F2121957F0
:101F600074FC12187BEAFEEBFF8909A2AFE433F59B
:101F700008C2AF022025E0601B780C121AFEAC0BE1
:101F8000A90EEEFAEFFB120D3074021218917404D0
:101F9000250BF50B7401250BF5D9850ED9E50B60E2
:101FA00018F50A850C82850D83E0F5D9A385820C8E
:101FB00085830D150AE50A70EA75E195EE2463F84C
:101FC000E43FF97A007B00A2AFE433F50BC2AF889F
:101FD000828983E0FCA3E0FDEC4D603A888289832E
:101FE000E0FAA3E0FB8A828B83E0FCA3E0FD888219
:101FF0008983ECF0A3EDF08A828B83E4F0A3F08870
:10200000828983E0FCA3E0FDEC4D700A888289831D
:10201000A3A3E4F0A3F0E50BA2E092AF12140E909C
:1020200004C0E004F0EE2463121F53F8A3E0F9E8C3
:10203000496064EE2463121F532402F8A3E03400C5
:10204000F988828983E5822402F50CE43583F50D55
:10205000E0F50BA3E0F50EEE2462121F536401704D
:10206000369061D0E0F8121F5060047C0480027C3E
:10207000007480C398FA95E0FBE50B2CF8E434007B
:10208000F9E82402F8500109C3EA98EB99A2D26555
:10209000D0334003021F769004C0E0604D9004C12D
:1020A000E0F89004C0E0C398500C74026509703ADF
:1020B0009004C2E060348E828F83A3A3A3A3E08543
:1020C00018828519831220FA74021218C7E81220A8
:1020D000FA9004BFE028F074021218E1AA18AB19B4
:1020E00079011209B29004C0E4F0E508A2E092AFD1
:1020F00074041218917F07021A03F0A3E4F090040D
:10210000C0E0F8228521878522C622C0E074EB1248
:102110001A43A2AFE433F508C2AF759B0090618209
:10212000E0A2E05030E591A2E0502A7591FE7401E2
:102130006521702112229E120E0212228C121B1196
:102140001224557404121891E96401700579011282
:102150000E3E121DCA906182E0A2E5505DE591A29B
:10216000E550577591DF90037EE064076005E064F9
:1021700008702F12229E74016521703E120E021209
:10218000228C121B111224557404121891E9640157
:1021900070057901120E3E7901EEFAEFFB121F5B1A
:1021A0008018E0640D70139003A0E004F0642870C0
:1021B00002E4F07A00E0F9120EBC906182E0A2E63F
:1021C0004003022261E591A2E6400302226175917B
:1021D000BF90037EE064057008120DEA120DF680D0
:1021E00003120DF0752100120E4AE990037FF07979
:1021F00000120E3E120BEC7A017B0090037DE0F999
:102200001213DE907803E064427056900528E014C3
:10221000F0704EC2AF12221800782AD0E0F618D023
:10222000E0F6E59F5407F87005750DFF8003750D06
:102230007FC4C0E07829E6F50A08E6550DF50B7471
:102240000B780A121859D0E0250AF8906270E0A2C3
:10225000E740F8E8C333906272F0906270E0D2E039
:10226000F0906181E0A2E35009E5E9A2E350037533
:10227000E9F7A3E0A2E75009E591A2E750037591C1
:102280007FE508A2E092AF7F08021AA28E828F83B8
:10229000E0F8A3E0C82416F582E438F58322900321
:1022A000ACE0F875F00BA4C8AAF02AF974AE28FEC9
:1022B000740339FF22C0E0C0D0C082C08390618324
:1022C000E0A2E05009E5BFA2E0500375BFFEE0A226
:1022D000E15009E5BFA2E1500375BFFDE0A2E25065
:1022E00009E5BFA2E2500375BFFBE0A2E35009E598
:1022F000BFA2E3500375BFF7E0A2E45009E5BFA217
:10230000E4500375BFEFE0A2E55009E5BFA2E55038
:102310000375BFDFE0A2E65009E5BFA2E6500375F2
:10232000BFBFD083D082D0D0D0E032C0E074F212F0
:102330001A43E5A7A2E6500FE5A1A2E6500953A76C
:10234000BF75A1BF12237FE5A7A2E5500CE5A1A2AE
:10235000E5500653A7DF75A1DFE5A7A2E15009E527
:10236000A1A2E1500375A1FDE5A7A2E2500CE5A1F1
:10237000A2E2500653A7FB75A1FB7F01021AA274CB
:10238000F712195775210190037EE064067015124B
:102390000D6C8A828B83A3A3A3A3A3A3E0FAA3E07B
:1023A000FB120DD8A2AFE433FED2AF900384E064F9
:1023B0000170187A207B0090037DE0F91215047AF1
:1023C000207B0090037DE0F91213E4906182E0D25B
:1023D000E6F0900525E0602185C6228016900383F3
:1023E000E064017008E5C654F84405F5C653BEFC28
:1023F0001221047401652160E4EEA2E092AF7F0235
:10240000021A03008E238F2485822885832785184E
:1024100082851983E0CEA3E0CF852882852783EBD0
:10242000C9EAC8EDCBECCA75F010C3E833C8E9338C
:10243000C9EA33CAEB33CBC3EA9EF526EB9FF525F9
:10244000B35004AB25AA26EC33CCED33CDD5F0DA6E
:10245000AE23AF242274F11219578A088B098C0A13
:102460008D0B9081B27808121719740F1218C77863
:102470000C12173F9081B2780C1217197808790C5A
:102480001215C190816650107808790C1216F178F7
:10249000081215E14014800E780C79081216F178B4
:1024A0000C1215E150047901800279007F08021AAC
:1024B0000374ED1219578A088B098C0A8D0B9081D1
:1024C000B2780812171974131218C7780C12173F34
:1024D0009081B2780C121719780C79081215C14046
:1024E000117808790C1216F1AA08AB09AC0AAD0BE9
:1024F0008022751000751100751200751301781097
:10250000790C1216F1781079081216B8AA10AB11CE
:10251000AC12AD137F0C021A039081B27808121727
:102520003F8A828B83780812172C7F04021A037467
:10253000F51219578C828D83780812173F8A828B87
:10254000837808121705122587C3E09CF0A3E09D4D
:10255000122579402290819A780812173F8A828B3F
:102560008378081216DE8A828B83A3A3A3A3E024B8
:1025700020F0A3E0344EF080A0F088828983C3E08D
:102580009420A3E0944E22EA2404F8E43BF98C82E0
:102590008D83A3A3A3A3E0FCA3E0FD88828983220B
:1025A00074F5121957E9FE9004DBE0FAA3E0FBEEA4
:1025B00029F8E433F974DB28F582748039F583E077
:1025C0002AF508A3E03BF5097808121AFE9081A2CB
:1025D00012175D12240474021218918A088B098C58
:1025E0000A8D0B74107808121680AA08AB097F04B4
:1025F000021A0374F11219578A0C8B0D8C0E8D0F71
:1026000074111218C7121B1574111218C7E0240197
:10261000F508A3E03400F509E4F50AF50B780C7928
:1026200008121600908172780812173F780C79080A
:10263000121600AA0CAB0DAC0EAD0F1224047402DE
:102640001218918B09EA450960047A0180027A0028
:10265000EC2AFCE43DFD74131218C7E0F8A3E0F97E
:10266000E8FEE9FFECF8EDF97A717B021217F088C9
:10267000088909E4F50AF50B8E828F837808121712
:102680004EECF8EDF97A717B021217F08A088B098B
:10269000740578081218688E828F83A3A3A3A3E51C
:1026A00008F0A3E509F07F08021A03C082C083E99D
:1026B000906000F0D083D08222C0E0C0D0E8C0E0BB
:1026C000E9C0E0A2AFE433F8D2AFC2C7E8F9E8A2AC
:1026D000E092AFD0E0F9D0E0F8D0D0D0E032C0E066
:1026E00074F2121A43A2AFE433FED2AFE5BAF8791E
:1026F0000090086CE8F0A3E9F0A8BB7900E4C8F901
:1027000090086CE048F0A3E049F0E5B5540F90085C
:102710006BF0900867E0FAA3E0FB900866E0F9121E
:1027200013DEE9EEF8EEA2E092AF7F01021AA2C238
:10273000AF0200002202011FFFFFFFFFFFFFFFFFAC
:10274000C082C083E990165EF0D083D08202011F60
:1027500074F61218EBE99002F0F0900350E0F508DF
:1027600075090074027808121868AA08AB091214D7
:10277000569002F11231039002F11234F0606F9022
:102780000350E075F003A4FAABF012145690030E58
:1027900012310390030E1234F0700B9002F11234D8
:1027A000C112145C804890030E1244557AFF7BFFDF
:1027B0001211A47A0080198A087509007402780839
:1027C000121868123EFD74FF122903E4F0A3F00A08
:1027D000900350E0F8EAC39840DD790512084A906A
:1027E00002F0E0F91207367AD47B08120AC6023FDB
:1027F000A074F41218EB8A088B09EB5480604790A0
:1028000002F0E0F91213C68A0A8B0BAE0AAF0BEE88
:102810004F602A8E828F83E064B0701A12085CE9E0
:1028200060148E828F83A3A3A3A3E0F9EE2405FA9C
:10283000E43FFB12082CEEFAEFFB1213B4AA08E5F2
:10284000096480FB80047A007B00022A5374F21230
:1028500018EB74FB12187BEAFEEBFFEE4F60457439
:10286000031218C7EEF0A3EFF0851882851983ECE8
:10287000F0A3EDF074021218C7E9F0AA18AB191210
:102880000730E9F508707574131218C7E0F50AA34C
:10289000E0F50BE50A450B60638E828F83122E8C68
:1028A000EE4F700575080280537A067B00121456AD
:1028B0008A0C8B0DA80CA90DE849700575081380CA
:1028C0003B88828983E4122903EEF0A3EF122A1FCA
:1028D000E50AF0A3E50BF09002F4122A189002F436
:1028E0006017E0FCA3E08003EAFCEBFD8C828D83A3
:1028F000122A1870F38C828D83123B18A908740574
:102900000246D5F0A3124437A32274F21218EB89C1
:1029100008890C750D007403780C121868850C0A70
:10292000850D0B9002F3F09002F1123923122A1652
:10293000602E12145C7900801D890C750D007402E4
:10294000780C1218689002F1123DBC8882F583A3BE
:10295000A3E4F0A3F009900350E0F8E9C39840D94C
:10296000900350E0FA850AF0A4CAA8F0850BF0A401
:1029700028FB1214568A0C8B0DAE0CAF0DEE4F7067
:1029800003022A0C900350E0FC850AF0A4CCA8F0C6
:10299000850BF0A428FD79001213A27C0080318DF4
:1029A0000C750D007403780C1218688A828B8312E0
:1029B0002A1188828983E4F0122A1EA3A3F0A3F0CF
:1029C0000DEDC3950840D8EE250AFEEF350BFF0C40
:1029D000900350E0F8ECC39850288C0C750D0074EF
:1029E00002780C1218689002F1122A11E8240250A1
:1029F0000109FAE9FB8A828B83EEF0A3EFF07D00F8
:102A000080BFE5089002F3F0790080027913024656
:102A1000D8123DC0F922A3A31234C5EA4B22A31257
:102A20004437A3A3A32274F41218EB7900EAA2E0BE
:102A3000501F75084A7509817808121AFE79107CB2
:102A4000047D007A607B161208447402121891E922
:102A5000F980007F040219BDC082C0839002F41285
:102A600034F0601C88828983A3A3E06A7003A3E02A
:102A70006B8882898370E8A3A3A3A31234C1800466
:102A80007A007B0002274974F21218EB74FD1218C9
:102A90007BEAFEEBFF851882851983E4F0A3F074CE
:102AA000021218C77401F01234ED7014120A0012E9
:102AB00014569002F71231031234ED7003022C19F0
:102AC000123203EE2404F50AE43FF50B850A82F581
:102AD00083E024FE603C24FC607424FE607E24FEBF
:102AE0007003022B6924FE7003022B7624FE700310
:102AF000022B8324FE7003022B9024FE7003022B12
:102B00009D24FC7003022BBE24FE7003022BD60210
:102B10002C12120A009002F9EAF0A3EB122C2512F3
:102B20000478E96003022C129002F9121B158E82C0
:102B30008F83A3A3A3A3A312445585088285098389
:102B40001234C11208147402121891022C12AC181B
:102B5000AD19EEFAEFFB120862022BE1AC18AD19C9
:102B6000EEFAEFFB1208688078AC18AD19EEFAEFB8
:102B7000FB12086E806BAC18AD19EEFAEFFB120871
:102B800074805EAC18AD19EEFAEFFB12087A805132
:102B9000AC18AD19EEFAEFFB1208808044740212F3
:102BA00018D1880C890D780C121AFE74021218E1E3
:102BB000EEFAEFFB12088674021218918023AC180B
:102BC000AD19EEFAEFFB12088CE9F87016740212D8
:102BD00018C7E4F0803CAC18AD19EEFAEFFB120810
:102BE00092E9F8E8602C8E828F83A3E0641460225F
:102BF000850A82850B83E09002F9F0851882851999
:102C0000831234C19002FA123103E8A3122C251268
:102C10000472EEFAEFFB1207EA74021218C7E0F929
:102C200074030246D5F07CF97D028508828509830C
:102C30001234C52274E81218EB74FA12187B74046B
:102C40001218C7ECF0A3EDF08A128B13EA2405F5F5
:102C50000EE43513F50FEA2402F510E43513F511EF
:102C6000851082F5831234C11205688A0A8B0B75B0
:102C700008007C037D0079007AF97B021213A2E53B
:102C80000E2402F516E4350FF51774021218D188D8
:102C90000C890D780C121AFE850E82850F83A3A372
:102CA000A3A3E0F50C750D00780C121AFEE50E24B6
:102CB00005F50CE4350FF50D780C121AFE85168219
:102CC0008517831237C812074E74061218918A0CA2
:102CD0008B0DE50C450D7003022E55802085188262
:102CE000851983E088828983F00508851882851913
:102CF00083A3E0C0E0122E96D0E0F00508E50A2498
:102D0000FBFAE50B34FFFBC3E5089AE49B400302A2
:102D10002E557E007F00851282851383A3A3A3A373
:102D2000E0F5097809121B02E4F514F51578141280
:102D30001AFE7514F67515027814121AFE9002F731
:102D4000121B1574091218C7121B15E50A24F9F98C
:102D5000AC0CAD0D8510828511831234C11208BCF4
:102D60007409121891E96003022DF6850E82850F11
:102D700083A3A3A3A3A3A3A3E0F89002F6E0687043
:102D800075E0F5148E157814121AFE124452850E51
:102D900082850F83A3A3A3A3A3A3A3A31234C11269
:102DA000139C7402121891E9604C9002FA1234F0EC
:102DB000703BE4F5147814121AFE7CFF7DFF79074E
:102DC0008510828511831234C112082674021218EC
:102DD000911234F67017850E82850F831245EF74B9
:102DE000041218C7123EB01237F9022E89850C82E0
:102DF000850D83122E8CA818A919881489157814AA
:102E0000121AFE74041218C7121B15851682851734
:102E1000831230F912075A74041218918A0C8B0D20
:102E2000EE4F7003022CD2122E96EE122EA1123704
:102E3000AFEF122EA1F8A3E03400F9E50C450D60C8
:102E400003022CDD8882898374FFF00508122E9618
:102E500074FFF00508E508601A1313543F12310996
:102E6000120484E960099002FA1234C112140E7936
:102E7000008016850E82850F831245EF74041218A8
:102E8000C7123EB0123B18790A023782A3A3A3A34C
:102E9000E0FEA3E0FF22A8089002FAE0281237AF74
:102EA00022F00508089002FAE0282274E81218EBD4
:102EB00074FA12187B74021218C7123103740412C8
:102EC00018C7ECF0A3EDF074021218C7E024051245
:102ED0003798E0F50CA3E0F50D74021218C7E02452
:102EE00002F510A3E03400F511851082F583123449
:102EF000C1120568750800750900EA24FCFEEB3470
:102F0000FFFF8008050CE50C7002050DA808C3EE54
:102F100098EF940050030230B5A818A919880E89BB
:102F20000F780E121AFE851482851583A3A3A3A31E
:102F3000124459121AFEE5142405F50EE43515F570
:102F40000F780E121AFE8514828515831230F7123F
:102F5000074E74061218918A0E8B0FEA450F700304
:102F60000230B5EA2404F516E4350FF5178516820C
:102F7000F583E0F50CA3E0F50D8518828519831221
:102F800044558A828B83A3A3A3E0F985108285111F
:102F9000831234C112073CE9F50960030230B574AD
:102FA000021218C71237BFF5097809121B02E4F59F
:102FB00012F5137812121AFE7512F67513027812B2
:102FC000121AFE9002F7121B1574071218C7121B73
:102FD00015EEF9AC0EAD0F8510828511831234C148
:102FE0001208BC7409121891E9F50960030230B5A2
:102FF000E508703FE4F50EF50F780E121AFE7CFF1F
:103000007DFF79098510828511831234C11208264B
:1030100074021218911237E5700D74041218C71259
:1030200030EC79110230E99002F6E024029002FAC5
:10303000F080149002FAE0FA9002F6E0790024029F
:103040005001096A497072A8089002F6E0FAE82A6D
:10305000FAE43400FBEE9AEF9B405A8516828517FE
:1030600083E0C0E09002FB122E9BD0E0F0050885C3
:103070001682851783A3E0C0E0089002FB122E9B06
:10308000D0E0F005089002F6124459121AFE1244DC
:1030900052A80812378C12138A74021218919002E7
:1030A000F6E02508F50874FF650C700474FF650DE3
:1030B0006003022F04E508601F9002FAE0F5F0E5D6
:1030C000088412310912048AE960099002FB123463
:1030D000C112140E79008011E509700375090A7494
:1030E000041218C71230ECA909023782123927E5F9
:1030F0000CF0A3E50DF022A3A31246E4AA0CAB0D3D
:1031000022A3A3EAF0A3EBF0229002F9F07CF97D70
:10311000028510828511831234C52274EC1218EBDB
:1031200074FC12187B123C2874021218E11234BB92
:103130001207548A0C8B0DEA450D70030231F3120D
:103140003203A818A919881089117810121AFE7C68
:10315000FF7DFF790B8508828509831234C112082F
:103160002674021218911232F9700C850A82850BAE
:10317000831237F60232008E828F83A3A3A3A3E0CB
:10318000F5127812121B02E4F512F5137812121AD6
:10319000FE7512F97513027812121AFE7810121ABF
:1031A000FE74091218C7121B1574091218C7E0F92A
:1031B000AC0CAD0D8508828509831234C11208BCA0
:1031C0007409121891E9FE70157CF97D0285088258
:1031D0008509831234C1120490E9700980207416A5
:1031E0006E70027E009002FA1234C112140EEE705C
:1031F00004800B7E01850A82850B83123B15EEF954
:10320000023B2AEE2402F508E43FF5092274EC1291
:1032100018EB74FC12187BEAFEEBFF8C0E8D0FEEA0
:103220002405F508E43FF50974021218E1850882C7
:103230008509831234C11207548A0C8B0DEA450D9F
:1032400070030232E9EE2402F50AE43FF50BA818F8
:10325000A919881089117810121AFE7CFF7DFF7958
:103260000D1234BB12082674021218911232F97032
:103270000B8508828509831237F6807A8E828F83C8
:10328000A3A3A3A3E0F5127812121B02850882857E
:103290000983A3A3121B157512F975130278121274
:1032A0001AFE7810121AFE74091218C7121B157430
:1032B000091218C7E0F91234B71208BC74091218C1
:1032C00091E9FE700F7CF97D021234BB120496E97D
:1032D0007009802074166E70027E009002FA12341B
:1032E000C112140EEE7004800B7E018508828509E0
:1032F00083123B15EEF9023B2A123500F510A3E0CC
:10330000F511EA45112274E81218EB74FE12187BCD
:103310008A168B178C148D15EA2405F50CE43517E5
:10332000F50DEA2402F50EE43517F50F850E82F54A
:10333000831234C11205688A088B09750B007C035F
:103340007D0079007AF97B021213A2750A00E50864
:1033500014F5100424FFF508E50934FFF50980543D
:103360009002F9E0FA9002F6E0F8EA28F8E4340076
:10337000F9E50898E50999500D9002F9E0F8E51093
:10338000C3989002F6F0E0F5127513007812121A45
:10339000FE1244529002FAE02AFAA3E03400FB1233
:1033A000138A74021218919002F6E0F89002F9E084
:1033B00028F0050A850C82850D83A3A3123DCC401D
:1033C0000302349C9002F9E0C39508E49509400398
:1033D00002349CAE0AEE2EFEE433FF1234DBAC184E
:1033E000AD1912446DE439FB1207548A128B13ACE9
:1033F00012AD13EC4D701B750B011234CB123B193F
:103400009002FA122A18600312140EA90B74020219
:103410003784851682851783A3A3A3A3E0F50B78D1
:103420000B121B02E4F512F5137812121AFE751234
:10343000F67513027812121AFE9002F7121B157419
:10344000071218C7121B15A910850E82850F83124B
:1034500034C11208BC7409121891E9F50B709B90E5
:1034600002FA1234F06003023360E4F512F51378C7
:1034700012121AFE7CFF7DFF790F850E82850F8365
:103480001234C112082674021218911234F6600325
:103490000233601234CB1237FA02340D7CF97D020C
:1034A000850E82850F831234C112049CE9600302E9
:1034B0003400790002340DAC0CAD0D850A82850B09
:1034C000831234C522E0FAA3E0FB221234DBE0FAD7
:1034D000A3E0F9EA85148285158322850C82850D87
:1034E00083E02EF8A3E03FF988828983229002F7D7
:1034F0001245F3E84922123500F8A3E0F9E8492221
:103500009002FAEAF0A3EBF09002FAE02274E812DB
:1035100018EB74FA12187B74041218C71231038C5A
:10352000168D1774041218C7E02405F50EA3E034B5
:1035300000F50F74041218C7E024021237981234F1
:10354000C11205688A0A8B0B7F007E00A818A91992
:10355000880889097808121AFE850E82850F83A3D0
:10356000A3A3A3E0F5088E097808121AFEE50E243D
:1035700005F508E4350FF5097808121AFE850E8264
:10358000850F83A3A31237C812074E740612189131
:103590008A0C8B0D80291237B9F00F1237B9F00F52
:1035A0009002F6123B04121AFE124452EFF8123740
:1035B0008C12138A74021218919002F6E02FFFE524
:1035C0000C450D7003023648851882851983123C1C
:1035D0003AA3A3A3E0F98514828515831234C1129E
:1035E000073CE9FEE50C2404F510E4350DF511EE79
:1035F000705074041218C71237BFF5087808121BF0
:1036000002E4F508F5097808121AFE7508F675093E
:10361000027808121AFE9002F7121B15740712188E
:10362000C7121B15E50A24FAF9AC0CAD0D851482FE
:103630008515831234C11208BC7409121891E9FE71
:1036400060391237D5123B18EF700302376F9002C2
:10365000FAE0F5F0EF849002F9F07CF97D02851430
:10366000828515831234C11204A2E960099002FB1D
:103670001234C112140E79000237828F08EF703BAA
:10368000E4F512F5137812121AFE7CFF7DFF791112
:103690008514828515831234C1120826740212180B
:1036A000911237E570091237D51237F90237829037
:1036B00002F6E024049002FAF080359002F6E0F879
:1036C0009002FAE0FAE82404FCE43400FDEC6A4DD0
:1036D000600302364EE50A24FAFAE50B34FFFBE5F7
:1036E0000828F8E43400F9EA98EB99500302364EC2
:1036F000851082851183E0C0E09002FBE02FF8A3E3
:10370000E034008882F583D0E0F00F8510828511C7
:1037100083A3E0C0E01237A6D0E0F00F74021218C5
:10372000D1880889097808121AFE74021218C71283
:103730001B15850E82850F831230F712075A740409
:103740001218918A0C8B0DEA450D700302359674A0
:10375000021218C7E0C0E01237A6D0E0F00F7402E2
:103760001218C7A3E0C0E01237A6D0E002359EEEE3
:1037700070027E0A850E82850F831237DB123B189A
:10378000EEF974061218917F100219BD9002FBE049
:1037900028FAA3E03400FB22F514A3E03400F51569
:1037A000851482F583221237AA229002FBE02FFAB9
:1037B000A3E034008A82F583221237AA74FF221212
:1037C0003927A3A3A3A3E0221246E4850E82850F26
:1037D000831234C5228510828511831245F3851624
:1037E00082851783229002FBEAF0A3EBF09002FBA4
:1037F0001245F3E84922123B1EE8F0A3E9F07911E3
:103800002274EA1218EB74FE12187B8A088B098C5A
:10381000128D13EA2405FEE43509FFAC18AD198EAC
:10382000828F831234C11207548A0C8B0DEE24064A
:10383000F50EE43FF50FEA450D70030238F9E5088F
:103840002402F50AE43509F50B8A828B83A3A3A32E
:10385000E0A2E550288518828519831234C1120828
:10386000B08A108B11EA4511602079121234B785A5
:1038700010828511831218E9E9F50C707F850E829C
:10388000850F83E0600979528011750C0E806D857B
:103890000882850983A3A3A3A3E0F9E4F508F50949
:1038A0007808121AFE8E828F83A3A3E0F5087808A9
:1038B000121AFE8E828F83A3A3A3121B158E828FF2
:1038C000831244551234BB1208C27406121891E9CF
:1038D000F50C7011850E82850F83E0702D1234BBBC
:1038E0001204A880257416650C7011750C007418EC
:1038F0001218C7123923E48010750C011245EB85AC
:103900001282851383E8F0A3E9F0850E82850F8388
:10391000E0600479008002A90C74021218917F0EF5
:103920000219BD12392722E0F8A3E0F5838882222C
:1039300074EC1218EB74F712187B8A0A8B0B8C103C
:103940008D11EA2405FEE4350BFF750C00AC18ADB3
:10395000198E828F831234C11207548A088B09EAA8
:1039600045097003023AEFE50A2402F50A50020500
:103970000B8A828B83A3A3A3E0A2E5502F85188234
:103980008519831234C11208B08A0C8B0DEA450DDB
:10399000604F7912AC08AD091234BB850C82850DDD
:1039A000831218E9E9F50C6003023AF2850A828570
:1039B0000B83E0F508A3E0F509AA08FB1208A4EAC6
:1039C0004B70197AFF7BFF1208A4EA4B7003023A8E
:1039D000E58A828B83E508F0A3E509F0750800808D
:1039E00008750C0E023AF205089002F3E0F8E508BB
:1039F000C3984003023AE585080E750F00740378FA
:103A00000E1218688A828B83A3A3E0250EF8A3E028
:103A1000350F123EB970D08E828F83123B0D12315A
:103A2000038E828F83A3A3123B0D123101EE240477
:103A3000F508E43FF509850882F583E088828983EB
:103A4000A3A3A3A3F0A3E4F0EE2405F50EE43FF551
:103A50000F850E82F583123B0DA3A3A3A3123101A0
:103A60007512077513007812121AFEEEFCEFFD7442
:103A7000041218D912138A7402121891E4F51278FC
:103A800012121AFE850882850983E0FC7D007917F1
:103A90001234BB120826740212189174071218C748
:103AA00012310374071218C7E0FA4B603D85088293
:103AB000850983123B04121AFE850E82850F83123C
:103AC000445512138A740212189174021218E112EA
:103AD00034BB1204AEE9602674071218C71234C151
:103AE00012140E8019750C098008750C118003756D
:103AF0000C011245EB851082851183123B18A90C2D
:103B000074098028E0F5087509007808221234C588
:103B10008882898322123B1EE8F0A3E9F022E0F8B4
:103B2000A3E0F9850E82850F832274041218917F19
:103B30000C0219BD74EC1218EB123C28751000EE43
:103B40002402F50CE43FF50D850C82F5831234C197
:103B50001208A48A088B09EA45097003023C0C8507
:103B60000A82850B83E064016003023C01AC08AD6E
:103B700009AA0AAB0B120898E9606E8508828509CC
:103B800083122E8EEE2406F50AE43FF50B8E828F0B
:103B900083A3A3121B158E828F83A3A3A3A3121B3F
:103BA00015850A82850B83121B1579188E828F83E7
:103BB000123C3A1234C11208C27406121891E9F884
:103BC000741668700B850A82850B83E4F0A3801459
:103BD000E860128E828F831234C1850E82850F8336
:103BE000EAF0A3EBF088108018780E121AFEAC08E9
:103BF000AD09EEFAEFFB12089E7402121891E9F576
:103C000010AA08AB091208AAE510700E850C82856F
:103C10000D831234C11204B4800974166510700348
:103C2000751000A910023B2FEAFEEBFF8C0E8D0FE2
:103C3000EE2405F50AE43FF50B221246E4850C82DA
:103C4000850D832274EA1218EB7508007509007E51
:103C5000007F00750A00EC2402F510E43DF51180A8
:103C600035EC65087003ED65096003023CF9888254
:103C70008983A3A3E06A7003A3E06B707C888289C8
:103C800083A3A3A3A31245EFEE28FEEF39FFEA2892
:103C9000FAEB39FB050A123DC9503A850A0C750D3D
:103CA000007403780C121868851082851183123D08
:103CB000BC123EB9601FE508450970A58C088D0946
:103CC00088828983122E8C88828983A3A3E02EFAAE
:103CD000A3E03F80BEE50AC394025003023DB775DE
:103CE0000800750900EE4F6010EEFAEFFB121408A1
:103CF0008A0E8B0FEA450F70057900023DB9750BEE
:103D000000023D8C850B0C750D007403780C1218A5
:103D100068851082851183E0250CF50CA3E0350D34
:103D2000F50DE50C2406F514E4350DF51585148222
:103D3000F583123EBE6042E50C2404F512E4350D15
:103D4000F513851282F583121B15E50E2508FAE599
:103D50000F3509FB12138A7402121891851282859D
:103D60001383E02508F508A3E03509F509851482D9
:103D70008515831234C112140EE50B600D7C087D8D
:103D8000007900AA0CAB0D1213A2050BE50BC3952D
:103D90000A5003023D048510828511831245EF8885
:103DA000828983A3A3A3A3A3A3E50EF0A3E50F1227
:103DB0002A1FEEF0A3EFF0790102391E123DC02256
:103DC000E0250CF8A3E0350D229002F3E0F8E50AB7
:103DD000C3982274F01218EB8A0E8B0F8C0A8D0B8D
:103DE000750D00750C0080507916EE2406F508E478
:103DF0003FF5098E828F83A3A3121B158E828F83BA
:103E0000A3A3A3A3121B15850882850983121B1582
:103E1000850E82850F83A3A31234C11208C27406D3
:103E2000121891E9F50D7416650D706C8508828580
:103E30000983E4F0A3F0050C9002F3E0F8E50CC36D
:103E4000985066AA0C8A087509007403780812183D
:103E500068850A82850B83A3A3123F08E8FEE9FF69
:103E60008E828F83123EBE6040EA2401F508E4345E
:103E700000F5099002F3E065087002E50960148816
:103E8000828983A3A3A3A3A3A3A3A31234F06003F3
:103E9000023DE87918023DEAE9609B1245EB741097
:103EA0001218C7123EB0123B18A90D7F080219BDA7
:103EB000E0FAA3E0F5838A8222F988828983124698
:103EC000E4EC4D2274F61218EB7C0080010C900398
:103ED00050E0F8ECC398501E8C0875090074027805
:103EE00008121868123EFDE06A7003A3E06B70DDF3
:103EF000E8FAE9FB80047A007B00023FA09002F11F
:103F0000123F088882898322E02508F8A3E035095A
:103F1000F92274F21218EB8A088B09750A008027BF
:103F20008E828F83A3A3A3A3122A16600312140EFA
:103F30007C087D007900EEFAEFFB1213A28E828FCF
:103F400083E4F0A3F0050A123DC95027850A0C75D9
:103F50000D007403780C121868850882850983A304
:103F6000A3E0250CFEA3E0350DFF8E828F83123473
:103F7000F070AD85088285098374FFF0A3F00246D6
:103F8000D874F61218EB1208568A828B83E58245A4
:103F90008370067A007B008007A3A3A3A31234C119
:103FA0007F020219BD74F41218EB89088C828D838C
:103FB000E06402703C12458EFEA3E0F9EEF8740254
:103FC0006870037429697029750A02750B00780AF4
:103FD000121AFE74101218C7121B1574101218C78B
:103FE000121B15A9081211B67406121891E9F9806E
:103FF000027901022A5374E81218EB74FB12187B41
:10400000E9851882851983F08A168B17ECFEEDFF7F
:104010007510008E828F83A3A3A3E0A2E4502D74B9
:104020001D1218C71234C11208B08A828B83E58230
:104030004583700302442D790AEEFCEFFDAA16AB0E
:10404000171218E9E9F5106003024430741F1218C2
:10405000C7E0F508A3E0F50974211218C7E0F50AD6
:10406000A3E0F50B74231218C7E0F50EA3E0F50FDB
:104070008E828F83E0640260030243CEA31245EF79
:10408000850882850983A3858212858313EE240621
:10409000F50CE43FF50D8882898312446DF514E434
:1040A00039F5157814121B88010000280128D0402A
:1040B000070002289541032803410029C442012931
:1040C000EF42022990420329C44204296843CE43A7
:1040D000E50E450F60030243C9850C82850D8312EE
:1040E00045EFE8FAE9FB8A828B83E0850A82850B3B
:1040F00083124478121AFE8A828B83A3E0FCA3E029
:10410000024352E50E450F60030243C9850A8285CA
:104110000B837401F0124462850882850983F07C68
:10412000007D008E828F83A3A3A3A3E02401FAA3C2
:10413000E03400FB120754EA4B60408A828B83E034
:104140002402F8850A82850B83E028F0EA2404F82B
:10415000E43BF988828983E08512828513831244C7
:1041600086124478121AFE8A828B83A3124455E584
:10417000082403FAE43509FB024357850A82850BBC
:1041800083E02404F07C047D007900AA12AB1312B2
:1041900013A2024430E50E450F60030243C91244E6
:1041A00062FEA3E0FF850A82850B837404F0EE852E
:1041B0000882850983F0EF851282851383F07403EA
:1041C0001218E1EEFAEFFB1207548A0C8B0DEA4548
:1041D0000D70030242738A828B83A3A3122E8C7408
:1041E000011218D1880E890F780E121AFE7405126A
:1041F00018C7121B157CFF7DFF12075A7404121892
:10420000918B0FEA450F7033850C82850D83124424
:1042100059121AFE850C82850D83A3121B157C0290
:104220007D007AD77B811205567404121891E970CB
:104230000A74011218C774FFF0A3F08E828F83E016
:1042400064027039750C02750D00780C121AFE8E1E
:10425000828F83A3124455E5082404FAE43509FB50
:1042600012138A7402121891850A82850B83E02446
:1042700002800974011218C7EEF0A3EFF074011266
:1042800018C712444774011218C712443E0243C3B0
:10429000E50E450F60030243C9850C82850D83122C
:1042A00046DDAA16AB171211BC850A82850B8374F2
:1042B00002F0850882850983EAF0851282851383DE
:1042C000EB0243C6E50E450F60030243C912446288
:1042D000F8A3E0F9850A82850B837402F0E885086B
:1042E00082850983F0E98512828513830243C6859E
:1042F0000C82850D831234C1121384EAFAF8C39537
:104300000EE4950F405CE8650E450F70047A00805E
:1043100021851882851983E0FCE50E2CFCE4350F1D
:10432000FDC3EC98ED94005003E08005E50ECAC390
:104330009AFAEA850A82850B83F08A0A750B00785F
:104340000A121AFE850C82850D83E0250EFCA3E07F
:10435000350FFDAA08AB0912138A740212189102D4
:104360004430751007024430E50E450F705B850C34
:1043700082850D831245EF850A82850B837407F0D1
:104380008882898312443F124437E0851282851364
:1043900083F0E82402FAE439FB8A828B83124447D3
:1043A0008A828B8312443EA3A3122A1E12444CF02D
:1043B000E82405F85001098882898312444CA3122D
:1043C0004486A3A3A3A3F0806775100B8062741DBD
:1043D0001218C71234C11208568A828B83E58245AF
:1043E00083604A1245EF880C890DE8450D603E74E4
:1043F000251218C7E0F5107810121B02780E121A59
:10440000FE780A121AFE7808121AFE74071218C7EC
:10441000E0F9EEFCEFFDAA16AB17850C82850D8343
:104420001218E97407121891E9F510800375100E3F
:10443000A9107405023784F088828983A322A3E03F
:104440008508828509832212448DF02212448DA3AF
:10445000A3229002F71246E422E0F50E750F0078D1
:104460000E22850C82850D83123927E022E0FAA303
:10447000E0F8E4C8F9EA2822F08A828B83E0F50AA2
:10448000750B00780A2212443712448D22E0850809
:1044900082850983A3A32274EE1218EB74FE12180E
:1044A0007B8A088B09ECFEEDFF890AAC18AD19EE8A
:1044B000FAEFFB1207548A0C8B0DEA450D700302CC
:1044C000457F8518828519831234C11208568A8265
:1044D0008B83E5824583700302457AA3A31245EFDF
:1044E000880E890FE8450F700302457A741412187C
:1044F000C7E0F510A3E0F511E50AF50B780B121BE8
:104500000274191218C7121B157810121AFE741BA8
:104510001218C7E0F9AC0CAD0DAA08AB09850E82E4
:10452000850F831218E97405121891E9F50B705282
:1045300074FE650A604C850C82850D83E064027010
:104540004112458EFAA3E0F9EAF874026870037428
:104550002969702E85108285118312446DF50CE453
:1045600039F50D780C121AFEEEFCEFFDAA08AB0926
:104570001208DA74021218918008750B0E80037508
:104580000B01A90B74021218917F0A0219BDA31224
:1045900045F388828983E02274F61218EB74FE12C8
:1045A000187B740C1218C71245EFE885188285191C
:1045B00083F074011218C7E9F0E4F508F5097808EA
:1045C000121AFE7508027808121AFE74041218D125
:1045D000880889097808121AFE79FE1208C2740642
:1045E0001218917402121891023FA08E828F8312CA
:1045F00045F322E0F8A3E0F92274F71218EBEAFE83
:10460000EBFF890890030E1244551211BCEA5402C4
:10461000600BA908EEFAEFFB120748800279017FD0
:10462000010219BD74F21218EB74FE12187BEAFE37
:10463000EBFF890A7401650A60147402650A60035D
:104640000246D37901120AE4E960030246D3EEFA86
:10465000EFFB1208A4EA4B60031208AAA818A919D4
:10466000880889097808121AFE7508027509007809
:1046700008121AFE7508DD7509817808121AFE7C89
:10468000FF7DFF7A017B0012074E7406121891809D
:1046900038850882850983A3A3A3A3A3A31246DDBB
:1046A000EEFAEFFB1211A4E4F50CF50D780C121ADA
:1046B000FE74021218C7121B157CFF7DFFAA08ABFF
:1046C0000912075A74041218918A088B09E50845E3
:1046D0000970BE74021218917F060219BD123927A3
:1046E0001246E422E0FCA3E0FD2274F41218EB8AE7
:1046F000088B09ECFEEDFF90165EE0F4604B7A0942
:104700007B001213AEEA4B60408A828B8374B1F057
:10471000A3E412474CF08A828B83A3A3E508F0A39D
:10472000E50912474CA3EEF0A3EFF0740C1218C782
:104730001245EF8A828B83A3A3A3A3A3A3A3123B57
:104740001890165EE0F91213BA022A53F08A828B8F
:1047500083A3A3A3A32274EE1218EB74FA12187B9E
:104760008A0A8B0BE9FF8C088D097E00850A0C856F
:104770000B0D780C121B42000410324A9E47C147B1
:10478000E0470348264849487A489D48B448E448E9
:104790009349B649D949074A324A324A0D49740108
:1047A0006F7019850882850983E0C39403500D85D5
:1047B0000882850983E090174AF080027E18024A39
:1047C0005A74026F7015850882850983E0F8A3E0AA
:1047D000F990174BE8F0A3E9F080027E18024A5ADC
:1047E00074016F7019850882850983E0C3940250B3
:1047F0000D850882850983E0900751F080027E18BC
:10480000024A5A74016F7019850882850983E0C3D2
:104810009405500D850882850983E0900752F08049
:10482000027E18024A5A74016F7019850882850940
:1048300083E0C39402500D850882850983E09007C8
:1048400053F080027E18024A5A74106F7027750C5C
:1048500010750D00780C121AFEAC08AD097A547B65
:104860000712138A74021218918A0C8B0D850C8220
:10487000850D8380027E18024A5A74016F70198573
:104880000882850983E0C39402500D85088285095A
:1048900083E0900764F080027E18024A5A74016F28
:1048A000700D850882850983E090174EF080027EA6
:1048B00018024A5A74046F70269081A2780C12175D
:1048C0003F850882850983780C1215D1501185081F
:1048D0008285098312176990076612177580027E18
:1048E00018024A5AEF70211206EEE9701312114AAB
:1048F000E9F50D79501214DAE9F50C121138800A35
:104900009007F97401F080027E18024A5A74076F0A
:10491000707C750E06750F00780E121AFE850882DF
:10492000850983A3AC82AD8374021218D912139047
:1049300074021218918A108B1185100E85110F7C4C
:10494000007D00AA18AB19850882850983E0F91259
:1049500010DEE9F50CE50CC3940A502E1206EEE9C0
:104960007015A90C121150E9F50E79501214DAE9FC
:10497000F50D1211388019A80C790074FA28F58207
:10498000740739F5837401F080067E0280027E1878
:10499000024A5A74016F7019850882850983E0C341
:1049A0009402500D850882850983E0900765F080A8
:1049B000027E18024A5A74016F70198508828509AF
:1049C00083E0C3940A500D850882850983E090171F
:1049D0004DF080027E18024A5A74016F70258508D6
:1049E00082850983E0C3940740198508828509837D
:1049F000E0C39411500D850882850983E090174F1C
:104A0000F080577E18805374016F70229007F8E091
:104A1000F50C850882850983E09007F8F0E50C70B5
:104A2000399007F8E064017031121138802C7E183B
:104A30008028C3E50A9427E50B9400501B74026F8D
:104A40007016850882850983E0FCA3E0FDAA0AAB05
:104A50000B12056EE9FE80027E02EEF97406121852
:104A6000917F0A0219BD74EC1218EB74DA12187BEC
:104A7000890D8A128B138C0A8D0B743A1218C7E0B9
:104A8000F50C908132AC18AD19740612178EAC1863
:104A9000AD19AA12AB13A90D1210DEE9FEEEC394F4
:104AA0000A4003024BDAEEF912111AE9FF90174A95
:104AB000E064027004740180027400F50878081242
:104AC0001B02AD0CEFFCEEF9AA0AAB0B12118C74B1
:104AD000011218917C147D00790074121218D912F9
:104AE00013A28A0E8B0F850E08850F0974121218F7
:104AF000E17A1075F006EEA42424F91214D4E970BA
:104B00003C7C1079FF74121218D9121402E9702D2E
:104B100074221218C7AC82AD837A0475F006EEA435
:104B20002425F91214D4E9F50874121218E1EFA241
:104B3000E0E433F9AA0AAB0B1205F8E9F87406129F
:104B400018E17A0C74702EF91214D4E97079740695
:104B50001218D912110E750E00E50EC39404506799
:104B6000A80E7900E875F003A4C8AAF075F000A4B7
:104B70002AFA75F003E9A42AF974061218C7E58227
:104B800028F508E58339F509850882850983E0F869
:104B9000A3E0F9E849602C850882850983A3A3E096
:104BA000F5107511007810121AFE850882850983A8
:104BB000E0FCA3E0FDAA0AAB0B1208C874021218AD
:104BC00091E9F8050E8092EFA2E1500E900750E0B7
:104BD000F9AA0AAB0B1208CEE9F87404650C700F41
:104BE00090174AE064027007AA0AAB0B121186798B
:104BF0000074261218917F0C0219BD74F71218EB7D
:104C0000EAFEEBFF1206EEE970679007F9E0640137
:104C1000701B12114AE9F5089007F97400F07C0A3C
:104C20007D0079007AFA7B071213A280397508009B
:104C3000E508C3940A502FA808790074FA28F58271
:104C4000740739F583E064017018A908121150E95E
:104C5000FAA808790074FA28F582740739F5837484
:104C600000F0050880CA79501214DAE9F50812112B
:104C7000387F010219BD74F21218EB890BEAFEEBC2
:104C8000FF8C088D09750A0AE50B600C1460091485
:104C90006044146064024D1BEEFAEFFB12112CE924
:104CA000F50AE50AC3940A5072E5084509606C7577
:104CB0000C06750D00780C121AFEEEFCEFFDAA082A
:104CC000AB0912138A74021218918A0C8B0D850C91
:104CD00082850D838045EEFAEFFB121126E9F50A75
:104CE000E50AC3940A5034E5084509602EAA08ABCA
:104CF00009A90A121120E98022EEFAEFFB12113203
:104D0000E9F50AE50AC3940A5011E5084509600B64
:104D1000AA08AB09A90A121120E9F8A90A7F06021C
:104D200019BD74F21218EB8A0C8B0DE9FF7E157415
:104D3000FF650C700474FF650D702A750800E508A6
:104D4000C3940A5014EFFC7A027B00A9081210FCED
:104D5000E960027E00050880E5EF60627A747B11ED
:104D6000120B088059AA0CAB0D120AD88A0A8B0BB9
:104D7000850A08850B09E508450960407C007D002F
:104D8000E5082405FAE43509FB850882850983A333
:104D9000A3A3A3E0F91210DEE9F50AE50AC3940A19
:104DA000500EEFFC7A027B00A90A1210FCE97E008B
:104DB000EF600BAA08AB0912117480027E14EEF9A1
:104DC0007F060219BD74EE1218EB8A0E8B0F8C0A47
:104DD0008D0B74121218C7E0F50CA3E0F50D7508E1
:104DE0001574FF650E700474FF650F701E7E00EE73
:104DF000C3940A5061AC0CAD0DAA0AAB0BEEF912CC
:104E00001102E960037508000E80E4AA0EAB0F12D0
:104E10000AD88A108B11AE10AF11EE4F60357C00AE
:104E20007D00EE2405FAE43FFB8E828F83A3A3A3CB
:104E3000A3E0F91210DEE9F509E509C3940A50165A
:104E4000AC0CAD0DAA0AAB0BA909121102E9750849
:104E5000008003750814A9087F0A0219BD74F712AF
:104E600018EBEAFEEBFF90076AEEF0A3EFF0900775
:104E700050E0FC7D007A267B0012056EE9F5089073
:104E80000750E0F91208327F010219BD74F01218C0
:104E9000EB74EC12187B8A0C8B0D850C82850D83CC
:104EA000A3A3E024FA700302530524FD700302510A
:104EB0007A147003024F7C14601024FD70030251B9
:104EC000221470030251B9025318AE0CAF0D9007B3
:104ED0006AE0F8A3E0F9E849606690076AE0F8A3A1
:104EE000E0F5838882E0F8A3E0F9E8496052EE2417
:104EF0000CF582E43FF583E0F5087808121B02EE1A
:104F0000240BF582E43FF583E0F98E828F83A3A31F
:104F1000A3A3A3A3A3A3A3E0FCA3E0FDEE2403FAB1
:104F2000E43FFB90076AE0F8A3E0F5838882E0F8AD
:104F3000A3E0F58388821218E97401121891803970
:104F40008E828F83A3A3A3A3A3A3A3A3A3121B1542
:104F500090076612175D12060A7402121891E96032
:104F60001879018E828F83A3A3A3A3A3A3A3A3A3D2
:104F7000E0FAA3E0FB120604E9025318AE0CAF0DF1
:104F80007508008E828F83A3E060030250A48E8296
:104F90008F83A3A3A3A3A3E0A2E040030250A490A5
:104FA0000804E0F8A3E0F9E84960030250A47C0E8D
:104FB0007D007900AA18AB191213A28A0A8B0BAADA
:104FC0000AAB0BEE240CF582E43FF583E0F8A3E096
:104FD000F9E8496036750A06750B00780A121AFE60
:104FE000EE240CF582E43FF583E02410FCA3E034CA
:104FF00000FD74021218D912138A74021218918AD1
:105000000A8B0B850A82850B83804F8E828F83A348
:10501000A3A3E0FAA3E0FB120AD88A0E8B0F850E39
:105020000A850F0BE50A450B602D750E06750F00FE
:10503000780E121AFEE50A2405FCE4350BFD740215
:105040001218D912138A74021218918A0E8B0F85C6
:105050000E82850F8380030253188E828F83A3A351
:10506000A3A3A3E0A2E25004D2F08002C2F0A2F017
:10507000E433F87900740C1218C7E048F0A3E04953
:10508000F0EEFCEFFDAA18AB19121114E970127AB8
:10509000027B00900750E0F91213DEE97900025319
:1050A0001A75081590076AE0F8A3E0F9E849606FFF
:1050B00090076AE0F8A3E0F5838882A3A3E0F8A351
:1050C000E0F9E84960598E828F83A3E0FC79018E74
:1050D000828F83A3A3A3E0FAA3E0FB90076AE0F822
:1050E000A3E0F5838882A3A3E0F8A3E0F583888298
:1050F0001218E9E5086028AC0879038E828F83A333
:10510000A3A3E0FAA3E0FB90076AE0F8A3E0F5832D
:105110008882A3A3E0F8A3E0F58388821218E9024D
:105120005318AE0CAF0D90076AE0F8A3E0F9E84918
:10513000604590076AE0F8A3E0F5838882A3A3E0C6
:10514000F8A3E0F9E849602F850C82850D83A3E080
:10515000FC79028E828F83A3A3A3E0FAA3E0FB90E5
:10516000076AE0F8A3E0F5838882A3A3E0F8A3E050
:10517000F58388821218E9025318AE0CAF0D7C003B
:105180007D00EE2404FAE43FFB8E828F83A3A3A369
:10519000E0F91210DEE9F508E508C3940A5017EEAD
:1051A000240AFCE43FFD7A0475F006E508A42425F2
:1051B000F91214CEE9F8025318AE0CAF0D90076542
:1051C000E0601990174DE0F98E828F83A3A3A3E0CE
:1051D000FAA3E0FB120604E9F802531890174AE01C
:1051E000701679058E828F83A3A3A3E0FAA3E0FB58
:1051F000120604E9F80253188E828F83A3A3A3E05A
:10520000FAA3E0FB120AD88A0A8B0B850A08850BE1
:1052100009E508450970030253188E828F83A3A302
:10522000A3A3A3A3A3E0A2E0506D85088285098310
:10523000A3A3A3A3E060608E828F83A3A3A3A3A3F1
:10524000A3A3A3A3E0F50AA3E0F50B7409780A125F
:105250001859E50A5401F8E50B5400F9E8A2E040BA
:1052600036740E1218E1E5082405FAE43509FB85C9
:105270000882850983A3A3A3A3E0F91210DEE970D5
:105280001679038E828F83A3A3A3E0FAA3E0FB1217
:105290000604E9F8025318EE2405FCE43FFD8508F6
:1052A00082850983A3A3A3A3E0F98E828F83A3A39E
:1052B000A3E0FAA3E0FB12118090076AE0F8A3E0F4
:1052C000F9E849605390076AE0F8A3E0F583888223
:1052D000A3A3E0F8A3E0F9E849603D7C0079008EE3
:1052E000828F83A3A3A3E0FAA3E0FB90076AE0F810
:1052F000A3E0F5838882A3A3E0F8A3E0F583888286
:105300001218E98013AE0CAF0D8E828F83A3A3A376
:10531000E0FAA3E0FB1210D8790174141218917FFF
:10532000080219BD74F51218EB74F212187B890982
:10533000EAFEEBFF8C0AAC18AD197A0E75F006E5A3
:1053400009A42420F91214D4E9705F7C0679FFAA1D
:1053500018AB19121402E97051740C1218C7E0F856
:10536000A3E0F9E8F508E50A6005EE42088004EEDE
:10537000F45208A8087900740C1218C7E06870038A
:10538000A3E0696021A8087900740C1218C7E8F03E
:10539000A3E9F0AC18AD197A0E75F006E509A4245E
:1053A00020F91214CEE9790180027900740E1218E6
:1053B000917F030219BD74F01218EB74E612187B8A
:1053C000890B8A0C8B0DECFEEDFF740C1218E17A40
:1053D0000E75F006E50BA42420F91214D4E960033D
:1053E0000254E67C0679FF740C1218D9121402E9F3
:1053F00060030254E6AC18AD197A0C7470250BF9F1
:105400001214D4E960030254E2750A00AA18AB1919
:1054100012110EE50C450D702E7C0C7900AA18AB0C
:1054200019121402E960030254C87C0C7D00790053
:10543000AA18AB191213A28A088B0985088285095C
:1054400083750A010254C8AC18AD19AA0CAB0D1231
:1054500011088A0E8B0F850E08850F09E50845098E
:105460007030EE4F601BAC18AD197A007B00121142
:10547000088A0E8B0FA80EA90F88088909E84970C1
:105480000479008063850882850983E50CF0A3E533
:105490000DF0850882850983A3A3E0F87900EE6802
:1054A0007002EF696022EEC0E0850882850983A35F
:1054B000A3D0E0F0EE4F700D85088285098374005B
:1054C000F0A37400F0750A01E50A6016AA18AB197A
:1054D00012110EAC18AD197A0C7470250BF9121458
:1054E000CEE9790180027900741A1218917F0802BE
:1054F00019BD74F61218EB8A088B097E00EEC3946E
:10550000045050EEF87900E875F003A4C8AAF075CD
:10551000F000A42AFA75F003E9A42AF9EC28F58230
:10552000ED39F583E065087004A3E065097021EEAC
:10553000F87900E875F003A4C8AAF075F000A42A71
:10554000FA75F003E9A42AF9EC28FAED39FB800793
:105550000E80AA7A007B007F020219BD74F7121830
:10556000EB7C00ECC39404400302560BECF879008A
:10557000E875F003A4C8ADF075F000A42DFD75F03A
:1055800003E9A42DF9EA28F582EB39F583E0F4FE6E
:10559000A3E0F4FFECF87900E875F003A4C8ADF0DF
:1055A00075F000A42DFD75F003E9A42DF9EA28F5A6
:1055B00082EB39F583EEF0A3EFF0ECF87900E875B3
:1055C000F003A4C8ADF075F000A42DFD75F003E95B
:1055D000A42DF9EA28F582EB39F583A3A3E0F4C002
:1055E000E0ECF87900E875F003A4C8ADF075F000C0
:1055F000A42DFD75F003E9A42DF9EA28F582EB3915
:10560000F583A3A3D0E0F00C0255637F010219BD1E
:1056100074F01218EB74F412187BEAFEEBFF8C089E
:105620008D09900804E0F8A3E0F9E849702CEE4FEA
:105630006006E5084509700579010258BCEEFAEFED
:10564000FB12112CE9901750F0901750E0C3940A08
:10565000400812113EE9901750F0901750E0C394A3
:105660000A40030258BA900804E0F8A3E0F9E849B8
:105670006003025706EEFCEFFD7A0E75F0069017F8
:1056800050E0A42420F91214CEE9F50C7C0C7D0026
:1056900079FFAA18AB191213A28A0E8B0F850E0A76
:1056A000850F0BAC18AD197A0C901750E02470F9E7
:1056B0001214CEE9F50D750E0E750F00780E121A44
:1056C000FEEEFCEFFD901750E0F87900E875F00E63
:1056D000A4C8AAF075F000A42AFA75F00EE9A42A6D
:1056E000F9746C28FA740739FB12138A74021218C1
:1056F000918A0E8B0FA80EA90F900804E508F0A35D
:10570000E509F00258B6900804E0F8A3E0C82406C2
:10571000F582C83400F583E0F8A3E0F9E849604376
:10572000900804E0F8A3E0C82406F582C83400F528
:1057300083E0FCA3E0FD7A1B75F006901750E0A40F
:105740002421F91214CEE9F8900804E0F9A3E0C985
:105750002406F582C93400F5837400F0A37400F0C8
:105760000258B6900804E0F8A3E0C8240AF582C8FD
:105770003400F583E0F8A3E0F9E8496043900804B9
:10578000E0F8A3E0C8240AF582C83400F583E0FC01
:10579000A3E0FD7A1B75F006901750E0A42422F9CF
:1057A0001214CEE9F8900804E0F9A3E0C9240AF540
:1057B00082C93400F5837400F0A37400F00258B677
:1057C000900804E0F8A3E0C8240CF582C83400F582
:1057D00083E0F8A3E0F9E8496043900804E0F8A307
:1057E000E0C8240CF582C83400F583E0FCA3E0FD9A
:1057F0007A1075F006901750E0A42423F91214CE05
:10580000E9F8900804E0F9A3E0C9240CF582C93452
:1058100000F5837400F0A37400F00258B6900804F9
:10582000E0F8A3E0C82408F582C83400F583E0F866
:10583000A3E0F9E849606F900804E0F8A3E0C82409
:1058400008F582C83400F583E0FCA3E0FD7A10750A
:10585000F006901750E0A42424F91214CEE9F50ABA
:10586000900804E0F8A3E0C82408F582C83400F5E5
:1058700083E02410FCA3E03400FD7A0475F0069068
:105880001750E0A42425F91214CEE9F8900804E09A
:10589000F9A3E0C92408F582C93400F5837400F047
:1058A000A37400F080109007F8E0600312119212C8
:1058B000117A79018006790080027901740C12183E
:1058C000917F080219BD74F71218EB74F212187B5D
:1058D000E9FEAC18AD197A0E75F006EEA42420F995
:1058E0001214D4E9700E740C1218C7E0F8A3E0F992
:1058F000E8F980027900740E1218917F010219BD37
:1059000074F41218EB74F212187B8909EAFEEBFFAB
:10591000E509C3940A5004EE4F700479028041AC4B
:1059200018AD197A0E75F006E509A42420F91214B1
:10593000D4E9F508E5087026750A06750B00780AA3
:10594000121AFE74021218E1EEFAEFFB12138A74B7
:10595000021218918A0A8B0B850A82850B83A9088B
:10596000740E1218917F040219BD74F41218EBEA38
:10597000FEEBFF750800E508C3940A5043750A065C
:10598000750B00780A121AFEEEFCEFFDA8087900EC
:10599000E875F00EA4C8AAF075F000A42AFA75F014
:1059A0000EE9A42AF9747228FA740739FB12139CC1
:1059B0007402121891E96004A9088006050880B6EF
:1059C000790A7F040219BD74F41218EBEAFEEBFFAA
:1059D000750800E508C3940A5043750A06750B0064
:1059E000780A121AFEEEFCEFFDA8087900E875F0BF
:1059F0000EA4C8AAF075F000A42AFA75F00EE9A466
:105A00002AF9746C28FA740739FB12139C74021279
:105A10001891E96004A9088006050880B6790A7F14
:105A2000040219BD74F71218EB74F012187BEAFE29
:105A3000EBFF750800E508C3940A5039AC18AD199E
:105A40007A1075F006E508A42423F91214D4E9703D
:105A5000207C1079FFAA18AB19121402E97012EE1B
:105A6000FCEFFDAA18AB191205D4E97004A908804F
:105A700006050880C0790A74101218917F01021976
:105A8000BD74F41218EB750800E508C3940A4003CE
:105A9000025B5BA8087900E875F00EA4C8AAF0754F
:105AA000F000A42AFA75F00EE9A42AF9746C28FC17
:105AB000740739FD7A0E75F006E508A42420F91262
:105AC00014D4E97003025B567C067D0079FFAA08B6
:105AD0007B00EA75F00EA4CAA8F075F000A428F8BF
:105AE00075F00EEBA428FB746C2AFA74073BFB12CA
:105AF00013A28A0A8B0BAE0AAF0B7C067D0079FFDE
:105B0000AA087B00EA75F00EA4CAA8F075F000A4FC
:105B100028F875F00EEBA428FB74722AFA74073B80
:105B2000FB1213A28A0A8B0BAC0AAD0BA8087900F2
:105B3000E875F00EA4C8AAF075F000A42AFA75F072
