:020000040000FA
:060000000201070222E1EB
:03000B0002270ABF
:03002B000226E5C5
:030053000223572E
:10008300022137E5C754F84401F5C779012200007E
:100093000080FB120086B900030200F1E4792178A5
:1000A30008B800028004F709D8FCE479297802B87B
:1000B30000028004F709D8FCE4900281781B7914CC
:1000C3008002F0A3D8FCD9FA7A9B7B15900137788C
:1000D3003379048015E493A3AD82AE838A828B8344
:1000E300F0A3AA82AB838D828E83D8E9D9E7758288
:1000F3002C7583DC74031201197582917583007466
:100103000012011975D00075813F751881751902A8
:10011300759F00020096C09FF59FE473D09F22D085
:1001230083D082C09FE493C0E0740193C0E0740263
:1001330093F59F22FF0000B4000028002800283018
:1001430075A000A000A000A00000080008E001F0D6
:10015300001000100010001000100010005000509C
:1001630000500010001000D0070000000000000F36
:100173000001000500307507001000010081FF0039
:10018300000000FFFFFF9706B5069D06D906FF0294
:10019300020208025000A0000000E80302D581011A
:1001A3000000D28102D981010000F61502DF81012E
:1001B3000000C70202D981010000F71502E18101A5
:1001C3000000DD0202D981010000F81502E381017C
:1001D3000000DF0202D981010000F91502E5810860
:1001E3000000E00202D981010000FA1502E7810153
:1001F3000000FB15FF0100FF2002D581010000C6AE
:100203008102D9810100005F1602E981000000002C
:100213000002DD810300000E031700450D450D4567
:100223000D450D450D450D450D450D450D450D453B
:100233000D450D450DEB0FFD0FE50F020202020206
:1002430002020202010D000000100102D58101002B
:1002530000C98102D981010000A216020D820100AA
:1002630000480702D981010000A316020B82010096
:1002730000178102D981010000A41602098201003E
:1002830000FB8002D981010000A51602FB81010059
:1002930000958002D981010000A61602F1810100B8
:1002A30000838002D981010000A716021182010098
:1002B30000A78002D981010000A81602ED81010088
:1002C30000B98002D981010000A91602EB81010067
:1002D30000098102D981010000AA160207820100E8
:1002E30000AB1601E8030577100A0D095050474685
:1002F30075656C4761756765051250002003020A36
:10030300000201060302F0FF5050474675656C4733
:1003130061756765000000000000000000551200D1
:1003230000611200006712E80300001002417379B4
:100333006E632042756C6B0053796E632042756C5B
:100343006B0002D581010000CF8102D98101000039
:10035300921702F581000000700802DD810300009E
:10036300980802DB81010000941702D98101000083
:10037300931702F781010000840802DB810100006A
:100383009F170A100A02436F6D6D616E6400526518
:1003930073706F6E7365004D61696C626F780044B2
:1003A300657669636520496E666F0002D581010039
:1003B30000CC8102D981010000E91702FF8103000B
:1003C300009C0802DB81010000ED1702D9810100C6
:1003D30000EA170201820000009E0802DD8103008B
:1003E30000B80802DB81010000F51702D981010082
:1003F30000EB17020382030000A00802DB81010067
:1004030000FE1702D981010000EC170205820100EA
:1004130000B40802DB810100000618080101010095
:1004230010010101010B01010101FFFFFF00013078
:100433007503020106000000000000000000000038
:1004430000000000000000000000000000000000A9
:1004530000FFFF0600800CE803000002000000001C
:100463000000A315A915120122ACDB031201221906
:10047300DC03120122E7B303120122FAB3031201D0
:10048300222BB40312012265B403120122BEB4036A
:1004930012012205B5031201224DB5031201227C7C
:1004A300B503120122ABB503120122E2B503120117
:1004B3002229B60312012242B60312012297B60380
:1004C300120122B0B603120122FEB6031201223832
:1004D300B703120122A0CB02120122A3CC02120104
:1004E30022DCCC02120122FFCC0212012211CD0226
:1004F3001201224FCD02120122CBCD02120122930F
:10050300CE02120122B5CE021201224CCF021201F9
:10051300229ECF02120122CFCF02120122DCCF0290
:1005230012012246D0021201229DD002120122A002
:10053300D002120122D9D002120122DCD002120110
:1005430022E6D0021201223AD1021201227BD10209
:10055300120122AED102120122EBD102120122EDCD
:10056300D20212012291D302120122FAD302120102
:100573002238D4021201226DA40312012295A4038E
:10058300120122C2A403120122FAA4031201225867
:10059300A503120122A4A5031201220BA603120133
:1005A300224BA60312012288A603120122B6A60338
:1005B30012012260A7031201226AA7031201227704
:1005C300A703120122AAA703120122B6A70312014D
:1005D30022CEA703120122D8A703120122D3D703E5
:1005E300120122E1D703120122F9D70312012210CB
:1005F300D803120122D0BA011201227ABB011201DF
:10060300228DBC0112012209BD0112012227BE0164
:1006130012012263BE01120122FEBE01120122E277
:10062300BF01120122AEC0011201223CC20112011C
:1006330022ADC20112012267C30112012259C40172
:1006430012012299C4011201224DC5011201227F18
:10065300C50112012275C701120122B7C701120198
:1006630022D5C7011201223BC8011201220AC90186
:10067300120122CEC901120122EDCB011201227A0D
:10068300EB0212012264EC021201220FED021201AD
:100693002260ED0212012210EE0212012281EE020B
:1006A30012012266EF021201229AEF021201229333
:1006B300F002120122D0F002120122ACF102120167
:1006C30022EBF10212012207F2021201223DCB03B7
:1006D300120122C1CB03120122ECCB031201220629
:1006E300CD0312012266A8031201227CA803120182
:1006F300229AA803120122ABA903120122B5A9036E
:10070300120122E0AA03120122D7AB0312012244F1
:10071300AC0312012268F2021201229EF3021201BB
:1007230022D5F3021201222CF40212012241F60215
:100733001201221A9601120122A696011201220A1F
:1007430098011201221698011201225198011201F7
:1007530022C09801120122C99901120122D29A01E1
:10076300120122999B01120122F69C01120122140B
:100773009D01120122319D01120122DE9D01120110
:10078300225B9E01120122839E011201224DA101CF
:1007930012012252A1011201226BA301120122B9FB
:1007A300A30112012229A40112012267A40112014B
:1007B3002243A50112012203A6011201224FA60121
:1007C30012012252A60112012296A601120122DE73
:1007D300A6011201221DA7011201223FA701120146
:1007E3002273A701120122D6A7011201220080035E
:1007F3001201220E80031201226180031201228062
:100803008003120122C5800312012209820312010F
:1008130022A48203120122E882031201221283031B
:10082300120122818303120122C783031201223E94
:100833008403120122EF84031201226C27001201A8
:10084300227C27001201221D280012012279280090
:10085300120122362900120122522A001201228497
:100863002A00120122B32A00120122602C00120175
:1008730022D72E0012012247310012012239320001
:100883001201223233001201223935001201222DC6
:1008930038001201225C3900120122603B00120170
:1008A30022703C00120122FF3D00120122F03E00A3
:1008B3001201223E3F00120122AD3F00120122D15C
:1008C3003F00120122224000120122C34400120100
:1008D30022C445001201222546001201225046007F
:1008E30012012216470012012233A0031201223DF6
:1008F300A00312012282A00312012296A003120177
:100903002226A1031201225FA1031201229AA1034D
:10091300120122C3A10312012217A2031201222CE6
:10092300A2031201224EA20312012263A2031201A7
:100933002277A2031201228CA203120122C6A20370
:10094300120122F2A2031201223BA303120122ADE0
:10095300A303120122F0A3031201221AA40312011A
:100963002245A403120122EB7E001201221CA402E1
:10097300120122FFA4021201227AA502120122B55A
:10098300A50212012206A70212012294A702120154
:100993002226AA02120122D8AA02120122E4AB02E1
:1009A30012012257AD02120122B0AD02120122A19F
:1009B3009703120122E4970312012268980312019C
:1009C300223F9B03120122D1C60312012283C703D4
:1009D3001201227FC803120122BEC803120122188A
:1009E300C90312012228CF031201228BCF03120164
:1009F3002228D0031201225DD0031201228DD003DD
:100A0300120122C8D003120122E8D003120122FFEF
:100A130089031201228B8A031201224A8B031201DA
:100A230022628C031201227C8E03120122888D0222
:100A3300120122AD8D021201227A8E021201224E80
:100A43008F02120122BB8F02120122FB8F021201BD
:100A530022979002120122CB9102120122A6920246
:100A6300120122059302120122919302120122FF25
:100A730093021201228B9402120122D194021201D9
:100A830022439502120122D5950212012276960283
:100A9300120122969602120122DE960212012227E9
:100AA300970212012243970212012269970212014F
:100AB30022E39702120122F1970212012280980287
:100AC300120122E99802120122B38E031201223885
:100AD3008F031201227A8F031201225E9003120107
:100AE30022CB90031201220F91031201225391038F
:100AF300120122809103120122A89103120122E024
:100B030091031201221E9203120122459203120144
:100B130022BF9203120122099303120122FACB018D
:100B230012012299CD01120122D1CF0112012225F6
:100B3300D00112012250D0011201222CD101120145
:100B4300225CD1011201228BD1011201229ED1011B
:100B5300120122DFD1011201220CD2011201225A09
:100B6300D20112012296D201120122DBD20112011B
:100B73002228D301120122A2D301120122E3D501BB
:100B8300120122CDD70112012209D80112012298A4
:100B9300D901120122DDD90112012250DA01120119
:100BA30022A5DA01120122AADA0112012234DB01A1
:100BB30012012253DC0112012264DC011201220121
:100BC300C2021201227AC20212012234C8021201A5
:100BD300223FC902120122E8CA0212012276CB0285
:100BE300120122306500120122B16500120122DEDA
:100BF30065001201222766001201222867001201F4
:100C030022816700120122FD68001201227F690020
:100C13001201229A69001201220B6A00120122C8F2
:100C23006A001201228B6B00120122196C0012015F
:100C330022D06C00120122E36C001201227C6D00B1
:100C4300120122136E001201223A6E00120122A336
:100C53006E00120122ED6E001201223B6F001201A1
:100C630022E06F001201227E70001201220B71003C
:100C73001201227C7100120122C371001201221B96
:100C830072001201224D7200120122077300120139
:100C9300220E740012012257740012012274740090
:100CA300120122937400120122C675001201227DE3
:100CB3007600120122A27600120122B776001201F9
:100CC300222777001201226877001201228C780014
:100CD3001201220D790012012241B8021201228C65
:100CE300B80212012298B8021201226CB902120151
:100CF3002283B902120122C0B902120122F1B90200
:100D030012012229BA021201227FBA02120122958C
:100D1300BA02120122D1BA02120122E4BA0212016A
:100D2300220BBB021201223FBB0212012265BC024D
:100D3300120122AFBD02120122ABBE02120122C870
:100D4300BF02120122F2FF0112012287DC0112010C
:100D530022C2DC0112012214E00112012270E1011E
:100D63001201222FE20112012296E50112012280D3
:100D7300E601120122CCE601120122E6E60112018C
:100D83002223E7011201222EE7011201226DE7015E
:100D930012012276E70112012220E801120122F753
:100DA300E8011201224BE901120122A8E901120113
:100DB300221AEA01120122AEA8011201220DAC018E
:100DC30012012213AC0112012244B3011201224B7E
:100DD300B701120122EBBA03120122C8BB031201AD
:100DE300220CBC0312012246BC03120122DEBC0307
:100DF3001201224DBD0312012256BD0312012262CC
:100E0300BD031201227CBD03120122A6BD03120100
:100E130022D6BD03120122F19B03120122FE9B0382
:100E2300120122189C031201224B9C0312012289F6
:100E33009C03120122EE9C03120122039D03120163
:100E4300220E9D031201221B9D03120122329D03D8
:100E5300120122409D031201224B9D0312012257CE
:100E63009D03120122669D03120122719D0312014B
:100E730022949D03120122389E03120122489E03ED
:100E8300120122629E031201227F9E031201229A03
:100E93009E03120122BF9E03120122CA9E03120166
:100EA30022DF9E03120122F39E03120122549F03A9
:100EB3001201225A9F03120122609F03120122662C
:100EC3009F031201227E9F03120122B19F0312018D
:100ED300220580021201229C800212012234810227
:100EE3001201222482021201225B82021201226E6B
:100EF3008202120122DC8202120122778402120191
:100F0300229E84021201224085021201227585026B
:100F1300120122868502120122FF8502120122207C
:100F230086021201223886021201229087021201E0
:100F330022998902120122E98B02120122EC8C020E
:100F43001201223B8D0212012269EB01120122667A
:100F5300EC0112012251ED011201225BED0112019C
:100F6300227DED0112012289ED01120122DBEE0146
:100F73001201220AEF011201223AF0011201227C2E
:100F8300F001120122A8F1011201227EF2011201E5
:100F930022D0F2011201222FF30112012266F30182
:100FA300120122A1F3011201223CF7011201225581
:100FB300F701120122D7F701120122E5F70112010D
:100FC300223AF80112012248F801120122B5F80170
:100FD30012012227F9011201226DF9011201220CDB
:100FE30099021201222E9902120122189B02120168
:100FF30022BD9E0212012200A002120122DAA002E7
:10100300120122C3D203120122E8D2031201225990
:10101300D3031201225ED40212012267D402120109
:101023002270D402120122A1D502120122C0D702DA
:10103300120122F6D70212012230D80212012266CF
:10104300D802120122A0D802120122D4D80212011E
:101053002200D90212012249D90212012283D902A4
:10106300120122CBD90212012221DA0212012256E5
:10107300DA02120122B1DA02120122EBDA021201C0
:10108300223CDB0212012272DB02120122ACDB02E0
:10109300120122DADB02120122FDDB02120122A07D
:1010A300D803120122CCD80312012227D90312013B
:1010B3002231D90312012241D903120122018503EE
:1010C30012012228850312012263850312012227BC
:1010D300DB03120122824700120122924A0012010D
:1010E30022274C00120122A24C001201224E4D0075
:1010F300120122F14D00120122894E00120122B881
:101103004E00120122505300120122E25300120139
:10111300221E55001201228855001201223C56005E
:10112300120122F258001201222C590012012296B8
:101133005900120122F35900120122505A001201E0
:1011430022AD5A00120122985B00120122DE5B00DD
:10115300120122295C001201224C5C00120122932D
:101163005D00120122A75D00120122165F00120129
:1011730022555F00120122955F00120122E85F00F1
:101183001201220960001201224760001201226D40
:101193006200120122AE62001201224963001201B1
:1011A30022BB6300120122FC6400120122F6F90142
:1011B3001201229CFA01120122E1FB011201226AAF
:1011C300FC0112012257FD0112012296FD011201B9
:1011D3002200FE011201226EFE0112012258DD03DC
:1011E300120122F8C303120122C3C6031201221102
:1011F300DD03120122F4D90312012204DA031201DE
:101203002218DA0312012294DA0312012204BE0324
:10121300120122ACBE03120122EEC00312012261AD
:10122300270012012246DD0312012208F8021201EF
:101233002218F80212012259FA021201228FFB022C
:10124300120122F8FB0212012222FC0212012245A2
:10125300FC0212012267FC0212012238FD02120174
:10126300223BFD021201225DFD02120122D5D603AB
:1012730012012220D7031201222ED7031201229D2D
:10128300D70312012209C10312012229C10312014A
:101293002290C103120122A3C103120122B6C1038A
:1012A30012012246C203120122B9C203120122FE15
:1012B300C2031201222EDD031201224993031201FC
:1012C30022BA9303120122D79303120122FC930340
:1012D3001201222B94031201225A9403120122D9E0
:1012E3009503120122D7960312012219E402120177
:1012F300228AE40212012201E602120122D5E70248
:1013030012012212E902120122D6E902120122F38A
:10131300E90212012242EA0212012283EA021201C5
:1013230022C4EA02120122E8EA0212012217EB02A6
:1013330012012235CD031201228BCD0312012208A3
:10134300CE0312012242CE0312012252CE03120116
:10135300228BCE031201221EB00312012232B003EC
:10136300120122B7B1031201220CB203120122F6B9
:10137300D00312012226D103120122BCD103120190
:10138300224AD20312012268D20312012297FF01DB
:10139300120122B3D503120122E4D5031201220E56
:1013A300D6031201226CD6031201228BDC02120136
:1013B30022A0DC02120122FCDC0212012267DD0200
:1013C300120122AFDD0212012221DE021201224AA2
:1013D300DE0212012258DE02120122BADE021201DB
:1013E30022F8DE0212012213DF02120122AEDF0213
:1013F30012012257E002120122DAE0021201221343
:10140300E1021201229EE102120122F5E102120120
:101413002253E20212012265E2021201228BE2024E
:1014230012012294E202120122E5E3021201224395
:10143300C903120122AAC90312012267CA031201B6
:1014430022E5CA031201224EAC0312012281AC032E
:10145300120122B3AD03120122F7AD03120122D30D
:10146300AE0312012279D40312012257D5031201CC
:101473002263FD02120122A8FD02120122EEFD02E7
:10148300120122B7FF0212012297DA03120122B2DC
:10149300DA03120122C2DA031201224BD903120129
:1014A3002259AE0212012235AF021201227CAF0291
:1014B300120122B9AF0212012227B00212012281C6
:1014C300B002120122F1B002120122C1B1021201D3
:1014D30022B0B20212012227B302120122C3B402C4
:1014E30012012250B502120122C3B5021201223F9A
:1014F300B60212012256B6021201227BB702120172
:1015030022D5B70212012243790012012263790026
:10151300120122697A00120122B57A00120122D542
:101523007A00120122287B00120122957B0012010E
:1015330022DB7B001201223F7C0012012214820174
:10154300120122418701120122448A011201226DF4
:101553008A01120122968A01120122488B0112018B
:1015630022318D011201227C8E01120122958E01FE
:10157300120122CC93011201220594011201224986
:1015830094011201225A9501120122A0B7031201FC
:1015930022B0B703120122E3B7031201225DB8039D
:1015A30012012246B9031201222DBA03120122307D
:1015B300BA0312012269BA03120122ABBA03120160
:1015C30022C9BA0312012281DC03120122C7DC0300
:1015D300120122F3DC03E066701008A3E066700AD0
:1015E30008A3E066700408A3E06622C3E79608092F
:1015F300E7960809E7960809E79622C3E09608A349
:10160300E09608A3E09608A3E09622C008C3E096FC
:10161300F50808A3E096420808A3E096420808A349
:10162300E09645087001D3D00822080808EAC0E014
:10163300EBC0E086F0E7A4FA180986F0E7A42AFADB
:10164300180986F0E7A42AFA180986F0E7A42AFA0B
:101653001986F0E7A4FBE5F02AFA190886F0E7A457
:101663002BFBE5F03AFA190886F0E7A42BFBE5F02B
:101673003AFA18180986F0E7A4C5F02BFBE43AFA06
:101683001908E7C5F0C6A426F6E5F03BFBE43AFAF1
:101693001886F0E7A4F6E5F00826F6E43B08F6E43E
:1016A3003A08F6D0E0FBD0E0FA226016080808C634
:1016B300C313C618C613C618C613C618C613C6D591
:1016C300E0EA227009080808226016181818C6C331
:1016D30033C608C633C608C633C608C633C6D5E004
:1016E300EA22E627F60809E637F60809E637F60898
:1016F30009E637F622E026F608A3E036F608A3E06B
:1017030036F608A3E036F622E026F008A3E036F02A
:1017130008A3E036F008A3E036F022C3E697F60804
:1017230009E697F60809E697F60809E697F622C34D
:10173300E096F008A3E096F008A3E096F008A3E093
:1017430096F022E056F608A3E056F608A3E056F614
:1017530008A3E056F622E056F008A3E056F008A3EB
:10176300E056F008A3E056F022E0F608A3E0F608FE
:10177300A3E0F608A3E0F622E6F008A3E6F008A348
:10178300E6F008A3E6F022E0FAA3E0FBA3E0FCA363
:10179300E0FD22E0F8A3E0F9A3E0FAA3E0FB22E8EE
:1017A300F0A3E9F0A3EAF0A3EBF022CAC0E0E6F06D
:1017B300A308DAFAD0E0FA22CAC0E0E0A3C582CCDB
:1017C300C582C583CDC583F0A3C582CCC582C5833D
:1017D300CDC583DAE6D0E0CA22C3E498F8E499F9E8
:1017E30012181D8026C3E49AFAE49BFBE920E7E97B
:1017F30012181DE498F8E499F922C3E498F8E499DF
:10180300F912181DE498F8E499F9C3E49AFAE49BF1
:10181300FB22EB20E7CFE920E7E0B90010BB00088B
:10182300E88AF084F8AAF022E4FBC8FA22EB7022DB
:101833007B10C833C8C933C9335007C39AC3DBF21B
:1018430080069A50012ADBEAC833F4C8C933F4C9C5
:10185300FA2275F008E4C833C8C933C933C99AC931
:101863009B5004C92AC93BD5F0ECFBC833F4C8E448
:10187300C9FA22600D08C6A2E713C618C613C6D557
:10188300E0F322600C08C6C313C618C613C6D5E01E
:10189300F422700422600D18C6C333C608C633C6CB
:1018A300D5E0F41822251810AF08F518400C1519C7
:1018B3008008F51840021519D2AF2200C0D02518B0
:1018C30010AF08F518500C05198008F518500205DB
:1018D30019D2AFD0D0222518F58210AF08F51840E1
:1018E3000C15198008F51840021519D2AF85198314
:1018F300222518F582E43519F583222518F8E435F5
:1019030019F9222518FAE43519FB222518FCE435C8
:1019130019FD22E4732518C582C0E0E51934FFC51B
:1019230083C0E0E518C3958224F810AF08858319B6
:101933008582188008858319858218D2AFCEF0A3DB
:10194300E520F0A37808E608F0A3DEFAEFF0A3E5BC
:101953008124FAF8E608F0A3E608F0A3E608F0A36A
:101963000808E608F0A3E608F0A315811581D0E086
:10197300FED0E0F8158115811581E8C0E0EEC0E0E6
:10198300222518C582C0E0E51934FFC583C0E0E510
:1019930018C3958224F910AF0885831985821880AE
:1019A30008858319858218D2AFCEF0A3E520F0A372
:1019B3007808E608F0A3DEFAEFF0A3E58124FBF84C
:1019C300E608F0A3E608F0A30808E608F0A3E60893
:1019D300F0A315811581D0E0FED0E0F815811581C3
:1019E300E8C0E0EEC0E022851983851882E0A3FEFB
:1019F300E0A3F5207808E0A3F608DFFAE0A3FFE010
:101A0300A3C0E0E0A3C0E0E0A3C0E0E0A3C0E0E047
:101A1300A3C0E010AF0885821885831980088582EA
:101A230018858319D2AFD083D08202011F85198311
:101A3300851882E0A3FEE0A3F5207808E0A3F6086A
:101A4300DFFAE0A3FFE0A3C0E0E0A3C0E0E0A3C0AF
:101A5300E0E0A3C0E010AF088582188583198008F1
:101A6300858218858319D2AFD083D08222C0D02536
:101A730018C582C0E0E51934FFC583C0E0E518C38B
:101A8300958224F310AF0885831985821880088511
:101A93008319858218D2AFC8F0A3E9F0A3EAF0A3B3
:101AA300EBF0A37908E709F0A3D8FAECF0A3EDF083
:101AB300A3EEF0A3EFF0A3D0E0F0A3D0E0F0A3D027
:101AC300E0F0A3E520F0A3E5F0F0A32285198385D8
:101AD3001882E0C0E0A3E0F9A3E0FAA3E0FBA37857
:101AE30008E0F608A3DFFAE0FCA3E0FDA3E0FEA311
:101AF300E0FFA3E0C0E0A3E0C0E0A3E0F5D0A3E0F3
:101B0300F520A3E0A3F5F010AF08858319858218AB
:101B13008008858319858218D2AFD082D083D0E024
:101B2300F8D0E03274048006740280027401C0E0CD
:101B3300F4041218D9D0E01217AE2274048004748E
:101B4300028000CCC0E0EDC0E0E518C39CCCAD1929
:101B530050011D10AF068C188D1980068C188D1935
:101B6300D2AF1217BBD0E0FDD0E0FC22D083D082ED
:101B7300E9C0E0E493A3C386F0C5F095F0F908E467
:101B830093A386F0C5F095F0700BE493A3C399403B
:101B930005E9048002A3E475F002A42582F582E539
:101BA300F03583F583D0E0F9E493A3C0E0E493C078
:101BB300E022D083D082ECC0E0EDC0E0E493A3FC4C
:101BC300E493A3FDED4C600D121C01EC24FFFCED2E
:101BD30034FFFD80EFE493A3FCE493A3FDED4C609D
:101BE3000D121C40EC24FFFCED34FFFD80EFD0E030
:101BF300FDD0E0FCE493A3C0E0E493C0E022C0E0A6
:101C0300C3E49396087401939618400FE4936670A7
:101C13000808740193661870007019A3A3C3E493B2
:101C230096087401939618A3A3400DD0E0D0E0D09A
:101C3300E0021BF1A3A3A3A3A3A3D0E022C0E0C0AF
:101C4300F088F0E4936670080874019366187000D6
:101C5300A8F0A3A3700BD0F0D0E0D0E0D0E0021B3B
:081C6300F1A3A3D0F0D0E022B0
:101C6C0074F6121984EAFEEBFF8C088D09EE24340D
:101C7C00F8E43FF9E8FCE9FDEE2435121F7FFAEE9B
:101C8C002437121F7FF88508F0A4C885F00A85094F
:101C9C00F0A4250AF9EA28F8E439F97A257B001230
:101CAC00181DEA8C828D83F0FA131313541FF8EE6F
:101CBC0028F8E43FF9E8245DF582E439F583E0C0C7
:101CCC00E074075AF8D0E0B800028004C313D8FCC3
:101CDC00A2E0EE50082434F582E43F80182436123A
:101CEC001F7FF5F0EA84A8F0EE28F8E43FF9E82429
:101CFC0038F582E439F583E0F97F03021A3074F782
:101D0C00121984EAFEEBFFEE2434121F7FC0E0EEC2
:101D1C002435F582E43FF583D0E0F08E828F83A3E7
:101D2C00A3A3A3A3A3A3C082C0838E828F83A3A3E8
:101D3C00A3A3A3E0F8A3E0F9D083D082E0C398F585
:101D4C0008A3E099F509EE247F121F7F6401703E11
:101D5C00EE2480F582E43FF583C082C0838E828FAF
:101D6C0083A3A3A3A3A3E0240108A3E03400F9D028
:101D7C0083D082E0687003A3E06970127CB97D04A3
:101D8C00120C85EE247FF582E43FF583E4F0AC0879
:101D9C00AD09EEFAEFFB121C6CE9F91226D77F02A3
:101DAC00021A30C082C083851882851983E0F8A39B
:101DBC00E0F9C3EA9CEB9D5010C3EC98ED99401BE5
:101DCC00C3EA98EB995014800EC3EA98EB9940073C
:101DDC00C3EC98ED994004790180027900D083D04E
:101DEC008222EAC39CFAEB9DFB2274EF12198490B9
:101DFC00037EE064086005E06407702A9061C8E027
:101E0C0060249003ACE0F4601DE0F875F00BA4C8FE
:101E1C00AAF02AF974AE28FE740339FF8E828F83E0
:101E2C00A3A3A3E07003021F04906060E0C0E0EE87
:101E3C002468F582E43FF583D0E0F0750C29750D2C
:101E4C0005750800750900E5D914F50AE5D95403A0
:101E5C00F50E60127403650E6043E50A600AEE2409
:101E6C0067121F7F70028075900524E06401601F6B
:101E7C00121F7C60047A0480027A00E50AC39AFA85
:101E8C0095E0FB120B2F8A088B09EA4509700512A5
:101E9C000EB38064121F7C70048A0C8B0DE50A60F3
:101EAC0012850C82850D83F50BE5D9F0A3150BE596
:101EBC000B70F6121F7C604474FC250AF50A780C32
:101ECC00121B2BAC0AA90EEEFAEFFB120D3F74029B
:101EDC001218BEE97026AA08AB09121435793D8E8A
:101EEC00828F83A3A3A3A3E0FA7B00120991EEFADD
:101EFC00EFFB120CA9120D517900806F7403650E63
:101F0C006051850A107511007810121B2BAC0CADAA
:101F1C000DAA08AB09120D0374021218BEEE246848
:101F2C00121F7F64807004747F8001E0F50C780CC4
:101F3C00121B2FE50EF50C780C121B2FA90AAC08FE
:101F4C00AD099003ACE0FA7B001209677402121819
:101F5C00BE801390037EE06408600BAC0CAD0DEEFC
:101F6C00FAEFFB120DC9120EBF79017F0A021A306B
:101F7C00EE2483F582E43FF583E02274F212198497
:101F8C0074FC1218A8EAFEEBFF8909A2AFE433F542
:101F9C0008C2AF022051E0601B780C121B2BAC0B5B
:101FAC00A90EEEFAEFFB120D3974021218BE74046E
:101FBC00250BF50B7401250BF5D9850ED9E50B60B6
:101FCC0018F50A850C82850D83E0F5D9A385820C62
:101FDC0085830D150AE50A70EA75E195EE2463F820
:101FEC00E43FF97A007B00A2AFE433F50BC2AF8873
:101FFC00828983E0FCA3E0FDEC4D603A8882898302
:10200C00E0FAA3E0FB8A828B83E0FCA3E0FD8882EC
:10201C008983ECF0A3EDF08A828B83E4F0A3F08843
:10202C00828983E0FCA3E0FDEC4D700A88828983F1
:10203C00A3A3E4F0A3F0E50BA2E092AF1214359049
:10204C0004C0E004F0EE2463121F7FF8A3E0F9E86B
:10205C00496064EE2463121F7F2402F8A3E034006D
:10206C00F988828983E5822402F50CE43583F50D29
:10207C00E0F50BA3E0F50EEE2462121F7F640170F5
:10208C00369061D0E0F8121F7C60047C0480027CE6
:10209C00007480C398FA95E0FBE50B2CF8E434004F
:1020AC00F9E82402F8500109C3EA98EB99A2D26529
:1020BC00D0334003021FA29004C0E0604D9004C1D5
:1020CC00E0F89004C0E0C398500C74026509703AB3
:1020DC009004C2E060348E828F83A3A3A3A3E08517
:1020EC00188285198312212674021218F4E8122121
:1020FC00269004BFE028F0740212190EAA18AB192E
:10210C0079011209BB9004C0E4F0E508A2E092AF9B
:10211C0074041218BE7F07021A30F0A3E4F0900486
:10212C00C0E0F8228521878522C622C0E074EB121C
:10213C001A70A2AFE433F508C2AF759B00906182B0
:10214C00E0A2E05030E591A2E0502A7591FE7401B6
:10215C00652170211222CA120E0B1222B8121B3EDC
:10216C0012248174041218BEE964017005790112FD
:10217C000E47121DF6906182E0A2E5505DE591A23A
:10218C00E550577591DF90037EE064076005E064CD
:10219C0008702F1222CA74016521703E120E0B12A8
:1021AC0022B8121B3E12248174041218BEE9640179
:1021BC0070057901120E477901EEFAEFFB121F87B9
:1021CC008018E0640D70139003A0E004F064287094
:1021DC0002E4F07A00E0F9120EC5906182E0A2E60A
:1021EC00400302228DE591A2E6400302228D7591F7
:1021FC00BF90037EE064057008120DF3120DFF8092
:10220C0003120DF9752100120E53E990037FF0793A
:10221C0000120E47120BF57A017B0090037DE0F95A
:10222C00121405907803E064427056900528E0146F
:10223C00F0704EC2AF12224400782AD0E0F618D0CB
:10224C00E0F6E59F5407F87005750DFF8003750DDA
:10225C007FC4C0E07829E6F50A08E6550DF50B7445
:10226C000B780A121886D0E0250AF8906270E0A26A
:10227C00E740F8E8C333906272F0906270E0D2E00D
:10228C00F0906181E0A2E35009E5E9A2E350037507
:10229C00E9F7A3E0A2E75009E591A2E75003759195
:1022AC007FE508A2E092AF7F08021ACF8E828F835F
:1022BC00E0F8A3E0C82416F582E438F583229003F5
:1022CC00ACE0F875F00BA4C8AAF02AF974AE28FE9D
:1022DC00740339FF22C0E0C0D0C082C083906183F8
:1022EC00E0A2E05009E5BFA2E0500375BFFEE0A2FA
:1022FC00E15009E5BFA2E1500375BFFDE0A2E25039
:10230C0009E5BFA2E2500375BFFBE0A2E35009E56B
:10231C00BFA2E3500375BFF7E0A2E45009E5BFA2EA
:10232C00E4500375BFEFE0A2E55009E5BFA2E5500C
:10233C000375BFDFE0A2E65009E5BFA2E6500375C6
:10234C00BFBFD083D082D0D0D0E032C0E074F212C4
:10235C001A70E5A7A2E6500FE5A1A2E6500953A713
:10236C00BF75A1BF1223ABE5A7A2E5500CE5A1A256
:10237C00E5500653A7DF75A1DFE5A7A2E15009E5FB
:10238C00A1A2E1500375A1FDE5A7A2E2500CE5A1C5
:10239C00A2E2500653A7FB75A1FB7F01021ACF7472
:1023AC00F712198475210190037EE06406701512F2
:1023BC000D758A828B83A3A3A3A3A3A3E0FAA3E046
:1023CC00FB120DE1A2AFE433FED2AF900384E064C4
:1023DC000170187A207B0090037DE0F912152B7A9E
:1023EC00207B0090037DE0F912140B906182E0D207
:1023FC00E6F0900525E0602185C6228016900383C7
:10240C00E064017008E5C654F84405F5C653BEFCFB
:10241C001221307401652160E4EEA2E092AF7F02DC
:10242C00021A30008E238F248582288583278518F5
:10243C0082851983E0CEA3E0CF852882852783EBA4
:10244C00C9EAC8EDCBECCA75F010C3E833C8E93360
:10245C00C9EA33CAEB33CBC3EA9EF526EB9FF525CD
:10246C00B35004AB25AA26EC33CCED33CDD5F0DA42
:10247C00AE23AF242274F11219848A088B098C0ABA
:10248C008D0B9081B27808121746740F1218F478DD
:10249C000C12176C9081B2780C1217467808790CD4
:1024AC001215EE90816650107808790C12171E7870
:1024BC000812160E4014800E780C790812171E782C
:1024CC000C12160E50047901800279007F08021A52
:1024DC003074ED1219848A088B098C0A8D0B90814B
:1024EC00B2780812174674131218F4780C12176C81
:1024FC009081B2780C121746780C79081215EE40C0
:10250C00117808790C12171EAA08AB09AC0AAD0B8E
:10251C00802275100075110075120075130178106A
:10252C00790C12171E781079081216E5AA10AB1147
:10253C00AC12AD137F0C021A309081B278081217CE
:10254C006C8A828B8378081217597F04021A3074B4
:10255C00F51219848C828D83780812176C8A828B01
:10256C008378081217321225B3C3E09CF0A3E09DC8
:10257C001225A5402290819A780812176C8A828BBA
:10258C0083780812170B8A828B83A3A3A3A3E0245E
:10259C0020F0A3E0344EF080A0F088828983C3E061
:1025AC009420A3E0944E22EA2404F8E43BF98C82B4
:1025BC008D83A3A3A3A3E0FCA3E0FD8882898322DF
:1025CC0074F5121984E9FE9004DBE0FAA3E0FBEE4B
:1025DC0029F8E433F974DB28F582748039F583E04B
:1025EC002AF508A3E03BF5097808121B2B9081A271
:1025FC0012178A12243074021218BE8A088B098CA6
:10260C000A8D0B741078081216ADAA08AB097F045A
:10261C00021A3074F11219848A0C8B0D8C0E8D0FEA
:10262C0074111218F4121B4274111218F4E02401E4
:10263C00F508A3E03400F509E4F50AF50B780C79FC
:10264C000812162D908172780812176C780C790884
:10265C0012162DAA0CAB0DAC0EAD0F122430740259
:10266C001218BE8B09EA450960047A0180027A00CF
:10267C00EC2AFCE43DFD74131218F4E0F8A3E0F925
:10268C00E8FEE9FFECF8EDF97A717B0212181D886F
:10269C00088909E4F50AF50B8E828F8378081217E6
:1026AC007BECF8EDF97A717B0212181D8A088B0904
:1026BC00740578081218958E828F83A3A3A3A3E5C3
:1026CC0008F0A3E509F07F08021A30C082C083E944
:1026DC00906000F0D083D08222C0E0C0D0E8C0E08F
:1026EC00E9C0E0A2AFE433F8D2AFC2C7E8F9E8A280
:1026FC00E092AFD0E0F9D0E0F8D0D0D0E032C0E03A
:10270C0074F2121A70A2AFE433FED2AFE5BAF879C4
:10271C000090086CE8F0A3E9F0A8BB7900E4C8F9D4
:10272C0090086CE048F0A3E049F0E5B5540F900830
:10273C006BF0900867E0FAA3E0FB900866E0F912F2
:10274C001405E9EEF8EEA2E092AF7F01021ACFC2B7
:10275C00AF0200002202011FFFFFFFFFFFFFFFFF80
:10276C00C082C083E990165EF0D083D08202011F34
:10277C0074F6121918E99002F0F0900350E0F50885
:10278C0075090074027808121895AA08AB0912147E
:10279C007D9002F112312F9002F112351C606F9076
:1027AC000350E075F003A4FAABF012147D90030E05
:1027BC0012312F90030E12351C700B9002F1123453
:1027CC00ED121483804890030E1244817AFF7BFF34
:1027DC001211AD7A0080198A087509007402780804
:1027EC00121895123F2974FF12292FE4F0A3F00A56
:1027FC00900350E0F8EAC39840DD79051208539035
:10280C0002F0E0F912073F7ADD7B08120ACF023F93
:10281C00CC74F41219188A088B09EB548060479019
:10282C0002F0E0F91213ED8A0A8B0BAE0AAF0BEE35
:10283C004F602A8E828F83E064B0701A120865E9AB
:10284C0060148E828F83A3A3A3A3E0F9EE2405FA70
:10285C00E43FFB120835EEFAEFFB1213DBAA08E596
:10286C00096480FB80047A007B00022A7F74F212D8
:10287C00191874FB1218A8EAFEEBFFEE4F604574B2
:10288C00031218F4EEF0A3EFF0851882851983EC8F
:10289C00F0A3EDF074021218F4E9F0AA18AB1912B7
:1028AC000739E9F508707574131218F4E0F50AA3EA
:1028BC00E0F50BE50A450B60638E828F83122EB810
:1028CC00EE4F700575080280537A067B0012147D5A
:1028DC008A0C8B0DA80CA90DE8497005750813809E
:1028EC003B88828983E412292FEEF0A3EF122A4B46
:1028FC00E50AF0A3E50BF09002F4122A449002F4DE
:10290C006017E0FCA3E08003EAFCEBFD8C828D8376
:10291C00122A4470F38C828D83123B44A9087405EF
:10292C00024701F0A3124463A32274F2121918890E
:10293C0008890C750D007403780C121895850C0A17
:10294C00850D0B9002F3F09002F112394F122A42CE
:10295C00602E1214837900801D890C750D00740291
:10296C00780C1218959002F1123DE88882F583A339
:10297C00A3E4F0A3F009900350E0F8E9C39840D920
:10298C00900350E0FA850AF0A4CAA8F0850BF0A4D5
:10299C0028FB12147D8A0C8B0DAE0CAF0DEE4F7014
:1029AC0003022A38900350E0FC850AF0A4CCA8F06E
:1029BC00850BF0A428FD79001213C97C0080318DA1
:1029CC000C750D007403780C1218958A828B831287
:1029DC002A3D88828983E4F0122A4AA3A3F0A3F04B
:1029EC000DEDC3950840D8EE250AFEEF350BFF0C14
:1029FC00900350E0F8ECC39850288C0C750D0074C3
:102A0C0002780C1218959002F1122A3DE82402501B
:102A1C000109FAE9FB8A828B83EEF0A3EFF07D00CB
:102A2C0080BFE5089002F3F0790080027913024729
:102A3C0004123DECF922A3A31234F1EA4B22A312A7
:102A4C004463A3A3A32274F41219187900EAA2E038
:102A5C00501F75084A7509817808121B2B79107C58
:102A6C00047D007A607B1612084D74021218BEE9C0
:102A7C00F980007F040219EAC082C0839002F4122C
:102A8C00351C601C88828983A3A3E06A7003A3E0D1
:102A9C006B8882898370E8A3A3A3A31234ED80040E
:102AAC007A007B0002277574F212191874FD121843
:102ABC00A8EAFEEBFF851882851983E4F0A3F07475
:102ACC00021218F47401F01235197014120A09125A
:102ADC00147D9002F712312F1235197003022C4518
:102AEC0012322FEE2404F50AE43FF50B850A82F529
:102AFC0083E024FE603C24FC607424FE607E24FE93
:102B0C007003022B9524FE7003022BA224FE70038B
:102B1C00022BAF24FE7003022BBC24FE7003022B8D
:102B2C00C924FC7003022BEA24FE7003022C02025F
:102B3C002C3E120A099002F9EAF0A3EB122C511266
:102B4C000481E96003022C3E9002F9121B428E8232
:102B5C008F83A3A3A3A3A312448185088285098331
:102B6C001234ED12081D74021218BE022C3EAC1861
:102B7C00AD19EEFAEFFB12086B022C0DAC18AD1967
:102B8C00EEFAEFFB1208718078AC18AD19EEFAEF83
:102B9C00FB120877806BAC18AD19EEFAEFFB12083C
:102BAC007D805EAC18AD19EEFAEFFB1208838051F4
:102BBC00AC18AD19EEFAEFFB1208898044740212BE
:102BCC0018FE880C890D780C121B2B740212190E2E
:102BDC00EEFAEFFB12088F74021218BE8023AC18A9
:102BEC00AD19EEFAEFFB120895E9F87016740212A3
:102BFC0018F4E4F0803CAC18AD19EEFAEFFB1208B7
:102C0C009BE9F8E8602C8E828F83A3E06414602229
:102C1C00850A82850B83E09002F9F085188285196C
:102C2C00831234ED9002FA12312FE8A3122C5112B8
:102C3C00047BEEFAEFFB1207F374021218F4E0F9BE
:102C4C007403024701F07CF97D02850882850983B3
:102C5C001234F12274E812191874FA1218A87404B8
:102C6C001218F4ECF0A3EDF08A128B13EA2405F59C
:102C7C000EE43513F50FEA2402F510E43513F511C3
:102C8C00851082F5831234ED1205718A0A8B0B754F
:102C9C0008007C037D0079007AF97B021213C9E5E8
:102CAC000E2402F516E4350FF51774021218FE887F
:102CBC000C890D780C121B2B850E82850F83A3A318
:102CCC00A3A3E0F50C750D00780C121B2BE50E245C
:102CDC0005F50CE4350FF50D780C121B2B851682BF
:102CEC008517831237F412075774061218BE8A0C14
:102CFC008B0DE50C450D7003022E8180208518820A
:102D0C00851983E088828983F005088518828519E6
:102D1C0083A3E0C0E0122EC2D0E0F00508E50A243F
:102D2C00FBFAE50B34FFFBC3E5089AE49B40030276
:102D3C002E817E007F00851282851383A3A3A3A31B
:102D4C00E0F5097809121B2FE4F514F51578141227
:102D5C001B2B7514F67515027814121B2B9002F7A9
:102D6C00121B4274091218F4121B42E50A24F9F9D9
:102D7C00AC0CAD0D8510828511831234ED1208C593
:102D8C0074091218BEE96003022E22850E82850F8B
:102D9C0083A3A3A3A3A3A3A3E0F89002F6E0687017
:102DAC0075E0F5148E157814121B2B12447E850ECB
:102DBC0082850F83A3A3A3A3A3A3A3A31234ED1211
:102DCC0013C374021218BEE9604C9002FA12351C3F
:102DDC00703BE4F5147814121B2B7CFF7DFF7907F4
:102DEC008510828511831234ED12082F740212188B
:102DFC00BE1235227017850E82850F8312461B7406
:102E0C00041218F4123EDC123825022EB5850C8201
:102E1C00850D83122EB8A818A91988148915781451
:102E2C00121B2B74041218F4121B42851682851780
:102E3C008312312512076374041218BE8A0C8B0D91
:102E4C00EE4F7003022CFE122EC2EE122ECD123754
:102E5C00DBEF122ECDF8A3E03400F9E50C450D6044
:102E6C0003022D098882898374FFF00508122EC293
:102E7C0074FFF00508E508601A1313543F1231353E
:102E8C0012048DE960099002FA1234ED12143579AE
:102E9C00008016850E82850F8312461B740412184F
:102EAC00F4123EDC123B44790A0237AEA3A3A3A36F
:102EBC00E0FEA3E0FF22A8089002FAE0281237DB1C
:102ECC0022F00508089002FAE0282274E81219187A
:102EDC0074FA1218A874021218F412312F74041216
:102EEC0018F4ECF0A3EDF074021218F4E0240512BF
:102EFC0037C4E0F50CA3E0F50D74021218F4E024CD
:102F0C0002F510A3E03400F511851082F58312341C
:102F1C00ED120571750800750900EA24FCFEEB340E
:102F2C00FFFF8008050CE50C7002050DA808C3EE28
:102F3C0098EF940050030230E1A818A919880E8963
:102F4C000F780E121B2B851482851583A3A3A3A3C4
:102F5C00124485121B2BE5142405F50EE43515F5EA
:102F6C000F780E121B2B85148285158312312312B8
:102F7C00075774061218BE8A0E8B0FEA450F7003A2
:102F8C000230E1EA2404F516E4350FF517851682B4
:102F9C00F583E0F50CA3E0F50D85188285198312F5
:102FAC0044818A828B83A3A3A3E0F98510828511C7
:102FBC00831234ED120745E9F50960030230E17420
:102FCC00021218F41237EBF5097809121B2FE4F5ED
:102FDC0012F5137812121B2B7512F6751302781258
:102FEC00121B2B9002F7121B4274071218F4121BBF
:102FFC0042EEF9AC0EAD0F8510828511831234EDC3
:10300C001208C574091218BEE9F50960030230E113
:10301C00E508703FE4F50EF50F780E121B2B7CFFC4
:10302C007DFF79098510828511831234ED12082FEA
:10303C0074021218BE123811700D74041218F412A6
:10304C00311879110231159002F6E024029002FA3F
:10305C00F080149002FAE0FA9002F6E07900240273
:10306C005001096A497072A8089002F6E0FAE82A41
:10307C00FAE43400FBEE9AEF9B405A8516828517D2
:10308C0083E0C0E09002FB122EC7D0E0F00508856B
:10309C001682851783A3E0C0E0089002FB122EC7AE
:1030AC00D0E0F005089002F6124485121B2B124456
:1030BC007EA8081237B81213B174021218BE90020F
:1030CC00F6E02508F50874FF650C700474FF650DB7
:1030DC006003022F30E508601F9002FAE0F5F0E57E
:1030EC000884123135120493E960099002FB123402
:1030FC00ED12143579008011E509700375090A7415
:10310C00041218F4123118A9090237AE123953E51A
:10311C000CF0A3E50DF022A3A3124710AA0CAB0DE3
:10312C0022A3A3EAF0A3EBF0229002F9F07CF97D44
:10313C00028510828511831234F12274EC12191855
:10314C0074FC1218A8123C54740212190E1234E7B3
:10315C0012075D8A0C8B0DEA450D700302321F12AB
:10316C00322FA818A919881089117810121B2B7CE2
:10317C00FF7DFF790B8508828509831234ED1208D7
:10318C002F74021218BE123325700C850A82850B1F
:10319C008312382202322C8E828F83A3A3A3A3E046
:1031AC00F5127812121B2FE4F512F5137812121B7C
:1031BC002B7512F97513027812121B2B7810121B37
:1031CC002B74091218F4121B4274091218F4E0F94A
:1031DC00AC0CAD0D8508828509831234ED1208C53F
:1031EC0074091218BEE9FE70157CF97D02850882FF
:1031FC008509831234ED120499E970098020741644
:10320C006E70027E009002FA1234ED121435EE70DC
:10321C0004800B7E01850A82850B83123B41EEF9FB
:10322C00023B56EE2402F508E43FF5092274EC1239
:10323C00191874FC1218A8EAFEEBFF8C0E8D0FEE19
:10324C002405F508E43FF509740212190E8508826D
:10325C008509831234ED12075D8A0C8B0DEA450D3E
:10326C007003023315EE2402F50AE43FF50BA8189F
:10327C00A919881089117810121B2B7CFF7DFF79FE
:10328C000D1234E712082F74021218BE1233257077
:10329C000B850882850983123822807A8E828F836F
:1032AC00A3A3A3A3E0F5127812121B2F8508828525
:1032BC000983A3A3121B427512F97513027812121B
:1032CC001B2B7810121B2B74091218F4121B42744E
:1032DC00091218F4E0F91234E31208C57409121833
:1032EC00BEE9FE700F7CF97D021234E712049FE9EF
:1032FC007009802074166E70027E009002FA1234EF
:10330C00ED121435EE7004800B7E01850882850960
:10331C0083123B41EEF9023B5612352CF510A3E01B
:10332C00F511EA45112274E812191874FE1218A846
:10333C008A168B178C148D15EA2405F50CE43517B9
:10334C00F50DEA2402F50EE43517F50F850E82F51E
:10335C00831234ED1205718A088B09750B007C03FE
:10336C007D0079007AF97B021213C9750A00E50811
:10337C0014F5100424FFF508E50934FFF509805411
:10338C009002F9E0FA9002F6E0F8EA28F8E434004A
:10339C00F9E50898E50999500D9002F9E0F8E51067
:1033AC00C3989002F6F0E0F5127513007812121B18
:1033BC002B12447E9002FAE02AFAA3E03400FB12AE
:1033CC0013B174021218BE9002F6E0F89002F9E004
:1033DC0028F0050A850C82850D83A3A3123DF840C5
:1033EC00030234C89002F9E0C39508E49509400340
:1033FC000234C8AE0AEE2EFEE433FF123507AC18C9
:10340C00AD19124499E439FB12075D8A128B13AC87
:10341C0012AD13EC4D701B750B011234F7123B45BA
:10342C009002FA122A446003121435A90B7402029A
:10343C0037B0851682851783A3A3A3A3E0F50B7879
:10344C000B121B2FE4F512F5137812121B2B7512AD
:10345C00F67513027812121B2B9002F7121B427492
:10346C00071218F4121B42A910850E82850F8312C5
:10347C0034ED1208C574091218BEE9F50B709B9057
:10348C0002FA12351C600302338CE4F512F5137842
:10349C0012121B2B7CFF7DFF790F850E82850F830B
:1034AC001234ED12082F74021218BE12352260036A
:1034BC0002338C1234F71238260234397CF97D022F
:1034CC00850E82850F831234ED1204A5E960030288
:1034DC00342C7900023439AC0CAD0D850A82850B85
:1034EC00831234F122E0FAA3E0FB22123507E0FA52
:1034FC00A3E0F9EA85148285158322850C82850D5B
:10350C0083E02EF8A3E03FF988828983229002F7AA
:10351C0012461FE8492212352CF8A3E0F9E849229B
:10352C009002FAEAF0A3EBF09002FAE02274E812AF
:10353C00191874FA1218A874041218F412312F8C7A
:10354C00168D1774041218F4E02405F50EA3E0345C
:10355C0000F50F74041218F4E024021237C412346C
:10356C00ED1205718A0A8B0B7F007E00A818A91931
:10357C00880889097808121B2B850E82850F83A376
:10358C00A3A3A3E0F5088E097808121B2BE50E24E3
:10359C0005F508E4350FF5097808121B2B850E820A
:1035AC00850F83A3A31237F412075774061218BEA3
:1035BC008A0C8B0D80291237E5F00F1237E5F00FCE
:1035CC009002F6123B30121B2B12447EEFF812378E
:1035DC00B81213B174021218BE9002F6E02FFFE578
:1035EC000C450D7003023674851882851983123CC4
:1035FC0066A3A3A3E0F98514828515831234ED121A
:10360C000745E9FEE50C2404F510E4350DF511EE43
:10361C00705074041218F41237EBF5087808121B6A
:10362C002FE4F508F5097808121B2B7508F67509B7
:10363C00027808121B2B9002F7121B427407121807
:10364C00F4121B42E50A24FAF9AC0CAD0D85148278
:10365C008515831234ED1208C574091218BEE9FEE3
:10366C006039123801123B44EF700302379B900211
:10367C00FAE0F5F0EF849002F9F07CF97D02851404
:10368C00828515831234ED1204ABE960099002FBBC
:10369C001234ED12143579000237AE8F08EF703BFF
:1036AC00E4F512F5137812121B2B7CFF7DFF7911B8
:1036BC008514828515831234ED12082F74021218AA
:1036CC00BE12381170091238011238250237AE902B
:1036DC0002F6E024049002FAF080359002F6E0F84D
:1036EC009002FAE0FAE82404FCE43400FDEC6A4DA4
:1036FC00600302367AE50A24FAFAE50B34FFFBE59F
:10370C000828F8E43400F9EA98EB99500302367A69
:10371C00851082851183E0C0E09002FBE02FF8A3B6
:10372C00E034008882F583D0E0F00F85108285119B
:10373C0083A3E0C0E01237D2D0E0F00F740212186D
:10374C00FE880889097808121B2B74021218F412CF
:10375C001B42850E82850F8312312312076374047A
:10376C001218BE8A0C8B0DEA450D70030235C2741B
:10377C00021218F4E0C0E01237D2D0E0F00F74025D
:10378C001218F4A3E0C0E01237D2D0E00235CAEE32
:10379C0070027E0A850E82850F83123807123B4415
:1037AC00EEF974061218BE7F100219EA9002FBE0C3
:1037BC0028FAA3E03400FB22F514A3E03400F5153D
:1037CC00851482F583221237D6229002FBE02FFA61
:1037DC00A3E034008A82F583221237D674FF2212BA
:1037EC003953A3A3A3A3E022124710850E82850FA1
:1037FC00831234F12285108285118312461F85169F
:10380C0082851783229002FBEAF0A3EBF09002FB77
:10381C0012461FE84922123B4AE8F0A3E9F079115D
:10382C002274EA12191874FE1218A88A088B098CD3
:10383C00128D13EA2405FEE43509FFAC18AD198E80
:10384C00828F831234ED12075D8A0C8B0DEE2406E9
:10385C00F50EE43FF50FEA450D7003023925E50836
:10386C002402F50AE43509F50B8A828B83A3A3A302
:10387C00E0A2E550288518828519831234ED1208D0
:10388C00B98A108B11EA4511602079121234E38544
:10389C001082851183121916E9F50C707F850E8242
:1038AC00850F83E0600979528011750C0E806D854F
:1038BC000882850983A3A3A3A3E0F9E4F508F5091D
:1038CC007808121B2B8E828F83A3A3E0F50878084F
:1038DC00121B2B8E828F83A3A3A3121B428E828F6B
:1038EC00831244811234E71208CB74061218BEE915
:1038FC00F50C7011850E82850F83E0702D1234E764
:10390C001204B180257416650C7011750C007418B6
:10391C001218F412394FE48010750C0112461785F9
:10392C001282851383E8F0A3E9F0850E82850F835C
:10393C00E0600479008002A90C74021218BE7F0E9C
:10394C000219EA12395322E0F8A3E0F583888222A7
:10395C0074EC12191874F71218A88A0A8B0B8C10B5
:10396C008D11EA2405FEE4350BFF750C00AC18AD87
:10397C00198E828F831234ED12075D8A088B09EA47
:10398C0045097003023B1BE50A2402F50A500205A7
:10399C000B8A828B83A3A3A3E0A2E5502F85188208
:1039AC008519831234ED1208B98A0C8B0DEA450D7A
:1039BC00604F7912AC08AD091234E7850C82850D85
:1039CC0083121916E9F50C6003023B1E850A8285E9
:1039DC000B83E0F508A3E0F509AA08FB1208ADEA91
:1039EC004B70197AFF7BFF1208ADEA4B7003023B58
:1039FC00118A828B83E508F0A3E509F07508008035
:103A0C0008750C0E023B1E05089002F3E0F8E50861
:103A1C00C3984003023B1185080E750F00740378A0
:103A2C000E1218958A828B83A3A3E0250EF8A3E0CF
:103A3C00350F123EE570D08E828F83123B391231D6
:103A4C002F8E828F83A3A3123B3912312DEE2404C7
:103A5C00F508E43FF509850882F583E088828983BF
:103A6C00A3A3A3A3F0A3E4F0EE2405F50EE43FF525
:103A7C000F850E82F583123B39A3A3A3A312312D1C
:103A8C007512077513007812121B2BEEFCEFFD74E8
:103A9C00041219061213B174021218BEE4F512784E
:103AAC0012121B2B850882850983E0FC7D00791797
:103ABC001234E712082F74021218BE74071218F48D
:103ACC0012312F74071218F4E0FA4B603D8508820E
:103ADC00850983123B30121B2B850E82850F8312B6
:103AEC0044811213B174021218BE740212190E1210
:103AFC0034E71204B7E9602674071218F41234ED97
:103B0C001214358019750C098008750C1180037519
:103B1C000C01124617851082851183123B44A90CA7
:103B2C0074098028E0F5087509007808221234F130
:103B3C008882898322123B4AE8F0A3E9F022E0F85C
:103B4C00A3E0F9850E82850F832274041218BE7FC0
:103B5C000C0219EA74EC121918123C54751000EE90
:103B6C002402F50CE43FF50D850C82F5831234ED3F
:103B7C001208AD8A088B09EA45097003023C3885A6
:103B8C000A82850B83E064016003023C2DAC08AD16
:103B9C0009AA0AAB0B1208A1E9606E850882850997
:103BAC0083122EBAEE2406F50AE43FF50B8E828FB3
:103BBC0083A3A3121B428E828F83A3A3A3A3121BE6
:103BCC0042850A82850B83121B4279188E828F8361
:103BDC00123C661234ED1208CB74061218BEE9F8CA
:103BEC00741668700B850A82850B83E4F0A380142D
:103BFC00E860128E828F831234ED850E82850F83DE
:103C0C00EAF0A3EBF088108018780E121B2BAC088E
:103C1C00AD09EEFAEFFB1208A774021218BEE9F513
:103C2C0010AA08AB091208B3E510700E850C82853A
:103C3C000D831234ED1204BD8009741665107003E7
:103C4C00751000A910023B5BEAFEEBFF8C0E8D0F8A
:103C5C00EE2405F50AE43FF50B22124710850C8281
:103C6C00850D832274EA1219187508007509007EF7
:103C7C00007F00750A00EC2402F510E43DF511807C
:103C8C0035EC65087003ED65096003023D258882FB
:103C9C008983A3A3E06A7003A3E06B707C8882899C
:103CAC0083A3A3A3A312461BEE28FEEF39FFEA2839
:103CBC00FAEB39FB050A123DF5503A850A0C750DE5
:103CCC00007403780C121895851082851183123DAF
:103CDC00E8123EE5601FE508450970A58C088D09C2
:103CEC0088828983122EB888828983A3A3E02EFA56
:103CFC00A3E03F80BEE50AC394025003023DE37586
:103D0C000800750900EE4F6010EEFAEFFB12142F4D
:103D1C008A0E8B0FEA450F70057900023DE5750B95
:103D2C0000023DB8850B0C750D007403780C12184D
:103D3C0095851082851183E0250CF50CA3E0350DDB
:103D4C00F50DE50C2406F514E4350DF515851482F6
:103D5C00F583123EEA6042E50C2404F512E4350DBD
:103D6C00F513851282F583121B42E50E2508FAE540
:103D7C000F3509FB1213B174021218BE851282851D
:103D8C001383E02508F508A3E03509F509851482AD
:103D9C008515831234ED121435E50B600D7C087D0E
:103DAC00007900AA0CAB0D1213C9050BE50BC395DA
:103DBC000A5003023D3085108285118312461B8800
:103DCC00828983A3A3A3A3A3A3E50EF0A3E50F12FB
:103DDC002A4BEEF0A3EFF0790102394A123DEC22A6
:103DEC00E0250CF8A3E0350D229002F3E0F8E50A8B
:103DFC00C3982274F01219188A0E8B0F8C0A8D0B33
:103E0C00750D00750C0080507916EE2406F508E44B
:103E1C003FF5098E828F83A3A3121B428E828F8360
:103E2C00A3A3A3A3121B42850882850983121B42FC
:103E3C00850E82850F83A3A31234ED1208CB740672
:103E4C001218BEE9F50D7416650D706C8508828527
:103E5C000983E4F0A3F0050C9002F3E0F8E50CC341
:103E6C00985066AA0C8A0875090074037808121811
:103E7C0095850A82850B83A3A3123F34E8FEE9FFE4
:103E8C008E828F83123EEA6040EA2401F508E43406
:103E9C0000F5099002F3E065087002E509601488EA
:103EAC00828983A3A3A3A3A3A3A3A312351C60039A
:103EBC00023E147918023E16E9609B1246177410E4
:103ECC001218F4123EDC123B44A90D7F080219EAC9
:103EDC00E0FAA3E0F5838A8222F98882898312476B
:103EEC0010EC4D2274F61219187C0080010C900312
:103EFC0050E0F8ECC398501E8C08750900740278D9
:103F0C0008121895123F29E06A7003A3E06B70DD6C
:103F1C00E8FAE9FB80047A007B00023FCC9002F1C6
:103F2C00123F348882898322E02508F8A3E0350902
:103F3C00F92274F21219188A088B09750A00802765
:103F4C008E828F83A3A3A3A3122A4260031214357B
:103F5C007C087D007900EEFAEFFB1213C98E828F7C
:103F6C0083E4F0A3F0050A123DF55027850A0C7581
:103F7C000D007403780C121895850882850983A3AB
:103F8C00A3E0250CFEA3E0350DFF8E828F83123546
:103F9C001C70AD85088285098374FFF0A3F002477D
:103FAC000474F612191812085F8A828B83E5824515
:103FBC008370067A007B008007A3A3A3A31234EDC1
:103FCC007F020219EA74F412191889088C828D8305
:103FDC00E06402703C1245BAFEA3E0F9EEF87402FC
:103FEC006870037429697029750A02750B00780AC8
:103FFC00121B2B74101218F4121B4274101218F4AA
:10400C00121B42A9081211BF74061218BEE9F980DE
:10401C00027901022A7F74E812191874FB1218A88D
:10402C00E9851882851983F08A168B17ECFEEDFF53
:10403C007510008E828F83A3A3A3E0A2E4502D748D
:10404C001D1218F41234ED1208B98A828B83E582A2
:10405C0045837003024459790AEEFCEFFDAA16ABB6
:10406C0017121916E9F510600302445C741F12183C
:10407C00F4E0F508A3E0F50974211218F4E0F50A50
:10408C00A3E0F50B74231218F4E0F50EA3E0F50F82
:10409C008E828F83E0640260030243FAA312461BF4
:1040AC00850882850983A3858212858313EE2406F5
:1040BC00F50CE43FF50D88828983124499F514E4DC
:1040CC0039F5157814121BB5010000280128FC40A5
:1040DC0007000228C14103282F410029F042012981
:1040EC001B430229BC420329F04204299443FA439E
:1040FC00E50E450F60030243F5850C82850D831296
:10410C00461BE8FAE9FB8A828B83E0850A82850BE1
:10411C00831244A4121B2B8A828B83A3E0FCA3E0A2
:10412C0002437EE50E450F60030243F5850A828546
:10413C000B837401F012448E850882850983F07C10
:10414C00007D008E828F83A3A3A3A3E02401FAA396
:10415C00E03400FB12075DEA4B60408A828B83E0FF
:10416C002402F8850A82850B83E028F0EA2404F8FF
:10417C00E43BF988828983E085128285138312449B
:10418C00B21244A4121B2B8A828B83A3124481E5A6
:10419C00082403FAE43509FB024383850A82850B64
:1041AC0083E02404F07C047D007900AA12AB131286
:1041BC0013C902445CE50E450F60030243F512443B
:1041CC008EFEA3E0FF850A82850B837404F0EE85D6
:1041DC000882850983F0EF851282851383F07403BE
:1041EC0012190EEEFAEFFB12075D8A0C8B0DEA45E5
:1041FC000D700302429F8A828B83A3A3122EB87484
:10420C00011218FE880E890F780E121B2B740512E2
:10421C0018F4121B427CFF7DFF1207637404121802
:10422C00BE8B0FEA450F7033850C82850D831244CB
:10423C0085121B2B850C82850D83A3121B427C02DD
:10424C007D007AD77B8112055F74041218BEE97069
:10425C000A74011218F474FFF0A3F08E828F83E0BD
:10426C0064027039750C02750D00780C121B2B8EC4
:10427C00828F83A3124481E5082404FAE43509FBF8
:10428C001213B174021218BE850A82850B83E024C6
:10429C0002800974011218F4EEF0A3EFF07401120D
:1042AC0018F412447374011218F412446A0243EFA6
:1042BC00E50E450F60030243F5850C82850D8312D4
:1042CC004709AA16AB171211C5850A82850B837490
:1042DC0002F0850882850983EAF0851282851383B2
:1042EC00EB0243F2E50E450F60030243F512448ED8
:1042FC00F8A3E0F9850A82850B837402F0E885083F
:10430C0082850983F0E98512828513830243F28545
:10431C000C82850D831234ED1213ABEAFAF8C395B7
:10432C000EE4950F405CE8650E450F70047A008032
:10433C0021851882851983E0FCE50E2CFCE4350FF1
:10434C00FDC3EC98ED94005003E08005E50ECAC364
:10435C009AFAEA850A82850B83F08A0A750B007833
:10436C000A121B2B850C82850D83E0250EFCA3E025
:10437C00350FFDAA08AB091213B174021218BE0254
:10438C00445C75100702445CE50E450F705B850CB0
:10439C0082850D8312461B850A82850B837407F078
:1043AC008882898312446B124463E08512828513E0
:1043BC0083F0E82402FAE439FB8A828B831244737B
:1043CC008A828B8312446AA3A3122A4A124478F07D
:1043DC00E82405F850010988828983124478A312D5
:1043EC0044B2A3A3A3A3F0806775100B8062741D65
:1043FC001218F41234ED12085F8A828B83E5824521
:10440C0083604A12461B880C890DE8450D603E748A
:10441C00251218F4E0F5107810121B2F780E121BD1
:10442C002B780A121B2B7808121B2B74071218F40A
:10443C00E0F9EEFCEFFDAA16AB17850C82850D8317
:10444C0012191674071218BEE9F510800375100EB8
:10445C00A91074050237B0F088828983A322A3E0E7
:10446C00850882850983221244B9F0221244B9A32B
:10447C00A3229002F712471022E0F50E750F007878
:10448C000E22850C82850D83123953E022E0FAA3AB
:10449C00E0F8E4C8F9EA2822F08A828B83E0F50A76
:1044AC00750B00780A221244631244B922E0850885
:1044BC0082850983A3A32274EE12191874FE1218B4
:1044CC00A88A088B09ECFEEDFF890AAC18AD19EE31
:1044DC00FAEFFB12075D8A0C8B0DEA450D70030297
:1044EC0045AB8518828519831234ED12085F8A82D8
:1044FC008B83E582458370030245A6A3A312461B5A
:10450C00880E890FE8450F70030245A67414121823
:10451C00F4E0F510A3E0F511E50AF50B780B121B8E
:10452C002F74191218F4121B427810121B2B741BC7
:10453C001218F4E0F9AC0CAD0DAA08AB09850E828B
:10454C00850F8312191674051218BEE9F50B7052FB
:10455C0074FE650A604C850C82850D83E0640270E4
:10456C00411245BAFAA3E0F9EAF8740268700374D0
:10457C002969702E851082851183124499F50CE4FB
:10458C0039F50D780C121B2BEEFCEFFDAA08AB09CC
:10459C001208E374021218BE8008750B0E800375A6
:1045AC000B01A90B74021218BE7F0A0219EAA3129E
:1045BC00461F88828983E02274F612191874FE1241
:1045CC0018A8740C1218F412461BE8851882851969
:1045DC0083F074011218F4E9F0E4F508F509780891
:1045EC00121B2B7508027808121B2B74041218FE70
:1045FC00880889097808121B2B79FE1208CB7406DF
:10460C001218BE74021218BE023FCC8E828F831217
:10461C00461F22E0F8A3E0F92274F7121918EAFEFB
:10462C00EBFF890890030E1244811211C5EA540263
:10463C00600BA908EEFAEFFB120751800279017F9B
:10464C00010219EA74F212191874FE1218A8EAFE83
:10465C00EBFF890A7401650A60147402650A600331
:10466C000246FF7901120AEDE960030246FFEEFAF9
:10467C00EFFB1208ADEA4B60031208B3A818A91996
:10468C00880889097808121B2B75080275090078AF
:10469C0008121B2B7508DD7509817808121B2B7C01
:1046AC00FF7DFF7A017B0012075774061218BE803B
:1046BC0038850882850983A3A3A3A3A3A312470962
:1046CC00EEFAEFFB1211ADE4F50CF50D780C121BA4
:1046DC002B74021218F4121B427CFF7DFFAA08AB4C
:1046EC000912076374041218BE8A088B09E5084581
:1046FC000970BE74021218BE7F060219EA123953F1
:10470C0012471022E0FCA3E0FD2274F41219188A5F
:10471C00088B09ECFEEDFF90165EE0F4604B7A0915
:10472C007B001213D5EA4B60408A828B8374B1F004
:10473C00A3E4124778F08A828B83A3A3E508F0A345
:10474C00E509124778A3EEF0A3EFF0740C1218F4FD
:10475C0012461B8A828B83A3A3A3A3A3A3A3123BFE
:10476C004490165EE0F91213E1022A7FF08A828BE4
:10477C0083A3A3A3A32274EE12191874FA1218A817
:10478C008A0A8B0BE9FF8C088D097E00850A0C8543
:10479C000B0D780C121B6F0004105E4ACA47ED47D4
:1047AC000C482F4852487548A648C948E04810495B
:1047BC00BF49E249054A334A5E4A5E4A39497401A7
:1047CC006F7019850882850983E0C39403500D85A9
:1047DC000882850983E090174AF080027E18024A0D
:1047EC008674026F7015850882850983E0F8A3E052
:1047FC00F990174BE8F0A3E9F080027E18024A8684
:10480C0074016F7019850882850983E0C394025086
:10481C000D850882850983E0900751F080027E188F
:10482C00024A8674016F7019850882850983E0C37A
:10483C009405500D850882850983E0900752F0801D
:10484C00027E18024A8674016F70198508828509E8
:10485C0083E0C39402500D850882850983E090079C
:10486C0053F080027E18024A8674106F7027750C04
:10487C0010750D00780C121B2BAC08AD097A547B0B
:10488C00071213B174021218BE8A0C8B0D850C82A0
:10489C00850D8380027E18024A8674016F7019851B
:1048AC000882850983E0C39402500D85088285092E
:1048BC0083E0900764F080027E18024A8674016FD0
:1048CC00700D850882850983E090174EF080027E7A
:1048DC0018024A8674046F70269081A2780C121705
:1048EC006C850882850983780C1215FE5011850899
:1048FC00828509831217969007661217A280027E92
:10490C0018024A86EF70211206F7E9701312115340
:10491C00E9F50D7950121501E9F50C121141800AD7
:10492C009007F97401F080027E18024A8674076FB2
:10493C00707C750E06750F00780E121B2B85088285
:10494C00850983A3AC82AD8374021219061213B7C6
:10495C0074021218BE8A108B1185100E85110F7CF3
:10496C00007D00AA18AB19850882850983E0F9122D
:10497C0010E7E9F50CE50CC3940A502E1206F7E982
:10498C007015A90C121159E9F50E7950121501E99F
:10499C00F50D1211418019A80C790074FA28F582D2
:1049AC00740739F5837401F080067E0280027E184C
:1049BC00024A8674016F7019850882850983E0C3E9
:1049CC009402500D850882850983E0900765F0807C
:1049DC00027E18024A8674016F7019850882850957
:1049EC0083E0C3940A500D850882850983E09017F3
:1049FC004DF080027E18024A8674016F702585087E
:104A0C0082850983E0C39407401985088285098350
:104A1C00E0C39411500D850882850983E090174FEF
:104A2C00F080577E18805374016F70229007F8E065
:104A3C00F50C850882850983E09007F8F0E50C7089
:104A4C00399007F8E064017031121141802C7E1806
:104A5C008028C3E50A9427E50B9400501B74026F61
:104A6C007016850882850983E0FCA3E0FDAA0AABD9
:104A7C000B120577E9FE80027E02EEF9740612181D
:104A8C00BE7F0A0219EA74EC12191874DA1218A80B
:104A9C00890D8A128B138C0A8D0B743A1218F4E060
:104AAC00F50C908132AC18AD1974061217BBAC180A
:104ABC00AD19AA12AB13A90D1210E7E9FEEEC394BF
:104ACC000A4003024C06EEF9121123E9FF90174A33
:104ADC00E064027004740180027400F50878081216
:104AEC001B2FAD0CEFFCEEF9AA0AAB0B121195744F
:104AFC00011218BE7C147D00790074121219061272
:104B0C0013C98A0E8B0F850E08850F0974121219A2
:104B1C000E7A1075F006EEA42424F91214FBE97039
:104B2C003C7C1079FF7412121906121429E9702DAD
:104B3C0074221218F4AC82AD837A0475F006EEA4DC
:104B4C002425F91214FBE9F508741212190EEFA2C0
:104B5C00E0E433F9AA0AAB0B120601E9F874061269
:104B6C00190E7A0C74702EF91214FBE97079740614
:104B7C00121906121117750E00E50EC39404506736
:104B8C00A80E7900E875F003A4C8AAF075F000A48B
:104B9C002AFA75F003E9A42AF974061218F4E582CE
:104BAC0028F508E58339F509850882850983E0F83D
:104BBC00A3E0F9E849602C850882850983A3A3E06A
:104BCC00F5107511007810121B2B8508828509834E
:104BDC00E0FCA3E0FDAA0AAB0B1208D17402121878
:104BEC00BEE9F8050E8092EFA2E1500E900750E05E
:104BFC00F9AA0AAB0B1208D7E9F87404650C700F0C
:104C0C0090174AE064027007AA0AAB0B12118F7955
:104C1C000074261218BE7F0C0219EA74F7121918C8
:104C2C00EAFEEBFF1206F7E970679007F9E0640102
:104C3C00701B121153E9F5089007F97400F07C0A07
:104C4C007D0079007AFA7B071213C9803975080048
:104C5C00E508C3940A502FA808790074FA28F58245
:104C6C00740739F583E064017018A908121159E929
:104C7C00FAA808790074FA28F582740739F5837458
:104C8C0000F0050880CA7950121501E9F5081211D7
:104C9C00417F010219EA74F2121918890BEAFEEB32
:104CAC00FF8C088D09750A0AE50B600C1460091459
:104CBC006044146064024D47EEFAEFFB121135E9C3
:104CCC00F50AE50AC3940A5072E5084509606C754B
:104CDC000C06750D00780C121B2BEEFCEFFDAA08D0
:104CEC00AB091213B174021218BE8A0C8B0D850C11
:104CFC0082850D838045EEFAEFFB12112FE9F50A40
:104D0C00E50AC3940A5034E5084509602EAA08AB9D
:104D1C0009A90A121129E98022EEFAEFFB12113BC4
:104D2C00E9F50AE50AC3940A5011E5084509600B38
:104D3C00AA08AB09A90A121129E9F8A90A7F0602E7
:104D4C0019EA74F21219188A0C8B0DE9FF7E15748E
:104D5C00FF650C700474FF650D702A750800E5087A
:104D6C00C3940A5014EFFC7A027B00A908121105B7
:104D7C00E960027E00050880E5EF60627A7D7B11B8
:104D8C00120B118059AA0CAB0D120AE18A0A8B0B7B
:104D9C00850A08850B09E508450960407C007D0003
:104DAC00E5082405FAE43509FB850882850983A307
:104DBC00A3A3A3E0F91210E7E9F50AE50AC3940AE4
:104DCC00500EEFFC7A027B00A90A121105E97E0055
:104DDC00EF600BAA08AB0912117D80027E14EEF96C
:104DEC007F060219EA74EE1219188A0E8B0F8C0AC0
:104DFC008D0B74121218F4E0F50CA3E0F50D750888
:104E0C001574FF650E700474FF650F701E7E00EE46
:104E1C00C3940A5061AC0CAD0DAA0AAB0BEEF9129F
:104E2C00110BE960037508000E80E4AA0EAB0F129B
:104E3C000AE18A108B11AE10AF11EE4F60357C0079
:104E4C007D00EE2405FAE43FFB8E828F83A3A3A39F
:104E5C00A3E0F91210E7E9F509E509C3940A501625
:104E6C00AC0CAD0DAA0AAB0BA90912110BE9750814
:104E7C00008003750814A9087F0A0219EA74F71256
:104E8C001918EAFEEBFF90076AEEF0A3EFF090071B
:104E9C0050E0FC7D007A267B00120577E9F508903E
:104EAC000750E0F912083B7F010219EA74F012195D
:104EBC001874EC1218A88A0C8B0D850C82850D8346
:104ECC00A3A3E024FA700302533124FD70030251B2
:104EDC00A6147003024FA814601024FD7003025135
:104EEC004E1470030251E5025344AE0CAF0D900703
:104EFC006AE0F8A3E0F9E849606690076AE0F8A375
:104F0C00E0F5838882E0F8A3E0F9E8496052EE24EA
:104F1C000CF582E43FF583E0F5087808121B2FEEC0
:104F2C00240BF582E43FF583E0F98E828F83A3A3F3
:104F3C00A3A3A3A3A3A3A3E0FCA3E0FDEE2403FA85
:104F4C00E43FFB90076AE0F8A3E0F5838882E0F881
:104F5C00A3E0F583888212191674011218BE8039E9
:104F6C008E828F83A3A3A3A3A3A3A3A3A3121B42E9
:104F7C0090076612178A12061374021218BEE960A3
:104F8C001879018E828F83A3A3A3A3A3A3A3A3A3A6
:104F9C00E0FAA3E0FB12060DE9025344AE0CAF0D90
:104FAC007508008E828F83A3E060030250D08E823E
:104FBC008F83A3A3A3A3A3E0A2E040030250D0904D
:104FCC000804E0F8A3E0F9E84960030250D07C0E35
:104FDC007D007900AA18AB191213C98A0A8B0BAA87
:104FEC000AAB0BEE240CF582E43FF583E0F8A3E06A
:104FFC00F9E8496036750A06750B00780A121B2B06
:10500C00EE240CF582E43FF583E02410FCA3E0349D
:10501C0000FD74021219061213B174021218BE8A22
:10502C000A8B0B850A82850B83804F8E828F83A31C
:10503C00A3A3E0FAA3E0FB120AE18A0E8B0F850E04
:10504C000A850F0BE50A450B602D750E06750F00D2
:10505C00780E121B2BE50A2405FCE4350BFD7402BB
:10506C001219061213B174021218BE8A0E8B0F8518
:10507C000E82850F8380030253448E828F83A3A3F9
:10508C00A3A3A3E0A2E25004D2F08002C2F0A2F0EB
:10509C00E433F87900740C1218F4E048F0A3E049FA
:1050AC00F0EEFCEFFDAA18AB1912111DE970127A83
:1050BC00027B00900750E0F9121405E979000253C5
:1050CC004675081590076AE0F8A3E0F9E849606FA7
:1050DC0090076AE0F8A3E0F5838882A3A3E0F8A325
:1050EC00E0F9E84960598E828F83A3E0FC79018E48
:1050FC00828F83A3A3A3E0FAA3E0FB90076AE0F8F6
:10510C00A3E0F5838882A3A3E0F8A3E0F58388826B
:10511C00121916E5086028AC0879038E828F83A3D8
:10512C00A3A3E0FAA3E0FB90076AE0F8A3E0F58301
:10513C008882A3A3E0F8A3E0F583888212191602F3
:10514C005344AE0CAF0D90076AE0F8A3E0F9E849C0
:10515C00604590076AE0F8A3E0F5838882A3A3E09A
:10516C00F8A3E0F9E849602F850C82850D83A3E054
:10517C00FC79028E828F83A3A3A3E0FAA3E0FB90B9
:10518C00076AE0F8A3E0F5838882A3A3E0F8A3E024
:10519C00F5838882121916025344AE0CAF0D7C00B5
:1051AC007D00EE2404FAE43FFB8E828F83A3A3A33D
:1051BC00E0F91210E7E9F508E508C3940A5017EE78
:1051CC00240AFCE43FFD7A0475F006E508A42425C6
:1051DC00F91214F5E9F8025344AE0CAF0D900765C3
:1051EC00E0601990174DE0F98E828F83A3A3A3E0A2
:1051FC00FAA3E0FB12060DE9F802534490174AE0BB
:10520C00701679058E828F83A3A3A3E0FAA3E0FB2B
:10521C0012060DE9F80253448E828F83A3A3A3E0F8
:10522C00FAA3E0FB120AE18A0A8B0B850A08850BAC
:10523C0009E508450970030253448E828F83A3A3AA
:10524C00A3A3A3A3A3E0A2E0506D850882850983E4
:10525C00A3A3A3A3E060608E828F83A3A3A3A3A3C5
:10526C00A3A3A3A3E0F50AA3E0F50B7409780A1233
:10527C001886E50A5401F8E50B5400F9E8A2E04061
:10528C0036740E12190EE5082405FAE43509FB856F
:10529C000882850983A3A3A3A3E0F91210E7E970A0
:1052AC001679038E828F83A3A3A3E0FAA3E0FB12EB
:1052BC00060DE9F8025344EE2405FCE43FFD850895
:1052CC0082850983A3A3A3A3E0F98E828F83A3A372
:1052DC00A3E0FAA3E0FB12118990076AE0F8A3E0BF
:1052EC00F9E849605390076AE0F8A3E0F5838882F7
:1052FC00A3A3E0F8A3E0F9E849603D7C0079008EB7
:10530C00828F83A3A3A3E0FAA3E0FB90076AE0F8E3
:10531C00A3E0F5838882A3A3E0F8A3E0F583888259
:10532C001219168013AE0CAF0D8E828F83A3A3A31C
:10533C00E0FAA3E0FB1210E1790174141218BE7F9D
:10534C00080219EA74F512191874F21218A88909CE
:10535C00EAFEEBFF8C0AAC18AD197A0E75F006E577
:10536C0009A42420F91214FBE9705F7C0679FFAACA
:10537C0018AB19121429E97051740C1218F4E0F8D6
:10538C00A3E0F9E8F508E50A6005EE42088004EEB2
:10539C00F45208A8087900740C1218F4E068700331
:1053AC00A3E0696021A8087900740C1218F4E8F0E5
:1053BC00A3E9F0AC18AD197A0E75F006E509A42432
:1053CC0020F91214F5E9790180027900740E121893
:1053DC00BE7F030219EA74F012191874E61218A8A9
:1053EC00890B8A0C8B0DECFEEDFF740C12190E7AE6
:1053FC000E75F006E50BA42420F91214FBE96003EA
:10540C000255127C0679FF740C121906121429E944
:10541C006003025512AC18AD197A0C7470250BF997
:10542C001214FBE9600302550E750A00AA18AB1999
:10543C00121117E50C450D702E7C0C7900AA18ABD7
:10544C0019121429E960030254F47C0C7D007900D4
:10545C00AA18AB191213C98A088B09850882850909
:10546C0083750A010254F4AC18AD19AA0CAB0D12D9
:10547C0011118A0E8B0F850E08850F09E508450959
:10548C007030EE4F601BAC18AD197A007B00121116
:10549C00118A0E8B0FA80EA90F88088909E849708C
:1054AC000479008063850882850983E50CF0A3E507
:1054BC000DF0850882850983A3A3E0F87900EE68D6
:1054CC007002EF696022EEC0E0850882850983A333
:1054DC00A3D0E0F0EE4F700D85088285098374002F
:1054EC00F0A37400F0750A01E50A6016AA18AB194E
:1054FC00121117AC18AD197A0C7470250BF9121423
:10550C00F5E9790180027900741A1218BE7F08023D
:10551C0019EA74F61219188A088B097E00EEC394E6
:10552C00045050EEF87900E875F003A4C8AAF075A1
:10553C00F000A42AFA75F003E9A42AF9EC28F58204
:10554C00ED39F583E065087004A3E065097021EE80
:10555C00F87900E875F003A4C8AAF075F000A42A45
:10556C00FA75F003E9A42AF9EC28FAED39FB800767
:10557C000E80AA7A007B007F020219EA74F71219D6
:10558C00187C00ECC394044003025637ECF8790005
:10559C00E875F003A4C8ADF075F000A42DFD75F00E
:1055AC0003E9A42DF9EA28F582EB39F583E0F4FE42
:1055BC00A3E0F4FFECF87900E875F003A4C8ADF0B3
:1055CC0075F000A42DFD75F003E9A42DF9EA28F57A
:1055DC0082EB39F583EEF0A3EFF0ECF87900E87587
:1055EC00F003A4C8ADF075F000A42DFD75F003E92F
:1055FC00A42DF9EA28F582EB39F583A3A3E0F4C0D6
:10560C00E0ECF87900E875F003A4C8ADF075F00093
:10561C00A42DFD75F003E9A42DF9EA28F582EB39E8
:10562C00F583A3A3D0E0F00C02558F7F010219EA99
:10563C0074F012191874F41218A8EAFEEBFF8C0817
:10564C008D09900804E0F8A3E0F9E849702CEE4FBE
:10565C006006E5084509700579010258E8EEFAEF95
:10566C00FB121135E9901750F0901750E0C3940AD3
:10567C004008121147E9901750F0901750E0C3946E
:10568C000A40030258E6900804E0F8A3E0F9E84960
:10569C006003025732EEFCEFFD7A0E75F0069017A0
:1056AC0050E0A42420F91214F5E9F50C7C0C7D00D3
:1056BC0079FFAA18AB191213C98A0E8B0F850E0A23
:1056CC00850F0BAC18AD197A0C901750E02470F9BB
:1056DC001214F5E9F50D750E0E750F00780E121BF0
:1056EC002BEEFCEFFD901750E0F87900E875F00E0A
:1056FC00A4C8AAF075F000A42AFA75F00EE9A42A41
:10570C00F9746C28FA740739FB1213B1740212186D
:10571C00BE8A0E8B0FA80EA90F900804E508F0A303
:10572C00E509F00258E2900804E0F8A3E0C824066A
:10573C00F582C83400F583E0F8A3E0F9E84960434A
:10574C00900804E0F8A3E0C82406F582C83400F5FC
:10575C0083E0FCA3E0FD7A1B75F006901750E0A4E3
:10576C002421F91214F5E9F8900804E0F9A3E0C932
:10577C002406F582C93400F5837400F0A37400F09C
:10578C000258E2900804E0F8A3E0C8240AF582C8A5
:10579C003400F583E0F8A3E0F9E84960439008048D
:1057AC00E0F8A3E0C8240AF582C83400F583E0FCD5
:1057BC00A3E0FD7A1B75F006901750E0A42422F9A3
:1057CC001214F5E9F8900804E0F9A3E0C9240AF5ED
:1057DC0082C93400F5837400F0A37400F00258E21F
:1057EC00900804E0F8A3E0C8240CF582C83400F556
:1057FC0083E0F8A3E0F9E8496043900804E0F8A3DB
:10580C00E0C8240CF582C83400F583E0FCA3E0FD6D
:10581C007A1075F006901750E0A42423F91214F5B1
:10582C00E9F8900804E0F9A3E0C9240CF582C93426
:10583C0000F5837400F0A37400F00258E2900804A1
:10584C00E0F8A3E0C82408F582C83400F583E0F83A
:10585C00A3E0F9E849606F900804E0F8A3E0C824DD
:10586C0008F582C83400F583E0FCA3E0FD7A1075DE
:10587C00F006901750E0A42424F91214F5E9F50A67
:10588C00900804E0F8A3E0C82408F582C83400F5B9
:10589C0083E02410FCA3E03400FD7A0475F006903C
:1058AC001750E0A42425F91214F5E9F8900804E047
:1058BC00F9A3E0C92408F582C93400F5837400F01B
:1058CC00A37400F080109007F8E0600312119B1293
:1058DC00118379018006790080027901740C121809
:1058EC00BE7F080219EA74F712191874F21218A87C
:1058FC00E9FEAC18AD197A0E75F006EEA42420F969
:10590C001214FBE9700E740C1218F4E0F8A3E0F911
:10591C00E8F980027900740E1218BE7F010219EAB0
:10592C0074F412191874F21218A88909EAFEEBFF24
:10593C00E509C3940A5004EE4F700479028041AC1F
:10594C0018AD197A0E75F006E509A42420F9121485
:10595C00FBE9F508E5087026750A06750B00780A50
:10596C00121B2B740212190EEEFAEFFB1213B17408
:10597C00021218BE8A0A8B0B850A82850B83A90832
:10598C00740E1218BE7F040219EA74F4121918EA84
:10599C00FEEBFF750800E508C3940A5043750A0630
:1059AC00750B00780A121B2BEEFCEFFDA808790092
:1059BC00E875F00EA4C8AAF075F000A42AFA75F0E8
:1059CC000EE9A42AF9747228FA740739FB1213C36E
:1059DC0074021218BEE96004A9088006050880B696
:1059EC00790A7F040219EA74F4121918EAFEEBFF23
:1059FC00750800E508C3940A5043750A06750B0038
:105A0C00780A121B2BEEFCEFFDA8087900E875F064
:105A1C000EA4C8AAF075F000A42AFA75F00EE9A439
:105A2C002AF9746C28FA740739FB1213C374021226
:105A3C0018BEE96004A9088006050880B6790A7FBB
:105A4C00040219EA74F712191874F01218A8EAFE75
:105A5C00EBFF750800E508C3940A5039AC18AD1972
:105A6C007A1075F006E508A42423F91214FBE970EA
:105A7C00207C1079FFAA18AB19121429E97012EEC8
:105A8C00FCEFFDAA18AB191205DDE97004A908801A
:105A9C0006050880C0790A74101218BE7F0102191D
:105AAC00EA74F4121918750800E508C3940A400347
:105ABC00025B87A8087900E875F00EA4C8AAF075F7
:105ACC00F000A42AFA75F00EE9A42AF9746C28FCEB
:105ADC00740739FD7A0E75F006E508A42420F91236
:105AEC0014FBE97003025B827C067D0079FFAA0837
:105AFC007B00EA75F00EA4CAA8F075F000A428F893
:105B0C0075F00EEBA428FB746C2AFA74073BFB129D
:105B1C0013C98A0A8B0BAE0AAF0B7C067D0079FF8A
:105B2C00AA087B00EA75F00EA4CAA8F075F000A4D0
