:020000040000FA
:06000000020107022105C8
:03002B00022509A2
:0300530002217B0C
:10008300021F5BE5C754F84401F5C779012200005C
:100093000080FB120086B900030200F1E4792178A5
:1000A30008B800028004F709D8FCE479297802B87B
:1000B30000028004F709D8FCE490028178A2791346
:1000C3008002F0A3D8FCD9FA7A227B159001377805
:1000D300B879038015E493A3AD82AE838A828B83C0
:1000E300F0A3AA82AB838D828E83D8E9D9E7758288
:1000F300ED7583C3740312011975829175830074BE
:100103000012011975D00075813F751881751902A8
:10011300759F00020096C09FF59FE473D09F22D085
:1001230083D082C09FE493C0E0740193C0E0740263
:1001330093F59F22FF0000B4000028002800283018
:1001430075A000A000A000A00000080008E001F0D6
:10015300001000100010001000100010005000509C
:1001630000500010001000D0070000000000000F36
:100173000001000500307507001000010081FF0039
:10018300000000FFFFFF10062E0616065206FF02B0
:10019300020208025000A0000000E80302CC810123
:1001A3000000C58102D0810100007D1502D68101C6
:1001B3000000BF0202D0810100007E1502D8810138
:1001C3000000D50202D0810100007F1502DA81010F
:1001D3000000D70202D081010000801502DC8108F3
:1001E3000000D80202D081010000811502FC8101C8
:1001F30000008215FF0100FF2002CC81010000BF37
:100203008102D081010000E61502E08100000000B8
:100213000002D48103000006031700BE0CBE0CBE0F
:100223000CBE0CBE0CBE0CBE0CBE0CBE0CBE0CBE7B
:100233000CBE0CBE0C640F760F5E0F0202020202AC
:1002430002020202010D000000100102CC81010034
:1002530000BC8102D081010000291602F681010051
:1002630000400702D0810100002A1602F28101003A
:1002730000158102D0810100002B1602F0810100DC
:1002830000078102D0810100002C1602E2810100E7
:1002930000818002D0810100002D1602228101001D
:1002A30000A58002D0810100002E1602DE8101002C
:1002B30000938002D0810100002F1602EE8101001D
:1002C30000B78002D081010000301602FA810100DC
:1002D30000F98002D081010000311602FE81010085
:1002E30000321601E8030577100A0A100A02436F69
:1002F3006D6D616E6400526573706F6E7365004D52
:1003030061696C626F780044657669636520496E44
:10031300666F0002CC81010000C28102D08101001E
:1003230000D81602E6810300002F0802D2810100E3
:1003330000DC1602D081010000D91602E88100001A
:1003430000310802D4810300004B0802D28101006E
:1003530000E41602D081010000DA1602EA810A00E5
:1003630000330802D281010000ED1602D0810100A2
:1003730000DB1602EC810A0000470802D28101006B
:1003830000F516FFFFFF00013075030201060000B0
:10039300000000000000000000000000000000005A
:1003A30000000000000000000000FFFF0600800CBA
:1003B300E8030D095050474675656C4761756765DD
:1003C300051250002003020A000201060302F0FF97
:1003D3005050474675656C476175676500000000BE
:1003E3000000000000D8130000E41312012212A63B
:1003F3000312012225A60312012256A6031201228B
:1004030090A603120122E9A60312012230A70312C8
:10041300012278A703120122A7A703120122D6A75C
:10042300031201220DA80312012254A80312012270
:100433006DA803120122C2A803120122DBA8031232
:10044300012229A90312012263A9031201221377AE
:10045300001201221678001201224F7800120122A5
:10046300727800120122847800120122C2780012ED
:1004730001223E7900120122067A00120122287A13
:1004830000120122BF7A00120122117B0012012205
:10049300427B001201224F7B00120122B97B001222
:1004A3000122107C00120122137C001201224C7CD9
:1004B300001201224F7C00120122597C00120122FA
:1004C300AD7C00120122EE7C00120122217D00127C
:1004D30001225E7D00120122607E00120122047F50
:1004E300001201226D7F00120122AB7F0012012254
:1004F300619A03120122899A03120122B69A031206
:100503000122EE9A031201224C9B03120122989BB3
:1005130003120122FF9B031201223F9C03120122BB
:100523007C9C03120122AA9C03120122549D0312F4
:1005330001225E9D031201226B9D031201229E9DE7
:1005430003120122AA9D03120122C29D031201225A
:10055300CC9D031201221AC00312012228C00312E8
:10056300012240C00312012257C003120122BDBA67
:100573000112012267BB011201227ABC011201227E
:10058300F6BC0112012214BE0112012250BE011257
:100593000122EBBE01120122CFBF011201229BC037
:1005A3000112012229C2011201229AC2011201225F
:1005B30054C30112012246C40112012286C401124E
:1005C30001223AC5011201226CC50112012262C740
:1005D30001120122A4C701120122C2C70112012282
:1005E30028C801120122F7C801120122BBC9011256
:1005F3000122DACB011201225BDB0212012245DC6C
:1006030002120122F0DC0212012241DD0212012258
:10061300F1DD0212012262DE0212012247DF021221
:1006230001227BDF0212012274E002120122B1E0F7
:10063300021201228DE102120122CCE102120122F7
:10064300E8E1021201222EB703120122B2B703120C
:100653000122DDB703120122F7B8031201225A9EC9
:1006630003120122709E031201228E9E03120122A5
:100673009F9F03120122A99F03120122D4A00312F8
:100683000122CBA10312012238A20312012292ED0F
:1006930002120122C8EE02120122FFEE021201220F
:1006A30056EF021201226BF1021201220796011288
:1006B3000122939601120122F79701120122039856
:1006C300011201223E9801120122AD98011201226A
:1006D300B69901120122BF9A01120122869B0112CF
:1006E3000122E39C01120122019D011201221E9DA0
:1006F30001120122CB9D01120122489E0112012207
:10070300709E011201223AA1011201223FA101129E
:10071300012258A301120122A6A30112012216A449
:100723000112012254A40112012230A50112012257
:10073300F0A5011201223CA6011201223FA60112DB
:10074300012283A601120122CBA6011201220AA7CC
:10075300011201222CA70112012260A7011201221A
:10076300C3A70112012232F30212012240F3021243
:10077300012293F302120122B2F302120122F7F3D0
:10078300021201223BF502120122D6F502120122C6
:100793001AF60212012244F602120122B3F60212E1
:1007A3000122F9F60212012270F70212012221F846
:1007B300021201223C25001201224C2500120122C3
:1007C300ED250012012249260012012206270012FC
:1007D3000122222800120122542800120122832818
:1007E30000120122302A00120122A72C001201223A
:1007F300172F0012012209300012012202310012C8
:100803000122093300120122FD35001201222C3787
:1008130000120122303900120122403A0012012253
:10082300CF3B00120122C03C001201220E3D0012F8
:1008330001227D3D00120122A13D00120122F23D61
:10084300001201229342001201229443001201225A
:10085300F54300120122204400120122E644001253
:100863000122279603120122319603120122769662
:10087300031201228A96031201221A9703120122FC
:100883005397031201228E9703120122B797031283
:1008930001220B980312012220980312012242988D
:1008A300031201225798031201226B9803120122AB
:1008B300809803120122BA9803120122E6980312C8
:1008C30001222F9903120122A19903120122E49913
:1008D300031201220E9A03120122399A03120122F2
:1008E30006BF031201221CA402120122FFA402125A
:1008F30001227AA502120122B5A50212012206A73E
:100903000212012294A70212012226AA0212012234
:10091300D8AA02120122E4AB0212012257AD02123D
:100923000122B0AD021201224A89031201228D89EC
:1009330003120122118A03120122E88C03120122FD
:10094300C2B20312012274B30312012270B4031260
:100953000122AFB40312012209B50312012226B901
:100963000312012289B90312012226BA03120122BA
:100973005BBA031201228BBA03120122C6BA031215
:100983000122E6BA031201220080031201228C80A5
:10099300031201224B8103120122638203120122FB
:1009A3007D8403120122888D02120122AD8D021271
:1009B30001227A8E021201224E8F02120122BB8F74
:1009C30002120122FB8F02120122979002120122CE
:1009D300CB9102120122A692021201220593021266
:1009E3000122919302120122FF93021201228B949E
:1009F30002120122D1940212012243950212012212
:100A0300D5950212012276960212012296960212BF
:100A13000122DE9602120122279702120122439736
:100A230002120122699702120122E39702120122A4
:100A3300F19702120122809802120122E998021210
:100A43000122B484031201223985031201227B851A
:100A5300031201225F8603120122CC8603120122B4
:100A63001087031201225487031201228187031284
:100A73000122A98703120122E187031201221F88A1
:100A830003120122468803120122C08803120122A5
:100A93000A8903120122E7CB0112012286CD01123A
:100AA3000122BECF0112012212D0011201223DD038
:100AB3000112012219D10112012249D1011201228D
:100AC30078D1011201228BD101120122CCD1011262
:100AD3000122F9D10112012247D20112012283D24C
:100AE30001120122C8D20112012215D301120122DF
:100AF3008FD301120122D0D501120122BAD70112DC
:100B03000122F6D70112012285D901120122CAD985
:100B1300011201223DDA0112012292DA01120122AD
:100B230097DA0112012221DB0112012240DC0112BA
:100B3300012251DC0112012201C2021201227AC2F6
:100B43000212012234C8021201223FC902120122F9
:100B5300E8CA0212012276CB0212012200630012BC
:100B63000122816300120122AE6300120122F763A6
:100B730000120122F86400120122516500120122C1
:100B8300CD66001201224F67001201226A6700122C
:100B93000122DB67001201229868001201225B69BF
:100BA30000120122E96900120122A06A0012012247
:100BB300B36A001201224C6B00120122E36B001294
:100BC30001220A6C00120122736C00120122BD6C17
:100BD300001201220B6D00120122B06D00120122DE
:100BE3004E6E00120122DB6E001201224C6F0012C6
:100BF3000122936F00120122EB6F001201221D707C
:100C030000120122D77000120122DE7100120122AC
:100C13002772001201224472001201226372001231
:100C230001229673001201224D7400120122727484
:100C330000120122877400120122F77400120122AC
:100C43003875001201225C7600120122DD76001253
:100C5300012241B8021201228CB80212012298B873
:100C6300021201226CB90212012283B9021201227B
:100C7300C0B902120122F1B90212012229BA0212E9
:100C830001227FBA0212012295BA02120122D1BABD
:100C930002120122E4BA021201220BBB0212012248
:100CA3003FBB0212012265BC02120122AFBD021238
:100CB3000122ABBE02120122C8BF02120122FD7F34
:100CC3000012012274DC01120122AFDC01120122A5
:100CD30001E0011201225DE1011201221CE2011275
:100CE300012283E5011201226DE601120122B9E618
:100CF30001120122D3E60112012210E7011201229F
:100D03001BE7011201225AE70112012263E70112D4
:100D130001220DE801120122E4E80112012238E95F
:100D23000112012295E90112012207EA01120122AF
:100D33009BA801120122FAAB0112012200AC01129D
:100D4300012231B30112012238B701120122CBA9CA
:100D530003120122A8AA03120122ECAA0312012200
:100D630026AB03120122BEAB031201222DAC0312E8
:100D7300012236AC0312012242AC031201225CAC05
:100D83000312012286AC03120122B6AC0312012224
:100D9300E59103120122F291031201220C92031234
:100DA30001223F92031201227D9203120122E29259
:100DB30003120122F792031201220293031201226A
:100DC3000F93031201222693031201223493031279
:100DD30001223F93031201224B93031201225A93E0
:100DE3000312012265930312012288930312012245
:100DF3002C94031201223C940312012256940312F1
:100E030001227394031201228E9403120122B394DC
:100E130003120122BE9403120122D394031201226E
:100E2300E794031201224895031201224E950312FF
:100E330001225495031201225A950312012272953D
:100E430003120122A5950312012205800212012239
:100E53009C80021201223481021201222482021296
:100E630001225B82021201226E8202120122DC82C3
:100E7300021201227784021201229E8402120122AD
:100E83004085021201227585021201228685021213
:100E93000122FF85021201222086021201223886D6
:100EA3000212012290870212012299890212012261
:100EB300E98B02120122EC8C021201223B8D0212F9
:100EC300012256EB0112012253EC011201223EEDE5
:100ED3000112012248ED011201226AED01120122E1
:100EE30076ED01120122C8EE01120122F7EE011282
:100EF300012227F00112012269F00112012295F16A
:100F0300011201226BF201120122BDF20112012230
:100F13001CF30112012253F3011201228EF3011279
:100F2300012229F70112012242F701120122C4F71B
:100F330001120122D2F70112012227F80112012224
:100F430035F801120122A2F80112012214F901124B
:100F530001225AF9011201220C99021201222E993F
:100F630002120122189B02120122BD9E02120122CB
:100F730000A002120122DAA002120122F4BA031223
:100F8300012219BB031201228ABB03120122A0CB47
:100F930002120122A9CB02120122B2CB02120122B8
:100FA300E3CC0212012202CF0212012238CF021235
:100FB300012272CF02120122A8CF02120122E2CF34
:100FC3000212012216D00212012242D00212012281
:100FD3008BD002120122C5D0021201220DD10212BE
:100FE300012263D10212012298D102120122F3D10C
:100FF300021201222DD2021201227ED202120122FA
:10100300B4D202120122EED2021201221CD3021226
:1010130001223FD302120122E7C00312012213C1AE
:10102300031201226EC10312012278C103120122AD
:1010330088C10312012233F8021201225AF8021264
:10104300012295F80212012268C3031201225245BC
:1010530000120122624800120122F7490012012204
:10106300724A001201221E4B00120122C14B0012D0
:101073000122594C00120122884C001201222051F6
:1010830000120122B25100120122EE52001201227B
:101093005853001201220C5400120122C2560012AE
:1010A3000122FC5600120122665700120122C35787
:1010B300001201222058001201227D580012012241
:1010C300685900120122AE5900120122F959001287
:1010D30001221C5A00120122635B00120122775B7A
:1010E30000120122E65C00120122255D001201229A
:1010F300655D00120122B85D00120122D95D001264
:101103000122175E001201223D60001201227E605F
:10111300001201221961001201228B6100120122C7
:10112300CC6200120122F1E70212012297E80212B7
:101133000122DCE90212012265EA0212012252EBCA
:101143000212012291EB02120122FBEB0212012295
:1011530069EC02120122DBFF02120122E9AF031242
:101163000122B4B203120122DAFF0112012292C159
:1011730003120122A2C103120122B6C103120122EA
:1011830032C203120122E4AC031201228CAD03121A
:101193000122CEAF03120122F7FF01120122C9FF80
:1011A30002120122E3F90112012254FA011201226F
:1011B300CBFB011201229EFD01120122DBFE011273
:1011C30001229FFF01120122E4BD0312012215BE79
:1011D300031201223FBE031201229DBE031201220C
:1011E300CDD302120122E2D3021201223ED4021213
:1011F3000122A9D402120122F1D40212012263D5E1
:10120300021201228CD5021201229AD50212012266
:10121300FCD5021201223AD60212012255D602123D
:101223000122F0D60212012299D7021201221CD800
:101233000212012255D802120122E0D80212012221
:1012430037D90212012295D902120122A7D902121B
:101253000122CDD902120122D6D90212012227DBA3
:101263000212012234B5031201229BB5031201229B
:1012730058B603120122D6B60312012242A2031268
:10128300012275A203120122A7A303120122EBA3D9
:1012930003120122C7A403120122AABC03120122D2
:1012A30088BD0312012231FD0212012276FD0212D2
:1012B3000122BCFD0212012285FF02120122D8C2C3
:1012C30003120122F3C20312012203C303120122F8
:1012D30035C20312012259AE0212012235AF0212A6
:1012E30001227CAF02120122B9AF0212012227B000
:1012F3000212012281B002120122F1B00212012274
:10130300C1B102120122B0B20212012227B30212AA
:101313000122C3B40212012250B502120122C3B545
:10132300021201223FB60212012256B60212012214
:101333007BB702120122D5B70212012249E202123F
:10134300012269E2021201226FE302120122BBE3CE
:1013530002120122DBE3021201222EE40212012215
:101363009BE402120122E1E40212012245E502128A
:1013730001220182011201222E8701120122318AE8
:10138300011201225A8A01120122838A01120122C7
:10139300358B011201221E8D01120122698E011269
:1013A3000122828E01120122B99301120122F293CA
:1013B30001120122369401120122479501120122E2
:1013C3009A8D03120122BD8F031201227090031222
:1013D30001228E9003120122B09003120122819107
:1013E30003120122AF910312012242C4031201220C
:1013F300D17F00120122BCFF01E066701008A3E058
:1014030066700A08A3E066700408A3E06622C3E7D7
:10141300960809E7960809E7960809E79622C3E0C4
:101423009608A3E09608A3E09608A3E09622C008D6
:10143300C3E096F50808A3E096420808A3E09642A5
:101443000808A3E09645087001D3D00822080808CD
:10145300EAC0E0EBC0E086F0E7A4FA180986F0E7FB
:10146300A42AFA180986F0E7A42AFA180986F0E7ED
:10147300A42AFA1986F0E7A4FBE5F02AFA190886EC
:10148300F0E7A42BFBE5F03AFA190886F0E7A42B62
:10149300FBE5F03AFA18180986F0E7A4C5F02BFB30
:1014A300E43AFA1908E7C5F0C6A426F6E5F03BFBD3
:1014B300E43AFA1886F0E7A4F6E5F00826F6E43BEA
:1014C30008F6E43A08F6D0E0FBD0E0FA226016080A
:1014D3000808C6C313C618C613C618C613C618C64B
:1014E30013C6D5E0EA227009080808226016181806
:1014F30018C6C333C608C633C608C633C608C633C0
:10150300C6D5E0EA22E627F60809E637F60809E633
:1015130037F60809E637F622E026F608A3E036F6A2
:1015230008A3E036F608A3E036F622E026F008A387
:10153300E036F008A3E036F008A3E036F022C3E675
:1015430097F60809E697F60809E697F60809E69775
:10155300F622C3E096F008A3E096F008A3E096F025
:1015630008A3E096F022E056F608A3E056F608A397
:10157300E056F608A3E056F622E056F008A3E0563C
:10158300F008A3E056F008A3E056F022E0F608A323
:10159300E0F608A3E0F608A3E0F622E6F008A3E6E7
:1015A300F008A3E6F008A3E6F022E0FAA3E0FBA329
:1015B300E0FCA3E0FD22E0F8A3E0F9A3E0FAA3E056
:1015C300FB22E8F0A3E9F0A3EAF0A3EBF022CAC000
:1015D300E0E6F0A308DAFAD0E0FA22CAC0E0E0A31A
:1015E300C582CCC582C583CDC583F0A3C582CCC5D6
:1015F30082C583CDC583DAE6D0E0CA22C3E498F876
:10160300E499F91216408026C3E49AFAE49BFBE9B5
:1016130020E7E9121640E498F8E499F922C3E49824
:10162300F8E499F9121640E498F8E499F9C3E49AB6
:10163300FAE49BFB22EB20E7CFE920E7E0B90010B7
:10164300BB0008E88AF084F8AAF022E4FBC8FA2277
:10165300EB70227B10C833C8C933C9335007C39A10
:10166300C3DBF280069A50012ADBEAC833F4C8C907
:1016730033F4C9FA2275F008E4C833C8C933C9334F
:10168300C99AC99B5004C92AC93BD5F0ECFBC8339E
:10169300F4C8E4C9FA22600D08C6A2E713C618C647
:1016A30013C6D5E0F322600C08C6C313C618C613CD
:1016B300C6D5E0F422700422600D18C6C333C608F1
:1016C300C633C6D5E0F41822251810AF08F5184024
:1016D3000C15198008F51840021519D2AF2200C065
:1016E300D0251810AF08F518500C05198008F51807
:1016F30050020519D2AFD0D0222518F58210AF08B9
:10170300F518400C15198008F51840021519D2AFC9
:10171300851983222518F582E43519F583222518C6
:10172300F8E43519F9222518FAE43519FB222518AE
:10173300FCE43519FD22E4732518C582C0E0E519E0
:1017430034FFC583C0E0E518C3958224F810AF08C1
:101753008583198582188008858319858218D2AFFD
:10176300CEF0A3E520F0A37808E608F0A3DEFAEFB5
:10177300F0A3E58124FAF8E608F0A3E608F0A3E66F
:1017830008F0A30808E608F0A3E608F0A3158115FE
:1017930081D0E0FED0E0F8158115811581E8C0E025
:1017A300EEC0E0222518C582C0E0E51934FFC583E9
:1017B300C0E0E518C3958224F910AF088583198525
:1017C30082188008858319858218D2AFCEF0A3E5ED
:1017D30020F0A37808E608F0A3DEFAEFF0A3E58192
:1017E30024FBF8E608F0A3E608F0A30808E608F0EF
:1017F300A3E608F0A315811581D0E0FED0E0F8152B
:10180300811581E8C0E0EEC0E02285198385188246
:10181300E0A3FEE0A3F5207808E0A3F608DFFAE0F2
:10182300A3FFE0A3C0E0E0A3C0E0E0A3C0E0E0A327
:10183300C0E0E0A3C0E010AF08858218858319805B
:1018430008858218858319D2AFD083D08202011F05
:10185300851983851882E0A3FEE0A3F5207808E0CC
:10186300A3F608DFFAE0A3FFE0A3C0E0E0A3C0E033
:10187300E0A3C0E0E0A3C0E010AF08858218858331
:10188300198008858218858319D2AFD083D082222C
:10189300C0D02518C582C0E0E51934FFC583C0E078
:1018A300E518C3958224F310AF0885831985821840
:1018B3008008858319858218D2AFC8F0A3E9F0A305
:1018C300EAF0A3EBF0A37908E709F0A3D8FAECF068
:1018D300A3EDF0A3EEF0A3EFF0A3D0E0F0A3D0E0EC
:1018E300F0A3D0E0F0A3E520F0A3E5F0F0A3228578
:1018F3001983851882E0C0E0A3E0F9A3E0FAA3E02E
:10190300FBA37808E0F608A3DFFAE0FCA3E0FDA35D
:10191300E0FEA3E0FFA3E0C0E0A3E0C0E0A3E0F5A6
:10192300D0A3E0F520A3E0A3F5F010AF0885831959
:101933008582188008858319858218D2AFD082D01A
:1019430083D0E0F8D0E0327404800674028002741D
:1019530001C0E0F4041216FCD0E01215D122740485
:10196300800474028000CCC0E0EDC0E0E518C39CA5
:10197300CCAD1950011D10AF068C188D1980068C43
:10198300188D19D2AF1215DED0E0FDD0E0FC22D0C5
:1019930083D082E9C0E0E493A3C386F0C5F095F059
:1019A300F908E493A386F0C5F095F0700BE493A3D4
:1019B300C3994005E9048002A3E475F002A42582DB
:1019C300F582E5F03583F583D0E0F9E493A3C0E035
:1019D300E493C0E022D083D082ECC0E0EDC0E0E429
:1019E30093A3FCE493A3FDED4C600D121A24EC24A5
:1019F300FFFCED34FFFD80EFE493A3FCE493A3FD30
:101A0300ED4C600D121A63EC24FFFCED34FFFD80F6
:101A1300EFD0E0FDD0E0FCE493A3C0E0E493C0E0AA
:101A230022C0E0C3E49396087401939618400FE430
:101A33009366700808740193661870007019A3A365
:101A4300C3E49396087401939618A3A3400DD0E0C2
:101A5300D0E0D0E0021A14A3A3A3A3A3A3D0E0224F
:101A6300C0E0C0F088F0E4936670080874019366E0
:101A7300187000A8F0A3A3700BD0F0D0E0D0E0D092
:0B1A8300E0021A14A3A3D0F0D0E02270
:101A900074F61217A7EAFEEBFF8C088D09EE2434CA
:101AA000F8E43FF9E8FCE9FDEE2435121DA3FAEE57
:101AB0002437121DA3F88508F0A4C885F00A85090B
:101AC000F0A4250AF9EA28F8E439F97A257B00120E
:101AD0001640EA8C828D83F0FA131313541FF8EE2C
:101AE00028F8E43FF9E8245DF582E439F583E0C0A5
:101AF000E074075AF8D0E0B800028004C313D8FCA1
:101B0000A2E0EE50082434F582E43F801824361217
:101B10001DA3F5F0EA84A8F0EE28F8E43FF9E824E4
:101B200038F582E439F583E0F97F0302185374F73E
:101B30001217A7EAFEEBFFEE2434121DA3C0E0EE5D
:101B40002435F582E43FF583D0E0F08E828F83A3C5
:101B5000A3A3A3A3A3A3C082C0838E828F83A3A3C6
:101B6000A3A3A3E0F8A3E0F9D083D082E0C398F563
:101B700008A3E099F509EE247F121DA36401703ECD
:101B8000EE2480F582E43FF583C082C0838E828F8D
:101B900083A3A3A3A3A3E0240108A3E03400F9D006
:101BA00083D082E0687003A3E06970127CB17D0489
:101BB000120BFEEE247FF582E43FF583E4F0AC08DF
:101BC000AD09EEFAEFFB121A90E9F91224FB7F023D
:101BD000021853C082C083851882851983E0F8A358
:101BE000E0F9C3EA9CEB9D5010C3EC98ED99401BC3
:101BF000C3EA98EB995014800EC3EA98EB9940071A
:101C0000C3EC98ED994004790180027900D083D02B
:101C10008222EAC39CFAEB9DFB2274EF1217A79075
:101C20000376E064086005E06407702A9061C8E00C
:101C300060249003A4E0F4601DE0F875F00BA4C8E4
:101C4000AAF02AF974A628FE740339FF8E828F83C6
:101C5000A3A3A3E07003021D28906060E0C0E0EE43
:101C60002468F582E43FF583D0E0F0750C21750D12
:101C700005750800750900E5D914F50AE5D954037E
:101C8000F50E60127403650E6043E50A600AEE24E7
:101C900067121DA37002807590051CE06401601F2F
:101CA000121DA060047A0480027A00E50AC39AFA41
:101CB00095E0FB120AA88A088B09EA45097005120B
:101CC0000E2C8064121DA070048A0C8B0DE50A6036
:101CD00012850C82850D83F50BE5D9F0A3150BE574
:101CE0000B70F6121DA0604474FC250AF50A780CEE
:101CF00012194EAC0AA90EEEFAEFFB120CB87402E0
:101D00001216E1E97026AA08AB0912126A793D8E13
:101D1000828F83A3A3A3A3E0FA7B0012090AEEFA41
:101D2000EFFB120C22120CCA7900806F7403650E4F
:101D30006051850A10751100781012194EAC0CAD67
:101D40000DAA08AB09120C7C74021216E1EE24688D
:101D5000121DA364807004747F8001E0F50C780C80
:101D6000121952E50EF50C780C121952A90AAC089A
:101D7000AD099003A4E0FA7B001208E07402121689
:101D8000E18013900376E06408600BAC0CAD0DEEBF
:101D9000FAEFFB120D42120E3879017F0A02185336
:101DA000EE2483F582E43FF583E02274F21217A754
:101DB00074FC1216CBEAFEEBFF8909A2AFE433F5FF
:101DC00008C2AF021E75E0601B780C12194EAC0BF6
:101DD000A90EEEFAEFFB120CB274021216E17404B3
:101DE000250BF50B7401250BF5D9850ED9E50B6094
:101DF00018F50A850C82850D83E0F5D9A385820C40
:101E000085830D150AE50A70EA75E195EE2463F8FD
:101E1000E43FF97A007B00A2AFE433F50BC2AF8850
:101E2000828983E0FCA3E0FDEC4D603A88828983DF
:101E3000E0FAA3E0FB8A828B83E0FCA3E0FD8882CA
:101E40008983ECF0A3EDF08A828B83E4F0A3F08821
:101E5000828983E0FCA3E0FDEC4D700A88828983CF
:101E6000A3A3E4F0A3F0E50BA2E092AF12126A90F4
:101E700004B8E004F0EE2463121DA3F8A3E0F9E82F
:101E8000496064EE2463121DA32402F8A3E0340029
:101E9000F988828983E5822402F50CE43583F50D07
:101EA000E0F50BA3E0F50EEE2462121DA3640170B1
:101EB000369061D0E0F8121DA060047C0480027CA2
:101EC000007480C398FA95E0FBE50B2CF8E434002D
:101ED000F9E82402F8500109C3EA98EB99A2D26507
:101EE000D0334003021DC69004B8E0604D9004B9A1
:101EF000E0F89004B8E0C398500C74026509703A99
:101F00009004BAE060348E828F83A3A3A3A3E085FC
:101F10001882851983121F4A7402121717E8121FBC
:101F20004A9004B7E028F07402121731AA18AB19CE
:101F300079011209349004B8E4F0E508A2E092AF08
:101F400074041216E17F07021853F0A3E4F0900422
:101F5000B8E0F8228521878522C622C0E074EB1202
:101F60001893A2AFE433F508C2AF759B009061826D
:101F7000E0A2E05030E591A2E0502A7591FE740194
:101F8000652170211220EE120D841220DC121961DD
:101F90001222A574041216E1E96401700579011298
:101FA0000DC0121C1A906182E0A2E5505DE591A27D
:101FB000E550577591DF900376E064076005E064B3
:101FC00008702F1220EE74016521703E120D8412EC
:101FD00020DC1219611222A574041216E1E96401D1
:101FE00070057901120DC07901EEFAEFFB121DABFD
:101FF0008018E0640D7013900398E004F06428707A
:1020000002E4F07A00E0F9120E3E906182E0A2E66E
:1020100040030220B1E591A2E640030220B1759190
:10202000BF900376E064057008120D6C120D788085
:1020300003120D72752100120DCCE9900377F0792F
:1020400000120DC0120B6E7A017B00900375E0F94F
:1020500012123A907803E064427056900520E01422
:10206000F0704EC2AF12206800782AD0E0F618D087
:10207000E0F6E59F5407F87005750DFF8003750DB8
:102080007FC4C0E07829E6F50A08E6550DF50B7423
:102090000B780A1216A9D0E0250AF8906270E0A227
:1020A000E740F8E8C333906272F0906270E0D2E0EB
:1020B000F0906181E0A2E35009E5E9A2E3500375E5
:1020C000E9F7A3E0A2E75009E591A2E75003759173
:1020D0007FE508A2E092AF7F080218F28E828F831C
:1020E000E0F8A3E0C82416F582E438F583229003D3
:1020F000A4E0F875F00BA4C8AAF02AF974A628FE8B
:10210000740339FF22C0E0C0D0C082C083906183D5
:10211000E0A2E05009E5BFA2E0500375BFFEE0A2D7
:10212000E15009E5BFA2E1500375BFFDE0A2E25016
:1021300009E5BFA2E2500375BFFBE0A2E35009E549
:10214000BFA2E3500375BFF7E0A2E45009E5BFA2C8
:10215000E4500375BFEFE0A2E55009E5BFA2E550EA
:102160000375BFDFE0A2E65009E5BFA2E6500375A4
:10217000BFBFD083D082D0D0D0E032C0E074F212A2
:102180001893E5A7A2E6500FE5A1A2E6500953A7D0
:10219000BF75A1BF1221CFE5A7A2E5500CE5A1A212
:1021A000E5500653A7DF75A1DFE5A7A2E15009E5D9
:1021B000A1A2E1500375A1FDE5A7A2E2500CE5A1A3
:1021C000A2E2500653A7FB75A1FB7F010218F2742F
:1021D000F71217A7752101900376E06406701512B7
:1021E0000CEE8A828B83A3A3A3A3A3A3E0FAA3E0AC
:1021F000FB120D5AA2AFE433FED2AF90037CE06431
:102200000170187A207B00900375E0F91213607A50
:10221000207B00900375E0F9121240906182E0D2B9
:10222000E6F090051DE0602185C622801690037BB4
:10223000E064017008E5C654F84405F5C653BEFCD9
:10224000121F547401652160E4EEA2E092AF7F0298
:10225000021853008E238F248582288583278518B2
:1022600082851983E0CEA3E0CF852882852783EB82
:10227000C9EAC8EDCBECCA75F010C3E833C8E9333E
:10228000C9EA33CAEB33CBC3EA9EF526EB9FF525AB
:10229000B35004AB25AA26EC33CCED33CDD5F0DA20
:1022A000AE23AF242274F11217A78A088B098C0A77
:1022B0008D0B9081AC7808121569740F121717787E
:1022C0000C12158F9081AC780C1215697808790C76
:1022D00012141190816450107808790C121541780D
:1022E000081214314014800E780C790812154178C8
:1022F0000C12143150047901800279007F08021811
:102300005374ED1217A78A088B098C0A8D0B9081E4
:10231000AC78081215697413121717780C12158F00
:102320009081AC780C121569780C79081214114060
:10233000117808790C121541AA08AB09AC0AAD0B4B
:102340008022751000751100751200751301781048
:10235000790C12154178107908121508AA10AB11E2
:10236000AC12AD137F0C0218539081AC7808121593
:102370008F8A828B83780812157C7F04021853742D
:10238000F51217A78C828D83780812158F8A828B9D
:102390008378081215551223D7C3E09CF0A3E09D63
:1023A0001223C9402290817C780812158F8A828B73
:1023B00083780812152E8A828B83A3A3A3A3E0241B
:1023C00020F0A3E0344EF080A0F088828983C3E03F
:1023D0009420A3E0944E22EA2404F8E43BF98C8292
:1023E0008D83A3A3A3A3E0FCA3E0FD8882898322BD
:1023F00074F51217A7E9FE9004D3E0FAA3E0FBEE10
:1024000029F8E433F974D928F582748039F583E02A
:102410002AF508A3E03BF509780812194E9081903F
:102420001215AD12225474021216E18A088B098C1F
:102430000A8D0B741078081214D0AA08AB097F0417
:1024400002185374F11217A78A0C8B0D8C0E8D0F86
:1024500074111217171219657411121717E024015D
:10246000F508A3E03400F509E4F50AF50B780C79DA
:1024700008121450908170780812158F780C790822
:10248000121450AA0CAB0DAC0EAD0F1222547402F4
:102490001216E18B09EA450960047A0180027A008C
:1024A000EC2AFCE43DFD7413121717E0F8A3E0F9E1
:1024B000E8FEE9FFECF8EDF97A717B02121640882C
:1024C000088909E4F50AF50B8E828F8378081215C6
:1024D0009EECF8EDF97A717B021216408A088B099E
:1024E000740578081216B88E828F83A3A3A3A3E580
:1024F00008F0A3E509F07F08021853C082C083E901
:10250000906000F0D083D08222C0E0C0D0E8C0E06C
:10251000E9C0E0A2AFE433F8D2AFC2C7E8F9E8A25D
:10252000E092AFD0E0F9D0E0F8D0D0D0E032C2AF46
:1025300002000022FFFFFFFFFFFFFFFFC082C083FA
:10254000E99015E5F0D083D08202011F74F61217CE
:102550003BE99002E8F0900348E0F5087509007443
:102560000278081216B8AA08AB091212B29002E952
:10257000122EFF9002E91232EC606F900348E07572
:10258000F003A4FAABF01212B2900306122EFF90E1
:1025900003061232EC700B9002E91232BD1212B82F
:1025A00080489003061242517AFF7BFF1211267A6F
:1025B0000080198A08750900740278081216B8128A
:1025C0003CF974FF1226FFE4F0A3F00A900348E000
:1025D000F8EAC39840DD79051207CC9002E8E0F9EB
:1025E0001206B87A567B08120A48023D9C74F4120F
:1025F000173B8A088B09EB548060479002E8E0F9AA
:102600001212228A0A8B0BAE0AAF0BEE4F602A8E93
:10261000828F83E064B0701A1207DEE960148E8244
:102620008F83A3A3A3A3E0F9EE2405FAE43FFB12F2
:1026300007AEEEFAEFFB121210AA08E5096480FB60
:1026400080047A007B0002284F74F212173B74FB5F
:102650001216CBEAFEEBFFEE4F604574031217171C
:10266000EEF0A3EFF0851882851983ECF0A3EDF06E
:102670007402121717E9F0AA18AB191206B2E9F59D
:102680000870757413121717E0F50AA3E0F50BE54F
:102690000A450B60638E828F83122C88EE4F700583
:1026A00075080280537A067B001212B28A0C8B0DD9
:1026B000A80CA90DE8497005750813803B8882892C
:1026C00083E41226FFEEF0A3EF12281BE50AF0A325
:1026D000E50BF09002EC1228149002EC6017E0FC7D
:1026E000A3E08003EAFCEBFD8C828D83122814703A
:1026F000F38C828D83123914A90874050244D1F039
:10270000A3124233A32274F212173B8908890C7575
:102710000D007403780C1216B8850C0A850D0B9009
:1027200002EBF09002E912371F122812602E1212EB
:10273000B87900801D890C750D007402780C121692
:10274000B89002E9123BB88882F583A3A3E4F0A312
:10275000F009900348E0F8E9C39840D9900348E0B5
:10276000FA850AF0A4CAA8F0850BF0A428FB12127F
:10277000B28A0C8B0DAE0CAF0DEE4F700302280821
:10278000900348E0FC850AF0A4CCA8F0850BF0A4E7
:1027900028FD79001211FE7C0080318D0C750D0032
:1027A0007403780C1216B88A828B8312280D8882E3
:1027B0008983E4F012281AA3A3F0A3F00DEDC395CA
:1027C0000840D8EE250AFEEF350BFF0C900348E0D9
:1027D000F8ECC39850288C0C750D007402780C121C
:1027E00016B89002E912280DE82402500109FAE90E
:1027F000FB8A828B83EEF0A3EFF07D0080BFE508BB
:102800009002EBF07900800279130244D4123BBCB1
:10281000F922A3A31232C1EA4B22A3124233A3A38B
:10282000A32274F412173B7900EAA2E0501F750846
:102830004A750981780812194E79107C047D007A56
:10284000E77B151207C674021216E1E9F980007FD2
:102850000402180DC082C0839002EC1232EC601C9E
:1028600088828983A3A3E06A7003A3E06B888289CE
:102870008370E8A3A3A3A31232BD80047A007B0077
:1028800002254574F212173B74FD1216CBEAFEEBDB
:10289000FF851882851983E4F0A3F07402121717DC
:1028A0007401F01232E970141209821212B290020D
:1028B000EF122EFF1232E97003022A15122FFFEEDB
:1028C0002404F50AE43FF50B850A82F583E024FE33
:1028D000603C24FC607424FE607E24FE70030229A8
:1028E0006524FE700302297224FE700302297F24EE
:1028F000FE700302298C24FE700302299924FC70C7
:10290000030229BA24FE70030229D2022A0E1209F8
:10291000829002F1EAF0A3EB122A211203FAE96095
:1029200003022A0E9002F11219658E828F83A3A3EF
:10293000A3A3A31242518508828509831232BD12D6
:10294000079674021216E1022A0EAC18AD19EEFABF
:10295000EFFB1207E40229DDAC18AD19EEFAEFFB2C
:102960001207EA8078AC18AD19EEFAEFFB1207F007
:10297000806BAC18AD19EEFAEFFB1207F6805EAC77
:1029800018AD19EEFAEFFB1207FC8051AC18AD1927
:10299000EEFAEFFB12080280447402121721880C31
:1029A000890D780C12194E7402121731EEFAEFFBF2
:1029B00012080874021216E18023AC18AD19EEFA61
:1029C000EFFB12080EE9F870167402121717E4F004
:1029D000803CAC18AD19EEFAEFFB120814E9F8E8E8
:1029E000602C8E828F83A3E064146022850A828526
:1029F0000B83E09002F1F08518828519831232BDB5
:102A00009002F2122EFFE8A3122A211203F4EEFA2A
:102A1000EFFB12076C7402121717E0F974030244FB
:102A2000D1F07CF17D028508828509831232C122B2
:102A300074E812173B74FA1216CB7404121717ECD1
:102A4000F0A3EDF08A128B13EA2405F50EE435139A
:102A5000F50FEA2402F510E43513F511851082F51F
:102A6000831232BD1204EA8A0A8B0B7508007C03BC
:102A70007D0079007AF17B021211FEE50E2402F549
:102A800016E4350FF5177402121721880C890D789A
:102A90000C12194E850E82850F83A3A3A3A3E0F524
:102AA0000C750D00780C12194EE50E2405F50CE49A
:102AB000350FF50D780C12194E8516828517831285
:102AC00035C41206D074061216E18A0C8B0DE50C83
:102AD000450D7003022C518020851882851983E0F2
:102AE00088828983F00508851882851983A3E0C050
:102AF000E0122C92D0E0F00508E50A24FBFAE50B81
:102B000034FFFBC3E5089AE49B4003022C517E008E
:102B10007F00851282851383A3A3A3A3E0F5097820
:102B200009121952E4F514F515781412194E75149A
:102B3000EE751502781412194E9002EF1219657491
:102B400009121717121965E50A24F9F9AC0CAD0D35
:102B50008510828511831232BD12083E7409121647
:102B6000E1E96003022BF2850E82850F83A3A3A304
:102B7000A3A3A3A3E0F89002EEE0687075E0F5145B
:102B80008E15781412194E12424E850E82850F83CF
:102B9000A3A3A3A3A3A3A3A31232BD1211F874028B
:102BA0001216E1E9604C9002F21232EC703BE4F54F
:102BB00014781412194E7CFF7DFF790785108285E9
:102BC00011831232BD1207A874021216E11232F2FA
:102BD0007017850E82850F831243EB74041217174A
:102BE000123CAC1235F5022C85850C82850D8312C2
:102BF0002C88A818A91988148915781412194E74EC
:102C000004121717121965851682851783122EF57F
:102C10001206DC74041216E18A0C8B0DEE4F700361
:102C2000022ACE122C92EE122C9D1235ABEF122CF2
:102C30009DF8A3E03400F9E50C450D6003022AD9A4
:102C40008882898374FFF00508122C9274FFF005C6
:102C500008E508601A1313543F122F05120406E901
:102C600060099002F21232BD12126A790080168554
:102C70000E82850F831243EB7404121717123CACBB
:102C8000123914790A02357EA3A3A3A3E0FEA3E0C0
:102C9000FF22A8089002F2E0281235AB22F00508C6
:102CA000089002F2E0282274E812173B74FA121618
:102CB000CB7402121717122EFF7404121717ECF0C0
:102CC000A3EDF07402121717E02405123594E0F515
:102CD0000CA3E0F50D7402121717E02402F510A3FF
:102CE000E03400F511851082F5831232BD1204EA3A
:102CF000750800750900EA24FCFEEB34FFFF80082C
:102D0000050CE50C7002050DA808C3EE98EF9400C1
:102D10005003022EB1A818A919880E890F780E1237
:102D2000194E851482851583A3A3A3A312425512BD
:102D3000194EE5142405F50EE43515F50F780E123D
:102D4000194E851482851583122EF31206D074064F
:102D50001216E18A0E8B0FEA450F7003022EB1EABC
:102D60002404F516E4350FF517851682F583E0F592
:102D70000CA3E0F50D8518828519831242518A82D1
:102D80008B83A3A3A3E0F98510828511831232BD42
:102D90001206BEE9F5096003022EB174021217177C
:102DA0001235BBF5097809121952E4F512F51378BA
:102DB0001212194E7512EE751302781212194E90F6
:102DC00002EF1219657407121717121965EEF9ACA4
:102DD0000EAD0F8510828511831232BD12083E742C
:102DE000091216E1E9F5096003022EB1E508703F0A
:102DF000E4F50EF50F780E12194E7CFF7DFF790970
:102E00008510828511831232BD1207A87402121632
:102E1000E11235E1700D7404121717122EE87911C2
:102E2000022EE59002EEE024029002F2F08014906F
:102E300002F2E0FA9002EEE0790024025001096A01
:102E4000497072A8089002EEE0FAE82AFAE4340029
:102E5000FBEE9AEF9B405A851682851783E0C0E00F
:102E60009002F3122C97D0E0F005088516828517A2
:102E700083A3E0C0E0089002F3122C97D0E0F005A5
:102E8000089002EE12425512194E12424EA8081234
:102E900035881211E674021216E19002EEE0250860
:102EA000F50874FF650C700474FF650D6003022D56
:102EB00000E508601F9002F2E0F5F0E50884122FAB
:102EC0000512040CE960099002F31232BD12126A75
:102ED00079008011E509700375090A740412171747
:102EE000122EE8A90902357E123723E50CF0A3E57E
:102EF0000DF022A3A31244E0AA0CAB0D22A3A3EA77
:102F0000F0A3EBF0229002F1F07CF17D02851082BB
:102F10008511831232C12274EC12173B74FC121615
:102F2000CB123A2474021217311232B71206D68A23
:102F30000C8B0DEA450D7003022FEF122FFFA8181E
:102F4000A91988108911781012194E7CFF7DFF791C
:102F50000B8508828509831232BD1207A8740212FC
:102F600016E11230F5700C850A82850B831235F25A
:102F7000022FFC8E828F83A3A3A3A3E0F512781205
:102F8000121952E4F512F513781212194E7512F156
:102F9000751302781212194E781012194E74091214
:102FA00017171219657409121717E0F9AC0CAD0D5B
:102FB0008508828509831232BD12083E74091216F3
:102FC000E1E9FE70157CF17D028508828509831296
:102FD00032BD120412E97009802074166E70027EF0
:102FE000009002F21232BD12126AEE7004800B7E63
:102FF00001850A82850B83123911EEF9023926EE1A
:103000002402F508E43FF5092274EC12173B74FC26
:103010001216CBEAFEEBFF8C0E8D0FEE2405F508A1
:10302000E43FF5097402121731850882850983127D
:1030300032BD1206D68A0C8B0DEA450D70030230A4
:10304000E5EE2402F50AE43FF50BA818A91988104B
:103050008911781012194E7CFF7DFF790D1232B75D
:103060001207A874021216E11230F5700B8508825F
:103070008509831235F2807A8E828F83A3A3A3A35E
:10308000E0F5127812121952850882850983A3A3EC
:103090001219657512F1751302781212194E781013
:1030A00012194E740912171712196574091217179D
:1030B000E0F91232B312083E74091216E1E9FE700B
:1030C0000F7CF17D021232B7120418E970098020DA
:1030D00074166E70027E009002F21232BD12126AF5
:1030E000EE7004800B7E01850882850983123911F8
:1030F000EEF90239261232FCF510A3E0F511EA458B
:10310000112274E812173B74FE1216CB8A168B1725
:103110008C148D15EA2405F50CE43517F50DEA2419
:1031200002F50EE43517F50F850E82F5831232BDD8
:103130001204EA8A088B09750B007C037D00790074
:103140007AF17B021211FE750A00E50814F51004ED
:1031500024FFF508E50934FFF50980549002F1E0F9
:10316000FA9002EEE0F8EA28F8E43400F9E508986D
:10317000E50999500D9002F1E0F8E510C39890022E
:10318000EEF0E0F512751300781212194E12424E4D
:103190009002F2E02AFAA3E03400FB1211E6740276
:1031A0001216E19002EEE0F89002F1E028F0050A34
:1031B000850C82850D83A3A3123BC840030232987D
:1031C0009002F1E0C39508E495094003023298AEFD
:1031D0000AEE2EFEE433FF1232D7AC18AD191242BC
:1031E00069E439FB1206D68A128B13AC12AD13ECCC
:1031F0004D701B750B011232C71239159002F21275
:103200002814600312126AA90B7402023580851615
:1032100082851783A3A3A3A3E0F50B780B121952A1
:10322000E4F512F513781212194E7512EE751302A9
:10323000781212194E9002EF1219657407121717BF
:10324000121965A910850E82850F831232BD1208EE
:103250003E74091216E1E9F50B709B9002F21232EE
:10326000EC600302315CE4F512F513781212194E8A
:103270007CFF7DFF790F850E82850F831232BD1290
:1032800007A874021216E11232F2600302315C12D6
:1032900032C71235F60232097CF17D02850E828535
:1032A0000F831232BD12041EE960030231FC790063
:1032B000023209AC0CAD0D850A82850B831232C136
:1032C00022E0FAA3E0FB221232D7E0FAA3E0F9EA07
:1032D00085148285158322850C82850D83E02EF866
:1032E000A3E03FF988828983229002EF1243EFE83E
:1032F00049221232FCF8A3E0F9E849229002F2EAEE
:10330000F0A3EBF09002F2E02274E812173B74FA9B
:103310001216CB7404121717122EFF8C168D177409
:1033200004121717E02405F50EA3E03400F50F741E
:1033300004121717E024021235941232BD1204EA67
:103340008A0A8B0B7F007E00A818A91988088909B2
:10335000780812194E850E82850F83A3A3A3A3E0DC
:10336000F5088E09780812194EE50E2405F508E4D3
:10337000350FF509780812194E850E82850F83A343
:10338000A31235C41206D074061216E18A0C8B0DF6
:1033900080291235B5F00F1235B5F00F9002EE12FC
:1033A000390012194E12424EEFF81235881211E60A
:1033B00074021216E19002EEE02FFFE50C450D704D
:1033C00003023444851882851983123A36A3A3A3D5
:1033D000E0F98514828515831232BD1206BEE9FE1E
:1033E000E50C2404F510E4350DF511EE705074046D
:1033F0001217171235BBF5087808121952E4F508B0
:10340000F509780812194E7508EE75090278081248
:10341000194E9002EF1219657407121717121965E9
:10342000E50A24FAF9AC0CAD0D85148285158312DA
:1034300032BD12083E74091216E1E9FE60391235F8
:10344000D1123914EF700302356B9002F2E0F5F0FF
:10345000EF849002F1F07CF17D0285148285158362
:103460001232BD120424E960099002F31232BD1237
:10347000126A790002357E8F08EF703BE4F512F591
:1034800013781212194E7CFF7DFF79118514828505
:1034900015831232BD1207A874021216E11235E12B
:1034A00070091235D11235F502357E9002EEE02416
:1034B000049002F2F080359002EEE0F89002F2E023
:1034C000FAE82404FCE43400FDEC6A4D60030234A5
:1034D0004AE50A24FAFAE50B34FFFBE50828F8E48C
:1034E0003400F9EA98EB99500302344A851082853A
:1034F0001183E0C0E09002F3E02FF8A3E0340088ED
:1035000082F583D0E0F00F851082851183A3E0C09F
:10351000E01235A2D0E0F00F74021217218808895A
:1035200009780812194E7402121717121965850EC0
:1035300082850F83122EF31206DC74041216E18AC0
:103540000C8B0DEA450D70030233927402121717AB
:10355000E0C0E01235A2D0E0F00F7402121717A3FA
:10356000E0C0E01235A2D0E002339AEE70027E0A8B
:10357000850E82850F831235D7123914EEF9740641
:103580001216E17F1002180D9002F3E028FAA3E072
:103590003400FB22F514A3E03400F515851482F500
:1035A00083221235A6229002F3E02FFAA3E0340022
:1035B0008A82F583221235A674FF22123723A3A331
:1035C000A3A3E0221244E0850E82850F831232C14C
:1035D000228510828511831243EF85168285178319
:1035E000229002F3EAF0A3EBF09002F31243EFE82B
:1035F000492212391AE8F0A3E9F079112274EA128B
:10360000173B74FE1216CB8A088B098C128D13EAB5
:103610002405FEE43509FFAC18AD198E828F8312A4
:1036200032BD1206D68A0C8B0DEE2406F50EE43F51
:10363000F50FEA450D70030236F5E5082402F50A98
:10364000E43509F50B8A828B83A3A3A3E0A2E5509E
:10365000288518828519831232BD1208328A108B90
:1036600011EA4511602079121232B385108285115A
:1036700083121739E9F50C707F850E82850F83E080
:10368000600979528011750C0E806D85088285095C
:1036900083A3A3A3A3E0F9E4F508F50978081219B8
:1036A0004E8E828F83A3A3E0F508780812194E8E00
:1036B000828F83A3A3A31219658E828F8312425136
:1036C0001232B712084474061216E1E9F50C7011B3
:1036D000850E82850F83E0702D1232B712042A8086
:1036E000257416650C7011750C00741812171712DA
:1036F000371FE48010750C011243E7851282851391
:1037000083E8F0A3E9F0850E82850F83E0600479F9
:10371000008002A90C74021216E17F0E02180D122D
:10372000372322E0F8A3E0F58388822274EC121795
:103730003B74F71216CB8A0A8B0B8C108D11EA247E
:1037400005FEE4350BFF750C00AC18AD198E828FA9
:10375000831232BD1206D68A088B09EA4509700326
:103760000238EBE50A2402F50A5002050B8A828B27
:1037700083A3A3A3E0A2E5502F85188285198312A5
:1037800032BD1208328A0C8B0DEA450D604F79125A
:10379000AC08AD091232B7850C82850D831217393A
:1037A000E9F50C60030238EE850A82850B83E0F5AB
:1037B00008A3E0F509AA08FB120826EA4B70197A5B
:1037C000FF7BFF120826EA4B70030238E18A828BE6
:1037D00083E508F0A3E509F07508008008750C0E74
:1037E0000238EE05089002EBE0F8E508C3984003C4
:1037F0000238E185080E750F007403780E1216B8B2
:103800008A828B83A3A3E0250EF8A3E0350F123C38
:10381000B570D08E828F83123909122EFF8E828F5F
:1038200083A3A3123909122EFDEE2404F508E43F08
:10383000F509850882F583E088828983A3A3A3A381
:10384000F0A3E4F0EE2405F50EE43FF50F850E82BB
:10385000F583123909A3A3A3A3122EFD75120775D0
:103860001300781212194EEEFCEFFD7404121729A2
:103870001211E674021216E1E4F512781212194ED2
:10388000850882850983E0FC7D0079171232B71222
:1038900007A874021216E17407121717122EFF748C
:1038A00007121717E0FA4B603D85088285098312DD
:1038B000390012194E850E82850F83124251121162
:1038C000E674021216E174021217311232B71204B2
:1038D00030E9602674071217171232BD12126A807F
:1038E00019750C098008750C118003750C011243C1
:1038F000E7851082851183123914A90C7409802878
:10390000E0F5087509007808221232C1888289839F
:103910002212391AE8F0A3E9F022E0F8A3E0F985D1
:103920000E82850F832274041216E17F0C02180D9B
:1039300074EC12173B123A24751000EE2402F50CB9
:10394000E43FF50D850C82F5831232BD1208268AFC
:10395000088B09EA45097003023A08850A82850B3B
:1039600083E0640160030239FDAC08AD09AA0AAB2B
:103970000B12081AE9606E850882850983122C8A69
:10398000EE2406F50AE43FF50B8E828F83A3A31283
:1039900019658E828F83A3A3A3A3121965850A825A
:1039A000850B8312196579188E828F83123A36122D
:1039B00032BD12084474061216E1E9F874166870F4
:1039C0000B850A82850B83E4F0A38014E860128ED5
:1039D000828F831232BD850E82850F83EAF0A3EBBE
:1039E000F088108018780E12194EAC08AD09EEFA66
:1039F000EFFB12082074021216E1E9F510AA08ABD9
:103A00000912082CE510700E850C82850D83123288
:103A1000BD1204368009741665107003751000A974
:103A20001002392BEAFEEBFF8C0E8D0FEE2405F50C
:103A30000AE43FF50B221244E0850C82850D8322B7
:103A400074EA12173B7508007509007E007F007547
:103A50000A00EC2402F510E43DF5118035EC650810
:103A60007003ED65096003023AF588828983A3A398
:103A7000E06A7003A3E06B707C88828983A3A3A3B0
:103A8000A31243EBEE28FEEF39FFEA28FAEB39FBED
:103A9000050A123BC5503A850A0C750D007403786F
:103AA0000C1216B8851082851183123BB8123CB5F2
:103AB000601FE508450970A58C088D0988828983F7
:103AC000122C8888828983A3A3E02EFAA3E03F808A
:103AD000BEE50AC394025003023BB37508007509A2
:103AE00000EE4F6010EEFAEFFB1212648A0E8B0F9D
:103AF000EA450F70057900023BB5750B00023B8863
:103B0000850B0C750D007403780C1216B8851082A5
:103B1000851183E0250CF50CA3E0350DF50DE50CC2
:103B20002406F514E4350DF515851482F583123C51
:103B3000BA6042E50C2404F512E4350DF513851244
:103B400082F583121965E50E2508FAE50F3509FBA4
:103B50001211E674021216E1851282851383E025A4
:103B600008F508A3E03509F5098514828515831247
:103B700032BD12126AE50B600D7C087D007900AA47
:103B80000CAB0D1211FE050BE50BC3950A50030299
:103B90003B008510828511831243EB88828983A3C1
:103BA000A3A3A3A3A3E50EF0A3E50F12281BEEF039
:103BB000A3EFF0790102371A123BBC22E0250CF882
:103BC000A3E0350D229002EBE0F8E50AC3982274D9
:103BD000F012173B8A0E8B0F8C0A8D0B750D00753A
:103BE0000C0080507916EE2406F508E43FF5098EA6
:103BF000828F83A3A31219658E828F83A3A3A3A3AD
:103C0000121965850882850983121965850E8285DA
:103C10000F83A3A31232BD12084474061216E1E901
:103C2000F50D7416650D706C850882850983E4F0C6
:103C3000A3F0050C9002EBE0F8E50CC3985066AADF
:103C40000C8A08750900740378081216B8850A8270
:103C5000850B83A3A3123D04E8FEE9FF8E828F83C8
:103C6000123CBA6040EA2401F508E43400F50990FA
:103C700002EBE065087002E509601488828983A37D
:103C8000A3A3A3A3A3A3A31232EC6003023BE47992
:103C900018023BE6E9609B1243E7741012171712F3
:103CA0003CAC123914A90D7F0802180DE0FAA3E00C
:103CB000F5838A8222F9888289831244E0EC4D22BE
:103CC00074F612173B7C0080010C900348E0F8EC7E
:103CD000C398501E8C08750900740278081216B833
:103CE000123CF9E06A7003A3E06B70DDE8FAE9FBCF
:103CF00080047A007B00023D9C9002E9123D04881A
:103D000082898322E02508F8A3E03509F92274F2BC
:103D100012173B8A088B09750A0080278E828F83D1
:103D2000A3A3A3A3122812600312126A7C087D00C9
:103D30007900EEFAEFFB1211FE8E828F83E4F0A37E
:103D4000F0050A123BC55027850A0C750D00740357
:103D5000780C1216B8850882850983A3A3E0250C88
:103D6000FEA3E0350DFF8E828F831232EC70AD859D
:103D7000088285098374FFF0A3F00244D474F6121C
:103D8000173B1207D88A828B83E582458370067AB7
:103D9000007B008007A3A3A3A31232BD7F020218F9
:103DA0000D74F412173B89088C828D83E0640270D5
:103DB0003C12438AFEA3E0F9EEF8740268700374C3
:103DC00029697029750A02750B00780A12194E7458
:103DD000101217171219657410121717121965A906
:103DE0000812113874061216E1E9F980027901020D
:103DF000284F74E812173B74FB1216CBE985188222
:103E0000851983F08A168B17ECFEEDFF7510008E76
:103E1000828F83A3A3A3E0A2E4502D741D12171771
:103E20001232BD1208328A828B83E5824583700389
:103E3000024229790AEEFCEFFDAA16AB17121739D8
:103E4000E9F510600302422C741F121717E0F50801
:103E5000A3E0F5097421121717E0F50AA3E0F50BAA
:103E60007423121717E0F50EA3E0F50F8E828F83EF
:103E7000E0640260030241CAA31243EB8508828515
:103E80000983A3858212858313EE2406F50CE43F93
:103E9000F50D88828983124269F514E439F51578A5
:103EA000141219D8010000280128CC3E070002286E
:103EB000913F0328FF3E0029C0400129EB40022921
:103EC0008C400329C04004296441CA41E50E450FD6
:103ED00060030241C5850C82850D831243EBE8FA2D
:103EE000E9FB8A828B83E0850A82850B8312427408
:103EF00012194E8A828B83A3E0FCA3E002414EE5B7
:103F00000E450F60030241C5850A82850B8374014B
:103F1000F012425E850882850983F07C007D008E68
:103F2000828F83A3A3A3A3E02401FAA3E03400FBC0
:103F30001206D6EA4B60408A828B83E02402F88521
:103F40000A82850B83E028F0EA2404F8E43BF98830
:103F5000828983E085128285138312428212427421
:103F600012194E8A828B83A3124251E5082403FA68
:103F7000E43509FB024153850A82850B83E0240462
:103F8000F07C047D007900AA12AB131211FE0242EC
:103F90002CE50E450F60030241C512425EFEA3E010
:103FA000FF850A82850B837404F0EE8508828509FB
:103FB00083F0EF851282851383F07403121731EEBC
:103FC000FAEFFB1206D68A0C8B0DEA450D70030240
:103FD000406F8A828B83A3A3122C8874011217214D
:103FE000880E890F780E12194E74051217171219C0
:103FF000657CFF7DFF1206DC74041216E18B0FEA6C
:10400000450F7033850C82850D8312425512194E6F
:10401000850C82850D83A31219657C027D007ACE02
:104020007B811204D874041216E1E9700A7401123B
:10403000171774FFF0A3F08E828F83E0640270394B
:10404000750C02750D00780C12194E8E828F83A3A9
:10405000124251E5082404FAE43509FB1211E67412
:10406000021216E1850A82850B83E024028009741E
:1040700001121717EEF0A3EFF07401121717124296
:1040800043740112171712423A0241BFE50E450F61
:1040900060030241C5850C82850D831244D9AA169E
:1040A000AB1712113E850A82850B837402F08508D6
:1040B00082850983EAF0851282851383EB0241C26F
:1040C000E50E450F60030241C512425EF8A3E0F918
:1040D000850A82850B837402F0E88508828509834E
:1040E000F0E98512828513830241C2850C82850D19
:1040F000831232BD1211E0EAFAF8C3950EE4950F6F
:10410000405CE8650E450F70047A008021851882B6
:10411000851983E0FCE50E2CFCE4350FFDC3EC981B
:10412000ED94005003E08005E50ECAC39AFAEA85D3
:104130000A82850B83F08A0A750B00780A12194EE1
:10414000850C82850D83E0250EFCA3E0350FFDAACA
:1041500008AB091211E674021216E102422C751026
:104160000702422CE50E450F705B850C82850D839E
:104170001243EB850A82850B837407F0888289835A
:1041800012423B124233E0851282851383F0E82409
:1041900002FAE439FB8A828B831242438A828B8340
:1041A00012423AA3A312281A124248F0E82405F852
:1041B00050010988828983124248A3124282A3A334
:1041C000A3A3F0806775100B8062741D121717127D
:1041D00032BD1207D88A828B83E5824583604A12FA
:1041E00043EB880C890DE8450D603E7425121717C6
:1041F000E0F5107810121952780E12194E780A1242
:10420000194E780812194E7407121717E0F9EEFCD0
:10421000EFFDAA16AB17850C82850D831217397432
:10422000071216E1E9F510800375100EA910740548
:10423000023580F088828983A322A3E085088285E5
:10424000098322124289F022124289A3A3229002FA
:10425000EF1244E022E0F50E750F00780E22850C77
:1042600082850D83123723E022E0FAA3E0F8E4C848
:10427000F9EA2822F08A828B83E0F50A750B007830
:104280000A2212423312428922E08508828509837C
:10429000A3A32274EE12173B74FE1216CB8A088B6E
:1042A00009ECFEEDFF890AAC18AD19EEFAEFFB122E
:1042B00006D68A0C8B0DEA450D700302437B8518E8
:1042C000828519831232BD1207D88A828B83E582D8
:1042D00045837003024376A3A31243EB880E890F34
:1042E000E8450F70030243767414121717E0F510B7
:1042F000A3E0F511E50AF50B780B121952741912A7
:104300001717121965781012194E741B121717E03F
:10431000F9AC0CAD0DAA08AB09850E82850F83128E
:10432000173974051216E1E9F50B705274FE650A2F
:10433000604C850C82850D83E06402704112438AD3
:10434000FAA3E0F9EAF87402687003742969702E20
:10435000851082851183124269F50CE439F50D78D8
:104360000C12194EEEFCEFFDAA08AB0912085C74A2
:10437000021216E18008750B0E8003750B01A90B64
:1043800074021216E17F0A02180DA31243EF88820D
:104390008983E02274F612173B74FE1216CB740C5C
:1043A0001217171243EBE8851882851983F0740100
:1043B000121717E9F0E4F508F509780812194E7597
:1043C0000802780812194E74041217218808890906
:1043D000780812194E79FE12084474061216E17418
:1043E000021216E1023D9C8E828F831243EF22E07F
:1043F000F8A3E0F92274F712173BEAFEEBFF8908F5
:1044000090030612425112113EEA5402600BA908B1
:10441000EEFAEFFB1206CA800279017F0102180D45
:1044200074F212173B74FE1216CBEAFEEBFF890AF8
:104430007401650A60147402650A60030244CF794E
:1044400001120A66E960030244CFEEFAEFFB12089C
:1044500026EA4B600312082CA818A91988088909B4
:10446000780812194E750802750900780812194E5D
:104470007508D4750981780812194E7CFF7DFF7A82
:10448000017B001206D074061216E180388508827E
:10449000850983A3A3A3A3A3A31244D9EEFAEFFB38
:1044A000121126E4F50CF50D780C12194E74021257
:1044B00017171219657CFF7DFFAA08AB091206DCED
:1044C00074041216E18A088B09E508450970BE7468
:1044D000021216E17F0602180D1237231244E02261
:1044E000E0FCA3E0FD2274F412173B8A088B09EC70
:1044F000FEEDFF9015E5E0F4604B7A097B001212A7
:104500000AEA4B60408A828B8374B1F0A3E41245BF
:1045100048F08A828B83A3A3E508F0A3E50912453E
:1045200048A3EEF0A3EFF0740C1217171243EB8AB6
:10453000828B83A3A3A3A3A3A3A31239149015E58D
:10454000E0F912121602284FF08A828B83A3A3A3EC
:10455000A32274EE12173B74FA1216CB8A0A8B0B45
:10456000E9FF8C088D097E00850A0C850B0D780CFF
:104570001219920004102E489A45BD45DC45FF45AE
:104580002246454676469946B046E0468F47B247B2
:10459000D54703482E482E48094774016F70198586
:1045A0000882850983E0C39403500D85088285093C
:1045B00083E09016D1F080027E1802485674026F94
:1045C0007015850882850983E0F8A3E0F99016D27A
:1045D000E8F0A3E9F080027E1802485674016F707B
:1045E00019850882850983E0C39402500D850882ED
:1045F000850983E0900749F080027E1802485674CE
:10460000016F7019850882850983E0C39405500DF8
:10461000850882850983E090074AF080027E1802AF
:10462000485674016F7019850882850983E0C39428
:1046300002500D850882850983E090074BF08002C7
:104640007E1802485674106F7027750C10750D0097
:10465000780C12194EAC08AD097A4C7B071211E6A2
:1046600074021216E18A0C8B0D850C82850D8380F5
:10467000027E1802485674016F70198508828509F8
:1046800083E0C39402500D850882850983E090077A
:104690005CF080027E1802485674016F700D850828
:1046A00082850983E09016D5F080027E1802485674
:1046B00074046F7026908190780C12158F85088293
:1046C000850983780C12142150118508828509838D
:1046D0001215B990075E1215C580027E1802485661
:1046E000EF7021120670E970131210CCE9F50D7904
:1046F00050121336E9F50C1210BA800A9007F174C3
:1047000001F080027E1802485674076F707C750EA7
:1047100006750F00780E12194E850882850983A34D
:10472000AC82AD8374021217291211EC74021216B6
:10473000E18A108B1185100E85110F7C007D00AA77
:1047400018AB19850882850983E0F9121060E9F534
:104750000CE50CC3940A502E120670E97015A90CD2
:104760001210D2E9F50E7950121336E9F50D121038
:10477000BA8019A80C790074F228F582740739F50B
:10478000837401F080067E0280027E18024856740F
:10479000016F7019850882850983E0C39402500D6A
:1047A000850882850983E090075DF080027E18020B
:1047B000485674016F7019850882850983E0C39497
:1047C0000A500D850882850983E09016D4F0800296
:1047D0007E1802485674016F70258508828509830A
:1047E000E0C394074019850882850983E0C39411CA
:1047F000500D850882850983E09016D6F080577E9B
:1048000018805374016F70229007F0E0F50C850852
:1048100082850983E09007F0F0E50C70399007F08D
:10482000E0640170311210BA802C7E188028C3E534
:104830000A9427E50B9400501B74026F70168508CC
:1048400082850983E0FCA3E0FDAA0AAB0B1204F009
:10485000E9FE80027E02EEF974061216E17F0A027A
:10486000180D74EC12173B74DA1216CB890D8A12EC
:104870008B138C0A8D0B743A121717E0F50C90818C
:1048800038AC18AD1974061215DEAC18AD19AA12A1
:10489000AB13A90D121060E9FEEEC3940A400302A7
:1048A00049D6EEF912109CE9FF9016D1E06402702F
:1048B00004740180027400F5087808121952AD0CD6
:1048C000EFFCEEF9AA0AAB0B12110E74011216E1FD
:1048D0007C147D00790074121217291211FE8A0EC1
:1048E0008B0F850E08850F0974121217317A107517
:1048F000F006EEA42424F9121330E9703C7C107900
:10490000FF741212172912125EE9702D7422121709
:1049100017AC82AD837A0475F006EEA42425F91253
:104920001330E9F5087412121731EFA2E0E433F9FD
:10493000AA0AAB0B12057AE9F874061217317A0C41
:1049400074702EF9121330E9707974061217291257
:104950001090750E00E50EC394045067A80E790000
:10496000E875F003A4C8AAF075F000A42AFA75F05F
:1049700003E9A42AF97406121717E58228F508E559
:104980008339F509850882850983E0F8A3E0F9E811
:1049900049602C850882850983A3A3E0F510751171
:1049A00000781012194E850882850983E0FCA3E087
:1049B000FDAA0AAB0B12084A74021216E1E9F805C7
:1049C0000E8092EFA2E1500E900748E0F9AA0AABE0
:1049D0000B120850E9F87404650C700F9016D1E0C2
:1049E00064027007AA0AAB0B121108790074261230
:1049F00016E17F0C02180D74F712173BEAFEEBFF6D
:104A0000120670E970679007F1E06401701B1210E4
:104A1000CCE9F5089007F17400F07C0A7D0079007C
:104A20007AF27B071211FE8039750800E508C394FD
:104A30000A502FA808790074F228F582740739F516
:104A400083E064017018A9081210D2E9FAA8087965
:104A50000074F228F582740739F5837400F00508B4
:104A600080CA7950121336E9F5081210BA7F010294
:104A7000180D74F212173B890BEAFEEBFF8C088DC0
:104A800009750A0AE50B600C14600914604414608F
:104A900064024B17EEFAEFFB1210AEE9F50AE50AD5
:104AA000C3940A5072E5084509606C750C06750DD3
:104AB00000780C12194EEEFCEFFDAA08AB0912119A
:104AC000E674021216E18A0C8B0D850C82850D832B
:104AD0008045EEFAEFFB1210A8E9F50AE50AC39447
:104AE0000A5034E5084509602EAA08AB09A90A1244
:104AF00010A2E98022EEFAEFFB1210B4E9F50AE504
:104B00000AC3940A5011E5084509600BAA08AB09CD
:104B1000A90A1210A2E9F8A90A7F0602180D74F278
:104B200012173B8A0C8B0DE9FF7E1574FF650C7024
:104B30000474FF650D702A750800E508C3940A50D7
:104B400014EFFC7A027B00A90812107EE960027E55
:104B500000050880E5EF60627AF67B10120A8A8011
:104B600059AA0CAB0D120A5A8A0A8B0B850A0885C2
:104B70000B09E508450960407C007D00E508240537
:104B8000FAE43509FB850882850983A3A3A3A3E082
:104B9000F9121060E9F50AE50AC3940A500EEFFC19
:104BA0007A027B00A90A12107EE97E00EF600BAA50
:104BB00008AB091210F680027E14EEF97F06021887
:104BC0000D74EE12173B8A0E8B0F8C0A8D0B74122C
:104BD000121717E0F50CA3E0F50D75081574FF65C5
:104BE0000E700474FF650F701E7E00EEC3940A50B1
:104BF00061AC0CAD0DAA0AAB0BEEF9121084E960A2
:104C0000037508000E80E4AA0EAB0F120A5A8A1030
:104C10008B11AE10AF11EE4F60357C007D00EE249D
:104C200005FAE43FFB8E828F83A3A3A3A3E0F912CE
:104C30001060E9F509E509C3940A5016AC0CAD0DF6
:104C4000AA0AAB0BA909121084E975080080037544
:104C50000814A9087F0A02180D74F712173BEAFE20
:104C6000EBFF900762EEF0A3EFF0900748E0FC7DC9
:104C7000007A267B001204F0E9F508900748E0F975
:104C80001207B47F0102180D74F012173B74EC1276
:104C900016CB8A0C8B0D850C82850D83A3A3E02493
:104CA000FA700302510124FD7003024F7614700361
:104CB000024D7814601024FD7003024F1E1470031F
:104CC000024FB5025114AE0CAF0D900762E0F8A38D
:104CD000E0F9E8496066900762E0F8A3E0F58388B0
:104CE00082E0F8A3E0F9E8496052EE240CF582E492
:104CF0003FF583E0F5087808121952EE240BF5828F
:104D0000E43FF583E0F98E828F83A3A3A3A3A3A33B
:104D1000A3A3A3E0FCA3E0FDEE2403FAE43FFB9091
:104D20000762E0F8A3E0F5838882E0F8A3E0F5836A
:104D3000888212173974011216E180398E828F83AE
:104D4000A3A3A3A3A3A3A3A3A312196590075E1211
:104D500015AD12058C74021216E1E9601879018E06
:104D6000828F83A3A3A3A3A3A3A3A3A3E0FAA3E097
:104D7000FB120586E9025114AE0CAF0D7508008ECA
:104D8000828F83A3E06003024EA08E828F83A3A351
:104D9000A3A3A3E0A2E04003024EA09007FCE0F82A
:104DA000A3E0F9E8496003024EA07C0E7D00790083
:104DB000AA18AB191211FE8A0A8B0BAA0AAB0BEECA
:104DC000240CF582E43FF583E0F8A3E0F9E84960BC
:104DD00036750A06750B00780A12194EEE240CF58A
:104DE00082E43FF583E02410FCA3E03400FD74026C
:104DF0001217291211E674021216E18A0A8B0B852A
:104E00000A82850B83804F8E828F83A3A3A3E0FA4F
:104E1000A3E0FB120A5A8A0E8B0F850E0A850F0B30
:104E2000E50A450B602D750E06750F00780E1219F8
:104E30004EE50A2405FCE4350BFD74021217291215
:104E400011E674021216E18A0E8B0F850E82850F11
:104E50008380030251148E828F83A3A3A3A3A3E0B4
:104E6000A2E25004D2F08002C2F0A2F0E433F8795A
:104E700000740C121717E048F0A3E049F0EEFCEFC5
:104E8000FDAA18AB19121096E970127A027B0090F5
:104E90000748E0F912123AE979000251167508152F
:104EA000900762E0F8A3E0F9E849606F900762E0DC
:104EB000F8A3E0F5838882A3A3E0F8A3E0F9E8492A
:104EC00060598E828F83A3E0FC79018E828F83A349
:104ED000A3A3E0FAA3E0FB900762E0F8A3E0F58368
:104EE0008882A3A3E0F8A3E0F5838882121739E54E
:104EF000086028AC0879038E828F83A3A3A3E0FA0D
:104F0000A3E0FB900762E0F8A3E0F5838882A3A307
:104F1000E0F8A3E0F5838882121739025114AE0C31
:104F2000AF0D900762E0F8A3E0F9E849604590070B
:104F300062E0F8A3E0F5838882A3A3E0F8A3E0F998
:104F4000E849602F850C82850D83A3E0FC79028EF1
:104F5000828F83A3A3A3E0FAA3E0FB900762E0F8AB
:104F6000A3E0F5838882A3A3E0F8A3E0F583888219
:104F7000121739025114AE0CAF0D7C007D00EE24E7
:104F800004FAE43FFB8E828F83A3A3A3E0F91210FF
:104F900060E9F508E508C3940A5017EE240AFCE41A
:104FA0003FFD7A0475F006E508A42425F912132ABA
:104FB000E9F8025114AE0CAF0D90075DE060199056
:104FC00016D4E0F98E828F83A3A3A3E0FAA3E0FBBB
:104FD000120586E9F80251149016D1E07016790591
:104FE0008E828F83A3A3A3E0FAA3E0FB120586E9D8
:104FF000F80251148E828F83A3A3A3E0FAA3E0FBEF
:10500000120A5A8A0A8B0B850A08850B09E508459E
:105010000970030251148E828F83A3A3A3A3A3A3B9
:10502000A3E0A2E0506D850882850983A3A3A3A312
:10503000E060608E828F83A3A3A3A3A3A3A3A3A3F3
:10504000E0F50AA3E0F50B7409780A1216A9E50A3F
:105050005401F8E50B5400F9E8A2E04036740E1252
:105060001731E5082405FAE43509FB85088285092E
:1050700083A3A3A3A3E0F9121060E9701679038E4D
:10508000828F83A3A3A3E0FAA3E0FB120586E9F8CD
:10509000025114EE2405FCE43FFD85088285098356
:1050A000A3A3A3A3E0F98E828F83A3A3A3E0FAA313
:1050B000E0FB121102900762E0F8A3E0F9E8496012
:1050C00053900762E0F8A3E0F5838882A3A3E0F899
:1050D000A3E0F9E849603D7C0079008E828F83A3CC
:1050E000A3A3E0FAA3E0FB900762E0F8A3E0F58356
:1050F0008882A3A3E0F8A3E0F583888212173980A1
:1051000013AE0CAF0D8E828F83A3A3A3E0FAA3E0AE
:10511000FB12105A790174141216E17F0802180D5F
:1051200074F512173B74F21216CB8909EAFEEBFFF5
:105130008C0AAC18AD197A0E75F006E509A4242086
:10514000F9121330E9705F7C0679FFAA18AB1912C7
:10515000125EE97051740C121717E0F8A3E0F9E839
:10516000F508E50A6005EE42088004EEF45208A84E
:10517000087900740C121717E0687003A3E06960E7
:1051800021A8087900740C121717E8F0A3E9F0AC15
:1051900018AD197A0E75F006E509A42420F912134A
:1051A0002AE9790180027900740E1216E17F030268
:1051B000180D74F012173B74E61216CB890B8A0C8B
:1051C0008B0DECFEEDFF740C1217317A0E75F006A4
:1051D000E50BA42420F9121330E960030252E27CAB
:1051E0000679FF740C12172912125EE9600302524D
:1051F000E2AC18AD197A0C7470250BF9121330E972
:1052000060030252DE750A00AA18AB19121090E56D
:105210000C450D702E7C0C7900AA18AB1912125E89
:10522000E960030252C47C0C7D007900AA18AB1916
:105230001211FE8A088B09850882850983750A0187
:105240000252C4AC18AD19AA0CAB0D12108A8A0E0A
:105250008B0F850E08850F09E50845097030EE4F64
:10526000601BAC18AD197A007B0012108A8A0E8B75
:105270000FA80EA90F88088909E8497004790080F1
:1052800063850882850983E50CF0A3E50DF08508A8
:1052900082850983A3A3E0F87900EE687002EF69C4
:1052A0006022EEC0E0850882850983A3A3D0E0F0E8
:1052B000EE4F700D8508828509837400F0A3740099
:1052C000F0750A01E50A6016AA18AB19121090AC25
:1052D00018AD197A0C7470250BF912132AE97901AB
:1052E00080027900741A1216E17F0802180D74F614
:1052F00012173B8A088B097E00EEC394045050EECF
:10530000F87900E875F003A4C8AAF075F000A42AA3
:10531000FA75F003E9A42AF9EC28F582ED39F58352
:10532000E065087004A3E065097021EEF87900E8F3
:1053300075F003A4C8AAF075F000A42AFA75F0036A
:10534000E9A42AF9EC28FAED39FB80070E80AA7A45
:10535000007B007F0202180D74F712173B7C00ECF3
:10536000C394044003025407ECF87900E875F00395
:10537000A4C8ADF075F000A42DFD75F003E9A42DCF
:10538000F9EA28F582EB39F583E0F4FEA3E0F4FFB7
:10539000ECF87900E875F003A4C8ADF075F000A44E
:1053A0002DFD75F003E9A42DF9EA28F582EB39F516
:1053B00083EEF0A3EFF0ECF87900E875F003A4C8F1
:1053C000ADF075F000A42DFD75F003E9A42DF9EA08
:1053D00028F582EB39F583A3A3E0F4C0E0ECF8797B
:1053E00000E875F003A4C8ADF075F000A42DFD75BC
:1053F000F003E9A42DF9EA28F582EB39F583A3A39C
:10540000D0E0F00C02535F7F0102180D74F0121708
:105410003B74F41216CBEAFEEBFF8C088D09900763
:10542000FCE0F8A3E0F9E849702CEE4F6006E508CF
:105430004509700579010256B8EEFAEFFB1210AE7D
:10544000E99016D7F09016D7E0C3940A40081210DE
:10545000C0E99016D7F09016D7E0C3940A40030233
:1054600056B69007FCE0F8A3E0F9E849600302555E
:1054700002EEFCEFFD7A0E75F0069016D7E0A4243C
:1054800020F912132AE9F50C7C0C7D0079FFAA188B
:10549000AB191211FE8A0E8B0F850E0A850F0BAC0D
:1054A00018AD197A0C9016D7E02470F912132AE976
:1054B000F50D750E0E750F00780E12194EEEFCEFFD
:1054C000FD9016D7E0F87900E875F00EA4C8AAF0B0
:1054D00075F000A42AFA75F00EE9A42AF97464287C
:1054E000FA740739FB1211E674021216E18A0E8B68
:1054F0000FA80EA90F9007FCE508F0A3E509F0023C
:1055000056B29007FCE0F8A3E0C82406F582C83440
:1055100000F583E0F8A3E0F9E84960439007FCE078
:10552000F8A3E0C82406F582C83400F583E0FCA3A4
:10553000E0FD7A1B75F0069016D7E0A42421F9123D
:10554000132AE9F89007FCE0F9A3E0C92406F582E4
:10555000C93400F5837400F0A37400F00256B290D1
:1055600007FCE0F8A3E0C8240AF582C83400F583FC
:10557000E0F8A3E0F9E84960439007FCE0F8A3E015
:10558000C8240AF582C83400F583E0FCA3E0FD7A64
:105590001B75F0069016D7E0A42422F912132AE90D
:1055A000F89007FCE0F9A3E0C9240AF582C93400A9
:1055B000F5837400F0A37400F00256B29007FCE08B
:1055C000F8A3E0C8240CF582C83400F583E0F8A302
:1055D000E0F9E84960439007FCE0F8A3E0C8240C38
:1055E000F582C83400F583E0FCA3E0FD7A1075F085
:1055F000069016D7E0A42423F912132AE9F890079D
:10560000FCE0F9A3E0C9240CF582C93400F58374E9
:1056100000F0A37400F00256B29007FCE0F8A3E09B
:10562000C82408F582C83400F583E0F8A3E0F9E85F
:1056300049606F9007FCE0F8A3E0C82408F582C831
:105640003400F583E0FCA3E0FD7A1075F0069016B7
:10565000D7E0A42424F912132AE9F50A9007FCE004
:10566000F8A3E0C82408F582C83400F583E02410CC
:10567000FCA3E03400FD7A0475F0069016D7E0A490
:105680002425F912132AE9F89007FCE0F9A3E0C9F0
:105690002408F582C93400F5837400F0A37400F087
:1056A00080109007F0E060031211141210FC7901D1
:1056B0008006790080027901740C1216E17F0802DD
:1056C000180D74F712173B74F21216CBE9FEAC18E2
:1056D000AD197A0E75F006EEA42420F9121330E904
:1056E000700E740C121717E0F8A3E0F9E8F98002C5
:1056F0007900740E1216E17F0102180D74F412176E
:105700003B74F21216CB8909EAFEEBFFE509C3945C
:105710000A5004EE4F700479028041AC18AD197A3A
:105720000E75F006E509A42420F9121330E9F508F6
:10573000E5087026750A06750B00780A12194E7472
:1057400002121731EEFAEFFB1211E674021216E1A3
:105750008A0A8B0B850A82850B83A908740E1216A0
:10576000E17F0402180D74F412173BEAFEEBFF759B
:105770000800E508C3940A5043750A06750B0078C3
:105780000A12194EEEFCEFFDA8087900E875F00E3C
:10579000A4C8AAF075F000A42AFA75F00EE9A42AAC
:1057A000F9746A28FA740739FB1211F87402121698
:1057B000E1E96004A9088006050880B6790A7F043B
:1057C00002180D74F412173BEAFEEBFF750800E5B2
:1057D00008C3940A5043750A06750B00780A12191B
:1057E0004EEEFCEFFDA8087900E875F00EA4C8AAFB
:1057F000F075F000A42AFA75F00EE9A42AF9746491
:1058000028FA740739FB1211F874021216E1E960E4
:1058100004A9088006050880B6790A7F0402180DDD
:1058200074F712173B74F01216CBEAFEEBFF750803
:1058300000E508C3940A5039AC18AD197A1075F018
:1058400006E508A42423F9121330E970207C1079AE
:10585000FFAA18AB1912125EE97012EEFCEFFDAA56
:1058600018AB19120556E97004A9088006050880CE
:10587000C0790A74101216E17F0102180D74F41237
:10588000173B750800E508C3940A4003025957A85E
:10589000087900E875F00EA4C8AAF075F000A42AF3
:1058A000FA75F00EE9A42AF9746428FC740739FD2E
:1058B0007A0E75F006E508A42420F9121330E97079
:1058C000030259527C067D0079FFAA087B00EA7525
:1058D000F00EA4CAA8F075F000A428F875F00EEB3D
:1058E000A428FB74642AFA74073BFB1211FE8A0A8F
:1058F0008B0BAE0AAF0B7C067D0079FFAA087B00FC
:10590000EA75F00EA4CAA8F075F000A428F875F0A6
:105910000EEBA428FB746A2AFA74073BFB1211FEF3
:105920008A0A8B0BAC0AAD0BA8087900E875F00E5B
:10593000A4C8AAF075F000A42AFA75F00EE9A42A0A
:10594000F9747028F582740739F5837400F0A37434
:1059500000F005080258859007F0E060031211146A
:105960001210FC7F0402180D74F712173B7E00EE34
:10597000C3940A50327C0679FFEEFA7B00EA75F098
:105980000EA4CAA8F075F000A428F875F00EEBA4D8
:1059900028FB74642AFA74073BFB12125EE9600468
:1059A000EEF980050E80C8790A7F0102180D74F7A0
:1059B00012173B7E007F00EFC3940A50357C0679B6
:1059C000FFC9FDC9EFF87900E875F00EA4C8AAF088
:1059D00075F000A42AFA75F00EE9A42AF974642877
:1059E000FA740739FBCDF9CD12125EE970010E0F82
:1059F00080C5EEF97F0102180D74F712173B7E0087
:105A00007F00EFC3940A500DEE700AEFF91210D226
:105A1000E9FE0F80EDEEF97F0102180D74F0121708
:105A20003B74CB1216CB89099016D7E06509701D1F
:105A30007A017B00900748E0F9121240E97A027B74
:105A400000900748E0F9121240E912112074271261
:105A500017317A0E75F006E509A42420F9121330E7
:105A6000E96003025B547C0679FF74271217291240
:105A7000125EE96003025B547C0E7D0079FF74279F
:105A80001217291211FE8A0A8B0B850A0C850B0D41
:105A90007C1B7D0079FF740C1217291211FE8A0EEF
:105AA0008B0F850E0A850F0B7C0C7D0079FFAA18E1
:105AB000AB191211FE8A0E8B0FAE0EAF0F742712A8
:105AC00017317A0E75F006E509A42420F912132A7D
:105AD000E9F508740C1217317A1B75F006E509A474
:105AE0002421F912132AE94208740C1217317A1B87
:105AF00075F006E509A42422F912132AE942087474
:105B00000C1217317A1075F006E509A42423F91256
:105B1000132AE94208740C1217317A1075F006E561
:105B200009A42424F912132AE94208740C1217312B
:105B30007A0475F006E509A42425F912132AE9422E
:105B400008AC18AD197A0C74702509F912132AE9FA
