:020000040000FA
:0600000002010702215578
:03002B0002255952
:030053000221CBBC
:10008300021FABE5C754F84401F5C779012200000C
:100093000080FB120086B900030200F1E4792178A5
:1000A30008B800028004F709D8FCE479297802B87B
:1000B30000028004F709D8FCE4900281788F791359
:1000C3008002F0A3D8FCD9FA7A0F7B159001377818
:1000D3000879048015E493A3AD82AE838A828B836F
:1000E300F0A3AA82AB838D828E83D8E9D9E7758288
:1000F3009075837F74001201197582917583007462
:100103000012011975D00075813F751881751902A8
:10011300759F00020096C09FF59FE473D09F22D085
:1001230083D082C09FE493C0E0740193C0E0740263
:1001330093F59F22FF0000B4000028002800283018
:1001430075A000A000A000A00000080008E001F0D6
:10015300001000100010001000100010005000509C
:1001630000500010001000D0070000000000000F36
:100173000001000500307507001000010081FF0039
:10018300000000FFFFFF60067E066606A206FF0270
:10019300020208025000A0000000E80302CF810120
:1001A3000000C18102D3810100006A1502D98101D7
:1001B3000000BF0202D3810100006B1502DB810145
:1001C3000000D50202D3810100006C1502DD81011C
:1001D3000000D70202D3810100006D1502DF810800
:1001E3000000D80202D3810100006E1502E18101F3
:1001F30000006F15FF0100FF2002CF81010000C442
:100203008102D381010000D31502E38100000000C5
:100213000002E981030000060317000E0D0E0D0E08
:100223000D0E0D0E0D0E0D0E0D0E0D0E0D0E0D0EF3
:100233000D0E0D0E0DB40FC60FAE0F020202020219
:1002430002020202010D000000100102CF81010031
:1002530000C78102D381010000161602F381010059
:1002630000400702D381010000171602F18101004B
:1002730000158102D381010000181602EF810100ED
:1002830000F98002D381010000191602ED810100FB
:1002930000A58002D3810100001A1602EB81010040
:1002A30000818002D3810100001B1602E781010057
:1002B30000B78002D3810100001C1602E581010012
:1002C30000938002D3810100001D1602D781010033
:1002D30000078102D3810100001E16020382010080
:1002E300001F1601E8030577100AFFFFFF00013026
:1002F300750302010600000000000000000000007A
:1003030000000000000000000000000000000000EA
:1003130000FFFF0600800CE803140953696D706C3D
:1003230065424C455065726970686572616C05126F
:1003330050002003020A000201060302F0FF536982
:100343006D706C6520424C4520506572697068651C
:1003530072616C0414000010140A436861726163D3
:100363007465726973746963203100024368617252
:10037300616374657269737469632032000843684A
:100383006172616374657269737469632033001009
:10039300436861726163746572697374696320345D
:1003A300000243686172616374657269737469639F
:1003B30020350002CF81010000CA8102D3810100F0
:1003C30000341702F981030000041502D5810100EE
:1003D30000351702D381010000461702FB8101009B
:1003E30000051502D581010000471702D3810100E2
:1003F30000581702FD81020000061502D581010095
:1004030000591702D3810100006A1702FF8100001F
:1004130000071502E981030000081502D5810100D8
:10042300006B1702D3810100007C170201820400D4
:10043300000A1502D5810100007D1712012259A679
:10044300031201226CA6031201229DA603120122AC
:10045300D7A60312012230A70312012277A70312A2
:100463000122BFA703120122EEA7031201221DA836
:100473000312012254A8031201229BA80312012292
:10048300B4A80312012209A90312012222A903120B
:10049300012270A903120122AAA903120122A0CBEF
:1004A30002120122A3CC02120122DCCC021201228D
:1004B300FFCC0212012211CD021201224FCD0212F2
:1004C3000122CBCD0212012293CE02120122B5CE1C
:1004D300021201224CCF021201229ECF02120122EC
:1004E300CFCF02120122DCCF0212012246D0021228
:1004F30001229DD002120122A0D002120122D9D0E2
:1005030002120122DCD002120122E6D002120122E1
:100513003AD1021201227BD102120122AED1021280
:100523000122EBD102120122EDD20212012291D358
:1005330002120122FAD30212012238D4021201223A
:10054300A89A03120122D09A03120122FD9A0312E0
:100553000122359B03120122939B03120122DF9B8D
:1005630003120122469C03120122869C03120122DC
:10057300C39C03120122F19C031201229B9D0312CF
:100583000122A59D03120122B29D03120122E59DC2
:1005930003120122F19D03120122099E031201227B
:1005A300139E03120122E0BF03120122EEBF0312C6
:1005B300012206C0031201221DC003120122C2BA86
:1005C300011201226CBB011201227FBC0112012224
:1005D300FBBC0112012219BE0112012255BE0112F8
:1005E3000122F0BE01120122D4BF01120122A0C0D8
:1005F300011201222EC2011201229FC20112012205
:1006030059C3011201224BC4011201228BC40112EE
:1006130001223FC50112012271C50112012267C7E0
:1006230001120122A9C701120122C7C70112012227
:100633002DC801120122FCC801120122C0C90112F6
:100643000122DFCB01120122ECDB02120122D6DCF4
:100653000212012281DD02120122D2DD02120122E5
:1006630082DE02120122F3DE02120122D8DF02121D
:1006730001220CE00212012205E10212012242E1F1
:10068300021201221EE2021201225DE20212012283
:1006930079E202120122F4B60312012278B703129F
:1006A3000122A3B703120122BDB803120122A19EA6
:1006B30003120122B79E03120122D59E03120122C7
:1006C300E69F03120122F09F031201221BA10312D2
:1006D300012212A2031201227FA2031201227BE84C
:1006E30002120122B1E902120122E8E902120122F7
:1006F3003FEA0212012254EC021201220C9601126B
:100703000122989601120122FC97011201220898F6
:1007130001120122439801120122B298011201220F
:10072300BB9901120122C49A011201228B9B01126F
:100733000122E89C01120122069D01120122239D40
:1007430001120122D09D011201224D9E01120122AC
:10075300759E011201223FA10112012244A101123F
:1007630001225DA301120122ABA3011201221BA4EA
:100773000112012259A40112012235A501120122FD
:10078300F5A50112012241A60112012244A601127C
:10079300012288A601120122D0A6011201220FA76D
:1007A3000112012231A70112012265A701120122C0
:1007B300C8A7011201221BEE0212012229EE021226
:1007C30001227CEE021201229BEE02120122E0EED4
:1007D3000212012224F002120122BFF002120122AE
:1007E30003F1021201222DF1021201229CF10212E5
:1007F3000122E2F10212012259F2021201220AF34A
:10080300021201228C25001201229C2500120122D2
:100813003D260012012299260012012256270012BA
:100823000122722800120122A42800120122D328D7
:1008330000120122802A00120122F72C0012012249
:10084300672F001201225930001201225231001287
:1008530001225933001201224D36001201227C3746
:1008630000120122803900120122903A0012012263
:100873001F3C00120122103D001201225E3D0012B6
:100883000122CD3D00120122F13D00120122423E20
:1008930000120122E34200120122E443001201226A
:1008A3004544001201227044001201223645001211
:1008B30001226E9603120122789603120122BD963D
:1008C30003120122D196031201226197031201221E
:1008D3009A9703120122D59703120122FE9703125E
:1008E3000122529803120122679803120122899868
:1008F300031201229E9803120122B29803120122CD
:10090300C798031201220199031201222D990312A0
:100913000122769903120122E899031201222B9AEC
:1009230003120122559A03120122809A0312012213
:10093300CCBE031201221CA402120122FFA4021244
:1009430001227AA502120122B5A50212012206A7ED
:100953000212012294A70212012226AA02120122E4
:10096300D8AA02120122E4AB0212012257AD0212ED
:100973000122B0AD02120122DC8D031201221F8E6F
:1009830003120122A38E031201227A910312012280
:1009930088B2031201223AB30312012236B40312BE
:1009A300012275B403120122CFB403120122ECB861
:1009B300031201224FB903120122ECB903120122DF
:1009C30021BA0312012251BA031201228CBA031273
:1009D3000122ACBA031201220080031201228C808F
:1009E300031201224B8103120122638203120122AB
:1009F3007D8403120122888D02120122AD8D021221
:100A030001227A8E021201224E8F02120122BB8F23
:100A130002120122FB8F021201229790021201227D
:100A2300CB9102120122A692021201220593021215
:100A33000122919302120122FF93021201228B944D
:100A430002120122D19402120122439502120122C1
:100A5300D59502120122769602120122969602126F
:100A63000122DE96021201222797021201224397E6
:100A730002120122699702120122E3970212012254
:100A8300F19702120122809802120122E9980212C0
:100A93000122B484031201223985031201227B85CA
:100AA300031201225F8603120122CC860312012264
:100AB3001087031201225487031201228187031234
:100AC3000122A98703120122E187031201221F8851
:100AD30003120122468803120122C0880312012255
:100AE3000A8903120122ECCB011201228BCD0112E0
:100AF3000122C3CF0112012217D00112012242D0D9
:100B0300011201221ED1011201224ED10112012232
:100B13007DD10112012290D101120122D1D1011202
:100B23000122FED1011201224CD20112012288D2EC
:100B330001120122CDD2011201221AD30112012284
:100B430094D301120122D5D501120122BFD701127C
:100B53000122FBD7011201228AD901120122CFD926
:100B63000112012242DA0112012297DA0112012253
:100B73009CDA0112012226DB0112012245DC01125B
:100B8300012256DC0112012201C2021201227AC2A1
:100B93000212012234C8021201223FC902120122A9
:100BA300E8CA0212012276CB02120122506300121C
:100BB3000122D16300120122FE6300120122476465
:100BC30000120122486500120122A16500120122D0
:100BD3001D67001201229F6700120122BA670012EB
:100BE30001222B6800120122E86800120122AB697E
:100BF30000120122396A00120122F06A0012012256
:100C0300036B001201229C6B00120122336C001251
:100C130001225A6C00120122C36C001201220D6DD5
:100C2300001201225B6D00120122006E00120122EC
:100C33009E6E001201222B6F001201229C6F001284
:100C43000122E36F001201223B70001201226D703A
:100C5300001201222771001201222E7200120122BA
:100C6300777200120122947200120122B3720012F1
:100C73000122E673001201229D7400120122C27444
:100C830000120122D77400120122477500120122BB
:100C9300887500120122AC76001201222D77001212
:100CA300012241B8021201228CB80212012298B823
:100CB300021201226CB90212012283B9021201222B
:100CC300C0B902120122F1B90212012229BA021299
:100CD30001227FBA0212012295BA02120122D1BA6D
:100CE30002120122E4BA021201220BBB02120122F8
:100CF3003FBB0212012265BC02120122AFBD0212E8
:100D03000122ABBE02120122C8BF02120122F77FE9
:100D13000012012279DC01120122B4DC011201224A
:100D230006E00112012262E10112012221E2011215
:100D3300012288E50112012272E601120122BEE6B8
:100D430001120122D8E60112012215E70112012244
:100D530020E7011201225FE70112012268E7011275
:100D6300012212E801120122E9E8011201223DE900
:100D7300011201229AE9011201220CEA0112012255
:100D8300A0A801120122FFAB0112012205AC01123E
:100D9300012236B3011201223DB701120122E1FC07
:100DA30002120122BEFD0212012202FE02120122E0
:100DB3003CFE02120122D4FE0212012243FF021260
:100DC30001224CFF0212012258FF0212012272FF7C
:100DD300021201229CFF02120122CCFF0212012205
:100DE3002C9203120122399203120122539203120D
:100DF3000122869203120122C49203120122299333
:100E0300031201223E93031201224993031201228A
:100E13005693031201226D93031201227B93031253
:100E23000122869303120122929303120122A193BA
:100E330003120122AC9303120122CF930312012266
:100E43007394031201228394031201229D940312CB
:100E53000122BA9403120122D59403120122FA94B7
:100E6300031201220595031201221A95031201228E
:100E73002E95031201228F950312012295950312D9
:100E830001229B9503120122A19503120122B99518
:100E930003120122EC9503120122058002120122A2
:100EA3009C80021201223481021201222482021246
:100EB30001225B82021201226E8202120122DC8273
:100EC300021201227784021201229E84021201225D
:100ED30040850212012275850212012286850212C3
:100EE3000122FF8502120122208602120122388686
:100EF3000212012290870212012299890212012211
:100F0300E98B02120122EC8C021201223B8D0212A8
:100F130001225BEB0112012258EC0112012243ED85
:100F2300011201224DED011201226FED0112012286
:100F33007BED01120122CDEE01120122FCEE011222
:100F430001222CF0011201226EF0011201229AF10A
:100F53000112012270F201120122C2F201120122D6
:100F630021F30112012258F30112012293F301121A
:100F730001222EF70112012247F701120122C9F7BC
:100F830001120122D7F7011201222CF801120122CA
:100F93003AF801120122A7F80112012219F90112EC
:100FA30001225FF9011201220C99021201222E99EA
:100FB30002120122189B02120122BD9E021201227B
:100FC30000A002120122DAA002120122BABA03120D
:100FD3000122DFBA0312012250BB031201226377FD
:100FE300001201226C770012012275770012012290
:100FF300A67800120122C57A00120122FB7A0012A0
:101003000122357B001201226B7B00120122A57B9A
:1010130000120122D97B00120122057C0012012259
:101023004E7C00120122887C00120122D07C001227
:101033000122267D001201225B7D00120122B67D72
:1010430000120122F07D00120122417E00120122D2
:10105300777E00120122B17E00120122DF7E001290
:101063000122027F00120122ADC003120122D9C066
:101073000312012234C1031201223EC103120122D1
:101083004EC1031201221CF30212012243F3021286
:1010930001227EF3021201222EC303120122A24572
:1010A30000120122B24800120122474A0012012213
:1010B300C24A001201226E4B00120122114C00128F
:1010C3000122A94C00120122D84C001201227051B6
:1010D300001201220252001201223E530012012289
:1010E300A853001201225C5400120122125700126D
:1010F30001224C5700120122B65700120122135845
:1011030000120122705800120122CD580012012250
:10111300B85900120122FE5900120122495A001245
:1011230001226C5A00120122B35B00120122C75B39
:1011330000120122365D00120122755D00120122A8
:10114300B55D00120122085E00120122295E001221
:101153000122675E001201228D6000120122CE601F
:1011630000120122696100120122DB6100120122D7
:101173001C6300120122DAE20212012280E302124E
:101183000122C5E4021201224EE5021201223BE6CE
:10119300021201227AE602120122E4E6021201227D
:1011A30052E702120122FCC30312012217AD0312FC
:1011B3000122E2AF03120122DFC30312012258C14D
:1011C3000312012268C1031201227CC1031201220E
:1011D300F8C10312012212AA03120122BAAA0312AE
:1011E3000122FCAC03120122FA7F00120122E57FE7
:1011F30000120122AABD03120122DBBD0312012248
:1012030005BE0312012263BE031201225ED4021241
:10121300012273D402120122CFD4021201223AD541
:101223000212012282D502120122F4D502120122F6
:101233001DD6021201222BD6021201228DD60212D2
:101243000122CBD602120122E6D60212012281D755
:10125300021201222AD802120122ADD8021201225F
:10126300E6D80212012271D902120122C8D9021250
:10127300012226DA0212012238DA021201225EDA90
:101283000212012267DA02120122B8DB02120122E2
:10129300FAB40312012261B5031201221EB603122E
:1012A30001229CB60312012289A203120122BCA2CD
:1012B30003120122EEA30312012232A4031201221C
:1012C3000EA50312012270BC031201224EBD0312AC
:1012D3000122F0AF0312012235B0031201227BB0C9
:1012E3000312012244B2031201229EC203120122FD
:1012F300B9C203120122C9C203120122FBC10312A4
:10130300012259AE0212012235AF021201227CAF33
:1013130002120122B9AF0212012227B002120122E6
:1013230081B002120122F1B002120122C1B10212F4
:101333000122B0B20212012227B302120122C3B466
:101343000212012250B502120122C3B50212012278
:101353003FB60212012256B6021201227BB70212D5
:101363000122D5B702120122E8F90112012208FA7B
:10137300011201220EFB011201225AFB011201226A
:101383007AFB01120122CDFB011201223AFC011268
:10139300012280FC01120122E4FC011201220682D7
:1013A30001120122338701120122368A011201221E
:1013B3005F8A01120122888A011201223A8B0112EB
:1013C3000122238D011201226E8E01120122878ECA
:1013D30001120122BE9301120122F793011201228D
:1013E3003B94011201224C95011201224A890312F6
:1013F3000122B58B03120122688C03120122868C11
:1014030003120122A88C03120122798D03120122F7
:10141300A78D031201221AF802120122A3F8021265
:101423000122C0F802120122BDF9021201224AFA76
:101433000212012275FB0212012290FF0112012206
:10144300B3C303120122D6FF01E066701008A3E0C4
:1014530066700A08A3E066700408A3E06622C3E787
:10146300960809E7960809E7960809E79622C3E074
:101473009608A3E09608A3E09608A3E09622C00886
:10148300C3E096F50808A3E096420808A3E0964255
:101493000808A3E09645087001D3D008220808087D
:1014A300EAC0E0EBC0E086F0E7A4FA180986F0E7AB
:1014B300A42AFA180986F0E7A42AFA180986F0E79D
:1014C300A42AFA1986F0E7A4FBE5F02AFA1908869C
:1014D300F0E7A42BFBE5F03AFA190886F0E7A42B12
:1014E300FBE5F03AFA18180986F0E7A4C5F02BFBE0
:1014F300E43AFA1908E7C5F0C6A426F6E5F03BFB83
:10150300E43AFA1886F0E7A4F6E5F00826F6E43B99
:1015130008F6E43A08F6D0E0FBD0E0FA22601608B9
:101523000808C6C313C618C613C618C613C618C6FA
:1015330013C6D5E0EA2270090808082260161818B5
:1015430018C6C333C608C633C608C633C608C6336F
:10155300C6D5E0EA22E627F60809E637F60809E6E3
:1015630037F60809E637F622E026F608A3E036F652
:1015730008A3E036F608A3E036F622E026F008A337
:10158300E036F008A3E036F008A3E036F022C3E625
:1015930097F60809E697F60809E697F60809E69725
:1015A300F622C3E096F008A3E096F008A3E096F0D5
:1015B30008A3E096F022E056F608A3E056F608A347
:1015C300E056F608A3E056F622E056F008A3E056EC
:1015D300F008A3E056F008A3E056F022E0F608A3D3
:1015E300E0F608A3E0F608A3E0F622E6F008A3E697
:1015F300F008A3E6F008A3E6F022E0FAA3E0FBA3D9
:10160300E0FCA3E0FD22E0F8A3E0F9A3E0FAA3E005
:10161300FB22E8F0A3E9F0A3EAF0A3EBF022CAC0AF
:10162300E0E6F0A308DAFAD0E0FA22CAC0E0E0A3C9
:10163300C582CCC582C583CDC583F0A3C582CCC585
:1016430082C583CDC583DAE6D0E0CA22C3E498F825
:10165300E499F91216908026C3E49AFAE49BFBE915
:1016630020E7E9121690E498F8E499F922C3E49884
:10167300F8E499F9121690E498F8E499F9C3E49A16
:10168300FAE49BFB22EB20E7CFE920E7E0B9001067
:10169300BB0008E88AF084F8AAF022E4FBC8FA2227
:1016A300EB70227B10C833C8C933C9335007C39AC0
:1016B300C3DBF280069A50012ADBEAC833F4C8C9B7
:1016C30033F4C9FA2275F008E4C833C8C933C933FF
:1016D300C99AC99B5004C92AC93BD5F0ECFBC8334E
:1016E300F4C8E4C9FA22600D08C6A2E713C618C6F7
:1016F30013C6D5E0F322600C08C6C313C618C6137D
:10170300C6D5E0F422700422600D18C6C333C608A0
:10171300C633C6D5E0F41822251810AF08F51840D3
:101723000C15198008F51840021519D2AF2200C014
:10173300D0251810AF08F518500C05198008F518B6
:1017430050020519D2AFD0D0222518F58210AF0868
:10175300F518400C15198008F51840021519D2AF79
:10176300851983222518F582E43519F58322251876
:10177300F8E43519F9222518FAE43519FB2225185E
:10178300FCE43519FD22E4732518C582C0E0E51990
:1017930034FFC583C0E0E518C3958224F810AF0871
:1017A3008583198582188008858319858218D2AFAD
:1017B300CEF0A3E520F0A37808E608F0A3DEFAEF65
:1017C300F0A3E58124FAF8E608F0A3E608F0A3E61F
:1017D30008F0A30808E608F0A3E608F0A3158115AE
:1017E30081D0E0FED0E0F8158115811581E8C0E0D5
:1017F300EEC0E0222518C582C0E0E51934FFC58399
:10180300C0E0E518C3958224F910AF0885831985D4
:1018130082188008858319858218D2AFCEF0A3E59C
:1018230020F0A37808E608F0A3DEFAEFF0A3E58141
:1018330024FBF8E608F0A3E608F0A30808E608F09E
:10184300A3E608F0A315811581D0E0FED0E0F815DA
:10185300811581E8C0E0EEC0E022851983851882F6
:10186300E0A3FEE0A3F5207808E0A3F608DFFAE0A2
:10187300A3FFE0A3C0E0E0A3C0E0E0A3C0E0E0A3D7
:10188300C0E0E0A3C0E010AF08858218858319800B
:1018930008858218858319D2AFD083D08202011FB5
:1018A300851983851882E0A3FEE0A3F5207808E07C
:1018B300A3F608DFFAE0A3FFE0A3C0E0E0A3C0E0E3
:1018C300E0A3C0E0E0A3C0E010AF088582188583E1
:1018D300198008858218858319D2AFD083D08222DC
:1018E300C0D02518C582C0E0E51934FFC583C0E028
:1018F300E518C3958224F310AF08858319858218F0
:101903008008858319858218D2AFC8F0A3E9F0A3B4
:10191300EAF0A3EBF0A37908E709F0A3D8FAECF017
:10192300A3EDF0A3EEF0A3EFF0A3D0E0F0A3D0E09B
:10193300F0A3D0E0F0A3E520F0A3E5F0F0A3228527
:101943001983851882E0C0E0A3E0F9A3E0FAA3E0DD
:10195300FBA37808E0F608A3DFFAE0FCA3E0FDA30D
:10196300E0FEA3E0FFA3E0C0E0A3E0C0E0A3E0F556
:10197300D0A3E0F520A3E0A3F5F010AF0885831909
:101983008582188008858319858218D2AFD082D0CA
:1019930083D0E0F8D0E032740480067402800274CD
:1019A30001C0E0F40412174CD0E012162122740493
:1019B300800474028000CCC0E0EDC0E0E518C39C55
:1019C300CCAD1950011D10AF068C188D1980068CF3
:1019D300188D19D2AF12162ED0E0FDD0E0FC22D024
:1019E30083D082E9C0E0E493A3C386F0C5F095F009
:1019F300F908E493A386F0C5F095F0700BE493A384
:101A0300C3994005E9048002A3E475F002A425828A
:101A1300F582E5F03583F583D0E0F9E493A3C0E0E4
:101A2300E493C0E022D083D082ECC0E0EDC0E0E4D8
:101A330093A3FCE493A3FDED4C600D121A74EC2404
:101A4300FFFCED34FFFD80EFE493A3FCE493A3FDDF
:101A5300ED4C600D121AB3EC24FFFCED34FFFD8056
:101A6300EFD0E0FDD0E0FCE493A3C0E0E493C0E05A
:101A730022C0E0C3E49396087401939618400FE4E0
:101A83009366700808740193661870007019A3A315
:101A9300C3E49396087401939618A3A3400DD0E072
:101AA300D0E0D0E0021A64A3A3A3A3A3A3D0E022AF
:101AB300C0E0C0F088F0E493667008087401936690
:101AC300187000A8F0A3A3700BD0F0D0E0D0E0D042
:0B1AD300E0021A64A3A3D0F0D0E022D0
:101AE00074F61217F7EAFEEBFF8C088D09EE24342A
:101AF000F8E43FF9E8FCE9FDEE2435121DF3FAEEB7
:101B00002437121DF3F88508F0A4C885F00A85096A
:101B1000F0A4250AF9EA28F8E439F97A257B0012BD
:101B20001690EA8C828D83F0FA131313541FF8EE8B
:101B300028F8E43FF9E8245DF582E439F583E0C054
:101B4000E074075AF8D0E0B800028004C313D8FC50
:101B5000A2E0EE50082434F582E43F8018243612C7
:101B60001DF3F5F0EA84A8F0EE28F8E43FF9E82444
:101B700038F582E439F583E0F97F030218A374F79E
:101B80001217F7EAFEEBFFEE2434121DF3C0E0EE6D
:101B90002435F582E43FF583D0E0F08E828F83A375
:101BA000A3A3A3A3A3A3C082C0838E828F83A3A376
:101BB000A3A3A3E0F8A3E0F9D083D082E0C398F513
:101BC00008A3E099F509EE247F121DF36401703E2D
:101BD000EE2480F582E43FF583C082C0838E828F3D
:101BE00083A3A3A3A3A3E0240108A3E03400F9D0B6
:101BF00083D082E0687003A3E06970127CB17D0439
:101C0000120C4EEE247FF582E43FF583E4F0AC083D
:101C1000AD09EEFAEFFB121AE0E9F912254B7F024B
:101C20000218A3C082C083851882851983E0F8A3B7
:101C3000E0F9C3EA9CEB9D5010C3EC98ED99401B72
:101C4000C3EA98EB995014800EC3EA98EB994007C9
:101C5000C3EC98ED994004790180027900D083D0DB
:101C60008222EAC39CFAEB9DFB2274EF1217F790D5
:101C70000376E064086005E06407702A9061C8E0BC
:101C800060249003A4E0F4601DE0F875F00BA4C894
:101C9000AAF02AF974A628FE740339FF8E828F8376
:101CA000A3A3A3E07003021D78906060E0C0E0EEA3
:101CB0002468F582E43FF583D0E0F0750C21750DC2
:101CC00005750800750900E5D914F50AE5D954032E
:101CD000F50E60127403650E6043E50A600AEE2497
:101CE00067121DF37002807590051CE06401601F8F
:101CF000121DF060047A0480027A00E50AC39AFAA1
:101D000095E0FB120AF88A088B09EA45097005126A
:101D10000E7C8064121DF070048A0C8B0DE50A6045
:101D200012850C82850D83F50BE5D9F0A3150BE523
:101D30000B70F6121DF0604474FC250AF50A780C4D
:101D400012199EAC0AA90EEEFAEFFB120D087402EE
:101D5000121731E97026AA08AB09121296793D8E46
:101D6000828F83A3A3A3A3E0FA7B0012095AEEFAA1
:101D7000EFFB120C72120D1A7900806F7403650E5E
:101D80006051850A10751100781012199EAC0CADC7
:101D90000DAA08AB09120CCC7402121731EE24689C
:101DA000121DF364807004747F8001E0F50C780CE0
:101DB0001219A2E50EF50C780C1219A2A90AAC08AA
:101DC000AD099003A4E0FA7B0012093074021217E7
:101DD000318013900376E06408600BAC0CAD0DEE1F
:101DE000FAEFFB120D92120E8879017F0A0218A3F6
:101DF000EE2483F582E43FF583E02274F21217F7B4
:101E000074FC12171BEAFEEBFF8909A2AFE433F55D
:101E100008C2AF021EC5E0601B780C12199EAC0B05
:101E2000A90EEEFAEFFB120D0274021217317404C0
:101E3000250BF50B7401250BF5D9850ED9E50B6043
:101E400018F50A850C82850D83E0F5D9A385820CEF
:101E500085830D150AE50A70EA75E195EE2463F8AD
:101E6000E43FF97A007B00A2AFE433F50BC2AF8800
:101E7000828983E0FCA3E0FDEC4D603A888289838F
:101E8000E0FAA3E0FB8A828B83E0FCA3E0FD88827A
:101E90008983ECF0A3EDF08A828B83E4F0A3F088D1
:101EA000828983E0FCA3E0FDEC4D700A888289837F
:101EB000A3A3E4F0A3F0E50BA2E092AF1212969078
:101EC00004B8E004F0EE2463121DF3F8A3E0F9E88F
:101ED000496064EE2463121DF32402F8A3E0340089
:101EE000F988828983E5822402F50CE43583F50DB7
:101EF000E0F50BA3E0F50EEE2462121DF364017011
:101F0000369061D0E0F8121DF060047C0480027C01
:101F1000007480C398FA95E0FBE50B2CF8E43400DC
:101F2000F9E82402F8500109C3EA98EB99A2D265B6
:101F3000D0334003021E169004B8E0604D9004B9FF
:101F4000E0F89004B8E0C398500C74026509703A48
:101F50009004BAE060348E828F83A3A3A3A3E085AC
:101F60001882851983121F9A7402121767E8121FCC
:101F70009A9004B7E028F07402121781AA18AB19DE
:101F800079011209849004B8E4F0E508A2E092AF68
:101F900074041217317F070218A3F0A3E4F0900431
:101FA000B8E0F8228521878522C622C0E074EB12B2
:101FB00018E3A2AFE433F508C2AF759B00906182CD
:101FC000E0A2E05030E591A2E0502A7591FE740144
:101FD0006521702112213E120DD412212C1219B14B
:101FE0001222F57404121731E964017005790112A7
:101FF0000E10121C6A906182E0A2E5505DE591A28C
:10200000E550577591DF900376E064076005E06462
:1020100008702F12213E74016521703E120DD412FA
:10202000212C1219B11222F57404121731E964013E
:1020300070057901120E107901EEFAEFFB121DFB0B
:102040008018E0640D7013900398E004F064287029
:1020500002E4F07A00E0F9120E8E906182E0A2E6CE
:102060004003022101E591A2E6400302210175919E
:10207000BF900376E064057008120DBC120DC88095
:1020800003120DC2752100120E1CE9900377F0793E
:1020900000120E10120BBE7A017B00900375E0F95E
:1020A000121266907803E064427056900520E014A6
:1020B000F0704EC2AF1220B800782AD0E0F618D0E7
:1020C000E0F6E59F5407F87005750DFF8003750D68
:1020D0007FC4C0E07829E6F50A08E6550DF50B74D3
:1020E0000B780A1216F9D0E0250AF8906270E0A287
:1020F000E740F8E8C333906272F0906270E0D2E09B
:10210000F0906181E0A2E35009E5E9A2E350037594
:10211000E9F7A3E0A2E75009E591A2E75003759122
:102120007FE508A2E092AF7F080219428E828F837A
:10213000E0F8A3E0C82416F582E438F58322900382
:10214000A4E0F875F00BA4C8AAF02AF974A628FE3A
:10215000740339FF22C0E0C0D0C082C08390618385
:10216000E0A2E05009E5BFA2E0500375BFFEE0A287
:10217000E15009E5BFA2E1500375BFFDE0A2E250C6
:1021800009E5BFA2E2500375BFFBE0A2E35009E5F9
:10219000BFA2E3500375BFF7E0A2E45009E5BFA278
:1021A000E4500375BFEFE0A2E55009E5BFA2E5509A
:1021B0000375BFDFE0A2E65009E5BFA2E650037554
:1021C000BFBFD083D082D0D0D0E032C0E074F21252
:1021D00018E3E5A7A2E6500FE5A1A2E6500953A730
:1021E000BF75A1BF12221FE5A7A2E5500CE5A1A271
:1021F000E5500653A7DF75A1DFE5A7A2E15009E589
:10220000A1A2E1500375A1FDE5A7A2E2500CE5A152
:10221000A2E2500653A7FB75A1FB7F01021942748D
:10222000F71217F7752101900376E0640670151216
:102230000D3E8A828B83A3A3A3A3A3A3E0FAA3E00A
:10224000FB120DAAA2AFE433FED2AF90037CE06490
:102250000170187A207B00900375E0F912138C7AD4
:10226000207B00900375E0F912126C906182E0D23D
:10227000E6F090051DE0602185C622801690037B64
:10228000E064017008E5C654F84405F5C653BEFC89
:10229000121FA47401652160E4EEA2E092AF7F02F8
:1022A0000218A3008E238F24858228858327851812
:1022B00082851983E0CEA3E0CF852882852783EB32
:1022C000C9EAC8EDCBECCA75F010C3E833C8E933EE
:1022D000C9EA33CAEB33CBC3EA9EF526EB9FF5255B
:1022E000B35004AB25AA26EC33CCED33CDD5F0DAD0
:1022F000AE23AF242274F11217F78A088B098C0AD7
:102300008D0B9081B178081215B9740F1217677888
:102310000C1215DF9081B1780C1215B97808790C80
:1023200012146190816550107808790C121591781B
:10233000081214814014800E780C790812159178D7
:102340000C12148150047901800279007F08021870
:10235000A374ED1217F78A088B098C0A8D0B9081F4
:10236000B178081215B97413121767780C1215DFBB
:102370009081B1780C1215B9780C7908121461406B
:10238000117808790C121591AA08AB09AC0AAD0BAB
:1023900080227510007511007512007513017810F8
:1023A000790C12159178107908121558AA10AB11F2
:1023B000AC12AD137F0C0218A39081B178081215EE
:1023C000DF8A828B8378081215CC7F040218A374ED
:1023D000F51217F78C828D8378081215DF8A828BAD
:1023E0008378081215A5122427C3E09CF0A3E09D72
:1023F000122419402290818D78081215DF8A828B71
:1024000083780812157E8A828B83A3A3A3A3E0247A
:1024100020F0A3E0344EF080A0F088828983C3E0EE
:102420009420A3E0944E22EA2404F8E43BF98C8241
:102430008D83A3A3A3A3E0FCA3E0FD88828983226C
:1024400074F51217F7E9FE9004D3E0FAA3E0FBEE6F
:1024500029F8E433F974E928F582748039F583E0CA
:102460002AF508A3E03BF509780812199E90819D92
:102470001215FD1222A474021217318A088B098CDE
:102480000A8D0B74107808121520AA08AB097F0476
:102490000218A374F11217F78A0C8B0D8C0E8D0F96
:1024A00074111217671219B57411121767E024011D
:1024B000F508A3E03400F509E4F50AF50B780C798A
:1024C000081214A090817178081215DF780C790831
:1024D0001214A0AA0CAB0DAC0EAD0F1222A4740204
:1024E0001217318B09EA450960047A0180027A00EB
:1024F000EC2AFCE43DFD7413121767E0F8A3E0F941
:10250000E8FEE9FFECF8EDF97A717B02121690888B
:10251000088909E4F50AF50B8E828F837808121575
:10252000EEECF8EDF97A717B021216908A088B09AD
:10253000740578081217088E828F83A3A3A3A3E5DE
:1025400008F0A3E509F07F080218A3C082C083E960
:10255000906000F0D083D08222C0E0C0D0E8C0E01C
:10256000E9C0E0A2AFE433F8D2AFC2C7E8F9E8A20D
:10257000E092AFD0E0F9D0E0F8D0D0D0E032C2AFF6
:1025800002000022FFFFFFFFFFFFFFFFC082C083AA
:10259000E99015D2F0D083D08202011F74F6121791
:1025A0008BE99002E8F0900348E0F50875090074A3
:1025B000027808121708AA08AB091212DE9002E985
:1025C000122F4F9002E912333C606F900348E07580
:1025D000F003A4FAABF01212DE900306122F4F9014
:1025E000030612333C700B9002E912330D1212E411
:1025F00080489003061242A17AFF7BFF1211767A7F
:102600000080198A087509007402780812170812E8
:102610003D4974FF12274FE4F0A3F00A900348E00D
:10262000F8EAC39840DD790512081C9002E8E0F949
:102630001207087AA67B08120A98023DEC74F4127D
:10264000178B8A088B09EB548060479002E8E0F909
:1026500012124E8A0A8B0BAE0AAF0BEE4F602A8E17
:10266000828F83E064B0701A12082EE960148E82A3
:102670008F83A3A3A3A3E0F9EE2405FAE43FFB12A2
:1026800007FEEEFAEFFB12123CAA08E5096480FB94
:1026900080047A007B0002289F74F212178B74FB6F
:1026A00012171BEAFEEBFFEE4F604574031217672B
:1026B000EEF0A3EFF0851882851983ECF0A3EDF01E
:1026C0007402121767E9F0AA18AB19120702E9F5AC
:1026D0000870757413121767E0F50AA3E0F50BE5AF
:1026E0000A450B60638E828F83122CD8EE4F7005E3
:1026F00075080280537A067B001212DE8A0C8B0D5D
:10270000A80CA90DE8497005750813803B888289DB
:1027100083E412274FEEF0A3EF12286BE50AF0A333
:10272000E50BF09002EC1228649002EC6017E0FCDC
:10273000A3E08003EAFCEBFD8C828D831228647099
:10274000F38C828D83123964A9087405024521F047
:10275000A3124283A32274F212178B8908890C7585
:102760000D007403780C121708850C0A850D0B9068
:1027700002EBF09002E912376F122862602E1212FB
:10278000E47900801D890C750D007402780C121715
:10279000089002E9123C088882F583A3A3E4F0A321
:1027A000F009900348E0F8E9C39840D9900348E065
:1027B000FA850AF0A4CAA8F0850BF0A428FB12122F
:1027C000DE8A0C8B0DAE0CAF0DEE4F700302285855
:1027D000900348E0FC850AF0A4CCA8F0850BF0A497
:1027E00028FD790012122A7C0080318D0C750D00B5
:1027F0007403780C1217088A828B8312285D8882F2
:102800008983E4F012286AA3A3F0A3F00DEDC39529
:102810000840D8EE250AFEEF350BFF0C900348E088
:10282000F8ECC39850288C0C750D007402780C12CB
:1028300017089002E912285DE82402500109FAE91C
:10284000FB8A828B83EEF0A3EFF07D0080BFE5086A
:102850009002EBF0790080027913024524123C0CBF
:10286000F922A3A3123311EA4B22A3124283A3A39A
:10287000A32274F412178B7900EAA2E0501F7508A6
:1028800044750981780812199E79107C047D007ABC
:10289000D47B151208167402121731E9F980007FF3
:1028A0000402185DC082C0839002EC12333C601CAD
:1028B00088828983A3A3E06A7003A3E06B8882897E
:1028C0008370E8A3A3A3A312330D80047A007B00D6
:1028D00002259574F212178B74FD12171BEAFEEB9A
:1028E000FF851882851983E4F0A3F074021217673C
:1028F0007401F012333970141209D21212DE9002F0
:10290000EF122F4F1233397003022A6512304FEE47
:102910002404F50AE43FF50B850A82F583E024FEE2
:10292000603C24FC607424FE607E24FE7003022957
:10293000B524FE70030229C224FE70030229CF24AD
:10294000FE70030229DC24FE70030229E924FC70D6
:1029500003022A0A24FE7003022A22022A5E1209B6
:10296000D29002F1EAF0A3EB122A7112044AE96054
:1029700003022A5E9002F11219B58E828F83A3A3FF
:10298000A3A3A31242A185088285098312330D12E5
:1029900007E67402121731022A5EAC18AD19EEFA7E
:1029A000EFFB120834022A2DAC18AD19EEFAEFFB3A
:1029B00012083A8078AC18AD19EEFAEFFB12084015
:1029C000806BAC18AD19EEFAEFFB120846805EACD6
:1029D00018AD19EEFAEFFB12084C8051AC18AD1986
:1029E000EEFAEFFB12085280447402121771880C41
:1029F000890D780C12199E7402121781EEFAEFFB02
:102A000012085874021217318023AC18AD19EEFA6F
:102A1000EFFB12085EE9F870167402121767E4F013
:102A2000803CAC18AD19EEFAEFFB120864E9F8E847
:102A3000602C8E828F83A3E064146022850A8285D5
:102A40000B83E09002F1F085188285198312330D13
:102A50009002F2122F4FE8A3122A71120444EEFAE8
:102A6000EFFB1207BC7402121767E0F9740302450A
:102A700021F07CF17D0285088285098312331122C1
:102A800074E812178B74FA12171B7404121767EC90
:102A9000F0A3EDF08A128B13EA2405F50EE435134A
:102AA000F50FEA2402F510E43513F511851082F5CF
:102AB0008312330D12053A8A0A8B0B7508007C03CA
:102AC0007D0079007AF17B0212122AE50E2402F5CC
:102AD00016E4350FF5177402121771880C890D78FA
:102AE0000C12199E850E82850F83A3A3A3A3E0F584
:102AF0000C750D00780C12199EE50E2405F50CE4FA
:102B0000350FF50D780C12199E85168285178312E4
:102B1000361412072074061217318A0C8B0DE50C3F
:102B2000450D7003022CA18020851882851983E051
:102B300088828983F00508851882851983A3E0C0FF
:102B4000E0122CE2D0E0F00508E50A24FBFAE50BE0
:102B500034FFFBC3E5089AE49B4003022CA17E00EE
:102B60007F00851282851383A3A3A3A3E0F50978D0
:102B7000091219A2E4F514F515781412199E7514AA
:102B8000EE751502781412199E9002EF1219B574A1
:102B9000091217671219B5E50A24F9F9AC0CAD0D45
:102BA00085108285118312330D12088E7409121755
:102BB00031E96003022C42850E82850F83A3A3A313
:102BC000A3A3A3A3E0F89002EEE0687075E0F5140B
:102BD0008E15781412199E12429E850E82850F83DF
:102BE000A3A3A3A3A3A3A3A312330D1212247402BD
:102BF000121731E9604C9002F212333C703BE4F55D
:102C000014781412199E7CFF7DFF79078510828548
:102C1000118312330D1207F8740212173112334266
:102C20007017850E82850F8312443B740412176758
:102C3000123CFC123645022CD5850C82850D831280
:102C40002CD8A818A91988148915781412199E74FB
:102C5000041217671219B5851682851783122F453E
:102C600012072C74041217318A0C8B0DEE4F70036F
:102C7000022B1E122CE2EE122CED1235FBEF122C61
:102C8000EDF8A3E03400F9E50C450D6003022B29B3
:102C90008882898374FFF00508122CE274FFF00526
:102CA00008E508601A1313543F122F55120456E911
:102CB00060099002F212330D121296790080168587
:102CC0000E82850F8312443B7404121767123CFC7A
:102CD000123964790A0235CEA3A3A3A3E0FEA3E0D0
:102CE000FF22A8089002F2E0281235FB22F0050826
:102CF000089002F2E0282274E812178B74FA121777
:102D00001B7402121767122F4F7404121767ECF02E
:102D1000A3EDF07402121767E024051235E4E0F524
:102D20000CA3E0F50D7402121767E02402F510A35E
:102D3000E03400F511851082F58312330D12053A47
:102D4000750800750900EA24FCFEEB34FFFF8008DB
:102D5000050CE50C7002050DA808C3EE98EF940071
:102D60005003022F01A818A919880E890F780E1296
:102D7000199E851482851583A3A3A3A31242A512CD
:102D8000199EE5142405F50EE43515F50F780E129D
:102D9000199E851482851583122F4312072074060D
:102DA0001217318A0E8B0FEA450F7003022F01EACA
:102DB0002404F516E4350FF517851682F583E0F542
:102DC0000CA3E0F50D8518828519831242A18A8231
:102DD0008B83A3A3A3E0F985108285118312330DA1
:102DE00012070EE9F5096003022F0174021217673A
:102DF00012360BF50978091219A2E4F512F51378C9
:102E00001212199E7512EE751302781212199E9005
:102E100002EF1219B574071217671219B5EEF9AC63
:102E20000EAD0F85108285118312330D12088E743A
:102E300009121731E9F5096003022F01E508703F17
:102E4000E4F50EF50F780E12199E7CFF7DFF7909CF
:102E500085108285118312330D1207F87402121740
:102E600031123631700D7404121767122F38791130
:102E7000022F359002EEE024029002F2F0801490CE
:102E800002F2E0FA9002EEE0790024025001096AB1
:102E9000497072A8089002EEE0FAE82AFAE43400D9
:102EA000FBEE9AEF9B405A851682851783E0C0E0BF
:102EB0009002F3122CE7D0E0F00508851682851702
:102EC00083A3E0C0E0089002F3122CE7D0E0F00505
:102ED000089002EE1242A512199E12429EA80812F4
:102EE00035D812121274021217319002EEE0250842
:102EF000F50874FF650C700474FF650D6003022D06
:102F000050E508601F9002F2E0F5F0E50884122F0A
:102F10005512045CE960099002F312330D12129607
:102F200079008011E509700375090A7404121767A6
:102F3000122F38A9090235CE123773E50CF0A3E53C
:102F40000DF022A3A3124530AA0CAB0D22A3A3EAD5
:102F5000F0A3EBF0229002F1F07CF17D028510826B
:102F60008511831233112274EC12178B74FC121723
:102F70001B123A7474021217811233071207268A41
:102F80000C8B0DEA450D700302303F12304FA8182C
:102F9000A91988108911781012199E7CFF7DFF797C
:102FA0000B85088285098312330D1207F87402120B
:102FB0001731123145700C850A82850B8312364217
:102FC00002304C8E828F83A3A3A3A3E0F512781264
:102FD0001219A2E4F512F513781212199E7512F166
:102FE000751302781212199E781012199E74091224
:102FF00017671219B57409121767E0F9AC0CAD0D1B
:1030000085088285098312330D12088E7409121700
:1030100031E9FE70157CF17D0285088285098312F5
:10302000330D120462E97009802074166E70027EFE
:10303000009002F212330D121296EE7004800B7E95
:1030400001850A82850B83123961EEF9023976EE29
:103050002402F508E43FF5092274EC12178B74FC86
:1030600012171BEAFEEBFF8C0E8D0FEE2405F50800
:10307000E43FF509740212178185088285098312DD
:10308000330D1207268A0C8B0DEA450D70030231B1
:1030900035EE2402F50AE43FF50BA818A9198810AB
:1030A0008911781012199E7CFF7DFF790D1233076C
:1030B0001207F87402121731123145700B8508821D
:1030C000850983123642807A8E828F83A3A3A3A3BD
:1030D000E0F51278121219A2850882850983A3A34C
:1030E0001219B57512F1751302781212199E781023
:1030F00012199E74091217671219B574091217670D
:10310000E0F912330312088E7409121731E9FE70C8
:103110000F7CF17D02123307120468E970098020E8
:1031200074166E70027E009002F212330D12129627
:10313000EE7004800B7E0185088285098312396157
:10314000EEF902397612334CF510A3E0F511EA4599
:10315000112274E812178B74FE12171B8A168B1734
:103160008C148D15EA2405F50CE43517F50DEA24C9
:1031700002F50EE43517F50F850E82F58312330D37
:1031800012053A8A088B09750B007C037D007900D3
:103190007AF17B0212122A750A00E50814F5100470
:1031A00024FFF508E50934FFF50980549002F1E0A9
:1031B000FA9002EEE0F8EA28F8E43400F9E508981D
:1031C000E50999500D9002F1E0F8E510C3989002DE
:1031D000EEF0E0F512751300781212199E12429E5D
:1031E0009002F2E02AFAA3E03400FB1212127402F9
:1031F0001217319002EEE0F89002F1E028F0050A93
:10320000850C82850D83A3A3123C1840030232E88B
:103210009002F1E0C39508E4950940030232E8AE5C
:103220000AEE2EFEE433FF123327AC18AD1912421A
:10323000B9E439FB1207268A128B13AC12AD13ECDA
:103240004D701B750B011233171239659002F21283
:1032500028646003121296A90B74020235D08516F9
:1032600082851783A3A3A3A3E0F50B780B1219A201
:10327000E4F512F513781212199E7512EE75130209
:10328000781212199E9002EF1219B574071217677F
:103290001219B5A910850E82850F8312330D1208FD
:1032A0008E7409121731E9F50B709B9002F21233FC
:1032B0003C60030231ACE4F512F513781212199E4A
:1032C0007CFF7DFF790F850E82850F8312330D12EF
:1032D00007F8740212173112334260030231AC1244
:1032E00033171236460232597CF17D02850E8285F3
:1032F0000F8312330D12046EE9600302324C790021
:10330000023259AC0CAD0D850A82850B8312331144
:1033100022E0FAA3E0FB22123327E0FAA3E0F9EA65
:1033200085148285158322850C82850D83E02EF815
:10333000A3E03FF988828983229002EF12443FE89C
:10334000492212334CF8A3E0F9E849229002F2EA4C
:10335000F0A3EBF09002F2E02274E812178B74FAFB
:1033600012171B7404121767122F4F8C168D1774C7
:1033700004121767E02405F50EA3E03400F50F747E
:1033800004121767E024021235E412330D12053AD5
:103390008A0A8B0B7F007E00A818A9198808890962
:1033A000780812199E850E82850F83A3A3A3A3E03C
:1033B000F5088E09780812199EE50E2405F508E433
:1033C000350FF509780812199E850E82850F83A3A3
:1033D000A312361412072074061217318A0C8B0DB3
:1033E0008029123605F00F123605F00F9002EE120A
:1033F000395012199E12429EEFF81235D81212124D
:1034000074021217319002EEE02FFFE50C450D70AB
:1034100003023494851882851983123A86A3A3A3E4
:10342000E0F985148285158312330D12070EE9FE2B
:10343000E50C2404F510E4350DF511EE705074041C
:1034400012176712360BF50878081219A2E4F5086E
:10345000F509780812199E7508EE750902780812A8
:10346000199E9002EF1219B574071217671219B559
:10347000E50A24FAF9AC0CAD0D851482851583128A
:10348000330D12088E7409121731E9FE60391236B5
:1034900021123964EF70030235BB9002F2E0F5F0BF
:1034A000EF849002F1F07CF17D0285148285158312
:1034B00012330D120474E960099002F312330D12F5
:1034C000129679000235CE8F08EF703BE4F512F5C5
:1034D00013781212199E7CFF7DFF79118514828565
:1034E000158312330D1207F8740212173112363198
:1034F00070091236211236450235CE9002EEE024D4
:10350000049002F2F080359002EEE0F89002F2E0D2
:10351000FAE82404FCE43400FDEC6A4D6003023454
:103520009AE50A24FAFAE50B34FFFBE50828F8E4EB
:103530003400F9EA98EB99500302349A8510828599
:103540001183E0C0E09002F3E02FF8A3E03400889C
:1035500082F583D0E0F00F851082851183A3E0C04F
:10356000E01235F2D0E0F00F74021217718808896A
:1035700009780812199E74021217671219B5850E80
:1035800082850F83122F4312072C74041217318A7D
:103590000C8B0DEA450D70030233E27402121767BB
:1035A000E0C0E01235F2D0E0F00F7402121767A30A
:1035B000E0C0E01235F2D0E00233EAEE70027E0A9B
:1035C000850E82850F83123627123964EEF9740650
:1035D0001217317F1002185D9002F3E028FAA3E081
:1035E0003400FB22F514A3E03400F515851482F5B0
:1035F00083221235F6229002F3E02FFAA3E0340082
:103600008A82F583221235F674FF22123773A3A340
:10361000A3A3E022124530850E82850F8312331159
:103620002285108285118312443F85168285178377
:10363000229002F3EAF0A3EBF09002F312443FE889
:10364000492212396AE8F0A3E9F079112274EA12EA
:10365000178B74FE12171B8A088B098C128D13EAC4
:103660002405FEE43509FFAC18AD198E828F831254
:10367000330D1207268A0C8B0DEE2406F50EE43F5F
:10368000F50FEA450D7003023745E5082402F50AF7
:10369000E43509F50B8A828B83A3A3A3E0A2E5504E
:1036A0002885188285198312330D1208828A108B9F
:1036B00011EA4511602079121233038510828511B9
:1036C00083121789E9F50C707F850E82850F83E0E0
:1036D000600979528011750C0E806D85088285090C
:1036E00083A3A3A3A3E0F9E4F508F5097808121968
:1036F0009E8E828F83A3A3E0F508780812199E8E10
:10370000828F83A3A3A31219B58E828F831242A145
:103710001233071208947406121731E9F50C701170
:10372000850E82850F83E0702D12330712047A8094
:10373000257416650C7011750C0074181217671239
:10374000376FE48010750C0112443785128285139F
:1037500083E8F0A3E9F0850E82850F83E0600479A9
:10376000008002A90C74021217317F0E02185D123C
:10377000377322E0F8A3E0F58388822274EC1217F5
:103780008B74F712171B8A0A8B0B8C108D11EA248D
:1037900005FEE4350BFF750C00AC18AD198E828F59
:1037A0008312330D1207268A088B09EA4509700334
:1037B00002393BE50A2402F50A5002050B8A828B86
:1037C00083A3A3A3E0A2E5502F8518828519831255
:1037D000330D1208828A0C8B0DEA450D604F791269
:1037E000AC08AD09123307850C82850D8312178949
:1037F000E9F50C600302393E850A82850B83E0F50A
:1038000008A3E0F509AA08FB120876EA4B70197ABA
:10381000FF7BFF120876EA4B70030239318A828BF4
:1038200083E508F0A3E509F07508008008750C0E23
:1038300002393E05089002EBE0F8E508C398400322
:1038400002393185080E750F007403780E121708BF
:103850008A828B83A3A3E0250EF8A3E0350F123DE7
:103860000570D08E828F83123959122F4F8E828F1E
:1038700083A3A3123959122F4DEE2404F508E43F17
:10388000F509850882F583E088828983A3A3A3A331
:10389000F0A3E4F0EE2405F50EE43FF50F850E826B
:1038A000F583123959A3A3A3A3122F4D75120775DF
:1038B0001300781212199EEEFCEFFD7404121779B2
:1038C0001212127402121731E4F512781212199EB4
:1038D000850882850983E0FC7D0079171233071281
:1038E00007F874021217317407121767122F4F74FA
:1038F00007121767E0FA4B603D850882850983123D
:10390000395012199E850E82850F831242A1121220
:103910001274021217317402121781123307120443
:1039200080E96026740712176712330D1212968011
:1039300019750C098008750C118003750C0112446F
:1039400037851082851183123964A90C7409802887
:10395000E0F50875090078082212331188828983FE
:103960002212396AE8F0A3E9F022E0F8A3E0F98531
:103970000E82850F832274041217317F0C02185DAA
:1039800074EC12178B123A74751000EE2402F50CC9
:10399000E43FF50D850C82F58312330D1208768A0B
:1039A000088B09EA45097003023A58850A82850B9B
:1039B00083E064016003023A4DAC08AD09AA0AAB8A
:1039C0000B12086AE9606E850882850983122CDA79
:1039D000EE2406F50AE43FF50B8E828F83A3A31233
:1039E00019B58E828F83A3A3A3A31219B5850A826A
:1039F000850B831219B579188E828F83123A86123D
:103A0000330D1208947406121731E9F874166870B1
:103A10000B850A82850B83E4F0A38014E860128E84
:103A2000828F8312330D850E82850F83EAF0A3EB1C
:103A3000F088108018780E12199EAC08AD09EEFAC5
:103A4000EFFB1208707402121731E9F510AA08ABE7
:103A50000912087CE510700E850C82850D831233E7
:103A60000D1204868009741665107003751000A984
:103A70001002397BEAFEEBFF8C0E8D0FEE2405F56C
:103A80000AE43FF50B22124530850C82850D832216
:103A900074EA12178B7508007509007E007F0075A7
:103AA0000A00EC2402F510E43DF5118035EC6508C0
:103AB0007003ED65096003023B4588828983A3A3F7
:103AC000E06A7003A3E06B707C88828983A3A3A360
:103AD000A312443BEE28FEEF39FFEA28FAEB39FB4C
:103AE000050A123C15503A850A0C750D00740378CE
:103AF0000C121708851082851183123C08123D05AF
:103B0000601FE508450970A58C088D0988828983A6
:103B1000122CD888828983A3A3E02EFAA3E03F80E9
:103B2000BEE50AC394025003023C03750800750900
:103B300000EE4F6010EEFAEFFB1212908A0E8B0F20
:103B4000EA450F70057900023C05750B00023BD871
:103B5000850B0C750D007403780C12170885108204
:103B6000851183E0250CF50CA3E0350DF50DE50C72
:103B70002406F514E4350DF515851482F583123D00
:103B80000A6042E50C2404F512E4350DF5138512A4
:103B900082F5831219B5E50E2508FAE50F3509FB04
:103BA0001212127402121731851282851383E025D6
:103BB00008F508A3E03509F50985148285158312F7
:103BC000330D121296E50B600D7C087D007900AA7A
:103BD0000CAB0D12122A050BE50BC3950A5003021C
:103BE0003B5085108285118312443B88828983A3D0
:103BF000A3A3A3A3A3E50EF0A3E50F12286BEEF099
:103C0000A3EFF0790102376A123C0C22E0250CF890
:103C1000A3E0350D229002EBE0F8E50AC398227488
:103C2000F012178B8A0E8B0F8C0A8D0B750D007599
:103C30000C0080507916EE2406F508E43FF5098E55
:103C4000828F83A3A31219B58E828F83A3A3A3A30C
:103C50001219B58508828509831219B5850E8285EA
:103C60000F83A3A312330D1208947406121731E9BF
:103C7000F50D7416650D706C850882850983E4F076
:103C8000A3F0050C9002EBE0F8E50CC3985066AA8F
:103C90000C8A0875090074037808121708850A82CF
:103CA000850B83A3A3123D54E8FEE9FF8E828F8328
:103CB000123D0A6040EA2401F508E43400F5099059
:103CC00002EBE065087002E509601488828983A32D
:103CD000A3A3A3A3A3A3A312333C6003023C3479A0
:103CE00018023C36E9609B124437741012176712B1
:103CF0003CFC123964A90D7F0802185DE0FAA3E0CC
:103D0000F5838A8222F988828983124530EC4D221C
:103D100074F612178B7C0080010C900348E0F8ECDD
:103D2000C398501E8C087509007402780812170891
:103D3000123D49E06A7003A3E06B70DDE8FAE9FB2D
:103D400080047A007B00023DEC9002E9123D548829
:103D500082898322E02508F8A3E03509F92274F26C
:103D600012178B8A088B09750A0080278E828F8331
:103D7000A3A3A3A312286260031212967C087D00FD
:103D80007900EEFAEFFB12122A8E828F83E4F0A301
:103D9000F0050A123C155027850A0C750D007403B6
:103DA000780C121708850882850983A3A3E0250CE7
:103DB000FEA3E0350DFF8E828F8312333C70AD85FC
:103DC000088285098374FFF0A3F002452474F6127B
:103DD000178B1208288A828B83E582458370067AC6
:103DE000007B008007A3A3A3A312330D7F02021858
:103DF0005D74F412178B89088C828D83E0640270E5
:103E00003C1243DAFEA3E0F9EEF874026870037422
:103E100029697029750A02750B00780A12199E74B7
:103E2000101217671219B574101217671219B5A975
:103E3000081211887406121731E9F980027901021B
:103E4000289F74E812178B74FB12171BE9851882E0
:103E5000851983F08A168B17ECFEEDFF7510008E26
:103E6000828F83A3A3A3E0A2E4502D741D121767D1
:103E700012330D1208828A828B83E5824583700398
:103E8000024279790AEEFCEFFDAA16AB17121789E8
:103E9000E9F510600302427C741F121767E0F50811
:103EA000A3E0F5097421121767E0F50AA3E0F50B0A
:103EB0007423121767E0F50EA3E0F50F8E828F834F
:103EC000E06402600302421AA312443B8508828523
:103ED0000983A3858212858313EE2406F50CE43F43
:103EE000F50D888289831242B9F514E439F5157805
:103EF00014121A280100002801281C3F070002287C
:103F0000E13F03284F3F0029104101293B4102298D
:103F1000DC40032910410429B4411A42E50E450F43
:103F20006003024215850C82850D8312443BE8FA3A
:103F3000E9FB8A828B83E0850A82850B831242C467
:103F400012199E8A828B83A3E0FCA3E002419EE5C6
:103F50000E450F6003024215850A82850B837401AA
:103F6000F01242AE850882850983F07C007D008EC8
:103F7000828F83A3A3A3A3E02401FAA3E03400FB70
:103F8000120726EA4B60408A828B83E02402F88580
:103F90000A82850B83E028F0EA2404F8E43BF988E0
:103FA000828983E08512828513831242D21242C431
:103FB00012199E8A828B83A31242A1E5082403FA78
:103FC000E43509FB0241A3850A82850B83E02404C2
:103FD000F07C047D007900AA12AB1312122A02426F
:103FE0007CE50E450F60030242151242AEFEA3E0CF
:103FF000FF850A82850B837404F0EE8508828509AB
:1040000083F0EF851282851383F07403121781EE1B
:10401000FAEFFB1207268A0C8B0DEA450D7003029E
:1040200040BF8A828B83A3A3122CD874011217710C
:10403000880E890F780E12199E74051217671219CF
:10404000B57CFF7DFF12072C74041217318B0FEA29
:10405000450F7033850C82850D831242A512199E7F
:10406000850C82850D83A31219B57C027D007AD15F
:104070007B811205287404121731E9700A74011249
:10408000176774FFF0A3F08E828F83E064027039AB
:10409000750C02750D00780C12199E8E828F83A309
:1040A0001242A1E5082404FAE43509FB1212127445
:1040B00002121731850A82850B83E024028009747D
:1040C00001121767EEF0A3EFF074011217671242A6
:1040D00093740112176712428A02420FE50E450FD0
:1040E0006003024215850C82850D83124529AA16AC
:1040F000AB1712118E850A82850B837402F0850836
:1041000082850983EAF0851282851383EB024212CD
:10411000E50E450F60030242151242AEF8A3E0F926
:10412000850A82850B837402F0E8850882850983FD
:10413000F0E9851282851383024212850C82850D77
:104140008312330D12120CEAFAF8C3950EE4950FA0
:10415000405CE8650E450F70047A00802185188266
:10416000851983E0FCE50E2CFCE4350FFDC3EC98CB
:10417000ED94005003E08005E50ECAC39AFAEA8583
:104180000A82850B83F08A0A750B00780A12199E41
:10419000850C82850D83E0250EFCA3E0350FFDAA7A
:1041A00008AB09121212740212173102427C751008
:1041B0000702427CE50E450F705B850C82850D83FE
:1041C00012443B850A82850B837407F088828983B9
:1041D00012428B124283E0851282851383F0E82419
:1041E00002FAE439FB8A828B831242938A828B83A0
:1041F00012428AA3A312286A124298F0E82405F812
:1042000050010988828983124298A31242D2A3A343
:10421000A3A3F0806775100B8062741D12176712DC
:10422000330D1208288A828B83E5824583604A1207
:10423000443B880C890DE8450D603E7425121767D4
:10424000E0F51078101219A2780E12199E780A1251
:10425000199E780812199E7407121767E0F9EEFC90
:10426000EFFDAA16AB17850C82850D831217897492
:1042700007121731E9F510800375100EA9107405A7
:104280000235D0F088828983A322A3E08508828545
:104290000983221242D9F0221242D9A3A32290020A
:1042A000EF12453022E0F50E750F00780E22850CD6
:1042B00082850D83123773E022E0FAA3E0F8E4C8A8
:1042C000F9EA2822F08A828B83E0F50A750B0078E0
:1042D0000A221242831242D922E08508828509838C
:1042E000A3A32274EE12178B74FE12171B8A088B7D
:1042F00009ECFEEDFF890AAC18AD19EEFAEFFB12DE
:1043000007268A0C8B0DEA450D70030243CB8518F6
:104310008285198312330D1208288A828B83E582E5
:10432000458370030243C6A3A312443B880E890F42
:10433000E8450F70030243C67414121767E0F510C6
:10434000A3E0F511E50AF50B780B1219A274191206
:1043500017671219B5781012199E741B121767E0AF
:10436000F9AC0CAD0DAA08AB09850E82850F83123E
:1043700017897405121731E9F50B705274FE650A3E
:10438000604C850C82850D83E0640270411243DA33
:10439000FAA3E0F9EAF87402687003742969702ED0
:1043A0008510828511831242B9F50CE439F50D7838
:1043B0000C12199EEEFCEFFDAA08AB091208AC74B2
:1043C000021217318008750B0E8003750B01A90BC3
:1043D00074021217317F0A02185DA312443F8882CB
:1043E0008983E02274F612178B74FE12171B740C6B
:1043F00012176712443BE8851882851983F074010F
:10440000121767E9F0E4F508F509780812199E75A6
:104410000802780812199E74041217718808890915
:10442000780812199E79FE120894740612173174D6
:1044300002121731023DEC8E828F8312443F22E03C
:10444000F8A3E0F92274F712178BEAFEEBFF890854
:104450009003061242A112118EEA5402600BA908C1
:10446000EEFAEFFB12071A800279017F0102185D54
:1044700074F212178B74FE12171BEAFEEBFF890A07
:104480007401650A60147402650A600302451F79AD
:1044900001120AB6E9600302451FEEFAEFFB1208AB
:1044A00076EA4B600312087CA818A91988088909C4
:1044B000780812199E750802750900780812199E6D
:1044C0007508E9750981780812199E7CFF7DFF7ACD
:1044D000017B00120720740612173180388508828C
:1044E000850983A3A3A3A3A3A3124529EEFAEFFB97
:1044F000121176E4F50CF50D780C12199E74021267
:1045000017671219B57CFF7DFFAA08AB0912072CAB
:1045100074041217318A088B09E508450970BE74C6
:10452000021217317F0602185D12377312453022CE
:10453000E0FCA3E0FD2274F412178B8A088B09ECCF
:10454000FEEDFF9015D2E0F4604B7A097B00121269
:1045500036EA4B60408A828B8374B1F0A3E4124543
:1045600098F08A828B83A3A3E508F0A3E50912459E
:1045700098A3EEF0A3EFF0740C12176712443B8A75
:10458000828B83A3A3A3A3A3A3A31239649015D200
:10459000E0F912124202289FF08A828B83A3A3A320
:1045A000A32274EE12178B74FA12171B8A0A8B0B54
:1045B000E9FF8C088D097E00850A0C850B0D780CAF
:1045C0001219E20004107E48EA450D462C464F467B
:1045D00072469546C646E94600473047DF470248DF
:1045E000254853487E487E48594774016F701985A5
:1045F0000882850983E0C39403500D8508828509EC
:1046000083E09016BEF080027E180248A674026F06
:104610007015850882850983E0F8A3E0F99016BF3C
:10462000E8F0A3E9F080027E180248A674016F70DA
:1046300019850882850983E0C39402500D8508829C
:10464000850983E0900749F080027E180248A6742D
:10465000016F7019850882850983E0C39405500DA8
:10466000850882850983E090074AF080027E18025F
:1046700048A674016F7019850882850983E0C39488
:1046800002500D850882850983E090074BF0800277
:104690007E180248A674106F7027750C10750D00F7
:1046A000780C12199EAC08AD097A4C7B07121212D5
:1046B00074021217318A0C8B0D850C82850D838054
:1046C000027E180248A674016F7019850882850958
:1046D00083E0C39402500D850882850983E090072A
:1046E0005CF080027E180248A674016F700D850888
:1046F00082850983E09016C2F080027E180248A6E7
:1047000074046F702690819D780C1215DF850882E5
:10471000850983780C1214715011850882850983EC
:1047200012160990075E12161580027E180248A61E
:10473000EF70211206C0E9701312111CE9F50D7912
:1047400050121362E9F50C12110A800A9007F174F5
:1047500001F080027E180248A674076F707C750E07
:1047600006750F00780E12199E850882850983A3AD
:10477000AC82AD83740212177912121874021217E8
:10478000318A108B1185100E85110F7C007D00AAD7
:1047900018AB19850882850983E0F91210B0E9F594
:1047A0000CE50CC3940A502E1206C0E97015A90C32
:1047B000121122E9F50E7950121362E9F50D12116A
:1047C0000A8019A80C790074F228F582740739F56B
:1047D000837401F080067E0280027E180248A6746F
:1047E000016F7019850882850983E0C39402500D1A
:1047F000850882850983E090075DF080027E1802BB
:1048000048A674016F7019850882850983E0C394F6
:104810000A500D850882850983E09016C1F0800258
:104820007E180248A674016F702585088285098369
:10483000E0C394074019850882850983E0C3941179
:10484000500D850882850983E09016C3F080577E5D
:1048500018805374016F70229007F0E0F50C850802
:1048600082850983E09007F0F0E50C70399007F03D
:10487000E06401703112110A802C7E188028C3E593
:104880000A9427E50B9400501B74026F701685087C
:1048900082850983E0FCA3E0FDAA0AAB0B12054068
:1048A000E9FE80027E02EEF974061217317F0A02D9
:1048B000185D74EC12178B74DA12171B890D8A12AB
:1048C0008B138C0A8D0B743A121767E0F50C9081EC
:1048D0003EAC18AD19740612162EAC18AD19AA12FA
:1048E000AB13A90D1210B0E9FEEEC3940A40030207
:1048F0004A26EEF91210ECE9FF9016BEE064027051
:1049000004740180027400F50878081219A2AD0C35
:10491000EFFCEEF9AA0AAB0B12115E74011217310B
:104920007C147D007900741212177912122A8A0EF3
:104930008B0F850E08850F0974121217817A107576
:10494000F006EEA42424F912135CE9703C7C107983
:10495000FF741212177912128AE9702D742212173D
:1049600067AC82AD837A0475F006EEA42425F912B3
:10497000135CE9F5087412121781EFA2E0E433F931
:10498000AA0AAB0B1205CAE9F874061217817A0C51
:1049900074702EF912135CE970797406121779128B
:1049A00010E0750E00E50EC394045067A80E790060
:1049B000E875F003A4C8AAF075F000A42AFA75F00F
:1049C00003E9A42AF97406121767E58228F508E5B9
:1049D0008339F509850882850983E0F8A3E0F9E8C1
:1049E00049602C850882850983A3A3E0F510751121
:1049F00000781012199E850882850983E0FCA3E0E7
:104A0000FDAA0AAB0B12089A7402121731E9F805D5
:104A10000E8092EFA2E1500E900748E0F9AA0AAB8F
:104A20000B1208A0E9F87404650C700F9016BEE034
:104A300064027007AA0AAB0B12115879007426128F
:104A400017317F0C02185D74F712178BEAFEEBFF2B
:104A50001206C0E970679007F1E06401701B121143
:104A60001CE9F5089007F17400F07C0A7D007900DC
:104A70007AF27B0712122A8039750800E508C39480
:104A80000A502FA808790074F228F582740739F5C6
:104A900083E064017018A908121122E9FAA80879C4
:104AA0000074F228F582740739F5837400F0050864
:104AB00080CA7950121362E9F50812110A7F0102C7
:104AC000185D74F212178B890BEAFEEBFF8C088DD0
:104AD00009750A0AE50B600C14600914604414603F
:104AE00064024B67EEFAEFFB1210FEE9F50AE50AE5
:104AF000C3940A5072E5084509606C750C06750D83
:104B000000780C12199EEEFCEFFDAA08AB091212F8
:104B10001274021217318A0C8B0D850C82850D835D
:104B20008045EEFAEFFB1210F8E9F50AE50AC394A6
:104B30000A5034E5084509602EAA08AB09A90A12F3
:104B400010F2E98022EEFAEFFB121104E9F50AE512
:104B50000AC3940A5011E5084509600BAA08AB097D
:104B6000A90A1210F2E9F8A90A7F0602185D74F288
:104B700012178B8A0C8B0DE9FF7E1574FF650C7084
:104B80000474FF650D702A750800E508C3940A5087
:104B900014EFFC7A027B00A9081210CEE960027EB5
:104BA00000050880E5EF60627A467B11120ADA8020
:104BB00059AA0CAB0D120AAA8A0A8B0B850A088522
:104BC0000B09E508450960407C007D00E5082405E7
:104BD000FAE43509FB850882850983A3A3A3A3E032
:104BE000F91210B0E9F50AE50AC3940A500EEFFC79
:104BF0007A027B00A90A1210CEE97E00EF600BAAB0
:104C000008AB0912114680027E14EEF97F060218E5
:104C10005D74EE12178B8A0E8B0F8C0A8D0B74123B
:104C2000121767E0F50CA3E0F50D75081574FF6524
:104C30000E700474FF650F701E7E00EEC3940A5060
:104C400061AC0CAD0DAA0AAB0BEEF91210D4E96001
:104C5000037508000E80E4AA0EAB0F120AAA8A1090
:104C60008B11AE10AF11EE4F60357C007D00EE244D
:104C700005FAE43FFB8E828F83A3A3A3A3E0F9127E
:104C800010B0E9F509E509C3940A5016AC0CAD0D56
:104C9000AA0AAB0BA9091210D4E9750800800375A4
:104CA0000814A9087F0A02185D74F712178BEAFE30
:104CB000EBFF900762EEF0A3EFF0900748E0FC7D79
:104CC000007A267B00120540E9F508900748E0F9D4
:104CD0001208047F0102185D74F012178B74EC1235
:104CE000171B8A0C8B0D850C82850D83A3A3E024F2
:104CF000FA700302515124FD7003024FC614700371
:104D0000024DC814601024FD7003024F6E1470032E
:104D1000025005025164AE0CAF0D900762E0F8A39B
:104D2000E0F9E8496066900762E0F8A3E0F583885F
:104D300082E0F8A3E0F9E8496052EE240CF582E441
:104D40003FF583E0F50878081219A2EE240BF582EE
:104D5000E43FF583E0F98E828F83A3A3A3A3A3A3EB
:104D6000A3A3A3E0FCA3E0FDEE2403FAE43FFB9041
:104D70000762E0F8A3E0F5838882E0F8A3E0F5831A
:104D80008882121789740112173180398E828F83BD
:104D9000A3A3A3A3A3A3A3A3A31219B590075E1271
:104DA00015FD1205DC7402121731E9601879018EC5
:104DB000828F83A3A3A3A3A3A3A3A3A3E0FAA3E047
:104DC000FB1205D6E9025164AE0CAF0D7508008EDA
:104DD000828F83A3E06003024EF08E828F83A3A3B1
:104DE000A3A3A3E0A2E04003024EF09007FCE0F88A
:104DF000A3E0F9E8496003024EF07C0E7D007900E3
:104E0000AA18AB1912122A8A0A8B0BAA0AAB0BEE4C
:104E1000240CF582E43FF583E0F8A3E0F9E849606B
:104E200036750A06750B00780A12199EEE240CF5E9
:104E300082E43FF583E02410FCA3E03400FD74021B
:104E400012177912121274021217318A0A8B0B850B
:104E50000A82850B83804F8E828F83A3A3A3E0FAFF
:104E6000A3E0FB120AAA8A0E8B0F850E0A850F0B90
:104E7000E50A450B602D750E06750F00780E1219A8
:104E80009EE50A2405FCE4350BFD74021217791225
:104E9000121274021217318A0E8B0F850E82850F43
:104EA0008380030251648E828F83A3A3A3A3A3E014
:104EB000A2E25004D2F08002C2F0A2F0E433F8790A
:104EC00000740C121767E048F0A3E049F0EEFCEF25
:104ED000FDAA18AB191210E6E970127A027B009055
:104EE0000748E0F9121266E9790002516675081563
:104EF000900762E0F8A3E0F9E849606F900762E08C
:104F0000F8A3E0F5838882A3A3E0F8A3E0F9E849D9
:104F100060598E828F83A3E0FC79018E828F83A3F8
:104F2000A3A3E0FAA3E0FB900762E0F8A3E0F58317
:104F30008882A3A3E0F8A3E0F5838882121789E5AD
:104F4000086028AC0879038E828F83A3A3A3E0FABC
:104F5000A3E0FB900762E0F8A3E0F5838882A3A3B7
:104F6000E0F8A3E0F5838882121789025164AE0C41
:104F7000AF0D900762E0F8A3E0F9E84960459007BB
:104F800062E0F8A3E0F5838882A3A3E0F8A3E0F948
:104F9000E849602F850C82850D83A3E0FC79028EA1
:104FA000828F83A3A3A3E0FAA3E0FB900762E0F85B
:104FB000A3E0F5838882A3A3E0F8A3E0F5838882C9
:104FC000121789025164AE0CAF0D7C007D00EE24F7
:104FD00004FAE43FFB8E828F83A3A3A3E0F91210AF
:104FE000B0E9F508E508C3940A5017EE240AFCE47A
:104FF0003FFD7A0475F006E508A42425F91213563E
:10500000E9F8025164AE0CAF0D90075DE0601990B5
:1050100016C1E0F98E828F83A3A3A3E0FAA3E0FB7D
:105020001205D6E9F80251649016BEE070167905B3
:105030008E828F83A3A3A3E0FAA3E0FB1205D6E937
:10504000F80251648E828F83A3A3A3E0FAA3E0FB4E
:10505000120AAA8A0A8B0B850A08850B09E50845FE
:105060000970030251648E828F83A3A3A3A3A3A319
:10507000A3E0A2E0506D850882850983A3A3A3A3C2
:10508000E060608E828F83A3A3A3A3A3A3A3A3A3A3
:10509000E0F50AA3E0F50B7409780A1216F9E50A9F
:1050A0005401F8E50B5400F9E8A2E04036740E1202
:1050B0001781E5082405FAE43509FB85088285098E
:1050C00083A3A3A3A3E0F91210B0E9701679038EAD
:1050D000828F83A3A3A3E0FAA3E0FB1205D6E9F82D
:1050E000025164EE2405FCE43FFD850882850983B6
:1050F000A3A3A3A3E0F98E828F83A3A3A3E0FAA3C3
:10510000E0FB121152900762E0F8A3E0F9E8496071
:1051100053900762E0F8A3E0F5838882A3A3E0F848
:10512000A3E0F9E849603D7C0079008E828F83A37B
:10513000A3A3E0FAA3E0FB900762E0F8A3E0F58305
:105140008882A3A3E0F8A3E0F58388821217898000
:1051500013AE0CAF0D8E828F83A3A3A3E0FAA3E05E
:10516000FB1210AA790174141217317F0802185D1E
:1051700074F512178B74F212171B8909EAFEEBFF04
:105180008C0AAC18AD197A0E75F006E509A4242036
:10519000F912135CE9705F7C0679FFAA18AB19124B
:1051A000128AE97051740C121767E0F8A3E0F9E86D
:1051B000F508E50A6005EE42088004EEF45208A8FE
:1051C000087900740C121767E0687003A3E0696047
:1051D00021A8087900740C121767E8F0A3E9F0AC75
:1051E00018AD197A0E75F006E509A42420F91213FA
:1051F00056E9790180027900740E1217317F03029B
:10520000185D74F012178B74E612171B890B8A0C49
:105210008B0DECFEEDFF740C1217817A0E75F00603
:10522000E50BA42420F912135CE960030253327CDD
:105230000679FF740C12177912128AE9600302537F
:1052400032AC18AD197A0C7470250BF912135CE9A5
:10525000600302532E750A00AA18AB191210E0E57C
:105260000C450D702E7C0C7900AA18AB1912128A0D
:10527000E960030253147C0C7D007900AA18AB1975
:1052800012122A8A088B09850882850983750A010A
:10529000025314AC18AD19AA0CAB0D1210DA8A0E19
:1052A0008B0F850E08850F09E50845097030EE4F14
:1052B000601BAC18AD197A007B001210DA8A0E8BD5
:1052C0000FA80EA90F88088909E8497004790080A1
:1052D00063850882850983E50CF0A3E50DF0850858
:1052E00082850983A3A3E0F87900EE687002EF6974
:1052F0006022EEC0E0850882850983A3A3D0E0F098
:10530000EE4F700D8508828509837400F0A3740048
:10531000F0750A01E50A6016AA18AB191210E0AC84
:1053200018AD197A0C7470250BF9121356E979012E
:1053300080027900741A1217317F0802185D74F622
:1053400012178B8A088B097E00EEC394045050EE2E
:10535000F87900E875F003A4C8AAF075F000A42A53
:10536000FA75F003E9A42AF9EC28F582ED39F58302
:10537000E065087004A3E065097021EEF87900E8A3
:1053800075F003A4C8AAF075F000A42AFA75F0031A
:10539000E9A42AF9EC28FAED39FB80070E80AA7AF5
:1053A000007B007F0202185D74F712178B7C00EC03
:1053B000C394044003025457ECF87900E875F003F5
:1053C000A4C8ADF075F000A42DFD75F003E9A42D7F
:1053D000F9EA28F582EB39F583E0F4FEA3E0F4FF67
:1053E000ECF87900E875F003A4C8ADF075F000A4FE
:1053F0002DFD75F003E9A42DF9EA28F582EB39F5C6
:1054000083EEF0A3EFF0ECF87900E875F003A4C8A0
:10541000ADF075F000A42DFD75F003E9A42DF9EAB7
:1054200028F582EB39F583A3A3E0F4C0E0ECF8792A
:1054300000E875F003A4C8ADF075F000A42DFD756B
:10544000F003E9A42DF9EA28F582EB39F583A3A34B
:10545000D0E0F00C0253AF7F0102185D74F0121718
:105460008B74F412171BEAFEEBFF8C088D09900772
:10547000FCE0F8A3E0F9E849702CEE4F6006E5087F
:10548000450970057901025708EEFAEFFB1210FE8C
:10549000E99016C4F09016C4E0C3940A40081211B3
:1054A00010E99016C4F09016C4E0C3940A400302B9
:1054B00057069007FCE0F8A3E0F9E84960030255BD
:1054C00052EEFCEFFD7A0E75F0069016C4E0A424AF
:1054D00020F9121356E9F50C7C0C7D0079FFAA180F
:1054E000AB1912122A8A0E8B0F850E0A850F0BAC90
:1054F00018AD197A0C9016C4E02470F9121356E90D
:10550000F50D750E0E750F00780E12199EEEFCEF5C
:10551000FD9016C4E0F87900E875F00EA4C8AAF072
:1055200075F000A42AFA75F00EE9A42AF97464282B
:10553000FA740739FB12121274021217318A0E8B99
:105540000FA80EA90F9007FCE508F0A3E509F002EB
:1055500057029007FCE0F8A3E0C82406F582C8349F
:1055600000F583E0F8A3E0F9E84960439007FCE028
:10557000F8A3E0C82406F582C83400F583E0FCA354
:10558000E0FD7A1B75F0069016C4E0A42421F91200
:105590001356E9F89007FCE0F9A3E0C92406F58268
:1055A000C93400F5837400F0A37400F00257029030
:1055B00007FCE0F8A3E0C8240AF582C83400F583AC
:1055C000E0F8A3E0F9E84960439007FCE0F8A3E0C5
:1055D000C8240AF582C83400F583E0FCA3E0FD7A14
:1055E0001B75F0069016C4E0A42422F9121356E9A4
:1055F000F89007FCE0F9A3E0C9240AF582C9340059
:10560000F5837400F0A37400F00257029007FCE0E9
:10561000F8A3E0C8240CF582C83400F583E0F8A3B1
:10562000E0F9E84960439007FCE0F8A3E0C8240CE7
:10563000F582C83400F583E0FCA3E0FD7A1075F034
:10564000069016C4E0A42423F9121356E9F8900733
:10565000FCE0F9A3E0C9240CF582C93400F5837499
:1056600000F0A37400F00257029007FCE0F8A3E0FA
:10567000C82408F582C83400F583E0F8A3E0F9E80F
:1056800049606F9007FCE0F8A3E0C82408F582C8E1
:105690003400F583E0FCA3E0FD7A1075F006901667
:1056A000C4E0A42424F9121356E9F50A9007FCE09B
:1056B000F8A3E0C82408F582C83400F583E024107C
:1056C000FCA3E03400FD7A0475F0069016C4E0A453
:1056D0002425F9121356E9F89007FCE0F9A3E0C974
:1056E0002408F582C93400F5837400F0A37400F037
:1056F00080109007F0E0600312116412114C7901E0
:105700008006790080027901740C1217317F08023B
:10571000185D74F712178B74F212171BE9FEAC18A0
:10572000AD197A0E75F006EEA42420F912135CE987
:10573000700E740C121767E0F8A3E0F9E8F9800224
:105740007900740E1217317F0102185D74F412177C
:105750008B74F212171B8909EAFEEBFFE509C3946B
:105760000A5004EE4F700479028041AC18AD197AEA
:105770000E75F006E509A42420F912135CE9F5087A
:10578000E5087026750A06750B00780A12199E74D2
:1057900002121781EEFAEFFB121212740212173185
:1057A0008A0A8B0B850A82850B83A908740E12174F
:1057B000317F0402185D74F412178BEAFEEBFF755B
:1057C0000800E508C3940A5043750A06750B007873
:1057D0000A12199EEEFCEFFDA8087900E875F00E9C
:1057E000A4C8AAF075F000A42AFA75F00EE9A42A5C
:1057F000F9746A28FA740739FB121224740212171A
:1058000031E96004A9088006050880B6790A7F049A
:1058100002185D74F412178BEAFEEBFF750800E5C1
:1058200008C3940A5043750A06750B00780A1219CA
:105830009EEEFCEFFDA8087900E875F00EA4C8AA5A
:10584000F075F000A42AFA75F00EE9A42AF9746440
:1058500028FA740739FB1212247402121731E96016
:1058600004A9088006050880B6790A7F0402185D3D
:1058700074F712178B74F012171BEAFEEBFF750812
:1058800000E508C3940A5039AC18AD197A1075F0C8
:1058900006E508A42423F912135CE970207C107932
:1058A000FFAA18AB1912128AE97012EEFCEFFDAADA
:1058B00018AB191205A6E97004A90880060508802E
:1058C000C0790A74101217317F0102185D74F41246
:1058D000178B750800E508C3940A40030259A7A86E
:1058E000087900E875F00EA4C8AAF075F000A42AA3
:1058F000FA75F00EE9A42AF9746428FC740739FDDE
:105900007A0E75F006E508A42420F912135CE970FC
:10591000030259A27C067D0079FFAA087B00EA7584
:10592000F00EA4CAA8F075F000A428F875F00EEBEC
:10593000A428FB74642AFA74073BFB12122A8A0A11
:105940008B0BAE0AAF0B7C067D0079FFAA087B00AB
:10595000EA75F00EA4CAA8F075F000A428F875F056
:105960000EEBA428FB746A2AFA74073BFB12122A76
:105970008A0A8B0BAC0AAD0BA8087900E875F00E0B
:10598000A4C8AAF075F000A42AFA75F00EE9A42ABA
:10599000F9747028F582740739F5837400F0A374E4
:1059A00000F005080258D59007F0E060031211647A
:1059B00012114C7F0402185D74F712178B7E00EEF3
:1059C000C3940A50327C0679FFEEFA7B00EA75F048
:1059D0000EA4CAA8F075F000A428F875F00EEBA488
:1059E00028FB74642AFA74073BFB12128AE96004EC
:1059F000EEF980050E80C8790A7F0102185D74F700
:105A000012178B7E007F00EFC3940A50357C067915
:105A1000FFC9FDC9EFF87900E875F00EA4C8AAF037
:105A200075F000A42AFA75F00EE9A42AF974642826
:105A3000FA740739FBCDF9CD12128AE970010E0F05
:105A400080C5EEF97F0102185D74F712178B7E0096
:105A50007F00EFC3940A500DEE700AEFF912112285
:105A6000E9FE0F80EDEEF97F0102185D74F0121768
:105A70008B74CB12171B89099016C4E06509701D41
:105A80007A017B00900748E0F912126CE97A027BF8
:105A900000900748E0F912126CE912117074271295
:105AA00017817A0E75F006E509A42420F912135C1B
:105AB000E96003025BA47C0679FF74271217791250
:105AC000128AE96003025BA47C0E7D0079FF7427D3
:105AD00012177912122A8A0A8B0B850A0C850B0D74
:105AE0007C1B7D0079FF740C12177912122A8A0E22
:105AF0008B0F850E0A850F0B7C0C7D0079FFAA1891
:105B0000AB1912122A8A0E8B0FAE0EAF0F7427122A
:105B100017817A0E75F006E509A42420F9121356B0
:105B2000E9F508740C1217817A1B75F006E509A4D3
:105B30002421F9121356E94208740C1217817A1BBA
:105B400075F006E509A42422F9121356E9420874F7
