:020000040000FA
:060000000201070221DDF0
:03000B00022606C4
:03002B000225E1CA
:0300530002225333
:10008300022033E5C754F84401F5C7790122000083
:100093000080FB120086B900030200F1E4792178A5
:1000A30008B800028004F709D8FCE479297802B87B
:1000B30000028004F709D8FCE490028178D7791311
:1000C3008002F0A3D8FCD9FA7A577B1590013778D0
:1000D3001F79048015E493A3AD82AE838A828B8358
:1000E300F0A3AA82AB838D828E83D8E9D9E7758288
:1000F300217583CC74031201197582917583007481
:100103000012011975D00075813F751881751902A8
:10011300759F00020096C09FF59FE473D09F22D085
:1001230083D082C09FE493C0E0740193C0E0740263
:1001330093F59F22FF0000B4000028002800283018
:1001430075A000A000A000A00000080008E001F0D6
:10015300001000100010001000100010005000509C
:1001630000500010001000D0070000000000000F36
:100173000001000500307507001000010081FF0039
:10018300000000FFFFFF770695067D06B906FF0214
:10019300020208025000A0000000E80302D181011E
:1001A3000000CE8102D581010000B21502DB81017E
:1001B3000000BF0202D581010000B31502DD8101F9
:1001C3000000D50202D581010000B41502DF8101D0
:1001D3000000D70202D581010000B51502E18108B4
:1001E3000000D80202D581010000B61502E38101A7
:1001F3000000B715FF0100FF2002D181010000C2FA
:100203008102D5810100001B1602E5810000000078
:100213000002D98103000006031700250D250D25D3
:100223000D250D250D250D250D250D250D250D253B
:100233000D250D250DCB0FDD0FC50F0202020202A6
:1002430002020202010D000000100102D18101002F
:1002530000C58102D5810100005E160209820100FA
:1002630000400702D5810100005F160207820100EA
:1002730000158102D581010000601602058201008C
:1002830000F98002D581010000611602018201009C
:1002930000938002D581010000621602FF810100F4
:1002A30000818002D581010000631602F181010003
:1002B30000A58002D581010000641602E7810100D8
:1002C30000B78002D581010000651602EF810100AD
:1002D30000078102D581010000661602FD8101003D
:1002E30000671601E8030577100A070101010901F8
:1002F30001011000010110024173796E6320427500
:100303006C6B0053796E632042756C6B0002D18174
:10031300010000CB8102D581010000191702EB8196
:10032300000000370802D9810300005F0802D7816B
:100333000100001B1702D5810100001A1702ED818D
:100343000100004B0802D78101000026170A100A9A
:1003530002436F6D6D616E6400526573706F6E73EF
:1003630065004D61696C626F780044657669636509
:1003730020496E666F0002D181010000C88102D559
:1003830081010000701702F581030000630802D7A2
:1003930081010000741702D581010000711702F773
:1003A30081000000650802D9810300007F0802D79D
:1003B300810100007C1702D581010000721702F948
:1003C30081030000670802D781010000851702D569
:1003D30081010000731702FB810100007B0802D733
:1003E300810100008D17FFFFFF000130750302013B
:1003F30006000000000000000000000000000000F4
:1004030000000000000000000000000000FFFF06E5
:1004130000800CE8030D095050474675656C476131
:10042300756765051250002003020A0002010603E6
:1004330002F0FF5050474675656C4761756765006C
:100443000000000000000000AB140000B71400001F
:10045300BD141201228DA603120122A0A6031201CC
:1004630022D1A6031201220BA70312012264A703C0
:10047300120122ABA703120122F3A70312012222C6
:10048300A80312012251A80312012288A803120112
:1004930022CFA803120122E8A8031201223DA903D7
:1004A30012012256A903120122A4A903120122DE7A
:1004B300A903120122A0CB02120122A3CC02120132
:1004C30022DCCC02120122FFCC0212012211CD0246
:1004D3001201224FCD02120122CBCD02120122932F
:1004E300CE02120122B5CE021201224CCF0212011A
:1004F300229ECF02120122CFCF02120122DCCF02B1
:1005030012012246D0021201229DD002120122A022
:10051300D002120122D9D002120122DCD002120130
:1005230022E6D0021201223AD1021201227BD10229
:10053300120122AED102120122EBD102120122EDED
:10054300D20212012291D302120122FAD302120122
:100553002238D402120122DC9A03120122049B03E3
:10056300120122319B03120122699B03120122C74C
:100573009B03120122139C031201227A9C03120192
:1005830022BA9C03120122F79C03120122259D0328
:10059300120122CF9D03120122D99D03120122E6EB
:1005A3009D03120122199E03120122259E031201AB
:1005B300223D9E03120122479E031201224EC803CD
:1005C3001201225CC80312012274C8031201228B98
:1005D300C803120122CABA0112012274BB0112011B
:1005E3002287BC0112012203BD0112012221BE0197
:1005F3001201225DBE01120122F8BE01120122DCAA
:10060300BF01120122A8C00112012236C201120148
:1006130022A7C20112012261C30112012253C401A4
:1006230012012293C40112012247C501120122794A
:10063300C5011201226FC701120122B1C7011201C4
:1006430022CFC70112012235C80112012204C901B8
:10065300120122C8C901120122E7CB01120122BDF6
:10066300E302120122A7E40212012252E50212015F
:1006730022A3E50212012253E602120122C4E6027A
:10068300120122A9E702120122DDE702120122D69A
:10069300E80212012213E902120122EFE902120118
:1006A300222EEA021201224AEA02120122B0BD03FB
:1006B30012012234BE031201225FBE03120122790A
:1006C300BF03120122D59E03120122EB9E031201E6
:1006D30022099F031201221AA00312012224A0035C
:1006E3001201224FA10312012246A203120122B3D7
:1006F300A2031201224CF00212012282F102120122
:1007030022B9F10212012210F20212012225F4028F
:10071300120122149601120122A096011201220451
:1007230098011201221098011201224B9801120123
:1007330022BA9801120122C39901120122CC9A0113
:10074300120122939B01120122F09C011201220E3D
:100753009D011201222B9D01120122D89D0112013C
:1007630022559E011201227D9E0112012247A10101
:100773001201224CA10112012265A301120122B32D
:10078300A30112012223A40112012261A401120177
:10079300223DA501120122FDA50112012249A60154
:1007A3001201224CA60112012290A601120122D8A5
:1007B300A60112012217A70112012239A701120172
:1007C300226DA701120122D0A701120122ECF5022A
:1007D300120122FAF5021201224DF6021201226CD5
:1007E300F602120122B1F602120122F5F7021201FA
:1007F3002290F802120122D4F802120122FEF8021A
:100803001201226DF902120122B3F9021201222A06
:10081300FA02120122DBFA021201226826001201F7
:1008230022782600120122192700120122752700BF
:100833001201223228001201224E290012012280C5
:100843002900120122AF29001201225C2B001201A0
:1008530022D32D0012012243300012012235310030
:100863001201222E320012012235340012012229F4
:1008730037001201225838001201225C3A0012019B
:10088300226C3B00120122FB3C00120122EC3D00D2
:100893001201223A3E00120122A93E00120122CD8A
:1008A3003E001201221E3F00120122BF430012012B
:1008B30022C044001201222145001201224C4500AE
:1008C300120122124600120122A29603120122AC47
:1008D3009603120122F196031201220597031201D6
:1008E30022959703120122CE97031201220998033E
:1008F3001201223298031201228698031201229BCD
:100903009803120122BD9803120122D29803120107
:1009130022E69803120122FB980312012235990360
:10092300120122619903120122AA99031201221CC6
:100933009A031201225F9A03120122899A03120178
:1009430022B49A031201223AC7031201221CA40201
:10095300120122FFA4021201227AA502120122B57A
:10096300A50212012206A70212012294A702120174
:100973002226AA02120122D8AA02120122E4AB0201
:1009830012012257AD02120122B0AD021201221050
:100993008E03120122538E03120122D78E031201FA
:1009A30022AE910312012244B903120122F6B903C4
:1009B300120122F2BA0312012231BB031201228B6C
:1009C300BB03120122A8BF031201220BC0031201B1
:1009D30022A8C003120122DDC0031201220DC103AC
:1009E30012012248C10312012268C103120122C667
:1009F300840312012252850312012211860312017C
:100A030022298703120122438903120122888D02BE
:100A1300120122AD8D021201227A8E021201224EA0
:100A23008F02120122BB8F02120122FB8F021201DD
:100A330022979002120122CB9102120122A6920266
:100A4300120122059302120122919302120122FF45
:100A530093021201228B9402120122D194021201F9
:100A630022439502120122D59502120122769602A3
:100A7300120122969602120122DE96021201222709
:100A8300970212012243970212012269970212016F
:100A930022E39702120122F19702120122809802A7
:100AA300120122E998021201227A8903120122FF1C
:100AB3008903120122418A03120122258B031201A9
:100AC30022928B03120122D68B031201221A8C036A
:100AD300120122478C031201226F8C03120122A7F9
:100AE3008C03120122E58C031201220C8D031201E7
:100AF30022868D03120122D08D03120122F4CB0131
:100B030012012293CD01120122CBCF011201221F28
:100B1300D0011201224AD00112012226D101120171
:100B23002256D10112012285D10112012298D1014D
:100B3300120122D9D10112012206D201120122543B
:100B4300D20112012290D201120122D5D201120147
:100B53002222D3011201229CD301120122DDD501ED
:100B6300120122C7D70112012203D80112012292D6
:100B7300D901120122D7D9011201224ADA01120145
:100B8300229FDA01120122A4DA011201222EDB01D3
:100B93001201224DDC011201225EDC01120122014D
:100BA300C2021201227AC20212012234C8021201C5
:100BB300223FC902120122E8CA0212012276CB02A5
:100BC3001201222C6400120122AD6400120122DA08
:100BD300640012012223650012012224660012011F
:100BE300227D6600120122F967001201227B680050
:100BF300120122966800120122076900120122C421
:100C03006900120122876A00120122156B0012018A
:100C130022CC6B00120122DF6B00120122786C00E0
:100C23001201220F6D00120122366D001201229F64
:100C33006D00120122E96D00120122376E001201CC
:100C430022DC6E001201227A6F001201220770006B
:100C5300120122787000120122BF700012012217C4
:100C63007100120122497100120122037200120164
:100C7300220A7300120122537300120122707300BF
:100C83001201228F7300120122C274001201227911
:100C930075001201229E7500120122B37500120124
:100CA3002223760012012264760012012288770043
:100CB30012012209780012012241B8021201228C8A
:100CC300B80212012298B8021201226CB902120171
:100CD3002283B902120122C0B902120122F1B90220
:100CE30012012229BA021201227FBA0212012295AD
:100CF300BA02120122D1BA02120122E4BA0212018B
:100D0300220BBB021201223FBB0212012265BC026D
:100D1300120122AFBD02120122ABBE02120122C890
:100D2300BF021201225D260012012281DC011201A1
:100D330022BCDC011201220EE0011201226AE10150
:100D430012012229E20112012290E5011201227A05
:100D5300E601120122C6E601120122E0E6011201B8
:100D6300221DE70112012228E70112012267E70190
:100D730012012270E7011201221AE801120122F185
:100D8300E80112012245E901120122A2E90112013F
:100D93002214EA01120122A8A80112012207AC01C0
:100DA3001201220DAC011201223EB30112012245B0
:100DB300B701120122B5AD0312012292AE03120153
:100DC30022D6AE0312012210AF03120122A8AF03F1
:100DD30012012217B00312012220B0031201222CA8
:100DE300B00312012246B00312012270B0031201B4
:100DF30022A0B0031201226092031201226D92031A
:100E0300120122879203120122BA9203120122F8DD
:100E130092031201225D93031201227293031201C2
:100E2300227D93031201228A9303120122A19303C9
:100E3300120122AF9303120122BA9303120122C6B5
:100E43009303120122D59303120122E093031201AB
:100E530022039403120122A79403120122B79403DD
:100E6300120122D19403120122EE940312012209EA
:100E730095031201222E95031201223995031201C3
:100E8300224E9503120122629503120122C3950398
:100E9300120122C99503120122CF9503120122D513
:100EA3009503120122ED95031201222096031201EC
:100EB300220580021201229C800212012234810247
:100EC3001201222482021201225B82021201226E8B
:100ED3008202120122DC82021201227784021201B1
:100EE300229E84021201224085021201227585028C
:100EF300120122868502120122FF8502120122209D
:100F03008602120122388602120122908702120100
:100F130022998902120122E98B02120122EC8C022E
:100F23001201223B8D0212012263EB0112012260A6
:100F3300EC011201224BED0112012255ED011201C8
:100F43002277ED0112012283ED01120122D5EE0178
:100F530012012204EF0112012234F0011201227660
:100F6300F001120122A2F10112012278F201120111
:100F730022CAF20112012229F30112012260F301B4
:100F83001201229BF30112012236F7011201224FB3
:100F9300F701120122D1F701120122DFF701120139
:100FA3002234F80112012242F801120122AFF801A2
:100FB30012012221F90112012267F9011201220C07
:100FC30099021201222E9902120122189B02120188
:100FD30022BD9E0212012200A002120122DAA00207
:100FE30012012276C1031201229BC1031201220CBA
:100FF300C2031201225ED40212012267D40212013B
:101003002270D402120122A1D502120122C0D702FA
:10101300120122F6D70212012230D80212012266EF
:10102300D802120122A0D802120122D4D80212013E
:101033002200D90212012249D90212012283D902C4
:10104300120122CBD90212012221DA021201225605
:10105300DA02120122B1DA02120122EBDA021201E0
:10106300223CDB0212012272DB02120122ACDB0200
:10107300120122DADB02120122FDDB021201221B22
:10108300C90312012247C903120122A2C903120193
:1010930022ACC903120122BCC903120122EDFA02D8
:1010A30012012214FB021201224FFB021201229CA5
:1010B300CB031201227E46001201228E4900120147
:1010C30022234B001201229E4B001201224A4C00A4
:1010D300120122ED4C00120122854D00120122B4AF
:1010E3004D001201224C5200120122DE5200120165
:1010F300221A54001201228454001201223855008E
:10110300120122EE570012012228580012012292E6
:101113005800120122EF58001201224C590012010B
:1011230022A95900120122945A00120122DA5A000C
:10113300120122255B00120122485B001201228F5B
:101143005C00120122A35C00120122125E00120154
:1011530022515E00120122915E00120122E45E0020
:10116300120122055F00120122435F00120122696E
:101173006100120122AA61001201224562001201DC
:1011830022B76200120122F86300120122ABEA02C5
:1011930012012251EB0212012296EC021201221FCC
:1011A300ED021201220CEE021201224BEE02120199
:1011B30022B5EE0212012223EF021201224DCD03CA
:1011C300120122D3B3031201229EB603120122306D
:1011D300CD0312012269CA0312012279CA03120143
:1011E300228DCA0312012209CB03120122CEB003BE
:1011F30012012276B103120122B8B303120122FDB8
:101203007F00120122EBFF02120122E8CC0312013C
:1012130022FECC0312012246AA03120122B7AA031B
:10122300120122D4AA0312012203AB0312012232B8
:10123300AB03120122B1AC031201228BDC021201B7
:1012430022FCDC0212012273DE0212012246E002BA
:1012530012012283E10212012247E20212012264F7
:10126300E202120122B3E202120122F4E2021201AB
:101273002235E3021201225AE30212012298FF01EE
:10128300120122ECFF011201222CC303120122815D
:10129300C303120122CD7F0012012218C6031201DB
:1012A3002249C60312012273C603120122D1C603C7
:1012B3001201223F7800120122547800120122B059
:1012C30078001201221B79001201226379001201B6
:1012D30022D57900120122FE79001201220C7A0034
:1012E3001201226E7A00120122AC7A00120122C787
:1012F3007A00120122627B001201220B7C00120190
:10130300228E7C00120122C77C00120122527D0032
:10131300120122A97D00120122077E001201221967
:101323007E001201223F7E00120122487E0012013C
:1013330022997F00120122B6BB031201221DBC03B6
:10134300120122DABC0312012258BD03120122BD8D
:10135300A203120122F0A20312012222A40312010A
:101363002266A40312012242A503120122DEC40352
:10137300120122BCC503120122ACB603120122F1F1
:10138300B60312012237B70312012200B903120177
:10139300220CCB0312012227CB0312012237CB03EA
:1013A300120122C6C90312012259AE0212012235CB
:1013B300AF021201227CAF02120122B9AF02120165
:1013C3002227B00212012281B002120122F1B002DF
:1013D300120122C1B102120122B0B202120122276C
:1013E300B302120122C3B40212012250B502120148
:1013F30022C3B5021201223FB60212012256B602DF
:101403001201227BB702120122D5B702120122F088
:10141300F90112012210FA0112012216FB01120135
:101423002262FB0112012282FB01120122D5FB0180
:1014330012012242FC0112012288FC01120122EC5A
:10144300FC011201220E82011201223B87011201CB
:10145300223E8A01120122678A01120122908A0127
:10146300120122428B011201222B8D0112012276DD
:101473008E011201228F8E01120122C693011201E5
:1014830022FF930112012243940112012254950178
:101493001201220080031201226A820312012286B2
:1014A3008303120122A48303120122C683031201C0
:1014B300229784031201229A8403120122BC84031B
:1014C30012012276CC03120122BCCC031201221298
:1014D300CD03E066701008A3E066700A08A3E06617
:1014E300700408A3E06622C3E7960809E796080993
:1014F300E7960809E79622C3E09608A3E09608A3B7
:10150300E09608A3E09622C008C3E096F50808A376
:10151300E096420808A3E096420808A3E09645082F
:101523007001D3D00822080808EAC0E0EBC0E086C7
:10153300F0E7A4FA180986F0E7A42AFA180986F056
:10154300E7A42AFA180986F0E7A42AFA1986F0E72D
:10155300A4FBE5F02AFA190886F0E7A42BFBE5F0D3
:101563003AFA190886F0E7A42BFBE5F03AFA1818C3
:101573000986F0E7A4C5F02BFBE43AFA1908E7C59E
:10158300F0C6A426F6E5F03BFBE43AFA1886F0E74A
:10159300A4F6E5F00826F6E43B08F6E43A08F6D0AC
:1015A300E0FBD0E0FA226016080808C6C313C61889
:1015B300C613C618C613C618C613C6D5E0EA2270EA
:1015C30009080808226016181818C6C333C608C6C7
:1015D30033C608C633C608C633C6D5E0EA22E627B3
:1015E300F60809E637F60809E637F60809E637F696
:1015F30022E026F608A3E036F608A3E036F608A3B1
:10160300E036F622E026F008A3E036F008A3E03641
:10161300F008A3E036F022C3E697F60809E697F64A
:101623000809E697F60809E697F622C3E096F0085C
:10163300A3E096F008A3E096F008A3E096F022E07A
:1016430056F608A3E056F608A3E056F608A3E056BC
:10165300F622E056F008A3E056F008A3E056F0089F
:10166300A3E056F022E0F608A3E0F608A3E0F608AC
:10167300A3E0F622E6F008A3E6F008A3E6F008A349
:10168300E6F022E0FAA3E0FBA3E0FCA3E0FD22E006
:10169300F8A3E0F9A3E0FAA3E0FB22E8F0A3E9F062
:1016A300A3EAF0A3EBF022CAC0E0E6F0A308DAFA5B
:1016B300D0E0FA22CAC0E0E0A3C582CCC582C583CC
:1016C300CDC583F0A3C582CCC582C583CDC583DADE
:1016D300E6D0E0CA22C3E498F8E499F91217198016
:1016E30026C3E49AFAE49BFBE920E7E9121719E41D
:1016F30098F8E499F922C3E498F8E499F9121719D0
:10170300E498F8E499F9C3E49AFAE49BFB22EB200A
:10171300E7CFE920E7E0B90010BB0008E88AF084CE
:10172300F8AAF022E4FBC8FA22EB70227B10C8333C
:10173300C8C933C9335007C39AC3DBF280069A5032
:10174300012ADBEAC833F4C8C933F4C9FA2275F0B5
:1017530008E4C833C8C933C933C99AC99B5004C9FB
:101763002AC93BD5F0ECFBC833F4C8E4C9FA2260BC
:101773000D08C6A2E713C618C613C6D5E0F3226048
:101783000C08C6C313C618C613C6D5E0F4227004EA
:1017930022600D18C6C333C608C633C6D5E0F41895
:1017A30022251810AF08F518400C15198008F518F4
:1017B30040021519D2AF2200C0D0251810AF08F58A
:1017C30018500C05198008F51850020519D2AFD02E
:1017D300D0222518F58210AF08F518400C15198092
:1017E30008F51840021519D2AF851983222518F57B
:1017F30082E43519F583222518F8E43519F92225F1
:1018030018FAE43519FB222518FCE43519FD22E406
:10181300732518C582C0E0E51934FFC583C0E0E530
:1018230018C3958224F810AF088583198582188020
:1018330008858319858218D2AFCEF0A3E520F0A3E3
:101843007808E608F0A3DEFAEFF0A3E58124FAF8BE
:10185300E608F0A3E608F0A3E608F0A30808E60804
:10186300F0A3E608F0A315811581D0E0FED0E0F8DF
:10187300158115811581E8C0E0EEC0E0222518C569
:1018830082C0E0E51934FFC583C0E0E518C3958243
:1018930024F910AF08858319858218800885831978
:1018A300858218D2AFCEF0A3E520F0A37808E6082E
:1018B300F0A3DEFAEFF0A3E58124FBF8E608F0A33A
:1018C300E608F0A30808E608F0A3E608F0A31581EC
:1018D3001581D0E0FED0E0F815811581E8C0E0EE77
:1018E300C0E022851983851882E0A3FEE0A3F520DA
:1018F3007808E0A3F608DFFAE0A3FFE0A3C0E0E086
:10190300A3C0E0E0A3C0E0E0A3C0E0E0A3C0E01018
:10191300AF08858218858319800885821885831905
:10192300D2AFD083D08202011F851983851882E04C
:10193300A3FEE0A3F5207808E0A3F608DFFAE0A30E
:10194300FFE0A3C0E0E0A3C0E0E0A3C0E0E0A3C0E9
:10195300E010AF0885821885831980088582188571
:101963008319D2AFD083D08222C0D02518C582C0BC
:10197300E0E51934FFC583C0E0E518C3958224F37D
:1019830010AF08858319858218800885831985829D
:1019930018D2AFC8F0A3E9F0A3EAF0A3EBF0A37960
:1019A30008E709F0A3D8FAECF0A3EDF0A3EEF0A357
:1019B300EFF0A3D0E0F0A3D0E0F0A3D0E0F0A3E5F4
:1019C30020F0A3E5F0F0A322851983851882E0C0F7
:1019D300E0A3E0F9A3E0FAA3E0FBA37808E0F608AC
:1019E300A3DFFAE0FCA3E0FDA3E0FEA3E0FFA3E096
:1019F300C0E0A3E0C0E0A3E0F5D0A3E0F520A3E0BE
:101A0300A3F5F010AF0885831985821880088583B4
:101A130019858218D2AFD082D083D0E0F8D0E032DB
:101A230074048006740280027401C0E0F404121787
:101A3300D5D0E01216AA227404800474028000CC6C
:101A4300C0E0EDC0E0E518C39CCCAD1950011D10FA
:101A5300AF068C188D1980068C188D19D2AF12160B
:101A6300B7D0E0FDD0E0FC22D083D082E9C0E0E42F
:101A730093A3C386F0C5F095F0F908E493A386F029
:101A8300C5F095F0700BE493A3C3994005E9048076
:101A930002A3E475F002A42582F582E5F03583F50F
:101AA30083D0E0F9E493A3C0E0E493C0E022D083C1
:101AB300D082ECC0E0EDC0E0E493A3FCE493A3FD8B
:101AC300ED4C600D121AFDEC24FFFCED34FFFD809C
:101AD300EFE493A3FCE493A3FDED4C600D121B3CD8
:101AE300EC24FFFCED34FFFD80EFD0E0FDD0E0FC03
:101AF300E493A3C0E0E493C0E022C0E0C3E4939680
:101B0300087401939618400FE493667008087401F3
:101B130093661870007019A3A3C3E4939608740125
:101B2300939618A3A3400DD0E0D0E0D0E0021AEDC5
:101B3300A3A3A3A3A3A3D0E022C0E0C0F088F0E452
:101B4300936670080874019366187000A8F0A3A345
:101B5300700BD0F0D0E0D0E0D0E0021AEDA3A3D018
:041B6300F0D0E022BC
:101B680074F6121880EAFEEBFF8C088D09EE243417
:101B7800F8E43FF9E8FCE9FDEE2435121E7BFAEEA5
:101B88002437121E7BF88508F0A4C885F00A850959
:101B9800F0A4250AF9EA28F8E439F97A257B001235
:101BA8001719EA8C828D83F0FA131313541FF8EE79
:101BB80028F8E43FF9E8245DF582E439F583E0C0CC
:101BC800E074075AF8D0E0B800028004C313D8FCC8
:101BD800A2E0EE50082434F582E43F80182436123F
:101BE8001E7BF5F0EA84A8F0EE28F8E43FF9E82433
:101BF80038F582E439F583E0F97F0302192C74F78C
:101C0800121880EAFEEBFFEE2434121E7BC0E0EED1
:101C18002435F582E43FF583D0E0F08E828F83A3EC
:101C2800A3A3A3A3A3A3C082C0838E828F83A3A3ED
:101C3800A3A3A3E0F8A3E0F9D083D082E0C398F58A
:101C480008A3E099F509EE247F121E7B6401703E1B
:101C5800EE2480F582E43FF583C082C0838E828FB4
:101C680083A3A3A3A3A3E0240108A3E03400F9D02D
:101C780083D082E0687003A3E06970127CB17D04B0
:101C8800120C65EE247FF582E43FF583E4F0AC089E
:101C9800AD09EEFAEFFB121B68E9F91225D37F02B2
:101CA80002192CC082C083851882851983E0F8A3A5
:101CB800E0F9C3EA9CEB9D5010C3EC98ED99401BEA
:101CC800C3EA98EB995014800EC3EA98EB99400741
:101CD800C3EC98ED994004790180027900D083D053
:101CE8008222EAC39CFAEB9DFB2274EF12188090C3
:101CF8000376E064086005E06407702A9061C8E034
:101D080060249003A4E0F4601DE0F875F00BA4C80B
:101D1800AAF02AF974A628FE740339FF8E828F83ED
:101D2800A3A3A3E07003021E00906060E0C0E0EE91
:101D38002468F582E43FF583D0E0F0750C21750D39
:101D480005750800750900E5D914F50AE5D95403A5
:101D5800F50E60127403650E6043E50A600AEE240E
:101D680067121E7B7002807590051CE06401601F7D
:101D7800121E7860047A0480027A00E50AC39AFA8F
:101D880095E0FB120B0F8A088B09EA4509700512CA
:101D98000E938064121E7870048A0C8B0DE50A601D
:101DA80012850C82850D83F50BE5D9F0A3150BE59B
:101DB8000B70F6121E78604474FC250AF50A780C3C
:101DC800121A27AC0AA90EEEFAEFFB120D1F7402C5
:101DD8001217BAE97026AA08AB0912133D793D8E8D
:101DE800828F83A3A3A3A3E0FA7B00120971EEFA02
:101DF800EFFB120C89120D317900806F7403650EA8
:101E08006051850A107511007810121A27AC0CADB4
:101E18000DAA08AB09120CE374021217BAEE246873
:101E2800121E7B64807004747F8001E0F50C780CCE
:101E3800121A2BE50EF50C780C121A2BA90AAC080D
:101E4800AD099003A4E0FA7B001209477402121747
:101E5800BA8013900376E06408600BAC0CAD0DEE0D
:101E6800FAEFFB120DA9120E9F79017F0A02192CB5
:101E7800EE2483F582E43FF583E02274F2121880A1
:101E880074FC1217A4EAFEEBFF8909A2AFE433F54C
:101E980008C2AF021F4DE0601B780C121A27AC0B6A
:101EA800A90EEEFAEFFB120D1974021217BA740498
:101EB800250BF50B7401250BF5D9850ED9E50B60BB
:101EC80018F50A850C82850D83E0F5D9A385820C67
:101ED80085830D150AE50A70EA75E195EE2463F825
:101EE800E43FF97A007B00A2AFE433F50BC2AF8878
:101EF800828983E0FCA3E0FDEC4D603A8882898307
:101F0800E0FAA3E0FB8A828B83E0FCA3E0FD8882F1
:101F18008983ECF0A3EDF08A828B83E4F0A3F08848
:101F2800828983E0FCA3E0FDEC4D700A88828983F6
:101F3800A3A3E4F0A3F0E50BA2E092AF12133D9047
:101F480004B8E004F0EE2463121E7BF8A3E0F9E87D
:101F5800496064EE2463121E7B2402F8A3E0340077
:101F6800F988828983E5822402F50CE43583F50D2E
:101F7800E0F50BA3E0F50EEE2462121E7B640170FF
:101F8800369061D0E0F8121E7860047C0480027CF0
:101F9800007480C398FA95E0FBE50B2CF8E4340054
:101FA800F9E82402F8500109C3EA98EB99A2D2652E
:101FB800D0334003021E9E9004B8E0604D9004B9EF
:101FC800E0F89004B8E0C398500C74026509703AC0
:101FD8009004BAE060348E828F83A3A3A3A3E08524
:101FE800188285198312202274021217F0E8122031
:101FF800229004B7E028F0740212180AAA18AB1944
:10200800790112099B9004B8E4F0E508A2E092AFC8
:1020180074041217BA7F0702192CF0A3E4F0900495
:10202800B8E0F8228521878522C622C0E074EB1229
:10203800196CA2AFE433F508C2AF759B00906182BA
:10204800E0A2E05030E591A2E0502A7591FE7401BB
:10205800652170211221C6120DEB1221B4121A3A11
:1020680012237D74041217BAE9640170057901120C
:102078000E27121CF2906182E0A2E5505DE591A264
:10208800E550577591DF900376E064076005E064DA
:1020980008702F1221C674016521703E120DEB12D3
:1020A80021B4121A3A12237D74041217BAE9640192
:1020B80070057901120E277901EEFAEFFB121E83E3
:1020C8008018E0640D7013900398E004F0642870A1
:1020D80002E4F07A00E0F9120EA5906182E0A2E62F
:1020E8004003022189E591A2E64003022189759106
:1020F800BF900376E064057008120DD3120DDF80DF
:1021080003120DD9752100120E33E9900377F07987
:1021180000120E27120BD57A017B00900375E0F9A7
:1021280012130D907803E064427056900520E01475
:10213800F0704EC2AF12214000782AD0E0F618D0D5
:10214800E0F6E59F5407F87005750DFF8003750DDF
:102158007FC4C0E07829E6F50A08E6550DF50B744A
:102168000B780A121782D0E0250AF8906270E0A274
:10217800E740F8E8C333906272F0906270E0D2E012
:10218800F0906181E0A2E35009E5E9A2E35003750C
:10219800E9F7A3E0A2E75009E591A2E7500375919A
:1021A8007FE508A2E092AF7F080219CB8E828F8369
:1021B800E0F8A3E0C82416F582E438F583229003FA
:1021C800A4E0F875F00BA4C8AAF02AF974A628FEB2
:1021D800740339FF22C0E0C0D0C082C083906183FD
:1021E800E0A2E05009E5BFA2E0500375BFFEE0A2FF
:1021F800E15009E5BFA2E1500375BFFDE0A2E2503E
:1022080009E5BFA2E2500375BFFBE0A2E35009E570
:10221800BFA2E3500375BFF7E0A2E45009E5BFA2EF
:10222800E4500375BFEFE0A2E55009E5BFA2E55011
:102238000375BFDFE0A2E65009E5BFA2E6500375CB
:10224800BFBFD083D082D0D0D0E032C0E074F212C9
:10225800196CE5A7A2E6500FE5A1A2E6500953A71D
:10226800BF75A1BF1222A7E5A7A2E5500CE5A1A260
:10227800E5500653A7DF75A1DFE5A7A2E15009E500
:10228800A1A2E1500375A1FDE5A7A2E2500CE5A1CA
:10229800A2E2500653A7FB75A1FB7F010219CB747C
:1022A800F7121880752101900376E0640670151204
:1022B8000D558A828B83A3A3A3A3A3A3E0FAA3E06B
:1022C800FB120DC1A2AFE433FED2AF90037CE064F1
:1022D8000170187A207B00900375E0F91214337AA4
:1022E800207B00900375E0F9121313906182E0D20D
:1022F800E6F090051DE0602185C622801690037BDC
:10230800E064017008E5C654F84405F5C653BEFC00
:1023180012202C7401652160E4EEA2E092AF7F02E6
:1023280002192C008E238F248582288583278518FF
:1023380082851983E0CEA3E0CF852882852783EBA9
:10234800C9EAC8EDCBECCA75F010C3E833C8E93365
:10235800C9EA33CAEB33CBC3EA9EF526EB9FF525D2
:10236800B35004AB25AA26EC33CCED33CDD5F0DA47
:10237800AE23AF242274F11218808A088B098C0AC4
:102388008D0B9081B27808121642740F1217F078EC
:102398000C1216689081B2780C1216427808790CE3
:1023A8001214EA90816650107808790C12161A787F
:1023B8000812150A4014800E780C790812161A783B
:1023C8000C12150A50047901800279007F0802195D
:1023D8002C74ED1218808A088B098C0A8D0B908159
:1023E800B2780812164274131217F0780C12166895
:1023F8009081B2780C121642780C79081214EA40CF
:10240800117808790C12161AAA08AB09AC0AAD0B98
:10241800802275100075110075120075130178106F
:10242800790C12161A781079081215E1AA10AB1156
:10243800AC12AD137F0C02192C9081B278081216D9
:10244800688A828B8378081216557F0402192C74C7
:10245800F51218808C828D8378081216688A828B10
:1024680083780812162E1224AFC3E09CF0A3E09DD7
:102478001224A1402290818678081216688A828BDD
:102488008378081216078A828B83A3A3A3A3E02468
:1024980020F0A3E0344EF080A0F088828983C3E066
:1024A8009420A3E0944E22EA2404F8E43BF98C82B9
:1024B8008D83A3A3A3A3E0FCA3E0FD8882898322E4
:1024C80074F5121880E9FE9004D3E0FAA3E0FBEE5D
:1024D80029F8E433F974D928F582748039F583E052
:1024E8002AF508A3E03BF5097808121A2790819E7F
:1024F80012168612232C74021217BA8A088B098CBA
:102508000A8D0B741078081215A9AA08AB097F0464
:1025180002192C74F11218808A0C8B0D8C0E8D0FF9
:1025280074111217F0121A3E74111217F0E02401F8
:10253800F508A3E03400F509E4F50AF50B780C7901
:10254800081215299081727808121668780C790893
:10255800121529AA0CAB0DAC0EAD0F12232C740268
:102568001217BA8B09EA450960047A0180027A00D9
:10257800EC2AFCE43DFD74131217F0E0F8A3E0F92F
:10258800E8FEE9FFECF8EDF97A717B021217198879
:10259800088909E4F50AF50B8E828F8378081216EC
:1025A80077ECF8EDF97A717B021217198A088B0912
:1025B800740578081217918E828F83A3A3A3A3E5CD
:1025C80008F0A3E509F07F0802192CC082C083E94E
:1025D800906000F0D083D08222C0E0C0D0E8C0E094
:1025E800E9C0E0A2AFE433F8D2AFC2C7E8F9E8A285
:1025F800E092AFD0E0F9D0E0F8D0D0D0E032C0E03F
:1026080074F212196CA2AFE433FED2AFE5BAF879CE
:1026180000900833E8F0A3E9F0A8BB7900E4C8F912
:10262800900833E048F0A3E049F0E5B5540F90086E
:1026380032F090082EE0FAA3E0FB90082DE0F912A2
:10264800130DE9EEF8EEA2E092AF7F010219CBC2BA
:10265800AF0200002202011FFFFFFFFFFFFFFFFF85
:10266800C082C083E990161AF0D083D08202011F7D
:1026780074F6121814E99002E8F0900348E0F5089F
:1026880075090074027808121791AA08AB09121389
:10269800859002E912302B9002E9123418606F908D
:1026A8000348E075F003A4FAABF012138590030613
:1026B80012302B900306123418700B9002E9123373
:1026C800E912138B804890030612437D7AFF7BFF43
:1026D80012118D7A0080198A087509007402780829
:1026E800121791123E2574FF12282BE4F0A3F00A6A
:1026F800900348E0F8EAC39840DD79051208339062
:1027080002E8E0F912071F7ABD7B08120AAF023E01
:10271800C874F41218148A088B09EB548060479027
:1027280002E8E0F91212F58A0A8B0BAE0AAF0BEE3B
:102738004F602A8E828F83E064B0701A120845E9D0
:1027480060148E828F83A3A3A3A3E0F9EE2405FA75
:10275800E43FFB120815EEFAEFFB1212E3AA08E5B4
:10276800096480FB80047A007B0002297B74F212E2
:10277800181474FB1217A4EAFEEBFFEE4F604574C1
:10278800031217F0EEF0A3EFF0851882851983EC99
:10279800F0A3EDF074021217F0E9F0AA18AB1912C1
:1027A8000719E9F508707574131217F0E0F50AA314
:1027B800E0F50BE50A450B60638E828F83122DB41A
:1027C800EE4F700575080280537A067B0012138558
:1027D8008A0C8B0DA80CA90DE849700575081380A3
:1027E8003B88828983E412282BEEF0A3EF12294755
:1027F800E50AF0A3E50BF09002EC1229409002ECF8
:102808006017E0FCA3E08003EAFCEBFD8C828D837B
:1028180012294070F38C828D83123A40A9087405FE
:102828000245FDF0A312435FA32274F21218148923
:1028380008890C750D007403780C121791850C0A21
:10284800850D0B9002EBF09002E912384B12293EED
:10285800602E12138B7900801D890C750D0074028F
:10286800780C1217919002E9123CE48882F583A350
:10287800A3E4F0A3F009900348E0F8E9C39840D92D
:10288800900348E0FA850AF0A4CAA8F0850BF0A4E2
:1028980028FB1213858A0C8B0DAE0CAF0DEE4F7012
:1028A80003022934900348E0FC850AF0A4CCA8F080
:1028B800850BF0A428FD79001212D17C0080318D9F
:1028C8000C750D007403780C1217918A828B831291
:1028D800293988828983E4F0122946A3A3F0A3F05A
:1028E8000DEDC3950840D8EE250AFEEF350BFF0C19
:1028F800900348E0F8ECC39850288C0C750D0074D0
:1029080002780C1217919002E9122939E824025032
:102918000109FAE9FB8A828B83EEF0A3EFF07D00D0
:1029280080BFE5089002EBF0790080027913024637
:1029380000123CE8F922A3A31233EDEA4B22A312BA
:10294800435FA3A3A32274F41218147900EAA2E047
:10295800501F75084A7509817808121A2779107C62
:10296800047D007A1C7B1612082D74021217BAE92E
:10297800F980007F040218E6C082C0839002EC123E
:102988003418601C88828983A3A3E06A7003A3E0DB
:102998006B8882898370E8A3A3A3A31233E9800418
:1029A8007A007B0002267174F212181474FD121753
:1029B800A4EAFEEBFF851882851983E4F0A3F0747E
:1029C800021217F07401F012341570141209E9128A
:1029D80013859002EF12302B1234157003022B412D
:1029E80012312BEE2404F50AE43FF50B850A82F533
:1029F80083E024FE603C24FC607424FE607E24FE98
:102A08007003022A9124FE7003022A9E24FE70039A
:102A1800022AAB24FE7003022AB824FE7003022A9D
:102A2800C524FC7003022AE624FE7003022AFE0273
:102A38002B3A1209E99002F1EAF0A3EB122B4D129E
:102A48000461E96003022B3A9002F1121A3E8E8269
:102A58008F83A3A3A3A3A312437D8508828509833B
:102A68001233E91207FD74021217BA022B3AAC1896
:102A7800AD19EEFAEFFB12084B022B09AC18AD1991
:102A8800EEFAEFFB1208518078AC18AD19EEFAEFA8
:102A9800FB120857806BAC18AD19EEFAEFFB120861
:102AA8005D805EAC18AD19EEFAEFFB120863805139
:102AB800AC18AD19EEFAEFFB1208698044740212E3
:102AC80017FA880C890D780C121A27740212180A42
:102AD800EEFAEFFB12086F74021217BA8023AC18D3
:102AE800AD19EEFAEFFB120875E9F87016740212C8
:102AF80017F0E4F0803CAC18AD19EEFAEFFB1208C1
:102B08007BE9F8E8602C8E828F83A3E0641460224E
:102B1800850A82850B83E09002F1F0851882851979
:102B2800831233E99002F212302BE8A3122B4D12D4
:102B3800045BEEFAEFFB1207D374021217F0E0F908
:102B480074030245FDF07CF17D02850882850983C6
:102B58001233ED2274E812181474FA1217A47404CC
:102B68001217F0ECF0A3EDF08A128B13EA2405F5A6
:102B78000EE43513F50FEA2402F510E43513F511C8
:102B8800851082F5831233E91205518A0A8B0B7579
:102B980008007C037D0079007AF17B021212D1E5EE
:102BA8000E2402F516E4350FF51774021217FA8889
:102BB8000C890D780C121A27850E82850F83A3A322
:102BC800A3A3E0F50C750D00780C121A27E50E2466
:102BD80005F50CE4350FF50D780C121A27851682C9
:102BE8008517831236F012073774061217BA8A0C43
:102BF8008B0DE50C450D7003022D7D802085188214
:102C0800851983E088828983F005088518828519EB
:102C180083A3E0C0E0122DBED0E0F00508E50A2449
:102C2800FBFAE50B34FFFBC3E5089AE49B4003027B
:102C38002D7D7E007F00851282851383A3A3A3A325
:102C4800E0F5097809121A2BE4F514F51578141231
:102C58001A277514EE7515027814121A279002EFC8
:102C6800121A3E74091217F0121A3EE50A24F9F9ED
:102C7800AC0CAD0D8510828511831233E91208A5BD
:102C880074091217BAE96003022D1E850E82850F9A
:102C980083A3A3A3A3A3A3A3E0F89002EEE0687024
:102CA80075E0F5148E157814121A2712437A850EDA
:102CB80082850F83A3A3A3A3A3A3A3A31233E9121B
:102CC80012CB74021217BAE9604C9002F21234184F
:102CD800703BE4F5147814121A277CFF7DFF7907FE
:102CE8008510828511831233E912080F74021217B6
:102CF800BA12341E7017850E82850F831245177419
:102D0800041217F0123DD8123721022DB1850C821A
:102D1800850D83122DB4A818A9198814891578145B
:102D2800121A2774041217F0121A3E851682851794
:102D38008312302112074374041217BA8A0C8B0DC0
:102D4800EE4F7003022BFA122DBEEE122DC9123669
:102D5800D7EF122DC9F8A3E03400F9E50C450D6052
:102D680003022C058882898374FFF00508122DBEA2
:102D780074FFF00508E508601A1313543F12303148
:102D880012046DE960099002F21233E912133D79D9
:102D9800008016850E82850F83124517740412175A
:102DA800F0123DD8123A40790A0236AAA3A3A3A387
:102DB800E0FEA3E0FF22A8089002F2E0281236D72E
:102DC80022F00508089002F2E0282274E81218148C
:102DD80074FA1217A474021217F012302B7404122A
:102DE80017F0ECF0A3EDF074021217F0E0240512CE
:102DF80036C0E0F50CA3E0F50D74021217F0E024DC
:102E080002F510A3E03400F511851082F583123322
:102E1800E9120551750800750900EA24FCFEEB3437
:102E2800FFFF8008050CE50C7002050DA808C3EE2D
:102E380098EF94005003022FDDA818A919880E896D
:102E48000F780E121A27851482851583A3A3A3A3CE
:102E5800124381121A27E5142405F50EE43515F5F9
:102E68000F780E121A2785148285158312301F12C7
:102E7800073774061217BA8A0E8B0FEA450F7003CC
:102E8800022FDDEA2404F516E4350FF517851682BE
:102E9800F583E0F50CA3E0F50D85188285198312FA
:102EA800437D8A828B83A3A3A3E0F98510828511D1
:102EB800831233E9120725E9F5096003022FDD744F
:102EC800021217F01236E7F5097809121A2BE4F501
:102ED80012F5137812121A277512EE75130278126A
:102EE800121A279002EF121A3E74071217F0121ADC
:102EF8003EEEF9AC0EAD0F8510828511831233E9D1
:102F08001208A574091217BAE9F5096003022FDD42
:102F1800E508703FE4F50EF50F780E121A277CFFCE
:102F28007DFF79098510828511831233E912080F14
:102F380074021217BA12370D700D74041217F012BA
:102F4800301479110230119002EEE024029002F25E
:102F5800F080149002F2E0FA9002EEE07900240288
:102F68005001096A497072A8089002EEE0FAE82A4E
:102F7800FAE43400FBEE9AEF9B405A8516828517D7
:102F880083E0C0E09002F3122DC3D0E0F00508857D
:102F98001682851783A3E0C0E0089002F3122DC3C0
:102FA800D0E0F005089002EE124381121A2712436E
:102FB8007AA8081236B41212B974021217BA90021B
:102FC800EEE02508F50874FF650C700474FF650DC4
:102FD8006003022E2CE508601F9002F2E0F5F0E590
:102FE8000884123031120473E960099002F3123335
:102FF800E912133D79008011E509700375090A7417
:10300800041217F0123014A9090236AA12384FE533
:103018000CF0A3E50DF022A3A312460CAA0CAB0DED
:1030280022A3A3EAF0A3EBF0229002F1F07CF17D59
:10303800028510828511831233ED2274EC12181464
:1030480074FC1217A4123B50740212180A1233E3CC
:1030580012073D8A0C8B0DEA450D700302311B12D5
:10306800312BA818A919881089117810121A277CF1
:10307800FF7DFF790B8508828509831233E91208E1
:103088000F74021217BA123221700C850A82850B4E
:103098008312371E0231288E828F83A3A3A3A3E055
:1030A800F5127812121A2BE4F512F5137812121A87
:1030B800277512F17513027812121A277810121A4E
:1030C8002774091217F0121A3E74091217F0E0F962
:1030D800AC0CAD0D8508828509831233E91208A569
:1030E80074091217BAE9FE70157CF17D0285088211
:1030F8008509831233E9120479E97009802074166E
:103108006E70027E009002F21233E912133DEE70E7
:1031180004800B7E01850A82850B83123A3DEEF905
:10312800023A52EE2402F508E43FF5092274EC1243
:10313800181474FC1217A4EAFEEBFF8C0E8D0FEE28
:103148002405F508E43FF509740212180A85088277
:103158008509831233E912073D8A0C8B0DEA450D68
:103168007003023211EE2402F50AE43FF50BA818A9
:10317800A919881089117810121A277CFF7DFF7908
:103188000D1233E312080F74021217BA12322170AB
:103198000B85088285098312371E807A8E828F8379
:1031A800A3A3A3A3E0F5127812121A2B850882852F
:1031B8000983A3A3121A3E7512F17513027812122D
:1031C8001A277810121A2774091217F0121A3E7467
:1031D800091217F0E0F91233DF1208A57409121763
:1031E800BAE9FE700F7CF17D021233E312047FE925
:1031F8007009802074166E70027E009002F21233FD
:10320800E912133DEE7004800B7E01850882850962
:1032180083123A3DEEF9023A52123428F510A3E02F
:10322800F511EA45112274E812181474FE1217A455
:103238008A168B178C148D15EA2405F50CE43517BE
:10324800F50DEA2402F50EE43517F50F850E82F523
:10325800831233E91205518A088B09750B007C0328
:103268007D0079007AF17B021212D1750A00E50817
:1032780014F5100424FFF508E50934FFF509805416
:103288009002F1E0FA9002EEE0F8EA28F8E434005F
:10329800F9E50898E50999500D9002F1E0F8E51074
:1032A800C3989002EEF0E0F5127513007812121A26
:1032B8002712437A9002F2E02AFAA3E03400FB12C4
:1032C80012B974021217BA9002EEE0F89002F1E017
:1032D80028F0050A850C82850D83A3A3123CF440CF
:1032E800030233C49002F1E0C39508E49509400352
:1032F8000233C4AE0AEE2EFEE433FF123403AC18D8
:10330800AD19124395E439FB12073D8A128B13ACB1
:1033180012AD13EC4D701B750B011233F3123A41C9
:103328009002F2122940600312133DA90B740202A5
:1033380036AC851682851783A3A3A3A3E0F50B7883
:103348000B121A2BE4F512F5137812121A277512BC
:10335800EE7513027812121A279002EF121A3E74B1
:10336800071217F0121A3EA910850E82850F8312D4
:1033780033E91208A574091217BAE9F50B709B9086
:1033880002F21234186003023288E4F512F5137859
:1033980012121A277CFF7DFF790F850E82850F8315
:1033A8001233E912080F74021217BA12341E60039E
:1033B8000232881233F31237220233357CF17D0250
:1033C800850E82850F831233E9120485E9600302B2
:1033D80033287900023335AC0CAD0D850A82850B94
:1033E800831233ED22E0FAA3E0FB22123403E0FA61
:1033F800A3E0F9EA85148285158322850C82850D60
:1034080083E02EF8A3E03FF988828983229002EFB7
:1034180012451BE84922123428F8A3E0F9E84922AA
:103428009002F2EAF0A3EBF09002F2E02274E812C4
:10343800181474FA1217A474041217F012302B8C93
:10344800168D1774041217F0E02405F50EA3E03466
:1034580000F50F74041217F0E024021236C012337C
:10346800E91205518A0A8B0B7F007E00A818A9195A
:10347800880889097808121A27850E82850F83A380
:10348800A3A3A3E0F5088E097808121A27E50E24ED
:1034980005F508E4350FF5097808121A27850E8214
:1034A800850F83A3A31236F012073774061217BAD2
:1034B8008A0C8B0D80291236E1F00F1236E1F00FDD
:1034C8009002EE123A2C121A2712437AEFF81236AB
:1034D800B41212B974021217BA9002EEE02FFFE587
:1034E8000C450D7003023570851882851983123BCF
:1034F80062A3A3A3E0F98514828515831233E91228
:103508000725E9FEE50C2404F510E4350DF511EE68
:10351800705074041217F01236E7F5087808121A7A
:103528002BE4F508F5097808121A277508EE7509CD
:10353800027808121A279002EF121A3E740712171F
:10354800F0121A3EE50A24FAF9AC0CAD0D85148286
:103558008515831233E91208A574091217BAE9FE12
:1035680060391236FD123A40EF7003023697900226
:10357800F2E0F5F0EF849002F1F07CF17D02851421
:10358800828515831233E912048BE960099002F3EE
:103598001233E912133D79000236AA8F08EF703B07
:1035A800E4F512F5137812121A277CFF7DFF7911C2
:1035B8008514828515831233E912080F74021217D5
:1035C800BA12370D70091236FD1237210236AA9049
:1035D80002EEE024049002F2F080359002EEE0F86A
:1035E8009002F2E0FAE82404FCE43400FDEC6A4DB1
:1035F8006003023576E50A24FAFAE50B34FFFBE5A9
:103608000828F8E43400F9EA98EB99500302357673
:10361800851082851183E0C0E09002F3E02FF8A3C3
:10362800E034008882F583D0E0F00F8510828511A0
:1036380083A3E0C0E01236CED0E0F00F7402121778
:10364800FA880889097808121A2774021217F012E2
:103658001A3E850E82850F8312301F1207437404A9
:103668001217BA8A0C8B0DEA450D70030234BE742A
:10367800021217F0E0C0E01236CED0E0F00F74026C
:103688001217F0A3E0C0E01236CED0E00234C6EE46
:1036980070027E0A850E82850F83123703123A4024
:1036A800EEF974061217BA7F100218E69002F3E0DA
:1036B80028FAA3E03400FB22F514A3E03400F51542
:1036C800851482F583221236D2229002F3E02FFA73
:1036D800A3E034008A82F583221236D274FF2212C4
:1036E800384FA3A3A3A3E02212460C850E82850FB0
:1036F800831233ED2285108285118312451B8516AE
:1037080082851783229002F3EAF0A3EBF09002F38C
:1037180012451BE84922123A46E8F0A3E9F079116C
:103728002274EA12181474FE1217A48A088B098CE2
:10373800128D13EA2405FEE43509FFAC18AD198E85
:10374800828F831233E912073D8A0C8B0DEE240613
:10375800F50EE43FF50FEA450D7003023821E50840
:103768002402F50AE43509F50B8A828B83A3A3A307
:10377800E0A2E550288518828519831233E91208DA
:10378800998A108B11EA4511602079121233DF856E
:103798001082851183121812E9F50C707F850E824C
:1037A800850F83E0600979528011750C0E806D8554
:1037B8000882850983A3A3A3A3E0F9E4F508F50922
:1037C8007808121A278E828F83A3A3E0F508780859
:1037D800121A278E828F83A3A3A3121A3E8E828F7A
:1037E8008312437D1233E31208AB74061217BAE949
:1037F800F50C7011850E82850F83E0702D1233E36E
:1038080012049180257416650C7011750C007418DB
:103818001217F012384BE48010750C01124513850D
:103828001282851383E8F0A3E9F0850E82850F8361
:10383800E0600479008002A90C74021217BA7F0EA6
:103848000218E612384F22E0F8A3E0F583888222B6
:1038580074EC12181474F71217A48A0A8B0B8C10C4
:103868008D11EA2405FEE4350BFF750C00AC18AD8C
:10387800198E828F831233E912073D8A088B09EA71
:1038880045097003023A17E50A2402F50A500205B1
:103898000B8A828B83A3A3A3E0A2E5502F8518820D
:1038A8008519831233E91208998A0C8B0DEA450DA4
:1038B800604F7912AC08AD091233E3850C82850D8F
:1038C80083121812E9F50C6003023A1A850A8285F8
:1038D8000B83E0F508A3E0F509AA08FB12088DEAB6
:1038E8004B70197AFF7BFF12088DEA4B7003023A7E
:1038F8000D8A828B83E508F0A3E509F0750800803E
:1039080008750C0E023A1A05089002EBE0F8E50873
:10391800C3984003023A0D85080E750F00740378AA
:103928000E1217918A828B83A3A3E0250EF8A3E0D9
:10393800350F123DE170D08E828F83123A351230E6
:103948002B8E828F83A3A3123A35123029EE2404DA
:10395800F508E43FF509850882F583E088828983C4
:10396800A3A3A3A3F0A3E4F0EE2405F50EE43FF52A
:103978000F850E82F583123A35A3A3A3A31230292B
:103988007512077513007812121A27EEFCEFFD74F2
:10399800041218021212B974021217BAE4F5127856
:1039A80012121A27850882850983E0FC7D007917A1
:1039B8001233E312080F74021217BA74071217F0C1
:1039C80012302B74071217F0E0FA4B603D8508821D
:1039D800850983123A2C121A27850E82850F8312C5
:1039E800437D1212B974021217BA740212180A121D
:1039F80033E3120497E9602674071217F01233E9CB
:103A080012133D8019750C098008750C1180037517
:103A18000C01124513851082851183123A40A90CB6
:103A280074098028E0F5087509007808221233ED3A
:103A38008882898322123A46E8F0A3E9F022E0F866
:103A4800A3E0F9850E82850F832274041217BA7FCA
:103A58000C0218E674EC121814123B50751000EEA4
:103A68002402F50CE43FF50D850C82F5831233E949
:103A780012088D8A088B09EA45097003023B3485D0
:103A88000A82850B83E064016003023B29AC08AD20
:103A980009AA0AAB0B120881E9606E8508828509BC
:103AA80083122DB6EE2406F50AE43FF50B8E828FBD
:103AB80083A3A3121A3E8E828F83A3A3A3A3121AF1
:103AC8003E850A82850B83121A3E79188E828F836F
:103AD800123B621233E91208AB74061217BAE9F8FE
:103AE800741668700B850A82850B83E4F0A3801432
:103AF800E860128E828F831233E9850E82850F83E8
:103B0800EAF0A3EBF088108018780E121A27AC0898
:103B1800AD09EEFAEFFB12088774021217BAE9F53D
:103B280010AA08AB09120893E510700E850C82855F
:103B38000D831233E912049D800974166510700311
:103B4800751000A910023A57EAFEEBFF8C0E8D0F94
:103B5800EE2405F50AE43FF50B2212460C850C828B
:103B6800850D832274EA1218147508007509007E01
:103B7800007F00750A00EC2402F510E43DF5118081
:103B880035EC65087003ED65096003023C21888205
:103B98008983A3A3E06A7003A3E06B707C888289A1
:103BA80083A3A3A3A3124517EE28FEEF39FFEA2843
:103BB800FAEB39FB050A123CF1503A850A0C750DEF
:103BC800007403780C121791851082851183123CBA
:103BD800E4123DE1601FE508450970A58C088D09D0
:103BE80088828983122DB488828983A3A3E02EFA60
:103BF800A3E03F80BEE50AC394025003023CDF7590
:103C08000800750900EE4F6010EEFAEFFB1213374B
:103C18008A0E8B0FEA450F70057900023CE1750B9F
:103C280000023CB4850B0C750D007403780C121758
:103C380091851082851183E0250CF50CA3E0350DE4
:103C4800F50DE50C2406F514E4350DF515851482FB
:103C5800F583123DE66042E50C2404F512E4350DC7
:103C6800F513851282F583121A3EE50E2508FAE54A
:103C78000F3509FB1212B974021217BA8512828520
:103C88001383E02508F508A3E03509F509851482B2
:103C98008515831233E912133DE50B600D7C087D11
:103CA800007900AA0CAB0D1212D1050BE50BC395D8
:103CB8000A5003023C2C851082851183124517880F
:103CC800828983A3A3A3A3A3A3E50EF0A3E50F1200
:103CD8002947EEF0A3EFF07901023846123CE822BA
:103CE800E0250CF8A3E0350D229002EBE0F8E50A98
:103CF800C3982274F01218148A0E8B0F8C0A8D0B3D
:103D0800750D00750C0080507916EE2406F508E450
:103D18003FF5098E828F83A3A3121A3E8E828F836A
:103D2800A3A3A3A3121A3E850882850983121A3E0B
:103D3800850E82850F83A3A31233E91208AB74069C
:103D48001217BAE9F50D7416650D706C8508828531
:103D58000983E4F0A3F0050C9002EBE0F8E50CC34E
:103D6800985066AA0C8A0875090074037808121717
:103D780091850A82850B83A3A3123E30E8FEE9FFF2
:103D88008E828F83123DE66040EA2401F508E43410
:103D980000F5099002EBE065087002E509601488F7
:103DA800828983A3A3A3A3A3A3A3A31234186003A4
:103DB800023D107918023D12E9609B1245137410F8
:103DC8001217F0123DD8123A40A90D7F080218E6E2
:103DD800E0FAA3E0F5838A8222F988828983124671
:103DE8000CEC4D2274F61218147C0080010C900320
:103DF80048E0F8ECC398501E8C08750900740278E6
:103E080008121791123E25E06A7003A3E06B70DD7B
:103E1800E8FAE9FB80047A007B00023EC89002E9D8
:103E2800123E308882898322E02508F8A3E035090C
:103E3800F92274F21218148A088B09750A0080276F
:103E48008E828F83A3A3A3A312293E600312133D7E
:103E58007C087D007900EEFAEFFB1212D18E828F7A
:103E680083E4F0A3F0050A123CF15027850A0C758B
:103E78000D007403780C121791850882850983A3B5
:103E8800A3E0250CFEA3E0350DFF8E828F8312344C
:103E98001870AD85088285098374FFF0A3F0024687
:103EA8000074F612181412083F8A828B83E5824543
:103EB8008370067A007B008007A3A3A3A31233E9CB
:103EC8007F020218E674F412181489088C828D8314
:103ED800E06402703C1244B6FEA3E0F9EEF8740206
:103EE8006870037429697029750A02750B00780ACD
:103EF800121A2774101217F0121A3E74101217F0C3
:103F0800121A3EA90812119F74061217BAE9F9800D
:103F180002790102297B74E812181474FB1217A4A1
:103F2800E9851882851983F08A168B17ECFEEDFF58
:103F38007510008E828F83A3A3A3E0A2E4502D7492
:103F48001D1217F01233E91208998A828B83E582D1
:103F580045837003024355790AEEFCEFFDAA16ABC0
:103F680017121812E9F5106003024358741F12174C
:103F7800F0E0F508A3E0F50974211217F0E0F50A5E
:103F8800A3E0F50B74231217F0E0F50EA3E0F50F8C
:103F98008E828F83E0640260030242F6A312451703
:103FA800850882850983A3858212858313EE2406FA
:103FB800F50CE43FF50D88828983124395F514E4E6
:103FC80039F5157814121AB1010000280128F83FB4
:103FD80007000228BD4003282B400029EC41012995
:103FE80017420229B8410329EC4104299042F642BC
:103FF800E50E450F60030242F1850C82850D8312A0
:104008004517E8FAE9FB8A828B83E0850A82850BEB
:10401800831243A0121A278A828B83A3E0FCA3E0B1
:1040280002427AE50E450F60030242F1850A828555
:104038000B837401F012438A850882850983F07C1A
:10404800007D008E828F83A3A3A3A3E02401FAA39B
:10405800E03400FB12073DEA4B60408A828B83E024
:104068002402F8850A82850B83E028F0EA2404F804
:10407800E43BF988828983E08512828513831243A1
:10408800AE1243A0121A278A828B83A312437DE5BE
:10409800082403FAE43509FB02427F850A82850B6E
:1040A80083E02404F07C047D007900AA12AB13128B
:1040B80012D1024358E50E450F60030242F1124344
:1040C8008AFEA3E0FF850A82850B837404F0EE85DF
:1040D8000882850983F0EF851282851383F07403C3
:1040E80012180AEEFAEFFB12073D8A0C8B0DEA450F
:1040F8000D700302419B8A828B83A3A3122DB47493
:10410800011217FA880E890F780E121A27740512F1
:1041180017F0121A3E7CFF7DFF1207437404121732
:10412800BA8B0FEA450F7033850C82850D831243D5
:1041380081121A27850C82850D83A3121A3E7C02F0
:104148007D007AD37B8112053F74041217BAE97097
:104158000A74011217F074FFF0A3F08E828F83E0C7
:1041680064027039750C02750D00780C121A278ECE
:10417800828F83A312437DE5082404FAE43509FB02
:104188001212B974021217BA850A82850B83E024C9
:1041980002800974011217F0EEF0A3EFF074011217
:1041A80017F012436F74011217F01243660242EBC4
:1041B800E50E450F60030242F1850C82850D8312DE
:1041C8004605AA16AB171211A5850A82850B8374BA
:1041D80002F0850882850983EAF0851282851383B7
:1041E800EB0242EEE50E450F60030242F112438AEC
:1041F800F8A3E0F9850A82850B837402F0E8850844
:1042080082850983F0E98512828513830242EE854F
:104218000C82850D831233E91212B3EAFAF8C395BA
:104228000EE4950F405CE8650E450F70047A008037
:1042380021851882851983E0FCE50E2CFCE4350FF6
:10424800FDC3EC98ED94005003E08005E50ECAC369
:104258009AFAEA850A82850B83F08A0A750B007838
:104268000A121A27850C82850D83E0250EFCA3E02F
:10427800350FFDAA08AB091212B974021217BA0257
:104288004358751007024358E50E450F705B850CBF
:1042980082850D83124517850A82850B837407F082
:1042A8008882898312436712435FE08512828513EF
:1042B80083F0E82402FAE439FB8A828B8312436F85
:1042C8008A828B83124366A3A3122946124374F091
:1042D800E82405F850010988828983124374A312DF
:1042E80043AEA3A3A3A3F0806775100B8062741D6F
:1042F8001217F01233E912083F8A828B83E5824550
:1043080083604A124517880C890DE8450D603E7494
:10431800251217F0E0F5107810121A2B780E121AE1
:1043280027780A121A277808121A2774071217F022
:10433800E0F9EEFCEFFDAA16AB17850C82850D831C
:1043480012181274071217BAE9F510800375100EC7
:10435800A91074050236ACF088828983A322A3E0F1
:10436800850882850983221243B5F0221243B5A33A
:10437800A3229002EF12460C22E0F50E750F00788A
:104388000E22850C82850D8312384FE022E0FAA3B5
:10439800E0F8E4C8F9EA2822F08A828B83E0F50A7B
:1043A800750B00780A2212435F1243B522E0850894
:1043B80082850983A3A32274EE12181474FE1217BF
:1043C800A48A088B09ECFEEDFF890AAC18AD19EE3A
:1043D800FAEFFB12073D8A0C8B0DEA450D700302BC
:1043E80044A78518828519831233E912083F8A8207
:1043F8008B83E582458370030244A2A3A312451769
:10440800880E890FE8450F70030244A2741412172E
:10441800F0E0F510A3E0F511E50AF50B780B121A98
:104428002B74191217F0121A3E7810121A27741BDF
:104438001217F0E0F9AC0CAD0DAA08AB09850E8295
:10444800850F8312181274051217BAE9F50B70520A
:1044580074FE650A604C850C82850D83E0640270E9
:10446800411244B6FAA3E0F9EAF8740268700374DA
:104478002969702E851082851183124395F50CE405
:1044880039F50D780C121A27EEFCEFFDAA08AB09D6
:104498001208C374021217BA8008750B0E800375D0
:1044A8000B01A90B74021217BA7F0A0218E6A312AD
:1044B800451B88828983E02274F612181474FE1250
:1044C80017A4740C1217F0124517E885188285197D
:1044D80083F074011217F0E9F0E4F508F50978089B
:1044E800121A277508027808121A2774041217FA84
:1044F800880889097808121A2779FE1208AB740609
:104508001217BA74021217BA023EC88E828F83122B
:10451800451B22E0F8A3E0F92274F7121814EAFE0A
:10452800EBFF890890030612437D1211A5EA540295
:10453800600BA908EEFAEFFB120731800279017FC0
:10454800010218E674F212181474FE1217A4EAFE97
:10455800EBFF890A7401650A60147402650A600336
:104568000245FB7901120ACDE960030245FBEEFA28
:10457800EFFB12088DEA4B6003120893A818A919DB
:10458800880889097808121A2775080275090078B9
:1045980008121A277508D97509817808121A277C14
:1045A800FF7DFF7A017B0012073774061217BA8065
:1045B80038850882850983A3A3A3A3A3A31246056C
:1045C800EEFAEFFB12118DE4F50CF50D780C121ACA
:1045D8002774021217F0121A3E7CFF7DFFAA08AB5F
:1045E8000912074374041217BA8A088B09E50845AB
:1045F8000970BE74021217BA7F060218E612384F05
:1046080012460C22E0FCA3E0FD2274F41218148A6E
:10461800088B09ECFEEDFF90161AE0F4604B7A095E
:104628007B001212DDEA4B60408A828B8374B1F002
:10463800A3E4124674F08A828B83A3A3E508F0A34F
:10464800E509124674A3EEF0A3EFF0740C1217F00C
:104658001245178A828B83A3A3A3A3A3A3A3123A09
:104668004090161AE0F91212E902297BF08A828B2F
:1046780083A3A3A3A32274EE12181474FA1217A426
:104688008A0A8B0BE9FF8C088D097E00850A0C8548
:104698000B0D780C121A6B0004105A49C646E946ED
:1046A80008472B474E477147A247C547DC470C4888
:1046B800BB48DE4801492F495A495A4935487401CF
:1046C8006F7019850882850983E0C39403500D85AE
:1046D8000882850983E0901706F080027E18024957
:1046E8008274026F7015850882850983E0F8A3E05B
:1046F800F9901707E8F0A3E9F080027E18024982D2
:1047080074016F7019850882850983E0C39402508B
:104718000D850882850983E0900749F080027E189C
:1047280002498274016F7019850882850983E0C384
:104738009405500D850882850983E090074AF0802A
:10474800027E1802498274016F70198508828509F2
:1047580083E0C39402500D850882850983E09007A1
:104768004BF080027E1802498274106F7027750C16
:1047780010750D00780C121A27AC08AD097A4C7B1D
:10478800071212B974021217BA8A0C8B0D850C82A3
:10479800850D8380027E1802498274016F70198525
:1047A8000882850983E0C39402500D850882850933
:1047B80083E090075CF080027E1802498274016FE2
:1047C800700D850882850983E090170AF080027EC3
:1047D8001802498274046F702690819E780C121614
:1047E80068850882850983780C1214FA50118508A7
:1047F8008285098312169290075E12169E80027EA9
:1048080018024982EF70211206D7E970131211338A
:10481800E9F50D7950121409E9F50C121121800AF5
:104828009007F17401F080027E1802498274076FC4
:10483800707C750E06750F00780E121A278508828F
:10484800850983A3AC82AD8374021218021212BFC9
:1048580074021217BA8A108B1185100E85110F7CFD
:10486800007D00AA18AB19850882850983E0F91232
:1048780010C7E9F50CE50CC3940A502E1206D7E9C7
:104888007015A90C121139E9F50E7950121409E9BD
:10489800F50D1211218019A80C790074F228F582FF
:1048A800740739F5837401F080067E0280027E1851
:1048B80002498274016F7019850882850983E0C3F3
:1048C8009402500D850882850983E090075DF08089
:1048D800027E1802498274016F7019850882850961
:1048E80083E0C3940A500D850882850983E09017F8
:1048F80009F080027E1802498274016F70258508CC
:1049080082850983E0C39407401985088285098355
:10491800E0C39411500D850882850983E090170B38
:10492800F080577E18805374016F70229007F0E072
:10493800F50C850882850983E09007F0F0E50C7096
:10494800399007F0E064017031121121802C7E1833
:104958008028C3E50A9427E50B9400501B74026F66
:104968007016850882850983E0FCA3E0FDAA0AABDE
:104978000B120557E9FE80027E02EEF97406121743
:10498800BA7F0A0218E674EC12181474DA1217A423
:10499800890D8A128B138C0A8D0B743A1217F0E06A
:1049A800F50C908132AC18AD1974061216B7AC1814
:1049B800AD19AA12AB13A90D1210C7E9FEEEC394E4
:1049C8000A4003024B02EEF9121103E9FF901706A1
:1049D800E064027004740180027400F5087808121B
:1049E8001A2BAD0CEFFCEEF9AA0AAB0B1211757479
:1049F800011217BA7C147D00790074121218021281
:104A080012D18A0E8B0F850E08850F0974121218A1
:104A18000A7A1075F006EEA42424F9121403E9703A
:104A28003C7C1079FF7412121802121331E9702DB0
:104A380074221217F0AC82AD837A0475F006EEA4E6
:104A48002425F9121403E9F508741212180AEFA2C2
:104A5800E0E433F9AA0AAB0B1205E1E9F87406128F
:104A6800180A7A0C74702EF9121403E97079740616
:104A78001218021210F7750E00E50EC39404506761
:104A8800A80E7900E875F003A4C8AAF075F000A490
:104A98002AFA75F003E9A42AF974061217F0E582D8
:104AA80028F508E58339F509850882850983E0F842
:104AB800A3E0F9E849602C850882850983A3A3E06F
:104AC800F5107511007810121A2785088285098358
:104AD800E0FCA3E0FDAA0AAB0B1208B1740212179E
:104AE800BAE9F8050E8092EFA2E1500E900748E06F
:104AF800F9AA0AAB0B1208B7E9F87404650C700F31
:104B0800901706E064027007AA0AAB0B12116F79BE
:104B18000074261217BA7F0C0218E674F7121814DC
:104B2800EAFEEBFF1206D7E970679007F1E064012F
:104B3800701B121133E9F5089007F17400F07C0A34
:104B48007D0079007AF27B071212D180397508004E
:104B5800E508C3940A502FA808790074F228F58252
:104B6800740739F583E064017018A908121139E94E
:104B7800FAA808790074F228F582740739F5837465
:104B880000F0050880CA7950121409E9F5081211D5
:104B9800217F010218E674F2121814890BEAFEEB61
:104BA800FF8C088D09750A0AE50B600C146009145E
:104BB8006044146064024C43EEFAEFFB121115E9ED
:104BC800F50AE50AC3940A5072E5084509606C7550
:104BD8000C06750D00780C121A27EEFCEFFDAA08DA
:104BE800AB091212B974021217BA8A0C8B0D850C14
:104BF80082850D838045EEFAEFFB12110FE9F50A65
:104C0800E50AC3940A5034E5084509602EAA08ABA2
:104C180009A90A121109E98022EEFAEFFB12111B09
:104C2800E9F50AE50AC3940A5011E5084509600B3D
:104C3800AA08AB09A90A121109E9F8A90A7F06020C
:104C480018E674F21218148A0C8B0DE9FF7E15749D
:104C5800FF650C700474FF650D702A750800E5087F
:104C6800C3940A5014EFFC7A027B00A9081210E5DD
:104C7800E960027E00050880E5EF60627A5D7B11DD
:104C8800120AF18059AA0CAB0D120AC18A0A8B0BC1
:104C9800850A08850B09E508450960407C007D0008
:104CA800E5082405FAE43509FB850882850983A30C
:104CB800A3A3A3E0F91210C7E9F50AE50AC3940A09
:104CC800500EEFFC7A027B00A90A1210E5E97E007B
:104CD800EF600BAA08AB0912115D80027E14EEF991
:104CE8007F060218E674EE1218148A0E8B0F8C0ACF
:104CF8008D0B74121217F0E0F50CA3E0F50D750892
:104D08001574FF650E700474FF650F701E7E00EE4B
:104D1800C3940A5061AC0CAD0DAA0AAB0BEEF912A4
:104D280010EBE960037508000E80E4AA0EAB0F12C1
:104D38000AC18A108B11AE10AF11EE4F60357C009E
:104D48007D00EE2405FAE43FFB8E828F83A3A3A3A4
:104D5800A3E0F91210C7E9F509E509C3940A50164A
:104D6800AC0CAD0DAA0AAB0BA9091210EBE975083A
:104D7800008003750814A9087F0A0218E674F71260
:104D88001814EAFEEBFF900762EEF0A3EFF090072D
:104D980048E0FC7D007A267B00120557E9F508906B
:104DA8000748E0F912081B7F010218E674F0121890
:104DB8001474EC1217A48A0C8B0D850C82850D8354
:104DC800A3A3E024FA700302522D24FD70030250BD
:104DD800A2147003024EA414601024FD7003025044
:104DE8004A1470030250E1025240AE0CAF0D900716
:104DF80062E0F8A3E0F9E8496066900762E0F8A38A
:104E0800E0F5838882E0F8A3E0F9E8496052EE24EF
:104E18000CF582E43FF583E0F5087808121A2BEECA
:104E2800240BF582E43FF583E0F98E828F83A3A3F8
:104E3800A3A3A3A3A3A3A3E0FCA3E0FDEE2403FA8A
:104E4800E43FFB900762E0F8A3E0F5838882E0F88E
:104E5800A3E0F583888212181274011217BA8039F8
:104E68008E828F83A3A3A3A3A3A3A3A3A3121A3EF3
:104E780090075E1216861205F374021217BAE960DB
:104E88001879018E828F83A3A3A3A3A3A3A3A3A3AB
:104E9800E0FAA3E0FB1205EDE9025240AE0CAF0DBB
:104EA8007508008E828F83A3E06003024FCC8E8248
:104EB8008F83A3A3A3A3A3E0A2E04003024FCC9057
:104EC80007FCE0F8A3E0F9E8496003024FCC7C0E48
:104ED8007D007900AA18AB191212D18A0A8B0BAA85
:104EE8000AAB0BEE240CF582E43FF583E0F8A3E06F
:104EF800F9E8496036750A06750B00780A121A2710
:104F0800EE240CF582E43FF583E02410FCA3E034A2
:104F180000FD74021218021212B974021217BA8A2A
:104F28000A8B0B850A82850B83804F8E828F83A321
:104F3800A3A3E0FAA3E0FB120AC18A0E8B0F850E29
:104F48000A850F0BE50A450B602D750E06750F00D7
:104F5800780E121A27E50A2405FCE4350BFD7402C5
:104F68001218021212B974021217BA8A0E8B0F8520
:104F78000E82850F8380030252408E828F83A3A303
:104F8800A3A3A3E0A2E25004D2F08002C2F0A2F0F0
:104F9800E433F87900740C1217F0E048F0A3E04904
:104FA800F0EEFCEFFDAA18AB191210FDE970127AA9
:104FB800027B00900748E0F912130DE979000252CC
:104FC80042750815900762E0F8A3E0F9E849606FB8
:104FD800900762E0F8A3E0F5838882A3A3E0F8A332
:104FE800E0F9E84960598E828F83A3E0FC79018E4D
:104FF800828F83A3A3A3E0FAA3E0FB900762E0F803
:10500800A3E0F5838882A3A3E0F8A3E0F583888270
:10501800121812E5086028AC0879038E828F83A3E2
:10502800A3A3E0FAA3E0FB900762E0F8A3E0F5830E
:105038008882A3A3E0F8A3E0F583888212181202FD
:105048005240AE0CAF0D900762E0F8A3E0F9E849D2
:105058006045900762E0F8A3E0F5838882A3A3E0A7
:10506800F8A3E0F9E849602F850C82850D83A3E059
:10507800FC79028E828F83A3A3A3E0FAA3E0FB90BE
:105088000762E0F8A3E0F5838882A3A3E0F8A3E031
:10509800F5838882121812025240AE0CAF0D7C00C4
:1050A8007D00EE2404FAE43FFB8E828F83A3A3A342
:1050B800E0F91210C7E9F508E508C3940A5017EE9D
:1050C800240AFCE43FFD7A0475F006E508A42425CB
:1050D800F91213FDE9F8025240AE0CAF0D90075DCE
:1050E800E06019901709E0F98E828F83A3A3A3E0EB
:1050F800FAA3E0FB1205EDE9F8025240901706E02A
:10510800701679058E828F83A3A3A3E0FAA3E0FB30
:105118001205EDE9F80252408E828F83A3A3A3E023
:10512800FAA3E0FB120AC18A0A8B0B850A08850BD1
:1051380009E508450970030252408E828F83A3A3B4
:10514800A3A3A3A3A3E0A2E0506D850882850983E9
:10515800A3A3A3A3E060608E828F83A3A3A3A3A3CA
:10516800A3A3A3A3E0F50AA3E0F50B7409780A1238
:105178001782E50A5401F8E50B5400F9E8A2E0406B
:1051880036740E12180AE5082405FAE43509FB8579
:105198000882850983A3A3A3A3E0F91210C7E970C5
:1051A8001679038E828F83A3A3A3E0FAA3E0FB12F0
:1051B80005EDE9F8025240EE2405FCE43FFD8508C0
:1051C80082850983A3A3A3A3E0F98E828F83A3A377
:1051D800A3E0FAA3E0FB121169900762E0F8A3E0EC
:1051E800F9E8496053900762E0F8A3E0F583888204
:1051F800A3A3E0F8A3E0F9E849603D7C0079008EBC
:10520800828F83A3A3A3E0FAA3E0FB900762E0F8F0
:10521800A3E0F5838882A3A3E0F8A3E0F58388825E
:105228001218128013AE0CAF0D8E828F83A3A3A326
:10523800E0FAA3E0FB1210C1790174141217BA7FC7
:10524800080218E674F512181474F21217A48909E2
:10525800EAFEEBFF8C0AAC18AD197A0E75F006E57C
:1052680009A42420F9121403E9705F7C0679FFAAC7
:1052780018AB19121331E97051740C1217F0E0F8D9
:10528800A3E0F9E8F508E50A6005EE42088004EEB7
:10529800F45208A8087900740C1217F0E06870033B
:1052A800A3E0696021A8087900740C1217F0E8F0EF
:1052B800A3E9F0AC18AD197A0E75F006E509A42437
:1052C80020F91213FDE9790180027900740E121792
:1052D800BA7F030218E674F012181474E61217A4C1
:1052E800890B8A0C8B0DECFEEDFF740C12180A7AF0
:1052F8000E75F006E50BA42420F9121403E96003E7
:1053080002540E7C0679FF740C121802121331E94C
:10531800600302540EAC18AD197A0C7470250BF9A1
:10532800121403E9600302540A750A00AA18AB199B
:105338001210F7E50C450D702E7C0C7900AA18ABFD
:1053480019121331E960030253F07C0C7D007900D7
:10535800AA18AB191212D18A088B09850882850907
:1053680083750A010253F0AC18AD19AA0CAB0D12E3
:1053780010F18A0E8B0F850E08850F09E50845097F
:105388007030EE4F601BAC18AD197A007B0012101C
:10539800F18A0E8B0FA80EA90F88088909E84970B1
:1053A8000479008063850882850983E50CF0A3E50C
:1053B8000DF0850882850983A3A3E0F87900EE68DB
:1053C8007002EF696022EEC0E0850882850983A338
:1053D800A3D0E0F0EE4F700D850882850983740034
:1053E800F0A37400F0750A01E50A6016AA18AB1953
:1053F8001210F7AC18AD197A0C7470250BF912134A
:10540800FDE9790180027900741A1217BA7F08023F
:1054180018E674F61218148A088B097E00EEC394F5
:10542800045050EEF87900E875F003A4C8AAF075A6
:10543800F000A42AFA75F003E9A42AF9EC28F58209
:10544800ED39F583E065087004A3E065097021EE85
:10545800F87900E875F003A4C8AAF075F000A42A4A
:10546800FA75F003E9A42AF9EC28FAED39FB80076C
:105478000E80AA7A007B007F020218E674F71218E1
:10548800147C00ECC394044003025533ECF8790013
:10549800E875F003A4C8ADF075F000A42DFD75F013
:1054A80003E9A42DF9EA28F582EB39F583E0F4FE47
:1054B800A3E0F4FFECF87900E875F003A4C8ADF0B8
:1054C80075F000A42DFD75F003E9A42DF9EA28F57F
:1054D80082EB39F583EEF0A3EFF0ECF87900E8758C
:1054E800F003A4C8ADF075F000A42DFD75F003E934
:1054F800A42DF9EA28F582EB39F583A3A3E0F4C0DB
:10550800E0ECF87900E875F003A4C8ADF075F00098
:10551800A42DFD75F003E9A42DF9EA28F582EB39ED
:10552800F583A3A3D0E0F00C02548B7F010218E6A8
:1055380074F012181474F41217A4EAFEEBFF8C0826
:105548008D099007FCE0F8A3E0F9E849702CEE4FCC
:105558006006E5084509700579010257E4EEFAEF9F
:10556800FB121115E990170CF090170CE0C3940A80
:105578004008121127E990170CF090170CE0C3941B
:105588000A40030257E29007FCE0F8A3E0F9E84973
:10559800600302562EEEFCEFFD7A0E75F0069017AA
:1055A8000CE0A42420F91213FDE9F50C7C0C7D0015
:1055B80079FFAA18AB191212D18A0E8B0F850E0A21
:1055C800850F0BAC18AD197A0C90170CE02470F904
:1055D8001213FDE9F50D750E0E750F00780E121AEF
:1055E80027EEFCEFFD90170CE0F87900E875F00E57
:1055F800A4C8AAF075F000A42AFA75F00EE9A42A46
:10560800F9746428FA740739FB1212B97402121774
:10561800BA8A0E8B0FA80EA90F9007FCE508F0A315
:10562800E509F00257DE9007FCE0F8A3E0C824067D
:10563800F582C83400F583E0F8A3E0F9E84960434F
:105648009007FCE0F8A3E0C82406F582C83400F50A
:1056580083E0FCA3E0FD7A1B75F00690170CE0A42C
:105668002421F91213FDE9F89007FCE0F9A3E0C939
:105678002406F582C93400F5837400F0A37400F0A1
:105688000257DE9007FCE0F8A3E0C8240AF582C8B8
:105698003400F583E0F8A3E0F9E84960439007FC9B
:1056A800E0F8A3E0C8240AF582C83400F583E0FCDA
:1056B800A3E0FD7A1B75F00690170CE0A42422F9EC
:1056C8001213FDE9F89007FCE0F9A3E0C9240AF5F4
:1056D80082C93400F5837400F0A37400F00257DE29
:1056E8009007FCE0F8A3E0C8240CF582C83400F564
:1056F80083E0F8A3E0F9E84960439007FCE0F8A3E9
:10570800E0C8240CF582C83400F583E0FCA3E0FD72
:105718007A1075F00690170CE0A42423F91213FDF3
:10572800E9F89007FCE0F9A3E0C9240CF582C93434
:1057380000F5837400F0A37400F00257DE9007FCB4
:10574800E0F8A3E0C82408F582C83400F583E0F83F
:10575800A3E0F9E849606F9007FCE0F8A3E0C824EB
:1057680008F582C83400F583E0FCA3E0FD7A1075E3
:10577800F00690170CE0A42424F91213FDE9F50AA9
:105788009007FCE0F8A3E0C82408F582C83400F5C7
:1057980083E02410FCA3E03400FD7A0475F0069041
:1057A800170CE0A42425F91213FDE9F89007FCE092
:1057B800F9A3E0C92408F582C93400F5837400F020
:1057C800A37400F080109007F0E0600312117B12C0
:1057D800116379018006790080027901740C12172F
:1057E800BA7F080218E674F712181474F21217A494
:1057F800E9FEAC18AD197A0E75F006EEA42420F96E
:10580800121403E9700E740C1217F0E0F8A3E0F913
:10581800E8F980027900740E1217BA7F010218E6BF
:1058280074F412181474F21217A48909EAFEEBFF33
:10583800E509C3940A5004EE4F700479028041AC24
:1058480018AD197A0E75F006E509A42420F912148A
:1058580003E9F508E5087026750A06750B00780A4D
:10586800121A27740212180AEEFAEFFB1212B97410
:10587800021217BA8A0A8B0B850A82850B83A9083C
:10588800740E1217BA7F040218E674F4121814EA98
:10589800FEEBFF750800E508C3940A5043750A0635
:1058A800750B00780A121A27EEFCEFFDA80879009C
:1058B800E875F00EA4C8AAF075F000A42AFA75F0ED
:1058C8000EE9A42AF9746A28FA740739FB1212CB74
:1058D80074021217BAE96004A9088006050880B6A0
:1058E800790A7F040218E674F4121814EAFEEBFF32
:1058F800750800E508C3940A5043750A06750B003D
:10590800780A121A27EEFCEFFDA8087900E875F06E
:105918000EA4C8AAF075F000A42AFA75F00EE9A43E
:105928002AF9746428FA740739FB1212CB7402122C
:1059380017BAE96004A9088006050880B6790A7FC5
:10594800040218E674F712181474F01217A4EAFE89
:10595800EBFF750800E508C3940A5039AC18AD1977
:105968007A1075F006E508A42423F9121403E970E7
:10597800207C1079FFAA18AB19121331E97012EEC6
:10598800FCEFFDAA18AB191205BDE97004A908803F
:1059980006050880C0790A74101217BA7F01021828
:1059A800E674F4121814750800E508C3940A400355
:1059B800025A83A8087900E875F00EA4C8AAF07501
:1059C800F000A42AFA75F00EE9A42AF9746428FCF8
:1059D800740739FD7A0E75F006E508A42420F9123B
:1059E8001403E97003025A7E7C067D0079FFAA0839
:1059F8007B00EA75F00EA4CAA8F075F000A428F898
:105A080075F00EEBA428FB74642AFA74073BFB12AA
:105A180012D18A0A8B0BAE0AAF0B7C067D0079FF88
:105A2800AA087B00EA75F00EA4CAA8F075F000A4D5
:105A380028F875F00EEBA428FB746A2AFA74073B61
:105A4800FB1212D18A0A8B0BAC0AAD0BA80879009D
:105A5800E875F00EA4C8AAF075F000A42AFA75F04B
:105A68000EE9A42AF9747028F582740739F583744D
:105A780000F0A37400F005080259B19007F0E06047
:105A88000312117B1211637F040218E674F71218CF
:105A9800147E00EEC3940A50327C0679FFEEFA7B3E
:105AA80000EA75F00EA4CAA8F075F000A428F875ED
:105AB800F00EEBA428FB74642AFA74073BFB12135C
:105AC80031E96004EEF980050E80C8790A7F010289
:105AD80018E674F71218147E007F00EFC3940A507A
:105AE800357C0679FFC9FDC9EFF87900E875F00E35
:105AF800A4C8AAF075F000A42AFA75F00EE9A42A41
:105B0800F9746428FA740739FBCDF9CD121331E919
:105B180070010E0F80C5EEF97F010218E674F712C6
:105B280018147E007F00EFC3940A500DEE700AEF40
