:020000040000FA
:0600000002010702214588
:03002B0002254962
:030053000221BBCC
:10008300021F9BE5C754F84401F5C779012200001C
:100093000080FB120086B900030200F1E4792178A5
:1000A30008B800028004F709D8FCE479297802B87B
:1000B30000028004F709D8FCE4900281788F791359
:1000C3008002F0A3D8FCD9FA7A0F7B159001377818
:1000D300F979038015E493A3AD82AE838A828B837F
:1000E300F0A3AA82AB838D828E83D8E9D9E7758288
:1000F3008075837F74001201197582917583007472
:100103000012011975D00075813F751881751902A8
:10011300759F00020096C09FF59FE473D09F22D085
:1001230083D082C09FE493C0E0740193C0E0740263
:1001330093F59F22FF0000B4000028002800283018
:1001430075A000A000A000A00000080008E001F0D6
:10015300001000100010001000100010005000509C
:1001630000500010001000D0070000000000000F36
:100173000001000500307507001000010081FF0039
:10018300000000FFFFFF51066F0657069306FF02AC
:10019300020208025000A0000000E80302CF810120
:1001A3000000C18102D3810100006A1502D98101D7
:1001B3000000BF0202D3810100006B1502DB810145
:1001C3000000D50202D3810100006C1502DD81011C
:1001D3000000D70202D3810100006D1502DF810800
:1001E3000000D80202D3810100006E1502E18101F3
:1001F30000006F15FF0100FF2002CF81010000C442
:100203008102D381010000D31502E38100000000C5
:100213000002E98103000006031700FF0CFF0CFF37
:100223000CFF0CFF0CFF0CFF0CFF0CFF0CFF0CFF73
:100233000CFF0CFF0CA50FB70F9F0F020202020267
:1002430002020202010D000000100102CF81010031
:1002530000C78102D381010000161602F381010059
:1002630000400702D381010000171602F18101004B
:1002730000158102D381010000181602EF810100ED
:1002830000F98002D381010000191602ED810100FB
:1002930000A58002D3810100001A1602EB81010040
:1002A30000818002D3810100001B1602E781010057
:1002B30000B78002D3810100001C1602E581010012
:1002C30000938002D3810100001D1602D781010033
:1002D30000078102D3810100001E16020382010080
:1002E300001F1601E8030577100AFFFFFF00013026
:1002F300750302010600000000000000000000007A
:1003030000000000000000000000000000000000EA
:1003130000FFFF0600800CE80305095465737405AC
:100323001250002003020A000201060302F0FF53E9
:10033300696D706C6520424C452050657269706828
:100343006572616CF513000001140A436861726100
:100353006374657269737469632031000243686171
:100363007261637465726973746963203200084350
:1003730068617261637465726973746963203300C1
:100383001043686172616374657269737469632091
:1003930034000243686172616374657269737469DE
:1003A3006320350002CF81010000CA8102D381019D
:1003B3000000251702F981030000041502D581010D
:1003C3000000261702D381010000371702FB8101C9
:1003D3000000051502D581010000381702D3810101
:1003E3000000491702FD81020000061502D58101B4
:1003F30000004A1702D3810100005B1702FF81004E
:100403000000071502E981030000081502D58101E8
:1004130000005C1702D3810100006D170201820402
:1004230000000A1502D5810100006E17120122593E
:10043300A6031201226CA6031201229DA603120138
:1004430022D7A60312012230A70312012277A703A2
:10045300120122BFA703120122EEA7031201221DDC
:10046300A80312012254A8031201229BA80312011C
:1004730022B4A80312012209A90312012222A9030B
:1004830012012270A903120122AAA903120122A0B8
:10049300CB02120122A3CC02120122DCCC021201F4
:1004A30022FFCC0212012211CD021201224FCD02F2
:1004B300120122CBCD0212012293CE02120122B5E8
:1004C300CE021201224CCF021201229ECF02120150
:1004D30022CFCF02120122DCCF0212012246D00228
:1004E3001201229DD002120122A0D002120122D9B0
:1004F300D002120122DCD002120122E6D002120144
:10050300223AD1021201227BD102120122AED10280
:10051300120122EBD102120122EDD2021201229129
:10052300D302120122FAD30212012238D402120199
:1005330022A89A03120122D09A03120122FD9A03E0
:10054300120122359B03120122939B03120122DF26
:100553009B03120122469C03120122869C03120173
:1005630022C39C03120122F19C031201229B9D03CF
:10057300120122A59D03120122B29D03120122E55D
:100583009D03120122F19D03120122099E03120110
:1005930022139E03120122E0BF03120122EEBF03C6
:1005A30012012206C0031201221DC003120122C23E
:1005B300BA011201226CBB011201227FBC0112019C
:1005C30022FBBC0112012219BE0112012255BE01F8
:1005D300120122F0BE01120122D4BF01120122A096
:1005E300C0011201222EC2011201229FC201120177
:1005F3002259C3011201224BC4011201228BC401EF
:100603001201223FC50112012271C50112012267A5
:10061300C701120122A9C701120122C7C701120192
:10062300222DC801120122FCC801120122C0C901F6
:10063300120122DFCB01120122ECDB02120122D6CE
:10064300DC0212012281DD02120122D2DD0212013B
:100653002282DE02120122F3DE02120122D8DF021D
:100663001201220CE00212012205E10212012242D0
:10067300E1021201221EE2021201225DE2021201D4
:100683002279E202120122F4B60312012278B7039F
:10069300120122A3B703120122BDB803120122A142
:1006A3009E03120122B79E03120122D59E0312015B
:1006B30022E69F03120122F09F031201221BA103D2
:1006C30012012212A2031201227FA2031201227B32
:1006D300E802120122B1E902120122E8E902120141
:1006E300223FEA0212012254EC021201220C96016B
:1006F300120122989601120122FC9701120122088D
:100703009801120122439801120122B298011201A9
:1007130022BB9901120122C49A011201228B9B016F
:10072300120122E89C01120122069D0112012223DB
:100733009D01120122D09D011201224D9E01120141
:1007430022759E011201223FA10112012244A1013F
:100753001201225DA301120122ABA3011201221B8C
:10076300A40112012259A40112012235A50112018B
:1007730022F5A50112012241A60112012244A6017C
:1007830012012288A601120122D0A6011201220F12
:10079300A70112012231A70112012265A70112014B
:1007A30022C8A7011201221BEE0212012229EE0226
:1007B3001201227CEE021201229BEE02120122E0C0
:1007C300EE0212012224F002120122BFF0021201F2
:1007D3002203F1021201222DF1021201229CF102E5
:1007E300120122E2F10212012259F2021201220A3B
:1007F300F3021201227C25001201228C2500120132
:10080300222D2600120122892600120122462700EA
:10081300120122622800120122942800120122C32D
:100823002800120122702A00120122E72C00120173
:1008330022572F00120122493000120122423100B7
:100843001201224933001201223D36001201226CAB
:100853003700120122703900120122803A0012017E
:10086300220F3C00120122003D001201224E3D00E6
:10087300120122BD3D00120122E13D00120122328C
:100883003E00120122D34200120122D4430012017E
:100893002235440012012260440012012226450041
:1008A3001201226E9603120122789603120122BDD1
:1008B3009603120122D196031201226197031201BA
:1008C300229A9703120122D59703120122FE97035E
:1008D30012012252980312012267980312012289FE
:1008E30098031201229E9803120122B29803120167
:1008F30022C798031201220199031201222D9903A1
:10090300120122769903120122E899031201222B84
:100913009A03120122559A03120122809A031201AB
:1009230022CCBE031201221CA402120122FFA40244
:100933001201227AA502120122B5A5021201220692
:10094300A70212012294A70212012226AA0212016F
:1009530022D8AA02120122E4AB0212012257AD02ED
:10096300120122B0AD02120122DC8D031201221FFB
:100973008E03120122A38E031201227A9103120124
:100983002288B2031201223AB30312012236B403BE
:1009930012012275B403120122CFB403120122EC17
:1009A300B8031201224FB903120122ECB903120159
:1009B3002221BA0312012251BA031201228CBA0373
:1009C300120122ACBA031201220080031201228C0D
:1009D30080031201224B810312012263820312015D
:1009E300227D8403120122888D02120122AD8D0221
:1009F3001201227A8E021201224E8F02120122BBB1
:100A03008F02120122FB8F02120122979002120120
:100A130022CB9102120122A6920212012205930215
:100A2300120122919302120122FF93021201228BDF
:100A33009402120122D1940212012243950212015F
:100A430022D595021201227696021201229696026F
:100A5300120122DE9602120122279702120122437B
:100A63009702120122699702120122E397021201EF
:100A730022F19702120122809802120122E99802C0
:100A8300120122B484031201223985031201227B4D
:100A930085031201225F8603120122CC8603120111
:100AA3002210870312012254870312012281870334
:100AB300120122A98703120122E187031201221FD7
:100AC3008803120122468803120122C088031201FF
:100AD300220A8903120122ECCB011201228BCD01E0
:100AE300120122C3CF0112012217D00112012242A7
:100AF300D0011201221ED1011201224ED101120195
:100B0300227DD10112012290D101120122D1D10102
:100B1300120122FED1011201224CD20112012288BC
:100B2300D201120122CDD2011201221AD3011201E4
:100B33002294D301120122D5D501120122BFD7017C
:100B4300120122FBD7011201228AD901120122CFFD
:100B5300D90112012242DA0112012297DA011201AC
:100B6300229CDA0112012226DB0112012245DC015B
:100B730012012256DC0112012201C2021201227A61
:100B8300C20212012234C8021201223FC902120119
:100B930022E8CA0212012276CB021201224063002C
:100BA300120122C16300120122EE630012012237F7
:100BB30064001201223865001201229165001201BE
:100BC300220D67001201228F6700120122AA67001B
:100BD3001201221B6800120122D868001201229B15
:100BE3006900120122296A00120122E06A0012013F
:100BF30022F36A001201228C6B00120122236C0083
:100C03001201224A6C00120122B36C00120122FD70
:100C13006C001201224B6D00120122F06D001201D3
:100C2300228E6E001201221B6F001201228C6F00B4
:100C3300120122D36F001201222B70001201225DD8
:100C430070001201221771001201221E720012019C
:100C530022677200120122847200120122A3720021
:100C6300120122D673001201228D7400120122B2E6
:100C73007400120122C77400120122377500120199
:100C8300227875001201229C76001201221D770042
:100C930012012241B8021201228CB80212012298D9
:100CA300B8021201226CB90212012283B9021201A5
:100CB30022C0B902120122F1B90212012229BA0299
:100CC3001201227FBA0212012295BA02120122D125
:100CD300BA02120122E4BA021201220BBB02120170
:100CE300223FBB0212012265BC02120122AFBD02E8
:100CF300120122ABBE02120122C8BF02120122F36B
:100D03007F0012012279DC01120122B4DC011201FD
:100D13002206E00112012262E10112012221E20115
:100D230012012288E50112012272E601120122BE9C
:100D3300E601120122D8E60112012215E701120190
:100D43002220E7011201225FE70112012268E70175
:100D530012012212E801120122E9E8011201223DE7
:100D6300E9011201229AE9011201220CEA0112019E
:100D730022A0A801120122FFAB0112012205AC013E
:100D830012012236B3011201223DB701120122E101
:100D9300FC02120122BEFD0212012202FE02120116
:100DA300223CFE02120122D4FE0212012243FF0260
:100DB3001201224CFF0212012258FF021201227279
:100DC300FF021201229CFF02120122CCFF02120138
:100DD300222C92031201223992031201225392030D
:100DE300120122869203120122C4920312012229C4
:100DF30093031201223E930312012249930312012A
:100E0300225693031201226D93031201227B930353
:100E1300120122869303120122929303120122A14B
:100E23009303120122AC9303120122CF9303120105
:100E3300227394031201228394031201229D9403CB
:100E4300120122BA9403120122D59403120122FA49
:100E530094031201220595031201221A950312012C
:100E6300222E95031201228F9503120122959503D9
:100E73001201229B9503120122A19503120122B9AB
:100E83009503120122EC950312012205800212013F
:100E9300229C800212012234810212012224820246
:100EA3001201225B82021201226E8202120122DCF3
:100EB30082021201227784021201229E840212010D
:100EC30022408502120122758502120122868502C3
:100ED300120122FF8502120122208602120122380A
:100EE30086021201229087021201229989021201BD
:100EF30022E98B02120122EC8C021201223B8D02A9
:100F03001201225BEB0112012258EC011201224370
:100F1300ED011201224DED011201226FED011201CB
:100F2300227BED01120122CDEE01120122FCEE0122
:100F33001201222CF0011201226EF0011201229AF9
:100F4300F10112012270F201120122C2F201120117
:100F53002221F30112012258F30112012293F3011A
:100F63001201222EF70112012247F701120122C9B1
:100F7300F701120122D7F7011201222CF801120105
:100F8300223AF801120122A7F80112012219F901EC
:100F93001201225FF9011201220C99021201222E81
:100FA3009902120122189B02120122BD9E02120114
:100FB3002200A002120122DAA002120122BABA030D
:100FC300120122DFBA0312012250BB031201225382
:100FD30077001201225C770012012265770012016B
:100FE30022967800120122B57A00120122EB7A00D0
:100FF300120122257B001201225B7B001201229544
:101003007B00120122C97B00120122F57B00120131
:10101300223E7C00120122787C00120122C07C0057
:10102300120122167D001201224B7D00120122A61D
:101033007D00120122E07D00120122317E001201A7
:1010430022677E00120122A17E00120122CF7E00C0
:10105300120122F27E00120122ADC003120122D935
:10106300C00312012234C1031201223EC103120143
:10107300224EC1031201221CF30212012243F30286
:101083001201227EF3021201222EC30312012292C5
:101093004500120122A24800120122374A00120120
:1010A30022B24A001201225E4B00120122014C00BF
:1010B300120122994C00120122C84C001201226035
:1010C3005100120122F251001201222E530012018B
:1010D300229853001201224C54001201220257009D
:1010E3001201223C5700120122A6570012012203CB
:1010F3005800120122605800120122BD580012014B
:1011030022A85900120122EE5900120122395A0075
:101113001201225C5A00120122A35B00120122B7C2
:101123005B00120122265D00120122655D0012019F
:1011330022A55D00120122F85D00120122195E0052
:10114300120122575E001201227D6000120122BEAD
:101153006000120122596100120122CB61001201C9
:10116300220C6300120122DAE20212012280E3025E
:10117300120122C5E4021201224EE5021201223BB2
:10118300E6021201227AE602120122E4E6021201C9
:101193002252E702120122F1C30312012217AD0307
:1011A300120122E2AF03120122D6FF0112012258DB
:1011B300C10312012268C1031201227CC10312017F
:1011C30022F8C10312012212AA03120122BAAA03AE
:1011D300120122FCAC03120122F67F00120122DF6E
:1011E300C303120122AABD03120122DBBD031201B4
:1011F3002205BE0312012263BE031201225ED40242
:1012030012012273D402120122CFD4021201223A14
:10121300D50212012282D502120122F4D502120153
:10122300221DD6021201222BD6021201228DD602D2
:10123300120122CBD602120122E6D602120122812A
:10124300D7021201222AD802120122ADD8021201BA
:1012530022E6D80212012271D902120122C8D90250
:1012630012012226DA0212012238DA021201225E68
:10127300DA0212012267DA02120122B8DB0212013A
:1012830022FAB40312012261B5031201221EB6032E
:101293001201229CB60312012289A203120122BC6D
:1012A300A203120122EEA30312012232A4031201AC
:1012B300220EA50312012270BC031201224EBD03AC
:1012C300120122F0AF0312012235B0031201227B77
:1012D300B00312012244B2031201229EC20312017F
:1012E30022B9C203120122C9C203120122FBC103A4
:1012F30012012259AE0212012235AF021201227CE1
:10130300AF02120122B9AF0212012227B002120169
:101313002281B002120122F1B002120122C1B102F4
:10132300120122B0B20212012227B302120122C318
:10133300B40212012250B502120122C3B5021201F6
:10134300223FB60212012256B6021201227BB702D5
:10135300120122D5B702120122E8F9011201220873
:10136300FA011201220EFB011201225AFB011201A2
:10137300227AFB01120122CDFB011201223AFC0168
:1013830012012280FC01120122E4FC011201220657
:101393008201120122338701120122368A011201CE
:1013A300225F8A01120122888A011201223A8B01EB
:1013B300120122238D011201226E8E011201228756
:1013C3008E01120122BE9301120122F79301120131
:1013D300223B94011201224C95011201224A8903F6
:1013E300120122B58B03120122688C03120122869B
:1013F3008C03120122A88C03120122798D0312019E
:1014030022A78D031201221AF802120122A3F80265
:10141300120122C0F802120122BDF9021201224A6E
:10142300FA0212012275FB0212012290FF0112013E
:1014330022B3C303120122D57F00E066701008A314
:10144300E066700A08A3E066700408A3E06622C39E
:10145300E7960809E7960809E7960809E79622C37D
:10146300E09608A3E09608A3E09608A3E09622C0BE
:1014730008C3E096F50808A3E096420808A3E0969F
:10148300420808A3E09645087001D3D00822080853
:1014930008EAC0E0EBC0E086F0E7A4FA180986F09A
:1014A300E7A42AFA180986F0E7A42AFA180986F0AD
:1014B300E7A42AFA1986F0E7A4FBE5F02AFA19084B
:1014C30086F0E7A42BFBE5F03AFA190886F0E7A4C7
:1014D3002BFBE5F03AFA18180986F0E7A4C5F02BC0
:1014E300FBE43AFA1908E7C5F0C6A426F6E5F03B93
:1014F300FBE43AFA1886F0E7A4F6E5F00826F6E4EA
:101503003B08F6E43A08F6D0E0FBD0E0FA22601696
:10151300080808C6C313C618C613C618C613C618C8
:10152300C613C6D5E0EA2270090808082260161817
:101533001818C6C333C608C633C608C633C608C69A
:1015430033C6D5E0EA22E627F60809E637F60809A6
:10155300E637F60809E637F622E026F608A3E03672
:10156300F608A3E036F608A3E036F622E026F008F4
:10157300A3E036F008A3E036F008A3E036F022C378
:10158300E697F60809E697F60809E697F60809E6E6
:1015930097F622C3E096F008A3E096F008A3E0963E
:1015A300F008A3E096F022E056F608A3E056F6080A
:1015B300A3E056F608A3E056F622E056F008A3E0AF
:1015C30056F008A3E056F008A3E056F022E0F60830
:1015D300A3E0F608A3E0F608A3E0F622E6F008A3EA
:1015E300E6F008A3E6F008A3E6F022E0FAA3E0FBA6
:1015F300A3E0FCA3E0FD22E0F8A3E0F9A3E0FAA353
:10160300E0FB22E8F0A3E9F0A3EAF0A3EBF022CA9F
:10161300C0E0E6F0A308DAFAD0E0FA22CAC0E0E0BC
:10162300A3C582CCC582C583CDC583F0A3C582CCB7
:10163300C582C583CDC583DAE6D0E0CA22C3E49868
:10164300F8E499F91216818026C3E49AFAE49BFB25
:10165300E920E7E9121681E498F8E499F922C3E452
:1016630098F8E499F9121681E498F8E499F9C3E437
:101673009AFAE49BFB22EB20E7CFE920E7E0B900ED
:1016830010BB0008E88AF084F8AAF022E4FBC8FA49
:1016930022EB70227B10C833C8C933C9335007C348
:1016A3009AC3DBF280069A50012ADBEAC833F4C8F6
:1016B300C933F4C9FA2275F008E4C833C8C933C979
:1016C30033C99AC99B5004C92AC93BD5F0ECFBC85E
:1016D30033F4C8E4C9FA22600D08C6A2E713C6189A
:1016E300C613C6D5E0F322600C08C6C313C618C6DA
:1016F30013C6D5E0F422700422600D18C6C333C6A6
:1017030008C633C6D5E0F41822251810AF08F5181B
:10171300400C15198008F51840021519D2AF2200A4
:10172300C0D0251810AF08F518500C05198008F51E
:101733001850020519D2AFD0D0222518F58210AF68
:1017430008F518400C15198008F51840021519D230
:10175300AF851983222518F582E43519F5832225EF
:1017630018F8E43519F9222518FAE43519FB22256E
:1017730018FCE43519FD22E4732518C582C0E0E5A1
:101783001934FFC583C0E0E518C3958224F810AF70
:10179300088583198582188008858319858218D264
:1017A300AFCEF0A3E520F0A37808E608F0A3DEFAB5
:1017B300EFF0A3E58124FAF8E608F0A3E608F0A326
:1017C300E608F0A30808E608F0A3E608F0A31581ED
:1017D3001581D0E0FED0E0F8158115811581E8C0B0
:1017E300E0EEC0E0222518C582C0E0E51934FFC54C
:1017F30083C0E0E518C3958224F910AF08858319E7
:101803008582188008858319858218D2AFCEF0A30C
:10181300E520F0A37808E608F0A3DEFAEFF0A3E5ED
:101823008124FBF8E608F0A3E608F0A30808E6081D
:10183300F0A3E608F0A315811581D0E0FED0E0F80F
:1018430015811581E8C0E0EEC0E022851983851873
:1018530082E0A3FEE0A3F5207808E0A3F608DFFA10
:10186300E0A3FFE0A3C0E0E0A3C0E0E0A3C0E0E0AA
:10187300A3C0E0E0A3C0E010AF08858218858319F8
:101883008008858218858319D2AFD083D082020164
:101893001F851983851882E0A3FEE0A3F52078084D
:1018A300E0A3F608DFFAE0A3FFE0A3C0E0E0A3C0F3
:1018B300E0E0A3C0E0E0A3C0E010AF088582188594
:1018C30083198008858218858319D2AFD083D0828B
:1018D30022C0D02518C582C0E0E51934FFC583C0F6
:1018E300E0E518C3958224F310AF08858319858238
:1018F300188008858319858218D2AFC8F0A3E9F050
:10190300A3EAF0A3EBF0A37908E709F0A3D8FAEC74
:10191300F0A3EDF0A3EEF0A3EFF0A3D0E0F0A3D09B
:10192300E0F0A3D0E0F0A3E520F0A3E5F0F0A322DC
:10193300851983851882E0C0E0A3E0F9A3E0FAA348
:10194300E0FBA37808E0F608A3DFFAE0FCA3E0FDE0
:10195300A3E0FEA3E0FFA3E0C0E0A3E0C0E0A3E0B8
:10196300F5D0A3E0F520A3E0A3F5F010AF0885833D
:10197300198582188008858319858218D2AFD08291
:10198300D083D0E0F8D0E032740480067402800281
:101993007401C0E0F40412173DD0E0121612227451
:1019A30004800474028000CCC0E0EDC0E0E518C3FD
:1019B3009CCCAD1950011D10AF068C188D198006F3
:1019C3008C188D19D2AF12161FD0E0FDD0E0FC2287
:1019D300D083D082E9C0E0E493A3C386F0C5F09539
:1019E300F0F908E493A386F0C5F095F0700BE49347
:1019F300A3C3994005E9048002A3E475F002A4257A
:101A030082F582E5F03583F583D0E0F9E493A3C052
:101A1300E0E493C0E022D083D082ECC0E0EDC0E0EC
:101A2300E493A3FCE493A3FDED4C600D121A65EC63
:101A330024FFFCED34FFFD80EFE493A3FCE493A3C8
:101A4300FDED4C600D121AA4EC24FFFCED34FFFDF8
:101A530080EFD0E0FDD0E0FCE493A3C0E0E493C0CA
:101A6300E022C0E0C3E49396087401939618400FF4
:101A7300E49366700808740193661870007019A3E4
:101A8300A3C3E49396087401939618A3A3400DD0BF
:101A9300E0D0E0D0E0021A55A3A3A3A3A3A3D0E010
:101AA30022C0E0C0F088F0E49366700808740193E4
:101AB30066187000A8F0A3A3700BD0F0D0E0D0E0BC
:0C1AC300D0E0021A55A3A3D0F0D0E0221E
:101AD00074F61217E8EAFEEBFF8C088D09EE243449
:101AE000F8E43FF9E8FCE9FDEE2435121DE3FAEED7
:101AF0002437121DE3F88508F0A4C885F00A85098B
:101B0000F0A4250AF9EA28F8E439F97A257B0012CD
:101B10001681EA8C828D83F0FA131313541FF8EEAA
:101B200028F8E43FF9E8245DF582E439F583E0C064
:101B3000E074075AF8D0E0B800028004C313D8FC60
:101B4000A2E0EE50082434F582E43F8018243612D7
:101B50001DE3F5F0EA84A8F0EE28F8E43FF9E82464
:101B600038F582E439F583E0F97F0302189474F7BD
:101B70001217E8EAFEEBFFEE2434121DE3C0E0EE9C
:101B80002435F582E43FF583D0E0F08E828F83A385
:101B9000A3A3A3A3A3A3C082C0838E828F83A3A386
:101BA000A3A3A3E0F8A3E0F9D083D082E0C398F523
:101BB00008A3E099F509EE247F121DE36401703E4D
:101BC000EE2480F582E43FF583C082C0838E828F4D
:101BD00083A3A3A3A3A3E0240108A3E03400F9D0C6
:101BE00083D082E0687003A3E06970127CB17D0449
:101BF000120C3FEE247FF582E43FF583E4F0AC085D
:101C0000AD09EEFAEFFB121AD0E9F912253B7F027B
:101C1000021894C082C083851882851983E0F8A3D6
:101C2000E0F9C3EA9CEB9D5010C3EC98ED99401B82
:101C3000C3EA98EB995014800EC3EA98EB994007D9
:101C4000C3EC98ED994004790180027900D083D0EB
:101C50008222EAC39CFAEB9DFB2274EF1217E890F4
:101C60000376E064086005E06407702A9061C8E0CC
:101C700060249003A4E0F4601DE0F875F00BA4C8A4
:101C8000AAF02AF974A628FE740339FF8E828F8386
:101C9000A3A3A3E07003021D68906060E0C0E0EEC3
:101CA0002468F582E43FF583D0E0F0750C21750DD2
:101CB00005750800750900E5D914F50AE5D954033E
:101CC000F50E60127403650E6043E50A600AEE24A7
:101CD00067121DE37002807590051CE06401601FAF
:101CE000121DE060047A0480027A00E50AC39AFAC1
:101CF00095E0FB120AE98A088B09EA45097005128A
:101D00000E6D8064121DE070048A0C8B0DE50A6074
:101D100012850C82850D83F50BE5D9F0A3150BE533
:101D20000B70F6121DE0604474FC250AF50A780C6D
:101D300012198FAC0AA90EEEFAEFFB120CF974021D
:101D4000121722E97026AA08AB09121287793D8E74
:101D5000828F83A3A3A3A3E0FA7B0012094BEEFAC0
:101D6000EFFB120C63120D0B7900806F7403650E8C
:101D70006051850A10751100781012198FAC0CADE6
:101D80000DAA08AB09120CBD7402121722EE2468CA
:101D9000121DE364807004747F8001E0F50C780C00
:101DA000121993E50EF50C780C121993A90AAC08D8
:101DB000AD099003A4E0FA7B001209217402121706
:101DC000228013900376E06408600BAC0CAD0DEE3E
:101DD000FAEFFB120D83120E7979017F0A02189433
:101DE000EE2483F582E43FF583E02274F21217E8D3
:101DF00074FC12170CEAFEEBFF8909A2AFE433F57D
:101E000008C2AF021EB5E0601B780C12198FAC0B34
:101E1000A90EEEFAEFFB120CF374021217227404EF
:101E2000250BF50B7401250BF5D9850ED9E50B6053
:101E300018F50A850C82850D83E0F5D9A385820CFF
:101E400085830D150AE50A70EA75E195EE2463F8BD
:101E5000E43FF97A007B00A2AFE433F50BC2AF8810
:101E6000828983E0FCA3E0FDEC4D603A888289839F
:101E7000E0FAA3E0FB8A828B83E0FCA3E0FD88828A
:101E80008983ECF0A3EDF08A828B83E4F0A3F088E1
:101E9000828983E0FCA3E0FDEC4D700A888289838F
:101EA000A3A3E4F0A3F0E50BA2E092AF1212879097
:101EB00004B8E004F0EE2463121DE3F8A3E0F9E8AF
:101EC000496064EE2463121DE32402F8A3E03400A9
:101ED000F988828983E5822402F50CE43583F50DC7
:101EE000E0F50BA3E0F50EEE2462121DE364017031
:101EF000369061D0E0F8121DE060047C0480027C22
:101F0000007480C398FA95E0FBE50B2CF8E43400EC
:101F1000F9E82402F8500109C3EA98EB99A2D265C6
:101F2000D0334003021E069004B8E0604D9004B91F
:101F3000E0F89004B8E0C398500C74026509703A58
:101F40009004BAE060348E828F83A3A3A3A3E085BC
:101F50001882851983121F8A7402121758E8121FFB
:101F60008A9004B7E028F07402121772AA18AB190D
:101F700079011209759004B8E4F0E508A2E092AF87
:101F800074041217227F07021894F0A3E4F090045F
:101F9000B8E0F8228521878522C622C0E074EB12C2
:101FA00018D4A2AFE433F508C2AF759B00906182EC
:101FB000E0A2E05030E591A2E0502A7591FE740154
:101FC0006521702112212E120DC512211C1219A299
:101FD0001222E57404121722E964017005790112D6
:101FE0000E01121C5A906182E0A2E5505DE591A2BB
:101FF000E550577591DF900376E064076005E06473
:1020000008702F12212E74016521703E120DC51229
:10201000211C1219A21222E57404121722E964018C
:1020200070057901120E017901EEFAEFFB121DEB3A
:102030008018E0640D7013900398E004F064287039
:1020400002E4F07A00E0F9120E7F906182E0A2E6ED
:1020500040030220F1E591A2E640030220F17591D0
:10206000BF900376E064057008120DAD120DB980C3
:1020700003120DB3752100120E0DE9900377F0796C
:1020800000120E01120BAF7A017B00900375E0F98C
:10209000121257907803E064427056900520E014C5
:1020A000F0704EC2AF1220A800782AD0E0F618D007
:1020B000E0F6E59F5407F87005750DFF8003750D78
:1020C0007FC4C0E07829E6F50A08E6550DF50B74E3
:1020D0000B780A1216EAD0E0250AF8906270E0A2A6
:1020E000E740F8E8C333906272F0906270E0D2E0AB
:1020F000F0906181E0A2E35009E5E9A2E3500375A5
:10210000E9F7A3E0A2E75009E591A2E75003759132
:102110007FE508A2E092AF7F080219338E828F8399
:10212000E0F8A3E0C82416F582E438F58322900392
:10213000A4E0F875F00BA4C8AAF02AF974A628FE4A
:10214000740339FF22C0E0C0D0C082C08390618395
:10215000E0A2E05009E5BFA2E0500375BFFEE0A297
:10216000E15009E5BFA2E1500375BFFDE0A2E250D6
:1021700009E5BFA2E2500375BFFBE0A2E35009E509
:10218000BFA2E3500375BFF7E0A2E45009E5BFA288
:10219000E4500375BFEFE0A2E55009E5BFA2E550AA
:1021A0000375BFDFE0A2E65009E5BFA2E650037564
:1021B000BFBFD083D082D0D0D0E032C0E074F21262
:1021C00018D4E5A7A2E6500FE5A1A2E6500953A74F
:1021D000BF75A1BF12220FE5A7A2E5500CE5A1A291
:1021E000E5500653A7DF75A1DFE5A7A2E15009E599
:1021F000A1A2E1500375A1FDE5A7A2E2500CE5A163
:10220000A2E2500653A7FB75A1FB7F0102193374AC
:10221000F71217E8752101900376E0640670151235
:102220000D2F8A828B83A3A3A3A3A3A3E0FAA3E029
:10223000FB120D9BA2AFE433FED2AF90037CE064AF
:102240000170187A207B00900375E0F912137D7AF3
:10225000207B00900375E0F912125D906182E0D25C
:10226000E6F090051DE0602185C622801690037B74
:10227000E064017008E5C654F84405F5C653BEFC99
:10228000121F947401652160E4EEA2E092AF7F0218
:10229000021894008E238F24858228858327851831
:1022A00082851983E0CEA3E0CF852882852783EB42
:1022B000C9EAC8EDCBECCA75F010C3E833C8E933FE
:1022C000C9EA33CAEB33CBC3EA9EF526EB9FF5256B
:1022D000B35004AB25AA26EC33CCED33CDD5F0DAE0
:1022E000AE23AF242274F11217E88A088B098C0AF6
:1022F0008D0B9081B178081215AA740F12175878B7
:102300000C1215D09081B1780C1215AA7808790CAE
:1023100012145290816550107808790C1215827849
:10232000081214724014800E780C79081215827805
:102330000C12147250047901800279007F0802188F
:102340009474ED1217E88A088B098C0A8D0B908122
:10235000B178081215AA7413121758780C1215D0F8
:102360009081B1780C1215AA780C79081214524099
:10237000117808790C121582AA08AB09AC0AAD0BCA
:102380008022751000751100751200751301781008
:10239000790C12158278107908121549AA10AB1120
:1023A000AC12AD137F0C0218949081B1780812150D
:1023B000D08A828B8378081215BD7F04021894742A
:1023C000F51217E88C828D8378081215D08A828BDB
:1023D000837808121596122417C3E09CF0A3E09DA1
:1023E000122409402290818D78081215D08A828BA0
:1023F00083780812156F8A828B83A3A3A3A3E0249A
:1024000020F0A3E0344EF080A0F088828983C3E0FE
:102410009420A3E0944E22EA2404F8E43BF98C8251
:102420008D83A3A3A3A3E0FCA3E0FD88828983227C
:1024300074F51217E8E9FE9004D3E0FAA3E0FBEE8E
:1024400029F8E433F974E928F582748039F583E0DA
:102450002AF508A3E03BF509780812198F90819DB1
:102460001215EE12229474021217228A088B098C1C
:102470000A8D0B74107808121511AA08AB097F0495
:1024800002189474F11217E88A0C8B0D8C0E8D0FC4
:1024900074111217581219A67411121758E024015A
:1024A000F508A3E03400F509E4F50AF50B780C799A
:1024B0000812149190817178081215D0780C79085F
:1024C000121491AA0CAB0DAC0EAD0F122294740233
:1024D0001217228B09EA450960047A0180027A000A
:1024E000EC2AFCE43DFD7413121758E0F8A3E0F960
:1024F000E8FEE9FFECF8EDF97A717B0212168188AB
:10250000088909E4F50AF50B8E828F837808121585
:10251000DFECF8EDF97A717B021216818A088B09DB
:10252000740578081216F98E828F83A3A3A3A3E5FE
:1025300008F0A3E509F07F08021894C082C083E97F
:10254000906000F0D083D08222C0E0C0D0E8C0E02C
:10255000E9C0E0A2AFE433F8D2AFC2C7E8F9E8A21D
:10256000E092AFD0E0F9D0E0F8D0D0D0E032C2AF06
:1025700002000022FFFFFFFFFFFFFFFFC082C083BA
:10258000E99015D2F0D083D08202011F74F61217A1
:102590007CE99002E8F0900348E0F50875090074C2
:1025A0000278081216F9AA08AB091212CF9002E9B4
:1025B000122F3F9002E912332C606F900348E075B0
:1025C000F003A4FAABF01212CF900306122F3F9043
:1025D000030612332C700B9002E91232FD1212D551
:1025E00080489003061242917AFF7BFF1211677AAE
:1025F0000080198A08750900740278081216F91209
:102600003D3974FF12273FE4F0A3F00A900348E03D
:10261000F8EAC39840DD790512080D9002E8E0F968
:102620001206F97A977B08120A89023DDC74F412CB
:10263000177C8A088B09EB548060479002E8E0F928
:1026400012123F8A0A8B0BAE0AAF0BEE4F602A8E36
:10265000828F83E064B0701A12081FE960148E82C2
:102660008F83A3A3A3A3E0F9EE2405FAE43FFB12B2
:1026700007EFEEFAEFFB12122DAA08E5096480FBC2
:1026800080047A007B0002288F74F212177C74FB9E
:1026900012170CEAFEEBFFEE4F6045740312175859
:1026A000EEF0A3EFF0851882851983ECF0A3EDF02E
:1026B0007402121758E9F0AA18AB191206F3E9F5DB
:1026C0000870757413121758E0F50AA3E0F50BE5CE
:1026D0000A450B60638E828F83122CC8EE4F700503
:1026E00075080280537A067B001212CF8A0C8B0D7C
:1026F000A80CA90DE8497005750813803B888289EC
:1027000083E412273FEEF0A3EF12285BE50AF0A363
:10271000E50BF09002EC1228549002EC6017E0FCFC
:10272000A3E08003EAFCEBFD8C828D8312285470B9
:10273000F38C828D83123954A9087405024511F077
:10274000A3124273A32274F212177C8908890C75B4
:102750000D007403780C1216F9850C0A850D0B9088
:1027600002EBF09002E912375F122852602E12122B
:10277000D57900801D890C750D007402780C121635
:10278000F99002E9123BF88882F583A3A3E4F0A351
:10279000F009900348E0F8E9C39840D9900348E075
:1027A000FA850AF0A4CAA8F0850BF0A428FB12123F
:1027B000CF8A0C8B0DAE0CAF0DEE4F700302284884
:1027C000900348E0FC850AF0A4CCA8F0850BF0A4A7
:1027D00028FD790012121B7C0080318D0C750D00D4
:1027E0007403780C1216F98A828B8312284D888222
:1027F0008983E4F012285AA3A3F0A3F00DEDC3954A
:102800000840D8EE250AFEEF350BFF0C900348E098
:10281000F8ECC39850288C0C750D007402780C12DB
:1028200016F99002E912284DE82402500109FAE94C
:10283000FB8A828B83EEF0A3EFF07D0080BFE5087A
:102840009002EBF0790080027913024514123BFCF0
:10285000F922A3A3123301EA4B22A3124273A3A3CA
:10286000A32274F412177C7900EAA2E0501F7508C5
:1028700044750981780812198F79107C047D007ADB
:10288000D47B151208077402121722E9F980007F21
:102890000402184EC082C0839002EC12332C601CDC
:1028A00088828983A3A3E06A7003A3E06B8882898E
:1028B0008370E8A3A3A3A31232FD80047A007B00F7
:1028C00002258574F212177C74FD12170CEAFEEBD8
:1028D000FF851882851983E4F0A3F074021217585B
:1028E0007401F012332970141209C31212CF90022E
:1028F000EF122F3F1233297003022A5512303FEE98
:102900002404F50AE43FF50B850A82F583E024FEF2
:10291000603C24FC607424FE607E24FE7003022967
:10292000A524FE70030229B224FE70030229BF24ED
:10293000FE70030229CC24FE70030229D924FC7006
:10294000030229FA24FE7003022A12022A4E1209F7
:10295000C39002F1EAF0A3EB122A6112043BE96092
:1029600003022A4E9002F11219A68E828F83A3A32E
:10297000A3A3A31242918508828509831232FD1216
:1029800007D77402121722022A4EAC18AD19EEFABC
:10299000EFFB120825022A1DAC18AD19EEFAEFFB69
:1029A00012082B8078AC18AD19EEFAEFFB12083143
:1029B000806BAC18AD19EEFAEFFB120837805EACF5
:1029C00018AD19EEFAEFFB12083D8051AC18AD19A5
:1029D000EEFAEFFB12084380447402121762880C6F
:1029E000890D780C12198F7402121772EEFAEFFB30
:1029F00012084974021217228023AC18AD19EEFA9E
:102A0000EFFB12084FE9F870167402121758E4F041
:102A1000803CAC18AD19EEFAEFFB120855E9F8E866
:102A2000602C8E828F83A3E064146022850A8285E5
:102A30000B83E09002F1F08518828519831232FD34
:102A40009002F2122F3FE8A3122A61120435EEFA27
:102A5000EFFB1207AD7402121758E0F97403024538
:102A600011F07CF17D0285088285098312330122F1
:102A700074E812177C74FA12170C7404121758ECCD
:102A8000F0A3EDF08A128B13EA2405F50EE435135A
:102A9000F50FEA2402F510E43513F511851082F5DF
:102AA000831232FD12052B8A0A8B0B7508007C03FA
:102AB0007D0079007AF17B0212121BE50E2402F5EB
:102AC00016E4350FF5177402121762880C890D7819
:102AD0000C12198F850E82850F83A3A3A3A3E0F5A3
:102AE0000C750D00780C12198FE50E2405F50CE419
:102AF000350FF50D780C12198F8516828517831204
:102B0000360412071174061217228A0C8B0DE50C7D
:102B1000450D7003022C918020851882851983E071
:102B200088828983F00508851882851983A3E0C00F
:102B3000E0122CD2D0E0F00508E50A24FBFAE50B00
:102B400034FFFBC3E5089AE49B4003022C917E000E
:102B50007F00851282851383A3A3A3A3E0F50978E0
:102B600009121993E4F514F515781412198F7514D8
:102B7000EE751502781412198F9002EF1219A674CF
:102B8000091217581219A6E50A24F9F9AC0CAD0D73
:102B90008510828511831232FD12087F7409121785
:102BA00022E96003022C32850E82850F83A3A3A342
:102BB000A3A3A3A3E0F89002EEE0687075E0F5141B
:102BC0008E15781412198F12428E850E82850F830E
:102BD000A3A3A3A3A3A3A3A31232FD1212157402ED
:102BE000121722E9604C9002F212332C703BE4F58C
:102BF00014781412198F7CFF7DFF79078510828568
:102C000011831232FD1207E97402121722123332B5
:102C10007017850E82850F8312442B740412175887
:102C2000123CEC123635022CC5850C82850D8312C0
:102C30002CC8A818A91988148915781412198F742A
:102C4000041217581219A6851682851783122F357C
:102C500012071D74041217228A0C8B0DEE4F70039D
:102C6000022B0E122CD2EE122CDD1235EBEF122CB1
:102C7000DDF8A3E03400F9E50C450D6003022B19E3
:102C80008882898374FFF00508122CD274FFF00546
:102C900008E508601A1313543F122F45120447E940
:102CA00060099002F21232FD1212877900801685B7
:102CB0000E82850F8312442B7404121758123CECB9
:102CC000123954790A0235BEA3A3A3A3E0FEA3E000
:102CD000FF22A8089002F2E0281235EB22F0050846
:102CE000089002F2E0282274E812177C74FA121796
:102CF0000C7402121758122F3F7404121758ECF07C
:102D0000A3EDF07402121758E024051235D4E0F553
:102D10000CA3E0F50D7402121758E02402F510A37D
:102D2000E03400F511851082F5831232FD12052B77
:102D3000750800750900EA24FCFEEB34FFFF8008EB
:102D4000050CE50C7002050DA808C3EE98EF940081
:102D50005003022EF1A818A919880E890F780E12B7
:102D6000198F851482851583A3A3A3A312429512FC
:102D7000198FE5142405F50EE43515F50F780E12BC
:102D8000198F851482851583122F3312071174064B
:102D90001217228A0E8B0FEA450F7003022EF1EAFA
:102DA0002404F516E4350FF517851682F583E0F552
:102DB0000CA3E0F50D8518828519831242918A8251
:102DC0008B83A3A3A3E0F98510828511831232FDC2
:102DD0001206FFE9F5096003022EF174021217587A
:102DE0001235FBF5097809121993E4F512F51378F9
:102DF0001212198F7512EE751302781212198F9034
:102E000002EF1219A674071217581219A6EEF9ACA0
:102E10000EAD0F8510828511831232FD12087F746A
:102E200009121722E9F5096003022EF1E508703F47
:102E3000E4F50EF50F780E12198F7CFF7DFF7909EE
:102E40008510828511831232FD1207E97402121770
:102E500022123621700D7404121758122F2879117E
:102E6000022F259002EEE024029002F2F0801490EE
:102E700002F2E0FA9002EEE0790024025001096AC1
:102E8000497072A8089002EEE0FAE82AFAE43400E9
:102E9000FBEE9AEF9B405A851682851783E0C0E0CF
:102EA0009002F3122CD7D0E0F00508851682851722
:102EB00083A3E0C0E0089002F3122CD7D0E0F00525
:102EC000089002EE12429512198F12428EA8081233
:102ED00035C812120374021217229002EEE0250880
:102EE000F50874FF650C700474FF650D6003022D16
:102EF00040E508601F9002F2E0F5F0E50884122F2B
:102F00004512044DE960099002F31232FD12128756
:102F100079008011E509700375090A7404121758C5
:102F2000122F28A9090235BE123763E50CF0A3E57C
:102F30000DF022A3A3124520AA0CAB0D22A3A3EAF5
:102F4000F0A3EBF0229002F1F07CF17D028510827B
:102F50008511831233012274EC12177C74FC121752
:102F60000C123A6474021217721232F71207178A9F
:102F70000C8B0DEA450D700302302F12303FA8185C
:102F8000A91988108911781012198F7CFF7DFF799B
:102F90000B8508828509831232FD1207E97402123B
:102FA0001722123135700C850A82850B8312363256
:102FB00002303C8E828F83A3A3A3A3E0F512781284
:102FC000121993E4F512F513781212198F7512F194
:102FD000751302781212198F781012198F74091252
:102FE00017581219A67409121758E0F9AC0CAD0D58
:102FF0008508828509831232FD12087F7409121731
:1030000022E9FE70157CF17D028508828509831214
:1030100032FD120453E97009802074166E70027E2E
:10302000009002F21232FD121287EE7004800B7EC5
:1030300001850A82850B83123951EEF9023966EE59
:103040002402F508E43FF5092274EC12177C74FCA5
:1030500012170CEAFEEBFF8C0E8D0FEE2405F5081F
:10306000E43FF509740212177285088285098312FC
:1030700032FD1207178A0C8B0DEA450D70030231E1
:1030800025EE2402F50AE43FF50BA818A9198810CB
:103090008911781012198F7CFF7DFF790D1232F79C
:1030A0001207E97402121722123135700B8508825B
:1030B000850983123632807A8E828F83A3A3A3A3DD
:1030C000E0F5127812121993850882850983A3A36B
:1030D0001219A67512F1751302781212198F781051
:1030E00012198F74091217581219A6740912175859
:1030F000E0F91232F312087F7409121722E9FE7008
:103100000F7CF17D021232F7120459E97009802018
:1031100074166E70027E009002F21232FD12128757
:10312000EE7004800B7E0185088285098312395177
:10313000EEF902396612333CF510A3E0F511EA45C9
:10314000112274E812177C74FE12170C8A168B1762
:103150008C148D15EA2405F50CE43517F50DEA24D9
:1031600002F50EE43517F50F850E82F5831232FD58
:1031700012052B8A088B09750B007C037D007900F2
:103180007AF17B0212121B750A00E50814F510048F
:1031900024FFF508E50934FFF50980549002F1E0B9
:1031A000FA9002EEE0F8EA28F8E43400F9E508982D
:1031B000E50999500D9002F1E0F8E510C3989002EE
:1031C000EEF0E0F512751300781212198F12428E8C
:1031D0009002F2E02AFAA3E03400FB121203740218
:1031E0001217229002EEE0F89002F1E028F0050AB2
:1031F000850C82850D83A3A3123C0840030232D8BC
:103200009002F1E0C39508E4950940030232D8AE7C
:103210000AEE2EFEE433FF123317AC18AD1912423A
:10322000A9E439FB1207178A128B13AC12AD13EC09
:103230004D701B750B011233071239559002F212B3
:1032400028546003121287A90B74020235C0851638
:1032500082851783A3A3A3A3E0F50B780B12199320
:10326000E4F512F513781212198F7512EE75130228
:10327000781212198F9002EF1219A67407121758BC
:103280001219A6A910850E82850F831232FD12082D
:103290007F7409121722E9F50B709B9002F212332A
:1032A0002C600302319CE4F512F513781212198F89
:1032B0007CFF7DFF790F850E82850F831232FD1210
:1032C00007E97402121722123332600302319C1292
:1032D00033071236360232497CF17D02850E828533
:1032E0000F831232FD12045FE9600302323C790061
:1032F000023249AC0CAD0D850A82850B8312330175
:1033000022E0FAA3E0FB22123317E0FAA3E0F9EA85
:1033100085148285158322850C82850D83E02EF825
:10332000A3E03FF988828983229002EF12442FE8BC
:10333000492212333CF8A3E0F9E849229002F2EA6C
:10334000F0A3EBF09002F2E02274E812177C74FA1A
:1033500012170C7404121758122F3F8C168D177405
:1033600004121758E02405F50EA3E03400F50F749D
:1033700004121758E024021235D41232FD12052B24
:103380008A0A8B0B7F007E00A818A9198808890972
:10339000780812198F850E82850F83A3A3A3A3E05B
:1033A000F5088E09780812198FE50E2405F508E452
:1033B000350FF509780812198F850E82850F83A3C2
:1033C000A312360412071174061217228A0C8B0DF1
:1033D00080291235F5F00F1235F5F00F9002EE123C
:1033E000394012198F12428EEFF81235C8121203AB
:1033F00074021217229002EEE02FFFE50C450D70CB
:1034000003023484851882851983123A76A3A3A314
:10341000E0F98514828515831232FD1206FFE9FE5C
:10342000E50C2404F510E4350DF511EE705074042C
:103430001217581235FBF5087808121993E4F508AD
:10344000F509780812198F7508EE750902780812C7
:10345000198F9002EF1219A674071217581219A6A5
:10346000E50A24FAF9AC0CAD0D851482851583129A
:1034700032FD12087F7409121722E9FE60391236F4
:1034800011123954EF70030235AB9002F2E0F5F0FF
:10349000EF849002F1F07CF17D0285148285158322
:1034A0001232FD120465E960099002F31232FD1236
:1034B000128779000235BE8F08EF703BE4F512F5F4
:1034C00013781212198F7CFF7DFF79118514828584
:1034D00015831232FD1207E97402121722123621E7
:1034E00070091236111236350235BE9002EEE02414
:1034F000049002F2F080359002EEE0F89002F2E0E3
:10350000FAE82404FCE43400FDEC6A4D6003023464
:103510008AE50A24FAFAE50B34FFFBE50828F8E40B
:103520003400F9EA98EB99500302348A85108285B9
:103530001183E0C0E09002F3E02FF8A3E0340088AC
:1035400082F583D0E0F00F851082851183A3E0C05F
:10355000E01235E2D0E0F00F740212176288088999
:1035600009780812198F74021217581219A6850EBD
:1035700082850F83122F3312071D74041217228ABB
:103580000C8B0DEA450D70030233D27402121758EA
:10359000E0C0E01235E2D0E0F00F7402121758A339
:1035A000E0C0E01235E2D0E00233DAEE70027E0ACB
:1035B000850E82850F83123617123954EEF9740680
:1035C0001217227F1002184E9002F3E028FAA3E0AF
:1035D0003400FB22F514A3E03400F515851482F5C0
:1035E00083221235E6229002F3E02FFAA3E03400A2
:1035F0008A82F583221235E674FF22123763A3A371
:10360000A3A3E022124520850E82850F8312330189
:103610002285108285118312442F85168285178397
:10362000229002F3EAF0A3EBF09002F312442FE8A9
:10363000492212395AE8F0A3E9F079112274EA120A
:10364000177C74FE12170C8A088B098C128D13EAF2
:103650002405FEE43509FFAC18AD198E828F831264
:1036600032FD1207178A0C8B0DEE2406F50EE43F8F
:10367000F50FEA450D7003023735E5082402F50A17
:10368000E43509F50B8A828B83A3A3A3E0A2E5505E
:10369000288518828519831232FD1208738A108BCF
:1036A00011EA4511602079121232F38510828511DA
:1036B0008312177AE9F50C707F850E82850F83E0FF
:1036C000600979528011750C0E806D85088285091C
:1036D00083A3A3A3A3E0F9E4F508F5097808121978
:1036E0008F8E828F83A3A3E0F508780812198F8E3E
:1036F000828F83A3A3A31219A68E828F8312429175
:103700001232F71208857406121722E9F50C7011AF
:10371000850E82850F83E0702D1232F712046B80C4
:10372000257416650C7011750C0074181217581258
:10373000375FE48010750C011244278512828513CF
:1037400083E8F0A3E9F0850E82850F83E0600479B9
:10375000008002A90C74021217227F0E02184E126A
:10376000376322E0F8A3E0F58388822274EC121715
:103770007C74F712170C8A0A8B0B8C108D11EA24BB
:1037800005FEE4350BFF750C00AC18AD198E828F69
:10379000831232FD1207178A088B09EA4509700364
:1037A00002392BE50A2402F50A5002050B8A828BA6
:1037B00083A3A3A3E0A2E5502F8518828519831265
:1037C00032FD1208738A0C8B0DEA450D604F791299
:1037D000AC08AD091232F7850C82850D8312177A79
:1037E000E9F50C600302392E850A82850B83E0F52A
:1037F00008A3E0F509AA08FB120867EA4B70197ADA
:10380000FF7BFF120867EA4B70030239218A828B23
:1038100083E508F0A3E509F07508008008750C0E33
:1038200002392E05089002EBE0F8E508C398400342
:1038300002392185080E750F007403780E1216F9EF
:103840008A828B83A3A3E0250EF8A3E0350F123CF8
:10385000F570D08E828F83123949122F3F8E828F5E
:1038600083A3A3123949122F3DEE2404F508E43F47
:10387000F509850882F583E088828983A3A3A3A341
:10388000F0A3E4F0EE2405F50EE43FF50F850E827B
:10389000F583123949A3A3A3A3122F3D751207750F
:1038A0001300781212198FEEFCEFFD740412176AE0
:1038B0001212037402121722E4F512781212198FF1
:1038C000850882850983E0FC7D0079171232F712A2
:1038D00007E974021217227407121758122F3F7447
:1038E00007121758E0FA4B603D850882850983125C
:1038F000394012198F850E82850F83124291121260
:1039000003740212172274021217721232F7120491
:1039100071E9602674071217581232FD121287805F
:1039200019750C098008750C118003750C0112447F
:1039300027851082851183123954A90C74098028B7
:10394000E0F508750900780822123301888289831E
:103950002212395AE8F0A3E9F022E0F8A3E0F98551
:103960000E82850F832274041217227F0C02184ED8
:1039700074EC12177C123A64751000EE2402F50CF8
:10398000E43FF50D850C82F5831232FD1208678A3B
:10399000088B09EA45097003023A48850A82850BBB
:1039A00083E064016003023A3DAC08AD09AA0AABAA
:1039B0000B12085BE9606E850882850983122CCAA8
:1039C000EE2406F50AE43FF50B8E828F83A3A31243
:1039D00019A68E828F83A3A3A3A31219A6850A8298
:1039E000850B831219A679188E828F83123A76126C
:1039F00032FD1208857406121722E9F874166870F1
:103A00000B850A82850B83E4F0A38014E860128E94
:103A1000828F831232FD850E82850F83EAF0A3EB3D
:103A2000F088108018780E12198FAC08AD09EEFAE4
:103A3000EFFB1208617402121722E9F510AA08AB15
:103A40000912086DE510700E850C82850D83123207
:103A5000FD1204778009741665107003751000A9B3
:103A60001002396BEAFEEBFF8C0E8D0FEE2405F58C
:103A70000AE43FF50B22124520850C82850D832236
:103A800074EA12177C7508007509007E007F0075C6
:103A90000A00EC2402F510E43DF5118035EC6508D0
:103AA0007003ED65096003023B3588828983A3A317
:103AB000E06A7003A3E06B707C88828983A3A3A370
:103AC000A312442BEE28FEEF39FFEA28FAEB39FB6C
:103AD000050A123C05503A850A0C750D00740378EE
:103AE0000C1216F9851082851183123BF8123CF5F1
:103AF000601FE508450970A58C088D0988828983B7
:103B0000122CC888828983A3A3E02EFAA3E03F8009
:103B1000BEE50AC394025003023BF3750800750921
:103B200000EE4F6010EEFAEFFB1212818A0E8B0F3F
:103B3000EA450F70057900023BF5750B00023BC8A2
:103B4000850B0C750D007403780C1216F985108224
:103B5000851183E0250CF50CA3E0350DF50DE50C82
:103B60002406F514E4350DF515851482F583123C11
:103B7000FA6042E50C2404F512E4350DF5138512C4
:103B800082F5831219A6E50E2508FAE50F3509FB23
:103B90001212037402121722851282851383E02504
:103BA00008F508A3E03509F5098514828515831207
:103BB00032FD121287E50B600D7C087D007900AAAA
:103BC0000CAB0D12121B050BE50BC3950A5003023B
:103BD0003B4085108285118312442B88828983A300
:103BE000A3A3A3A3A3E50EF0A3E50F12285BEEF0B9
:103BF000A3EFF0790102375A123BFC22E0250CF8C2
:103C0000A3E0350D229002EBE0F8E50AC398227498
:103C1000F012177C8A0E8B0F8C0A8D0B750D0075B8
:103C20000C0080507916EE2406F508E43FF5098E65
:103C3000828F83A3A31219A68E828F83A3A3A3A32B
:103C40001219A68508828509831219A6850E828518
:103C50000F83A3A31232FD1208857406121722E9FE
:103C6000F50D7416650D706C850882850983E4F086
:103C7000A3F0050C9002EBE0F8E50CC3985066AA9F
:103C80000C8A08750900740378081216F9850A82EF
:103C9000850B83A3A3123D44E8FEE9FF8E828F8348
:103CA000123CFA6040EA2401F508E43400F509907A
:103CB00002EBE065087002E509601488828983A33D
:103CC000A3A3A3A3A3A3A312332C6003023C2479D0
:103CD00018023C26E9609B124427741012175812F0
:103CE0003CEC123954A90D7F0802184EE0FAA3E00B
:103CF000F5838A8222F988828983124520EC4D223D
:103D000074F612177C7C0080010C900348E0F8ECFC
:103D1000C398501E8C08750900740278081216F9B1
:103D2000123D39E06A7003A3E06B70DDE8FAE9FB4D
:103D300080047A007B00023DDC9002E9123D448859
:103D400082898322E02508F8A3E03509F92274F27C
:103D500012177C8A088B09750A0080278E828F8350
:103D6000A3A3A3A312285260031212877C087D002C
:103D70007900EEFAEFFB12121B8E828F83E4F0A320
:103D8000F0050A123C055027850A0C750D007403D6
:103D9000780C1216F9850882850983A3A3E0250C07
:103DA000FEA3E0350DFF8E828F8312332C70AD851C
:103DB000088285098374FFF0A3F002451474F6129B
:103DC000177C1208198A828B83E582458370067AF4
:103DD000007B008007A3A3A3A31232FD7F02021879
:103DE0004E74F412177C89088C828D83E064027013
:103DF0003C1243CAFEA3E0F9EEF874026870037443
:103E000029697029750A02750B00780A12198F74D6
:103E1000101217581219A674101217581219A6A9C1
:103E2000081211797406121722E9F9800279010249
:103E3000288F74E812177C74FB12170CE98518821E
:103E4000851983F08A168B17ECFEEDFF7510008E36
:103E5000828F83A3A3A3E0A2E4502D741D121758F0
:103E60001232FD1208738A828B83E58245837003C8
:103E7000024269790AEEFCEFFDAA16AB1712177A17
:103E8000E9F510600302426C741F121758E0F50840
:103E9000A3E0F5097421121758E0F50AA3E0F50B29
:103EA0007423121758E0F50EA3E0F50F8E828F836E
:103EB000E06402600302420AA312442B8508828553
:103EC0000983A3858212858313EE2406F50CE43F53
:103ED000F50D888289831242A9F514E439F5157825
:103EE00014121A190100002801280C3F07000228AB
:103EF000D13F03283F3F0029004101292B410229DE
:103F0000CC40032900410429A4410A42E50E450F93
:103F10006003024205850C82850D8312442BE8FA6A
:103F2000E9FB8A828B83E0850A82850B831242B487
:103F300012198F8A828B83A3E0FCA3E002418EE5F5
:103F40000E450F6003024205850A82850B837401CA
:103F5000F012429E850882850983F07C007D008EE8
:103F6000828F83A3A3A3A3E02401FAA3E03400FB80
:103F7000120717EA4B60408A828B83E02402F8859F
:103F80000A82850B83E028F0EA2404F8E43BF988F0
:103F9000828983E08512828513831242C21242B461
:103FA00012198F8A828B83A3124291E5082403FAA7
:103FB000E43509FB024193850A82850B83E02404E2
:103FC000F07C047D007900AA12AB1312121B02428E
:103FD0006CE50E450F600302420512429EFEA3E00F
:103FE000FF850A82850B837404F0EE8508828509BB
:103FF00083F0EF851282851383F07403121772EE3B
:10400000FAEFFB1207178A0C8B0DEA450D700302BD
:1040100040AF8A828B83A3A3122CC874011217624B
:10402000880E890F780E12198F74051217581219FD
:10403000A67CFF7DFF12071D74041217228B0FEA66
:10404000450F7033850C82850D8312429512198FAE
:10405000850C82850D83A31219A67C027D007AD17E
:104060007B811205197404121722E9700A74011277
:10407000175874FFF0A3F08E828F83E064027039CA
:10408000750C02750D00780C12198F8E828F83A328
:10409000124291E5082404FAE43509FB1212037474
:1040A00002121722850A82850B83E024028009749C
:1040B00001121758EEF0A3EFF074011217581242D4
:1040C00083740112175812427A0241FFE50E450F20
:1040D0006003024205850C82850D83124519AA16DC
:1040E000AB1712117F850A82850B837402F0850855
:1040F00082850983EAF0851282851383EB024202EE
:10410000E50E450F600302420512429EF8A3E0F956
:10411000850A82850B837402F0E88508828509830D
:10412000F0E9851282851383024202850C82850D97
:10413000831232FD1211FDEAFAF8C3950EE4950FD1
:10414000405CE8650E450F70047A00802185188276
:10415000851983E0FCE50E2CFCE4350FFDC3EC98DB
:10416000ED94005003E08005E50ECAC39AFAEA8593
:104170000A82850B83F08A0A750B00780A12198F60
:10418000850C82850D83E0250EFCA3E0350FFDAA8A
:1041900008AB09121203740212172202426C751046
:1041A0000702426CE50E450F705B850C82850D831E
:1041B00012442B850A82850B837407F088828983D9
:1041C00012427B124273E0851282851383F0E82449
:1041D00002FAE439FB8A828B831242838A828B83C0
:1041E00012427AA3A312285A124288F0E82405F852
:1041F00050010988828983124288A31242C2A3A374
:10420000A3A3F0806775100B8062741D12175812FB
:1042100032FD1208198A828B83E5824583604A1237
:10422000442B880C890DE8450D603E742512175803
:10423000E0F5107810121993780E12198F780A127F
:10424000198F780812198F7407121758E0F9EEFCCD
:10425000EFFDAA16AB17850C82850D8312177A74B1
:1042600007121722E9F510800375100EA9107405C6
:104270000235C0F088828983A322A3E08508828565
:104280000983221242C9F0221242C9A3A32290023A
:10429000EF12452022E0F50E750F00780E22850CF6
:1042A00082850D83123763E022E0FAA3E0F8E4C8C8
:1042B000F9EA2822F08A828B83E0F50A750B0078F0
:1042C0000A221242731242C922E0850882850983BC
:1042D000A3A32274EE12177C74FE12170C8A088BAB
:1042E00009ECFEEDFF890AAC18AD19EEFAEFFB12EE
:1042F00007178A0C8B0DEA450D70030243BB851826
:10430000828519831232FD1208198A828B83E58215
:10431000458370030243B6A3A312442B880E890F72
:10432000E8450F70030243B67414121758E0F510F5
:10433000A3E0F511E50AF50B780B12199374191225
:1043400017581219A6781012198F741B121758E0FB
:10435000F9AC0CAD0DAA08AB09850E82850F83124E
:10436000177A7405121722E9F50B705274FE650A6C
:10437000604C850C82850D83E0640270411243CA53
:10438000FAA3E0F9EAF87402687003742969702EE0
:104390008510828511831242A9F50CE439F50D7858
:1043A0000C12198FEEFCEFFDAA08AB0912089D74E0
:1043B000021217228008750B0E8003750B01A90BE2
:1043C00074021217227F0A02184EA312442F888209
:1043D0008983E02274F612177C74FE12170C740C99
:1043E00012175812442BE8851882851983F074013E
:1043F000121758E9F0E4F508F509780812198F75D5
:104400000802780812198F74041217628808890943
:10441000780812198F79FE12088574061217227413
:1044200002121722023DDC8E828F8312442F22E07B
:10443000F8A3E0F92274F712177CEAFEEBFF890873
:1044400090030612429112117FEA5402600BA908F0
:10445000EEFAEFFB12070B800279017F0102184E82
:1044600074F212177C74FE12170CEAFEEBFF890A35
:104470007401650A60147402650A600302450F79CD
:1044800001120AA7E9600302450FEEFAEFFB1208DA
:1044900067EA4B600312086DA818A91988088909F2
:1044A000780812198F750802750900780812198F9B
:1044B0007508E9750981780812198F7CFF7DFF7AEC
:1044C000017B0012071174061217228038850882BA
:1044D000850983A3A3A3A3A3A3124519EEFAEFFBB7
:1044E000121167E4F50CF50D780C12198F74021295
:1044F00017581219A67CFF7DFFAA08AB0912071DE9
:1045000074041217228A088B09E508450970BE74E5
:10451000021217227F0602184E123763124520221C
:10452000E0FCA3E0FD2274F412177C8A088B09ECEE
:10453000FEEDFF9015D2E0F4604B7A097B00121279
:1045400027EA4B60408A828B8374B1F0A3E4124562
:1045500088F08A828B83A3A3E508F0A3E5091245BE
:1045600088A3EEF0A3EFF0740C12175812442B8AB4
:10457000828B83A3A3A3A3A3A3A31239549015D220
:10458000E0F912123302288FF08A828B83A3A3A34F
:10459000A32274EE12177C74FA12170C8A0A8B0B82
:1045A000E9FF8C088D097E00850A0C850B0D780CBF
:1045B0001219D30004106E48DA45FD451C463F46EB
:1045C00062468546B646D946F0462047CF47F24771
:1045D000154843486E486E48494774016F70198505
:1045E0000882850983E0C39403500D8508828509FC
:1045F00083E09016BEF080027E1802489674026F27
:104600007015850882850983E0F8A3E0F99016BF4C
:10461000E8F0A3E9F080027E1802489674016F70FA
:1046200019850882850983E0C39402500D850882AC
:10463000850983E0900749F080027E18024896744D
:10464000016F7019850882850983E0C39405500DB8
:10465000850882850983E090074AF080027E18026F
:10466000489674016F7019850882850983E0C394A8
:1046700002500D850882850983E090074BF0800287
:104680007E1802489674106F7027750C10750D0017
:10469000780C12198FAC08AD097A4C7B0712120303
:1046A00074021217228A0C8B0D850C82850D838073
:1046B000027E1802489674016F7019850882850978
:1046C00083E0C39402500D850882850983E090073A
:1046D0005CF080027E1802489674016F700D8508A8
:1046E00082850983E09016C2F080027E1802489607
:1046F00074046F702690819D780C1215D085088205
:10470000850983780C12146250118508828509830B
:104710001215FA90075E12160680027E180248965D
:10472000EF70211206B1E9701312110DE9F50D7940
:1047300050121353E9F50C1210FB800A9007F17424
:1047400001F080027E1802489674076F707C750E27
:1047500006750F00780E12198F850882850983A3CC
:10476000AC82AD83740212176A1212097402121716
:10477000228A108B1185100E85110F7C007D00AAF6
:1047800018AB19850882850983E0F91210A1E9F5B3
:104790000CE50CC3940A502E1206B1E97015A90C51
:1047A000121113E9F50E7950121353E9F50D121099
:1047B000FB8019A80C790074F228F582740739F58A
:1047C000837401F080067E0280027E18024896748F
:1047D000016F7019850882850983E0C39402500D2A
:1047E000850882850983E090075DF080027E1802CB
:1047F000489674016F7019850882850983E0C39417
:104800000A500D850882850983E09016C1F0800268
:104810007E1802489674016F702585088285098389
:10482000E0C394074019850882850983E0C3941189
:10483000500D850882850983E09016C3F080577E6D
:1048400018805374016F70229007F0E0F50C850812
:1048500082850983E09007F0F0E50C70399007F04D
:10486000E0640170311210FB802C7E188028C3E5B3
:104870000A9427E50B9400501B74026F701685088C
:1048800082850983E0FCA3E0FDAA0AAB0B12053187
:10489000E9FE80027E02EEF974061217227F0A02F8
:1048A000184E74EC12177C74DA12170C890D8A12E8
:1048B0008B138C0A8D0B743A121758E0F50C90810B
:1048C0003EAC18AD19740612161FAC18AD19AA1219
:1048D000AB13A90D1210A1E9FEEEC3940A40030226
:1048E0004A16EEF91210DDE9FF9016BEE064027080
:1048F00004740180027400F5087808121993AD0C55
:10490000EFFCEEF9AA0AAB0B12114F740112172239
:104910007C147D007900741212176A12121B8A0E21
:104920008B0F850E08850F0974121217727A107595
:10493000F006EEA42424F912134DE9703C7C1079A2
:10494000FF741212176A12127BE9702D742212176B
:1049500058AC82AD837A0475F006EEA42425F912D2
:10496000134DE9F5087412121772EFA2E0E433F95F
:10497000AA0AAB0B1205BBE9F874061217727A0C7F
:1049800074702EF912134DE97079740612176A12B9
:1049900010D1750E00E50EC394045067A80E79007F
:1049A000E875F003A4C8AAF075F000A42AFA75F01F
:1049B00003E9A42AF97406121758E58228F508E5D8
:1049C0008339F509850882850983E0F8A3E0F9E8D1
:1049D00049602C850882850983A3A3E0F510751131
:1049E00000781012198F850882850983E0FCA3E006
:1049F000FDAA0AAB0B12088B7402121722E9F80504
:104A00000E8092EFA2E1500E900748E0F9AA0AAB9F
:104A10000B120891E9F87404650C700F9016BEE053
:104A200064027007AA0AAB0B1211497900742612AE
:104A300017227F0C02184E74F712177CEAFEEBFF68
:104A40001206B1E970679007F1E06401701B121162
:104A50000DE9F5089007F17400F07C0A7D007900FB
:104A60007AF27B0712121B8039750800E508C3949F
:104A70000A502FA808790074F228F582740739F5D6
:104A800083E064017018A908121113E9FAA80879E3
:104A90000074F228F582740739F5837400F0050874
:104AA00080CA7950121353E9F5081210FB7F0102F6
:104AB000184E74F212177C890BEAFEEBFF8C088DFE
:104AC00009750A0AE50B600C14600914604414604F
:104AD00064024B57EEFAEFFB1210EFE9F50AE50A14
:104AE000C3940A5072E5084509606C750C06750D93
:104AF00000780C12198FEEFCEFFDAA08AB09121218
:104B00000374021217228A0C8B0D850C82850D838B
:104B10008045EEFAEFFB1210E9E9F50AE50AC394C5
:104B20000A5034E5084509602EAA08AB09A90A1203
:104B300010E3E98022EEFAEFFB1210F5E9F50AE541
:104B40000AC3940A5011E5084509600BAA08AB098D
:104B5000A90A1210E3E9F8A90A7F0602184E74F2B6
:104B600012177C8A0C8B0DE9FF7E1574FF650C70A3
:104B70000474FF650D702A750800E508C3940A5097
:104B800014EFFC7A027B00A9081210BFE960027ED4
:104B900000050880E5EF60627A377B11120ACB804E
:104BA00059AA0CAB0D120A9B8A0A8B0B850A088541
:104BB0000B09E508450960407C007D00E5082405F7
:104BC000FAE43509FB850882850983A3A3A3A3E042
:104BD000F91210A1E9F50AE50AC3940A500EEFFC98
:104BE0007A027B00A90A1210BFE97E00EF600BAACF
:104BF00008AB0912113780027E14EEF97F06021805
:104C00004E74EE12177C8A0E8B0F8C0A8D0B741269
:104C1000121758E0F50CA3E0F50D75081574FF6543
:104C20000E700474FF650F701E7E00EEC3940A5070
:104C300061AC0CAD0DAA0AAB0BEEF91210C5E96020
:104C4000037508000E80E4AA0EAB0F120A9B8A10AF
:104C50008B11AE10AF11EE4F60357C007D00EE245D
:104C600005FAE43FFB8E828F83A3A3A3A3E0F9128E
:104C700010A1E9F509E509C3940A5016AC0CAD0D75
:104C8000AA0AAB0BA9091210C5E9750800800375C3
:104C90000814A9087F0A02184E74F712177CEAFE5E
:104CA000EBFF900762EEF0A3EFF0900748E0FC7D89
:104CB000007A267B00120531E9F508900748E0F9F3
:104CC0001207F57F0102184E74F012177C74EC1273
:104CD000170C8A0C8B0D850C82850D83A3A3E02411
:104CE000FA700302514124FD7003024FB6147003A1
:104CF000024DB814601024FD7003024F5E1470035F
:104D0000024FF5025154AE0CAF0D900762E0F8A3CC
:104D1000E0F9E8496066900762E0F8A3E0F583886F
:104D200082E0F8A3E0F9E8496052EE240CF582E451
:104D30003FF583E0F5087808121993EE240BF5820D
:104D4000E43FF583E0F98E828F83A3A3A3A3A3A3FB
:104D5000A3A3A3E0FCA3E0FDEE2403FAE43FFB9051
:104D60000762E0F8A3E0F5838882E0F8A3E0F5832A
:104D7000888212177A740112172280398E828F83EB
:104D8000A3A3A3A3A3A3A3A3A31219A690075E1290
:104D900015EE1205CD7402121722E9601879018E02
:104DA000828F83A3A3A3A3A3A3A3A3A3E0FAA3E057
:104DB000FB1205C7E9025154AE0CAF0D7508008E09
:104DC000828F83A3E06003024EE08E828F83A3A3D1
:104DD000A3A3A3E0A2E04003024EE09007FCE0F8AA
:104DE000A3E0F9E8496003024EE07C0E7D00790003
:104DF000AA18AB1912121B8A0A8B0BAA0AAB0BEE6C
:104E0000240CF582E43FF583E0F8A3E0F9E849607B
:104E100036750A06750B00780A12198FEE240CF508
:104E200082E43FF583E02410FCA3E03400FD74022B
:104E300012176A12120374021217228A0A8B0B8548
:104E40000A82850B83804F8E828F83A3A3A3E0FA0F
:104E5000A3E0FB120A9B8A0E8B0F850E0A850F0BAF
:104E6000E50A450B602D750E06750F00780E1219B8
:104E70008FE50A2405FCE4350BFD740212176A1253
:104E8000120374021217228A0E8B0F850E82850F71
:104E90008380030251548E828F83A3A3A3A3A3E034
:104EA000A2E25004D2F08002C2F0A2F0E433F8791A
:104EB00000740C121758E048F0A3E049F0EEFCEF44
:104EC000FDAA18AB191210D7E970127A027B009074
:104ED0000748E0F9121257E9790002515675081592
:104EE000900762E0F8A3E0F9E849606F900762E09C
:104EF000F8A3E0F5838882A3A3E0F8A3E0F9E849EA
:104F000060598E828F83A3E0FC79018E828F83A308
:104F1000A3A3E0FAA3E0FB900762E0F8A3E0F58327
:104F20008882A3A3E0F8A3E0F583888212177AE5CC
:104F3000086028AC0879038E828F83A3A3A3E0FACC
:104F4000A3E0FB900762E0F8A3E0F5838882A3A3C7
:104F5000E0F8A3E0F583888212177A025154AE0C70
:104F6000AF0D900762E0F8A3E0F9E84960459007CB
:104F700062E0F8A3E0F5838882A3A3E0F8A3E0F958
:104F8000E849602F850C82850D83A3E0FC79028EB1
:104F9000828F83A3A3A3E0FAA3E0FB900762E0F86B
:104FA000A3E0F5838882A3A3E0F8A3E0F5838882D9
:104FB00012177A025154AE0CAF0D7C007D00EE2426
:104FC00004FAE43FFB8E828F83A3A3A3E0F91210BF
:104FD000A1E9F508E508C3940A5017EE240AFCE499
:104FE0003FFD7A0475F006E508A42425F91213475D
:104FF000E9F8025154AE0CAF0D90075DE0601990D6
:1050000016C1E0F98E828F83A3A3A3E0FAA3E0FB8D
:105010001205C7E9F80251549016BEE070167905E2
:105020008E828F83A3A3A3E0FAA3E0FB1205C7E956
:10503000F80251548E828F83A3A3A3E0FAA3E0FB6E
:10504000120A9B8A0A8B0B850A08850B09E508451D
:105050000970030251548E828F83A3A3A3A3A3A339
:10506000A3E0A2E0506D850882850983A3A3A3A3D2
:10507000E060608E828F83A3A3A3A3A3A3A3A3A3B3
:10508000E0F50AA3E0F50B7409780A1216EAE50ABE
:105090005401F8E50B5400F9E8A2E04036740E1212
:1050A0001772E5082405FAE43509FB8508828509AD
:1050B00083A3A3A3A3E0F91210A1E9701679038ECC
:1050C000828F83A3A3A3E0FAA3E0FB1205C7E9F84C
:1050D000025154EE2405FCE43FFD850882850983D6
:1050E000A3A3A3A3E0F98E828F83A3A3A3E0FAA3D3
:1050F000E0FB121143900762E0F8A3E0F9E8496091
:1051000053900762E0F8A3E0F5838882A3A3E0F858
:10511000A3E0F9E849603D7C0079008E828F83A38B
:10512000A3A3E0FAA3E0FB900762E0F8A3E0F58315
:105130008882A3A3E0F8A3E0F583888212177A801F
:1051400013AE0CAF0D8E828F83A3A3A3E0FAA3E06E
:10515000FB12109B790174141217227F0802184E5B
:1051600074F512177C74F212170C8909EAFEEBFF32
:105170008C0AAC18AD197A0E75F006E509A4242046
:10518000F912134DE9705F7C0679FFAA18AB19126A
:10519000127BE97051740C121758E0F8A3E0F9E89B
:1051A000F508E50A6005EE42088004EEF45208A80E
:1051B000087900740C121758E0687003A3E0696066
:1051C00021A8087900740C121758E8F0A3E9F0AC94
:1051D00018AD197A0E75F006E509A42420F912130A
:1051E00047E9790180027900740E1217227F0302C9
:1051F000184E74F012177C74E612170C890B8A0C87
:105200008B0DECFEEDFF740C1217727A0E75F00622
:10521000E50BA42420F912134DE960030253227C0C
:105220000679FF740C12176A12127BE960030253AD
:1052300022AC18AD197A0C7470250BF912134DE9D4
:10524000600302531E750A00AA18AB191210D1E5AB
:105250000C450D702E7C0C7900AA18AB1912127B2C
:10526000E960030253047C0C7D007900AA18AB1995
:1052700012121B8A088B09850882850983750A0129
:10528000025304AC18AD19AA0CAB0D1210CB8A0E48
:105290008B0F850E08850F09E50845097030EE4F24
:1052A000601BAC18AD197A007B001210CB8A0E8BF4
:1052B0000FA80EA90F88088909E8497004790080B1
:1052C00063850882850983E50CF0A3E50DF0850868
:1052D00082850983A3A3E0F87900EE687002EF6984
:1052E0006022EEC0E0850882850983A3A3D0E0F0A8
:1052F000EE4F700D8508828509837400F0A3740059
:10530000F0750A01E50A6016AA18AB191210D1ACA3
:1053100018AD197A0C7470250BF9121347E979014D
:1053200080027900741A1217227F0802184E74F650
:1053300012177C8A088B097E00EEC394045050EE4D
:10534000F87900E875F003A4C8AAF075F000A42A63
:10535000FA75F003E9A42AF9EC28F582ED39F58312
:10536000E065087004A3E065097021EEF87900E8B3
:1053700075F003A4C8AAF075F000A42AFA75F0032A
:10538000E9A42AF9EC28FAED39FB80070E80AA7A05
:10539000007B007F0202184E74F712177C7C00EC31
:1053A000C394044003025447ECF87900E875F00315
:1053B000A4C8ADF075F000A42DFD75F003E9A42D8F
:1053C000F9EA28F582EB39F583E0F4FEA3E0F4FF77
:1053D000ECF87900E875F003A4C8ADF075F000A40E
:1053E0002DFD75F003E9A42DF9EA28F582EB39F5D6
:1053F00083EEF0A3EFF0ECF87900E875F003A4C8B1
:10540000ADF075F000A42DFD75F003E9A42DF9EAC7
:1054100028F582EB39F583A3A3E0F4C0E0ECF8793A
:1054200000E875F003A4C8ADF075F000A42DFD757B
:10543000F003E9A42DF9EA28F582EB39F583A3A35B
:10544000D0E0F00C02539F7F0102184E74F0121747
:105450007C74F412170CEAFEEBFF8C088D099007A0
:10546000FCE0F8A3E0F9E849702CEE4F6006E5088F
:105470004509700579010256F8EEFAEFFB1210EFBC
:10548000E99016C4F09016C4E0C3940A40081211C3
:1054900001E99016C4F09016C4E0C3940A400302D8
:1054A00056F69007FCE0F8A3E0F9E84960030255DE
:1054B00042EEFCEFFD7A0E75F0069016C4E0A424CF
:1054C00020F9121347E9F50C7C0C7D0079FFAA182E
:1054D000AB1912121B8A0E8B0F850E0A850F0BACAF
:1054E00018AD197A0C9016C4E02470F9121347E92C
:1054F000F50D750E0E750F00780E12198FEEFCEF7C
:10550000FD9016C4E0F87900E875F00EA4C8AAF082
:1055100075F000A42AFA75F00EE9A42AF97464283B
:10552000FA740739FB12120374021217228A0E8BC7
:105530000FA80EA90F9007FCE508F0A3E509F002FB
:1055400056F29007FCE0F8A3E0C82406F582C834C0
:1055500000F583E0F8A3E0F9E84960439007FCE038
:10556000F8A3E0C82406F582C83400F583E0FCA364
:10557000E0FD7A1B75F0069016C4E0A42421F91210
:105580001347E9F89007FCE0F9A3E0C92406F58287
:10559000C93400F5837400F0A37400F00256F29051
:1055A00007FCE0F8A3E0C8240AF582C83400F583BC
:1055B000E0F8A3E0F9E84960439007FCE0F8A3E0D5
:1055C000C8240AF582C83400F583E0FCA3E0FD7A24
:1055D0001B75F0069016C4E0A42422F9121347E9C3
:1055E000F89007FCE0F9A3E0C9240AF582C9340069
:1055F000F5837400F0A37400F00256F29007FCE00B
:10560000F8A3E0C8240CF582C83400F583E0F8A3C1
:10561000E0F9E84960439007FCE0F8A3E0C8240CF7
:10562000F582C83400F583E0FCA3E0FD7A1075F044
:10563000069016C4E0A42423F9121347E9F8900752
:10564000FCE0F9A3E0C9240CF582C93400F58374A9
:1056500000F0A37400F00256F29007FCE0F8A3E01B
:10566000C82408F582C83400F583E0F8A3E0F9E81F
:1056700049606F9007FCE0F8A3E0C82408F582C8F1
:105680003400F583E0FCA3E0FD7A1075F006901677
:10569000C4E0A42424F9121347E9F50A9007FCE0BA
:1056A000F8A3E0C82408F582C83400F583E024108C
:1056B000FCA3E03400FD7A0475F0069016C4E0A463
:1056C0002425F9121347E9F89007FCE0F9A3E0C993
:1056D0002408F582C93400F5837400F0A37400F047
:1056E00080109007F0E0600312115512113D79010E
:1056F0008006790080027901740C1217227F08025B
:10570000184E74F712177C74F212170CE9FEAC18DD
:10571000AD197A0E75F006EEA42420F912134DE9A6
:10572000700E740C121758E0F8A3E0F9E8F9800243
:105730007900740E1217227F0102184E74F41217AA
:105740007C74F212170C8909EAFEEBFFE509C39499
:105750000A5004EE4F700479028041AC18AD197AFA
:105760000E75F006E509A42420F912134DE9F50899
:10577000E5087026750A06750B00780A12198F74F1
:1057800002121772EEFAEFFB1212037402121722C2
:105790008A0A8B0B850A82850B83A908740E12175F
:1057A000227F0402184E74F412177CEAFEEBFF7598
:1057B0000800E508C3940A5043750A06750B007883
:1057C0000A12198FEEFCEFFDA8087900E875F00EBB
:1057D000A4C8AAF075F000A42AFA75F00EE9A42A6C
:1057E000F9746A28FA740739FB1212157402121739
:1057F00022E96004A9088006050880B6790A7F04BA
:1058000002184E74F412177CEAFEEBFF750800E5EF
:1058100008C3940A5043750A06750B00780A1219DA
:105820008FEEFCEFFDA8087900E875F00EA4C8AA79
:10583000F075F000A42AFA75F00EE9A42AF9746450
:1058400028FA740739FB1212157402121722E96044
:1058500004A9088006050880B6790A7F0402184E5C
:1058600074F712177C74F012170CEAFEEBFF750840
:1058700000E508C3940A5039AC18AD197A1075F0D8
:1058800006E508A42423F912134DE970207C107951
:10589000FFAA18AB1912127BE97012EEFCEFFDAAF9
:1058A00018AB19120597E97004A90880060508804D
:1058B000C0790A74101217227F0102184E74F41274
:1058C000177C750800E508C3940A4003025997A89D
:1058D000087900E875F00EA4C8AAF075F000A42AB3
:1058E000FA75F00EE9A42AF9746428FC740739FDEE
:1058F0007A0E75F006E508A42420F912134DE9701C
:10590000030259927C067D0079FFAA087B00EA75A4
:10591000F00EA4CAA8F075F000A428F875F00EEBFC
:10592000A428FB74642AFA74073BFB12121B8A0A30
:105930008B0BAE0AAF0B7C067D0079FFAA087B00BB
:10594000EA75F00EA4CAA8F075F000A428F875F066
:105950000EEBA428FB746A2AFA74073BFB12121B95
:105960008A0A8B0BAC0AAD0BA8087900E875F00E1B
:10597000A4C8AAF075F000A42AFA75F00EE9A42ACA
:10598000F9747028F582740739F5837400F0A374F4
:1059900000F005080258C59007F0E06003121155A9
:1059A00012113D7F0402184E74F712177C7E00EE30
:1059B000C3940A50327C0679FFEEFA7B00EA75F058
:1059C0000EA4CAA8F075F000A428F875F00EEBA498
:1059D00028FB74642AFA74073BFB12127BE960040B
:1059E000EEF980050E80C8790A7F0102184E74F71F
:1059F00012177C7E007F00EFC3940A50357C067935
:105A0000FFC9FDC9EFF87900E875F00EA4C8AAF047
:105A100075F000A42AFA75F00EE9A42AF974642836
:105A2000FA740739FBCDF9CD12127BE970010E0F24
:105A300080C5EEF97F0102184E74F712177C7E00C4
:105A40007F00EFC3940A500DEE700AEFF9121113A4
:105A5000E9FE0F80EDEEF97F0102184E74F0121787
:105A60007C74CB12170C89099016C4E06509701D6F
:105A70007A017B00900748E0F912125DE97A027B17
:105A800000900748E0F912125DE9121161742712C3
:105A900017727A0E75F006E509A42420F912134D49
:105AA000E96003025B947C0679FF742712176A127F
:105AB000127BE96003025B947C0E7D0079FF742702
:105AC00012176A12121B8A0A8B0B850A0C850B0DA2
:105AD0007C1B7D0079FF740C12176A12121B8A0E50
:105AE0008B0F850E0A850F0B7C0C7D0079FFAA18A1
:105AF000AB1912121B8A0E8B0FAE0EAF0F7427124A
:105B000017727A0E75F006E509A42420F9121347DE
:105B1000E9F508740C1217727A1B75F006E509A4F2
:105B20002421F9121347E94208740C1217727A1BE8
:105B300075F006E509A42422F9121347E942087416
:105B40000C1217727A1075F006E509A42423F912D5
