:020000040000FA
:0600000002010702229537
:03000B000226BE0C
:03002B0002269911
:0300530002230B7A
:100083000220EBE5C754F84401F5C77901220000CB
:100093000080FB120086B900030200F1E4792178A5
:1000A30008B800028004F709D8FCE479297802B87B
:1000B30000028004F709D8FCE4900281780B7914DC
:1000C3008002F0A3D8FCD9FA7A8B7B15900137789C
:1000D3003079048015E493A3AD82AE838A828B8347
:1000E300F0A3AA82AB838D828E83D8E9D9E7758288
:1000F3009E7583FF740112011975829175830074D3
:100103000012011975D00075813F751881751902A8
:10011300759F00020096C09FF59FE473D09F22D085
:1001230083D082C09FE493C0E0740193C0E0740263
:1001330093F59F22FF0000B4000028002800283018
:1001430075A000A000A000A00000080008E001F0D6
:10015300001000100010001000100010005000509C
:1001630000500010001000D0070000000000000F36
:100173000001000500307507001000010081FF0039
:10018300000000FFFFFF8806A6068E06CA06FF02D0
:10019300020208025000A0000000E80302D581011A
:1001A3000000D28102D981010000E61502DF81013E
:1001B3000000BF0202D981010000E71502E18101BD
:1001C3000000D50202D981010000E81502E3810194
:1001D3000000D70202D981010000E91502E5810878
:1001E3000000D80202D981010000EA1502E781016B
:1001F3000000EB15FF0100FF2002D581010000C6BE
:100203008102D9810100004F1602E981000000003C
:100213000002DD8103000006031700360D360D369C
:100223000D360D360D360D360D360D360D360D36B3
:100233000D360D360DDC0FEE0FD60F020202020251
:1002430002020202010D000000100102D58101002B
:1002530000C98102D9810100009216020D820100BA
:1002630000400702D9810100009316020B820100AE
:1002730000178102D981010000941602098201004E
:1002830000FB8002D981010000951602FB81010069
:1002930000958002D981010000961602F1810100C8
:1002A30000838002D98101000097160211820100A8
:1002B30000A78002D981010000981602ED81010098
:1002C30000B98002D981010000991602EB81010077
:1002D30000098102D9810100009A160207820100F8
:1002E300009B1601E8030577100A0D095050474695
:1002F30075656C4761756765051250002003020A36
:10030300000201060302F0FF5050474675656C4733
:1003130061756765000000000000000000401200E6
:10032300004C1200005212070101010901010110E2
:10033300000101E803000010024173796E6320425B
:10034300756C6B0053796E632042756C6B0002D53C
:1003530081010000CF8102D9810100008E1702F5CF
:1003630081000000600802DD81030000880802DBD1
:1003730081010000901702D9810100008F1702F755
:1003830081010000740802DB810100009B170A1041
:100393000A02436F6D6D616E6400526573706F6E18
:1003A3007365004D61696C626F78004465766963BB
:1003B3006520496E666F0002D581010000CC810281
:1003C300D981010000E51702FF810300008C0802B8
:1003D300DB81010000E91702D981010000E6170261
:1003E30001820000008E0802DD81030000A80802DC
:1003F300DB81010000F11702D981010000E7170238
:100403000382030000900802DB81010000FA170257
:10041300D981010000E817020582010000A4080247
:10042300DB810100000218FFFFFF000130750302AA
:1004330001060000000000000000000000000000B2
:100443000000000000000000000000000000FFFFAB
:100453000600800CE8030000020000000000005EBC
:1004630015641512012225AC0312012238AC0312C4
:10047300012269AC03120122A3AC03120122FCACDA
:100483000312012243AD031201228BAD0312012299
:10049300BAAD03120122E9AD0312012220AE031209
:1004A300012267AE0312012280AE03120122D5AEF0
:1004B30003120122EEAE031201223CAF031201220A
:1004C30076AF03120122A0CB02120122A3CC0212A7
:1004D3000122DCCC02120122FFCC0212012211CD37
:1004E300021201224FCD02120122CBCD02120122B0
:1004F30093CE02120122B5CE021201224CCF021278
:1005030001229ECF02120122CFCF02120122DCCFA1
:100513000212012246D0021201229DD002120122B0
:10052300A0D002120122D9D002120122DCD0021281
:100533000122E6D0021201223AD1021201227BD11A
:1005430002120122AED102120122EBD102120122C8
:10055300EDD20212012291D302120122FAD3021226
:10056300012238D402120122E7FB021201220FFCFE
:10057300021201223CFC0212012274FC021201222B
:10058300D2FC021201221EFD0212012285FD02127B
:100593000122C5FD0212012202FE0212012230FED7
:1005A30002120122DAFE02120122E4FE02120122E9
:1005B300F1FE0212012224FF0212012230FF021275
:1005C300012248FF0212012252FF02120122AFD27E
:1005D30003120122BDD203120122D5D2031201223A
:1005E300ECD203120122D0BA011201227ABB01120A
:1005F30001228DBC0112012209BD0112012227BE75
:100603000112012263BE01120122FEBE0112012268
:10061300E2BF01120122AEC0011201223CC201124B
:100623000122ADC20112012267C30112012259C482
:100633000112012299C4011201224DC501120122A6
:100643007FC50112012275C701120122B7C701122A
:100653000122D5C7011201223BC8011201220AC996
:1006630001120122CEC901120122EDCB0112012296
:10067300F77800120122E179001201228C7A00122C
:100683000122DD7A001201228D7B00120122FE7B02
:1006930000120122E37C00120122177D00120122C5
:1006A300107E001201224D7E00120122297F0012CA
:1006B3000122687F00120122847F00120122AFC24F
:1006C3000312012233C3031201225EC30312012268
:1006D30078C4031201226DA40312012283A403121E
:1006E3000122A1A403120122B2A503120122BCA577
:1006F30003120122E7A603120122DEA7031201223D
:100703004BA8031201221BF10212012251F2021221
:10071300012288F202120122DFF202120122F4F412
:10072300021201221A9601120122A6960112012237
:100733000A980112012216980112012251980112FE
:100743000122C09801120122C99901120122D29AF1
:1007530001120122999B01120122F69C011201222E
:10076300149D01120122319D01120122DE9D01120D
:1007730001225B9E01120122839E011201224DA1DF
:100783000112012252A1011201226BA301120122C3
:10079300B9A30112012229A40112012267A40112A3
:1007A300012243A50112012203A6011201224FA631
:1007B3000112012252A60112012296A60112012260
:1007C300DEA6011201221DA7011201223FA7011279
:1007D300012273A701120122D6A701120122008070
:1007E300031201220E8003120122618003120122EF
:1007F300808003120122C5800312012209820312A1
:100803000122A48203120122E8820312012212832D
:1008130003120122818303120122C78303120122DF
:100823003E8403120122EF840312012220270012C7
:100833000122302700120122D127001201222D2884
:1008430000120122EA2800120122062A00120122C4
:10085300382A00120122672A00120122142C0012E6
:1008630001228B2E00120122FB3000120122ED31F6
:1008730000120122E63200120122ED34001201229D
:10088300E13700120122103900120122143B001239
:100893000122243C00120122B33D00120122A43E96
:1008A30000120122F23E00120122613F00120122D6
:1008B300853F00120122D63F001201227744001225
:1008C3000122784500120122D94500120122044673
:1008D30000120122CA460012012233A00312012290
:1008E3003DA00312012282A00312012296A003124B
:1008F300012226A1031201225FA1031201229AA160
:1009030003120122C3A10312012217A2031201221F
:100913002CA2031201224EA20312012263A203128C
:10092300012277A2031201228CA203120122C6A282
:1009330003120122F2A2031201223BA3031201229A
:10094300ADA303120122F0A3031201221AA403127E
:10095300012245A4031201229BD1031201221CA4EC
:1009630002120122FFA4021201227AA5021201221D
:10097300B5A50212012206A70212012294A70212B0
:10098300012226AA02120122D8AA02120122E4ABF2
:100993000212012257AD02120122B0AD021201224E
:1009A300A19703120122E49703120122689803120C
:1009B30001223F9B0312012243BE03120122F5BE13
:1009C30003120122F1BF0312012230C003120122DC
:1009D3008AC0031201229AC603120122FDC6031222
:1009E30001229AC703120122CFC703120122FFC7B4
:1009F300031201223AC8031201225AC80312012228
:100A0300FF89031201228B8A031201224A8B0312EC
:100A13000122628C031201227C8E03120122888D33
:100A230002120122AD8D021201227A8E02120122DC
:100A33004E8F02120122BB8F02120122FB8F021280
:100A43000122979002120122CB9102120122A69257
:100A53000212012205930212012291930212012232
:100A6300FF93021201228B9402120122D1940212EB
:100A73000122439502120122D59502120122769694
:100A830002120122969602120122DE96021201221E
:100A93002797021201224397021201226997021239
:100AA3000122E39702120122F19702120122809898
:100AB30002120122E99802120122B38E03120122CB
:100AC300388F031201227A8F031201225E900312E0
:100AD3000122CB90031201220F91031201225391A1
:100AE30003120122809103120122A8910312012211
:100AF300E091031201221E92031201224592031276
:100B03000122BF9203120122099303120122FACB9D
:100B13000112012299CD01120122D1CF011201222A
:100B230025D00112012250D0011201222CD1011231
:100B330001225CD1011201228BD1011201229ED12B
:100B430001120122DFD1011201220CD20112012272
:100B53005AD20112012296D201120122DBD20112D2
:100B6300012228D301120122A2D301120122E3D5CB
:100B730001120122CDD70112012209D8011201224B
:100B830098D901120122DDD90112012250DA011292
:100B93000122A5DA01120122AADA0112012234DBB1
:100BA3000112012253DC0112012264DC0112012231
:100BB30001C2021201227AC20212012234C80212B5
:100BC30001223FC902120122E8CA0212012276CB96
:100BD30002120122E464001201226565001201225F
:100BE300926500120122DB6500120122DC6600120D
:100BF3000122356700120122B16800120122336914
:100C0300001201224E6900120122BF690012012263
:100C13007C6A001201223F6B00120122CD6B00128D
:100C23000122846C00120122976C00120122306DA4
:100C330000120122C76D00120122EE6D0012012283
:100C4300576E00120122A16E00120122EF6E0012F4
:100C53000122946F00120122327000120122BF7030
:100C63000012012230710012012277710012012259
:100C7300CF7100120122017200120122BB72001215
:100C83000122C273001201220B7400120122287484
:100C9300001201224774001201227A750012012208
:100CA3003176001201225676001201226B76001271
:100CB3000122DB76001201221C7700120122407808
:100CC30000120122C1780012012241B8021201224E
:100CD3008CB80212012298B8021201226CB90212D6
:100CE300012283B902120122C0B902120122F1B911
:100CF3000212012229BA021201227FBA0212012230
:100D030095BA02120122D1BA02120122E4BA0212E6
:100D130001220BBB021201223FBB0212012265BC5E
:100D230002120122AFBD02120122ABBE0212012246
:100D3300C8BF02120122F77F0012012287DC0112D1
:100D43000122C2DC0112012214E00112012270E12E
:100D5300011201222FE20112012296E50112012262
:100D630080E601120122CCE601120122E6E601121D
:100D7300012223E7011201222EE7011201226DE76E
:100D83000112012276E70112012220E80112012259
:100D9300F7E8011201224BE901120122A8E901122D
:100DA30001221AEA01120122AEA8011201220DAC9E
:100DB3000112012213AC0112012244B301120122D8
:100DC3004BB701120122DEAF03120122BBB00312A3
:100DD3000122FFB00312012239B103120122D1B162
:100DE3000312012240B20312012249B2031201226B
:100DF30055B2031201226FB20312012299B20312F8
:100E03000122C9B203120122F19B03120122FE9BAC
:100E130003120122189C031201224B9C031201228C
:100E2300899C03120122EE9C03120122039D0312EB
:100E330001220E9D031201221B9D03120122329DEA
:100E430003120122409D031201224B9D0312012232
:100E5300579D03120122669D03120122719D031205
:100E63000122949D03120122389E03120122489EFF
:100E730003120122629E031201227F9E03120122AA
:100E83009A9E03120122BF9E03120122CA9E0312DD
:100E93000122DF9E03120122F39E03120122549FBB
:100EA300031201225A9F03120122609F031201229F
:100EB300669F031201227E9F03120122B19F031238
:100EC30001220580021201229C8002120122348138
:100ED300021201222482021201225B8202120122E7
:100EE3006E8202120122DC82021201227784021234
:100EF30001229E840212012240850212012275857D
:100F030002120122868502120122FF8502120122AA
:100F130020860212012238860212012290870212D1
:100F23000122998902120122E98B02120122EC8C1F
:100F3300021201223B8D0212012269EB01120122EE
:100F430066EC0112012251ED011201225BED011247
:100F530001227DED0112012289ED01120122DBEE56
:100F6300011201220AEF011201223AF001120122B9
:100F73007CF001120122A8F1011201227EF201127A
:100F83000122D0F2011201222FF30112012266F392
:100F930001120122A1F3011201223CF701120122E5
:100FA30055F701120122D7F701120122E5F70112C9
:100FB30001223AF80112012248F801120122B5F880
:100FC3000112012227F9011201226DF901120122F6
:100FD3000C99021201222E9902120122189B02126D
:100FE3000122BD9E0212012200A002120122DAA0F8
:100FF3000212012228CA031201224DCA031201223E
:10100300BECA031201225ED40212012267D4021265
:10101300012270D402120122A1D502120122C0D7EB
:1010230002120122F6D70212012230D80212012243
:1010330066D802120122A0D802120122D4D80212C9
:10104300012200D90212012249D90212012283D9B5
:1010530002120122CBD90212012221DA0212012249
:1010630056DA02120122B1DA02120122EBDA02127B
:1010730001223CDB0212012272DB02120122ACDBF1
:1010830002120122DADB02120122FDDB021201222B
:101093007CD303120122A8D30312012203D4031227
:1010A30001220DD4031201221DD403120122018552
:1010B30003120122288503120122638503120122F0
:1010C30003D603120122364700120122464A0012B8
:1010D3000122DB4B00120122564C00120122024D69
:1010E30000120122A54D001201223D4E00120122E1
:1010F3006C4E001201220453001201229653001277
:101103000122D254001201223C5500120122F05553
:1011130000120122A65800120122E05800120122F7
:101123004A5900120122A75900120122045A00123F
:101133000122615A001201224C5B00120122925BD0
:1011430000120122DD5B00120122005C0012012269
:10115300475D001201225B5D00120122CA5E00128C
:101163000122095F00120122495F001201229C5FE4
:1011730000120122BD5F00120122FB5F0012012257
:10118300216200120122626200120122FD6200123A
:1011930001226F6300120122B064001201227AEB74
:1011A3000212012220EC0212012265ED0212012239
:1011B300EEED02120122DBEE021201221AEF0212FD
:1011C300012284EF02120122F2EF0212012241D71F
:1011D30003120122FCB503120122C7B80312012234
:1011E30024D703120122D0D403120122E0D4031224
:1011F3000122F4D40312012270D503120122F7B2A3
:10120300031201229FB303120122E1B5031201224B
:10121300152700120122E57F00120122BBF60212FC
:101223000122CBF6021201220CF90212012242FA28
:1012330002120122ABFA02120122C9FA021201229E
:10124300EBFA02120122BCFB02120122BFFB0212C3
:101253000122E1FB0212012268C80312012288C89D
:1012630003120122CCC803120122DFC80312012298
:10127300F2C80312012282C903120122F9C903121F
:101283000122FAD60312012210D703120122499335
:1012930003120122BA9303120122D79303120122EC
:1012A300FC93031201222B94031201225A9403127A
:1012B3000122D99503120122D7960312012219E4C0
:1012C300021201228AE40212012201E60212012221
:1012D300D5E70212012212E902120122D6E9021213
:1012E3000122F3E90212012242EA0212012283EAF5
:1012F30002120122C4EA02120122E8EA02120122C6
:1013030017EB02120122A7C403120122FDC4031228
:1013130001227AC503120122B4C503120122C4C5F6
:1013230003120122FDC503120122DECB03120122A7
:1013330033CC0312012290CD03120122C0CD03123C
:10134300012256CE03120122E4CE0312012279D0E8
:1013530003120122AAD003120122D4D003120122C4
:1013630032D1031201228BDC02120122A0DC021211
:101373000122FCDC0212012267DD02120122AFDD31
:101383000212012221DE021201224ADE021201228E
:1013930058DE02120122BADE02120122F8DE021224
:1013A300012213DF02120122AEDF0212012257E0F3
:1013B30002120122DAE00212012213E102120122D7
:1013C3009EE102120122F5E10212012253E202120E
:1013D300012265E2021201228BE20212012294E24F
:1013E30002120122E5E302120122B5C00312012217
:1013F3001CC103120122D9C10312012257C20312D5
:10140300012255A80312012288A803120122BAA9B6
:1014130003120122FEA903120122DAAA03120122F6
:101423003FCF031201221DD003120122ABBB0312D3
:101433000122F0BB0312012236BC03120122FFBDBD
:101443000312012273D5031201228ED50312012246
:101453009ED50312012227D40312012259AE021290
:10146300012235AF021201227CAF02120122B9AF71
:101473000212012227B00212012281B002120122BC
:10148300F1B002120122C1B102120122B0B2021262
:10149300012227B302120122C3B40212012250B562
:1014A30002120122C3B5021201223FB60212012227
:1014B30056B6021201227BB702120122D5B70212DD
:1014C3000122F6F90112012216FA011201221CFB74
:1014D3000112012268FB0112012288FB0112012281
:1014E300DBFB0112012248FC011201228EFC0112D6
:1014F3000122F2FC0112012214820112012241870E
:1015030001120122448A011201226D8A0112012271
:10151300968A01120122488B01120122318D011298
:1015230001227C8E01120122958E01120122CC939D
:101533000112012205940112012249940112012290
:101543005A9501120122D5B803120122E5B80312FC
:101553000122FCB80312012281B9031201226ABAE3
:101563000312012251BB0312012254BB03120122B5
:101573006BBB0312012289BB0312012288D603121B
:101583000122CED603120122E0FF02E066701008AA
:10159300A3E066700A08A3E066700408A3E066226D
:1015A300C3E7960809E7960809E7960809E796222C
:1015B300C3E09608A3E09608A3E09608A3E096226A
:1015C300C008C3E096F50808A3E096420808A3E024
:1015D30096420808A3E09645087001D3D008220874
:1015E3000808EAC0E0EBC0E086F0E7A4FA18098631
:1015F300F0E7A42AFA180986F0E7A42AFA1809865C
:10160300F0E7A42AFA1986F0E7A4FBE5F02AFA1911
:101613000886F0E7A42BFBE5F03AFA190886F0E711
:10162300A42BFBE5F03AFA18180986F0E7A4C5F0F5
:101633002BFBE43AFA1908E7C5F0C6A426F6E5F051
:101643003BFBE43AFA1886F0E7A4F6E5F00826F641
:10165300E43B08F6E43A08F6D0E0FBD0E0FA226077
:1016630016080808C6C313C618C613C618C613C679
:1016730018C613C6D5E0EA227009080808226016C6
:10168300181818C6C333C608C633C608C633C608F7
:10169300C633C6D5E0EA22E627F60809E637F60898
:1016A30009E637F60809E637F622E026F608A3E04E
:1016B30036F608A3E036F608A3E036F622E026F075
:1016C30008A3E036F008A3E036F008A3E036F022E2
:1016D300C3E697F60809E697F60809E697F60809B8
:1016E300E697F622C3E096F008A3E096F008A3E09D
:1016F30096F008A3E096F022E056F608A3E056F62B
:1017030008A3E056F608A3E056F622E056F008A335
:10171300E056F008A3E056F008A3E056F022E0F606
:1017230008A3E0F608A3E0F608A3E0F622E6F00833
:10173300A3E6F008A3E6F008A3E6F022E0FAA3E0AC
:10174300FBA3E0FCA3E0FD22E0F8A3E0F9A3E0FAA9
:10175300A3E0FB22E8F0A3E9F0A3EAF0A3EBF02275
:10176300CAC0E0E6F0A308DAFAD0E0FA22CAC0E081
:10177300E0A3C582CCC582C583CDC583F0A3C58252
:10178300CCC582C583CDC583DAE6D0E0CA22C3E4E3
:1017930098F8E499F91217D28026C3E49AFAE49BE5
:1017A300FBE920E7E91217D2E498F8E499F922C398
:1017B300E498F8E499F91217D2E498F8E499F9C394
:1017C300E49AFAE49BFB22EB20E7CFE920E7E0B9B8
:1017D3000010BB0008E88AF084F8AAF022E4FBC8F2
:1017E300FA22EB70227B10C833C8C933C9335007C0
:1017F300C39AC3DBF280069A50012ADBEAC833F4AA
:10180300C8C933F4C9FA2275F008E4C833C8C93328
:10181300C933C99AC99B5004C92AC93BD5F0ECFB0B
:10182300C833F4C8E4C9FA22600D08C6A2E713C698
:1018330018C613C6D5E0F322600C08C6C313C61836
:10184300C613C6D5E0F422700422600D18C6C33354
:10185300C608C633C6D5E0F41822251810AF08F51C
:1018630018400C15198008F51840021519D2AF223B
:1018730000C0D0251810AF08F518500C05198008C2
:10188300F51850020519D2AFD0D0222518F58210D1
:10189300AF08F518400C15198008F5184002151902
:1018A300D2AF851983222518F582E43519F58322F1
:1018B3002518F8E43519F9222518FAE43519FB221D
:1018C3002518FCE43519FD22E4732518C582C0E010
:1018D300E51934FFC583C0E0E518C3958224F810E9
:1018E300AF08858319858218800885831985821836
:1018F300D2AFCEF0A3E520F0A37808E608F0A3DE8C
:10190300FAEFF0A3E58124FAF8E608F0A3E608F07D
:10191300A3E608F0A30808E608F0A3E608F0A31579
:10192300811581D0E0FED0E0F8158115811581E89D
:10193300C0E0EEC0E0222518C582C0E0E51934FFFF
:10194300C583C0E0E518C3958224F910AF088583E9
:10195300198582188008858319858218D2AFCEF045
:10196300A3E520F0A37808E608F0A3DEFAEFF0A3DE
:10197300E58124FBF8E608F0A3E608F0A30808E6EF
:1019830008F0A3E608F0A315811581D0E0FED0E0AE
:10199300F815811581E8C0E0EEC0E0228519838542
:1019A3001882E0A3FEE0A3F5207808E0A3F608DFA1
:1019B300FAE0A3FFE0A3C0E0E0A3C0E0E0A3C0E03F
:1019C300E0A3C0E0E0A3C0E010AF088582188583E0
:1019D300198008858218858319D2AFD083D08202FB
:1019E300011F851983851882E0A3FEE0A3F5207803
:1019F30008E0A3F608DFFAE0A3FFE0A3C0E0E0A35A
:101A0300C0E0E0A3C0E0E0A3C0E010AF0885821807
:101A13008583198008858218858319D2AFD083D036
:101A23008222C0D02518C582C0E0E51934FFC583E2
:101A3300C0E0E518C3958224F310AF0885831985A8
:101A430082188008858319858218D2AFC8F0A3E96C
:101A5300F0A3EAF0A3EBF0A37908E709F0A3D8FA1F
:101A6300ECF0A3EDF0A3EEF0A3EFF0A3D0E0F0A32E
:101A7300D0E0F0A3D0E0F0A3E520F0A3E5F0F0A3DD
:101A830022851983851882E0C0E0A3E0F9A3E0FA78
:101A9300A3E0FBA37808E0F608A3DFFAE0FCA3E0E9
:101AA300FDA3E0FEA3E0FFA3E0C0E0A3E0C0E0A34A
:101AB300E0F5D0A3E0F520A3E0A3F5F010AF08858F
:101AC30083198582188008858319858218D2AFD03F
:101AD30082D083D0E0F8D0E03274048006740280B0
:101AE300027401C0E0F40412188ED0E012176322CE
:101AF3007404800474028000CCC0E0EDC0E0E518FB
:101B0300C39CCCAD1950011D10AF068C188D1980E4
:101B1300068C188D19D2AF121770D0E0FDD0E0FCFF
:101B230022D083D082E9C0E0E493A3C386F0C5F05A
:101B330095F0F908E493A386F0C5F095F0700BE4F3
:101B430093A3C3994005E9048002A3E475F002A4BA
:101B53002582F582E5F03583F583D0E0F9E493A39C
:101B6300C0E0E493C0E022D083D082ECC0E0EDC0BB
:101B7300E0E493A3FCE493A3FDED4C600D121BB6CC
:101B8300EC24FFFCED34FFFD80EFE493A3FCE4932E
:101B9300A3FDED4C600D121BF5EC24FFFCED34FFAF
:101BA300FD80EFD0E0FDD0E0FCE493A3C0E0E4933C
:101BB300C0E022C0E0C3E4939608740193961840F2
:101BC3000FE4936670080874019366187000701927
:101BD300A3A3C3E49396087401939618A3A3400D9B
:101BE300D0E0D0E0D0E0021BA6A3A3A3A3A3A3D07D
:101BF300E022C0E0C0F088F0E49366700808740146
:101C03009366187000A8F0A3A3700BD0F0D0E0D0B7
:101C1300E0D0E0021BA6A3A3D0F0D0E02274F6121A
:101C23001939EAFEEBFF8C088D09EE2434F8E43F02
:101C3300F9E8FCE9FDEE2435121F33FAEE243712DE
:101C43001F33F88508F0A4C885F00A8509F0A42598
:101C53000AF9EA28F8E439F97A257B001217D2EA5F
:101C63008C828D83F0FA131313541FF8EE28F8E4D3
:101C73003FF9E8245DF582E439F583E0C0E07407B9
:101C83005AF8D0E0B800028004C313D8FCA2E0EEF7
:101C930050082434F582E43F80182436121F33F5AC
:101CA300F0EA84A8F0EE28F8E43FF9E82438F58256
:101CB300E439F583E0F97F030219E574F712193962
:101CC300EAFEEBFFEE2434121F33C0E0EE2435F5B9
:101CD30082E43FF583D0E0F08E828F83A3A3A3A396
:101CE300A3A3A3C082C0838E828F83A3A3A3A3A332
:101CF300E0F8A3E0F9D083D082E0C398F508A3E02D
:101D030099F509EE247F121F336401703EEE24809F
:101D1300F582E43FF583C082C0838E828F83A3A3C1
:101D2300A3A3A3E0240108A3E03400F9D083D08265
:101D3300E0687003A3E06970127CB17D04120C7635
:101D4300EE247FF582E43FF583E4F0AC08AD09EEC1
:101D5300FAEFFB121C20E9F912268B7F020219E528
:101D6300C082C083851882851983E0F8A3E0F9C394
:101D7300EA9CEB9D5010C3EC98ED99401BC3EA9885
:101D8300EB995014800EC3EA98EB994007C3EC9883
:101D9300ED994004790180027900D083D08222EA50
:101DA300C39CFAEB9DFB2274EF121939900376E082
:101DB30064086005E06407702A9061C8E0602490BD
:101DC30003A4E0F4601DE0F875F00BA4C8AAF02AA0
:101DD300F974A628FE740339FF8E828F83A3A3A30D
:101DE300E07003021EB8906060E0C0E0EE2468F586
:101DF30082E43FF583D0E0F0750C21750D0575087D
:101E030000750900E5D914F50AE5D95403F50E6008
:101E1300127403650E6043E50A600AEE2467121F1D
:101E2300337002807590051CE06401601F121F303F
:101E330060047A0480027A00E50AC39AFA95E0FB0B
:101E4300120B208A088B09EA45097005120EA4803B
:101E530064121F3070048A0C8B0DE50A6012850C26
:101E630082850D83F50BE5D9F0A3150BE50B70F611
:101E7300121F30604474FC250AF50A780C121AE02C
:101E8300AC0AA90EEEFAEFFB120D307402121873AE
:101E9300E97026AA08AB091213F0793D8E828F836D
:101EA300A3A3A3A3E0FA7B00120982EEFAEFFB12CD
:101EB3000C9A120D427900806F7403650E60518590
:101EC3000A107511007810121AE0AC0CAD0DAA08B7
:101ED300AB09120CF47402121873EE2468121F3348
:101EE30064807004747F8001E0F50C780C121AE4AE
:101EF300E50EF50C780C121AE4A90AAC08AD0990AA
:101F030003A4E0FA7B0012095874021218738013B9
:101F1300900376E06408600BAC0CAD0DEEFAEFFBBA
:101F2300120DBA120EB079017F0A0219E5EE24836D
:101F3300F582E43FF583E02274F212193974FC123E
:101F4300185DEAFEEBFF8909A2AFE433F508C2AFDF
:101F5300022005E0601B780C121AE0AC0BA90EEE10
:101F6300FAEFFB120D2A74021218737404250BF591
:101F73000B7401250BF5D9850ED9E50B6018F50A0D
:101F8300850C82850D83E0F5D9A385820C85830DAD
:101F9300150AE50A70EA75E195EE2463F8E43FF962
:101FA3007A007B00A2AFE433F50BC2AF888289834A
:101FB300E0FCA3E0FDEC4D603A88828983E0FAA35C
:101FC300E0FB8A828B83E0FCA3E0FD88828983ECBB
:101FD300F0A3EDF08A828B83E4F0A3F088828983F7
:101FE300E0FCA3E0FDEC4D700A88828983A3A3E49F
:101FF300F0A3F0E50BA2E092AF1213F09004B8E067
:1020030004F0EE2463121F33F8A3E0F9E849606497
:10201300EE2463121F332402F8A3E03400F988820C
:102023008983E5822402F50CE43583F50DE0F50B95
:10203300A3E0F50EEE2462121F3364017036906143
:10204300D0E0F8121F3060047C0480027C007480AE
:10205300C398FA95E0FBE50B2CF8E43400F9E82487
:1020630002F8500109C3EA98EB99A2D265D0334034
:1020730003021F569004B8E0604D9004B9E0F89055
:1020830004B8E0C398500C74026509703A9004BA1E
:10209300E060348E828F83A3A3A3A3E08518828597
:1020A30019831220DA74021218A9E81220DA9004B4
:1020B300B7E028F074021218C3AA18AB19790112F9
:1020C30009AC9004B8E4F0E508A2E092AF740412FE
:1020D30018737F070219E5F0A3E4F09004B8E0F861
:1020E300228521878522C622C0E074EB121A25A21D
:1020F300AFE433F508C2AF759B00906182E0A2E0C4
:102103005030E591A2E0502A7591FE74016521706B
:102113002112227E120DFC12226C121AF3122435A4
:102123007404121873E9640170057901120E3812F0
:102133001DAA906182E0A2E5505DE591A2E55057AA
:102143007591DF900376E064076005E06408702F03
:1021530012227E74016521703E120DFC12226C1254
:102163001AF31224357404121873E96401700579A3
:1021730001120E387901EEFAEFFB121F3B8018E0D3
:10218300640D7013900398E004F064287002E4F087
:102193007A00E0F9120EB6906182E0A2E6400302F3
:1021A3002241E591A2E640030222417591BF9003CB
:1021B30076E064057008120DE4120DF08003120D31
:1021C300EA752100120E44E9900377F07900120EAC
:1021D30038120BE67A017B00900375E0F91213C005
:1021E300907803E064427056900520E014F0704E3E
:1021F300C2AF1221F800782AD0E0F618D0E0F6E555
:102203009F5407F87005750DFF8003750D7FC4C0DB
:10221300E07829E6F50A08E6550DF50B740B780A04
:1022230012183BD0E0250AF8906270E0A2E740F86C
:10223300E8C333906272F0906270E0D2E0F0906194
:1022430081E0A2E35009E5E9A2E3500375E9F7A3AE
:10225300E0A2E75009E591A2E7500375917FE508F5
:10226300A2E092AF7F08021A848E828F83E0F8A3E4
:10227300E0C82416F582E438F583229003A4E0F83D
:1022830075F00BA4C8AAF02AF974A628FE740339C2
:10229300FF22C0E0C0D0C082C083906183E0A2E08F
:1022A3005009E5BFA2E0500375BFFEE0A2E150096B
:1022B300E5BFA2E1500375BFFDE0A2E25009E5BF0F
:1022C300A2E2500375BFFBE0A2E35009E5BFA2E31E
:1022D300500375BFF7E0A2E45009E5BFA2E4500341
:1022E30075BFEFE0A2E55009E5BFA2E5500375BF56
:1022F300DFE0A2E65009E5BFA2E6500375BFBFD0F9
:1023030083D082D0D0D0E032C0E074F2121A25E537
:10231300A7A2E6500FE5A1A2E6500953A7BF75A1F6
:10232300BF12235FE5A7A2E5500CE5A1A2E5500685
:1023330053A7DF75A1DFE5A7A2E15009E5A1A2E15B
:10234300500375A1FDE5A7A2E2500CE5A1A2E2505E
:102353000653A7FB75A1FB7F01021A8474F71219B8
:1023630039752101900376E064067015120D668AB3
:10237300828B83A3A3A3A3A3A3E0FAA3E0FB120D81
:10238300D2A2AFE433FED2AF90037CE064017018B5
:102393007A207B00900375E0F91214E67A207B0023
:1023A300900375E0F91213C6906182E0D2E6F090D3
:1023B300051DE0602185C622801690037BE0640141
:1023C3007008E5C654F84405F5C653BEFC1220E474
:1023D3007401652160E4EEA2E092AF7F020219E589
:1023E300008E238F2485822885832785188285196B
:1023F30083E0CEA3E0CF852882852783EBC9EAC893
:10240300EDCBECCA75F010C3E833C8E933C9EA333E
:10241300CAEB33CBC3EA9EF526EB9FF525B35004F5
:10242300AB25AA26EC33CCED33CDD5F0DAAE23AF12
:10243300242274F11219398A088B098C0A8D0B90A6
:1024430081B278081216FB740F1218A9780C1217B0
:10245300219081B2780C1216FB7808790C1215A31F
:1024630090816650107808790C1216D378081215EB
:10247300C34014800E780C79081216D3780C121509
:10248300C350047901800279007F080219E574EDD5
:102493001219398A088B098C0A8D0B9081B278083E
:1024A3001216FB74131218A9780C1217219081B21B
:1024B300780C1216FB780C79081215A340117808D2
:1024C300790C1216D3AA08AB09AC0AAD0B8022759E
:1024D30010007511007512007513017810790C1234
:1024E30016D37810790812169AAA10AB11AC12AD54
:1024F300137F0C0219E59081B278081217218A82A2
:102503008B83780812170E7F040219E574F51219EC
:10251300398C828D8378081217218A828B837808FD
:102523001216E7122567C3E09CF0A3E09D1225591C
:10253300402290819A78081217218A828B83780827
:102543001216C08A828B83A3A3A3A3E02420F0A343
:10255300E0344EF080A0F088828983C3E09420A306
:10256300E0944E22EA2404F8E43BF98C828D83A3A1
:10257300A3A3A3E0FCA3E0FD888289832274F51260
:102583001939E9FE9004D3E0FAA3E0FBEE29F8E45D
:1025930033F974DB28F582748039F583E02AF50872
:1025A300A3E03BF5097808121AE09081A212173FC5
:1025B3001223E474021218738A088B098C0A8D0B98
:1025C30074107808121662AA08AB097F040219E591
:1025D30074F11219398A0C8B0D8C0E8D0F74111234
:1025E30018A9121AF774111218A9E02401F508A307
:1025F300E03400F509E4F50AF50B780C79081215B7
:10260300E29081727808121721780C79081215E28A
:10261300AA0CAB0DAC0EAD0F1223E47402121873A7
:102623008B09EA450960047A0180027A00EC2AFCEE
:10263300E43DFD74131218A9E0F8A3E0F9E8FEE9FC
:10264300FFECF8EDF97A717B021217D28808890939
:10265300E4F50AF50B8E828F837808121730ECF8B5
:10266300EDF97A717B021217D28A088B0974057807
:102673000812184A8E828F83A3A3A3A3E508F0A3AD
:10268300E509F07F080219E5C082C083E990600084
:10269300F0D083D08222C0E0C0D0E8C0E0E9C0E03F
:1026A300A2AFE433F8D2AFC2C7E8F9E8A2E092AF31
:1026B300D0E0F9D0E0F8D0D0D0E032C0E074F2122C
:1026C3001A25A2AFE433FED2AFE5BAF87900900839
:1026D3005CE8F0A3E9F0A8BB7900E4C8F990085CD2
:1026E300E048F0A3E049F0E5B5540F90085BF090A3
:1026F3000857E0FAA3E0FB900856E0F91213C0E98B
:10270300EEF8EEA2E092AF7F01021A84C2AF02009C
:10271300002202011FFFFFFFFFFFFFFFFFC082C078
:1027230083E990164EF0D083D08202011F74F61213
:1027330018CDE99002E8F0900348E0F50875090028
:102743007402780812184AAA08AB091214389002C6
:10275300E91230E39002E91234D0606F900348E04D
:1027630075F003A4FAABF01214389003061230E3A9
:102773009003061234D0700B9002E91234A11214A4
:102783003E80489003061244357AFF7BFF12119E68
:102793007A0080198A087509007402780812184AA9
:1027A300123EDD74FF1228E3E4F0A3F00A9003481D
:1027B300E0F8EAC39840DD79051208449002E8E0A6
:1027C300F91207307ACE7B08120AC0023F8074F4F4
:1027D3001218CD8A088B09EB548060479002E8E019
:1027E300F91213A88A0A8B0BAE0AAF0BEE4F602ABD
:1027F3008E828F83E064B0701A120856E960148EDB
:10280300828F83A3A3A3A3E0F9EE2405FAE43FFB9D
:10281300120826EEFAEFFB121396AA08E509648064
:10282300FB80047A007B00022A3374F21218CD7401
:10283300FB12185DEAFEEBFFEE4F604574031218BE
:10284300A9EEF0A3EFF0851882851983ECF0A3EDD0
:10285300F074021218A9E9F0AA18AB1912072AE9B1
:10286300F508707574131218A9E0F50AA3E0F50BC7
:10287300E50A450B60638E828F83122E6CEE4F70D8
:102883000575080280537A067B001214388A0C8B74
:102893000DA80CA90DE8497005750813803B8882C3
:1028A3008983E41228E3EEF0A3EF1229FFE50AF08F
:1028B300A3E50BF09002EC1229F89002EC6017E00C
:1028C300FCA3E08003EAFCEBFD8C828D831229F8E4
:1028D30070F38C828D83123AF8A90874050246B509
:1028E300F0A3124417A32274F21218CD8908890C9D
:1028F300750D007403780C12184A850C0A850D0BAC
:102903009002EBF09002E91239031229F6602E12BD
:10291300143E7900801D890C750D007402780C1229
:10292300184A9002E9123D9C8882F583A3A3E4F040
:10293300A3F009900348E0F8E9C39840D99003480D
:10294300E0FA850AF0A4CAA8F0850BF0A428FB12CC
:1029530014388A0C8B0DAE0CAF0DEE4F70030229A9
:10296300EC900348E0FC850AF0A4CCA8F0850BF0BA
:10297300A428FD79001213847C0080318D0C750D21
:10298300007403780C12184A8A828B831229F18807
:10299300828983E4F01229FEA3A3F0A3F00DEDC313
:1029A300950840D8EE250AFEEF350BFF0C9003483F
:1029B300E0F8ECC39850288C0C750D007402780C69
:1029C30012184A9002E91229F1E82402500109FA87
:1029D300E9FB8A828B83EEF0A3EFF07D0080BFE5F5
:1029E300089002EBF07900800279130246B8123D99
:1029F300A0F922A3A31234A5EA4B22A3124417A3DE
:102A0300A3A32274F41218CD7900EAA2E0501F7533
:102A1300084A7509817808121AE079107C047D0050
:102A23007A507B1612083E7402121873E9F980007B
:102A33007F0402199FC082C0839002EC1234D060DD
:102A43001C88828983A3A3E06A7003A3E06B888256
:102A5300898370E8A3A3A3A31234A180047A007B23
:102A63000002272974F21218CD74FD12185DEAFED4
:102A7300EBFF851882851983E4F0A3F07402121822
:102A8300A97401F01234CD70141209FA121438909B
:102A930002EF1230E31234CD7003022BF91231E34B
:102AA300EE2404F50AE43FF50B850A82F583E0245E
:102AB300FE603C24FC607424FE607E24FE700302EE
:102AC3002B4924FE7003022B5624FE7003022B6352
:102AD30024FE7003022B7024FE7003022B7D24FC62
:102AE3007003022B9E24FE7003022BB6022BF212FC
:102AF30009FA9002F1EAF0A3EB122C05120472E931
:102B03006003022BF29002F1121AF78E828F83A3D5
:102B1300A3A3A3A31244358508828509831234A194
:102B230012080E7402121873022BF2AC18AD19EED0
:102B3300FAEFFB12085C022BC1AC18AD19EEFAEFE9
:102B4300FB1208628078AC18AD19EEFAEFFB12089D
:102B530068806BAC18AD19EEFAEFFB12086E805E5D
:102B6300AC18AD19EEFAEFFB1208748051AC18AD36
:102B730019EEFAEFFB12087A804474021218B38834
:102B83000C890D780C121AE074021218C3EEFAEFD6
:102B9300FB12088074021218738023AC18AD19EE6F
:102BA300FAEFFB120886E9F8701674021218A9E40A
:102BB300F0803CAC18AD19EEFAEFFB12088CE9F883
:102BC300E8602C8E828F83A3E064146022850A82DE
:102BD300850B83E09002F1F0851882851983123406
:102BE300A19002F21230E3E8A3122C0512046CEE5A
:102BF300FAEFFB1207E474021218A9E0F974030256
:102C030046B5F07CF17D028508828509831234A5DF
:102C13002274E81218CD74FA12185D74041218A9FC
:102C2300ECF0A3EDF08A128B13EA2405F50EE435DC
:102C330013F50FEA2402F510E43513F5118510821C
:102C4300F5831234A11205628A0A8B0B7508007C86
:102C5300037D0079007AF17B02121384E50E2402CE
:102C6300F516E4350FF51774021218B3880C890DA5
:102C7300780C121AE0850E82850F83A3A3A3A3E029
:102C8300F50C750D00780C121AE0E50E2405F50C11
:102C9300E4350FF50D780C121AE08516828517833B
:102CA3001237A812074874061218738A0C8B0DE5A5
:102CB3000C450D7003022E358020851882851983FB
:102CC300E088828983F00508851882851983A3E04B
:102CD300C0E0122E76D0E0F00508E50A24FBFAE501
:102CE3000B34FFFBC3E5089AE49B4003022E357EB9
:102CF300007F00851282851383A3A3A3A3E0F509B4
:102D03007809121AE4E4F514F5157814121AE0752B
:102D130014EE7515027814121AE09002EF121AF7E6
:102D230074091218A9121AF7E50A24F9F9AC0CADC3
:102D33000D8510828511831234A11208B67409120D
:102D43001873E96003022DD6850E82850F83A3A332
:102D5300A3A3A3A3A3E0F89002EEE0687075E0F5E7
:102D6300148E157814121AE0124432850E82850FE0
:102D730083A3A3A3A3A3A3A3A31234A112137E74B7
:102D830002121873E9604C9002F21234D0703BE4E3
:102D9300F5147814121AE07CFF7DFF790785108201
:102DA3008511831234A1120820740212187312348D
:102DB300D67017850E82850F831245CF74041218BF
:102DC300A9123E901237D9022E69850C82850D8394
:102DD300122E6CA818A919881489157814121AE0F0
:102DE30074041218A9121AF78516828517831230F4
:102DF300D912075474041218738A0C8B0DEE4F709A
:102E030003022CB2122E76EE122E8112378FEF129E
:102E13002E81F8A3E03400F9E50C450D6003022C84
:102E2300BD8882898374FFF00508122E7674FFF043
:102E33000508E508601A1313543F1230E912047EA3
:102E4300E960099002F21234A11213F0790080169E
:102E5300850E82850F831245CF74041218A9123E82
:102E630090123AF8790A023762A3A3A3A3E0FEA360
:102E7300E0FF22A8089002F2E02812378F22F00523
:102E830008089002F2E0282274E81218CD74FA12AE
:102E9300185D74021218A91230E374041218A9EC15
:102EA300F0A3EDF074021218A9E02405123778E0BC
:102EB300F50CA3E0F50D74021218A9E02402F51035
:102EC300A3E03400F511851082F5831234A11205B5
:102ED30062750800750900EA24FCFEEB34FFFF80ED
:102EE30008050CE50C7002050DA808C3EE98EF94D5
:102EF300005003023095A818A919880E890F780E7F
:102F0300121AE0851482851583A3A3A3A31244395F
:102F1300121AE0E5142405F50EE43515F50F780EC5
:102F2300121AE08514828515831230D7120748746C
:102F3300061218738A0E8B0FEA450F700302309541
:102F4300EA2404F516E4350FF517851682F583E0B8
:102F5300F50CA3E0F50D8518828519831244358A93
:102F6300828B83A3A3A3E0F9851082851183123496
:102F7300A1120736E9F509600302309574021218AD
:102F8300A912379FF5097809121AE4E4F512F5132B
:102F93007812121AE07512EE7513027812121AE003
:102FA3009002EF121AF774071218A9121AF7EEF922
:102FB300AC0EAD0F8510828511831234A11208B6B1
:102FC3007409121873E9F5096003023095E5087076
:102FD3003FE4F50EF50F780E121AE07CFF7DFF79C2
:102FE300098510828511831234A1120820740212FC
:102FF30018731237C5700D74041218A91230CC79E6
:10300300110230C99002EEE024029002F2F0801423
:103013009002F2E0FA9002EEE079002402500109F6
:103023006A497072A8089002EEE0FAE82AFAE434DA
:1030330000FBEE9AEF9B405A851682851783E0C00A
:10304300E09002F3122E7BD0E0F00508851682850E
:103053001783A3E0C0E0089002F3122E7BD0E0F0C8
:1030630005089002EE124439121AE0124432A808FD
:1030730012376C12136C74021218739002EEE0256F
:1030830008F50874FF650C700474FF650D60030296
:103093002EE4E508601F9002F2E0F5F0E5088412E3
:1030A30030E9120484E960099002F31234A1121387
:1030B300F079008011E509700375090A7404121888
:1030C300A91230CCA909023762123907E50CF0A323
:1030D300E50DF022A3A31246C4AA0CAB0D22A3A3B1
:1030E300EAF0A3EBF0229002F1F07CF17D0285106F
:1030F300828511831234A52274EC1218CD74FC124C
:10310300185D123C0874021218C312349B12074E46
:103113008A0C8B0DEA450D70030231D31231E3A8FB
:1031230018A919881089117810121AE07CFF7DFF05
:10313300790B8508828509831234A1120820740251
:103143001218731232D9700C850A82850B831237D9
:10315300D60231E08E828F83A3A3A3A3E0F5127876
:1031630012121AE4E4F512F5137812121AE075122A
:10317300F17513027812121AE07810121AE074092A
:103183001218A9121AF774091218A9E0F9AC0CADB8
:103193000D8508828509831234A11208B6740912B9
:1031A3001873E9FE70157CF17D0285088285098319
:1031B3001234A112048AE97009802074166E700219
:1031C3007E009002F21234A11213F0EE7004800B11
:1031D3007E01850A82850B83123AF5EEF9023B0ADA
:1031E300EE2402F508E43FF5092274EC1218CD74BD
:1031F300FC12185DEAFEEBFF8C0E8D0FEE2405F535
:1032030008E43FF50974021218C38508828509830F
:103213001234A112074E8A0C8B0DEA450D7003027E
:1032230032C9EE2402F50AE43FF50BA818A9198860
:103233001089117810121AE07CFF7DFF790D12348A
:103243009B12082074021218731232D9700B85086E
:10325300828509831237D6807A8E828F83A3A3A3B4
:10326300A3E0F5127812121AE4850882850983A374
:10327300A3121AF77512F17513027812121AE07875
:1032830010121AE074091218A9121AF77409121805
:10329300A9E0F91234971208B67409121873E9FEFB
:1032A300700F7CF17D0212349B120490E970098047
:1032B3002074166E70027E009002F21234A1121373
:1032C300F0EE7004800B7E01850882850983123A33
:1032D300F5EEF9023B0A1234E0F510A3E0F511EA2A
:1032E30045112274E81218CD74FE12185D8A168BEC
:1032F300178C148D15EA2405F50CE43517F50DEA42
:103303002402F50EE43517F50F850E82F58312348A
:10331300A11205628A088B09750B007C037D007975
:10332300007AF17B02121384750A00E50814F51084
:103333000424FFF508E50934FFF50980549002F1F0
:10334300E0FA9002EEE0F8EA28F8E43400F9E50840
:1033530098E50999500D9002F1E0F8E510C39890B3
:1033630002EEF0E0F5127513007812121AE012441F
:10337300329002F2E02AFAA3E03400FB12136C74D9
:10338300021218739002EEE0F89002F1E028F005C3
:103393000A850C82850D83A3A3123DAC400302343E
:1033A3007C9002F1E0C39508E49509400302347C64
:1033B300AE0AEE2EFEE433FF1234BBAC18AD191285
:1033C300444DE439FB12074E8A128B13AC12AD1332
:1033D300EC4D701B750B011234AB123AF99002F2EB
:1033E3001229F860031213F0A90B740202376485E3
:1033F3001682851783A3A3A3A3E0F50B780B121AF8
:10340300E4E4F512F5137812121AE07512EE75134F
:10341300027812121AE09002EF121AF774071218C8
:10342300A9121AF7A910850E82850F831234A112EF
:1034330008B67409121873E9F50B709B9002F21227
:1034430034D06003023340E4F512F5137812121AF4
:10345300E07CFF7DFF790F850E82850F831234A1F7
:1034630012082074021218731234D6600302334018
:103473001234AB1237DA0233ED7CF17D02850E8212
:10348300850F831234A1120496E960030233E079B5
:10349300000233EDAC0CAD0D850A82850B8312342B
:1034A300A522E0FAA3E0FB221234BBE0FAA3E0F981
:1034B300EA85148285158322850C82850D83E02E8F
:1034C300F8A3E03FF988828983229002EF1245D363
:1034D300E849221234E0F8A3E0F9E849229002F225
:1034E300EAF0A3EBF09002F2E02274E81218CD7434
:1034F300FA12185D74041218A91230E38C168D1792
:1035030074041218A9E02405F50EA3E03400F50FA6
:1035130074041218A9E024021237781234A1120598
:10352300628A0A8B0B7F007E00A818A91988088974
:10353300097808121AE0850E82850F83A3A3A3A33B
:10354300E0F5088E097808121AE0E50E2405F5085F
:10355300E4350FF5097808121AE0850E82850F838A
:10356300A3A31237A812074874061218738A0C8B88
:103573000D8029123799F00F123799F00F9002EE50
:10358300123AE4121AE0124432EFF812376C1213B3
:103593006C74021218739002EEE02FFFE50C450DD8
:1035A3007003023628851882851983123C1AA3A357
:1035B300A3E0F98514828515831234A1120736E935
:1035C300FEE50C2404F510E4350DF511EE7050748E
:1035D300041218A912379FF5087808121AE4E4F5C3
:1035E30008F5097808121AE07508EE7509027808DB
:1035F300121AE09002EF121AF774071218A9121A9E
:10360300F7E50A24FAF9AC0CAD0D85148285158310
:103613001234A11208B67409121873E9FE60391244
:1036230037B5123AF8EF700302374F9002F2E0F524
:10363300F0EF849002F1F07CF17D02851482851510
:10364300831234A112049CE960099002F31234A19D
:103653001213F079000237628F08EF703BE4F51222
:10366300F5137812121AE07CFF7DFF79118514821D
:103673008515831234A112082074021218731237AD
:10368300C570091237B51237D90237629002EEE0DE
:1036930024049002F2F080359002EEE0F89002F2FA
:1036A300E0FAE82404FCE43400FDEC6A4D60030214
:1036B300362EE50A24FAFAE50B34FFFBE50828F871
:1036C300E43400F9EA98EB99500302362E85108210
:1036D300851183E0C0E09002F3E02FF8A3E034000B
:1036E3008882F583D0E0F00F851082851183A3E0F3
:1036F300C0E0123786D0E0F00F74021218B38808C6
:1037030089097808121AE074021218A9121AF785A7
:103713000E82850F831230D7120754740412187364
:103723008A0C8B0DEA450D7003023576740212186C
:10373300A9E0C0E0123786D0E0F00F74021218A996
:10374300A3E0C0E0123786D0E002357EEE70027E41
:103753000A850E82850F831237BB123AF8EEF9748D
:10376300061218737F1002199F9002F3E028FAA340
:10377300E03400FB22F514A3E03400F51585148230
:10378300F5832212378A229002F3E02FFAA3E03462
:10379300008A82F5832212378A74FF22123907A323
:1037A300A3A3A3E0221246C4850E82850F8312349D
:1037B300A5228510828511831245D385168285172C
:1037C30083229002F3EAF0A3EBF09002F31245D3C5
:1037D300E84922123AFEE8F0A3E9F079112274EAEB
:1037E3001218CD74FE12185D8A088B098C128D1382
:1037F300EA2405FEE43509FFAC18AD198E828F83E8
:103803001234A112074E8A0C8B0DEE2406F50EE43A
:103813003FF50FEA450D70030238D9E5082402F598
:103823000AE43509F50B8A828B83A3A3A3E0A2E5FF
:1038330050288518828519831234A11208AA8A1088
:103843008B11EA4511602079121234978510828515
:1038530011831218CBE9F50C707F850E82850F83D7
:10386300E0600979528011750C0E806D85088285A0
:103873000983A3A3A3A3E0F9E4F508F509780812E3
:103883001AE08E828F83A3A3E0F5087808121AE06A
:103893008E828F83A3A3A3121AF78E828F8312447F
:1038A3003512349B1208BC7406121873E9F50C70B8
:1038B30011850E82850F83E0702D12349B1204A2B2
:1038C30080257416650C7011750C0074181218A9F4
:1038D300123903E48010750C011245CB85128285E1
:1038E3001383E8F0A3E9F0850E82850F83E060047B
:1038F30079008002A90C74021218737F0E02199FBB
:1039030012390722E0F8A3E0F58388822274EC12CF
:1039130018CD74F712185D8A0A8B0B8C108D11EA7F
:103923002405FEE4350BFF750C00AC18AD198E822F
:103933008F831234A112074E8A088B09EA45097056
:1039430003023ACFE50A2402F50A5002050B8A82E4
:103953008B83A3A3A3E0A2E5502F85188285198347
:103963001234A11208AA8A0C8B0DEA450D604F7917
:1039730012AC08AD0912349B850C82850D83121895
:10398300CBE9F50C6003023AD2850A82850B83E00A
:10399300F508A3E0F509AA08FB12089EEA4B701983
:1039A3007AFF7BFF12089EEA4B7003023AC58A82B4
:1039B3008B83E508F0A3E509F07508008008750C12
:1039C3000E023AD205089002EBE0F8E508C39840EE
:1039D30003023AC585080E750F007403780E12189A
:1039E3004A8A828B83A3A3E0250EF8A3E0350F1246
:1039F3003E9970D08E828F83123AED1230E38E821D
:103A03008F83A3A3123AED1230E1EE2404F508E408
:103A13003FF509850882F583E088828983A3A3A300
:103A2300A3F0A3E4F0EE2405F50EE43FF50F850EB5
:103A330082F583123AEDA3A3A3A31230E175120713
:103A43007513007812121AE0EEFCEFFD74041218DD
:103A5300BB12136C7402121873E4F5127812121A63
:103A6300E0850882850983E0FC7D00791712349B89
:103A7300120820740212187374071218A91230E383
:103A830074071218A9E0FA4B603D85088285098303
:103A9300123AE4121AE0850E82850F83124435121E
:103AA300136C740212187374021218C312349B122B
:103AB30004A8E9602674071218A91234A11213F09E
:103AC3008019750C098008750C118003750C01129F
:103AD30045CB851082851183123AF8A90C740980AD
:103AE30028E0F5087509007808221234A588828930
:103AF3008322123AFEE8F0A3E9F022E0F8A3E0F90A
:103B0300850E82850F832274041218737F0C0219A9
:103B13009F74EC1218CD123C08751000EE2402F5C8
:103B23000CE43FF50D850C82F5831234A112089E37
:103B33008A088B09EA45097003023BEC850A8285F2
:103B43000B83E064016003023BE1AC08AD09AA0A00
:103B5300AB0B120892E9606E850882850983122EE9
:103B63006EEE2406F50AE43FF50B8E828F83A3A342
:103B7300121AF78E828F83A3A3A3A3121AF7850ABF
:103B830082850B83121AF779188E828F83123C1A5F
:103B93001234A11208BC7406121873E9F87416687B
:103BA300700B850A82850B83E4F0A38014E860120E
:103BB3008E828F831234A1850E82850F83EAF0A350
:103BC300EBF088108018780E121AE0AC08AD09EEFD
:103BD300FAEFFB1208987402121873E9F510AA0899
:103BE300AB091208A4E510700E850C82850D8312B3
:103BF30034A11204AE8009741665107003751000A9
:103C0300A910023B0FEAFEEBFF8C0E8D0FEE24058D
:103C1300F50AE43FF50B221246C4850C82850D8319
:103C23002274EA1218CD7508007509007E007F0022
:103C3300750A00EC2402F510E43DF5118035EC65BE
:103C4300087003ED65096003023CD988828983A368
:103C5300A3E06A7003A3E06B707C88828983A3A3CB
:103C6300A3A31245CFEE28FEEF39FFEA28FAEB397A
:103C7300FB050A123DA9503A850A0C750D00740321
:103C8300780C12184A851082851183123D9C123ECE
:103C930099601FE508450970A58C088D09888289FC
:103CA30083122E6C88828983A3A3E02EFAA3E03FBC
:103CB30080BEE50AC394025003023D977508007560
:103CC3000900EE4F6010EEFAEFFB1213EA8A0E8B37
:103CD3000FEA450F70057900023D99750B00023D0F
:103CE3006C850B0C750D007403780C12184A851043
:103CF30082851183E0250CF50CA3E0350DF50DE568
:103D03000C2406F514E4350DF515851482F583129C
:103D13003E9E6042E50C2404F512E4350DF513854F
:103D23001282F583121AF7E50E2508FAE50F350915
:103D3300FB12136C7402121873851282851383E0CD
:103D43002508F508A3E03509F5098514828515834F
:103D53001234A11213F0E50B600D7C087D0079008D
:103D6300AA0CAB0D121384050BE50BC3950A500384
:103D7300023CE48510828511831245CF88828983B2
:103D8300A3A3A3A3A3A3E50EF0A3E50F1229FFEEBC
:103D9300F0A3EFF079010238FE123DA022E0250CDA
:103DA300F8A3E0350D229002EBE0F8E50AC3982270
:103DB30074F01218CD8A0E8B0F8C0A8D0B750D00C3
:103DC300750C0080507916EE2406F508E43FF509DA
:103DD3008E828F83A3A3121AF78E828F83A3A3A34A
:103DE300A3121AF7850882850983121AF7850E82B2
:103DF300850F83A3A31234A11208BC74061218738F
:103E0300E9F50D7416650D706C850882850983E4E8
:103E1300F0A3F0050C9002EBE0F8E50CC3985066B4
:103E2300AA0C8A087509007403780812184A850ACF
:103E330082850B83A3A3123EE8E8FEE9FF8E828FFF
:103E430083123E9E6040EA2401F508E43400F5093C
:103E53009002EBE065087002E509601488828983AB
:103E6300A3A3A3A3A3A3A3A31234D06003023DC8B7
:103E73007918023DCAE9609B1245CB74101218A948
:103E8300123E90123AF8A90D7F0802199FE0FAA397
:103E9300E0F5838A8222F9888289831246C4EC4D35
:103EA3002274F61218CD7C0080010C900348E0F8D0
:103EB300ECC398501E8C0875090074027808121818
:103EC3004A123EDDE06A7003A3E06B70DDE8FAE9B5
:103ED300FB80047A007B00023F809002E9123EE8F7
:103EE3008882898322E02508F8A3E03509F9227442
:103EF300F21218CD8A088B09750A0080278E828FEB
:103F030083A3A3A3A31229F660031213F07C087DF5
:103F1300007900EEFAEFFB1213848E828F83E4F0B4
:103F2300A3F0050A123DA95027850A0C750D0074EC
:103F330003780C12184A850882850983A3A3E02518
:103F43000CFEA3E0350DFF8E828F831234D070AD4B
:103F530085088285098374FFF0A3F00246B874F6DE
:103F63001218CD1208508A828B83E582458370062E
:103F73007A007B008007A3A3A3A31234A17F0202CC
:103F8300199F74F41218CD89088C828D83E0640222
:103F9300703C12456EFEA3E0F9EEF87402687003FC
:103FA3007429697029750A02750B00780A121AE0E0
:103FB30074101218A9121AF774101218A9121AF70A
:103FC300A9081211B07406121873E9F98002790175
:103FD300022A3374E81218CD74FB12185DE98518B0
:103FE30082851983F08A168B17ECFEEDFF7510009E
:103FF3008E828F83A3A3A3E0A2E4502D741D121815
:10400300A91234A11208AA8A828B83E582458370A0
:104013000302440D790AEEFCEFFDAA16AB17121842
:10402300CBE9F5106003024410741F1218A9E0F5E0
:1040330008A3E0F50974211218A9E0F50AA3E0F535
:104043000B74231218A9E0F50EA3E0F50F8E828FEF
:1040530083E0640260030243AEA31245CF85088266
:10406300850983A3858212858313EE2406F50CE468
:104073003FF50D8882898312444DF514E439F51513
:104083007814121B6A010000280128B040070002BF
:104093002875410328E3400029A4420129CF4202A5
:1040A3002970420329A44204294843AE43E50E453F
:1040B3000F60030243A9850C82850D831245CFE867
:1040C300FAE9FB8A828B83E0850A82850B8312449B
:1040D30058121AE08A828B83A3E0FCA3E0024332E6
:1040E300E50E450F60030243A9850A82850B83749D
:1040F30001F0124442850882850983F07C007D002B
:104103008E828F83A3A3A3A3E02401FAA3E0340048
:10411300FB12074EEA4B60408A828B83E02402F84D
:10412300850A82850B83E028F0EA2404F8E43BF94E
:1041330088828983E0851282851383124466124440
:1041430058121AE08A828B83A3124435E5082403AC
:10415300FAE43509FB024337850A82850B83E024A1
:1041630004F07C047D007900AA12AB1312138402BD
:104173004410E50E450F60030243A9124442FEA317
:10418300E0FF850A82850B837404F0EE850882853F
:104193000983F0EF851282851383F074031218C329
:1041A300EEFAEFFB12074E8A0C8B0DEA450D7003F6
:1041B3000242538A828B83A3A3122E6C74011218BA
:1041C300B3880E890F780E121AE074051218A9121B
:1041D3001AF77CFF7DFF12075474041218738B0FB8
:1041E300EA450F7033850C82850D83124439121A08
:1041F300E0850C82850D83A3121AF77C027D007A79
:10420300D77B811205507404121873E9700A740184
:104213001218A974FFF0A3F08E828F83E0640270FA
:1042230039750C02750D00780C121AE08E828F839B
:10423300A3124435E5082404FAE43509FB12136C90
:104243007402121873850A82850B83E024028009A5
:1042530074011218A9EEF0A3EFF074011218A91259
:10426300442774011218A912441E0243A3E50E4504
:104273000F60030243A9850C82850D831246BDAAF4
:1042830016AB171211B6850A82850B837402F0856B
:104293000882850983EAF0851282851383EB024342
:1042A300A6E50E450F60030243A9124442F8A3E0BA
:1042B300F9850A82850B837402F0E88508828509F3
:1042C30083F0E98512828513830243A6850C8285D8
:1042D3000D831234A1121366EAFAF8C3950EE4951E
:1042E3000F405CE8650E450F70047A008021851845
:1042F30082851983E0FCE50E2CFCE4350FFDC3EC4D
:1043030098ED94005003E08005E50ECAC39AFAEADB
:10431300850A82850B83F08A0A750B00780A121AC4
:10432300E0850C82850D83E0250EFCA3E0350FFDAF
:10433300AA08AB0912136C740212187302441075A5
:104343001007024410E50E450F705B850C82850D46
:10435300831245CF850A82850B837407F08882898F
:104363008312441F124417E0851282851383F0E8F9
:104373002402FAE439FB8A828B831244278A828BD4
:104383008312441EA3A31229FE12442CF0E8240531
:10439300F85001098882898312442CA3124466A32E
:1043A300A3A3A3F0806775100B8062741D1218A974
:1043B3001234A11208508A828B83E5824583604AB6
:1043C3001245CF880C890DE8450D603E74251218FF
:1043D300A9E0F5107810121AE4780E121AE0780AA0
:1043E300121AE07808121AE074071218A9E0F9EE1D
:1043F300FCEFFDAA16AB17850C82850D831218CB33
:104403007407121873E9F510800375100EA9107460
:1044130005023764F088828983A322A3E08508829A
:104423008509832212446DF02212446DA3A32290C6
:1044330002EF1246C422E0F50E750F00780E2285B6
:104443000C82850D83123907E022E0FAA3E0F8E439
:10445300C8F9EA2822F08A828B83E0F50A750B00FB
:10446300780A2212441712446D22E08508828509D6
:1044730083A3A32274EE1218CD74FE12185D8A086A
:104483008B09ECFEEDFF890AAC18AD19EEFAEFFBD0
:1044930012074E8A0C8B0DEA450D700302455F85AA
:1044A30018828519831234A11208508A828B83E5FE
:1044B300824583700302455AA3A31245CF880E8910
:1044C3000FE8450F700302455A74141218A9E0F55A
:1044D30010A3E0F511E50AF50B780B121AE4741931
:1044E3001218A9121AF77810121AE0741B1218A9DD
:1044F300E0F9AC0CAD0DAA08AB09850E82850F83DC
:104503001218CB7405121873E9F50B705274FE651B
:104513000A604C850C82850D83E06402704112456C
:104523006EFAA3E0F9EAF8740268700374296970FB
:104533002E85108285118312444DF50CE439F50D57
:10454300780C121AE0EEFCEFFDAA08AB091208D4AE
:1045530074021218738008750B0E8003750B01A982
:104563000B74021218737F0A02199FA31245D38892
:10457300828983E02274F61218CD74FE12185D74DA
:104583000C1218A91245CFE8851882851983F07497
:10459300011218A9E9F0E4F508F5097808121AE000
:1045A3007508027808121AE074041218B38808898F
:1045B300097808121AE079FE1208BC7406121873FF
:1045C3007402121873023F808E828F831245D322A6
:1045D300E0F8A3E0F92274F71218CDEAFEEBFF89A5
:1045E300089003061244351211B6EA5402600BA96F
:1045F30008EEFAEFFB120742800279017F010219EC
:104603009F74F21218CD74FE12185DEAFEEBFF8957
:104613000A7401650A60147402650A60030246B3F2
:104623007901120ADEE960030246B3EEFAEFFB12E8
:10463300089EEA4B60031208A4A818A919880889E0
:10464300097808121AE07508027509007808121A29
:10465300E07508DD7509817808121AE07CFF7DFF9B
:104663007A017B0012074874061218738038850894
:1046730082850983A3A3A3A3A3A31246BDEEFAEFE6
:10468300FB12119EE4F50CF50D780C121AE074027E
:104693001218A9121AF77CFF7DFFAA08AB091207AB
:1046A3005474041218738A088B09E508450970BE0F
:1046B30074021218737F0602199F1239071246C437
:1046C30022E0FCA3E0FD2274F41218CD8A088B09C2
:1046D300ECFEEDFF90164EE0F4604B7A097B00127E
:1046E3001390EA4B60408A828B8374B1F0A3E41287
:1046F300472CF08A828B83A3A3E508F0A3E5091274
:10470300472CA3EEF0A3EFF0740C1218A91245CFB7
:104713008A828B83A3A3A3A3A3A3A3123AF890161D
:104723004EE0F912139C022A33F08A828B83A3A3EF
:10473300A3A32274EE1218CD74FA12185D8A0A8BA1
:104743000BE9FF8C088D097E00850A0C850B0D781B
:104753000C121B24000410124A7E47A147C047E3F2
:1047630047064829485A487D489448C4487349969F
:1047730049B949E749124A124AED4874016F701961
:10478300850882850983E0C39403500D85088285DB
:104793000983E090173AF080027E18024A3A7402C5
:1047A3006F7015850882850983E0F8A3E0F99017F7
:1047B3003BE8F0A3E9F080027E18024A3A74016FE5
:1047C3007019850882850983E0C39402500D85081A
:1047D30082850983E0900749F080027E18024A3AF5
:1047E30074016F7019850882850983E0C3940550AD
:1047F3000D850882850983E090074AF080027E18C0
:10480300024A3A74016F7019850882850983E0C3EF
:104813009402500D850882850983E090074BF08050
:10482300027E18024A3A74106F7027750C10750DCA
:1048330000780C121AE0AC08AD097A4C7B0712130E
:104843006C74021218738A0C8B0D850C82850D8390
:1048530080027E18024A3A74016F701985088285B6
:104863000983E0C39402500D850882850983E09093
:10487300075CF080027E18024A3A74016F700D855E
:104883000882850983E090173EF080027E18024A71
:104893003A74046F70269081A2780C121721850850
:1048A30082850983780C1215B35011850882850916
:1048B3008312174B90075E12175780027E18024A25
:1048C3003AEF70211206E8E97013121144E9F50D6D
:1048D30079501214BCE9F50C121132800A9007F1D9
:1048E3007401F080027E18024A3A74076F707C7577
:1048F3000E06750F00780E121AE08508828509836B
:10490300A3AC82AD8374021218BB12137274021229
:1049130018738A108B1185100E85110F7C007D0092
:10492300AA18AB19850882850983E0F91210D8E922
:10493300F50CE50CC3940A502E1206E8E97015A98C
:104943000C12114AE9F50E79501214BCE9F50D1257
:1049530011328019A80C790074F228F58274073992
:10496300F5837401F080067E0280027E18024A3AC3
:1049730074016F7019850882850983E0C39402501E
:104983000D850882850983E090075DF080027E181B
:10499300024A3A74016F7019850882850983E0C35E
:1049A300940A500D850882850983E090173DF080B5
:1049B300027E18024A3A74016F70258508828509C0
:1049C30083E0C394074019850882850983E0C39473
:1049D30011500D850882850983E090173FF08057B9
:1049E3007E18805374016F70229007F0E0F50C85F8
:1049F3000882850983E09007F0F0E50C7039900791
:104A0300F0E064017031121132802C7E188028C3CB
:104A1300E50A9427E50B9400501B74026F7016850A
:104A23000882850983E0FCA3E0FDAA0AAB0B12050B
:104A330068E9FE80027E02EEF974061218737F0A9B
:104A430002199F74EC1218CD74DA12185D890D8A5D
:104A5300128B138C0A8D0B743A1218A9E0F50C9083
:104A63008132AC18AD197406121770AC18AD19AABF
:104A730012AB13A90D1210D8E9FEEEC3940A40033A
:104A8300024BBAEEF9121114E9FF90173AE06402EF
:104A93007004740180027400F5087808121AE4ADFA
:104AA3000CEFFCEEF9AA0AAB0B1211867401121873
:104AB300737C147D00790074121218BB1213848A5C
:104AC3000E8B0F850E08850F0974121218C37A1006
:104AD30075F006EEA42424F91214B6E9703C7C1098
:104AE30079FF74121218BB1213E4E9702D742212A9
:104AF30018A9AC82AD837A0475F006EEA42425F9D7
:104B03001214B6E9F50874121218C3EFA2E0E433E5
:104B1300F9AA0AAB0B1205F2E9F874061218C37A64
:104B23000C74702EF91214B6E9707974061218BB5E
:104B3300121108750E00E50EC394045067A80E7990
:104B430000E875F003A4C8AAF075F000A42AFA756A
:104B5300F003E9A42AF974061218A9E58228F508D6
:104B6300E58339F509850882850983E0F8A3E0F92F
:104B7300E849602C850882850983A3A3E0F51075B5
:104B830011007810121AE0850882850983E0FCA3DE
:104B9300E0FDAA0AAB0B1208C27402121873E9F8FB
:104BA300050E8092EFA2E1500E900748E0F9AA0AA1
:104BB300AB0B1208C8E9F87404650C700F90173A30
:104BC300E064027007AA0AAB0B1211807900742605
:104BD3001218737F0C02199F74F71218CDEAFEEBBB
:104BE300FF1206E8E970679007F1E06401701B1299
:104BF3001144E9F5089007F17400F07C0A7D00790F
:104C0300007AF27B071213848039750800E508C324
:104C1300940A502FA808790074F228F58274073992
:104C2300F583E064017018A90812114AE9FAA8088B
:104C3300790074F228F582740739F5837400F0055E
:104C43000880CA79501214BCE9F5081211327F01A9
:104C530002199F74F21218CD890BEAFEEBFF8C0840
:104C63008D09750A0AE50B600C146009146044147D
:104C73006064024CFBEEFAEFFB121126E9F50AE53C
:104C83000AC3940A5072E5084509606C750C0675F1
:104C93000D00780C121AE0EEFCEFFDAA08AB091226
:104CA300136C74021218738A0C8B0D850C82850D9C
:104CB300838045EEFAEFFB121120E9F50AE50AC3FA
:104CC300940A5034E5084509602EAA08AB09A90ADD
:104CD30012111AE98022EEFAEFFB12112CE9F50A00
:104CE300E50AC3940A5011E5084509600BAA08AB0D
:104CF30009A90A12111AE9F8A90A7F0602199F7471
:104D0300F21218CD8A0C8B0DE9FF7E1574FF650C2A
:104D1300700474FF650D702A750800E508C3940AD2
:104D23005014EFFC7A027B00A9081210F6E9600226
:104D33007E00050880E5EF60627A6E7B11120B023C
:104D43008059AA0CAB0D120AD28A0A8B0B850A086A
:104D5300850B09E508450960407C007D00E50824D2
:104D630005FAE43509FB850882850983A3A3A3A378
:104D7300E0F91210D8E9F50AE50AC3940A500EEFD8
:104D8300FC7A027B00A90A1210F6E97E00EF600BA1
:104D9300AA08AB0912116E80027E14EEF97F060297
:104DA300199F74EE1218CD8A0E8B0F8C0A8D0B741B
:104DB300121218A9E0F50CA3E0F50D75081574FFA0
:104DC300650E700474FF650F701E7E00EEC3940AB7
:104DD3005061AC0CAD0DAA0AAB0BEEF91210FCE955
:104DE30060037508000E80E4AA0EAB0F120AD28A84
:104DF300108B11AE10AF11EE4F60357C007D00EECD
:104E03002405FAE43FFB8E828F83A3A3A3A3E0F9D7
:104E13001210D8E9F509E509C3940A5016AC0CAD94
:104E23000DAA0AAB0BA9091210FCE975080080034F
:104E3300750814A9087F0A02199F74F71218CDEA9E
:104E4300FEEBFF900762EEF0A3EFF0900748E0FC63
:104E53007D007A267B00120568E9F508900748E093
:104E6300F912082C7F0102199F74F01218CD74EC0B
:104E730012185D8A0C8B0D850C82850D83A3A3E02C
:104E830024FA70030252E524FD700302515A147090
:104E930003024F5C14601024FD700302510214706E
:104EA300030251990252F8AE0CAF0D900762E0F87D
:104EB300A3E0F9E8496066900762E0F8A3E0F583B0
:104EC3008882E0F8A3E0F9E8496052EE240CF58209
:104ED300E43FF583E0F5087808121AE4EE240BF5B5
:104EE30082E43FF583E0F98E828F83A3A3A3A3A378
:104EF300A3A3A3A3E0FCA3E0FDEE2403FAE43FFB9A
:104F0300900762E0F8A3E0F5838882E0F8A3E0F578
:104F13008388821218CB740112187380398E828FA2
:104F230083A3A3A3A3A3A3A3A3A3121AF790075E28
:104F330012173F1206047402121873E960187901FC
:104F43008E828F83A3A3A3A3A3A3A3A3A3E0FAA304
:104F5300E0FB1205FEE90252F8AE0CAF0D75080036
:104F63008E828F83A3E060030250848E828F83A39B
:104F7300A3A3A3A3E0A2E040030250849007FCE0B4
:104F8300F8A3E0F9E84960030250847C0E7D0079C0
:104F930000AA18AB191213848A0A8B0BAA0AAB0B4B
:104FA300EE240CF582E43FF583E0F8A3E0F9E84949
:104FB3006036750A06750B00780A121AE0EE240CA7
:104FC300F582E43FF583E02410FCA3E03400FD7494
:104FD300021218BB12136C74021218738A0A8B0B19
:104FE300850A82850B83804F8E828F83A3A3A3E0E0
:104FF300FAA3E0FB120AD28A0E8B0F850E0A850FE5
:105003000BE50A450B602D750E06750F00780E1221
:105013001AE0E50A2405FCE4350BFD74021218BB03
:1050230012136C74021218738A0E8B0F850E82850D
:105033000F8380030252F88E828F83A3A3A3A3A3BB
:10504300E0A2E25004D2F08002C2F0A2F0E433F80E
:105053007900740C1218A9E048F0A3E049F0EEFCC3
:10506300EFFDAA18AB1912110EE970127A027B0038
:10507300900748E0F91213C0E979000252FA750863
:1050830015900762E0F8A3E0F9E849606F900762C2
:10509300E0F8A3E0F5838882A3A3E0F8A3E0F9E8AE
:1050A3004960598E828F83A3E0FC79018E828F83BE
:1050B300A3A3A3E0FAA3E0FB900762E0F8A3E0F563
:1050C300838882A3A3E0F8A3E0F58388821218CB38
:1050D300E5086028AC0879038E828F83A3A3A3E03D
:1050E300FAA3E0FB900762E0F8A3E0F5838882A3CC
:1050F300A3E0F8A3E0F58388821218CB0252F8AE3E
:105103000CAF0D900762E0F8A3E0F9E84960459021
:105113000762E0F8A3E0F5838882A3A3E0F8A3E0A5
:10512300F9E849602F850C82850D83A3E0FC7902A1
:105133008E828F83A3A3A3E0FAA3E0FB900762E030
:10514300F8A3E0F5838882A3A3E0F8A3E0F58388BE
:10515300821218CB0252F8AE0CAF0D7C007D00EE2C
:105163002404FAE43FFB8E828F83A3A3A3E0F91206
:1051730010D8E9F508E508C3940A5017EE240AFC91
:10518300E43FFD7A0475F006E508A42425F912141A
:10519300B0E9F80252F8AE0CAF0D90075DE060196C
:1051A30090173DE0F98E828F83A3A3A3E0FAA3E0D7
:1051B300FB1205FEE9F80252F890173AE0701679EF
:1051C300058E828F83A3A3A3E0FAA3E0FB1205FE5F
:1051D300E9F80252F88E828F83A3A3A3E0FAA3E037
:1051E300FB120AD28A0A8B0B850A08850B09E5088C
:1051F300450970030252F88E828F83A3A3A3A3A34E
:10520300A3A3E0A2E0506D850882850983A3A3A32D
:10521300A3E060608E828F83A3A3A3A3A3A3A3A30E
:10522300A3E0F50AA3E0F50B7409780A12183BE52D
:105233000A5401F8E50B5400F9E8A2E04036740E75
:105243001218C3E5082405FAE43509FB85088285AD
:105253000983A3A3A3A3E0F91210D8E97016790375
:105263008E828F83A3A3A3E0FAA3E0FB1205FEE9DA
:10527300F80252F8EE2405FCE43FFD850882850917
:1052830083A3A3A3A3E0F98E828F83A3A3A3E0FA4E
:10529300A3E0FB12117A900762E0F8A3E0F9E84972
:1052A3006053900762E0F8A3E0F5838882A3A3E04C
:1052B300F8A3E0F9E849603D7C0079008E828F8392
:1052C300A3A3A3E0FAA3E0FB900762E0F8A3E0F551
:1052D300838882A3A3E0F8A3E0F58388821218CB26
:1052E3008013AE0CAF0D8E828F83A3A3A3E0FAA32A
:1052F300E0FB1210D2790174141218737F0802199B
:105303009F74F51218CD74F212185D8909EAFEEB49
:10531300FF8C0AAC18AD197A0E75F006E509A424C2
:1053230020F91214B6E9705F7C0679FFAA18AB194D
:105333001213E4E97051740C1218A9E0F8A3E0F910
:10534300E8F508E50A6005EE42088004EEF4520829
:10535300A8087900740C1218A9E0687003A3E06927
:105363006021A8087900740C1218A9E8F0A3E9F0E9
:10537300AC18AD197A0E75F006E509A42420F912CC
:1053830014B0E9790180027900740E1218737F0357
:1053930002199F74F01218CD74E612185D890B8AF6
:1053A3000C8B0DECFEEDFF740C1218C37A0E75F026
:1053B30006E50BA42420F91214B6E960030254C6CF
:1053C3007C0679FF740C1218BB1213E4E960030224
:1053D30054C6AC18AD197A0C7470250BF91214B6B7
:1053E300E960030254C2750A00AA18AB1912110826
:1053F300E50C450D702E7C0C7900AA18AB1912131D
:10540300E4E960030254A87C0C7D007900AA18AB80
:10541300191213848A088B09850882850983750A02
:10542300010254A8AC18AD19AA0CAB0D1211028AD3
:105433000E8B0F850E08850F09E50845097030EEC0
:105443004F601BAC18AD197A007B001211028A0E53
:105453008B0FA80EA90F88088909E8497004790001
:105463008063850882850983E50CF0A3E50DF0854B
:105473000882850983A3A3E0F87900EE687002EF40
:10548300696022EEC0E0850882850983A3A3D0E08A
:10549300F0EE4F700D8508828509837400F0A374C4
:1054A30000F0750A01E50A6016AA18AB1912110873
:1054B300AC18AD197A0C7470250BF91214B0E97994
:1054C3000180027900741A1218737F0802199F74FD
:1054D300F61218CD8A088B097E00EEC3940450504F
:1054E300EEF87900E875F003A4C8AAF075F000A4FB
:1054F3002AFA75F003E9A42AF9EC28F582ED39F5C7
:1055030083E065087004A3E065097021EEF8790073
:10551300E875F003A4C8AAF075F000A42AFA75F0A0
:1055230003E9A42AF9EC28FAED39FB80070E80AAD7
:105533007A007B007F0202199F74F71218CD7C005A
:10554300ECC3940440030255EBECF87900E875F0E2
:1055530003A4C8ADF075F000A42DFD75F003E9A414
:105563002DF9EA28F582EB39F583E0F4FEA3E0F4A4
:10557300FFECF87900E875F003A4C8ADF075F0000E
:10558300A42DFD75F003E9A42DF9EA28F582EB3982
:10559300F583EEF0A3EFF0ECF87900E875F003A4DF
:1055A300C8ADF075F000A42DFD75F003E9A42DF945
:1055B300EA28F582EB39F583A3A3E0F4C0E0ECF825
:1055C3007900E875F003A4C8ADF075F000A42DFDD3
:1055D30075F003E9A42DF9EA28F582EB39F583A3E5
:1055E300A3D0E0F00C0255437F0102199F74F0121F
:1055F30018CD74F412185DEAFEEBFF8C088D099048
:1056030007FCE0F8A3E0F9E849702CEE4F6006E5EB
:105613000845097005790102589CEEFAEFFB121157
:1056230026E9901740F0901740E0C3940A4008120F
:105633001138E9901740F0901740E0C3940A4003F3
:1056430002589A9007FCE0F8A3E0F9E849600302E6
:1056530056E6EEFCEFFD7A0E75F006901740E0A4D7
:105663002420F91214B0E9F50C7C0C7D0079FFAA13
:1056730018AB191213848A0E8B0F850E0A850F0B34
:10568300AC18AD197A0C901740E02470F91214B0DD
:10569300E9F50D750E0E750F00780E121AE0EEFC8B
:1056A300EFFD901740E0F87900E875F00EA4C8AA62
:1056B300F075F000A42AFA75F00EE9A42AF97464CF
:1056C30028FA740739FB12136C74021218738A0ECA
:1056D3008B0FA80EA90F9007FCE508F0A3E509F0CE
:1056E3000258969007FCE0F8A3E0C82406F582C8A8
:1056F3003400F583E0F8A3E0F9E84960439007FC40
:10570300E0F8A3E0C82406F582C83400F583E0FC82
:10571300A3E0FD7A1B75F006901740E0A42421F95D
:105723001214B0E9F89007FCE0F9A3E0C92406F5E8
:1057330082C93400F5837400F0A37400F002589614
:105743009007FCE0F8A3E0C8240AF582C83400F50A
:1057530083E0F8A3E0F9E84960439007FCE0F8A38D
:10576300E0C8240AF582C83400F583E0FCA3E0FD19
:105773007A1B75F006901740E0A42422F91214B0A6
:10578300E9F89007FCE0F9A3E0C9240AF582C934DB
:1057930000F5837400F0A37400F00258969007FCA0
:1057A300E0F8A3E0C8240CF582C83400F583E0F8E0
:1057B300A3E0F9E84960439007FCE0F8A3E0C824BC
:1057C3000CF582C83400F583E0FCA3E0FD7A107584
:1057D300F006901740E0A42423F91214B0E9F890DE
:1057E30007FCE0F9A3E0C9240CF582C93400F58372
:1057F3007400F0A37400F00258969007FCE0F8A33D
:10580300E0C82408F582C83400F583E0F8A3E0F982
:10581300E849606F9007FCE0F8A3E0C82408F5822C
:10582300C83400F583E0FCA3E0FD7A1075F0069020
:105833001740E0A42424F91214B0E9F50A9007FCF8
:10584300E0F8A3E0C82408F582C83400F583E02417
:1058530010FCA3E03400FD7A0475F006901740E0D5
:10586300A42425F91214B0E9F89007FCE0F9A3E0A9
:10587300C92408F582C93400F5837400F0A37400C9
:10588300F080109007F0E0600312118C121174790C
:10589300018006790080027901740C1218737F0865
:1058A30002199F74F71218CD74F212185DE9FEAC59
:1058B30018AD197A0E75F006EEA42420F91214B669
:1058C300E9700E740C1218A9E0F8A3E0F9E8F98066
:1058D300027900740E1218737F0102199F74F41277
:1058E30018CD74F212185D8909EAFEEBFFE509C3CE
:1058F300940A5004EE4F700479028041AC18AD193C
:105903007A0E75F006E509A42420F91214B6E9F518
:1059130008E5087026750A06750B00780A121AE066
:1059230074021218C3EEFAEFFB12136C740212180E
:10593300738A0A8B0B850A82850B83A908740E125E
:1059430018737F0402199F74F41218CDEAFEEBFF5B
:10595300750800E508C3940A5043750A06750B00E1
:10596300780A121AE0EEFCEFFDA8087900E875F05A
:105973000EA4C8AAF075F000A42AFA75F00EE9A4E3
:105983002AF9746A28FA740739FB12137E74021217
:105993001873E96004A9088006050880B6790A7FB0
:1059A3000402199F74F41218CDEAFEEBFF75080088
:1059B300E508C3940A5043750A06750B00780A126A
:1059C3001AE0EEFCEFFDA8087900E875F00EA4C814
:1059D300AAF075F000A42AFA75F00EE9A42AF97466
:1059E3006428FA740739FB12137E7402121873E9E0
:1059F3006004A9088006050880B6790A7F040219A5
:105A03009F74F71218CD74F012185DEAFEEBFF7560
:105A13000800E508C3940A5039AC18AD197A10751B
:105A2300F006E508A42423F91214B6E970207C10CB
:105A330079FFAA18AB191213E4E97012EEFCEFFD1B
:105A4300AA18AB191205CEE97004A9088006050847
:105A530080C0790A74101218737F0102199F74F4BD
:105A63001218CD750800E508C3940A4003025B3B96
:105A7300A8087900E875F00EA4C8AAF075F000A490
:105A83002AFA75F00EE9A42AF9746428FC7407391C
:105A9300FD7A0E75F006E508A42420F91214B6E980
:105AA3007003025B367C067D0079FFAA087B00EA5F
:105AB30075F00EA4CAA8F075F000A428F875F00ECE
:105AC300EBA428FB74642AFA74073BFB1213848A41
:105AD3000A8B0BAE0AAF0B7C067D0079FFAA087B0D
:105AE30000EA75F00EA4CAA8F075F000A428F875B2
:105AF300F00EEBA428FB746A2AFA74073BFB12131B
:105B0300848A0A8B0BAC0AAD0BA8087900E875F000
:105B13000EA4C8AAF075F000A42AFA75F00EE9A441
:105B23002AF9747028F582740739F5837400F0A399
:105B33007400F00508025A699007F0E0600312113F
