:020000040000FA
:060000000201070221418C
:03002B0002254566
:030053000221B7D0
:10008300021F97E5C754F84401F5C7790122000020
:100093000080FB120086B900030200F1E4792178A5
:1000A30008B800028004F709D8FCE479297802B87B
:1000B30000028004F709D8FCE490028178A2791346
:1000C3008002F0A3D8FCD9FA7A227B159001377805
:1000D300C479038015E493A3AD82AE838A828B83B4
:1000E300F0A3AA82AB838D828E83D8E9D9E7758288
:1000F3008B7583FF740112011975829175830074E6
:100103000012011975D00075813F751881751902A8
:10011300759F00020096C09FF59FE473D09F22D085
:1001230083D082C09FE493C0E0740193C0E0740263
:1001330093F59F22FF0000B4000028002800283018
:1001430075A000A000A000A00000080008E001F0D6
:10015300001000100010001000100010005000509C
:1001630000500010001000D0070000000000000F36
:100173000001000500307507001000010081FF0039
:10018300000000FFFFFF1C063A0622065E06FF0280
:10019300020208025000A0000000E80302CC810123
:1001A3000000C58102D0810100007D1502D68101C6
:1001B3000000BF0202D0810100007E1502D8810138
:1001C3000000D50202D0810100007F1502DA81010F
:1001D3000000D70202D081010000801502DC8108F3
:1001E3000000D80202D081010000811502FC8101C8
:1001F30000008215FF0100FF2002CC81010000BF37
:100203008102D081010000E61502E08100000000B8
:100213000002D48103000006031700CA0CCA0CCAEB
:100223000CCA0CCA0CCA0CCA0CCA0CCA0CCA0CCA1B
:100233000CCA0CCA0C700F820F6A0F020202020270
:1002430002020202010D000000100102CC81010034
:1002530000BC8102D081010000291602F681010051
:1002630000400702D0810100002A1602F28101003A
:1002730000158102D0810100002B1602F0810100DC
:1002830000078102D0810100002C1602E2810100E7
:1002930000818002D0810100002D1602228101001D
:1002A30000A58002D0810100002E1602DE8101002C
:1002B30000938002D0810100002F1602EE8101001D
:1002C30000B78002D081010000301602FA810100DC
:1002D30000F98002D081010000311602FE81010085
:1002E30000321601E8030577100A0701010109012D
:1002F3000101100001010A100A02436F6D6D616E66
:100303006400526573706F6E7365004D61696C6252
:100313006F780044657669636520496E666F0002F5
:10032300CC81010000C28102D081010000E41602E9
:10033300E6810300002F0802D281010000E81602C3
:10034300D081010000E51602E881000000310802B7
:10035300D4810300004B0802D281010000F0160291
:10036300D081010000E61602EA810A000033080288
:10037300D281010000F91602D081010000E71602C4
:10038300EC810A0000470802D2810100000117FF37
:10039300FFFF0001307503020106000000000000AA
:1003A300000000000000000000000000000000004A
:1003B300000000000000FFFF0600800CE8030D09A9
:1003C3005050474675656C47617567650512500067
:1003D3002003020A000201060302F0FF50504746C1
:1003E30075656C47617567650000000000000000DB
:1003F300001414000020141201223DA6031201224E
:1004030050A60312012281A603120122BBA60312E6
:10041300012214A7031201225BA703120122A3A73F
:1004230003120122D2A70312012201A803120122FF
:1004330038A8031201227FA80312012298A80312ED
:100443000122EDA80312012206A90312012254A9D5
:10045300031201228EA903120122A0CB0212012250
:10046300A3CC02120122DCCC02120122FFCC021225
:10047300012211CD021201224FCD02120122CBCD56
:100483000212012293CE02120122B5CE02120122E0
:100493004CCF021201229ECF02120122CFCF0212B1
:1004A3000122DCCF0212012246D0021201229DD08A
:1004B30002120122A0D002120122D9D0021201227B
:1004C300DCD002120122E6D0021201223AD102123A
:1004D30001227BD102120122AED102120122EBD101
:1004E30002120122EDD20212012291D30212012241
:1004F300FAD30212012238D4021201228C9A031277
:100503000122B49A03120122E19A03120122199BD8
:1005130003120122779B03120122C39B03120122C0
:100523002A9C031201226A9C03120122A79C031234
:100533000122D59C031201227F9D03120122899D72
:1005430003120122969D03120122C99D0312012267
:10055300D59D03120122ED9D03120122F79D031283
:10056300012255C30312012263C3031201227BC379
:100573000312012292C303120122BDBA0112012206
:1005830067BB011201227ABC01120122F6BC0112DF
:10059300012214BE0112012250BE01120122EBBE40
:1005A30001120122CFBF011201229BC001120122BD
:1005B30029C2011201229AC20112012254C301125B
:1005C300012246C40112012286C4011201223AC546
:1005D300011201226CC50112012262C7011201221C
:1005E300A4C701120122C2C70112012228C80112A5
:1005F3000122F7C801120122BBC901120122DACB81
:1006030001120122ECDB02120122D6DC02120122CA
:1006130081DD02120122D2DD0212012282DE0212E8
:100623000122F3DE02120122D8DF021201220CE0C2
:100633000212012205E10212012242E10212012209
:100643001EE2021201225DE20212012279E202128B
:100653000122F1B90312012275BA03120122A0BAD1
:1006630003120122BABB03120122859E0312012247
:100673009B9E03120122B99E03120122CA9F0312F9
:100683000122D49F03120122FFA003120122F6A12B
:100693000312012263A203120122E4EE02120122D9
:1006A3001AF00212012251F002120122A8F00212E2
:1006B3000122BDF202120122079601120122939632
:1006C30001120122F797011201220398011201225C
:1006D3003E9801120122AD9801120122B69901122E
:1006E3000122BF9A01120122869B01120122E39C7F
:1006F30001120122019D011201221E9D01120122FC
:10070300CB9D01120122489E01120122709E01120B
:1007130001223AA1011201223FA10112012258A391
:1007230001120122A6A30112012216A40112012221
:1007330054A40112012230A501120122F0A50112D5
:1007430001223CA6011201223FA60112012283A627
:1007530001120122CBA6011201220AA701120122D2
:100763002CA70112012260A701120122C3A70112C3
:10077300012284F40212012292F402120122E5F40E
:100783000212012204F50212012249F5021201228A
:100793008DF60212012228F7021201226CF70212CF
:1007A300012296F70212012205F8021201224BF8E8
:1007B30002120122C2F80212012273F9021201226B
:1007C3007825001201228825001201222926001211
:1007D30001228526001201224227001201225E28EF
:1007E30000120122902800120122BF2800120122C8
:1007F3006C2A00120122E32C00120122532F001253
:1008030001224530001201223E31001201224533FC
:100813000012012239360012012268370012012228
:100823006C39001201227C3A001201220B3C0012A7
:100833000122FC3C001201224A3D00120122B93D73
:1008430000120122DD3D001201222E3E0012012280
:10085300CF4200120122D043001201223144001280
:1008630001225C4400120122224500120122529609
:10087300031201225C9603120122A19603120122A4
:10088300B596031201224597031201227E970312A4
:100893000122B99703120122E2970312012236982B
:1008A300031201224B98031201226D9803120122B5
:1008B300829803120122969803120122AB98031225
:1008C3000122E598031201221199031201225A9978
:1008D30003120122CC99031201220F9A031201225F
:1008E300399A03120122649A0312012241C20312AC
:1008F30001221CA402120122FFA4021201227AA5E2
:1009030002120122B5A50212012206A70212012238
:1009130094A70212012226AA02120122D8AA0212C5
:100923000122E4AB0212012257AD02120122B0AD43
:1009330002120122C08D03120122038E031201222F
:10094300878E031201225E910312012285B50312E1
:10095300012237B60312012233B70312012272B701
:1009630003120122CCB703120122E9BB03120122B5
:100973004CBC03120122E9BC031201221EBD031267
:1009830001224EBD0312012289BD03120122A9BD1A
:10099300031201220080031201228C800312012220
:1009A3004B81031201226382031201227D8403120D
:1009B3000122888D02120122AD8D021201227A8E4C
:1009C300021201224E8F02120122BB8F0212012258
:1009D300FB8F02120122979002120122CB91021285
:1009E3000122A6920212012205930212012291937F
:1009F30002120122FF93021201228B94021201229E
:100A0300D19402120122439502120122D5950212BA
:100A13000122769602120122969602120122DE9696
:100A23000212012227970212012243970212012286
:100A3300699702120122E39702120122F19702122F
:100A43000122809802120122E99802120122B48441
:100A5300031201223985031201227B85031201222D
:100A63005F8603120122CC86031201221087031230
:100A73000122548703120122818703120122A987CD
:100A830003120122E187031201221F8803120122AC
:100A9300468803120122C088031201220A89031225
:100AA3000122E7CB0112012286CD01120122BECF22
:100AB3000112012212D0011201223DD001120122A2
:100AC30019D10112012249D10112012278D1011257
:100AD30001228BD101120122CCD101120122F9D1C1
:100AE3000112012247D20112012283D201120122F3
:100AF300C8D20112012215D3011201228FD3011290
:100B03000122D0D501120122BAD701120122F6D750
:100B13000112012285D901120122CAD9011201222F
:100B23003DDA0112012292DA0112012297DA01124F
:100B3300012221DB0112012240DC0112012251DCDE
:100B43000112012201C2021201227AC202120122FF
:100B530034C8021201223FC902120122E8CA02125A
:100B6300012276CB021201223C6300120122BD63F3
:100B730000120122EA6300120122336400120122EF
:100B83003465001201228D650012012209670012EB
:100B930001228B6700120122A66700120122176847
:100BA30000120122D4680012012297690012012267
:100BB300256A00120122DC6A00120122EF6A001288
:100BC3000122886B001201221F6C00120122466C65
:100BD30000120122AF6C00120122F96C00120122F3
:100BE300476D00120122EC6D001201228A6E001281
:100BF3000122176F00120122886F00120122CF6FAA
:100C030000120122277000120122597000120122E2
:100C13001371001201221A72001201226372001270
:100C230001228072001201229F7200120122D273EC
:100C330000120122897400120122AE7400120122F3
:100C4300C37400120122337500120122747500125D
:100C5300012298760012012219770012012241B86D
:100C6300021201228CB80212012298B80212012248
:100C73006CB90212012283B902120122C0B9021215
:100C83000122F1B90212012229BA021201227FBA0A
:100C93000212012295BA02120122D1BA02120122D2
:100CA300E4BA021201220BBB021201223FBB021261
:100CB300012265BC02120122AFBD02120122ABBEAA
:100CC30002120122C8BF021201229CC70312012291
:100CD30074DC01120122AFDC0112012201E00112D6
:100CE30001225DE1011201221CE20112012283E5CE
:100CF300011201226DE601120122B9E6011201225D
:100D0300D3E60112012210E7011201221BE70112AF
:100D130001225AE70112012263E7011201220DE8C1
:100D230001120122E4E80112012238E90112012231
:100D330095E90112012207EA011201229BA801127F
:100D43000122FAAB0112012200AC0112012231B3DC
:100D53000112012238B701120122F6A9031201225E
:100D6300D3AA0312012217AB0312012251AB0312C0
:100D73000122E9AB0312012258AC0312012261AC38
:100D8300031201226DAC0312012287AC031201226C
:100D9300B1AC03120122E1AC03120122109203123F
:100DA30001221D92031201223792031201226A9239
:100DB30003120122A892031201220D9303120122AE
:100DC3002293031201222D93031201223A93031259
:100DD30001225193031201225F93031201226A93AA
:100DE3000312012276930312012285930312012237
:100DF300909303120122B393031201225794031217
:100E030001226794031201228194031201229E940A
:100E130003120122B99403120122DE940312012268
:100E2300E99403120122FE94031201221295031284
:100E330001227395031201227995031201227F95F2
:100E4300031201228595031201229D9503120122AB
:100E5300D095031201220580021201229C80021206
:100E630001223481021201222482021201225B82B6
:100E7300021201226E8202120122DC82021201227C
:100E83007784021201229E840212012240850212FB
:100E93000122758502120122868502120122FF8535
:100EA3000212012220860212012238860212012236
:100EB300908702120122998902120122E98B021200
:100EC3000122EC8C021201223B8D0212012256EB0D
:100ED3000112012253EC011201223EED0112012203
:100EE30048ED011201226AED0112012276ED011291
:100EF3000122C8EE01120122F7EE0112012227F0AE
:100F03000112012269F00112012295F1011201225D
:100F13006BF201120122BDF2011201221CF3011234
:100F2300012253F3011201228EF30112012229F748
:100F33000112012242F701120122C4F70112012218
:100F4300D2F70112012227F80112012235F801120A
:100F53000122A2F80112012214F9011201225AF905
:100F6300011201220C99021201222E99021201226E
:100F7300189B02120122BD9E0212012200A002123E
:100F83000122DAA002120122B7BD03120122DCBD45
:100F9300031201224DBE031201224F7700120122D8
:100FA3005877001201226177001201229278001211
:100FB3000122B17A00120122E77A00120122217B79
:100FC30000120122577B00120122917B00120122A1
:100FD300C57B00120122F17B001201223A7C001230
:100FE3000122747C00120122BC7C00120122127DBA
:100FF30000120122477D00120122A27D001201226C
:10100300DC7D001201222D7E00120122637E00127C
:1010130001229D7E00120122CB7E00120122EE7E70
:101023000012012222C4031201224EC40312012220
:10103300A9C403120122B3C403120122C3C40312BD
:10104300012285F902120122ACF902120122E7F909
:1010530002120122A3C6031201228E4500120122AD
:101063009E4800120122334A00120122AE4A0012A6
:1010730001225A4B00120122FD4B00120122954C12
:1010830000120122C44C001201225C510012012201
:10109300EE51001201222A5300120122945300122E
:1010A3000122485400120122FE5600120122385731
:1010B30000120122A25700120122FF57001201223F
:1010C3005C5800120122B95800120122A4590012DF
:1010D3000122EA5900120122355A00120122585AFC
:1010E300001201229F5B00120122B35B0012012256
:1010F300225D00120122615D00120122A15D001236
:101103000122F45D00120122155E00120122535EDA
:1011130000120122796000120122BA60001201223A
:10112300556100120122C7610012012208630012F7
:10113300012243E902120122E9E9021201222EEB04
:1011430002120122B7EB02120122A4EC02120122C5
:10115300E3EC021201224DED02120122BBED021259
:1011630001228BC70312012214B003120122DFB242
:10117300031201226EC703120122CDC403120122FE
:10118300DDC403120122F1C4031201226DC503124F
:1011930001220FAD03120122B7AD03120122F9AFF1
:1011A30003120122FBFF02120122E9FF02120122B4
:1011B300DE7F00120122EC7F00120122DAE202122A
:1011C30001224BE302120122C2E40212012295E63C
:1011D30002120122D2E70212012296E80212012230
:1011E300B3E80212012202E9021201227C7F0012FB
:1011F3000122D07F001201226DBF03120122C2BF60
:10120300031201221FC10312012250C10312012242
:101213007AC103120122D8C1031201225ED4021241
:10122300012273D402120122CFD4021201223AD531
:101233000212012282D502120122F4D502120122E6
:101243001DD6021201222BD6021201228DD60212C2
:101253000122CBD602120122E6D60212012281D745
:10126300021201222AD802120122ADD8021201224F
:10127300E6D80212012271D902120122C8D9021240
:10128300012226DA0212012238DA021201225EDA80
:101293000212012267DA02120122B8DB02120122D2
:1012A300F7B7031201225EB8031201221BB903121E
:1012B300012299B9031201226DA203120122A0A2F5
:1012C30003120122D2A30312012216A40312012244
:1012D300F2A40312012283FE0212012261FF021211
:1012E3000122EDB20312012232B30312012278B3B9
:1012F3000312012241B50312012213C60312012274
:101303002EC6031201223EC60312012270C5031228
:10131300012259AE0212012235AF021201227CAF23
:1013230002120122B9AF0212012227B002120122D6
:1013330081B002120122F1B002120122C1B10212E4
:101343000122B0B20212012227B302120122C3B456
:101353000212012250B502120122C3B50212012268
:101363003FB60212012256B6021201227BB70212C5
:101373000122D5B702120122E3F90112012203FA75
:101383000112012209FB0112012255FB0112012264
:1013930075FB01120122C8FB0112012235FC011267
:1013A30001227BFC01120122DFFC011201220182D6
:1013B300011201222E8701120122318A0112012218
:1013C3005A8A01120122838A01120122358B0112EA
:1013D30001221E8D01120122698E01120122828EC9
:1013E30001120122B99301120122F2930112012287
:1013F3003694011201224795011201224A890312F0
:101403000122758B031201224B8C03120122698C7A
:10141300031201228B8C031201225C8D0312012221
:101423008A8D0312012228C703120122BDFF021273
:101433000122E0FF01E066701008A3E066700A086D
:10144300A3E066700408A3E06622C3E7960809E7F1
:10145300960809E7960809E79622C3E09608A3E0F1
:101463009608A3E09608A3E09622C008C3E096F589
:101473000808A3E096420808A3E096420808A3E000
:101483009645087001D3D00822080808EAC0E0EBAB
:10149300C0E086F0E7A4FA180986F0E7A42AFA1850
:1014A3000986F0E7A42AFA180986F0E7A42AFA19AC
:1014B30086F0E7A4FBE5F02AFA190886F0E7A42BE7
:1014C300FBE5F03AFA190886F0E7A42BFBE5F03ABE
:1014D300FA18180986F0E7A4C5F02BFBE43AFA19C9
:1014E30008E7C5F0C6A426F6E5F03BFBE43AFA1894
:1014F30086F0E7A4F6E5F00826F6E43B08F6E43ABE
:1015030008F6D0E0FBD0E0FA226016080808C6C34C
:1015130013C618C613C618C613C618C613C6D5E015
:10152300EA227009080808226016181818C6C3337F
:10153300C608C633C608C633C608C633C6D5E0EAEE
:1015430022E627F60809E637F60809E637F608091A
:10155300E637F622E026F608A3E036F608A3E036DF
:10156300F608A3E036F622E026F008A3E036F008FA
:10157300A3E036F008A3E036F022C3E697F60809A5
:10158300E697F60809E697F60809E697F622C3E018
:1015930096F008A3E096F008A3E096F008A3E0967F
:1015A300F022E056F608A3E056F608A3E056F60844
:1015B300A3E056F622E056F008A3E056F008A3E0B5
:1015C30056F008A3E056F022E0F608A3E0F608A3DD
:1015D300E0F608A3E0F622E6F008A3E6F008A3E6A7
:1015E300F008A3E6F022E0FAA3E0FBA3E0FCA3E00B
:1015F300FD22E0F8A3E0F9A3E0FAA3E0FB22E8F080
:10160300A3E9F0A3EAF0A3EBF022CAC0E0E6F0A35B
:1016130008DAFAD0E0FA22CAC0E0E0A3C582CCC55A
:1016230082C583CDC583F0A3C582CCC582C583CDD6
:10163300C583DAE6D0E0CA22C3E498F8E499F91244
:10164300167C8026C3E49AFAE49BFBE920E7E912BF
:10165300167CE498F8E499F922C3E498F8E499F93C
:1016630012167CE498F8E499F9C3E49AFAE49BFB34
:1016730022EB20E7CFE920E7E0B90010BB0008E840
:101683008AF084F8AAF022E4FBC8FA22EB70227BEA
:1016930010C833C8C933C9335007C39AC3DBF280B8
:1016A300069A50012ADBEAC833F4C8C933F4C9FAED
:1016B3002275F008E4C833C8C933C933C99AC99B32
:1016C3005004C92AC93BD5F0ECFBC833F4C8E4C9BC
:1016D300FA22600D08C6A2E713C618C613C6D5E0E2
:1016E300F322600C08C6C313C618C613C6D5E0F4AC
:1016F30022700422600D18C6C333C608C633C6D58C
:10170300E0F41822251810AF08F518400C151980BD
:1017130008F51840021519D2AF2200C0D0251810C1
:10172300AF08F518500C05198008F5185002051973
:10173300D2AFD0D0222518F58210AF08F518400C8F
:1017430015198008F51840021519D2AF851983229F
:101753002518F582E43519F583222518F8E435199F
:10176300F9222518FAE43519FB222518FCE435196A
:10177300FD22E4732518C582C0E0E51934FFC58353
:10178300C0E0E518C3958224F810AF088583198556
:1017930082188008858319858218D2AFCEF0A3E51D
:1017A30020F0A37808E608F0A3DEFAEFF0A3E581C2
:1017B30024FAF8E608F0A3E608F0A3E608F0A30885
:1017C30008E608F0A3E608F0A315811581D0E0FE32
:1017D300D0E0F8158115811581E8C0E0EEC0E02264
:1017E3002518C582C0E0E51934FFC583C0E0E518BC
:1017F300C3958224F910AF08858319858218800860
:10180300858319858218D2AFCEF0A3E520F0A378A3
:1018130008E608F0A3DEFAEFF0A3E58124FBF8E67F
:1018230008F0A3E608F0A30808E608F0A3E608F02A
:10183300A315811581D0E0FED0E0F815811581E86C
:10184300C0E0EEC0E022851983851882E0A3FEE0A4
:10185300A3F5207808E0A3F608DFFAE0A3FFE0A3EE
:10186300C0E0E0A3C0E0E0A3C0E0E0A3C0E0E0A3E9
:10187300C0E010AF08858218858319800885821817
:10188300858319D2AFD083D08202011F8519838546
:101893001882E0A3FEE0A3F5207808E0A3F608DFB2
:1018A300FAE0A3FFE0A3C0E0E0A3C0E0E0A3C0E050
:1018B300E0A3C0E010AF08858218858319800885EE
:1018C3008218858319D2AFD083D08222C0D0251845
:1018D300C582C0E0E51934FFC583C0E0E518C395B0
:1018E3008224F310AF0885831985821880088583C5
:1018F30019858218D2AFC8F0A3E9F0A3EAF0A3EBED
:10190300F0A37908E709F0A3D8FAECF0A3EDF0A36C
:10191300EEF0A3EFF0A3D0E0F0A3D0E0F0A3D0E08B
:10192300F0A3E520F0A3E5F0F0A322851983851841
:1019330082E0C0E0A3E0F9A3E0FAA3E0FBA3780808
:10194300E0F608A3DFFAE0FCA3E0FDA3E0FEA3E0DA
:10195300FFA3E0C0E0A3E0C0E0A3E0F5D0A3E0F57F
:1019630020A3E0A3F5F010AF0885831985821880C2
:1019730008858319858218D2AFD082D083D0E0F84E
:10198300D0E03274048006740280027401C0E0F473
:1019930004121738D0E012160D2274048004740266
:1019A3008000CCC0E0EDC0E0E518C39CCCAD19507D
:1019B300011D10AF068C188D1980068C188D19D255
:1019C300AF12161AD0E0FDD0E0FC22D083D082E91A
:1019D300C0E0E493A3C386F0C5F095F0F908E4935F
:1019E300A386F0C5F095F0700BE493A3C39940056B
:1019F300E9048002A3E475F002A42582F582E5F0F0
:101A03003583F583D0E0F9E493A3C0E0E493C0E029
:101A130022D083D082ECC0E0EDC0E0E493A3FCE4E9
:101A230093A3FDED4C600D121A60EC24FFFCED3422
:101A3300FFFD80EFE493A3FCE493A3FDED4C600D65
:101A4300121A9FEC24FFFCED34FFFD80EFD0E0FD84
:101A5300D0E0FCE493A3C0E0E493C0E022C0E0C381
:101A6300E49396087401939618400FE49366700804
:101A730008740193661870007019A3A3C3E49396C6
:101A8300087401939618A3A3400DD0E0D0E0D0E0F2
:101A9300021A50A3A3A3A3A3A3D0E022C0E0C0F0E3
:101AA30088F0E4936670080874019366187000A8C0
:101AB300F0A3A3700BD0F0D0E0D0E0D0E0021A5036
:071AC300A3A3D0F0D0E02244
:101ACC0074F61217E3EAFEEBFF8C088D09EE243452
:101ADC00F8E43FF9E8FCE9FDEE2435121DDFFAEEDF
:101AEC002437121DDFF88508F0A4C885F00A850993
:101AFC00F0A4250AF9EA28F8E439F97A257B0012D2
:101B0C00167CEA8C828D83F0FA131313541FF8EEB3
:101B1C0028F8E43FF9E8245DF582E439F583E0C068
:101B2C00E074075AF8D0E0B800028004C313D8FC64
:101B3C00A2E0EE50082434F582E43F8018243612DB
:101B4C001DDFF5F0EA84A8F0EE28F8E43FF9E8246C
:101B5C0038F582E439F583E0F97F0302188F74F7C6
:101B6C001217E3EAFEEBFFEE2434121DDFC0E0EEA9
:101B7C002435F582E43FF583D0E0F08E828F83A389
:101B8C00A3A3A3A3A3A3C082C0838E828F83A3A38A
:101B9C00A3A3A3E0F8A3E0F9D083D082E0C398F527
:101BAC0008A3E099F509EE247F121DDF6401703E55
:101BBC00EE2480F582E43FF583C082C0838E828F51
:101BCC0083A3A3A3A3A3E0240108A3E03400F9D0CA
:101BDC0083D082E0687003A3E06970127CB17D044D
:101BEC00120C0AEE247FF582E43FF583E4F0AC0896
:101BFC00AD09EEFAEFFB121ACCE9F91225377F0288
:101C0C0002188FC082C083851882851983E0F8A3DF
:101C1C00E0F9C3EA9CEB9D5010C3EC98ED99401B86
:101C2C00C3EA98EB995014800EC3EA98EB994007DD
:101C3C00C3EC98ED994004790180027900D083D0EF
:101C4C008222EAC39CFAEB9DFB2274EF1217E390FD
:101C5C000376E064086005E06407702A9061C8E0D0
:101C6C0060249003A4E0F4601DE0F875F00BA4C8A8
:101C7C00AAF02AF974A628FE740339FF8E828F838A
:101C8C00A3A3A3E07003021D64906060E0C0E0EECB
:101C9C002468F582E43FF583D0E0F0750C21750DD6
:101CAC0005750800750900E5D914F50AE5D9540342
:101CBC00F50E60127403650E6043E50A600AEE24AB
:101CCC0067121DDF7002807590051CE06401601FB7
:101CDC00121DDC60047A0480027A00E50AC39AFAC9
:101CEC0095E0FB120AB48A088B09EA4509700512C3
:101CFC000E388064121DDC70048A0C8B0DE50A60B2
:101D0C0012850C82850D83F50BE5D9F0A3150BE537
:101D1C000B70F6121DDC604474FC250AF50A780C75
:101D2C0012198AAC0AA90EEEFAEFFB120CC474025B
:101D3C0012171DE97026AA08AB091212A6793D8E5E
:101D4C00828F83A3A3A3A3E0FA7B00120916EEFAF9
:101D5C00EFFB120C2E120CD67900806F7403650EFB
:101D6C006051850A10751100781012198AAC0CADEF
:101D7C000DAA08AB09120C88740212171DEE246808
:101D8C00121DDF64807004747F8001E0F50C780C08
:101D9C0012198EE50EF50C780C12198EA90AAC08E6
:101DAC00AD099003A4E0FA7B001208EC7402121740
:101DBC001D8013900376E06408600BAC0CAD0DEE47
:101DCC00FAEFFB120D4E120E4479017F0A02188FA6
:101DDC00EE2483F582E43FF583E02274F21217E3DC
:101DEC0074FC121707EAFEEBFF8909A2AFE433F586
:101DFC0008C2AF021EB1E0601B780C12198AAC0B42
:101E0C00A90EEEFAEFFB120CBE740212171D74042D
:101E1C00250BF50B7401250BF5D9850ED9E50B6057
:101E2C0018F50A850C82850D83E0F5D9A385820C03
:101E3C0085830D150AE50A70EA75E195EE2463F8C1
:101E4C00E43FF97A007B00A2AFE433F50BC2AF8814
:101E5C00828983E0FCA3E0FDEC4D603A88828983A3
:101E6C00E0FAA3E0FB8A828B83E0FCA3E0FD88828E
:101E7C008983ECF0A3EDF08A828B83E4F0A3F088E5
:101E8C00828983E0FCA3E0FDEC4D700A8882898393
:101E9C00A3A3E4F0A3F0E50BA2E092AF1212A6907C
:101EAC0004B8E004F0EE2463121DDFF8A3E0F9E8B7
:101EBC00496064EE2463121DDF2402F8A3E03400B1
:101ECC00F988828983E5822402F50CE43583F50DCB
:101EDC00E0F50BA3E0F50EEE2462121DDF64017039
:101EEC00369061D0E0F8121DDC60047C0480027C2A
:101EFC00007480C398FA95E0FBE50B2CF8E43400F1
:101F0C00F9E82402F8500109C3EA98EB99A2D265CA
:101F1C00D0334003021E029004B8E0604D9004B927
:101F2C00E0F89004B8E0C398500C74026509703A5C
:101F3C009004BAE060348E828F83A3A3A3A3E085C0
:101F4C001882851983121F867402121753E8121F08
:101F5C00869004B7E028F0740212176DAA18AB191A
:101F6C0079011209409004B8E4F0E508A2E092AFC0
:101F7C00740412171D7F0702188FF0A3E4F090046D
:101F8C00B8E0F8228521878522C622C0E074EB12C6
:101F9C0018CFA2AFE433F508C2AF759B00906182F5
:101FAC00E0A2E05030E591A2E0502A7591FE740158
:101FBC006521702112212A120D9012211812199DDF
:101FCC001222E1740412171DE964017005790112E3
:101FDC000DCC121C56906182E0A2E5505DE591A2F9
:101FEC00E550577591DF900376E064076005E06477
:101FFC0008702F12212A74016521703E120D901267
:10200C00211812199D1222E1740412171DE96401A2
:10201C0070057901120DCC7901EEFAEFFB121DE778
:10202C008018E0640D7013900398E004F06428703D
:10203C0002E4F07A00E0F9120E4A906182E0A2E626
:10204C0040030220EDE591A2E640030220ED7591DC
:10205C00BF900376E064057008120D78120D848031
:10206C0003120D7E752100120DD8E9900377F079DB
:10207C0000120DCC120B7A7A017B00900375E0F9FB
:10208C00121276907803E064427056900520E014AA
:10209C00F0704EC2AF1220A400782AD0E0F618D00F
:1020AC00E0F6E59F5407F87005750DFF8003750D7C
:1020BC007FC4C0E07829E6F50A08E6550DF50B74E7
:1020CC000B780A1216E5D0E0250AF8906270E0A2AF
:1020DC00E740F8E8C333906272F0906270E0D2E0AF
:1020EC00F0906181E0A2E35009E5E9A2E3500375A9
:1020FC00E9F7A3E0A2E75009E591A2E75003759137
:10210C007FE508A2E092AF7F0802192E8E828F83A2
:10211C00E0F8A3E0C82416F582E438F58322900396
:10212C00A4E0F875F00BA4C8AAF02AF974A628FE4E
:10213C00740339FF22C0E0C0D0C082C08390618399
:10214C00E0A2E05009E5BFA2E0500375BFFEE0A29B
:10215C00E15009E5BFA2E1500375BFFDE0A2E250DA
:10216C0009E5BFA2E2500375BFFBE0A2E35009E50D
:10217C00BFA2E3500375BFF7E0A2E45009E5BFA28C
:10218C00E4500375BFEFE0A2E55009E5BFA2E550AE
:10219C000375BFDFE0A2E65009E5BFA2E650037568
:1021AC00BFBFD083D082D0D0D0E032C0E074F21266
:1021BC0018CFE5A7A2E6500FE5A1A2E6500953A758
:1021CC00BF75A1BF12220BE5A7A2E5500CE5A1A299
:1021DC00E5500653A7DF75A1DFE5A7A2E15009E59D
:1021EC00A1A2E1500375A1FDE5A7A2E2500CE5A167
:1021FC00A2E2500653A7FB75A1FB7F0102192E74B6
:10220C00F71217E3752101900376E064067015123E
:10221C000CFA8A828B83A3A3A3A3A3A3E0FAA3E063
:10222C00FB120D66A2AFE433FED2AF90037CE064E8
:10223C000170187A207B00900375E0F912139C7AD8
:10224C00207B00900375E0F912127C906182E0D241
:10225C00E6F090051DE0602185C622801690037B78
:10226C00E064017008E5C654F84405F5C653BEFC9D
:10227C00121F907401652160E4EEA2E092AF7F0220
:10228C0002188F008E238F2485822885832785183A
:10229C0082851983E0CEA3E0CF852882852783EB46
:1022AC00C9EAC8EDCBECCA75F010C3E833C8E93302
:1022BC00C9EA33CAEB33CBC3EA9EF526EB9FF5256F
:1022CC00B35004AB25AA26EC33CCED33CDD5F0DAE4
:1022DC00AE23AF242274F11217E38A088B098C0AFF
:1022EC008D0B9081AC78081215A5740F12175378CA
:1022FC000C1215CB9081AC780C1215A57808790CC2
:10230C0012144D90816450107808790C12157D7858
:10231C000812146D4014800E780C790812157D7813
:10232C000C12146D50047901800279007F08021898
:10233C008F74ED1217E38A088B098C0A8D0B908130
:10234C00AC78081215A57413121753780C1215CB10
:10235C009081AC780C1215A5780C790812144D40AC
:10236C00117808790C12157DAA08AB09AC0AAD0BD3
:10237C00802275100075110075120075130178100C
:10238C00790C12157D78107908121544AA10AB112E
:10239C00AC12AD137F0C02188F9081AC780812151B
:1023AC00CB8A828B8378081215B87F0402188F743D
:1023BC00F51217E38C828D8378081215CB8A828BE9
:1023CC00837808121591122413C3E09CF0A3E09DAE
:1023DC00122405402290817C78081215CB8A828BBE
:1023EC0083780812156A8A828B83A3A3A3A3E024A3
:1023FC0020F0A3E0344EF080A0F088828983C3E003
:10240C009420A3E0944E22EA2404F8E43BF98C8255
:10241C008D83A3A3A3A3E0FCA3E0FD888289832280
:10242C0074F51217E3E9FE9004D3E0FAA3E0FBEE97
:10243C0029F8E433F974D928F582748039F583E0EE
:10244C002AF508A3E03BF509780812198A908190C7
:10245C001215E9122290740212171D8A088B098C2E
:10246C000A8D0B7410780812150CAA08AB097F049E
:10247C0002188F74F11217E38A0C8B0D8C0E8D0FD2
:10248C0074111217531219A17411121753E024016D
:10249C00F508A3E03400F509E4F50AF50B780C799E
:1024AC000812148C90817078081215CB780C79086E
:1024BC0012148CAA0CAB0DAC0EAD0F122290740240
:1024CC0012171D8B09EA450960047A0180027A0013
:1024DC00EC2AFCE43DFD7413121753E0F8A3E0F969
:1024EC00E8FEE9FFECF8EDF97A717B0212167C88B4
:1024FC00088909E4F50AF50B8E828F83780812158A
:10250C00DAECF8EDF97A717B0212167C8A088B09E9
:10251C00740578081216F48E828F83A3A3A3A3E507
:10252C0008F0A3E509F07F0802188FC082C083E988
:10253C00906000F0D083D08222C0E0C0D0E8C0E030
:10254C00E9C0E0A2AFE433F8D2AFC2C7E8F9E8A221
:10255C00E092AFD0E0F9D0E0F8D0D0D0E032C2AF0A
:10256C0002000022FFFFFFFFFFFFFFFFC082C083BE
:10257C00E99015E5F0D083D08202011F74F6121792
:10258C0077E99002E8F0900348E0F50875090074CB
:10259C000278081216F4AA08AB091212EE9002E99E
:1025AC00122F3B9002E9123328606F900348E075BC
:1025BC00F003A4FAABF01212EE900306122F3B902C
:1025CC000306123328700B9002E91232F91212F43E
:1025DC00804890030612428D7AFF7BFF1211327AEB
:1025EC000080198A08750900740278081216F41212
:1025FC003D3574FF12273BE4F0A3F00A900348E04A
:10260C00F8EAC39840DD79051207D89002E8E0F9A2
:10261C001206C47A627B08120A54023DD874F41272
:10262C0017778A088B09EB548060479002E8E0F931
:10263C0012125E8A0A8B0BAE0AAF0BEE4F602A8E1B
:10264C00828F83E064B0701A1207EAE960148E82FC
:10265C008F83A3A3A3A3E0F9EE2405FAE43FFB12B6
:10266C0007BAEEFAEFFB12124CAA08E5096480FBDC
:10267C0080047A007B0002288B74F212177774FBAB
:10268C00121707EAFEEBFFEE4F6045740312175367
:10269C00EEF0A3EFF0851882851983ECF0A3EDF032
:1026AC007402121753E9F0AA18AB191206BEE9F519
:1026BC000870757413121753E0F50AA3E0F50BE5D7
:1026CC000A450B60638E828F83122CC4EE4F70050B
:1026DC0075080280537A067B001212EE8A0C8B0D61
:1026EC00A80CA90DE8497005750813803B888289F0
:1026FC0083E412273BEEF0A3EF122857E50AF0A370
:10270C00E50BF09002EC1228509002EC6017E0FC04
:10271C00A3E08003EAFCEBFD8C828D8312285070C1
:10272C00F38C828D83123950A908740502450DF083
:10273C00A312426FA32274F21217778908890C75C1
:10274C000D007403780C1216F4850C0A850D0B9091
:10275C0002EBF09002E912375B12284E602E121237
:10276C00F47900801D890C750D007402780C12161A
:10277C00F49002E9123BF48882F583A3A3E4F0A35E
:10278C00F009900348E0F8E9C39840D9900348E079
:10279C00FA850AF0A4CAA8F0850BF0A428FB121243
:1027AC00EE8A0C8B0DAE0CAF0DEE4F70030228446D
:1027BC00900348E0FC850AF0A4CCA8F0850BF0A4AB
:1027CC0028FD790012123A7C0080318D0C750D00B9
:1027DC007403780C1216F48A828B8312284988822F
:1027EC008983E4F0122856A3A3F0A3F00DEDC39552
:1027FC000840D8EE250AFEEF350BFF0C900348E09D
:10280C00F8ECC39850288C0C750D007402780C12DF
:10281C0016F49002E9122849E82402500109FAE959
:10282C00FB8A828B83EEF0A3EFF07D0080BFE5087E
:10283C009002EBF0790080027913024510123BF8FC
:10284C00F922A3A31232FDEA4B22A312426FA3A3D7
:10285C00A32274F41217777900EAA2E0501F7508CE
:10286C004A750981780812198A79107C047D007ADE
:10287C00E77B151207D2740212171DE9F980007F4D
:10288C0004021849C082C0839002EC123328601CE9
:10289C0088828983A3A3E06A7003A3E06B88828992
:1028AC008370E8A3A3A3A31232F980047A007B00FF
:1028BC0002258174F212177774FD121707EAFEEBEA
:1028CC00FF851882851983E4F0A3F0740212175364
:1028DC007401F0123325701412098E1212EE90024C
:1028EC00EF122F3B1233257003022A5112303BEEAC
:1028FC002404F50AE43FF50B850A82F583E024FEF7
:10290C00603C24FC607424FE607E24FE700302296B
:10291C00A124FE70030229AE24FE70030229BB24FD
:10292C00FE70030229C824FE70030229D524FC7012
:10293C00030229F624FE7003022A0E022A4A120907
:10294C008E9002F1EAF0A3EB122A5D120406E96004
:10295C0003022A4A9002F11219A18E828F83A3A33B
:10296C00A3A3A312428D8508828509831232F91222
:10297C0007A2740212171D022A4AAC18AD19EEFAFE
:10298C00EFFB1207F0022A19AC18AD19EEFAEFFBA7
:10299C001207F68078AC18AD19EEFAEFFB1207FCB3
:1029AC00806BAC18AD19EEFAEFFB120802805EAC2E
:1029BC0018AD19EEFAEFFB1208088051AC18AD19DE
:1029CC00EEFAEFFB12080E8044740212175D880CAD
:1029DC00890D780C12198A740212176DEEFAEFFB3E
:1029EC00120814740212171D8023AC18AD19EEFADC
:1029FC00EFFB12081AE9F870167402121753E4F080
:102A0C00803CAC18AD19EEFAEFFB120820E9F8E89F
:102A1C00602C8E828F83A3E064146022850A8285E9
:102A2C000B83E09002F1F08518828519831232F93C
:102A3C009002F2122F3BE8A3122A5D120400EEFA68
:102A4C00EFFB1207787402121753E0F97403024576
:102A5C000DF07CF17D028508828509831232FD22FE
:102A6C0074E812177774FA1217077404121753ECE0
:102A7C00F0A3EDF08A128B13EA2405F50EE435135E
:102A8C00F50FEA2402F510E43513F511851082F5E3
:102A9C00831232F91204F68A0A8B0B7508007C0338
:102AAC007D0079007AF17B0212123AE50E2402F5D0
:102ABC0016E4350FF517740212175D880C890D7822
:102ACC000C12198A850E82850F83A3A3A3A3E0F5AC
:102ADC000C750D00780C12198AE50E2405F50CE422
:102AEC00350FF50D780C12198A851682851783120D
:102AFC0036001206DC740612171D8A0C8B0DE50CC1
:102B0C00450D7003022C8D8020851882851983E079
:102B1C0088828983F00508851882851983A3E0C013
:102B2C00E0122CCED0E0F00508E50A24FBFAE50B08
:102B3C0034FFFBC3E5089AE49B4003022C8D7E0016
:102B4C007F00851282851383A3A3A3A3E0F50978E4
:102B5C000912198EE4F514F515781412198A7514E6
:102B6C00EE751502781412198A9002EF1219A174DD
:102B7C00091217531219A1E50A24F9F9AC0CAD0D81
:102B8C008510828511831232F912084A74091217C2
:102B9C001DE96003022C2E850E82850F83A3A3A34F
:102BAC00A3A3A3A3E0F89002EEE0687075E0F5141F
:102BBC008E15781412198A12428A850E82850F831B
:102BCC00A3A3A3A3A3A3A3A31232F91212347402D6
:102BDC0012171DE9604C9002F2123328703BE4F599
:102BEC0014781412198A7CFF7DFF79078510828571
:102BFC0011831232F91207B4740212171D12332EFC
:102C0C007017850E82850F83124427740412175394
:102C1C00123CE8123631022CC1850C82850D8312D0
:102C2C002CC4A818A91988148915781412198A7437
:102C3C00041217531219A1851682851783122F318E
:102C4C001206E8740412171D8A0C8B0DEE4F7003DC
:102C5C00022B0A122CCEEE122CD91235E7EF122CC5
:102C6C00D9F8A3E03400F9E50C450D6003022B15EF
:102C7C008882898374FFF00508122CCE74FFF0054E
:102C8C0008E508601A1313543F122F41120412E97D
:102C9C0060099002F21232F91212A67900801685A0
:102CAC000E82850F831244277404121753123CE8CA
:102CBC00123950790A0235BAA3A3A3A3E0FEA3E00C
:102CCC00FF22A8089002F2E0281235E722F005084E
:102CDC00089002F2E0282274E812177774FA12179F
:102CEC00077402121753122F3B7404121753ECF093
:102CFC00A3EDF07402121753E024051235D0E0F561
:102D0C000CA3E0F50D7402121753E02402F510A386
:102D1C00E03400F511851082F5831232F91204F6B5
:102D2C00750800750900EA24FCFEEB34FFFF8008EF
:102D3C00050CE50C7002050DA808C3EE98EF940085
:102D4C005003022EEDA818A919880E890F780E12BF
:102D5C00198A851482851583A3A3A3A31242911209
:102D6C00198AE5142405F50EE43515F50F780E12C5
:102D7C00198A851482851583122F2F1206DC74068E
:102D8C0012171D8A0E8B0FEA450F7003022EEDEA07
:102D9C002404F516E4350FF517851682F583E0F556
:102DAC000CA3E0F50D85188285198312428D8A8259
:102DBC008B83A3A3A3E0F98510828511831232F9CA
:102DCC001206CAE9F5096003022EED7402121753BC
:102DDC001235F7F509780912198EE4F512F5137806
:102DEC001212198A7512EE751302781212198A9042
:102DFC0002EF1219A174071217531219A1EEF9ACB4
:102E0C000EAD0F8510828511831232F912084A74A7
:102E1C000912171DE9F5096003022EEDE508703F54
:102E2C00E4F50EF50F780E12198A7CFF7DFF7909F7
:102E3C008510828511831232F91207B474021217AD
:102E4C001D12361D700D7404121753122F24791194
:102E5C00022F219002EEE024029002F2F0801490F6
:102E6C0002F2E0FA9002EEE0790024025001096AC5
:102E7C00497072A8089002EEE0FAE82AFAE43400ED
:102E8C00FBEE9AEF9B405A851682851783E0C0E0D3
:102E9C009002F3122CD3D0E0F0050885168285172A
:102EAC0083A3E0C0E0089002F3122CD3D0E0F0052D
:102EBC00089002EE12429112198A12428AA8081244
:102ECC0035C4121222740212171D9002EEE025086E
:102EDC00F50874FF650C700474FF650D6003022D1A
:102EEC003CE508601F9002F2E0F5F0E50884122F33
:102EFC0041120418E960099002F31232F91212A679
:102F0C0079008011E509700375090A7404121753CE
:102F1C00122F24A9090235BA12375FE50CF0A3E58C
:102F2C000DF022A3A312451CAA0CAB0D22A3A3EAFD
:102F3C00F0A3EBF0229002F1F07CF17D028510827F
:102F4C008511831232FD2274EC12177774FC121760
:102F5C0007123A60740212176D1232F31206E28AEB
:102F6C000C8B0DEA450D700302302B12303BA81868
:102F7C00A91988108911781012198A7CFF7DFF79A4
:102F8C000B8508828509831232F91207B474021278
:102F9C00171D123131700C850A82850B8312362E67
:102FAC000230388E828F83A3A3A3A3E0F51278128C
:102FBC0012198EE4F512F513781212198A7512F1A2
:102FCC00751302781212198A781012198A74091260
:102FDC0017531219A17409121753E0F9AC0CAD0D6B
:102FEC008508828509831232F912084A740912176E
:102FFC001DE9FE70157CF17D02850882850983121E
:10300C0032F912041EE97009802074166E70027E6B
:10301C00009002F21232F91212A6EE7004800B7EAE
:10302C0001850A82850B8312394DEEF9023962EE65
:10303C002402F508E43FF5092274EC12177774FCAE
:10304C00121707EAFEEBFF8C0E8D0FEE2405F50828
:10305C00E43FF509740212176D8508828509831205
:10306C0032F91206E28A0C8B0DEA450D700302311F
:10307C0021EE2402F50AE43FF50BA818A9198810D3
:10308C008911781012198A7CFF7DFF790D1232F3A9
:10309C001207B4740212171D123131700B8508829D
:1030AC0085098312362E807A8E828F83A3A3A3A3E5
:1030BC00E0F512781212198E850882850983A3A374
:1030CC001219A17512F1751302781212198A78105F
:1030DC0012198A74091217531219A1740912175371
:1030EC00E0F91232EF12084A740912171DE9FE704A
:1030FC000F7CF17D021232F3120424E97009802056
:10310C0074166E70027E009002F21232F91212A640
:10311C00EE7004800B7E0185088285098312394D7F
:10312C00EEF9023962123338F510A3E0F511EA45D5
:10313C00112274E812177774FE1217078A168B1770
:10314C008C148D15EA2405F50CE43517F50DEA24DD
:10315C0002F50EE43517F50F850E82F5831232F960
:10316C001204F68A088B09750B007C037D0079002C
:10317C007AF17B0212123A750A00E50814F5100474
:10318C0024FFF508E50934FFF50980549002F1E0BD
:10319C00FA9002EEE0F8EA28F8E43400F9E5089831
:1031AC00E50999500D9002F1E0F8E510C3989002F2
:1031BC00EEF0E0F512751300781212198A12428A99
:1031CC009002F2E02AFAA3E03400FB1212227402FD
:1031DC0012171D9002EEE0F89002F1E028F0050ABB
:1031EC00850C82850D83A3A3123C0440030232D4C8
:1031FC009002F1E0C39508E4950940030232D4AE85
:10320C000AEE2EFEE433FF123313AC18AD19124242
:10321C00A5E439FB1206E28A128B13AC12AD13EC47
:10322C004D701B750B011233031239519002F212BF
:10323C00285060031212A6A90B74020235BC851625
:10324C0082851783A3A3A3A3E0F50B780B12198E29
:10325C00E4F512F513781212198A7512EE75130231
:10326C00781212198A9002EF1219A17407121753CF
:10327C001219A1A910850E82850F831232F912083A
:10328C004A740912171DE9F50B709B9002F2123368
:10329C00286003023198E4F512F513781212198A9A
:1032AC007CFF7DFF790F850E82850F831232F91218
:1032BC0007B4740212171D12332E600302319812D8
:1032CC0033031236320232457CF17D02850E828543
:1032DC000F831232F912042AE960030232387900A2
:1032EC00023245AC0CAD0D850A82850B831232FD82
:1032FC0022E0FAA3E0FB22123313E0FAA3E0F9EA8E
:10330C0085148285158322850C82850D83E02EF829
:10331C00A3E03FF988828983229002EF12442BE8C4
:10332C004922123338F8A3E0F9E849229002F2EA74
:10333C00F0A3EBF09002F2E02274E812177774FA23
:10334C001217077404121753122F3B8C168D177417
:10335C0004121753E02405F50EA3E03400F50F74A6
:10336C0004121753E024021235D01232F91204F66B
:10337C008A0A8B0B7F007E00A818A9198808890976
:10338C00780812198A850E82850F83A3A3A3A3E064
:10339C00F5088E09780812198AE50E2405F508E45B
:1033AC00350FF509780812198A850E82850F83A3CB
:1033BC00A31236001206DC740612171D8A0C8B0D34
:1033CC0080291235F1F00F1235F1F00F9002EE1248
:1033DC00393C12198A12428AEFF81235C4121222A1
:1033EC00740212171D9002EEE02FFFE50C450D70D4
:1033FC0003023480851882851983123A72A3A3A321
:10340C00E0F98514828515831232F91206CAE9FE99
:10341C00E50C2404F510E4350DF511EE7050740430
:10342C001217531235F7F508780812198EE4F508BF
:10343C00F509780812198A7508EE750902780812D0
:10344C00198A9002EF1219A174071217531219A1BD
:10345C00E50A24FAF9AC0CAD0D851482851583129E
:10346C0032F912084A740912171DE9FE6039123636
:10347C000D123950EF70030235A79002F2E0F5F00F
:10348C00EF849002F1F07CF17D0285148285158326
:10349C001232F9120430E960099002F31232F91277
:1034AC0012A679000235BA8F08EF703BE4F512F5DD
:1034BC0013781212198A7CFF7DFF7911851482858D
:1034CC0015831232F91207B4740212171D12361D2D
:1034DC00700912360D1236310235BA9002EEE02424
:1034EC00049002F2F080359002EEE0F89002F2E0E7
:1034FC00FAE82404FCE43400FDEC6A4D6003023469
:10350C0086E50A24FAFAE50B34FFFBE50828F8E413
:10351C003400F9EA98EB99500302348685108285C1
:10352C001183E0C0E09002F3E02FF8A3E0340088B0
:10353C0082F583D0E0F00F851082851183A3E0C063
:10354C00E01235DED0E0F00F740212175D880889A6
:10355C0009780812198A74021217531219A1850ED0
:10356C0082850F83122F2F1206E8740412171D8AFE
:10357C000C8B0DEA450D70030233CE7402121753F7
:10358C00E0C0E01235DED0E0F00F7402121753A346
:10359C00E0C0E01235DED0E00233D6EE70027E0AD7
:1035AC00850E82850F83123613123950EEF974068C
:1035BC0012171D7F100218499002F3E028FAA3E0BD
:1035CC003400FB22F514A3E03400F515851482F5C4
:1035DC0083221235E2229002F3E02FFAA3E03400AA
:1035EC008A82F583221235E274FF2212375FA3A37D
:1035FC00A3A3E02212451C850E82850F831232FD97
:10360C002285108285118312442B8516828517839F
:10361C00229002F3EAF0A3EBF09002F312442BE8B1
:10362C004922123956E8F0A3E9F079112274EA1212
:10363C00177774FE1217078A088B098C128D13EA00
:10364C002405FEE43509FFAC18AD198E828F831268
:10365C0032F91206E28A0C8B0DEE2406F50EE43FCD
:10366C00F50FEA450D7003023731E5082402F50A1F
:10367C00E43509F50B8A828B83A3A3A3E0A2E55062
:10368C00288518828519831232F912083E8A108B0C
:10369C0011EA4511602079121232EF8510828511E2
:1036AC0083121775E9F50C707F850E82850F83E008
:1036BC00600979528011750C0E806D850882850920
:1036CC0083A3A3A3A3E0F9E4F508F509780812197C
:1036DC008A8E828F83A3A3E0F508780812198A8E4C
:1036EC00828F83A3A3A31219A18E828F8312428D82
:1036FC001232F3120850740612171DE9F50C7011F2
:10370C00850E82850F83E0702D1232F31204368001
:10371C00257416650C7011750C0074181217531261
:10372C00375BE48010750C011244238512828513DB
:10373C0083E8F0A3E9F0850E82850F83E0600479BD
:10374C00008002A90C740212171D7F0E0218491278
:10375C00375F22E0F8A3E0F58388822274EC12171D
:10376C007774F71217078A0A8B0B8C108D11EA24C9
:10377C0005FEE4350BFF750C00AC18AD198E828F6D
:10378C00831232F91206E28A088B09EA45097003A2
:10379C00023927E50A2402F50A5002050B8A828BAE
:1037AC0083A3A3A3E0A2E5502F8518828519831269
:1037BC0032F912083E8A0C8B0DEA450D604F7912D6
:1037CC00AC08AD091232F3850C82850D8312177586
:1037DC00E9F50C600302392A850A82850B83E0F532
:1037EC0008A3E0F509AA08FB120832EA4B70197A13
:1037FC00FF7BFF120832EA4B700302391D8A828B61
:10380C0083E508F0A3E509F07508008008750C0E37
:10381C0002392A05089002EBE0F8E508C39840034A
:10382C0002391D85080E750F007403780E1216F4FC
:10383C008A828B83A3A3E0250EF8A3E0350F123CFC
:10384C00F170D08E828F83123945122F3B8E828F6E
:10385C0083A3A3123945122F39EE2404F508E43F53
:10386C00F509850882F583E088828983A3A3A3A345
:10387C00F0A3E4F0EE2405F50EE43FF50F850E827F
:10388C00F583123945A3A3A3A3122F39751207751B
:10389C001300781212198AEEFCEFFD7404121765EE
:1038AC00121222740212171DE4F512781212198AE0
:1038BC00850882850983E0FC7D0079171232F312AA
:1038CC0007B4740212171D7407121753122F3B748E
:1038DC0007121753E0FA4B603D8508828509831265
:1038EC00393C12198A850E82850F8312428D121271
:1038FC0022740212171D740212176D1232F3120485
:10390C003CE9602674071217531232F91212A68082
:10391C0019750C098008750C118003750C01124483
:10392C0023851082851183123950A90C74098028C3
:10393C00E0F5087509007808221232FD8882898327
:10394C0022123956E8F0A3E9F022E0F8A3E0F98559
:10395C000E82850F8322740412171D7F0C021849E6
:10396C0074EC121777123A60751000EE2402F50C05
:10397C00E43FF50D850C82F5831232F91208328A78
:10398C00088B09EA45097003023A44850A82850BC3
:10399C0083E064016003023A39AC08AD09AA0AABB2
:1039AC000B120826E9606E850882850983122CC6E5
:1039BC00EE2406F50AE43FF50B8E828F83A3A31247
:1039CC0019A18E828F83A3A3A3A31219A1850A82A6
:1039DC00850B831219A179188E828F83123A721279
:1039EC0032F9120850740612171DE9F87416687033
:1039FC000B850A82850B83E4F0A38014E860128E99
:103A0C00828F831232F9850E82850F83EAF0A3EB45
:103A1C00F088108018780E12198AAC08AD09EEFAED
:103A2C00EFFB12082C740212171DE9F510AA08AB53
:103A3C0009120838E510700E850C82850D83123240
:103A4C00F91204428009741665107003751000A9F0
:103A5C0010023967EAFEEBFF8C0E8D0FEE2405F594
:103A6C000AE43FF50B2212451C850C82850D83223E
:103A7C0074EA1217777508007509007E007F0075CF
:103A8C000A00EC2402F510E43DF5118035EC6508D4
:103A9C007003ED65096003023B3188828983A3A31F
:103AAC00E06A7003A3E06B707C88828983A3A3A374
:103ABC00A3124427EE28FEEF39FFEA28FAEB39FB74
:103ACC00050A123C01503A850A0C750D00740378F6
:103ADC000C1216F4851082851183123BF4123CF102
:103AEC00601FE508450970A58C088D0988828983BB
:103AFC00122CC488828983A3A3E02EFAA3E03F8012
:103B0C00BEE50AC394025003023BEF750800750929
:103B1C0000EE4F6010EEFAEFFB1212A08A0E8B0F24
:103B2C00EA450F70057900023BF1750B00023BC4AE
:103B3C00850B0C750D007403780C1216F48510822D
:103B4C00851183E0250CF50CA3E0350DF50DE50C86
:103B5C002406F514E4350DF515851482F583123C15
:103B6C00F66042E50C2404F512E4350DF5138512CC
:103B7C0082F5831219A1E50E2508FAE50F3509FB2C
:103B8C00121222740212171D851282851383E025EE
:103B9C0008F508A3E03509F509851482851583120B
:103BAC0032F91212A6E50B600D7C087D007900AA93
:103BBC000CAB0D12123A050BE50BC3950A50030220
:103BCC003B3C85108285118312442788828983A30C
:103BDC00A3A3A3A3A3E50EF0A3E50F122857EEF0C1
:103BEC00A3EFF07901023756123BF822E0250CF8CE
:103BFC00A3E0350D229002EBE0F8E50AC39822749D
:103C0C00F01217778A0E8B0F8C0A8D0B750D0075C1
:103C1C000C0080507916EE2406F508E43FF5098E69
:103C2C00828F83A3A31219A18E828F83A3A3A3A334
:103C3C001219A18508828509831219A1850E828526
:103C4C000F83A3A31232F9120850740612171DE940
:103C5C00F50D7416650D706C850882850983E4F08A
:103C6C00A3F0050C9002EBE0F8E50CC3985066AAA3
:103C7C000C8A08750900740378081216F4850A82F8
:103C8C00850B83A3A3123D40E8FEE9FF8E828F8350
:103C9C00123CF66040EA2401F508E43400F5099082
:103CAC0002EBE065087002E509601488828983A341
:103CBC00A3A3A3A3A3A3A31233286003023C2079DC
:103CCC0018023C22E9609B12442374101217531201
:103CDC003CE8123950A90D7F08021849E0FAA3E01C
:103CEC00F5838A8222F98882898312451CEC4D2245
:103CFC0074F61217777C0080010C900348E0F8EC06
:103D0C00C398501E8C08750900740278081216F4BA
:103D1C00123D35E06A7003A3E06B70DDE8FAE9FB55
:103D2C0080047A007B00023DD89002E9123D408865
:103D3C0082898322E02508F8A3E03509F92274F280
:103D4C001217778A088B09750A0080278E828F8359
:103D5C00A3A3A3A312284E60031212A67C087D0015
:103D6C007900EEFAEFFB12123A8E828F83E4F0A305
:103D7C00F0050A123C015027850A0C750D007403DE
:103D8C00780C1216F4850882850983A3A3E0250C10
:103D9C00FEA3E0350DFF8E828F8312332870AD8524
:103DAC00088285098374FFF0A3F002451074F612A3
:103DBC0017771207E48A828B83E582458370067A33
:103DCC00007B008007A3A3A3A31232F97F02021881
:103DDC004974F412177789088C828D83E064027021
:103DEC003C1243C6FEA3E0F9EEF87402687003744B
:103DFC0029697029750A02750B00780A12198A74E0
:103E0C00101217531219A174101217531219A1A9D9
:103E1C0008121144740612171DE9F9800279010287
:103E2C00288B74E812177774FB121707E985188230
:103E3C00851983F08A168B17ECFEEDFF7510008E3A
:103E4C00828F83A3A3A3E0A2E4502D741D121753F9
:103E5C001232F912083E8A828B83E5824583700305
:103E6C00024265790AEEFCEFFDAA16AB1712177524
:103E7C00E9F5106003024268741F121753E0F5084D
:103E8C00A3E0F5097421121753E0F50AA3E0F50B32
:103E9C007423121753E0F50EA3E0F50F8E828F8377
:103EAC00E064026003024206A3124427850882855F
:103EBC000983A3858212858313EE2406F50CE43F57
:103ECC00F50D888289831242A5F514E439F515782D
:103EDC0014121A14010000280128083F07000228B8
:103EEC00CD3F03283B3F0029FC40012927410229F3
:103EFC00C8400329FC400429A0410642E50E450FA9
:103F0C006003024201850C82850D83124427E8FA76
:103F1C00E9FB8A828B83E0850A82850B831242B08F
:103F2C0012198A8A828B83A3E0FCA3E002418AE502
:103F3C000E450F6003024201850A82850B837401D2
:103F4C00F012429A850882850983F07C007D008EF0
:103F5C00828F83A3A3A3A3E02401FAA3E03400FB84
:103F6C001206E2EA4B60408A828B83E02402F885D9
:103F7C000A82850B83E028F0EA2404F8E43BF988F4
:103F8C00828983E08512828513831242BE1242B06D
:103F9C0012198A8A828B83A312428DE5082403FAB4
:103FAC00E43509FB02418F850A82850B83E02404EA
:103FBC00F07C047D007900AA12AB1312123A024273
:103FCC0068E50E450F600302420112429AFEA3E01F
:103FDC00FF850A82850B837404F0EE8508828509BF
:103FEC0083F0EF851282851383F0740312176DEE44
:103FFC00FAEFFB1206E28A0C8B0DEA450D700302F8
:10400C0040AB8A828B83A3A3122CC4740112175D5C
:10401C00880E890F780E12198A740512175312190B
:10402C00A17CFF7DFF1206E8740412171D8B0FEAAA
:10403C00450F7033850C82850D8312429112198ABB
:10404C00850C82850D83A31219A17C027D007ACE8A
:10405C007B811204E4740412171DE9700A740112B6
:10406C00175374FFF0A3F08E828F83E064027039D3
:10407C00750C02750D00780C12198A8E828F83A331
:10408C0012428DE5082404FAE43509FB121222745D
:10409C000212171D850A82850B83E02402800974A5
:1040AC0001121753EEF0A3EFF074011217531242E2
:1040BC007F74011217531242760241FBE50E450F35
:1040CC006003024201850C82850D83124515AA16E8
:1040DC00AB1712114A850A82850B837402F085088E
:1040EC0082850983EAF0851282851383EB0241FEF7
:1040FC00E50E450F600302420112429AF8A3E0F963
:10410C00850A82850B837402F0E885088285098311
:10411C00F0E98512828513830241FE850C82850DA0
:10412C00831232F912121CEAFAF8C3950EE4950FB9
:10413C00405CE8650E450F70047A0080218518827A
:10414C00851983E0FCE50E2CFCE4350FFDC3EC98DF
:10415C00ED94005003E08005E50ECAC39AFAEA8597
:10416C000A82850B83F08A0A750B00780A12198A69
:10417C00850C82850D83E0250EFCA3E0350FFDAA8E
:10418C0008AB09121222740212171D024268751034
:10419C0007024268E50E450F705B850C82850D8326
:1041AC00124427850A82850B837407F088828983E1
:1041BC0012427712426FE0851282851383F0E82455
:1041CC0002FAE439FB8A828B8312427F8A828B83C8
:1041DC00124276A3A3122856124284F0E82405F862
:1041EC0050010988828983124284A31242BEA3A380
:1041FC00A3A3F0806775100B8062741D1217531205
:10420C0032F91207E48A828B83E5824583604A1275
:10421C004427880C890DE8450D603E742512175310
:10422C00E0F510781012198E780E12198A780A128D
:10423C00198A780812198A7407121753E0F9EEFCE0
:10424C00EFFDAA16AB17850C82850D8312177574BA
:10425C000712171DE9F510800375100EA9107405CF
:10426C000235BCF088828983A322A3E0850882856D
:10427C000983221242C5F0221242C5A3A322900246
:10428C00EF12451C22E0F50E750F00780E22850CFE
:10429C0082850D8312375FE022E0FAA3E0F8E4C8D0
:1042AC00F9EA2822F08A828B83E0F50A750B0078F4
:1042BC000A2212426F1242C522E0850882850983C8
:1042CC00A3A32274EE12177774FE1217078A088BB9
:1042DC0009ECFEEDFF890AAC18AD19EEFAEFFB12F2
:1042EC0006E28A0C8B0DEA450D70030243B7851864
:1042FC00828519831232F91207E48A828B83E58254
:10430C00458370030243B2A3A3124427880E890F7E
:10431C00E8450F70030243B27414121753E0F51002
:10432C00A3E0F511E50AF50B780B12198E7419122E
:10433C0017531219A1781012198A741B121753E013
:10434C00F9AC0CAD0DAA08AB09850E82850F831252
:10435C001775740512171DE9F50B705274FE650A7A
:10436C00604C850C82850D83E0640270411243C65B
:10437C00FAA3E0F9EAF87402687003742969702EE4
:10438C008510828511831242A5F50CE439F50D7860
:10439C000C12198AEEFCEFFDAA08AB09120868741E
:1043AC000212171D8008750B0E8003750B01A90BEB
:1043BC00740212171D7F0A021849A312442B88821B
:1043CC008983E02274F612177774FE121707740CA7
:1043DC00121753124427E8851882851983F074014B
:1043EC00121753E9F0E4F508F509780812198A75E3
:1043FC000802780812198A740412175D8808890952
:10440C00780812198A79FE120850740612171D7456
:10441C000212171D023DD88E828F8312442B22E08C
:10442C00F8A3E0F92274F7121777EAFEEBFF89087C
:10443C0090030612428D12114AEA5402600BA9082D
:10444C00EEFAEFFB1206D6800279017F01021849C1
:10445C0074F212177774FE121707EAFEEBFF890A43
:10446C007401650A60147402650A600302450B79D5
:10447C0001120A72E9600302450BEEFAEFFB120817
:10448C0032EA4B6003120838A818A9198808890960
:10449C00780812198A750802750900780812198AA9
:1044AC007508D4750981780812198A7CFF7DFF7A0A
:1044BC00017B001206DC740612171D8038850882F9
:1044CC00850983A3A3A3A3A3A3124515EEFAEFFBBF
:1044DC00121132E4F50CF50D780C12198A740212D3
:1044EC0017531219A17CFF7DFFAA08AB091206E82D
:1044FC00740412171D8A088B09E508450970BE74EF
:10450C000212171D7F0602184912375F12451C2232
:10451C00E0FCA3E0FD2274F41217778A088B09ECF7
:10452C00FEEDFF9015E5E0F4604B7A097B0012126A
:10453C0046EA4B60408A828B8374B1F0A3E4124547
:10454C0084F08A828B83A3A3E508F0A3E5091245C6
:10455C0084A3EEF0A3EFF0740C1217531244278AC5
:10456C00828B83A3A3A3A3A3A3A31239509015E515
:10457C00E0F912125202288BF08A828B83A3A3A338
:10458C00A32274EE12177774FA1217078A0A8B0B90
:10459C00E9FF8C088D097E00850A0C850B0D780CC3
:1045AC001219CE0004106A48D645F94518463B4608
:1045BC005E468146B246D546EC461C47CB47EE4795
:1045CC0011483F486A486A48454774016F7019851D
:1045DC000882850983E0C39403500D850882850900
:1045EC0083E09016D1F080027E1802489274026F1C
:1045FC007015850882850983E0F8A3E0F99016D23E
:10460C00E8F0A3E9F080027E1802489274016F7002
:10461C0019850882850983E0C39402500D850882B0
:10462C00850983E0900749F080027E180248927455
:10463C00016F7019850882850983E0C39405500DBC
:10464C00850882850983E090074AF080027E180273
:10465C00489274016F7019850882850983E0C394B0
:10466C0002500D850882850983E090074BF080028B
:10467C007E1802489274106F7027750C10750D001F
:10468C00780C12198AAC08AD097A4C7B07121222ED
:10469C00740212171D8A0C8B0D850C82850D83807C
:1046AC00027E1802489274016F7019850882850980
:1046BC0083E0C39402500D850882850983E090073E
:1046CC005CF080027E1802489274016F700D8508B0
:1046DC0082850983E09016D5F080027E18024892FC
:1046EC0074046F7026908190780C1215CB8508821B
:1046FC00850983780C12145D501185088285098315
:10470C001215F590075E12160180027E180248926F
:10471C00EF702112067CE970131210D8E9F50D79AF
:10472C0050121372E9F50C1210C6800A9007F1743E
:10473C0001F080027E1802489274076F707C750E2F
:10474C0006750F00780E12198A850882850983A3D5
:10475C00AC82AD8374021217651212287402121700
:10476C001D8A108B1185100E85110F7C007D00AAFF
:10477C0018AB19850882850983E0F912106CE9F5EC
:10478C000CE50CC3940A502E12067CE97015A90C8A
:10479C001210DEE9F50E7950121372E9F50D1210B4
:1047AC00C68019A80C790074F228F582740739F5C3
:1047BC00837401F080067E0280027E180248927497
:1047CC00016F7019850882850983E0C39402500D2E
:1047DC00850882850983E090075DF080027E1802CF
:1047EC00489274016F7019850882850983E0C3941F
:1047FC000A500D850882850983E09016D4F080025A
:10480C007E1802489274016F702585088285098391
:10481C00E0C394074019850882850983E0C394118D
:10482C00500D850882850983E09016D6F080577E5E
:10483C0018805374016F70229007F0E0F50C850816
:10484C0082850983E09007F0F0E50C70399007F051
:10485C00E0640170311210C6802C7E188028C3E5EC
:10486C000A9427E50B9400501B74026F7016850890
:10487C0082850983E0FCA3E0FDAA0AAB0B1204FCC1
:10488C00E9FE80027E02EEF9740612171D7F0A0201
:10489C00184974EC12177774DA121707890D8A12FB
:1048AC008B138C0A8D0B743A121753E0F50C908114
:1048BC0038AC18AD19740612161AAC18AD19AA1228
:1048CC00AB13A90D12106CE9FEEEC3940A4003025F
:1048DC004A12EEF91210A8E9FF9016D1E0640270AA
:1048EC0004740180027400F508780812198EAD0C5E
:1048FC00EFFCEEF9AA0AAB0B12111A740112171D78
:10490C007C147D007900741212176512123A8A0E0B
:10491C008B0F850E08850F09741212176D7A10759E
:10492C00F006EEA42424F912136CE9703C7C107987
:10493C00FF741212176512129AE9702D7422121755
:10494C0053AC82AD837A0475F006EEA42425F912DB
:10495C00136CE9F508741212176DEFA2E0E433F949
:10496C00AA0AAB0B120586E9F8740612176D7A0CBD
:10497C0074702EF912136CE97079740612176512A3
:10498C00109C750E00E50EC394045067A80E7900B8
:10499C00E875F003A4C8AAF075F000A42AFA75F023
:1049AC0003E9A42AF97406121753E58228F508E5E1
:1049BC008339F509850882850983E0F8A3E0F9E8D5
:1049CC0049602C850882850983A3A3E0F510751135
:1049DC0000781012198A850882850983E0FCA3E00F
:1049EC00FDAA0AAB0B120856740212171DE9F80542
:1049FC000E8092EFA2E1500E900748E0F9AA0AABA4
:104A0C000B12085CE9F87404650C700F9016D1E079
:104A1C0064027007AA0AAB0B1211147900742612E7
:104A2C00171D7F0C02184974F7121777EAFEEBFF7B
:104A3C0012067CE970679007F1E06401701B12109C
:104A4C00D8E9F5089007F17400F07C0A7D00790034
:104A5C007AF27B0712123A8039750800E508C39484
:104A6C000A502FA808790074F228F582740739F5DA
:104A7C0083E064017018A9081210DEE9FAA808791D
:104A8C000074F228F582740739F5837400F0050878
:104A9C0080CA7950121372E9F5081210C67F010210
:104AAC00184974F2121777890BEAFEEBFF8C088D0C
:104ABC0009750A0AE50B600C146009146044146053
:104ACC0064024B53EEFAEFFB1210BAE9F50AE50A51
:104ADC00C3940A5072E5084509606C750C06750D97
:104AEC0000780C12198AEEFCEFFDAA08AB09121221
:104AFC0022740212171D8A0C8B0D850C82850D8376
:104B0C008045EEFAEFFB1210B4E9F50AE50AC394FE
:104B1C000A5034E5084509602EAA08AB09A90A1207
:104B2C0010AEE98022EEFAEFFB1210C0E9F50AE5AF
:104B3C000AC3940A5011E5084509600BAA08AB0991
:104B4C00A90A1210AEE9F8A90A7F0602184974F2F4
:104B5C001217778A0C8B0DE9FF7E1574FF650C70AC
:104B6C000474FF650D702A750800E508C3940A509B
:104B7C0014EFFC7A027B00A90812108AE960027E0D
:104B8C0000050880E5EF60627A027B11120A9680BC
:104B9C0059AA0CAB0D120A668A0A8B0B850A08857A
:104BAC000B09E508450960407C007D00E5082405FB
:104BBC00FAE43509FB850882850983A3A3A3A3E046
:104BCC00F912106CE9F50AE50AC3940A500EEFFCD1
:104BDC007A027B00A90A12108AE97E00EF600BAA08
:104BEC0008AB0912110280027E14EEF97F0602183E
:104BFC004974EE1217778A0E8B0F8C0A8D0B741278
:104C0C00121753E0F50CA3E0F50D75081574FF654C
:104C1C000E700474FF650F701E7E00EEC3940A5074
:104C2C0061AC0CAD0DAA0AAB0BEEF9121090E96059
:104C3C00037508000E80E4AA0EAB0F120A668A10E8
:104C4C008B11AE10AF11EE4F60357C007D00EE2461
:104C5C0005FAE43FFB8E828F83A3A3A3A3E0F91292
:104C6C00106CE9F509E509C3940A5016AC0CAD0DAE
:104C7C00AA0AAB0BA909121090E9750800800375FC
:104C8C000814A9087F0A02184974F7121777EAFE6C
:104C9C00EBFF900762EEF0A3EFF0900748E0FC7D8D
:104CAC00007A267B001204FCE9F508900748E0F92D
:104CBC001207C07F0102184974F012177774EC12B6
:104CCC0017078A0C8B0D850C82850D83A3A3E0241A
:104CDC00FA700302513D24FD7003024FB2147003AD
:104CEC00024DB414601024FD7003024F5A1470036B
:104CFC00024FF1025150AE0CAF0D900762E0F8A3D9
:104D0C00E0F9E8496066900762E0F8A3E0F5838873
:104D1C0082E0F8A3E0F9E8496052EE240CF582E455
:104D2C003FF583E0F508780812198EEE240BF58216
:104D3C00E43FF583E0F98E828F83A3A3A3A3A3A3FF
:104D4C00A3A3A3E0FCA3E0FDEE2403FAE43FFB9055
:104D5C000762E0F8A3E0F5838882E0F8A3E0F5832E
:104D6C008882121775740112171D80398E828F83F9
:104D7C00A3A3A3A3A3A3A3A3A31219A190075E1299
:104D8C0015E9120598740212171DE9601879018E45
:104D9C00828F83A3A3A3A3A3A3A3A3A3E0FAA3E05B
:104DAC00FB120592E9025150AE0CAF0D7508008E46
:104DBC00828F83A3E06003024EDC8E828F83A3A3D9
:104DCC00A3A3A3E0A2E04003024EDC9007FCE0F8B2
:104DDC00A3E0F9E8496003024EDC7C0E7D0079000B
:104DEC00AA18AB1912123A8A0A8B0BAA0AAB0BEE51
:104DFC00240CF582E43FF583E0F8A3E0F9E8496080
:104E0C0036750A06750B00780A12198AEE240CF511
:104E1C0082E43FF583E02410FCA3E03400FD74022F
:104E2C00121765121222740212171D8A0A8B0B8537
:104E3C000A82850B83804F8E828F83A3A3A3E0FA13
:104E4C00A3E0FB120A668A0E8B0F850E0A850F0BE8
:104E5C00E50A450B602D750E06750F00780E1219BC
:104E6C008AE50A2405FCE4350BFD74021217651261
:104E7C001222740212171D8A0E8B0F850E82850F5B
:104E8C008380030251508E828F83A3A3A3A3A3E03C
:104E9C00A2E25004D2F08002C2F0A2F0E433F8791E
:104EAC0000740C121753E048F0A3E049F0EEFCEF4D
:104EBC00FDAA18AB191210A2E970127A027B0090AD
:104ECC000748E0F9121276E979000251527508157B
:104EDC00900762E0F8A3E0F9E849606F900762E0A0
:104EEC00F8A3E0F5838882A3A3E0F8A3E0F9E849EE
:104EFC0060598E828F83A3E0FC79018E828F83A30D
:104F0C00A3A3E0FAA3E0FB900762E0F8A3E0F5832B
:104F1C008882A3A3E0F8A3E0F5838882121775E5D5
:104F2C00086028AC0879038E828F83A3A3A3E0FAD0
:104F3C00A3E0FB900762E0F8A3E0F5838882A3A3CB
:104F4C00E0F8A3E0F5838882121775025150AE0C7D
:104F5C00AF0D900762E0F8A3E0F9E84960459007CF
:104F6C0062E0F8A3E0F5838882A3A3E0F8A3E0F95C
:104F7C00E849602F850C82850D83A3E0FC79028EB5
:104F8C00828F83A3A3A3E0FAA3E0FB900762E0F86F
:104F9C00A3E0F5838882A3A3E0F8A3E0F5838882DD
:104FAC00121775025150AE0CAF0D7C007D00EE2433
:104FBC0004FAE43FFB8E828F83A3A3A3E0F91210C3
:104FCC006CE9F508E508C3940A5017EE240AFCE4D2
:104FDC003FFD7A0475F006E508A42425F912136642
:104FEC00E9F8025150AE0CAF0D90075DE0601990DE
:104FFC0016D4E0F98E828F83A3A3A3E0FAA3E0FB7F
:10500C00120592E9F80251509016D1E0701679050C
:10501C008E828F83A3A3A3E0FAA3E0FB120592E98F
:10502C00F80251508E828F83A3A3A3E0FAA3E0FB76
:10503C00120A668A0A8B0B850A08850B09E5084556
:10504C000970030251508E828F83A3A3A3A3A3A341
:10505C00A3E0A2E0506D850882850983A3A3A3A3D6
:10506C00E060608E828F83A3A3A3A3A3A3A3A3A3B7
:10507C00E0F50AA3E0F50B7409780A1216E5E50AC7
:10508C005401F8E50B5400F9E8A2E04036740E1216
:10509C00176DE5082405FAE43509FB8508828509B6
:1050AC0083A3A3A3A3E0F912106CE9701679038E05
:1050BC00828F83A3A3A3E0FAA3E0FB120592E9F885
:1050CC00025150EE2405FCE43FFD850882850983DE
:1050DC00A3A3A3A3E0F98E828F83A3A3A3E0FAA3D7
:1050EC00E0FB12110E900762E0F8A3E0F9E84960CA
:1050FC0053900762E0F8A3E0F5838882A3A3E0F85D
:10510C00A3E0F9E849603D7C0079008E828F83A38F
:10511C00A3A3E0FAA3E0FB900762E0F8A3E0F58319
:10512C008882A3A3E0F8A3E0F58388821217758028
:10513C0013AE0CAF0D8E828F83A3A3A3E0FAA3E072
:10514C00FB1210667901741412171D7F080218499E
:10515C0074F512177774F21217078909EAFEEBFF40
:10516C008C0AAC18AD197A0E75F006E509A424204A
:10517C00F912136CE9705F7C0679FFAA18AB19124F
:10518C00129AE97051740C121753E0F8A3E0F9E885
:10519C00F508E50A6005EE42088004EEF45208A812
:1051AC00087900740C121753E0687003A3E069606F
:1051BC0021A8087900740C121753E8F0A3E9F0AC9D
:1051CC0018AD197A0E75F006E509A42420F912130E
:1051DC0066E9790180027900740E12171D7F0302B3
:1051EC00184974F012177774E6121707890B8A0C9A
:1051FC008B0DECFEEDFF740C12176D7A0E75F0062C
:10520C00E50BA42420F912136CE9600302531E7CF5
:10521C000679FF740C12176512129AE96003025397
:10522C001EAC18AD197A0C7470250BF912136CE9BD
:10523C00600302531A750A00AA18AB1912109CE5E8
:10524C000C450D702E7C0C7900AA18AB1912129A11
:10525C00E960030253007C0C7D007900AA18AB199D
:10526C0012123A8A088B09850882850983750A010E
:10527C00025300AC18AD19AA0CAB0D1210968A0E85
:10528C008B0F850E08850F09E50845097030EE4F28
:10529C00601BAC18AD197A007B001210968A0E8B2D
:1052AC000FA80EA90F88088909E8497004790080B5
:1052BC0063850882850983E50CF0A3E50DF085086C
:1052CC0082850983A3A3E0F87900EE687002EF6988
:1052DC006022EEC0E0850882850983A3A3D0E0F0AC
:1052EC00EE4F700D8508828509837400F0A374005D
:1052FC00F0750A01E50A6016AA18AB1912109CACDD
:10530C0018AD197A0C7470250BF9121366E9790132
:10531C0080027900741A12171D7F0802184974F65E
:10532C001217778A088B097E00EEC394045050EE56
:10533C00F87900E875F003A4C8AAF075F000A42A67
:10534C00FA75F003E9A42AF9EC28F582ED39F58316
:10535C00E065087004A3E065097021EEF87900E8B7
:10536C0075F003A4C8AAF075F000A42AFA75F0032E
:10537C00E9A42AF9EC28FAED39FB80070E80AA7A09
:10538C00007B007F0202184974F71217777C00EC3F
:10539C00C394044003025443ECF87900E875F0031D
:1053AC00A4C8ADF075F000A42DFD75F003E9A42D93
:1053BC00F9EA28F582EB39F583E0F4FEA3E0F4FF7B
:1053CC00ECF87900E875F003A4C8ADF075F000A412
:1053DC002DFD75F003E9A42DF9EA28F582EB39F5DA
:1053EC0083EEF0A3EFF0ECF87900E875F003A4C8B5
:1053FC00ADF075F000A42DFD75F003E9A42DF9EACC
:10540C0028F582EB39F583A3A3E0F4C0E0ECF8793E
:10541C0000E875F003A4C8ADF075F000A42DFD757F
:10542C00F003E9A42DF9EA28F582EB39F583A3A35F
:10543C00D0E0F00C02539B7F0102184974F0121754
:10544C007774F4121707EAFEEBFF8C088D099007AE
:10545C00FCE0F8A3E0F9E849702CEE4F6006E50893
:10546C004509700579010256F4EEFAEFFB1210BAF9
:10547C00E99016D7F09016D7E0C3940A40081210A2
:10548C00CCE99016D7F09016D7E0C3940A400302EB
:10549C0056F29007FCE0F8A3E0F9E84960030255E6
:1054AC003EEEFCEFFD7A0E75F0069016D7E0A424C4
:1054BC0020F9121366E9F50C7C0C7D0079FFAA1813
:1054CC00AB1912123A8A0E8B0F850E0A850F0BAC94
:1054DC0018AD197A0C9016D7E02470F9121366E9FE
:1054EC00F50D750E0E750F00780E12198AEEFCEF85
:1054FC00FD9016D7E0F87900E875F00EA4C8AAF074
:10550C0075F000A42AFA75F00EE9A42AF97464283F
:10551C00FA740739FB121222740212171D8A0E8BB1
:10552C000FA80EA90F9007FCE508F0A3E509F002FF
:10553C0056EE9007FCE0F8A3E0C82406F582C834C8
:10554C0000F583E0F8A3E0F9E84960439007FCE03C
:10555C00F8A3E0C82406F582C83400F583E0FCA368
:10556C00E0FD7A1B75F0069016D7E0A42421F91201
:10557C001366E9F89007FCE0F9A3E0C92406F5826C
:10558C00C93400F5837400F0A37400F00256EE9059
:10559C0007FCE0F8A3E0C8240AF582C83400F583C0
:1055AC00E0F8A3E0F9E84960439007FCE0F8A3E0D9
:1055BC00C8240AF582C83400F583E0FCA3E0FD7A28
:1055CC001B75F0069016D7E0A42422F9121366E995
:1055DC00F89007FCE0F9A3E0C9240AF582C934006D
:1055EC00F5837400F0A37400F00256EE9007FCE013
:1055FC00F8A3E0C8240CF582C83400F583E0F8A3C6
:10560C00E0F9E84960439007FCE0F8A3E0C8240CFB
:10561C00F582C83400F583E0FCA3E0FD7A1075F048
:10562C00069016D7E0A42423F9121366E9F8900724
:10563C00FCE0F9A3E0C9240CF582C93400F58374AD
:10564C0000F0A37400F00256EE9007FCE0F8A3E023
:10565C00C82408F582C83400F583E0F8A3E0F9E823
:10566C0049606F9007FCE0F8A3E0C82408F582C8F5
:10567C003400F583E0FCA3E0FD7A1075F00690167B
:10568C00D7E0A42424F9121366E9F50A9007FCE08C
:10569C00F8A3E0C82408F582C83400F583E0241090
:1056AC00FCA3E03400FD7A0475F0069016D7E0A454
:1056BC002425F9121366E9F89007FCE0F9A3E0C978
:1056CC002408F582C93400F5837400F0A37400F04B
:1056DC0080109007F0E0600312112012110879017C
:1056EC008006790080027901740C12171D7F080264
:1056FC00184974F712177774F2121707E9FEAC18F1
:10570C00AD197A0E75F006EEA42420F912136CE98B
:10571C00700E740C121753E0F8A3E0F9E8F980024C
:10572C007900740E12171D7F0102184974F41217B8
:10573C007774F21217078909EAFEEBFFE509C394A7
:10574C000A5004EE4F700479028041AC18AD197AFE
:10575C000E75F006E509A42420F912136CE9F5087E
:10576C00E5087026750A06750B00780A12198A74FA
:10577C000212176DEEFAEFFB121222740212171DB1
:10578C008A0A8B0B850A82850B83A908740E121763
:10579C001D7F0402184974F4121777EAFEEBFF75AB
:1057AC000800E508C3940A5043750A06750B007887
:1057BC000A12198AEEFCEFFDA8087900E875F00EC4
:1057CC00A4C8AAF075F000A42AFA75F00EE9A42A70
:1057DC00F9746A28FA740739FB121234740212171E
:1057EC001DE96004A9088006050880B6790A7F04C3
:1057FC0002184974F4121777EAFEEBFF750800E5FE
:10580C0008C3940A5043750A06750B00780A1219DE
:10581C008AEEFCEFFDA8087900E875F00EA4C8AA82
:10582C00F075F000A42AFA75F00EE9A42AF9746454
:10583C0028FA740739FB121234740212171DE9602E
:10584C0004A9088006050880B6790A7F0402184965
:10585C0074F712177774F0121707EAFEEBFF75084E
:10586C0000E508C3940A5039AC18AD197A1075F0DC
:10587C0006E508A42423F912136CE970207C107936
:10588C00FFAA18AB1912129AE97012EEFCEFFDAADE
:10589C0018AB19120562E97004A908800605088086
:1058AC00C0790A741012171D7F0102184974F41282
:1058BC001777750800E508C3940A4003025993A8AA
:1058CC00087900E875F00EA4C8AAF075F000A42AB7
:1058DC00FA75F00EE9A42AF9746428FC740739FDF2
:1058EC007A0E75F006E508A42420F912136CE97001
:1058FC000302598E7C067D0079FFAA087B00EA75AD
:10590C00F00EA4CAA8F075F000A428F875F00EEB00
:10591C00A428FB74642AFA74073BFB12123A8A0A15
:10592C008B0BAE0AAF0B7C067D0079FFAA087B00BF
:10593C00EA75F00EA4CAA8F075F000A428F875F06A
:10594C000EEBA428FB746A2AFA74073BFB12123A7A
:10595C008A0A8B0BAC0AAD0BA8087900E875F00E1F
:10596C00A4C8AAF075F000A42AFA75F00EE9A42ACE
:10597C00F9747028F582740739F5837400F0A374F8
:10598C0000F005080258C19007F0E06003121120E6
:10599C001211087F0402184974F71217777E00EE73
:1059AC00C3940A50327C0679FFEEFA7B00EA75F05C
:1059BC000EA4CAA8F075F000A428F875F00EEBA49C
:1059CC0028FB74642AFA74073BFB12129AE96004F0
:1059DC00EEF980050E80C8790A7F0102184974F728
:1059EC001217777E007F00EFC3940A50357C06793E
:1059FC00FFC9FDC9EFF87900E875F00EA4C8AAF04C
:105A0C0075F000A42AFA75F00EE9A42AF97464283A
:105A1C00FA740739FBCDF9CD12129AE970010E0F09
:105A2C0080C5EEF97F0102184974F71217777E00D2
:105A3C007F00EFC3940A500DEE700AEFF91210DEDE
:105A4C00E9FE0F80EDEEF97F0102184974F0121790
:105A5C007774CB12170789099016D7E06509701D6A
:105A6C007A017B00900748E0F912127CE97A027BFC
:105A7C0000900748E0F912127CE912112C742712DD
:105A8C00176D7A0E75F006E509A42420F912136C33
:105A9C00E96003025B907C0679FF7427121765128C
:105AAC00129AE96003025B907C0E7D0079FF7427EB
:105ABC0012176512123A8A0A8B0B850A0C850B0D8C
:105ACC007C1B7D0079FF740C12176512123A8A0E3A
:105ADC008B0F850E0A850F0B7C0C7D0079FFAA18A5
:105AEC00AB1912123A8A0E8B0FAE0EAF0F7427122F
:105AFC00176D7A0E75F006E509A42420F9121366C9
:105B0C00E9F508740C12176D7A1B75F006E509A4FB
:105B1C002421F9121366E94208740C12176D7A1BD2
:105B2C0075F006E509A42422F9121366E9420874FB
:105B3C000C12176D7A1075F006E509A42423F912DE
