:020000040000FA
:0600000002010702234982
:03000B0002277257
:03002B0002274D5C
:030053000223BFC6
:03007B000227C396
:1000830002219FE5C754F84401F5C7790122000016
:100093000080FB120086B900030200F1E4792178A5
:1000A30008B800028004F709D8FCE479297802B87B
:1000B30000028004F709D8FCE490028178247914C3
:1000C3008002F0A3D8FCD9FA7AA47B159001377883
:1000D3005A79048015E493A3AD82AE838A828B831D
:1000E300F0A3AA82AB838D828E83D8E9D9E7758288
:1000F300A67583FF740112011975829175830074CB
:100103000012011975D00075813F751881751902A8
:10011300759F00020096C09FF59FE473D09F22D085
:1001230083D082C09FE493C0E0740193C0E0740263
:1001330093F59F22FF0000B4000028002800283018
:1001430075A000A000A000A00000080008E001F0D6
:10015300001000100010001000100010005000509C
:1001630000500010001000D0070000000000000F36
:100173000001000500307507001000010081FF0039
:10018300000000FFFFFFBE06DC06C4060007FF02F7
:10019300020208025000A0000000E80302D381011C
:1001A3000000CE8102D781010000FF1502DD81012D
:1001B3000000C70202D781010000001602DF81019F
:1001C3000000DD0202D781010000011602E1810176
:1001D3000000DF0202D781010000021602E381085A
:1001E3000000E00202D781010000031602E581014D
:1001F30000000416FF0100FF2002D381010000C2AA
:100203008102D781010000681602E7810000000027
:100213000002DB810300000E0317006C0D6C0D6CF4
:100223000D6C0D6C0D6C0D6C0D6C0D6C0D6C0D6C03
:100233000D6C0D6C0D121024100C10020202020240
:1002430002020202010D000000100102D38101002D
:1002530000C58102D781010000AB160209820100AB
:1002630000480702D781010000AC16020782010093
:1002730000178102D781010000AD1602058201003B
:1002830000FB8002D781010000AE1602F781010056
:1002930000958002D781010000AF1602ED810100B5
:1002A30000838002D781010000B016020D82010095
:1002B30000A78002D781010000B11602E981010085
:1002C30000B98002D781010000B21602F581010056
:1002D30000098102D781010000B3160203820100E5
:1002E30000B41601E8030577100A307500000D0904
:1002F3005050474675656C47617567650512500038
:100303002003020A000201060302F0FF5050474691
:1003130075656C47617567650000000000000000AB
:10032300009A120000A0120000A6120003110000A0
:10033300010001000002001100000105000000019E
:100343000400000001020000000007000000000696
:1003530000000001070000000106000000E80300A0
:100363000010024173796E632042756C6B00537900
:100373006E632042756C6B0002D381010000CB8158
:1003830002D781010000D11702F18100000071083A
:1003930002DB81030000990802D981010000D31711
:1003A30002D781010000D21702F381010000850802
:1003B30002D981010000DE170A100A02436F6D6D36
:1003C300616E6400526573706F6E7365004D616991
:1003D3006C626F780044657669636520496E666F69
:1003E3000002D381010000C88102D78101000028E7
:1003F3001802FB810300009D0802D9810100002C33
:100403001802D781010000291802FD810000009F16
:100413000802DB81030000B90802D981010000341E
:100423001802D7810100002A1802FF81030000A1EE
:100433000802D9810100003D1802D7810100002B79
:1004430018020182010000B50802D98101000045AC
:1004530018FFFFFF000130750302010600000000D2
:100463000000000000000000000000000000000089
:100473000000000000000000FFFF0600800CE803FE
:100483000000020000000000000C161216120122E8
:1004930062E003120122CFE003120122BEB5031270
:1004A3000122D1B50312012202B6031201223CB686
:1004B3000312012295B603120122DCB603120122B4
:1004C30024B70312012253B70312012282B7031286
:1004D3000122B9B70312012200B80312012219B88D
:1004E300031201226EB80312012287B803120122FC
:1004F300D5B8031201220FB903120122A0CB0212B5
:100503000122A3CC02120122DCCC02120122FFCC75
:100513000212012211CD021201224FCD0212012239
:10052300CBCD0212012293CE02120122B5CE0212CA
:1005330001224CCF021201229ECF02120122CFCF01
:1005430002120122DCCF0212012246D00212012242
:100553009DD002120122A0D002120122D9D0021290
:100563000122DCD002120122E6D0021201223AD18A
:10057300021201227BD102120122AED10212012208
:10058300EBD102120122EDD20212012291D3021207
:100593000122FAD30212012238D4021201220DAA37
:1005A3000312012235AA0312012262AA03120122B5
:1005B3009AAA03120122F8AA0312012244AB0312DE
:1005C3000122ABAB03120122EBAB0312012228ACD5
:1005D3000312012256AC0312012200AD03120122C1
:1005E3000AAD0312012217AD031201224AAD031211
:1005F300012256AD031201226EAD0312012278AD22
:10060300031201222CFF021201223AFF02120122DD
:1006130052FF0212012269FF02120122CCBA011217
:10062300012276BB0112012289BC0112012205BD00
:100633000112012223BE011201225FBE0112012217
:10064300FABE01120122DEBF01120122AAC0011269
:10065300012238C201120122A9C20112012263C37D
:100663000112012255C40112012295C40112012273
:1006730049C5011201227BC50112012271C7011272
:100683000122B3C701120122D1C70112012237C8C7
:100693000112012206C901120122CAC90112012253
:1006A300E9CB0112012296F20212012280F3021217
:1006B30001222BF4021201227CF4021201222CF5F6
:1006C300021201229DF50212012282F60212012278
:1006D300B6F602120122AFF702120122ECF7021260
:1006E3000122C8F80212012207F90212012223F99A
:1006F30002120122ACCF0312012230D003120122D5
:100703005BD00312012275D10312012206AE03123C
:1007130001221CAE031201223AAE031201224BAF97
:100723000312012255AF0312012280B003120122EA
:1007330077B103120122E4B10312012200800312F4
:1007430001223681031201226D8103120122C48129
:1007530003120122D98303120122169601120122E8
:10076300A296011201220698011201221298011287
:1007730001224D9801120122BC9801120122C59950
:1007830001120122CE9A01120122959B011201222C
:10079300F29C01120122109D011201222D9D0112D2
:1007A3000122DA9D01120122579E011201227F9E2E
:1007B3000112012249A1011201224EA101120122BB
:1007C30067A301120122B5A30112012225A401127C
:1007D300012263A4011201223FA501120122FFA5F8
:1007E300011201224BA6011201224EA6011201227F
:1007F30092A601120122DAA60112012219A70112FF
:1008030001223BA7011201226FA701120122D2A7E5
:1008130001120122A08503120122AE8503120122D7
:100823000186031201222086031201226586031228
:100833000122A98703120122448803120122888816
:1008430003120122B2880312012221890312012219
:10085300678903120122DE89031201228F8A0312A0
:100863000122842800120122942800120122352932
:10087300001201229129001201224E2A00120122A4
:100883006A2B001201229C2B00120122CB2B001297
:100893000122782D00120122EF2F001201225F3274
:1008A300001201225133001201224A3400120122A4
:1008B300513600120122453900120122743A001206
:1008C3000122783C00120122883D00120122173FC9
:1008D3000012012208400012012256400012012298
:1008E300C54000120122E940001201223A410012E0
:1008F3000122DB4500120122DC46001201223D47A2
:10090300001201226847001201222E480012012220
:10091300D3A503120122DDA50312012222A603128D
:10092300012236A603120122C6A603120122FFA644
:10093300031201223AA70312012263A70312012221
:10094300B7A703120122CCA703120122EEA70312B9
:10095300012203A80312012217A8031201222CA8C3
:100963000312012266A80312012292A80312012294
:10097300DBA8031201224DA90312012290A903123D
:100983000122BAA903120122E5A90312012244DBC1
:10099300031201221CA402120122FFA4021201224B
:1009A3007AA502120122B5A50212012206A702129C
:1009B300012294A70212012226AA02120122D8AA16
:1009C30002120122E4AB0212012257AD02120122EC
:1009D300B0AD02120122419D03120122849D031234
:1009E3000122089E03120122DFA00312012240CB41
:1009F30003120122F2CB03120122EECC03120122D5
:100A03002DCD0312012287CD0312012297D30312A6
:100A13000122FAD30312012297D403120122CCD468
:100A230003120122FCD40312012237D5031201223F
:100A330057D5031201229F8F031201222B90031219
:100A43000122EA90031201220292031201221C9452
:100A530003120122888D02120122AD8D021201229E
:100A63007A8E021201224E8F02120122BB8F0212D2
:100A73000122FB8F02120122979002120122CB91D5
:100A830002120122A69202120122059302120122EE
:100A9300919302120122FF93021201228B940212FC
:100AA3000122D19402120122439502120122D5950B
:100AB3000212012276960212012296960212012256
:100AC300DE96021201222797021201224397021295
:100AD3000122699702120122E39702120122F19780
:100AE30002120122809802120122E99802120122C5
:100AF300539403120122D894031201221A9503126C
:100B03000122FE95031201226B9603120122AF9676
:100B130003120122F39603120122209703120122EA
:100B2300489703120122809703120122BE970312F2
:100B33000122E597031201225F9803120122A9986B
:100B430003120122F6CB0112012295CD01120122DB
:100B5300CDCF0112012221D0011201224CD001126A
:100B6300012228D10112012258D10112012287D179
:100B7300011201229AD101120122DBD101120122B9
:100B830008D20112012256D20112012292D201127D
:100B93000122D7D20112012224D3011201229ED3B2
:100BA30001120122DFD501120122C9D7011201224C
:100BB30005D80112012294D901120122D9D90112B7
:100BC30001224CDA01120122A1DA01120122A6DA72
:100BD3000112012230DB011201224FDC011201223A
:100BE30060DC0112012201C2021201227AC2021246
:100BF300012234C8021201223FC902120122E8CAAB
:100C03000212012276CB021201224866001201224F
:100C1300C96600120122F666001201223F67001224
:100C23000122406800120122996800120122156A0C
:100C330000120122976A00120122B26A00120122F5
:100C4300236B00120122E06B00120122A36C00123D
:100C53000122316D00120122E86D00120122FB6DA9
:100C630000120122946E001201222B6F0012012246
:100C7300526F00120122BB6F001201220570001295
:100C83000122537000120122F870001201229671A2
:100C93000012012223720012012294720012012217
:100CA300DB720012012233730012012265730012FA
:100CB30001221F74001201222675001201226F7592
:100CC300001201228C7500120122AB750012012261
:100CD300DE7600120122957700120122BA77001204
:100CE3000122CF77001201223F780012012280787F
:100CF30000120122A47900120122257A0012012296
:100D030041B8021201228CB80212012298B80212D1
:100D130001226CB90212012283B902120122C0B965
:100D230002120122F1B90212012229BA021201228E
:100D33007FBA0212012295BA02120122D1BA02121B
:100D43000122E4BA021201220BBB021201223FBBB1
:100D53000212012265BC02120122AFBD021201225E
:100D6300ABBE02120122C8BF02120122FBFF011215
:100D7300012283DC01120122BEDC0112012210E0F8
:100D8300011201226CE1011201222BE20112012264
:100D930092E5011201227CE601120122C8E601124A
:100DA3000122E2E6011201221FE7011201222AE7D2
:100DB3000112012269E70112012272E701120122E5
:100DC3001CE801120122F3E80112012247E9011292
:100DD3000122A4E90112012216EA01120122AAA8A2
:100DE3000112012209AC011201220FAC01120122EE
:100DF30040B30112012247B701120122C2BC031200
:100E030001229FBD03120122E3BD031201221DBE75
:100E130003120122B5BE0312012224BF03120122D1
:100E23002DBF0312012239BF0312012253BF031244
:100E330001227DBF03120122ADBF0312012291A142
:100E4300031201229EA103120122B8A1031201225F
:100E5300EBA10312012229A2031201228EA2031283
:100E63000122A3A203120122AEA203120122BBA2FA
:100E730003120122D2A203120122E0A203120122D1
:100E8300EBA203120122F7A20312012206A303120B
:100E9300012211A30312012234A303120122D8A3B6
:100EA30003120122E8A30312012202A40312012266
:100EB3001FA4031201223AA4031201225FA4031206
:100EC30001226AA4031201227FA40312012293A424
:100ED30003120122F4A403120122FAA40312012231
:100EE30000A50312012206A5031201221EA5031267
:100EF300012251A5031201220580021201229C80C6
:100F030002120122348102120122248202120122DE
:100F13005B82021201226E8202120122DC82021221
:100F230001227784021201229E840212012240854B
:100F33000212012275850212012286850212012204
:100F4300FF85021201222086021201223886021234
:100F53000122908702120122998902120122E98B50
:100F630002120122EC8C021201223B8D0212012299
:100F730065EB0112012262EC011201224DED011217
:100F8300012257ED0112012279ED0112012285EDB3
:100F930001120122D7EE0112012206EF01120122F2
:100FA30036F00112012278F001120122A4F101129C
:100FB30001227AF201120122CCF2011201222BF357
:100FC3000112012262F3011201229DF30112012297
:100FD30038F70112012251F701120122D3F701124E
:100FE3000122E1F70112012236F80112012244F82D
:100FF30001120122B1F80112012223F90112012287
:1010030069F9011201220C99021201222E9902128E
:101013000122189B02120122BD9E0212012200A08E
:1010230002120122DAA00212012232D70312012294
:1010330057D703120122C8D7031201225ED402122A
:10104300012267D40212012270D402120122A1D517
:1010530002120122C0D702120122F6D70212012284
:1010630030D80212012266D802120122A0D802123D
:101073000122D4D80212012200D90212012249D935
:101083000212012283D902120122CBD902120122B8
:1010930021DA0212012256DA02120122B1DA021215
:1010A3000122EBDA021201223CDB0212012272DB83
:1010B30002120122ACDB02120122DADB021201224C
:1010C300FDDB0212012256DD0312012282DD03122F
:1010D3000122DDDD03120122E7DD03120122F7DD28
:1010E30003120122A18A03120122C88A03120122D8
:1010F300038B03120122DDDF031201229A4800123F
:101103000122AA4B001201223F4D00120122BA4DC7
:1011130000120122664E00120122094F0012012221
:10112300A14F00120122D04F001201226854001275
:101133000122FA5400120122365600120122A0564F
:10114300001201225457001201220A5A00120122EE
:10115300445A00120122AE5A001201220B5B001204
:101163000122685B00120122C55B00120122B05C00
:1011730000120122F65C00120122415D00120122DD
:10118300645D00120122AB5E00120122BF5E0012F9
:1011930001222E60001201226D6000120122AD6057
:1011A30000120122006100120122216100120122BA
:1011B3005F6100120122856300120122C6630012DF
:1011C3000122616400120122D36400120122146619
:1011D300001201225B7A00120122017B001201221C
:1011E300467C00120122CF7C00120122BC7D00123A
:1011F3000122FB7D00120122657E00120122D37EB3
:101203000012012240E203120122CFC50312012280
:101213009AC80312012211E203120122AADE031269
:101223000122BADE03120122CEDE031201224ADFBB
:1012330003120122DBBF0312012283C00312012226
:10124300C5C203120122FC7F001201222EE2031207
:1012530001227AEB021201228AEB02120122E6ED4D
:101263000212012229EF02120122B3EF021201221C
:10127300DEEF02120122FCEF0212012237F002120A
:1012830001229CF00212012205F1021201222FF128
:10129300021201225BF1021201227DF102120122EC
:1012A3006EF20212012290F20212012258DC0312A2
:1012B3000122A3DC03120122B1DC0312012220DD8F
:1012C30003120122E0C20312012200C3031201220E
:1012D30067C3031201227AC3031201228DC30312CF
:1012E30001221DC40312012290C403120122D5C49A
:1012F3000312012283E103120122E998031201225E
:101303005A99031201227799031201229C9903121D
:101313000122CB9903120122FA9903120122799B2C
:1013230003120122779C0312012219E40212012203
:101333008AE40212012201E602120122D5E7021217
:10134300012212E902120122D6E902120122F3E973
:101353000212012242EA0212012283EA021201224C
:10136300C4EA02120122E8EA0212012217EB021276
:101373000122A4D103120122FAD10312012277D24E
:1013830003120122B1D203120122C1D2031201229C
:10139300FAD203120122F2F9011201220AFA01120E
:1013A30001225DFA0112012282FA01120122DBFA03
:1013B3000112012230FB0112012273FB01120122EF
:1013C300D0FB0112012214FD011201228BFD011237
:1013D300012254FE0112012265D50312012295D583
:1013E300031201222BD603120122B9D603120122C2
:1013F300D7D603120122E2E00312012222DA0312FA
:10140300012253DA031201227DDA03120122DBDA0D
:10141300031201228BDC02120122A0DC0212012240
:10142300FCDC0212012267DD02120122AFDD02128F
:10143300012221DE021201224ADE0212012258DEBB
:1014430002120122BADE02120122F8DE0212012286
:1014530013DF02120122AEDF0212012257E0021251
:101463000122DAE00212012213E1021201229EE1BB
:1014730002120122F5E10212012253E202120122B9
:1014830065E2021201228BE20212012294E20212AD
:101493000122E5E302120122B2CD0312012219CE89
:1014A30003120122D6CE0312012254CF03120122CA
:1014B300EEB10312012221B20312012253B303122C
:1014C300012297B30312012273B403120122E8D855
:1014D30003120122C6D903120122A8C80312012252
:1014E300EDC80312012233C903120122FCCA0312FD
:1014F30001224DDF0312012268DF0312012278DF8C
:101503000312012201DE0312012259AE021201224B
:1015130035AF021201227CAF02120122B9AF0212CF
:10152300012227B00212012281B002120122F1B07E
:1015330002120122C1B102120122B0B2021201222F
:1015430027B302120122C3B40212012250B50212C0
:101553000122C3B5021201223FB60212012256B67E
:10156300021201227BB702120122D5B70212012215
:1015730084F902120122A4F902120122AAFA021228
:101583000122F6FA0212012216FB0212012269FB62
:1015930002120122D6FB021201221CFC02120122BA
:1015A30080FC021201221082011201223D870112E6
:1015B3000122408A01120122698A01120122928AC0
:1015C30001120122448B011201222D8D01120122ED
:1015D300788E01120122918E01120122C893011209
:1015E3000122019401120122459401120122569510
:1015F3000112012277B90312012287B903120122D2
:10160300BAB90312012234BA031201221DBB031219
:10161300012204BC0312012207BC0312012240BCB5
:101623000312012282BC03120122A0BC0312012275
:101633003DE103120122C7E103120122F3E103E0BA
:1016430066701008A3E066700A08A3E066700408D9
:10165300A3E06622C3E7960809E7960809E7960818
:1016630009E79622C3E09608A3E09608A3E096084C
:10167300A3E09622C008C3E096F50808A3E09642CB
:101683000808A3E096420808A3E09645087001D332
:10169300D00822080808EAC0E0EBC0E086F0E7A41F
:1016A300FA180986F0E7A42AFA180986F0E7A42AAB
:1016B300FA180986F0E7A42AFA1986F0E7A4FBE5ED
:1016C300F02AFA190886F0E7A42BFBE5F03AFA1999
:1016D3000886F0E7A42BFBE5F03AFA18180986F020
:1016E300E7A4C5F02BFBE43AFA1908E7C5F0C6A452
:1016F30026F6E5F03BFBE43AFA1886F0E7A4F6E5B4
:10170300F00826F6E43B08F6E43A08F6D0E0FBD00E
:10171300E0FA226016080808C6C313C618C613C623
:1017230018C613C618C613C6D5E0EA2270090808FE
:1017330008226016181818C6C333C608C633C6086D
:10174300C633C608C633C6D5E0EA22E627F608093B
:10175300E637F60809E637F60809E637F622E02603
:10176300F608A3E036F608A3E036F608A3E036F65B
:1017730022E026F008A3E036F008A3E036F008A341
:10178300E036F022C3E697F60809E697F60809E67D
:1017930097F60809E697F622C3E096F008A3E096C9
:1017A300F008A3E096F008A3E096F022E056F608CE
:1017B300A3E056F608A3E056F608A3E056F622E0A7
:1017C30056F008A3E056F008A3E056F008A3E0564D
:1017D300F022E0F608A3E0F608A3E0F608A3E0F69B
:1017E30022E6F008A3E6F008A3E6F008A3E6F02259
:1017F300E0FAA3E0FBA3E0FCA3E0FD22E0F8A3E012
:10180300F9A3E0FAA3E0FB22E8F0A3E9F0A3EAF0EE
:10181300A3EBF022CAC0E0E6F0A308DAFAD0E0FABC
:1018230022CAC0E0E0A3C582CCC582C583CDC583EF
:10183300F0A3C582CCC582C583CDC583DAE6D0E0EB
:10184300CA22C3E498F8E499F91218868026C3E4FF
:101853009AFAE49BFBE920E7E9121886E498F8E496
:1018630099F922C3E498F8E499F9121886E498F8F0
:10187300E499F9C3E49AFAE49BFB22EB20E7CFE96E
:1018830020E7E0B90010BB0008E88AF084F8AAF06A
:1018930022E4FBC8FA22EB70227B10C833C8C93399
:1018A300C9335007C39AC3DBF280069A50012ADB7F
:1018B300EAC833F4C8C933F4C9FA2275F008E4C896
:1018C30033C8C933C933C99AC99B5004C92AC93B10
:1018D300D5F0ECFBC833F4C8E4C9FA22600D08C69E
:1018E300A2E713C618C613C6D5E0F322600C08C6D8
:1018F300C313C618C613C6D5E0F422700422600DC4
:1019030018C6C333C608C633C6D5E0F41822251853
:1019130010AF08F518400C15198008F5184002158A
:1019230019D2AF2200C0D0251810AF08F518500CFB
:1019330005198008F51850020519D2AFD0D0222519
:1019430018F58210AF08F518400C15198008F51822
:1019530040021519D2AF851983222518F582E43583
:1019630019F583222518F8E43519F9222518FAE424
:101973003519FB222518FCE43519FD22E4732518DB
:10198300C582C0E0E51934FFC583C0E0E518C395FF
:101993008224F810AF08858319858218800885830F
:1019A30019858218D2AFCEF0A3E520F0A37808E61C
:1019B30008F0A3DEFAEFF0A3E58124FAF8E608F0D5
:1019C300A3E608F0A3E608F0A30808E608F0A3E6F8
:1019D30008F0A315811581D0E0FED0E0F81581153C
:1019E300811581E8C0E0EEC0E0222518C582C0E081
:1019F300E51934FFC583C0E0E518C3958224F910C7
:101A0300AF08858319858218800885831985821814
:101A1300D2AFCEF0A3E520F0A37808E608F0A3DE6A
:101A2300FAEFF0A3E58124FBF8E608F0A3E608F05B
:101A3300A30808E608F0A3E608F0A315811581D0F2
:101A4300E0FED0E0F815811581E8C0E0EEC0E022A9
:101A5300851983851882E0A3FEE0A3F5207808E0CA
:101A6300A3F608DFFAE0A3FFE0A3C0E0E0A3C0E031
:101A7300E0A3C0E0E0A3C0E0E0A3C0E010AF0885AE
:101A830082188583198008858218858319D2AFD07F
:101A930083D08202011F851983851882E0A3FEE0AB
:101AA300A3F5207808E0A3F608DFFAE0A3FFE0A39C
:101AB300C0E0E0A3C0E0E0A3C0E0E0A3C0E010AF5B
:101AC300088582188583198008858218858319D231
:101AD300AFD083D08222C0D02518C582C0E0E519DB
:101AE30034FFC583C0E0E518C3958224F310AF0823
:101AF3008583198582188008858319858218D2AF5A
:101B0300C8F0A3E9F0A3EAF0A3EBF0A37908E7098F
:101B1300F0A3D8FAECF0A3EDF0A3EEF0A3EFF0A35B
:101B2300D0E0F0A3D0E0F0A3D0E0F0A3E520F0A351
:101B3300E5F0F0A322851983851882E0C0E0A3E0D5
:101B4300F9A3E0FAA3E0FBA37808E0F608A3DFFA21
:101B5300E0FCA3E0FDA3E0FEA3E0FFA3E0C0E0A35D
:101B6300E0C0E0A3E0F5D0A3E0F520A3E0A3F5F007
:101B730010AF0885831985821880088583198582AB
:101B830018D2AFD082D083D0E0F8D0E03274048092
:101B930006740280027401C0E0F404121942D0E01A
:101BA300121817227404800474028000CCC0E0ED84
:101BB300C0E0E518C39CCCAD1950011D10AF068CD5
:101BC300188D1980068C188D19D2AF121824D0E005
:101BD300FDD0E0FC22D083D082E9C0E0E493A3C32C
:101BE30086F0C5F095F0F908E493A386F0C5F09567
:101BF300F0700BE493A3C3994005E9048002A3E4C6
:101C030075F002A42582F582E5F03583F583D0E0F3
:101C1300F9E493A3C0E0E493C0E022D083D082EC44
:101C2300C0E0EDC0E0E493A3FCE493A3FDED4C60BE
:101C33000D121C6AEC24FFFCED34FFFD80EFE493EE
:101C4300A3FCE493A3FDED4C600D121CA9EC24FF4F
:101C5300FCED34FFFD80EFD0E0FDD0E0FCE493A386
:101C6300C0E0E493C0E022C0E0C3E49396087401AB
:101C7300939618400FE493667008087401936618EE
:101C830070007019A3A3C3E4939608740193961884
:101C9300A3A3400DD0E0D0E0D0E0021C5AA3A3A33D
:101CA300A3A3A3D0E022C0E0C0F088F0E493667061
:101CB300080874019366187000A8F0A3A3700BD0F2
:101CC300F0D0E0D0E0D0E0021C5AA3A3D0F0D0E0E3
:101CD3002274F61219EDEAFEEBFF8C088D09EE244F
:101CE30034F8E43FF9E8FCE9FDEE2435121FE7FA86
:101CF300EE2437121FE7F88508F0A4C885F00A859B
:101D030009F0A4250AF9EA28F8E439F97A257B00D1
:101D1300121886EA8C828D83F0FA131313541FF87A
:101D2300EE28F8E43FF9E8245DF582E439F583E031
:101D3300C0E074075AF8D0E0B800028004C313D897
:101D4300FCA2E0EE50082434F582E43F80182436E8
:101D5300121FE7F5F0EA84A8F0EE28F8E43FF9E86B
:101D63002438F582E439F583E0F97F03021A997484
:101D7300F71219EDEAFEEBFFEE2434121FE7C0E081
:101D8300EE2435F582E43FF583D0E0F08E828F8335
:101D9300A3A3A3A3A3A3A3C082C0838E828F83A381
:101DA300A3A3A3A3E0F8A3E0F9D083D082E0C39870
:101DB300F508A3E099F509EE247F121FE76401708B
:101DC3003EEE2480F582E43FF583C082C0838E8299
:101DD3008F83A3A3A3A3A3E0240108A3E03400F902
:101DE300D083D082E0687003A3E06970127CB97D70
:101DF30004120CACEE247FF582E43FF583E4F0ACEF
:101E030008AD09EEFAEFFB121CD4E9F912273F7F64
:101E130002021A99C082C083851882851983E0F86B
:101E2300A3E0F9C3EA9CEB9D5010C3EC98ED9940F5
:101E33001BC3EA98EB995014800EC3EA98EB9940C0
:101E430007C3EC98ED994004790180027900D083AF
:101E5300D08222EAC39CFAEB9DFB2274EF1219EDA8
:101E630090037EE064086005E06407702A9061C80F
:101E7300E060249003ACE0F4601DE0F875F00BA47F
:101E8300C8AAF02AF974AE28FE740339FF8E828F34
:101E930083A3A3A3E07003021F6C906060E0C0E023
:101EA300EE2468F582E43FF583D0E0F0750C2975E4
:101EB3000D05750800750900E5D914F50AE5D9542F
:101EC30003F50E60127403650E6043E50A600AEEC3
:101ED3002467121FE770028075900524E064016097
:101EE3001F121FE460047A0480027A00E50AC39A91
:101EF300FA95E0FB120B568A088B09EA450970052F
:101F0300120EDA8064121FE470048A0C8B0DE50A4A
:101F13006012850C82850D83F50BE5D9F0A3150BB3
:101F2300E50B70F6121FE4604474FC250AF50A7889
:101F33000C121B94AC0AA90EEEFAEFFB120D667499
:101F430002121927E97026AA08AB0912149E793DDB
:101F53008E828F83A3A3A3A3E0FA7B001209B8EEBA
:101F6300FAEFFB120CD0120D787900806F740365C1
:101F73000E6051850A107511007810121B94AC0C79
:101F8300AD0DAA08AB09120D2A7402121927EE240B
:101F930068121FE764807004747F8001E0F50C7899
:101FA3000C121B98E50EF50C780C121B98A90AACC1
:101FB30008AD099003ACE0FA7B0012098E7402129B
:101FC3001927801390037EE06408600BAC0CAD0D01
:101FD300EEFAEFFB120DF0120EE679017F0A021AF8
:101FE30099EE2483F582E43FF583E02274F212191B
:101FF300ED74FC121911EAFEEBFF8909A2AFE43379
:10200300F508C2AF0220B9E0601B780C121B94AC38
:102013000BA90EEEFAEFFB120D607402121927746E
:1020230004250BF50B7401250BF5D9850ED9E50BAA
:102033006018F50A850C82850D83E0F5D9A38582A6
:102043000C85830D150AE50A70EA75E195EE2463A4
:10205300F8E43FF97A007B00A2AFE433F50BC2AF9B
:1020630088828983E0FCA3E0FDEC4D603A88828995
:1020730083E0FAA3E0FB8A828B83E0FCA3E0FD8884
:10208300828983ECF0A3EDF08A828B83E4F0A3F0E2
:1020930088828983E0FCA3E0FDEC4D700A88828985
:1020A30083A3A3E4F0A3F0E50BA2E092AF12149E86
:1020B3009004C0E004F0EE2463121FE7F8A3E0F9F4
:1020C300E8496064EE2463121FE72402F8A3E034B6
:1020D30000F988828983E5822402F50CE43583F5CF
:1020E3000DE0F50BA3E0F50EEE2462121FE7640189
:1020F30070369061D0E0F8121FE460047C04800223
:102103007C007480C398FA95E0FBE50B2CF8E4346B
:1021130000F9E82402F8500109C3EA98EB99A2D226
:1021230065D033400302200A9004C0E0604D900460
:10213300C1E0F89004C0E0C398500C7402650970C4
:102143003A9004C2E060348E828F83A3A3A3A3E0FA
:1021530085188285198312218E740212195DE81283
:10216300218E9004BFE028F07402121977AA18ABED
:102173001979011209E29004C0E4F0E508A2E092A3
:10218300AF74041219277F07021A99F0A3E4F090A1
:1021930004C0E0F8228521878522C622C0E074EBC3
:1021A300121AD9A2AFE433F508C2AF759B00906150
:1021B30082E0A2E05030E591A2E0502A7591FE74CE
:1021C3000165217021122332120E32122320121BB9
:1021D300A71224E97404121927E96401700579012F
:1021E300120E6E121E5E906182E0A2E5505DE591D3
:1021F300A2E550577591DF90037EE064076005E028
:102203006408702F12233274016521703E120E325E
:10221300122320121BA71224E97404121927E9645C
:102223000170057901120E6E7901EEFAEFFB121FB0
:10223300EF8018E0640D70139003A0E004F06428AD
:102243007002E4F07A00E0F9120EEC906182E0A2F1
:10225300E640030222F5E591A2E640030222F5756A
:1022630091BF90037EE064057008120E1A120E26C9
:102273008003120E20752100120E7AE990037FF07D
:102283007900120E6E120C1C7A017B0090037DE024
:10229300F912146E907803E064427056900528E0BA
:1022A30014F0704EC2AF1222AC00782AD0E0F618B8
:1022B300D0E0F6E59F5407F87005750DFF800375B0
:1022C3000D7FC4C0E07829E6F50A08E6550DF50B45
:1022D300740B780A1218EFD0E0250AF8906270E0C8
:1022E300A2E740F8E8C333906272F0906270E0D2E4
:1022F300E0F0906181E0A2E35009E5E9A2E3500335
:1023030075E9F7A3E0A2E75009E591A2E750037549
:10231300917FE508A2E092AF7F08021B388E828F7F
:1023230083E0F8A3E0C82416F582E438F58322900D
:1023330003ACE0F875F00BA4C8AAF02AF974AE2830
:10234300FE740339FF22C0E0C0D0C082C083906115
:1023530083E0A2E05009E5BFA2E0500375BFFEE0B1
:10236300A2E15009E5BFA2E1500375BFFDE0A2E27F
:102373005009E5BFA2E2500375BFFBE0A2E3500999
:10238300E5BFA2E3500375BFF7E0A2E45009E5BF40
:10239300A2E4500375BFEFE0A2E55009E5BFA2E553
:1023A300500375BFDFE0A2E65009E5BFA2E6500384
:1023B30075BFBFD083D082D0D0D0E032C0E074F2FA
:1023C300121AD9E5A7A2E6500FE5A1A2E6500953D8
:1023D300A7BF75A1BF122413E5A7A2E5500CE5A181
:1023E300A2E5500653A7DF75A1DFE5A7A2E15009D7
:1023F300E5A1A2E1500375A1FDE5A7A2E2500CE51A
:10240300A1A2E2500653A7FB75A1FB7F01021B3873
:1024130074F71219ED75210190037EE064067015BF
:10242300120D9C8A828B83A3A3A3A3A3A3E0FAA385
:10243300E0FB120E08A2AFE433FED2AF900384E0B8
:10244300640170187A207B0090037DE0F9121594E3
:102453007A207B0090037DE0F9121474906182E08E
:10246300D2E6F0900525E0602185C6228016900310
:1024730083E064017008E5C654F84405F5C653BE0D
:10248300FC1221987401652160E4EEA2E092AF7F13
:1024930002021A99008E238F24858228858327853B
:1024A3001882851983E0CEA3E0CF85288285278310
:1024B300EBC9EAC8EDCBECCA75F010C3E833C8E941
:1024C30033C9EA33CAEB33CBC3EA9EF526EB9FF558
:1024D30025B35004AB25AA26EC33CCED33CDD5F090
:1024E300DAAE23AF242274F11219ED8A088B098C1A
:1024F3000A8D0B9081B278081217AF740F12195D11
:10250300780C1217D59081B2780C1217AF7808792E
:102513000C12165790816650107808790C121787A1
:1025230078081216774014800E780C7908121787F2
:10253300780C12167750047901800279007F080223
:102543001A9974ED1219ED8A088B098C0A8D0B9078
:1025530081B278081217AF741312195D780C121731
:10256300D59081B2780C1217AF780C7908121657F0
:1025730040117808790C121787AA08AB09AC0AAD89
:102583000B80227510007511007512007513017808
:1025930010790C1217877810790812174EAA10AB0E
:1025A30011AC12AD137F0C021A999081B278081204
:1025B30017D58A828B8378081217C27F04021A996F
:1025C30074F51219ED8C828D8378081217D58A82DF
:1025D3008B83780812179B12261BC3E09CF0A3E0A1
:1025E3009D12260D402290819678081217D58A8273
:1025F3008B8378081217748A828B83A3A3A3A3E027
:102603002420F0A3E0344EF080A0F088828983C3B5
:10261300E09420A3E0944E22EA2404F8E43BF98CEE
:10262300828D83A3A3A3A3E0FCA3E0FD8882898317
:102633002274F51219EDE9FE9004DBE0FAA3E0FB46
:10264300EE29F8E433F974DB28F582748039F583D5
:10265300E02AF508A3E03BF5097808121B94908162
:102663009E1217F312249874021219278A088B09F1
:102673008C0A8D0B74107808121716AA08AB097F01
:1026830004021A9974F11219ED8A0C8B0D8C0E8DBC
:102693000F741112195D121BAB741112195DE02432
:1026A30001F508A3E03400F509E4F50AF50B780C0D
:1026B300790812169690817278081217D5780C79DA
:1026C30008121696AA0CAB0DAC0EAD0F122498741B
:1026D300021219278B09EA450960047A0180027AFC
:1026E30000EC2AFCE43DFD741312195DE0F8A3E04D
:1026F300F9E8FEE9FFECF8EDF97A717B021218862E
:1027030088088909E4F50AF50B8E828F837808120D
:1027130017E4ECF8EDF97A717B021218868A088BBC
:1027230009740578081218FE8E828F83A3A3A3A3CE
:10273300E508F0A3E509F07F08021A99C082C08377
:10274300E9906000F0D083D08222C0E0C0D0E8C01E
:10275300E0E9C0E0A2AFE433F8D2AFC2C7E8F9E8DA
:10276300A2E092AFD0E0F9D0E0F8D0D0D0E032C010
:10277300E074F2121AD9A2AFE433FED2AFE5BAF88D
:10278300790090086DE8F0A3E9F0A8BB7900E4C8EC
:10279300F990086DE048F0A3E049F0E5B5540F90D7
:1027A300086CF0900868E0FAA3E0FB900867E0F992
:1027B30012146EE9EEF8EEA2E092AF7F01021B382D
:1027C300C0E074F2121AD9A2AFE433FED2AFE58AA5
:1027D300A2E0500A9008C4E0D2E0F0758AFEE58AD0
:1027E300A2E1500A9008C4E0D2E1F0758AFDE58ABF
:1027F300A2E2500A9008C4E0D2E2F0758AFBE58AAF
:10280300A2E3500A9008C4E0D2E3F0758AF7E58AA0
:10281300A2E4500A9008C4E0D2E4F0758AEFE58A96
:10282300A2E5500A9008C4E0D2E5F0758ADFE58A94
:10283300A2E6500A9008C4E0D2E6F0758ABFE58AA2
:10284300A2E7500A9008C4E0D2E7F0758A7F9008A7
:10285300C8E060119008C9E0FAA3E0FB9008C8E063
:10286300F912146EE9C2EBEEF8EEA2E092AF7F012B
:10287300021B38C2AF02000022FFFFFFFFFFFFFF72
:10288300FFC082C083E9901667F0D083D082020133
:102893001F74F6121981E99002F0F0900350E0F5ED
:1028A30008750900740278081218FEAA08AB091209
:1028B30014E69002F11232479002F1123634606F3F
:1028C300900350E075F003A4FAABF01214E6900302
:1028D3000E12324790030E123634700B9002F1122F
:1028E30036051214EC804890030E1245997AFF7B4B
:1028F300FF1211D47A0080198A08750900740278CE
:10290300081218FE12404174FF122A47E4F0A3F0A4
:102913000A900350E0F8EAC39840DD790512087A7B
:102923009002F0E0F91207667A047B09120AF602B4
:1029330040E474F41219818A088B09EB54806047D0
:102943009002F0E0F91214568A0A8B0BAE0AAF0B11
:10295300EE4F602A8E828F83E064B0701A12088C67
:10296300E960148E828F83A3A3A3A3E0F9EE240569
:10297300FAE43FFB12085CEEFAEFFB121444AA08D8
:10298300E5096480FB80047A007B00022B9774F2D4
:1029930012198174FB121911EAFEEBFFEE4F604529
:1029A300740312195DEEF0A3EFF085188285198385
:1029B300ECF0A3EDF0740212195DE9F0AA18AB195B
:1029C300120760E9F5087075741312195DE0F50AD2
:1029D300A3E0F50BE50A450B60638E828F83122F0C
:1029E300D0EE4F700575080280537A067B001214EF
:1029F300E68A0C8B0DA80CA90DE849700575081320
:102A0300803B88828983E4122A47EEF0A3EF122BDE
:102A130063E50AF0A3E50BF09002F4122B5C90023D
:102A2300F46017E0FCA3E08003EAFCEBFD8C828DED
:102A330083122B5C70F38C828D83123C5CA9087427
:102A430005024819F0A312457BA32274F2121981DF
:102A53008908890C750D007403780C1218FE850C17
:102A63000A850D0B9002F3F09002F1123A67122BD4
:102A73005A602E1214EC7900801D890C750D0074B8
:102A830002780C1218FE9002F1123F008882F5833F
:102A9300A3A3E4F0A3F009900350E0F8E9C398403E
:102AA300D9900350E0FA850AF0A4CAA8F0850BF088
:102AB300A428FB1214E68A0C8B0DAE0CAF0DEE4F5F
:102AC3007003022B50900350E0FC850AF0A4CCA8BD
:102AD300F0850BF0A428FD79001214327C008031BC
:102AE3008D0C750D007403780C1218FE8A828B838B
:102AF300122B5588828983E4F0122B62A3A3F0A3DF
:102B0300F00DEDC3950840D8EE250AFEEF350BFF17
:102B13000C900350E0F8ECC39850288C0C750D0012
:102B23007402780C1218FE9002F1122B55E824025D
:102B3300500109FAE9FB8A828B83EEF0A3EFF07D63
:102B43000080BFE5089002F3F07900800279130258
:102B5300481C123F04F922A3A3123609EA4B22A30D
:102B630012457BA3A3A32274F41219817900EAA26C
:102B7300E0501F75084A7509817808121B94791073
:102B83007C047D007A697B1612087474021219277B
:102B9300E9F980007F04021A53C082C0839002F4D3
:102BA300123634601C88828983A3A3E06A7003A36E
:102BB300E06B8882898370E8A3A3A3A31236058000
:102BC300047A007B0002288D74F212198174FD12BD
:102BD3001911EAFEEBFF851882851983E4F0A3F04F
:102BE300740212195D7401F01236317014120A3036
:102BF3001214E69002F71232471236317003022D97
:102C03005D123347EE2404F50AE43FF50B850A828F
:102C1300F583E024FE603C24FC607424FE607E2483
:102C2300FE7003022CAD24FE7003022CBA24FE7046
:102C330003022CC724FE7003022CD424FE7003026B
:102C43002CE124FC7003022D0224FE7003022D1AD2
:102C5300022D56120A309002F9EAF0A3EB122D6905
:102C63001204A8E96003022D569002F9121BAB8EE1
:102C7300828F83A3A3A3A3A3124599850882850901
:102C8300831236051208447402121927022D56AC1A
:102C930018AD19EEFAEFFB120892022D25AC18AD10
:102CA30019EEFAEFFB1208988078AC18AD19EEFA1A
:102CB300EFFB12089E806BAC18AD19EEFAEFFB1216
:102CC30008A4805EAC18AD19EEFAEFFB1208AA80D7
:102CD30051AC18AD19EEFAEFFB1208B08044740240
:102CE300121967880C890D780C121B94740212193F
:102CF30077EEFAEFFB1208B674021219278023ACA1
:102D030018AD19EEFAEFFB1208BCE9F8701674025D
:102D130012195DE4F0803CAC18AD19EEFAEFFB122A
:102D230008C2E9F8E8602C8E828F83A3E064146004
:102D330022850A82850B83E09002F9F0851882854B
:102D430019831236059002FA123247E8A3122D694D
:102D53001204A2EEFAEFFB12081A740212195DE0D4
:102D6300F97403024819F07CF97D0285088285090C
:102D7300831236092274E812198174FA1219117434
:102D83000412195DECF0A3EDF08A128B13EA24050B
:102D9300F50EE43513F50FEA2402F510E43513F5C7
:102DA30011851082F5831236051205988A0A8B0B5A
:102DB3007508007C037D0079007AF97B02121432D6
:102DC300E50E2402F516E4350FF5177402121967A0
:102DD300880C890D780C121B94850E82850F83A3B2
:102DE300A3A3A3E0F50C750D00780C121B94E50E5C
:102DF3002405F50CE4350FF50D780C121B9485169C
:102E03008285178312390C12077E74061219278ADA
:102E13000C8B0DE50C450D7003022F99802085184E
:102E230082851983E088828983F005088518828565
:102E33001983A3E0C0E0122FDAD0E0F00508E50A19
:102E430024FBFAE50B34FFFBC3E5089AE49B40033C
:102E5300022F997E007F00851282851383A3A3A38B
:102E6300A3E0F5097809121B98E4F514F515781415
:102E7300121B947514F67515027814121B949002A4
:102E8300F7121BAB740912195D121BABE50A24F987
:102E9300F9AC0CAD0D85108285118312360512082D
:102EA300EC7409121927E96003022F3A850E828513
:102EB3000F83A3A3A3A3A3A3A3E0F89002F6E06860
:102EC3007075E0F5148E157814121B9412459685CF
:102ED3000E82850F83A3A3A3A3A3A3A3A3123605E3
:102EE30012142C7402121927E9604C9002FA12365C
:102EF30034703BE4F5147814121B947CFF7DFF7946
:102F03000785108285118312360512085674021242
:102F1300192712363A7017850E82850F83124733AD
:102F2300740412195D123FF412393D022FCD850C42
:102F330082850D83122FD0A818A9198814891578B2
:102F430014121B94740412195D121BAB851682852F
:102F5300178312323D12078A74041219278A0C8BC5
:102F63000DEE4F7003022E16122FDAEE122FE5121A
:102F730038F3EF122FE5F8A3E03400F9E50C450D23
:102F83006003022E218882898374FFF00508122FC3
:102F9300DA74FFF00508E508601A1313543F123280
:102FA3004D1204B4E960099002FA12360512149E18
:102FB30079008016850E82850F83124733740412BD
:102FC300195D123FF4123C5C790A0238C6A3A3A32D
:102FD300A3E0FEA3E0FF22A8089002FAE02812383B
:102FE300F322F00508089002FAE0282274E8121987
:102FF3008174FA121911740212195D1232477404A2
:1030030012195DECF0A3EDF0740212195DE02405D2
:103013001238DCE0F50CA3E0F50D740212195DE043
:103023002402F510A3E03400F511851082F5831214
:103033003605120598750800750900EA24FCFEEBB5
:1030430034FFFF8008050CE50C7002050DA808C3CA
:10305300EE98EF940050030231F9A818A919880ECD
:10306300890F780E121B94851482851583A3A3A35D
:10307300A312459D121B94E5142405F50EE43515A2
:10308300F50F780E121B9485148285158312323B3B
:1030930012077E74061219278A0E8B0FEA450F70EA
:1030A300030231F9EA2404F516E4350FF517851602
:1030B30082F583E0F50CA3E0F50D8518828519836D
:1030C3001245998A828B83A3A3A3E0F98510828595
:1030D300118312360512076CE9F50960030231F911
:1030E300740212195D123903F5097809121B98E469
:1030F300F512F5137812121B947512F675130278F4
:1031030012121B949002F7121BAB740712195D1273
:103113001BABEEF9AC0EAD0F851082851183123611
:10312300051208EC7409121927E9F5096003023145
:10313300F9E508703FE4F50EF50F780E121B947C49
:10314300FF7DFF79098510828511831236051208E8
:10315300567402121927123929700D740412195D5D
:10316300123230791102322D9002F6E024029002DD
:10317300FAF080149002FAE0FA9002F6E079002463
:10318300025001096A497072A8089002F6E0FAE851
:103193002AFAE43400FBEE9AEF9B405A85168285A7
:1031A3001783E0C0E09002FB122FDFD0E0F00508A8
:1031B300851682851783A3E0C0E0089002FB122FD7
:1031C300DFD0E0F005089002F612459D121B941221
:1031D3004596A8081238D012141A740212192790AF
:1031E30002F6E02508F50874FF650C700474FF65AA
:1031F3000D6003023048E508601F9002FAE0F5F025
:10320300E5088412324D1204BAE960099002FB12F8
:10321300360512149E79008011E509700375090AB9
:10322300740412195D123230A9090238C6123A6BBE
:10323300E50CF0A3E50DF022A3A3124828AA0CABDA
:103243000D22A3A3EAF0A3EBF0229002F9F07CF99C
:103253007D028510828511831236092274EC1219BE
:103263008174FC121911123D6C7402121977123514
:10327300FF1207848A0C8B0DEA450D700302333766
:10328300123347A818A919881089117810121B94B2
:103293007CFF7DFF790B8508828509831236051231
:1032A3000856740212192712343D700C850A828560
:1032B3000B8312393A0233448E828F83A3A3A3A3D1
:1032C300E0F5127812121B98E4F512F51378121236
:1032D3001B947512F97513027812121B947810124D
:1032E3001B94740912195D121BAB740912195DE06A
:1032F300F9AC0CAD0D8508828509831236051208D9
:10330300EC7409121927E9FE70157CF97D02850812
:10331300828509831236051204C0E970098020747E
:10332300166E70027E009002FA12360512149EEE9B
:103333007004800B7E01850A82850B83123C59EE53
:10334300F9023C6EEE2402F508E43FF5092274EC21
:1033530012198174FC121911EAFEEBFF8C0E8D0F0A
:10336300EE2405F508E43FF5097402121977850880
:10337300828509831236051207848A0C8B0DEA4570
:103383000D700302342DEE2402F50AE43FF50BA879
:1033930018A919881089117810121B947CFF7DFFDE
:1033A300790D1235FF120856740212192712343D93
:1033B300700B85088285098312393A807A8E828F51
:1033C30083A3A3A3A3E0F5127812121B98850882A6
:1033D300850983A3A3121BAB7512F9751302781227
:1033E300121B947810121B94740912195D121BABF3
:1033F300740912195DE0F91235FB1208EC74091215
:103403001927E9FE700F7CF97D021235FF1204C6FD
:10341300E97009802074166E70027E009002FA1221
:10342300360512149EEE7004800B7E01850882859A
:103433000983123C59EEF9023C6E123644F510A38F
:10344300E0F511EA45112274E812198174FE12198C
:10345300118A168B178C148D15EA2405F50CE435A7
:1034630017F50DEA2402F50EE43517F50F850E82E4
:10347300F5831236051205988A088B09750B007CB3
:10348300037D0079007AF97B02121432750A00E594
:103493000814F5100424FFF508E50934FFF5098045
:1034A300549002F9E0FA9002F6E0F8EA28F8E434DE
:1034B30000F9E50898E50999500D9002F9E0F8E55F
:1034C30010C3989002F6F0E0F5127513007812120B
:1034D3001B941245969002FAE02AFAA3E03400FB0B
:1034E30012141A74021219279002F6E0F89002F9E6
:1034F300E028F0050A850C82850D83A3A3123F10F3
:1035030040030235E09002F9E0C39508E4950940D1
:10351300030235E0AE0AEE2EFEE433FF12361FAC93
:1035230018AD191245B1E439FB1207848A128B13C3
:10353300AC12AD13EC4D701B750B0112360F123C20
:103543005D9002FA122B5C600312149EA90B7402A5
:103553000238C8851682851783A3A3A3A3E0F50BBE
:10356300780B121B98E4F512F5137812121B94755D
:1035730012F67513027812121B949002F7121BAB0A
:10358300740712195D121BABA910850E82850F8378
:103593001236051208EC7409121927E9F50B709B12
:1035A3009002FA12363460030234A4E4F512F513E0
:1035B3007812121B947CFF7DFF790F850E82850F95
:1035C30083123605120856740212192712363A600E
:1035D300030234A412360F12393E0235517CF97DB1
:1035E30002850E82850F831236051204CCE960032F
:1035F3000235447900023551AC0CAD0D850A828544
:103603000B8312360922E0FAA3E0FB2212361FE0F5
:10361300FAA3E0F9EA85148285158322850C828555
:103623000D83E02EF8A3E03FF9888289832290027C
:10363300F7124737E84922123644F8A3E0F9E8497C
:10364300229002FAEAF0A3EBF09002FAE02274E887
:1036530012198174FA121911740412195D12324786
:103663008C168D17740412195DE02405F50EA3E082
:103673003400F50F740412195DE024021238DC12D1
:1036830036051205988A0A8B0B7F007E00A818A9BD
:1036930019880889097808121B94850E82850F837F
:1036A300A3A3A3A3E0F5088E097808121B94E50EE3
:1036B3002405F508E4350FF5097808121B94850EE7
:1036C30082850F83A3A312390C12077E7406121985
:1036D300278A0C8B0D80291238FDF00F1238FDF06C
:1036E3000F9002F6123C48121B94124596EFF81203
:1036F30038D012141A74021219279002F6E02FFF21
:10370300E50C450D700302378C85188285198312E9
:103713003D7EA3A3A3E0F9851482851583123605A4
:1037230012076CE9FEE50C2404F510E4350DF511E0
:10373300EE7050740412195D123903F508780812FB
:103743001B98E4F508F5097808121B947508F675BB
:1037530009027808121B949002F7121BAB7407122C
:10376300195D121BABE50A24FAF9AC0CAD0D8514F7
:10377300828515831236051208EC7409121927E99C
:10378300FE6039123919123C5CEF70030238B390B2
:1037930002FAE0F5F0EF849002F9F07CF97D0285FE
:1037A30014828515831236051204D2E9600990024A
:1037B300FB12360512149E79000238C68F08EF708B
:1037C3003BE4F512F5137812121B947CFF7DFF790D
:1037D3001185148285158312360512085674021258
:1037E3001927123929700912391912393D0238C6BD
:1037F3009002F6E024049002FAF080359002F6E09D
:10380300F89002FAE0FAE82404FCE43400FDEC6AE0
:103813004D6003023792E50A24FAFAE50B34FFFB05
:10382300E50828F8E43400F9EA98EB9950030237E5
:1038330092851082851183E0C0E09002FBE02FF8AF
:10384300A3E034008882F583D0E0F00F85108285F1
:103853001183A3E0C0E01238EAD0E0F00F74021243
:103863001967880889097808121B94740212195D74
:10387300121BAB850E82850F8312323B12078A74AB
:10388300041219278A0C8B0DEA450D70030236DAF0
:10389300740212195DE0C0E01238EAD0E0F00F7450
:1038A3000212195DA3E0C0E01238EAD0E00236E26A
:1038B300EE70027E0A850E82850F8312391F123C39
:1038C3005CEEF974061219277F10021A539002FB5B
:1038D300E028FAA3E03400FB22F514A3E03400F55A
:1038E30015851482F583221238EE229002FBE02F15
:1038F300FAA3E034008A82F583221238EE74FF22A1
:10390300123A6BA3A3A3A3E022124828850E828553
:103913000F8312360922851082851183124737855A
:103923001682851783229002FBEAF0A3EBF0900244
:10393300FB124737E84922123C62E8F0A3E9F07929
:10394300112274EA12198174FE1219118A088B0963
:103953008C128D13EA2405FEE43509FFAC18AD196A
:103963008E828F831236051207848A0C8B0DEE2408
:1039730006F50EE43FF50FEA450D7003023A3DE507
:10398300082402F50AE43509F50B8A828B83A3A385
:10399300A3E0A2E550288518828519831236051203
:1039A30008E08A108B11EA4511602079121235FB69
:1039B30085108285118312197FE9F50C707F850EBE
:1039C30082850F83E0600979528011750C0E806D3A
:1039D300850882850983A3A3A3A3E0F9E4F508F589
:1039E300097808121B948E828F83A3A3E0F50878CD
:1039F30008121B948E828F83A3A3A3121BAB8E8208
:103A03008F831245991235FF1208F2740612192793
:103A1300E9F50C7011850E82850F83E0702D123548
:103A2300FF1204D880257416650C7011750C007490
:103A33001812195D123A67E48010750C0112472FB2
:103A4300851282851383E8F0A3E9F0850E82850F42
:103A530083E0600479008002A90C74021219277FA5
:103A63000E021A53123A6B22E0F8A3E0F583888220
:103A73002274EC12198174F71219118A0A8B0B8CB8
:103A8300108D11EA2405FEE4350BFF750C00AC180C
:103A9300AD198E828F831236051207848A088B092B
:103AA300EA45097003023C33E50A2402F50A500291
:103AB300050B8A828B83A3A3A3E0A2E5502F85186D
:103AC300828519831236051208E08A0C8B0DEA45AC
:103AD3000D604F7912AC08AD091235FF850C828554
:103AE3000D8312197FE9F50C6003023C36850A82C7
:103AF300850B83E0F508A3E0F509AA08FB1208D4B7
:103B0300EA4B70197AFF7BFF1208D4EA4B70030269
:103B13003C298A828B83E508F0A3E509F075080048
:103B23008008750C0E023C3605089002F3E0F8E5B8
:103B330008C3984003023C2985080E750F007403DF
:103B4300780E1218FE8A828B83A3A3E0250EF8A3B6
:103B5300E0350F123FFD70D08E828F83123C5112DD
:103B630032478E828F83A3A3123C51123245EE2437
:103B730004F508E43FF509850882F583E088828926
:103B830083A3A3A3A3F0A3E4F0EE2405F50EE43F7F
:103B9300F50F850E82F583123C51A3A3A3A3123222
:103BA300457512077513007812121B94EEFCEFFD96
:103BB300740412196F12141A7402121927E4F512FD
:103BC3007812121B94850882850983E0FC7D0079B5
:103BD300171235FF120856740212192774071219A7
:103BE3005D123247740712195DE0FA4B603D850898
:103BF30082850983123C48121B94850E82850F83AC
:103C030012459912141A74021219277402121977A1
:103C13001235FF1204DEE96026740712195D1236AD
:103C23000512149E8019750C098008750C11800308
:103C3300750C0112472F851082851183123C5CA9F4
:103C43000C74098028E0F5087509007808221236FB
:103C5300098882898322123C62E8F0A3E9F022E01A
:103C6300F8A3E0F9850E82850F83227404121927C5
:103C73007F0C021A5374EC121981123D6C751000FB
:103C8300EE2402F50CE43FF50D850C82F583123624
:103C9300051208D48A088B09EA45097003023D50CE
:103CA300850A82850B83E064016003023D45AC080D
:103CB300AD09AA0AAB0B1208C8E9606E85088285B4
:103CC3000983122FD2EE2406F50AE43FF50B8E8208
:103CD3008F83A3A3121BAB8E828F83A3A3A3A312F1
:103CE3001BAB850A82850B83121BAB79188E828FDF
:103CF30083123D7E1236051208F27406121927E963
:103D0300F8741668700B850A82850B83E4F0A38030
:103D130014E860128E828F83123605850E82850F1A
:103D230083EAF0A3EBF088108018780E121B94AC92
:103D330008AD09EEFAEFFB1208CE7402121927E957
:103D4300F510AA08AB091208DAE510700E850C828B
:103D5300850D831236051204E4800974166510700C
:103D630003751000A910023C73EAFEEBFF8C0E8D65
:103D73000FEE2405F50AE43FF50B22124828850CC3
:103D830082850D832274EA12198175080075090072
:103D93007E007F00750A00EC2402F510E43DF51166
:103DA3008035EC65087003ED65096003023E3D88CC
:103DB300828983A3A3E06A7003A3E06B707C88828B
:103DC3008983A3A3A3A3124733EE28FEEF39FFEAA7
:103DD30028FAEB39FB050A123F0D503A850A0C7598
:103DE3000D007403780C1218FE851082851183125E
:103DF3003F00123FFD601FE508450970A58C088D43
:103E03000988828983122FD088828983A3A3E02E15
:103E1300FAA3E03F80BEE50AC394025003023EFBCF
:103E2300750800750900EE4F6010EEFAEFFB1214EF
:103E3300988A0E8B0FEA450F70057900023EFD75D7
:103E43000B00023ED0850B0C750D007403780C1229
:103E530018FE851082851183E0250CF50CA3E0354F
:103E63000DF50DE50C2406F514E4350DF515851453
:103E730082F5831240026042E50C2404F512E43516
:103E83000DF513851282F583121BABE50E2508FA97
:103E9300E50F3509FB12141A7402121927851282D1
:103EA300851383E02508F508A3E03509F509851492
:103EB3008285158312360512149EE50B600D7C086E
:103EC3007D007900AA0CAB0D121432050BE50BC370
:103ED300950A5003023E48851082851183124733A9
:103EE30088828983A3A3A3A3A3A3E50EF0A3E50F6D
:103EF300122B63EEF0A3EFF07901023A62123F0452
:103F030022E0250CF8A3E0350D229002F3E0F8E55A
:103F13000AC3982274F01219818A0E8B0F8C0A8DB2
:103F23000B750D00750C0080507916EE2406F5080C
:103F3300E43FF5098E828F83A3A3121BAB8E828F7E
:103F430083A3A3A3A3121BAB850882850983121B3A
:103F5300AB850E82850F83A3A31236051208F27474
:103F630006121927E9F50D7416650D706C85088224
:103F7300850983E4F0A3F0050C9002F3E0F8E50C67
:103F8300C3985066AA0C8A0875090074037808124E
:103F930018FE850A82850B83A3A312404CE8FEE931
:103FA300FF8E828F831240026040EA2401F508E409
:103FB3003400F5099002F3E065087002E509601426
:103FC30088828983A3A3A3A3A3A3A3A312363460E4
:103FD30003023F2C7918023F2EE9609B12472F748E
:103FE3001012195D123FF4123C5CA90D7F08021AEE
:103FF30053E0FAA3E0F5838A8222F9888289831247
:104003004828EC4D2274F61219817C0080010C9033
:104013000350E0F8ECC398501E8C08750900740235
:1040230078081218FE124041E06A7003A3E06B7037
:10403300DDE8FAE9FB80047A007B000240E49002A9
:10404300F112404C8882898322E02508F8A3E035E9
:1040530009F92274F21219818A088B09750A008002
:10406300278E828F83A3A3A3A3122B5A6003121458
:104073009E7C087D007900EEFAEFFB1214328E82EB
:104083008F83E4F0A3F0050A123F0D5027850A0C35
:10409300750D007403780C1218FE85088285098358
:1040A300A3A3E0250CFEA3E0350DFF8E828F8312C0
:1040B300363470AD85088285098374FFF0A3F0025E
:1040C300481C74F61219811208868A828B83E58252
:1040D300458370067A007B008007A3A3A3A312364F
:1040E300057F02021A5374F412198189088C828D98
:1040F30083E06402703C1246D2FEA3E0F9EEF8744A
:10410300026870037429697029750A02750B0078B7
:104113000A121B94741012195D121BAB741012193E
:104123005D121BABA9081211E67406121927E9F9EF
:1041330080027901022B9774E812198174FB12191A
:1041430011E9851882851983F08A168B17ECFEED29
:10415300FF7510008E828F83A3A3A3E0A2E4502DEA
:10416300741D12195D1236051208E08A828B83E5ED
:104173008245837003024571790AEEFCEFFDAA16AE
:10418300AB1712197FE9F5106003024574741F120F
:10419300195DE0F508A3E0F509742112195DE0F556
:1041A3000AA3E0F50B742312195DE0F50EA3E0F505
:1041B3000F8E828F83E064026003024512A31247CD
:1041C30033850882850983A3858212858313EE24B0
:1041D30006F50CE43FF50D888289831245B1F51489
:1041E300E439F5157814121C1E0100002801281467
:1041F3004207000228D94203284742002908440104
:104203002933440229D443032908440429AC441222
:1042130045E50E450F600302450D850C82850D8330
:10422300124733E8FAE9FB8A828B83E0850A8285A9
:104233000B831245BC121B948A828B83A3E0FCA3DD
:10424300E0024496E50E450F600302450D850A82A0
:10425300850B837401F01245A6850882850983F0D6
:104263007C007D008E828F83A3A3A3A3E02401FAA5
:10427300A3E03400FB120784EA4B60408A828B83FD
:10428300E02402F8850A82850B83E028F0EA2404FF
:10429300F8E43BF988828983E085128285138312CF
:1042A30045CA1245BC121B948A828B83A31245997B
:1042B300E5082403FAE43509FB02449B850A828559
:1042C3000B83E02404F07C047D007900AA12AB1375
:1042D300121432024574E50E450F600302450D12B8
:1042E30045A6FEA3E0FF850A82850B837404F0EEE6
:1042F300850882850983F0EF851282851383F07424
:1043030003121977EEFAEFFB1207848A0C8B0DEA7E
:10431300450D70030243B78A828B83A3A3122FD068
:104323007401121967880E890F780E121B94740595
:1043330012195D121BAB7CFF7DFF12078A740412F6
:1043430019278B0FEA450F7033850C82850D831275
:10435300459D121B94850C82850D83A3121BAB7C98
:10436300027D007AD57B811205867404121927E930
:10437300700A740112195D74FFF0A3F08E828F83AB
:10438300E064027039750C02750D00780C121B94F1
:104393008E828F83A3124599E5082404FAE4350934
:1043A300FB12141A7402121927850A82850B83E003
:1043B30024028009740112195DEEF0A3EFF0740179
:1043C30012195D12458B740112195D124582024563
:1043D30007E50E450F600302450D850C82850D83AD
:1043E300124821AA16AB171211EC850A82850B839A
:1043F3007402F0850882850983EAF08512828513A9
:1044030083EB02450AE50E450F600302450D124595
:10441300A6F8A3E0F9850A82850B837402F0E88588
:104423000882850983F0E985128285138302450A90
:10443300850C82850D83123605121414EAFAF8C32B
:10444300950EE4950F405CE8650E450F70047A0005
:104453008021851882851983E0FCE50E2CFCE43568
:104463000FFDC3EC98ED94005003E08005E50ECA00
:10447300C39AFAEA850A82850B83F08A0A750B00D0
:10448300780A121B94850C82850D83E0250EFCA30C
:10449300E0350FFDAA08AB0912141A74021219278A
:1044A300024574751007024574E50E450F705B8570
:1044B3000C82850D83124733850A82850B8374072B
:1044C300F08882898312458312457BE085128285B9
:1044D3001383F0E82402FAE439FB8A828B831245C2
:1044E3008B8A828B83124582A3A3122B621245907F
:1044F300F0E82405F850010988828983124590A3C6
:104503001245CAA3A3A3A3F0806775100B8062743E
:104513001D12195D1236051208868A828B83E58285
:104523004583604A124733880C890DE8450D603E88
:10453300742512195DE0F5107810121B98780E128D
:104543001B94780A121B947808121B94740712198F
:104553005DE0F9EEFCEFFDAA16AB17850C82850D25
:104563008312197F7407121927E9F5108003751058
:104573000EA91074050238C8F088828983A322A388
:10458300E0850882850983221245D1F0221245D1A4
:10459300A3A3229002F712482822E0F50E750F001C
:1045A300780E22850C82850D83123A6BE022E0FAA5
:1045B300A3E0F8E4C8F9EA2822F08A828B83E0F5C5
:1045C3000A750B00780A2212457B1245D122E08539
:1045D3000882850983A3A32274EE12198174FE1243
:1045E30019118A088B09ECFEEDFF890AAC18AD1985
:1045F300EEFAEFFB1207848A0C8B0DEA450D70036C
:104603000246C38518828519831236051208868AE5
:10461300828B83E582458370030246BEA3A31247C0
:1046230033880E890FE8450F70030246BE741412D7
:10463300195DE0F510A3E0F511E50AF50B780B120F
:104643001B98741912195D121BAB7810121B94740A
:104653001B12195DE0F9AC0CAD0DAA08AB09850E70
:1046630082850F8312197F7405121927E9F50B70E0
:104673005274FE650A604C850C82850D83E06402EA
:1046830070411246D2FAA3E0F9EAF87402687003A3
:10469300742969702E8510828511831245B1F50C3A
:1046A300E439F50D780C121B94EEFCEFFDAA08AB70
:1046B3000912090A74021219278008750B0E800368
:1046C300750B01A90B74021219277F0A021A53A34F
:1046D30012473788828983E02274F612198174FEA7
:1046E300121911740C12195D124733E8851882856B
:1046F3001983F0740112195DE9F0E4F508F50978FE
:1047030008121B947508027808121B94740412197A
:1047130067880889097808121B9479FE1208F274D5
:104723000612192774021219270240E48E828F831E
:1047330012473722E0F8A3E0F92274F7121981EA4D
:10474300FEEBFF890890030E1245991211ECEA540F
:1047530002600BA908EEFAEFFB12077880027901D9
:104763007F01021A5374F212198174FE121911EAAD
:10477300FEEBFF890A7401650A60147402650A601E
:10478300030248177901120B14E96003024817EE7C
:10479300FAEFFB1208D4EA4B60031208DAA818A94F
:1047A30019880889097808121B947508027509008D
:1047B3007808121B947508DB7509817808121B941D
:1047C3007CFF7DFF7A017B0012077E740612192796
:1047D3008038850882850983A3A3A3A3A3A31248D2
:1047E30021EEFAEFFB1211D4E4F50CF50D780C125F
:1047F3001B94740212195D121BAB7CFF7DFFAA0888
:10480300AB0912078A74041219278A088B09E50871
:10481300450970BE74021219277F06021A53123A11
:104823006B12482822E0FCA3E0FD2274F4121981E4
:104833008A088B09ECFEEDFF901667E0F4604B7A73
:10484300097B0012143EEA4B60408A828B8374B169
:10485300F0A3E4124890F08A828B83A3A3E508F0C7
:10486300A3E509124890A3EEF0A3EFF0740C12191C
:104873005D1247338A828B83A3A3A3A3A3A3A312AB
:104883003C5C901667E0F912144A022B97F08A8277
:104893008B83A3A3A3A32274EE12198174FA1219B2
:1048A300118A0A8B0BE9FF8C088D097E00850A0C9F
:1048B300850B0D780C121BD8000410764BE24805CB
:1048C30049244947496A498D49BE49E149F849287C
:1048D3004AD74AFA4A1D4B4B4B764B764B514A7497
:1048E300016F7019850882850983E0C39403500D15
:1048F300850882850983E0901753F080027E1802B1
:104903004B9E74026F7015850882850983E0F8A3B6
:10491300E0F9901754E8F0A3E9F080027E18024B07
:104923009E74016F7019850882850983E0C3940220
:10493300500D850882850983E0900751F080027E3F
:1049430018024B9E74016F7019850882850983E0F4
:10495300C39405500D850882850983E0900752F0C2
:1049630080027E18024B9E74016F70198508828540
:104973000983E0C39402500D850882850983E09082
:104983000753F080027E18024B9E74106F702775D8
:104993000C10750D00780C121B94AC08AD097A54F9
:1049A3007B0712141A74021219278A0C8B0D850CBB
:1049B30082850D8380027E18024B9E74016F7019ED
:1049C300850882850983E0C39402500D850882859A
:1049D3000983E0900764F080027E18024B9E740105
:1049E3006F700D850882850983E0901757F0800268
:1049F3007E18024B9E74046F702690819E780C1271
:104A030017D5850882850983780C1216675011859E
:104A130008828509831217FF90076612180B80021C
:104A23007E18024B9EEF702112071EE970131211BC
:104A33007AE9F50D795012156AE9F50C12116880BF
:104A43000A9007F97401F080027E18024B9E7407E6
:104A53006F707C750E06750F00780E121B94850817
:104A630082850983A3AC82AD83740212196F121479
:104A73002074021219278A108B1185100E85110FCD
:104A83007C007D00AA18AB19850882850983E0F9AB
:104A930012110EE9F50CE50CC3940A502E12071EF1
:104AA300E97015A90C121180E9F50E795012156AF7
:104AB300E9F50D1211688019A80C790074FA28F52C
:104AC30082740739F5837401F080067E0280027ECA
:104AD30018024B9E74016F7019850882850983E063
:104AE300C39402500D850882850983E0900765F021
:104AF30080027E18024B9E74016F701985088285AF
:104B03000983E0C3940A500D850882850983E090E8
:104B13001756F080027E18024B9E74016F70258534
:104B23000882850983E0C3940740198508828509B3
:104B330083E0C39411500D850882850983E09017A3
:104B430058F080577E18805374016F70229007F8D5
:104B5300E0F50C850882850983E09007F8F0E50C01
:104B630070399007F8E064017031121168802C7E6F
:104B7300188028C3E50A9427E50B9400501B7402A0
:104B83006F7016850882850983E0FCA3E0FDAA0AFD
:104B9300AB0B12059EE9FE80027E02EEF97406124B
:104BA30019277F0A021A5374EC12198174DA121945
:104BB30011890D8A128B138C0A8D0B743A12195DAD
:104BC300E0F50C908132AC18AD197406121824ACC0
:104BD30018AD19AA12AB13A90D12110EE9FEEEC3FB
:104BE300940A4003024D1EEEF912114AE9FF901791
:104BF30053E064027004740180027400F5087808BD
:104C0300121B98AD0CEFFCEEF9AA0AAB0B1211BC08
:104C130074011219277C147D007900741212196F24
:104C23001214328A0E8B0F850E08850F0974121227
:104C330019777A1075F006EEA42424F9121564E9A5
:104C4300703C7C1079FF741212196F121492E97080
:104C53002D742212195DAC82AD837A0475F006EED1
:104C6300A42425F9121564E9F5087412121977EFD3
:104C7300A2E0E433F9AA0AAB0B120628E9F874069A
:104C83001219777A0C74702EF9121564E97079741D
:104C93000612196F12113E750E00E50EC3940450EF
:104CA30067A80E7900E875F003A4C8AAF075F000B0
:104CB300A42AFA75F003E9A42AF9740612195DE52A
:104CC3008228F508E58339F509850882850983E09B
:104CD300F8A3E0F9E849602C850882850983A3A33A
:104CE300E0F5107511007810121B94850882850970
:104CF30083E0FCA3E0FDAA0AAB0B1208F8740212CE
:104D03001927E9F8050E8092EFA2E1500E900750A3
:104D1300E0F9AA0AAB0B1208FEE9F87404650C70FB
:104D23000F901753E064027007AA0AAB0B1211B677
:104D3300790074261219277F0C021A5374F712197B
:104D430081EAFEEBFF12071EE970679007F9E06442
:104D530001701B12117AE9F5089007F97400F07CD1
:104D63000A7D0079007AFA7B0712143280397508BC
:104D730000E508C3940A502FA808790074FA28F5AF
:104D830082740739F583E064017018A90812118051
:104D9300E9FAA808790074FA28F582740739F583CB
:104DA3007400F0050880CA795012156AE9F50812F3
:104DB30011687F01021A5374F2121981890BEAFEFA
:104DC300EBFF8C088D09750A0AE50B600C1460096A
:104DD300146044146064024E5FEEFAEFFB12115C40
:104DE300E9F50AE50AC3940A5072E5084509606CBF
:104DF300750C06750D00780C121B94EEFCEFFDAAE2
:104E030008AB0912141A74021219278A0C8B0D8528
:104E13000C82850D838045EEFAEFFB121156E9F5FE
:104E23000AE50AC3940A5034E5084509602EAA0826
:104E3300AB09A90A121150E98022EEFAEFFB121115
:104E430062E9F50AE50AC3940A5011E508450960C9
:104E53000BAA08AB09A90A121150E9F8A90A7F069F
:104E6300021A5374F21219818A0C8B0DE9FF7E1515
:104E730074FF650C700474FF650D702A750800E5F6
:104E830008C3940A5014EFFC7A027B00A90812119C
:104E93002CE960027E00050880E5EF60627AA47B5E
:104EA30011120B388059AA0CAB0D120B088A0A8B0E
:104EB3000B850A08850B09E508450960407C007DE0
:104EC30000E5082405FAE43509FB85088285098392
:104ED300A3A3A3A3E0F912110EE9F50AE50AC3940B
:104EE3000A500EEFFC7A027B00A90A12112CE97E0C
:104EF30000EF600BAA08AB091211A480027E14EE26
:104F0300F97F06021A5374EE1219818A0E8B0F8CE5
:104F13000A8D0B741212195DE0F50CA3E0F50D7503
:104F2300081574FF650E700474FF650F701E7E0014
:104F3300EEC3940A5061AC0CAD0DAA0AAB0BEEF9AB
:104F4300121132E960037508000E80E4AA0EAB0F5C
:104F5300120B088A108B11AE10AF11EE4F60357C27
:104F6300007D00EE2405FAE43FFB8E828F83A3A32A
:104F7300A3A3E0F912110EE9F509E509C3940A5058
:104F830016AC0CAD0DAA0AAB0BA909121132E975C7
:104F930008008003750814A9087F0A021A5374F7DE
:104FA300121981EAFEEBFF90076AEEF0A3EFF0908F
:104FB3000750E0FC7D007A267B0012059EE9F50888
:104FC300900750E0F91208627F01021A5374F0123D
:104FD300198174EC1219118A0C8B0D850C82850DC5
:104FE30083A3A3E024FA700302544924FD7003024F
:104FF30052BE1470030250C014601024FD700302EB
:1050030052661470030252FD02545CAE0CAF0D9055
:10501300076AE0F8A3E0F9E849606690076AE0F8F8
:10502300A3E0F5838882E0F8A3E0F9E8496052EE53
:10503300240CF582E43FF583E0F5087808121B9809
:10504300EE240BF582E43FF583E0F98E828F83A390
:10505300A3A3A3A3A3A3A3A3E0FCA3E0FDEE2403C4
:10506300FAE43FFB90076AE0F8A3E0F5838882E067
:10507300F8A3E0F583888212197F7401121927803F
:10508300398E828F83A3A3A3A3A3A3A3A3A3121BDA
:10509300AB9007661217F312063A7402121927E946
:1050A300601879018E828F83A3A3A3A3A3A3A3A3D1
:1050B300A3E0FAA3E0FB120634E902545CAE0CAFA2
:1050C3000D7508008E828F83A3E060030251E88E82
:1050D300828F83A3A3A3A3A3E0A2E040030251E82A
:1050E300900804E0F8A3E0F9E84960030251E87C82
:1050F3000E7D007900AA18AB191214328A0A8B0BA1
:10510300AA0AAB0BEE240CF582E43FF583E0F8A387
:10511300E0F9E8496036750A06750B00780A121B38
:1051230094EE240CF582E43FF583E02410FCA3E025
:105133003400FD740212196F12141A740212192723
:105143008A0A8B0B850A82850B83804F8E828F831D
:10515300A3A3A3E0FAA3E0FB120B088A0E8B0F852F
:105163000E0A850F0BE50A450B602D750E06750FAC
:1051730000780E121B94E50A2405FCE4350BFD743C
:105183000212196F12141A74021219278A0E8B0F46
:10519300850E82850F83800302545C8E828F83A3E6
:1051A300A3A3A3A3E0A2E25004D2F08002C2F0A220
:1051B300F0E433F87900740C12195DE048F0A3E0D1
:1051C30049F0EEFCEFFDAA18AB19121144E9701275
:1051D3007A027B00900750E0F912146EE97900021D
:1051E300545E75081590076AE0F8A3E0F9E8496092
:1051F3006F90076AE0F8A3E0F5838882A3A3E0F841
:10520300A3E0F9E84960598E828F83A3E0FC79011A
:105213008E828F83A3A3A3E0FAA3E0FB90076AE047
:10522300F8A3E0F5838882A3A3E0F8A3E0F58388DD
:105233008212197FE5086028AC0879038E828F8378
:10524300A3A3A3E0FAA3E0FB90076AE0F8A3E0F5C9
:10525300838882A3A3E0F8A3E0F583888212197FF1
:1052630002545CAE0CAF0D90076AE0F8A3E0F9E8D6
:1052730049604590076AE0F8A3E0F5838882A3A319
:10528300E0F8A3E0F9E849602F850C82850D83A33C
:10529300E0FC79028E828F83A3A3A3E0FAA3E0FB51
:1052A30090076AE0F8A3E0F5838882A3A3E0F8A35C
:1052B300E0F583888212197F02545CAE0CAF0D7C3B
:1052C300007D00EE2404FAE43FFB8E828F83A3A3C8
:1052D300A3E0F912110EE9F508E508C3940A501783
:1052E300EE240AFCE43FFD7A0475F006E508A424E5
:1052F30025F912155EE9F802545CAE0CAF0D900768
:1053030065E06019901756E0F98E828F83A3A3A3FB
:10531300E0FAA3E0FB120634E9F802545C90175359
:10532300E0701679058E828F83A3A3A3E0FAA3E02E
:10533300FB120634E9F802545C8E828F83A3A3A385
:10534300E0FAA3E0FB120B088A0A8B0B850A088597
:105353000B09E5084509700302545C8E828F83A311
:10536300A3A3A3A3A3A3E0A2E0506D8508828509AC
:1053730083A3A3A3A3E060608E828F83A3A3A3A3CD
:10538300A3A3A3A3A3E0F50AA3E0F50B7409780A8A
:105393001218EFE50A5401F8E50B5400F9E8A2E00E
:1053A3004036740E121977E5082405FAE43509FB33
:1053B300850882850983A3A3A3A3E0F912110EE94B
:1053C300701679038E828F83A3A3A3E0FAA3E0FB75
:1053D300120634E9F802545CEE2405FCE43FFD8533
:1053E3000882850983A3A3A3A3E0F98E828F83A3F5
:1053F300A3A3E0FAA3E0FB1211B090076AE0F8A3BD
:10540300E0F9E849605390076AE0F8A3E0F5838880
:1054130082A3A3E0F8A3E0F9E849603D7C007900AA
:105423008E828F83A3A3A3E0FAA3E0FB90076AE035
:10543300F8A3E0F5838882A3A3E0F8A3E0F58388CB
:105443008212197F8013AE0CAF0D8E828F83A3A3BC
:10545300A3E0FAA3E0FB12110879017414121927CF
:105463007F08021A5374F512198174F21219118903
:1054730009EAFEEBFF8C0AAC18AD197A0E75F0063B
:10548300E509A42420F9121564E9705F7C0679FF0D
:10549300AA18AB19121492E97051740C12195DE039
:1054A300F8A3E0F9E8F508E50A6005EE4208800490
:1054B300EEF45208A8087900740C12195DE06870C4
:1054C30003A3E0696021A8087900740C12195DE850
:1054D300F0A3E9F0AC18AD197A0E75F006E509A44E
:1054E3002420F912155EE9790180027900740E1205
:1054F30019277F03021A5374F012198174E61219E3
:1055030011890B8A0C8B0DECFEEDFF740C121977CD
:105513007A0E75F006E50BA42420F9121564E960F0
:105523000302562A7C0679FF740C12196F12149227
:10553300E9600302562AAC18AD197A0C7470250B76
:10554300F9121564E96003025626750A00AA18AB1E
:105553001912113EE50C450D702E7C0C7900AA182A
:10556300AB19121492E9600302560C7C0C7D00798E
:1055730000AA18AB191214328A088B098508828590
:105583000983750A0102560CAC18AD19AA0CAB0DB0
:105593001211388A0E8B0F850E08850F09E5084511
:1055A300097030EE4F601BAC18AD197A007B001206
:1055B30011388A0E8B0FA80EA90F88088909E849AC
:1055C300700479008063850882850983E50CF0A364
:1055D300E50DF0850882850983A3A3E0F87900EE41
:1055E300687002EF696022EEC0E085088285098356
:1055F300A3A3D0E0F0EE4F700D8508828509837474
:1056030000F0A37400F0750A01E50A6016AA18AB4E
:105613001912113EAC18AD197A0C7470250BF912DE
:10562300155EE9790180027900741A1219277F083F
:10563300021A5374F61219818A088B097E00EEC38D
:1056430094045050EEF87900E875F003A4C8AAF06A
:1056530075F000A42AFA75F003E9A42AF9EC28F5F9
:1056630082ED39F583E065087004A3E065097021D4
:10567300EEF87900E875F003A4C8AAF075F000A469
:105683002AFA75F003E9A42AF9EC28FAED39FB802C
:10569300070E80AA7A007B007F02021A5374F71266
:1056A30019817C00ECC39404400302574FECF87952
:1056B30000E875F003A4C8ADF075F000A42DFD75E6
:1056C300F003E9A42DF9EA28F582EB39F583E0F438
:1056D300FEA3E0F4FFECF87900E875F003A4C8AD8D
:1056E300F075F000A42DFD75F003E9A42DF9EA2867
:1056F300F582EB39F583EEF0A3EFF0ECF87900E8EF
:1057030075F003A4C8ADF075F000A42DFD75F0038A
:10571300E9A42DF9EA28F582EB39F583A3A3E0F494
:10572300C0E0ECF87900E875F003A4C8ADF075F0BB
:1057330000A42DFD75F003E9A42DF9EA28F582EB09
:1057430039F583A3A3D0E0F00C0256A77F01021A18
:105753005374F012198174F4121911EAFEEBFF8CE1
:10576300088D09900804E0F8A3E0F9E849702CEEED
:105773004F6006E508450970057901025A00EEFA03
:10578300EFFB12115CE9901759F0901759E0C3949D
:105793000A400812116EE9901759F0901759E0C3A7
:1057A300940A40030259FE900804E0F8A3E0F9E8E4
:1057B30049600302584AEEFCEFFD7A0E75F006903D
:1057C3001759E0A42420F912155EE9F50C7C0C7D31
:1057D3000079FFAA18AB191214328A0E8B0F850EAB
:1057E3000A850F0BAC18AD197A0C901759E0247089
:1057F300F912155EE9F50D750E0E750F00780E1290
:105803001B94EEFCEFFD901759E0F87900E875F072
:105813000EA4C8AAF075F000A42AFA75F00EE9A444
:105823002AF9746C28FA740739FB12141A740212D9
:1058330019278A0E8B0FA80EA90F900804E508F00C
:10584300A3E509F00259FA900804E0F8A3E0C8249C
:1058530006F582C83400F583E0F8A3E0F9E849606F
:1058630043900804E0F8A3E0C82406F582C8340096
:10587300F583E0FCA3E0FD7A1B75F006901759E071
:10588300A42421F912155EE9F8900804E0F9A3E0D5
:10589300C92406F582C93400F5837400F0A37400AB
:1058A300F00259FA900804E0F8A3E0C8240AF5824C
:1058B300C83400F583E0F8A3E0F9E84960439008B1
:1058C30004E0F8A3E0C8240AF582C83400F583E0B5
:1058D300FCA3E0FD7A1B75F006901759E0A424227F
:1058E300F912155EE9F8900804E0F9A3E0C9240A67
:1058F300F582C93400F5837400F0A37400F00259F3
:10590300FA900804E0F8A3E0C8240CF582C8340038
:10591300F583E0F8A3E0F9E8496043900804E0F870
:10592300A3E0C8240CF582C83400F583E0FCA3E0AF
:10593300FD7A1075F006901759E0A42423F9121587
:105943005EE9F8900804E0F9A3E0C9240CF582C9E4
:105953003400F5837400F0A37400F00259FA900840
:1059630004E0F8A3E0C82408F582C83400F583E016
:10597300F8A3E0F9E849606F900804E0F8A3E0C8F1
:105983002408F582C83400F583E0FCA3E0FD7A1017
:1059930075F006901759E0A42424F912155EE9F571
:1059A3000A900804E0F8A3E0C82408F582C834008C
:1059B300F583E02410FCA3E03400FD7A0475F006BF
:1059C300901759E0A42425F912155EE9F89008040C
:1059D300E0F9A3E0C92408F582C93400F583740013
:1059E300F0A37400F080109007F8E060031211C276
:1059F3001211AA79018006790080027901740C12D0
:105A030019277F08021A5374F712198174F21219B5
:105A130011E9FEAC18AD197A0E75F006EEA4242038
:105A2300F9121564E9700E740C12195DE0F8A3E025
:105A3300F9E8F980027900740E1219277F01021A1E
:105A43005374F412198174F21219118909EAFEEBE5
:105A5300FFE509C3940A5004EE4F700479028041B4
:105A6300AC18AD197A0E75F006E509A42420F912D5
:105A73001564E9F508E5087026750A06750B0078C4
:105A83000A121B947402121977EEFAEFFB12141A1E
:105A930074021219278A0A8B0B850A82850B83A944
:105AA30008740E1219277F04021A5374F412198111
:105AB300EAFEEBFF750800E508C3940A5043750A34
:105AC30006750B00780A121B94EEFCEFFDA808790B
:105AD30000E875F00EA4C8AAF075F000A42AFA75C0
:105AE300F00EE9A42AF9747228FA740739FB121428
:105AF3002C7402121927E96004A90880060508809E
:105B0300B6790A7F04021A5374F4121981EAFEEB80
:105B1300FF750800E508C3940A5043750A06750B20
:105B230000780A121B94EEFCEFFDA8087900E875D3
:105B3300F00EA4C8AAF075F000A42AFA75F00EE9D5
