:020000040000FA
:060000000201070222A12B
:03000B000226CA00
:03002B000226A505
:030053000223176E
:100083000220F7E5C754F84401F5C77901220000BF
:100093000080FB120086B900030200F1E4792178A5
:1000A30008B800028004F709D8FCE479297802B87B
:1000B30000028004F709D8FCE490028178177914D0
:1000C3008002F0A3D8FCD9FA7A977B159001377890
:1000D3003079048015E493A3AD82AE838A828B8347
:1000E300F0A3AA82AB838D828E83D8E9D9E7758288
:1000F3009E7583FF740112011975829175830074D3
:100103000012011975D00075813F751881751902A8
:10011300759F00020096C09FF59FE473D09F22D085
:1001230083D082C09FE493C0E0740193C0E0740263
:1001330093F59F22FF0000B4000028002800283018
:1001430075A000A000A000A00000080008E001F0D6
:10015300001000100010001000100010005000509C
:1001630000500010001000D0070000000000000F36
:100173000001000500307507001000010081FF0039
:10018300000000FFFFFF8E06AC069406D006FF02B8
:10019300020208025000A0000000E80302D581011A
:1001A3000000D28102D981010000F21502DF810132
:1001B3000000C70202D981010000F31502E18101A9
:1001C3000000DD0202D981010000F41502E3810180
:1001D3000000DF0202D981010000F51502E5810864
:1001E3000000E00202D981010000F61502E7810157
:1001F3000000F715FF0100FF2002D581010000C6B2
:100203008102D9810100005B1602E9810000000030
:100213000002DD810300000E0317003C0D3C0D3C82
:100223000D3C0D3C0D3C0D3C0D3C0D3C0D3C0D3C83
:100233000D3C0D3C0DE20FF40FDC0F020202020233
:1002430002020202010D000000100102D58101002B
:1002530000C98102D9810100009E16020D820100AE
:1002630000480702D9810100009F16020B8201009A
:1002730000178102D981010000A016020982010042
:1002830000FB8002D981010000A11602FB8101005D
:1002930000958002D981010000A21602F1810100BC
:1002A30000838002D981010000A31602118201009C
:1002B30000A78002D981010000A41602ED8101008C
:1002C30000B98002D981010000A51602EB8101006B
:1002D30000098102D981010000A6160207820100EC
:1002E30000A71601E8030577100A0D095050474689
:1002F30075656C4761756765051250002003020A36
:10030300000201060302F0FF5050474675656C4733
:1003130061756765000000000000000000461200E0
:1003230000521200005812070101010901010110D6
:10033300000101E803000010024173796E6320425B
:10034300756C6B0053796E632042756C6B0002D53C
:1003530081010000CF8102D9810100009A1702F5C3
:10036300810000006C0802DD81030000940802DBB9
:10037300810100009C1702D9810100009B1702F73D
:1003830081010000800802DB81010000A7170A1029
:100393000A02436F6D6D616E6400526573706F6E18
:1003A3007365004D61696C626F78004465766963BB
:1003B3006520496E666F0002D581010000CC810281
:1003C300D981010000F11702FF81030000980802A0
:1003D300DB81010000F51702D981010000F2170249
:1003E30001820000009A0802DD81030000B40802C4
:1003F300DB81010000FD1702D981010000F3170220
:1004030003820300009C0802DB810100000618023E
:10041300D981010000F417020582010000B008022F
:10042300DB810100000E18FFFFFF0001307503029E
:1004330001060000000000000000000000000000B2
:100443000000000000000000000000000000FFFFAB
:100453000600800CE8030000020000000000006AB0
:10046300157015120122A5D70312012225AC031220
:10047300012238AC0312012269AC03120122A3AC9E
:1004830003120122FCAC0312012243AD0312012229
:100493008BAD03120122BAAD03120122E9AD03129F
:1004A300012220AE0312012267AE0312012280AEA5
:1004B30003120122D5AE03120122EEAE0312012272
:1004C3003CAF0312012276AF03120122A0CB02122A
:1004D3000122A3CC02120122DCCC02120122FFCCA6
:1004E3000212012211CD021201224FCD021201226A
:1004F300CBCD0212012293CE02120122B5CE0212FB
:1005030001224CCF021201229ECF02120122CFCF31
:1005130002120122DCCF0212012246D00212012272
:100523009DD002120122A0D002120122D9D00212C0
:100533000122DCD002120122E6D0021201223AD1BA
:10054300021201227BD102120122AED10212012238
:10055300EBD102120122EDD20212012291D3021237
:100563000122FAD30212012238D402120122E7FB3C
:10057300021201220FFC021201223CFC0212012290
:1005830074FC02120122D2FC021201221EFD02128D
:10059300012285FD02120122C5FD0212012202FE83
:1005A3000212012230FE02120122DAFE021201229D
:1005B300E4FE02120122F1FE0212012224FF0212C2
:1005C300012230FF0212012248FF0212012252FFD0
:1005D30002120122CCD303120122DAD30312012225
:1005E300F2D30312012209D403120122D0BA011259
:1005F30001227ABB011201228DBC0112012209BD25
:100603000112012227BE0112012263BE011201223F
:10061300FEBE01120122E2BF01120122AEC001128D
:1006230001223CC201120122ADC20112012267C3A1
:100633000112012259C40112012299C4011201229B
:100643004DC5011201227FC50112012275C7011296
:100653000122B7C701120122D5C7011201223BC8EB
:10066300011201220AC901120122CEC9011201227B
:10067300EDCB01120122037900120122ED79001260
:100683000122987A00120122E97A00120122997B51
:10069300001201220A7C00120122EF7C00120122C7
:1006A300237D001201221C7E00120122597E0012BA
:1006B3000122357F00120122747F00120122907FF4
:1006C300001201228CC50312012210C6031201225B
:1006D3003BC60312012255C7031201226DA4031264
:1006E300012283A403120122A1A403120122B2A5B1
:1006F30003120122BCA503120122E7A60312012261
:10070300DEA7031201224BA8031201221BF10212DE
:10071300012251F20212012288F202120122DFF2B7
:1007230002120122F4F4021201221A96011201228A
:10073300A696011201220A980112012216980112AB
:100743000122519801120122C09801120122C99974
:1007530001120122D29A01120122999B0112012254
:10076300F69C01120122149D01120122319D0112F6
:100773000122DE9D011201225B9E01120122839E52
:10078300011201224DA10112012252A101120122E3
:100793006BA301120122B9A30112012229A40112A0
:1007A300012267A40112012243A50112012203A61B
:1007B300011201224FA60112012252A601120122A7
:1007C30096A601120122DEA6011201221DA7011223
:1007D30001223FA70112012273A701120122D6A70A
:1007E300011201220080031201220E800312012252
:1007F300618003120122808003120122C58003124B
:100803000122098203120122A48203120122E88237
:100813000312012212830312012281830312012294
:10082300C783031201223E8403120122EF840312C1
:1008330001222C27001201223C2700120122DD276E
:1008430000120122392800120122F6280012012287
:10085300122A00120122442A00120122732A0012D2
:100863000122202C00120122972E001201220731AF
:1008730000120122F93100120122F2320012012288
:10088300F93400120122ED37001201221C39001243
:100893000122203B00120122303C00120122BF3D05
:1008A30000120122B03E00120122FE3E001201227C
:1008B3006D3F00120122913F00120122E23F00121C
:1008C3000122834400120122844500120122E545DE
:1008D30000120122104600120122D6460012012204
:1008E30033A0031201223DA00312012282A00312AE
:1008F300012296A00312012226A1031201225FA165
:10090300031201229AA103120122C3A1031201229D
:1009130017A2031201222CA2031201224EA20312D8
:10092300012263A20312012277A2031201228CA2E5
:1009330003120122C6A203120122F2A20312012210
:100943003BA303120122ADA303120122F0A303125E
:1009530001221AA40312012245A403120122B8D2D0
:10096300031201221CA402120122FFA4021201227B
:100973007AA502120122B5A50212012206A70212CC
:10098300012294A70212012226AA02120122D8AA46
:1009930002120122E4AB0212012257AD021201221C
:1009A300B0AD02120122A19703120122E4970312B0
:1009B30001226898031201223F9B0312012220C1E6
:1009C30003120122D2C103120122CEC20312012259
:1009D3000DC30312012267C30312012277C9031255
:1009E3000122DAC90312012277CA03120122ACCA17
:1009F30003120122DCCA0312012217CB03120122C4
:100A030037CB03120122FF89031201228B8A0312BF
:100A130001224A8B03120122628C031201227C8E73
:100A230003120122888D02120122AD8D02120122CE
:100A33007A8E021201224E8F02120122BB8F021202
:100A43000122FB8F02120122979002120122CB9105
:100A530002120122A692021201220593021201221E
:100A6300919302120122FF93021201228B9402122C
:100A73000122D19402120122439502120122D5953B
:100A83000212012276960212012296960212012286
:100A9300DE960212012227970212012243970212C5
:100AA3000122699702120122E39702120122F197B0
:100AB30002120122809802120122E99802120122F5
:100AC300B38E03120122388F031201227A8F03128D
:100AD30001225E9003120122CB90031201220F9197
:100AE3000312012253910312012280910312012266
:100AF300A89103120122E091031201221E92031214
:100B03000122459203120122BF920312012209938B
:100B130003120122FACB0112012299CD0112012203
:100B2300D1CF0112012225D00112012250D001128E
:100B330001222CD1011201225CD1011201228BD19D
:100B4300011201229ED101120122DFD101120122E1
:100B53000CD2011201225AD20112012296D20112A1
:100B63000122DBD20112012228D301120122A2D3D6
:100B730001120122E3D501120122CDD70112012274
:100B830009D80112012298D901120122DDD90112DB
:100B9300012250DA01120122A5DA01120122AADA96
:100BA3000112012234DB0112012253DC0112012262
:100BB30064DC0112012201C2021201227AC2021272
:100BC300012234C8021201223FC902120122E8CADB
:100BD3000212012276CB02120122F06400120122DA
:100BE3007165001201229E6500120122E765001261
:100BF3000122E86600120122416700120122BD684A
:100C0300001201223F69001201225A6900120122D7
:100C1300CB6900120122886A001201224B6B001279
:100C23000122D96B00120122906C00120122A36CE5
:100C3300001201223C6D00120122D36D0012012229
:100C4300FA6D00120122636E00120122AD6E0012D2
:100C53000122FB6E00120122A06F001201223E70DE
:100C630000120122CB70001201223C7100120122FA
:100C7300837100120122DB71001201220D72001236
:100C83000122C77200120122CE73001201221774CF
:100C93000012012234740012012253740012012243
:100CA3008675001201223D7600120122627600123F
:100CB3000122777600120122E776001201222877BB
:100CC300001201224C7800120122CD780012012279
:100CD30041B8021201228CB80212012298B8021202
:100CE30001226CB90212012283B902120122C0B996
:100CF30002120122F1B90212012229BA02120122BF
:100D03007FBA0212012295BA02120122D1BA02124B
:100D13000122E4BA021201220BBB021201223FBBE1
:100D23000212012265BC02120122AFBD021201228E
:100D3300ABBE02120122C8BF0212012221270012F8
:100D4300012287DC01120122C2DC0112012214E01C
:100D53000112012270E1011201222FE2011201228C
:100D630096E50112012280E601120122CCE601126E
:100D73000122E6E60112012223E7011201222EE7F6
:100D8300011201226DE70112012276E7011201220D
:100D930020E801120122F7E8011201224BE90112B6
:100DA3000122A8E9011201221AEA01120122AEA8C6
:100DB300011201220DAC0112012213AC0112012216
:100DC30044B3011201224BB701120122DEAF031219
:100DD3000122BBB003120122FFB00312012239B179
:100DE30003120122D1B10312012240B203120122E4
:100DF30049B20312012255B2031201226FB2031248
:100E0300012299B203120122C9B203120122F19BFA
:100E130003120122FE9B03120122189C03120122DA
:100E23004B9C03120122899C03120122EE9C0312A4
:100E33000122039D031201220E9D031201221B9D19
:100E430003120122329D03120122409D031201224B
:100E53004B9D03120122579D03120122669D03122B
:100E63000122719D03120122949D03120122389ED7
:100E730003120122489E03120122629E03120122E1
:100E83007F9E031201229A9E03120122BF9E031228
:100E93000122CA9E03120122DF9E03120122F39E46
:100EA30003120122549F031201225A9F03120122AB
:100EB300609F03120122669F031201227E9F031289
:100EC3000122B19F031201220580021201229C809C
:100ED300021201223481021201222482021201220F
:100EE3005B82021201226E8202120122DC82021252
:100EF30001227784021201229E840212012240857C
:100F03000212012275850212012286850212012234
:100F1300FF85021201222086021201223886021264
:100F23000122908702120122998902120122E98B80
:100F330002120122EC8C021201223B8D02120122C9
:100F430069EB0112012266EC0112012251ED01123B
:100F530001225BED011201227DED0112012289EDD7
:100F630001120122DBEE011201220AEF011201221A
:100F73003AF0011201227CF001120122A8F10112C0
:100F830001227EF201120122D0F2011201222FF37B
:100F93000112012266F301120122A1F301120122BF
:100FA3003CF70112012255F701120122D7F7011272
:100FB3000122E5F7011201223AF80112012248F851
:100FC30001120122B5F80112012227F901120122AF
:100FD3006DF9011201220C99021201222E990212BB
:100FE3000122189B02120122BD9E0212012200A0BF
:100FF30002120122DAA00212012245CB03120122BE
:101003006ACB03120122DBCB031201225ED402124C
:10101300012267D40212012270D402120122A1D547
:1010230002120122C0D702120122F6D702120122B4
:1010330030D80212012266D802120122A0D802126D
:101043000122D4D80212012200D90212012249D965
:101053000212012283D902120122CBD902120122E8
:1010630021DA0212012256DA02120122B1DA021245
:101073000122EBDA021201223CDB0212012272DBB3
:1010830002120122ACDB02120122DADB021201227C
:10109300FDDB0212012299D403120122C5D40312EB
:1010A300012220D5031201222AD5031201223AD5A7
:1010B3000312012201850312012228850312012252
:1010C30063850312012220D7031201224247001233
:1010D3000122524A00120122E74B00120122624C04
:1010E300001201220E4D00120122B14D0012012205
:1010F300494E00120122784E0012012210530012B1
:101103000122A25300120122DE540012012248558B
:1011130000120122FC5500120122B25800120122D2
:10112300EC5800120122565900120122B359001241
:101133000122105A001201226D5A00120122585B3B
:10114300001201229E5B00120122E95B00120122C0
:101153000C5C00120122535D00120122675D001234
:101163000122D65E00120122155F00120122555F93
:1011730000120122A85F00120122C95F001201229E
:101183000760001201222D62001201226E6200121A
:1011930001220963001201227B6300120122BC6455
:1011A300001201227AEB0212012220EC0212012228
:1011B30065ED02120122EEED02120122DBEE0212B4
:1011C30001221AEF0212012284EF02120122F2EF2E
:1011D30002120122DDD803120122E0B80312012218
:1011E300ABBB03120122AED803120122EDD50312C9
:1011F3000122FDD50312012211D6031201228DD63D
:1012030003120122F7B2031201229FB30312012238
:10121300E1B503120122F17F00120122CBD80312A0
:101223000122BBF602120122CBF6021201220CF9B3
:101233000212012242FA02120122ABFA0212012225
:10124300C9FA02120122EBFA02120122BCFB0212BA
:101253000122BFFB02120122E1FB02120122B9BBF0
:1012630003120122D9BB0312012236BC031201224D
:1012730049BC031201225CBC03120122ECBC031221
:1012830001225FBD031201228EBD0312012284D805
:10129300031201229AD80312012249930312012255
:1012A300BA9303120122D79303120122FC93031270
:1012B30001222B94031201225A9403120122D9957D
:1012C30003120122D7960312012219E4021201220A
:1012D3008AE40212012201E602120122D5E7021278
:1012E300012212E902120122D6E902120122F3E9D4
:1012F3000212012242EA0212012283EA02120122AD
:10130300C4EA02120122E8EA0212012217EB0212D6
:10131300012284C703120122DAC70312012257C82C
:101323000312012291C803120122A1C80312012250
:10133300DAC803120122FBCC0312012250CD03129F
:101343000122ADCE03120122DDCE0312012273CF9F
:101353000312012201D00312012296D103120122AA
:10136300C7D103120122F1D1031201224FD203127A
:1013730001228BDC02120122A0DC02120122FCDC1E
:101383000212012267DD02120122AFDD02120122E5
:1013930021DE021201224ADE0212012258DE02126B
:1013A3000122BADE02120122F8DE0212012213DF49
:1013B30002120122AEDF0212012257E002120122C1
:1013C300DAE00212012213E1021201229EE102126B
:1013D3000122F5E10212012253E20212012265E227
:1013E300021201228BE20212012294E20212012272
:1013F300E5E30212012292C303120122F9C303128D
:101403000122B6C40312012234C50312012255A8D6
:101413000312012288A803120122BAA9031201228E
:10142300FEA903120122DAAA031201225CD00312DD
:1014330001223AD10312012288BE03120122CDBE3A
:101443000312012213BF03120122DCC00312012283
:1014530090D603120122ABD603120122BBD603128C
:10146300012244D50312012259AE0212012235AFE3
:10147300021201227CAF02120122B9AF0212012231
:1014830027B00212012281B002120122F1B002122E
:101493000122C1B102120122B0B20212012227B30A
:1014A30002120122C3B40212012250B50212012218
:1014B300C3B5021201223FB60212012256B602122E
:1014C30001227BB702120122D5B702120122F6F9DB
:1014D3000112012216FA011201221CFB0112012240
:1014E30068FB0112012288FB01120122DBFB0112BE
:1014F300012248FC011201228EFC01120122F2FC9E
:1015030001120122148201120122418701120122D8
:10151300448A011201226D8A01120122968A011264
:101523000122488B01120122318D011201227C8E8E
:1015330001120122958E01120122CC930112012284
:101543000594011201224994011201225A950112B4
:101553000122FCB5031201220CB60312012231B69B
:1015630003120122B6B6031201229FB7031201220E
:1015730086B80312012289B803120122A0B803120C
:101583000122BEB80312012212D80312012258D835
:1015930003120122E0FF02E066701008A3E0667008
:1015A3000A08A3E066700408A3E06622C3E796086E
:1015B30009E7960809E7960809E79622C3E0960823
:1015C300A3E09608A3E09608A3E09622C008C3E030
:1015D30096F50808A3E096420808A3E09642080897
:1015E300A3E09645087001D3D00822080808EAC092
:1015F300E0EBC0E086F0E7A4FA180986F0E7A42A36
:10160300FA180986F0E7A42AFA180986F0E7A42A4B
:10161300FA1986F0E7A4FBE5F02AFA190886F0E741
:10162300A42BFBE5F03AFA190886F0E7A42BFBE5B7
:10163300F03AFA18180986F0E7A4C5F02BFBE43A50
:10164300FA1908E7C5F0C6A426F6E5F03BFBE43A31
:10165300FA1886F0E7A4F6E5F00826F6E43B08F668
:10166300E43A08F6D0E0FBD0E0FA22601608080856
:10167300C6C313C618C613C618C613C618C613C6E0
:10168300D5E0EA227009080808226016181818C65F
:10169300C333C608C633C608C633C608C633C6D561
:1016A300E0EA22E627F60809E637F60809E637F600
:1016B3000809E637F622E026F608A3E036F608A383
:1016C300E036F608A3E036F622E026F008A3E0367B
:1016D300F008A3E036F008A3E036F022C3E697F65D
:1016E3000809E697F60809E697F60809E697F62249
:1016F300C3E096F008A3E096F008A3E096F008A3F1
:10170300E096F022E056F608A3E056F608A3E0566A
:10171300F608A3E056F622E056F008A3E056F008D8
:10172300A3E056F008A3E056F022E0F608A3E0F6A3
:1017330008A3E0F608A3E0F622E6F008A3E6F00823
:10174300A3E6F008A3E6F022E0FAA3E0FBA3E0FCA3
:10175300A3E0FD22E0F8A3E0F9A3E0FAA3E0FB2273
:10176300E8F0A3E9F0A3EAF0A3EBF022CAC0E0E6B5
:10177300F0A308DAFAD0E0FA22CAC0E0E0A3C582F7
:10178300CCC582C583CDC583F0A3C582CCC582C534
:1017930083CDC583DAE6D0E0CA22C3E498F8E4999E
:1017A300F91217DE8026C3E49AFAE49BFBE920E7EB
:1017B300E91217DEE498F8E499F922C3E498F8E40F
:1017C30099F91217DEE498F8E499F9C3E49AFAE474
:1017D3009BFB22EB20E7CFE920E7E0B90010BB0039
:1017E30008E88AF084F8AAF022E4FBC8FA22EB7036
:1017F300227B10C833C8C933C9335007C39AC3DB2C
:10180300F280069A50012ADBEAC833F4C8C933F4DC
:10181300C9FA2275F008E4C833C8C933C933C99A71
:10182300C99B5004C92AC93BD5F0ECFBC833F4C8A3
:10183300E4C9FA22600D08C6A2E713C618C613C688
:10184300D5E0F322600C08C6C313C618C613C6D569
:10185300E0F422700422600D18C6C333C608C633F1
:10186300C6D5E0F41822251810AF08F518400C155A
:10187300198008F51840021519D2AF2200C0D025EF
:101883001810AF08F518500C05198008F518500208
:101893000519D2AFD0D0222518F58210AF08F5185C
:1018A300400C15198008F51840021519D2AF851997
:1018B30083222518F582E43519F583222518F8E4E7
:1018C3003519F9222518FAE43519FB222518FCE409
:1018D3003519FD22E4732518C582C0E0E51934FFEC
:1018E300C583C0E0E518C3958224F810AF0885834B
:1018F300198582188008858319858218D2AFCEF0A6
:10190300A3E520F0A37808E608F0A3DEFAEFF0A33E
:10191300E58124FAF8E608F0A3E608F0A3E608F068
:10192300A30808E608F0A3E608F0A315811581D003
:10193300E0FED0E0F8158115811581E8C0E0EEC026
:10194300E0222518C582C0E0E51934FFC583C0E055
:10195300E518C3958224F910AF0885831985821889
:101963008008858319858218D2AFCEF0A3E520F0D5
:10197300A37808E608F0A3DEFAEFF0A3E58124FBE1
:10198300F8E608F0A3E608F0A30808E608F0A3E6E3
:1019930008F0A315811581D0E0FED0E0F81581157C
:1019A30081E8C0E0EEC0E022851983851882E0A3B8
:1019B300FEE0A3F5207808E0A3F608DFFAE0A3FF32
:1019C300E0A3C0E0E0A3C0E0E0A3C0E0E0A3C0E088
:1019D300E0A3C0E010AF08858218858319800885CD
:1019E3008218858319D2AFD083D08202011F851953
:1019F30083851882E0A3FEE0A3F5207808E0A3F630
:101A030008DFFAE0A3FFE0A3C0E0E0A3C0E0E0A3A7
:101A1300C0E0E0A3C0E010AF088582188583198079
:101A230008858218858319D2AFD083D08222C0D093
:101A33002518C582C0E0E51934FFC583C0E0E51869
:101A4300C3958224F310AF08858319858218800813
:101A5300858319858218D2AFC8F0A3E9F0A3EAF011
:101A6300A3EBF0A37908E709F0A3D8FAECF0A3ED10
:101A7300F0A3EEF0A3EFF0A3D0E0F0A3D0E0F0A347
:101A8300D0E0F0A3E520F0A3E5F0F0A322851983CD
:101A9300851882E0C0E0A3E0F9A3E0FAA3E0FBA38A
:101AA3007808E0F608A3DFFAE0FCA3E0FDA3E0FE7C
:101AB300A3E0FFA3E0C0E0A3E0C0E0A3E0F5D0A370
:101AC300E0F520A3E0A3F5F010AF08858319858224
:101AD300188008858319858218D2AFD082D083D02D
:101AE300E0F8D0E03274048006740280027401C00E
:101AF300E0F40412189AD0E012176F2274048004E1
:101B030074028000CCC0E0EDC0E0E518C39CCCAD0E
:101B13001950011D10AF068C188D1980068C188D75
:101B230019D2AF12177CD0E0FDD0E0FC22D083D0D5
:101B330082E9C0E0E493A3C386F0C5F095F0F90809
:101B4300E493A386F0C5F095F0700BE493A3C399D7
:101B53004005E9048002A3E475F002A42582F5821E
:101B6300E5F03583F583D0E0F9E493A3C0E0E49393
:101B7300C0E022D083D082ECC0E0EDC0E0E493A3C8
:101B8300FCE493A3FDED4C600D121BC2EC24FFFC9F
:101B9300ED34FFFD80EFE493A3FCE493A3FDED4C50
:101BA300600D121C01EC24FFFCED34FFFD80EFD02F
:101BB300E0FDD0E0FCE493A3C0E0E493C0E022C0E6
:101BC300E0C3E49396087401939618400FE4936678
:101BD300700808740193661870007019A3A3C3E416
:101BE3009396087401939618A3A3400DD0E0D0E018
:101BF300D0E0021BB2A3A3A3A3A3A3D0E022C0E01F
:101C0300C0F088F0E4936670080874019366187056
:101C130000A8F0A3A3700BD0F0D0E0D0E0D0E00296
:101C23001BB2A3A3D0F0D0E02274F6121945EAFE4A
:101C3300EBFF8C088D09EE2434F8E43FF9E8FCE966
:101C4300FDEE2435121F3FFAEE2437121F3FF885AD
:101C530008F0A4C885F00A8509F0A4250AF9EA2842
:101C6300F8E439F97A257B001217DEEA8C828D833A
:101C7300F0FA131313541FF8EE28F8E43FF9E8249D
:101C83005DF582E439F583E0C0E074075AF8D0E0EB
:101C9300B800028004C313D8FCA2E0EE5008243439
:101CA300F582E43F80182436121F3FF5F0EA84A83A
:101CB300F0EE28F8E43FF9E82438F582E439F583B7
:101CC300E0F97F030219F174F7121945EAFEEBFFFD
:101CD300EE2434121F3FC0E0EE2435F582E43FF5D5
:101CE30083D0E0F08E828F83A3A3A3A3A3A3A3C077
:101CF30082C0838E828F83A3A3A3A3A3E0F8A3E070
:101D0300F9D083D082E0C398F508A3E099F509EEF2
:101D1300247F121F3F6401703EEE2480F582E43F6E
:101D2300F583C082C0838E828F83A3A3A3A3A3E082
:101D3300240108A3E03400F9D083D082E068700363
:101D4300A3E06970127CB97D04120C7CEE247FF54C
:101D530082E43FF583E4F0AC08AD09EEFAEFFB1241
:101D63001C2CE9F91226977F020219F1C082C08365
:101D7300851882851983E0F8A3E0F9C3EA9CEB9DFB
:101D83005010C3EC98ED99401BC3EA98EB9950149B
:101D9300800EC3EA98EB994007C3EC98ED99400491
:101DA300790180027900D083D08222EAC39CFAEBC6
:101DB3009DFB2274EF12194590037EE064086005D1
:101DC300E06407702A9061C8E060249003ACE0F4FB
:101DD300601DE0F875F00BA4C8AAF02AF974AE28C8
:101DE300FE740339FF8E828F83A3A3A3E0700302E3
:101DF3001EC4906060E0C0E0EE2468F582E43FF525
:101E030083D0E0F0750C29750D0575080075090080
:101E1300E5D914F50AE5D95403F50E601274036588
:101E23000E6043E50A600AEE2467121F3F700280CA
:101E330075900524E06401601F121F3C60047A045E
:101E430080027A00E50AC39AFA95E0FB120B268A10
:101E5300088B09EA45097005120EAA8064121F3C1B
:101E630070048A0C8B0DE50A6012850C82850D8344
:101E7300F50BE5D9F0A3150BE50B70F6121F3C60CB
:101E83004474FC250AF50A780C121AECAC0AA90E64
:101E9300EEFAEFFB120D36740212187FE97026AAD0
:101EA30008AB091213FC793D8E828F83A3A3A3A3EE
:101EB300E0FA7B00120988EEFAEFFB120CA0120D78
:101EC300487900806F7403650E6051850A1075119F
:101ED300007810121AECAC0CAD0DAA08AB09120C69
:101EE300FA740212187FEE2468121F3F6480700494
:101EF300747F8001E0F50C780C121AF0E50EF50CF6
:101F0300780C121AF0A90AAC08AD099003ACE0FAF8
:101F13007B0012095E740212187F801390037EE027
:101F23006408600BAC0CAD0DEEFAEFFB120DC012A2
:101F33000EB679017F0A0219F1EE2483F582E43F9C
:101F4300F583E02274F212194574FC121869EAFE53
:101F5300EBFF8909A2AFE433F508C2AF022011E019
:101F6300601B780C121AECAC0BA90EEEFAEFFB1205
:101F73000D30740212187F7404250BF50B740125C0
:101F83000BF5D9850ED9E50B6018F50A850C82850A
:101F93000D83E0F5D9A385820C85830D150AE50A27
:101FA30070EA75E195EE2463F8E43FF97A007B006B
:101FB300A2AFE433F50BC2AF88828983E0FCA3E0D0
:101FC300FDEC4D603A88828983E0FAA3E0FB8A82C4
:101FD3008B83E0FCA3E0FD88828983ECF0A3EDF022
:101FE3008A828B83E4F0A3F088828983E0FCA3E0F8
:101FF300FDEC4D700A88828983A3A3E4F0A3F0E586
:102003000BA2E092AF1213FC9004C0E004F0EE24A4
:1020130063121F3FF8A3E0F9E8496064EE246312FA
:102023001F3F2402F8A3E03400F988828983E58204
:102033002402F50CE43583F50DE0F50BA3E0F50E72
:10204300EE2462121F3F640170369061D0E0F812F3
:102053001F3C60047C0480027C007480C398FA9562
:10206300E0FBE50B2CF8E43400F9E82402F8500116
:1020730009C3EA98EB99A2D265D0334003021F62E9
:102083009004C0E0604D9004C1E0F89004C0E0C348
:1020930098500C74026509703A9004C2E060348E63
:1020A300828F83A3A3A3A3E08518828519831220BB
:1020B300E674021218B5E81220E69004BFE028F097
:1020C30074021218CFAA18AB1979011209B290043D
:1020D300C0E4F0E508A2E092AF740412187F7F0712
:1020E3000219F1F0A3E4F09004C0E0F822852187FF
:1020F3008522C622C0E074EB121A31A2AFE433F595
:1021030008C2AF759B00906182E0A2E05030E59178
:10211300A2E0502A7591FE74016521702112228A72
:10212300120E02122278121AFF122441740412189A
:102133007FE9640170057901120E3E121DB69061AC
:1021430082E0A2E5505DE591A2E550577591DF90DD
:10215300037EE064076005E06408702F12228A742E
:10216300016521703E120E02122278121AFF122408
:1021730041740412187FE9640170057901120E3E5F
:102183007901EEFAEFFB121F478018E0640D70131C
:102193009003A0E004F064287002E4F07A00E0F910
:1021A300120EBC906182E0A2E6400302224DE5914B
:1021B300A2E6400302224D7591BF90037EE06405C1
:1021C3007008120DEA120DF68003120DF07521004E
:1021D300120E4AE990037FF07900120E3E120BECC7
:1021E3007A017B0090037DE0F91213CC907803E031
:1021F30064427056900528E014F0704EC2AF12226C
:102203000400782AD0E0F618D0E0F6E59F5407F8EA
:102213007005750DFF8003750D7FC4C0E07829E656
:10222300F50A08E6550DF50B740B780A121847D01A
:10223300E0250AF8906270E0A2E740F8E8C3339023
:102243006272F0906270E0D2E0F0906181E0A2E30C
:102253005009E5E9A2E3500375E9F7A3E0A2E750CB
:1022630009E591A2E7500375917FE508A2E092AFDB
:102273007F08021A908E828F83E0F8A3E0C82416A9
:10228300F582E438F583229003ACE0F875F00BA4F3
:10229300C8AAF02AF974AE28FE740339FF22C0E0FD
:1022A300C0D0C082C083906183E0A2E05009E5BF43
:1022B300A2E0500375BFFEE0A2E15009E5BFA2E131
:1022C300500375BFFDE0A2E25009E5BFA2E250034F
:1022D30075BFFBE0A2E35009E5BFA2E3500375BF5E
:1022E300F7E0A2E45009E5BFA2E4500375BFEFE0B5
:1022F300A2E55009E5BFA2E5500375BFDFE0A2E602
:102303005009E5BFA2E6500375BFBFD083D082D08A
:10231300D0D0E032C0E074F2121A31E5A7A2E65041
:102323000FE5A1A2E6500953A7BF75A1BF12236B06
:10233300E5A7A2E5500CE5A1A2E5500653A7DF757A
:10234300A1DFE5A7A2E15009E5A1A2E1500375A130
:10235300FDE5A7A2E2500CE5A1A2E2500653A7FBBC
:1023630075A1FB7F01021A9074F7121945752101BB
:1023730090037EE064067015120D6C8A828B83A332
:10238300A3A3A3A3A3E0FAA3E0FB120DD8A2AFE497
:1023930033FED2AF900384E0640170187A207B008F
:1023A30090037DE0F91214F27A207B0090037DE024
:1023B300F91213D2906182E0D2E6F0900525E06035
:1023C3002185C6228016900383E064017008E5C668
:1023D30054F84405F5C653BEFC1220F07401652180
:1023E30060E4EEA2E092AF7F020219F1008E238F28
:1023F30024858228858327851882851983E0CEA3C7
:10240300E0CF852882852783EBC9EAC8EDCBECCAE8
:1024130075F010C3E833C8E933C9EA33CAEB33CBE9
:10242300C3EA9EF526EB9FF525B35004AB25AA26F8
:10243300EC33CCED33CDD5F0DAAE23AF242274F1F7
:102443001219458A088B098C0A8D0B9081B2780882
:10245300121707740F1218B5780C12172D9081B24A
:10246300780C1217077808790C1215AF9081665013
:10247300107808790C1216DF78081215CF401480F3
:102483000E780C79081216DF780C1215CF500479E8
:1024930001800279007F080219F174ED1219458A4F
:1024A300088B098C0A8D0B9081B278081217077478
:1024B300131218B5780C12172D9081B2780C1217DD
:1024C30007780C79081215AF40117808790C1216A9
:1024D300DFAA08AB09AC0AAD0B8022751000751199
:1024E300007512007513017810790C1216DF78103D
:1024F30079081216A6AA10AB11AC12AD137F0C0209
:1025030019F19081B2780812172D8A828B8378088B
:1025130012171A7F040219F174F51219458C828D72
:1025230083780812172D8A828B8378081216F31288
:102533002573C3E09CF0A3E09D12256540229081A2
:102543009A780812172D8A828B8378081216CC8A00
:10255300828B83A3A3A3A3E02420F0A3E0344EF053
:1025630080A0F088828983C3E09420A3E0944E2264
:10257300EA2404F8E43BF98C828D83A3A3A3A3E0AC
:10258300FCA3E0FD888289832274F5121945E9FED4
:102593009004DBE0FAA3E0FBEE29F8E433F974DB03
:1025A30028F582748039F583E02AF508A3E03BF52A
:1025B300097808121AEC9081A212174B1223F074B7
:1025C3000212187F8A088B098C0A8D0B7410780805
:1025D30012166EAA08AB097F040219F174F11219DD
:1025E300458A0C8B0D8C0E8D0F74111218B5121BAE
:1025F3000374111218B5E02401F508A3E03400F5C3
:1026030009E4F50AF50B780C79081215EE9081723E
:10261300780812172D780C79081215EEAA0CAB0D59
:10262300AC0EAD0F1223F0740212187F8B09EA452A
:102633000960047A0180027A00EC2AFCE43DFD740F
:10264300131218B5E0F8A3E0F9E8FEE9FFECF8EDA2
:10265300F97A717B021217DE88088909E4F50AF515
:102663000B8E828F83780812173CECF8EDF97A71A0
:102673007B021217DE8A088B097405780812185634
:102683008E828F83A3A3A3A3E508F0A3E509F07FBC
:10269300080219F1C082C083E9906000F0D083D0B2
:1026A3008222C0E0C0D0E8C0E0E9C0E0A2AFE433DA
:1026B300F8D2AFC2C7E8F9E8A2E092AFD0E0F9D010
:1026C300E0F8D0D0D0E032C0E074F2121A31A2AFF9
:1026D300E433FED2AFE5BAF87900900868E8F0A3D6
:1026E300E9F0A8BB7900E4C8F9900868E048F0A3D2
:1026F300E049F0E5B5540F900867F0900863E0FAFD
:10270300A3E0FB900862E0F91213CCE9EEF8EEA225
:10271300E092AF7F01021A90C2AF020000220201D1
:102723001FFFFFFFFFFFFFFFFFC082C083E990167B
:102733005AF0D083D08202011F74F61218D9E9909F
:1027430002F0F0900350E0F5087509007402780870
:10275300121856AA08AB091214449002F11230EF72
:102763009002F11234DC606F900350E075F003A423
:10277300FAABF012144490030E1230EF90030E12D2
:1027830034DC700B9002F11234AD12144A8048907D
:10279300030E1244417AFF7BFF1211A47A008019C1
:1027A3008A0875090074027808121856123EE974F3
:1027B300FF1228EFE4F0A3F00A900350E0F8EAC315
:1027C3009840DD790512084A9002F0E0F9120736C5
:1027D3007AD47B08120AC6023F8C74F41218D98A81
:1027E300088B09EB548060479002F0E0F91213B4B0
:1027F3008A0A8B0BAE0AAF0BEE4F602A8E828F8351
:10280300E064B0701A12085CE960148E828F83A3AF
:10281300A3A3A3E0F9EE2405FAE43FFB12082CEE90
:10282300FAEFFB1213A2AA08E5096480FB80047A7D
:10283300007B00022A3F74F21218D974FB12186944
:10284300EAFEEBFFEE4F604574031218B5EEF0A3FA
:10285300EFF0851882851983ECF0A3EDF074021272
:1028630018B5E9F0AA18AB19120730E9F508707525
:1028730074131218B5E0F50AA3E0F50BE50A450B4E
:1028830060638E828F83122E78EE4F700575080277
:1028930080537A067B001214448A0C8B0DA80CA972
:1028A3000DE8497005750813803B88828983E4121B
:1028B30028EFEEF0A3EF122A0BE50AF0A3E50BF0E5
:1028C3009002F4122A049002F46017E0FCA3E08063
:1028D30003EAFCEBFD8C828D83122A0470F38C8255
:1028E3008D83123B04A90874050246C1F0A3124468
:1028F30023A32274F21218D98908890C750D007468
:1029030003780C121856850C0A850D0B9002F3F010
:102913009002F112390F122A02602E12144A790022
:10292300801D890C750D007402780C1218569002E4
:10293300F1123DA88882F583A3A3E4F0A3F00990E4
:102943000350E0F8E9C39840D9900350E0FA850AB0
:10295300F0A4CAA8F0850BF0A428FB1214448A0C37
:102963008B0DAE0CAF0DEE4F70030229F8900350A0
:10297300E0FC850AF0A4CCA8F0850BF0A428FD792F
:10298300001213907C0080318D0C750D0074037858
:102993000C1218568A828B831229FD88828983E45C
:1029A300F0122A0AA3A3F0A3F00DEDC3950840D8B3
:1029B300EE250AFEEF350BFF0C900350E0F8ECC355
:1029C3009850288C0C750D007402780C12185690D0
:1029D30002F11229FDE82402500109FAE9FB8A8277
:1029E3008B83EEF0A3EFF07D0080BFE5089002F348
:1029F300F07900800279130246C4123DACF922A398
:102A0300A31234B1EA4B22A3124423A3A3A3227437
:102A1300F41218D97900EAA2E0501F75084A750923
:102A2300817808121AEC79107C047D007A5C7B169D
:102A3300120844740212187FE9F980007F04021916
:102A4300ABC082C0839002F41234DC601C8882899C
:102A530083A3A3E06A7003A3E06B8882898370E891
:102A6300A3A3A3A31234AD80047A007B000227350D
:102A730074F21218D974FD121869EAFEEBFF851877
:102A830082851983E4F0A3F074021218B57401F07F
:102A93001234D97014120A001214449002F712303F
:102AA300EF1234D97003022C051231EFEE2404F532
:102AB3000AE43FF50B850A82F583E024FE603C249B
:102AC300FC607424FE607E24FE7003022B5524FEFA
:102AD3007003022B6224FE7003022B6F24FE70032B
:102AE300022B7C24FE7003022B8924FC7003022B2F
:102AF300AA24FE7003022BC2022BFE120A009002CC
:102B0300F9EAF0A3EB122C11120478E96003022B0B
:102B1300FE9002F9121B038E828F83A3A3A3A3A3A8
:102B23001244418508828509831234AD1208147456
:102B33000212187F022BFEAC18AD19EEFAEFFB124E
:102B43000862022BCDAC18AD19EEFAEFFB12086840
:102B53008078AC18AD19EEFAEFFB12086E806BACFF
:102B630018AD19EEFAEFFB120874805EAC18AD19BC
:102B7300EEFAEFFB12087A8051AC18AD19EEFAEFBA
:102B8300FB120880804474021218BF880C890D78E8
:102B93000C121AEC74021218CFEEFAEFFB1208862D
:102BA300740212187F8023AC18AD19EEFAEFFB12F2
:102BB300088CE9F8701674021218B5E4F0803CAC86
:102BC30018AD19EEFAEFFB120892E9F8E8602C8EC3
:102BD300828F83A3E064146022850A82850B83E0DD
:102BE3009002F9F08518828519831234AD9002FAA8
:102BF3001230EFE8A3122C11120472EEFAEFFB125B
:102C030007EA74021218B5E0F974030246C1F07CB6
:102C1300F97D028508828509831234B12274E81292
:102C230018D974FA12186974041218B5ECF0A3EDEC
:102C3300F08A128B13EA2405F50EE43513F50FEA37
:102C43002402F510E43513F511851082F58312344F
:102C5300AD1205688A0A8B0B7508007C037D007929
:102C6300007AF97B02121390E50E2402F516E4357F
:102C73000FF51774021218BF880C890D780C121AFD
:102C8300EC850E82850F83A3A3A3A3E0F50C750D3A
:102C930000780C121AECE50E2405F50CE4350FF55B
:102CA3000D780C121AEC8516828517831237B4122D
:102CB300074E740612187F8A0C8B0DE50C450D70B8
:102CC30003022E418020851882851983E08882893A
:102CD30083F00508851882851983A3E0C0E0122ECE
:102CE30082D0E0F00508E50A24FBFAE50B34FFFB8C
:102CF300C3E5089AE49B4003022E417E007F0085D2
:102D03001282851383A3A3A3A3E0F5097809121AFA
:102D1300F0E4F514F5157814121AEC7514F675151C
:102D2300027814121AEC9002F7121B03740912189A
:102D3300B5121B03E50A24F9F9AC0CAD0D8510821D
:102D43008511831234AD1208BC740912187FE9602F
:102D530003022DE2850E82850F83A3A3A3A3A3A35E
:102D6300A3E0F89002F6E0687075E0F5148E15782C
:102D730014121AEC12443E850E82850F83A3A3A37B
:102D8300A3A3A3A3A31234AD12138A740212187F50
:102D9300E9604C9002FA1234DC703BE4F5147814C9
:102DA300121AEC7CFF7DFF7907851082851183124F
:102DB30034AD120826740212187F1234E27017859C
:102DC3000E82850F831245DB74041218B5123E9CE4
:102DD3001237E5022E75850C82850D83122E78A895
:102DE30018A919881489157814121AEC7404121886
:102DF300B5121B038516828517831230E512075A15
:102E0300740412187F8A0C8B0DEE4F7003022CBED4
:102E1300122E82EE122E8D12379BEF122E8DF8A3F7
:102E2300E03400F9E50C450D6003022CC988828962
:102E33008374FFF00508122E8274FFF00508E5087D
:102E4300601A1313543F1230F5120484E960099099
:102E530002FA1234AD1213FC79008016850E8285B6
:102E63000F831245DB74041218B5123E9C123B0407
:102E7300790A02376EA3A3A3A3E0FEA3E0FF22A86F
:102E8300089002FAE02812379B22F0050808900206
:102E9300FAE0282274E81218D974FA121869740235
:102EA3001218B51230EF74041218B5ECF0A3EDF05C
:102EB30074021218B5E02405123784E0F50CA3E080
:102EC300F50D74021218B5E02402F510A3E03400E6
:102ED300F511851082F5831234AD1205687508006B
:102EE300750900EA24FCFEEB34FFFF8008050CE5BE
:102EF3000C7002050DA808C3EE98EF94005003026E
:102F030030A1A818A919880E890F780E121AEC851A
:102F13001482851583A3A3A3A3124445121AECE5D7
:102F2300142405F50EE43515F50F780E121AEC8509
:102F330014828515831230E312074E740612187F2C
:102F43008A0E8B0FEA450F70030230A1EA2404F5C1
:102F530016E4350FF517851682F583E0F50CA3E02B
:102F6300F50D8518828519831244418A828B83A3C8
:102F7300A3A3E0F98510828511831234AD12073CB7
:102F8300E9F50960030230A174021218B51237ABD8
:102F9300F5097809121AF0E4F512F5137812121AEA
:102FA300EC7512F67513027812121AEC9002F712EE
:102FB3001B0374071218B5121B03EEF9AC0EAD0F09
:102FC3008510828511831234AD1208BC740912185E
:102FD3007FE9F50960030230A1E508703FE4F50ECF
:102FE300F50F780E121AEC7CFF7DFF7909851082AC
:102FF3008511831234AD120826740212187F12371A
:10300300D1700D74041218B51230D879110230D56D
:103013009002F6E024029002FAF080149002FAE0A3
:10302300FA9002F6E0790024025001096A497072AD
:10303300A8089002F6E0FAE82AFAE43400FBEE9AD4
:10304300EF9B405A851682851783E0C0E09002FB10
:10305300122E87D0E0F00508851682851783A3E03A
:10306300C0E0089002FB122E87D0E0F00508900222
:10307300F6124445121AEC12443EA808123778128D
:103083001378740212187F9002F6E02508F508748D
:10309300FF650C700474FF650D6003022EF0E508F4
:1030A300601F9002FAE0F5F0E508841230F512048F
:1030B3008AE960099002FB1234AD1213FC79008097
:1030C30011E509700375090A74041218B51230D892
:1030D300A90902376E123913E50CF0A3E50DF022AE
:1030E300A3A31246D0AA0CAB0D22A3A3EAF0A3EB31
:1030F300F0229002F9F07CF97D028510828511831C
:103103001234B12274EC1218D974FC121869123CEF
:103113001474021218CF1234A71207548A0C8B0DA1
:10312300EA450D70030231DF1231EFA818A919889F
:103133001089117810121AEC7CFF7DFF790B85083A
:10314300828509831234AD120826740212187F1285
:1031530032E5700C850A82850B831237E20231EC6B
:103163008E828F83A3A3A3A3E0F5127812121AF021
:10317300E4F512F5137812121AEC7512F9751302AD
:103183007812121AEC7810121AEC74091218B5128C
:103193001B0374091218B5E0F9AC0CAD0D85088258
:1031A3008509831234AD1208BC740912187FE9FE35
:1031B30070157CF97D028508828509831234AD126E
:1031C3000490E97009802074166E70027E009002EC
:1031D300FA1234AD1213FCEE7004800B7E01850AE3
:1031E30082850B83123B01EEF9023B16EE2402F5B6
:1031F30008E43FF5092274EC1218D974FC1218691B
:10320300EAFEEBFF8C0E8D0FEE2405F508E43FF587
:103213000974021218CF8508828509831234AD120E
:1032230007548A0C8B0DEA450D70030232D5EE2448
:1032330002F50AE43FF50BA818A91988108911783B
:1032430010121AEC7CFF7DFF790D1234A7120826A9
:10325300740212187F1232E5700B85088285098388
:103263001237E2807A8E828F83A3A3A3A3E0F512A1
:103273007812121AF0850882850983A3A3121B030F
:103283007512F97513027812121AEC7810121AECEF
:1032930074091218B5121B0374091218B5E0F91258
:1032A30034A31208BC740912187FE9FE700F7CF96D
:1032B3007D021234A7120496E97009802074166EF9
:1032C30070027E009002FA1234AD1213FCEE700409
:1032D300800B7E01850882850983123B01EEF9028A
:1032E3003B161234ECF510A3E0F511EA45112274F4
:1032F300E81218D974FE1218698A168B178C148D6C
:1033030015EA2405F50CE43517F50DEA2402F50E4C
:10331300E43517F50F850E82F5831234AD12056877
:103323008A088B09750B007C037D0079007AF97B91
:1033330002121390750A00E50814F5100424FFF532
:1033430008E50934FFF50980549002F9E0FA900288
:10335300F6E0F8EA28F8E43400F9E50898E5099975
:10336300500D9002F9E0F8E510C3989002F6F0E0F2
:10337300F5127513007812121AEC12443E9002FAF9
:10338300E02AFAA3E03400FB121378740212187FC8
:103393009002F6E0F89002F9E028F0050A850C8225
:1033A300850D83A3A3123DB840030234889002F92C
:1033B300E0C39508E495094003023488AE0AEE2E73
:1033C300FEE433FF1234C7AC18AD19124459E43983
:1033D300FB1207548A128B13AC12AD13EC4D701B06
:1033E300750B011234B7123B059002FA122A0460DE
:1033F300031213FCA90B740202377085168285171A
:1034030083A3A3A3A3E0F50B780B121AF0E4F51240
:10341300F5137812121AEC7512F67513027812125C
:103423001AEC9002F7121B0374071218B5121B0350
:10343300A910850E82850F831234AD1208BC74095E
:1034430012187FE9F50B709B9002FA1234DC6003CB
:1034530002334CE4F512F5137812121AEC7CFF7D5B
:10346300FF790F850E82850F831234AD12082674FF
:103473000212187F1234E2600302334C1234B71283
:1034830037E60233F97CF97D02850E82850F8312BC
:1034930034AD12049CE960030233EC79000233F982
:1034A300AC0CAD0D850A82850B831234B122E0FA90
:1034B300A3E0FB221234C7E0FAA3E0F9EA85148201
:1034C30085158322850C82850D83E02EF8A3E03FCA
:1034D300F988828983229002F71245DFE849221294
:1034E30034ECF8A3E0F9E849229002FAEAF0A3EBFE
:1034F300F09002FAE02274E81218D974FA121869EB
:1035030074041218B51230EF8C168D177404121848
:10351300B5E02405F50EA3E03400F50F740412188A
:10352300B5E024021237841234AD1205688A0A8B7F
:103533000B7F007E00A818A919880889097808124A
:103543001AEC850E82850F83A3A3A3A3E0F5088E4F
:10355300097808121AECE50E2405F508E4350FF591
:10356300097808121AEC850E82850F83A3A31237FC
:10357300B412074E740612187F8A0C8B0D80291221
:1035830037A5F00F1237A5F00F9002F6123AF0129A
:103593001AEC12443EEFF8123778121378740212C1
:1035A300187F9002F6E02FFFE50C450D70030236FD
:1035B30034851882851983123C26A3A3A3E0F985D9
:1035C30014828515831234AD12073CE9FEE50C2401
:1035D30004F510E4350DF511EE705074041218B5AE
:1035E3001237ABF5087808121AF0E4F508F50978F4
:1035F30008121AEC7508F67509027808121AEC908D
:1036030002F7121B0374071218B5121B03E50A24F1
:10361300FAF9AC0CAD0D8514828515831234AD1205
:1036230008BC740912187FE9FE60391237C1123BD6
:1036330004EF700302375B9002FAE0F5F0EF849039
:1036430002F9F07CF97D028514828515831234AD6D
:103653001204A2E960099002FB1234AD1213FC7943
:103663000002376E8F08EF703BE4F512F513781202
:10367300121AEC7CFF7DFF79118514828515831264
:1036830034AD120826740212187F1237D170091252
:1036930037C11237E502376E9002F6E02404900238
:1036A300FAF080359002F6E0F89002FAE0FAE824A6
:1036B30004FCE43400FDEC6A4D600302363AE50A8B
:1036C30024FAFAE50B34FFFBE50828F8E43400F9A3
:1036D300EA98EB99500302363A851082851183E00C
:1036E300C0E09002FBE02FF8A3E034008882F5836A
:1036F300D0E0F00F851082851183A3E0C0E012377C
:1037030092D0E0F00F74021218BF88088909780874
:10371300121AEC74021218B5121B03850E82850F60
:10372300831230E312075A740412187F8A0C8B0D2C
:10373300EA450D700302358274021218B5E0C0E049
:10374300123792D0E0F00F74021218B5A3E0C0E074
:10375300123792D0E002358AEE70027E0A850E821D
:10376300850F831237C7123B04EEF9740612187FD4
:103773007F100219AB9002FBE028FAA3E03400FBB0
:1037830022F514A3E03400F515851482F583221283
:103793003796229002FBE02FFAA3E034008A82F5E9
:1037A300832212379674FF22123913A3A3A3A3E033
:1037B300221246D0850E82850F831234B1228510E2
:1037C300828511831245DF85168285178322900235
:1037D300FBEAF0A3EBF09002FB1245DFE84922126B
:1037E3003B0AE8F0A3E9F079112274EA1218D974BC
:1037F300FE1218698A088B098C128D13EA2405FEC0
:10380300E43509FFAC18AD198E828F831234AD12E3
:1038130007548A0C8B0DEE2406F50EE43FF50FEAF0
:10382300450D70030238E5E5082402F50AE435097D
:10383300F50B8A828B83A3A3A3E0A2E55028851806
:10384300828519831234AD1208B08A108B11EA45B0
:1038530011602079121234A3851082851183121806
:10386300D7E9F50C707F850E82850F83E0600979B7
:10387300528011750C0E806D850882850983A3A380
:10388300A3A3E0F9E4F508F5097808121AEC8E828F
:103893008F83A3A3E0F5087808121AEC8E828F8336
:1038A300A3A3A3121B038E828F831244411234A756
:1038B3001208C2740612187FE9F50C7011850E8286
:1038C300850F83E0702D1234A71204A88025741687
:1038D300650C7011750C0074181218B512390FE4C9
:1038E3008010750C011245D7851282851383E8F089
:1038F300A3E9F0850E82850F83E0600479008002DE
:10390300A90C740212187F7F0E0219AB123913220D
:10391300E0F8A3E0F58388822274EC1218D974F7D7
:103923001218698A0A8B0B8C108D11EA2405FEE4A8
:10393300350BFF750C00AC18AD198E828F831234D2
:10394300AD1207548A088B09EA45097003023ADB72
:10395300E50A2402F50A5002050B8A828B83A3A38E
:10396300A3E0A2E5502F8518828519831234AD1286
:1039730008B08A0C8B0DEA450D604F7912AC08AD87
:10398300091234A7850C82850D831218D7E9F50C2B
:103993006003023ADE850A82850B83E0F508A3E023
:1039A300F509AA08FB1208A4EA4B70197AFF7BFFFA
:1039B3001208A4EA4B7003023AD18A828B83E5088A
:1039C300F0A3E509F07508008008750C0E023ADED5
:1039D30005089002F3E0F8E508C3984003023AD1E2
:1039E30085080E750F007403780E1218568A828BA1
:1039F30083A3A3E0250EF8A3E0350F123EA570D0F4
:103A03008E828F83123AF91230EF8E828F83A3A3B3
:103A1300123AF91230EDEE2404F508E43FF5098576
:103A23000882F583E088828983A3A3A3A3F0A3E498
:103A3300F0EE2405F50EE43FF50F850E82F58312B3
:103A43003AF9A3A3A3A31230ED75120775130078F7
:103A530012121AECEEFCEFFD74041218C71213785D
:103A6300740212187FE4F5127812121AEC85088298
:103A7300850983E0FC7D0079171234A712082674A8
:103A83000212187F74071218B51230EF7407121858
:103A9300B5E0FA4B603D850882850983123AF0123E
:103AA3001AEC850E82850F83124441121378740237
:103AB30012187F74021218CF1234A71204AEE960F1
:103AC3002674071218B51234AD1213FC8019750C45
:103AD300098008750C118003750C011245D78510F8
:103AE30082851183123B04A90C74098028E0F50830
:103AF3007509007808221234B18882898322123B27
:103B03000AE8F0A3E9F022E0F8A3E0F9850E828544
:103B13000F8322740412187F7F0C0219AB74EC120A
:103B230018D9123C14751000EE2402F50CE43FF58D
:103B33000D850C82F5831234AD1208A48A088B0913
:103B4300EA45097003023BF8850A82850B83E0642A
:103B5300016003023BEDAC08AD09AA0AAB0B1208E6
:103B630098E9606E850882850983122E7AEE240611
:103B7300F50AE43FF50B8E828F83A3A3121B038EFA
:103B8300828F83A3A3A3A3121B03850A82850B83BE
:103B9300121B0379188E828F83123C261234AD12C6
:103BA30008C2740612187FE9F8741668700B850A48
:103BB30082850B83E4F0A38014E860128E828F83E6
:103BC3001234AD850E82850F83EAF0A3EBF08810E3
:103BD3008018780E121AECAC08AD09EEFAEFFB125E
:103BE300089E740212187FE9F510AA08AB0912089F
:103BF300AAE510700E850C82850D831234AD120474
:103C0300B48009741665107003751000A910023B87
:103C13001BEAFEEBFF8C0E8D0FEE2405F50AE43F45
:103C2300F50B221246D0850C82850D832274EA128D
:103C330018D97508007509007E007F00750A00EC2D
:103C43002402F510E43DF5118035EC65087003EDB1
:103C530065096003023CE588828983A3A3E06A7057
:103C630003A3E06B707C88828983A3A3A3A312457B
:103C7300DBEE28FEEF39FFEA28FAEB39FB050A12DF
:103C83003DB5503A850A0C750D007403780C121873
:103C930056851082851183123DA8123EA5601FE54B
:103CA30008450970A58C088D0988828983122E78AE
:103CB30088828983A3A3E02EFAA3E03F80BEE50AAE
:103CC300C394025003023DA3750800750900EE4F2B
:103CD3006010EEFAEFFB1213F68A0E8B0FEA450F14
:103CE30070057900023DA5750B00023D78850B0C2C
:103CF300750D007403780C12185685108285118394
:103D0300E0250CF50CA3E0350DF50DE50C2406F5C7
:103D130014E4350DF515851482F583123EAA60422D
:103D2300E50C2404F512E4350DF513851282F583B1
:103D3300121B03E50E2508FAE50F3509FB1213786C
:103D4300740212187F851282851383E02508F50813
:103D5300A3E03509F5098514828515831234AD1264
:103D630013FCE50B600D7C087D007900AA0CAB0DFC
:103D7300121390050BE50BC3950A5003023CF08523
:103D830010828511831245DB88828983A3A3A3A3B1
:103D9300A3A3E50EF0A3E50F122A0BEEF0A3EFF0B9
:103DA300790102390A123DAC22E0250CF8A3E03573
:103DB3000D229002F3E0F8E50AC3982274F012187A
:103DC300D98A0E8B0F8C0A8D0B750D00750C008034
:103DD300507916EE2406F508E43FF5098E828F83A9
:103DE300A3A3121B038E828F83A3A3A3A3121B037C
:103DF300850882850983121B03850E82850F83A3A1
:103E0300A31234AD1208C2740612187FE9F50D74BB
:103E130016650D706C850882850983E4F0A3F005AF
:103E23000C9002F3E0F8E50CC3985066AA0C8A08DC
:103E330075090074037808121856850A82850B8366
:103E4300A3A3123EF4E8FEE9FF8E828F83123EAAFB
:103E53006040EA2401F508E43400F5099002F3E038
:103E630065087002E509601488828983A3A3A3A36C
:103E7300A3A3A3A31234DC6003023DD47918023D4B
:103E8300D6E9609B1245D774101218B5123E9C12E6
:103E93003B04A90D7F080219ABE0FAA3E0F5838A7E
:103EA3008222F9888289831246D0EC4D2274F6125D
:103EB30018D97C0080010C900350E0F8ECC39850B3
:103EC3001E8C0875090074027808121856123EE910
:103ED300E06A7003A3E06B70DDE8FAE9FB80047A23
:103EE300007B00023F8C9002F1123EF488828983AA
:103EF30022E02508F8A3E03509F92274F21218D953
:103F03008A088B09750A0080278E828F83A3A3A357
:103F1300A3122A0260031213FC7C087D007900EED1
:103F2300FAEFFB1213908E828F83E4F0A3F0050A5D
:103F3300123DB55027850A0C750D007403780C12D9
:103F43001856850882850983A3A3E0250CFEA3E008
:103F5300350DFF8E828F831234DC70AD8508828528
:103F6300098374FFF0A3F00246C474F61218D91241
:103F730008568A828B83E582458370067A007B002C
:103F83008007A3A3A3A31234AD7F020219AB74F479
:103F93001218D989088C828D83E06402703C124523
:103FA3007AFEA3E0F9EEF87402687003742969706D
:103FB30029750A02750B00780A121AEC741012188C
:103FC300B5121B0374101218B5121B03A9081211A2
:103FD300B6740612187FE9F980027901022A3F7448
:103FE300E81218D974FB121869E9851882851983B8
:103FF300F08A168B17ECFEEDFF7510008E828F830F
:10400300A3A3A3E0A2E4502D741D1218B51234AD7E
:104013001208B08A828B83E58245837003024419B8
:10402300790AEEFCEFFDAA16AB171218D7E9F510C3
:10403300600302441C741F1218B5E0F508A3E0F5F1
:104043000974211218B5E0F50AA3E0F50B742312E5
:1040530018B5E0F50EA3E0F50F8E828F83E06402BE
:1040630060030243BAA31245DB850882850983A353
:10407300858212858313EE2406F50CE43FF50D8843
:10408300828983124459F514E439F5157814121B07
:1040930076010000280128BC400700022881410363
:1040A30028EF400029B0420129DB4202297C420368
:1040B30029B04204295443BA43E50E450F60030275
:1040C30043B5850C82850D831245DBE8FAE9FB8A4B
:1040D300828B83E0850A82850B83124464121AEC77
:1040E3008A828B83A3E0FCA3E002433EE50E450FE7
:1040F30060030243B5850A82850B837401F0124481
:104103004E850882850983F07C007D008E828F8333
:10411300A3A3A3A3E02401FAA3E03400FB120754F2
:10412300EA4B60408A828B83E02402F8850A828509
:104133000B83E028F0EA2404F8E43BF988828983BE
:10414300E0851282851383124472124464121AECBE
:104153008A828B83A3124441E5082403FAE43509D8
:10416300FB024343850A82850B83E02404F07C042D
:104173007D007900AA12AB1312139002441CE50EC2
:10418300450F60030243B512444EFEA3E0FF850AC8
:1041930082850B837404F0EE850882850983F0EF32
:1041A300851282851383F074031218CFEEFAEFFBA6
:1041B3001207548A0C8B0DEA450D700302425F8A85
:1041C300828B83A3A3122E7874011218BF880E89E1
:1041D3000F780E121AEC74051218B5121B037CFF2C
:1041E3007DFF12075A740412187F8B0FEA450F7074
:1041F30033850C82850D83124445121AEC850C829B
:10420300850D83A3121B037C027D007AD77B811269
:104213000556740412187FE9700A74011218B574F4
:10422300FFF0A3F08E828F83E064027039750C0275
:10423300750D00780C121AEC8E828F83A312444101
:10424300E5082404FAE43509FB1213787402121802
:104253007F850A82850B83E024028009740112188A
:10426300B5EEF0A3EFF074011218B51244337401E4
:104273001218B512442A0243AFE50E450F6003023C
:1042830043B5850C82850D831246C9AA16AB171256
:1042930011BC850A82850B837402F0850882850927
:1042A30083EAF0851282851383EB0243B2E50E4560
:1042B3000F60030243B512444EF8A3E0F9850A8266
:1042C300850B837402F0E8850882850983F0E9850C
:1042D30012828513830243B2850C82850D831234C7
:1042E300AD121372EAFAF8C3950EE4950F405CE839
:1042F300650E450F70047A00802185188285198325
:10430300E0FCE50E2CFCE4350FFDC3EC98ED9400C6
:104313005003E08005E50ECAC39AFAEA850A82854E
:104323000B83F08A0A750B00780A121AEC850C824B
:10433300850D83E0250EFCA3E0350FFDAA08AB092C
:10434300121378740212187F02441C75100702447A
:104353001CE50E450F705B850C82850D831245DBD2
:10436300850A82850B837407F08882898312442B24
:10437300124423E0851282851383F0E82402FAE4D1
:1043830039FB8A828B831244338A828B8312442AB9
:10439300A3A3122A0A124438F0E82405F8500109AD
:1043A30088828983124438A3124472A3A3A3A3F07F
:1043B300806775100B8062741D1218B51234AD122C
:1043C30008568A828B83E5824583604A1245DB88DF
:1043D3000C890DE8450D603E74251218B5E0F51003
:1043E3007810121AF0780E121AEC780A121AEC7876
:1043F30008121AEC74071218B5E0F9EEFCEFFDAAE7
:1044030016AB17850C82850D831218D77407121803
:104413007FE9F510800375100EA91074050237703B
:10442300F088828983A322A3E085088285098322F9
:10443300124479F022124479A3A3229002F7124680
:10444300D022E0F50E750F00780E22850C82850DC3
:1044530083123913E022E0FAA3E0F8E4C8F9EA286A
:1044630022F08A828B83E0F50A750B00780A221208
:10447300442312447922E0850882850983A3A32279
:1044830074EE1218D974FE1218698A088B09ECFEAF
:10449300EDFF890AAC18AD19EEFAEFFB1207548A47
:1044A3000C8B0DEA450D700302456B851882851947
:1044B300831234AD1208568A828B83E5824583705A
:1044C30003024566A3A31245DB880E890FE8450F57
:1044D300700302456674141218B5E0F510A3E0F5F5
:1044E30011E50AF50B780B121AF074191218B512AC
:1044F3001B037810121AEC741B1218B5E0F9AC0CFC
:10450300AD0DAA08AB09850E82850F831218D774E7
:104513000512187FE9F50B705274FE650A604C852D
:104523000C82850D83E06402704112457AFAA3E0A0
:10453300F9EAF87402687003742969702E85108291
:10454300851183124459F50CE439F50D780C121AD0
:10455300ECEEFCEFFDAA08AB091208DA740212189C
:104563007F8008750B0E8003750B01A90B74021273
:10457300187F7F0A0219ABA31245DF88828983E083
:104583002274F61218D974FE121869740C1218B535
:104593001245DBE8851882851983F074011218B57A
:1045A300E9F0E4F508F5097808121AEC75080278C1
:1045B30008121AEC74041218BF88088909780812C3
:1045C3001AEC79FE1208C2740612187F74021218CC
:1045D3007F023F8C8E828F831245DF22E0F8A3E0B7
:1045E300F92274F71218D9EAFEEBFF890890030E3B
:1045F3001244411211BCEA5402600BA908EEFAEF0F
:10460300FB120748800279017F010219AB74F21291
:1046130018D974FE121869EAFEEBFF890A74016562
:104623000A60147402650A60030246BF7901120A24
:10463300E4E960030246BFEEFAEFFB1208A4EA4B7B
:1046430060031208AAA818A919880889097808120A
:104653001AEC7508027509007808121AEC7508DD62
:104663007509817808121AEC7CFF7DFF7A017B00C3
:1046730012074E740612187F8038850882850983D5
:10468300A3A3A3A3A3A31246C9EEFAEFFB1211A49B
:10469300E4F50CF50D780C121AEC74021218B5122D
:1046A3001B037CFF7DFFAA08AB0912075A7404128F
:1046B300187F8A088B09E508450970BE7402121831
:1046C3007F7F060219AB1239131246D022E0FCA3F6
:1046D300E0FD2274F41218D98A088B09ECFEEDFF71
:1046E30090165AE0F4604B7A097B0012139CEA4B54
:1046F30060408A828B8374B1F0A3E4124738F08A56
:10470300828B83A3A3E508F0A3E509124738A3EE40
:10471300F0A3EFF0740C1218B51245DB8A828B8379
:10472300A3A3A3A3A3A3A3123B0490165AE0F912D5
:1047330013A8022A3FF08A828B83A3A3A3A3227424
:10474300EE1218D974FA1218698A0A8B0BE9FF8CD6
:10475300088D097E00850A0C850B0D780C121B3021
:104763000004101E4A8A47AD47CC47EF471248352D
:104773004866488948A048D0487F49A249C549F3BB
:10478300491E4A1E4AF94874016F701985088285CB
:104793000983E0C39403500D850882850983E09063
:1047A3001746F080027E18024A4674026F70158520
:1047B3000882850983E0F8A3E0F9901747E8F0A39E
:1047C300E9F080027E18024A4674016F7019850869
:1047D30082850983E0C39402500D8508828509838D
:1047E300E0900751F080027E18024A4674016F7010
:1047F30019850882850983E0C39405500D850882D5
:10480300850983E0900752F080027E18024A4674BD
:10481300016F7019850882850983E0C39402500DE6
:10482300850882850983E0900753F080027E180291
:104833004A4674106F7027750C10750D00780C12B2
:104843001AECAC08AD097A547B0712137874021280
:10485300187F8A0C8B0D850C82850D8380027E1850
:10486300024A4674016F7019850882850983E0C383
:104873009402500D850882850983E0900764F080D7
:10488300027E18024A4674016F700D8508828509FD
:1048930083E090174AF080027E18024A4674046F40
:1048A30070269081A2780C12172D850882850983C2
:1048B300780C1215BF50118508828509831217578A
:1048C30090076612176380027E18024A46EF702132
:1048D3001206EEE9701312114AE9F50D795012141C
:1048E300C8E9F50C121138800A9007F97401F080B9
:1048F300027E18024A4674076F707C750E06750FA8
:1049030000780E121AEC850882850983A3AC82AD68
:104913008374021218C712137E740212187F8A104E
:104923008B1185100E85110F7C007D00AA18AB1921
:10493300850882850983E0F91210DEE9F50CE50CA0
:10494300C3940A502E1206EEE97015A90C121150E9
:10495300E9F50E79501214C8E9F50D1211388019D2
:10496300A80C790074FA28F582740739F583740169
:10497300F080067E0280027E18024A4674016F7040
:1049830019850882850983E0C39402500D85088246
:10499300850983E0900765F080027E18024A467419
:1049A300016F7019850882850983E0C3940A500D4D
:1049B300850882850983E0901749F080027E1802FA
:1049C3004A4674016F7025850882850983E0C39484
:1049D300074019850882850983E0C39411500D852A
:1049E3000882850983E090174BF080577E18805327
:1049F30074016F70229007F8E0F50C850882850931
:104A030083E09007F8F0E50C70399007F8E0640153
:104A13007031121138802C7E188028C3E50A942740
:104A2300E50B9400501B74026F701685088285098C
:104A330083E0FCA3E0FDAA0AAB0B12056EE9FE803E
:104A4300027E02EEF9740612187F7F0A0219AB7414
:104A5300EC1218D974DA121869890D8A128B138C27
:104A63000A8D0B743A1218B5E0F50C908132AC182C
:104A7300AD19740612177CAC18AD19AA12AB13A9A1
:104A83000D1210DEE9FEEEC3940A4003024BC6EE9C
:104A9300F912111AE9FF901746E0640270047401D9
:104AA30080027400F5087808121AF0AD0CEFFCEEE2
:104AB300F9AA0AAB0B12118C740112187F7C147DB6
:104AC30000790074121218C71213908A0E8B0F8587
:104AD3000E08850F0974121218CF7A1075F006EEBE
:104AE300A42424F91214C2E9703C7C1079FF7412D7
:104AF3001218C71213F0E9702D74221218B5AC8284
:104B0300AD837A0475F006EEA42425F91214C2E9E4
:104B1300F50874121218CFEFA2E0E433F9AA0AAB36
:104B23000B1205F8E9F874061218CF7A0C74702E7C
:104B3300F91214C2E9707974061218C712110E75AE
:104B43000E00E50EC394045067A80E7900E875F0D3
:104B530003A4C8AAF075F000A42AFA75F003E9A427
:104B63002AF974061218B5E58228F508E58339F5A4
:104B730009850882850983E0F8A3E0F9E849602CF8
:104B8300850882850983A3A3E0F5107511007810C9
:104B9300121AEC850882850983E0FCA3E0FDAA0ACA
:104BA300AB0B1208C8740212187FE9F8050E809245
:104BB300EFA2E1500E900750E0F9AA0AAB0B1208DE
:104BC300CEE9F87404650C700F901746E064027028
:104BD30007AA0AAB0B1211867900742612187F7F7D
:104BE3000C0219AB74F71218D9EAFEEBFF1206EEAA
:104BF300E970679007F9E06401701B12114AE9F547
:104C0300089007F97400F07C0A7D0079007AFA7B3A
:104C1300071213908039750800E508C3940A502FD2
:104C2300A808790074FA28F582740739F583E064DB
:104C3300017018A908121150E9FAA808790074FA4A
:104C430028F582740739F5837400F0050880CA7962
:104C5300501214C8E9F5081211387F010219AB7418
:104C6300F21218D9890BEAFEEBFF8C088D09750A3D
:104C73000AE50B600C146009146044146064024D6F
:104C830007EEFAEFFB12112CE9F50AE50AC3940AC1
:104C93005072E5084509606C750C06750D00780CBB
:104CA300121AECEEFCEFFDAA08AB0912137874029A
:104CB30012187F8A0C8B0D850C82850D838045EE3F
:104CC300FAEFFB121126E9F50AE50AC3940A5034F8
:104CD300E5084509602EAA08AB09A90A121120E9C3
:104CE3008022EEFAEFFB121132E9F50AE50AC394CA
:104CF3000A5011E5084509600BAA08AB09A90A1275
:104D03001120E9F8A90A7F060219AB74F21218D927
:104D13008A0C8B0DE9FF7E1574FF650C700474FF1C
:104D2300650D702A750800E508C3940A5014EFFC5A
:104D33007A027B00A9081210FCE960027E000508D4
:104D430080E5EF60627A747B11120B088059AA0C1C
:104D5300AB0D120AD88A0A8B0B850A08850B09E565
:104D630008450960407C007D00E5082405FAE43528
:104D730009FB850882850983A3A3A3A3E0F9121085
:104D8300DEE9F50AE50AC3940A500EEFFC7A027BCA
:104D930000A90A1210FCE97E00EF600BAA08AB0918
:104DA30012117480027E14EEF97F060219AB74EEC1
:104DB3001218D98A0E8B0F8C0A8D0B74121218B528
:104DC300E0F50CA3E0F50D75081574FF650E70048E
:104DD30074FF650F701E7E00EEC3940A5061AC0C25
:104DE300AD0DAA0AAB0BEEF9121102E960037508C7
:104DF300000E80E4AA0EAB0F120AD88A108B11AEF4
:104E030010AF11EE4F60357C007D00EE2405FAE40F
:104E13003FFB8E828F83A3A3A3A3E0F91210DEE9E5
:104E2300F509E509C3940A5016AC0CAD0DAA0AABFB
:104E33000BA909121102E97508008003750814A96A
:104E4300087F0A0219AB74F71218D9EAFEEBFF9038
:104E5300076AEEF0A3EFF0900750E0FC7D007A269E
:104E63007B0012056EE9F508900750E0F91208324D
:104E73007F010219AB74F01218D974EC1218698A05
:104E83000C8B0D850C82850D83A3A3E024FA70039C
:104E93000252F124FD7003025166147003024F683D
:104EA30014601024FD700302510E1470030251A507
:104EB300025304AE0CAF0D90076AE0F8A3E0F9E8E3
:104EC30049606690076AE0F8A3E0F5838882E0F81A
:104ED300A3E0F9E8496052EE240CF582E43FF58340
:104EE300E0F5087808121AF0EE240BF582E43FF59A
:104EF30083E0F98E828F83A3A3A3A3A3A3A3A3A376
:104F0300E0FCA3E0FDEE2403FAE43FFB90076AE034
:104F1300F8A3E0F5838882E0F8A3E0F583888212A2
:104F230018D7740112187F80398E828F83A3A3A3AD
:104F3300A3A3A3A3A3A3121B0390076612174B12E9
:104F4300060A740212187FE9601879018E828F8332
:104F5300A3A3A3A3A3A3A3A3A3E0FAA3E0FB120623
:104F630004E9025304AE0CAF0D7508008E828F83E3
:104F7300A3E060030250908E828F83A3A3A3A3A315
:104F8300E0A2E04003025090900804E0F8A3E0F9A7
:104F9300E84960030250907C0E7D007900AA18ABAB
:104FA300191213908A0A8B0BAA0AAB0BEE240CF589
:104FB30082E43FF583E0F8A3E0F9E8496036750A37
:104FC30006750B00780A121AECEE240CF582E43F06
:104FD300F583E02410FCA3E03400FD74021218C72B
:104FE300121378740212187F8A0A8B0B850A828542
:104FF3000B83804F8E828F83A3A3A3E0FAA3E0FBEE
:10500300120AD88A0E8B0F850E0A850F0BE50A4507
:105013000B602D750E06750F00780E121AECE50A5B
:105023002405FCE4350BFD74021218C712137874BF
:105033000212187F8A0E8B0F850E82850F838003E1
:105043000253048E828F83A3A3A3A3A3E0A2E250FF
:1050530004D2F08002C2F0A2F0E433F87900740CB9
:105063001218B5E048F0A3E049F0EEFCEFFDAA18F2
:10507300AB19121114E970127A027B00900750E009
:10508300F91213CCE9790002530675081590076AE3
:10509300E0F8A3E0F9E849606F90076AE0F8A3E05D
:1050A300F5838882A3A3E0F8A3E0F9E84960598E69
:1050B300828F83A3E0FC79018E828F83A3A3A3E075
:1050C300FAA3E0FB90076AE0F8A3E0F5838882A3E4
:1050D300A3E0F8A3E0F58388821218D7E5086028D7
:1050E300AC0879038E828F83A3A3A3E0FAA3E0FB2A
:1050F30090076AE0F8A3E0F5838882A3A3E0F8A30E
:10510300E0F58388821218D7025304AE0CAF0D90DA
:10511300076AE0F8A3E0F9E849604590076AE0F818
:10512300A3E0F5838882A3A3E0F8A3E0F9E849604C
:105133002F850C82850D83A3E0FC79028E828F83F9
:10514300A3A3A3E0FAA3E0FB90076AE0F8A3E0F5CA
:10515300838882A3A3E0F8A3E0F58388821218D79B
:10516300025304AE0CAF0D7C007D00EE2404FAE480
:105173003FFB8E828F83A3A3A3E0F91210DEE9F530
:1051830008E508C3940A5017EE240AFCE43FFD7AAD
:105193000475F006E508A42425F91214BCE9F80205
:1051A3005304AE0CAF0D900765E06019901749E00A
:1051B300F98E828F83A3A3A3E0FAA3E0FB12060474
:1051C300E9F8025304901746E0701679058E828F32
:1051D30083A3A3A3E0FAA3E0FB120604E9F80253B6
:1051E300048E828F83A3A3A3E0FAA3E0FB120AD861
:1051F3008A0A8B0B850A08850B09E50845097003A4
:105203000253048E828F83A3A3A3A3A3A3A3E0A229
:10521300E0506D850882850983A3A3A3A3E06060A2
:105223008E828F83A3A3A3A3A3A3A3A3A3E0F50ABF
:10523300A3E0F50B7409780A121847E50A5401F83C
:10524300E50B5400F9E8A2E04036740E1218CFE5DE
:10525300082405FAE43509FB850882850983A3A39D
:10526300A3A3E0F91210DEE9701679038E828F830F
:10527300A3A3A3E0FAA3E0FB120604E9F802530494
:10528300EE2405FCE43FFD850882850983A3A3A3DF
:10529300A3E0F98E828F83A3A3A3E0FAA3E0FB121A
:1052A300118090076AE0F8A3E0F9E849605390079A
:1052B3006AE0F8A3E0F5838882A3A3E0F8A3E0F90A
:1052C300E849603D7C0079008E828F83A3A3A3E02D
:1052D300FAA3E0FB90076AE0F8A3E0F5838882A3D2
:1052E300A3E0F8A3E0F58388821218D78013AE0CED
:1052F300AF0D8E828F83A3A3A3E0FAA3E0FB12106A
:10530300D87901741412187F7F080219AB74F5124F
:1053130018D974F21218698909EAFEEBFF8C0AACFA
:1053230018AD197A0E75F006E509A42420F91214B4
:10533300C2E9705F7C0679FFAA18AB191213F0E972
:105343007051740C1218B5E0F8A3E0F9E8F508E51C
:105353000A6005EE42088004EEF45208A8087900BA
:10536300740C1218B5E0687003A3E0696021A80803
:105373007900740C1218B5E8F0A3E9F0AC18AD1974
:105383007A0E75F006E509A42420F91214BCE97914
:105393000180027900740E12187F7F030219AB7427
:1053A300F01218D974E6121869890B8A0C8B0DEC6C
:1053B300FEEDFF740C1218CF7A0E75F006E50BA400
:1053C3002420F91214C2E960030254D27C0679FF47
:1053D300740C1218C71213F0E960030254D2AC180C
:1053E300AD197A0C7470250BF91214C2E96003022B
:1053F30054CE750A00AA18AB1912110EE50C450D0F
:10540300702E7C0C7900AA18AB191213F0E9600313
:105413000254B47C0C7D007900AA18AB19121390C6
:105423008A088B09850882850983750A010254B4A9
:10543300AC18AD19AA0CAB0D1211088A0E8B0F858F
:105443000E08850F09E50845097030EE4F601BAC67
:1054530018AD197A007B001211088A0E8B0FA80E63
:10546300A90F88088909E8497004790080638508D1
:1054730082850983E50CF0A3E50DF0850882850993
:1054830083A3A3E0F87900EE687002EF696022EE6F
:10549300C0E0850882850983A3A3D0E0F0EE4F70B6
:1054A3000D8508828509837400F0A37400F0750AE2
:1054B30001E50A6016AA18AB1912110EAC18AD1942
:1054C3007A0C7470250BF91214BCE9790180027906
:1054D30000741A12187F7F080219AB74F61218D9D8
:1054E3008A088B097E00EEC394045050EEF87900CD
:1054F300E875F003A4C8AAF075F000A42AFA75F0C1
:1055030003E9A42AF9EC28F582ED39F583E065086F
:105513007004A3E065097021EEF87900E875F003E3
:10552300A4C8AAF075F000A42AFA75F003E9A42A26
:10553300F9EC28FAED39FB80070E80AA7A007B008C
:105543007F020219AB74F71218D97C00ECC39404E0
:1055530040030255F7ECF87900E875F003A4C8ADF1
:10556300F075F000A42DFD75F003E9A42DF9EA28E8
:10557300F582EB39F583E0F4FEA3E0F4FFECF87970
:1055830000E875F003A4C8ADF075F000A42DFD7517
:10559300F003E9A42DF9EA28F582EB39F583EEF05F
:1055A300A3EFF0ECF87900E875F003A4C8ADF0754B
:1055B300F000A42DFD75F003E9A42DF9EA28F58286
:1055C300EB39F583A3A3E0F4C0E0ECF87900E875C8
:1055D300F003A4C8ADF075F000A42DFD75F003E948
:1055E300A42DF9EA28F582EB39F583A3A3D0E0F0E3
:1055F3000C02554F7F010219AB74F01218D974F4E1
:10560300121869EAFEEBFF8C088D09900804E0F894
:10561300A3E0F9E849702CEE4F6006E508450970F0
:105623000579010258A8EEFAEFFB12112CE9901745
:105633004CF090174CE0C3940A400812113EE990D5
:10564300174CF090174CE0C3940A40030258A690FD
:105653000804E0F8A3E0F9E84960030256F2EEFC1F
:10566300EFFD7A0E75F00690174CE0A42420F91292
:1056730014BCE9F50C7C0C7D0079FFAA18AB191258
:1056830013908A0E8B0F850E0A850F0BAC18AD197C
:105693007A0C90174CE02470F91214BCE9F50D75DF
:1056A3000E0E750F00780E121AECEEFCEFFD90173C
:1056B3004CE0F87900E875F00EA4C8AAF075F00084
:1056C300A42AFA75F00EE9A42AF9746C28FA74076F
:1056D30039FB121378740212187F8A0E8B0FA80EEF
:1056E300A90F900804E508F0A3E509F00258A29079
:1056F3000804E0F8A3E0C82406F582C83400F58363
:10570300E0F8A3E0F9E8496043900804E0F8A3E077
:10571300C82406F582C83400F583E0FCA3E0FD7AD3
:105723001B75F00690174CE0A42421F91214BCE970
:10573300F8900804E0F9A3E0C92406F582C934000F
:10574300F5837400F0A37400F00258A2900804E0FB
:10575300F8A3E0C8240AF582C83400F583E0F8A36F
:10576300E0F9E8496043900804E0F8A3E0C8240A9C
:10577300F582C83400F583E0FCA3E0FD7A1B75F0E5
:105783000690174CE0A42422F91214BCE9F89008FF
:1057930004E0F9A3E0C9240AF582C93400F583744F
:1057A30000F0A37400F00258A2900804E0F8A3E00C
:1057B300C8240CF582C83400F583E0F8A3E0F9E8C7
:1057C300496043900804E0F8A3E0C8240CF582C8BC
:1057D3003400F583E0FCA3E0FD7A1075F006901722
:1057E3004CE0A42423F91214BCE9F8900804E0F96E
:1057F300A3E0C9240CF582C93400F5837400F0A337
:105803007400F00258A2900804E0F8A3E0C824084A
:10581300F582C83400F583E0F8A3E0F9E849606F46
:10582300900804E0F8A3E0C82408F582C83400F522
:1058330083E0FCA3E0FD7A1075F00690174CE0A41A
:105843002424F91214BCE9F50A900804E0F8A3E053
:10585300C82408F582C83400F583E02410FCA3E0D3
:105863003400FD7A0475F00690174CE0A42425F962
:105873001214BCE9F8900804E0F9A3E0C92408F580
:1058830082C93400F5837400F0A37400F080109093
:1058930007F8E0600312119212117A7901800679F8
:1058A3000080027901740C12187F7F080219AB740F
:1058B300F71218D974F2121869E9FEAC18AD197A07
:1058C3000E75F006EEA42420F91214C2E9700E74CA
:1058D3000C1218B5E0F8A3E0F9E8F9800279007436
:1058E3000E12187F7F010219AB74F41218D974F2E7
:1058F3001218698909EAFEEBFFE509C3940A50040B
:10590300EE4F700479028041AC18AD197A0E75F030
:1059130006E509A42420F91214C2E9F508E5087084
:1059230026750A06750B00780A121AEC740212180F
:10593300CFEEFAEFFB121378740212187F8A0A8BE8
:105943000B850A82850B83A908740E12187F7F04C6
:105953000219AB74F41218D9EAFEEBFF750800E5DF
:1059630008C3940A5043750A06750B00780A121A85
:10597300ECEEFCEFFDA8087900E875F00EA4C8AAC8
:10598300F075F000A42AFA75F00EE9A42AF97472EE
:1059930028FA740739FB12138A740212187FE9601C
:1059A30004A9088006050880B6790A7F040219ABAA
:1059B30074F41218D9EAFEEBFF750800E508C394E6
:1059C3000A5043750A06750B00780A121AECEEFCAE
:1059D300EFFDA8087900E875F00EA4C8AAF075F0E9
:1059E30000A42AFA75F00EE9A42AF9746C28FA7453
:1059F3000739FB12138A740212187FE96004A9089D
:105A03008006050880B6790A7F040219AB74F71281
:105A130018D974F0121869EAFEEBFF750800E5085F
:105A2300C3940A5039AC18AD197A1075F006E5081D
:105A3300A42423F91214C2E970207C1079FFAA1858
:105A4300AB191213F0E97012EEFCEFFDAA18AB19B3
:105A53001205D4E97004A9088006050880C0790AF4
:105A6300741012187F7F010219AB74F41218D975E0
:105A73000800E508C3940A4003025B47A8087900BD
:105A8300E875F00EA4C8AAF075F000A42AFA75F020
:105A93000EE9A42AF9746C28FC740739FD7A0E7593
:105AA300F006E508A42420F91214C2E97003025B8E
:105AB300427C067D0079FFAA087B00EA75F00EA4FC
:105AC300CAA8F075F000A428F875F00EEBA428FB23
:105AD300746C2AFA74073BFB1213908A0A8B0BAE81
:105AE3000AAF0B7C067D0079FFAA087B00EA75F0FC
:105AF3000EA4CAA8F075F000A428F875F00EEBA464
:105B030028FB74722AFA74073BFB1213908A0A8BE0
:105B13000BAC0AAD0BA8087900E875F00EA4C8AA6F
:105B2300F075F000A42AFA75F00EE9A42AF9747846
:105B330028F582740739F5837400F0A37400F00527
