:020000040000FA
:0600000002010702214D80
:03002B000225515A
:030053000221C3C4
:10008300021FA3E5C754F84401F5C7790122000014
:100093000080FB120086B900030200F1E4792178A5
:1000A30008B800028004F709D8FCE479297802B87B
:1000B30000028004F709D8FCE4900281788F791359
:1000C3008002F0A3D8FCD9FA7A0F7B159001377818
:1000D3000179048015E493A3AD82AE838A828B8376
:1000E300F0A3AA82AB838D828E83D8E9D9E7758288
:1000F3008875837F7400120119758291758300746A
:100103000012011975D00075813F751881751902A8
:10011300759F00020096C09FF59FE473D09F22D085
:1001230083D082C09FE493C0E0740193C0E0740263
:1001330093F59F22FF0000B4000028002800283018
:1001430075A000A000A000A00000080008E001F0D6
:10015300001000100010001000100010005000509C
:1001630000500010001000D0070000000000000F36
:100173000001000500307507001000010081FF0039
:10018300000000FFFFFF590677065F069B06FF028C
:10019300020208025000A0000000E80302CF810120
:1001A3000000C18102D3810100006A1502D98101D7
:1001B3000000BF0202D3810100006B1502DB810145
:1001C3000000D50202D3810100006C1502DD81011C
:1001D3000000D70202D3810100006D1502DF810800
:1001E3000000D80202D3810100006E1502E18101F3
:1001F30000006F15FF0100FF2002CF81010000C442
:100203008102D381010000D31502E38100000000C5
:100213000002E98103000006031700070D070D071D
:100223000D070D070D070D070D070D070D070D072B
:100233000D070D070DAD0FBF0FA70F02020202023C
:1002430002020202010D000000100102CF81010031
:1002530000C78102D381010000161602F381010059
:1002630000400702D381010000171602F18101004B
:1002730000158102D381010000181602EF810100ED
:1002830000F98002D381010000191602ED810100FB
:1002930000A58002D3810100001A1602EB81010040
:1002A30000818002D3810100001B1602E781010057
:1002B30000B78002D3810100001C1602E581010012
:1002C30000938002D3810100001D1602D781010033
:1002D30000078102D3810100001E16020382010080
:1002E300001F1601E8030577100AFFFFFF00013026
:1002F300750302010600000000000000000000007A
:1003030000000000000000000000000000000000EA
:1003130000FFFF0600800CE8030D095050474675A7
:10032300656C4761756765051250002003020A007A
:100333000201060302F0FF5050474675656C4761A2
:10034300756765000000000000000000FD13000059
:1003530009140A436861726163746572697374692D
:10036300632031000243686172616374657269736B
:100373007469632032000843686172616374657253
:100383006973746963203300104368617261637435
:100393006572697374696320340002436861726132
:1003A30063746572697374696320350002CF8101D8
:1003B3000000CA8102D3810100002D1702F98103D5
:1003C3000000041502D5810100002E1702D381011C
:1003D30000003F1702FB81010000051502D58101D2
:1003E3000000401702D381010000511702FD810272
:1003F3000000061502D581010000521702D38101C6
:100403000000631702FF81000000071502E9810362
:100413000000081502D581010000641702D3810191
:10042300000075170201820400000A1502D581013C
:100433000000761712012259A6031201226CA603AB
:100443001201229DA603120122D7A6031201223014
:10045300A70312012277A703120122BFA7031201E8
:1004630022EEA7031201221DA80312012254A8039E
:100473001201229BA803120122B4A803120122092C
:10048300A90312012222A90312012270A903120156
:1004930022AAA903120122A0CB02120122A3CC0299
:1004A300120122DCCC02120122FFCC021201221122
:1004B300CD021201224FCD02120122CBCD02120135
:1004C3002293CE02120122B5CE021201224CCF0298
:1004D3001201229ECF02120122CFCF02120122DC8F
:1004E300CF0212012246D0021201229DD002120134
:1004F30022A0D002120122D9D002120122DCD002A2
:10050300120122E6D0021201223AD1021201227B09
:10051300D102120122AED102120122EBD102120149
:1005230022EDD20212012291D302120122FAD30246
:1005330012012238D402120122A89A03120122D0F6
:100543009A03120122FD9A03120122359B03120121
:1005530022939B03120122DF9B03120122469C0379
:10056300120122869C03120122C39C03120122F171
:100573009C031201229B9D03120122A59D031201DC
:1005830022B29D03120122E59D03120122F19D0374
:10059300120122099E03120122139E03120122E07B
:1005A300BF03120122EEBF0312012206C003120190
:1005B300221DC003120122C2BA011201226CBB0127
:1005C3001201227FBC01120122FBBC01120122197C
:1005D300BE0112012255BE01120122F0BE01120119
:1005E30022D4BF01120122A0C0011201222EC20196
:1005F3001201229FC20112012259C3011201224B8F
:10060300C4011201228BC4011201223FC501120150
:100613002271C50112012267C701120122A9C70174
:10062300120122C7C7011201222DC801120122FCA7
:10063300C801120122C0C901120122DFCB0112013C
:1006430022ECDB02120122D6DC0212012281DD023E
:10065300120122D2DD0212012282DE02120122F3F2
:10066300DE02120122D8DF021201220CE002120183
:100673002205E10212012242E1021201221EE202DC
:100683001201225DE20212012279E202120122F436
:10069300B60312012278B703120122A3B703120192
:1006A30022BDB803120122A19E03120122B79E03A9
:1006B300120122D59E03120122E69F03120122F0AA
:1006C3009F031201221BA10312012212A203120192
:1006D300227FA2031201227BE802120122B1E90266
:1006E300120122E8E9021201223FEA021201225416
:1006F300EC021201220C96011201229896011201BA
:1007030022FC970112012208980112012243980149
:10071300120122B29801120122BB9901120122C4D3
:100723009A011201228B9B01120122E89C01120102
:1007330022069D01120122239D01120122D09D0157
:100743001201224D9E01120122759E011201223FC8
:10075300A10112012244A1011201225DA301120190
:1007630022ABA3011201221BA40112012259A401ED
:1007730012012235A501120122F5A5011201224120
:10078300A60112012244A60112012288A601120128
:1007930022D0A6011201220FA70112012231A701C3
:1007A30012012265A701120122C8A7011201221B0F
:1007B300EE0212012229EE021201227CEE02120144
:1007C300229BEE02120122E0EE0212012224F00229
:1007D300120122BFF00212012203F1021201222DA3
:1007E300F1021201229CF102120122E2F102120132
:1007F3002259F2021201220AF30212012284250075
:1008030012012294250012012235260012012291A1
:1008130026001201224E27001201226A280012012B
:10082300229C2800120122CB2800120122782A00E0
:10083300120122EF2C001201225F2F00120122511C
:1008430030001201224A31001201225133001201F9
:100853002245360012012274370012012278390032
:10086300120122883A00120122173C0012012208C9
:100873003D00120122563D00120122C53D00120126
:1008830022E93D001201223A3E00120122DB42001E
:10089300120122DC43001201223D440012012268AE
:1008A30044001201222E45001201226E960312010A
:1008B30022789603120122BD9603120122D19603D8
:1008C3001201226197031201229A9703120122D582
:1008D3009703120122FE9703120122529803120179
:1008E300226798031201228998031201229E98031A
:1008F300120122B29803120122C7980312012201A6
:1009030099031201222D99031201227699031201F0
:1009130022E899031201222B9A03120122559A030A
:10092300120122809A03120122CCBE031201221C5F
:10093300A402120122FFA4021201227AA5021201CB
:1009430022B5A50212012206A70212012294A702D0
:1009530012012226AA02120122D8AA02120122E4BB
:10096300AB0212012257AD02120122B0AD021201F5
:1009730022DC8D031201221F8E03120122A38E0398
:100983001201227A910312012288B2031201223A40
:10099300B30312012236B40312012275B403120108
:1009A30022CFB403120122ECB8031201224FB90380
:1009B300120122ECB90312012221BA0312012251BE
:1009C300BA031201228CBA03120122ACBA03120138
:1009D300220080031201228C80031201224B810327
:1009E3001201226382031201227D840312012288F1
:1009F3008D02120122AD8D021201227A8E021201A2
:100A0300224E8F02120122BB8F02120122FB8F02A0
:100A1300120122979002120122CB9102120122A607
:100A230092021201220593021201229193021201F2
:100A330022FF93021201228B9402120122D194020B
:100A4300120122439502120122D595021201227648
:100A53009602120122969602120122DE96021201DA
:100A63002227970212012243970212012269970259
:100A7300120122E39702120122F19702120122804E
:100A83009802120122E99802120122B4840312018E
:100A9300223985031201227B85031201225F86031B
:100AA300120122CC86031201221087031201225461
:100AB3008703120122818703120122A987031201EE
:100AC30022E187031201221F8803120122468803B1
:100AD300120122C088031201220A8903120122ECA7
:100AE300CB011201228BCD01120122C3CF011201CE
:100AF3002217D00112012242D0011201221ED1017C
:100B03001201224ED1011201227DD1011201229044
:100B1300D101120122D1D101120122FED101120110
:100B2300224CD20112012288D201120122CDD2011C
:100B33001201221AD30112012294D301120122D5E8
:100B4300D501120122BFD701120122FBD7011201E5
:100B5300228AD901120122CFD90112012242DA01DC
:100B630012012297DA011201229CDA0112012226D4
:100B7300DB0112012245DC0112012256DC011201C4
:100B83002201C2021201227AC20212012234C802D5
:100B93001201223FC902120122E8CA02120122767F
:100BA300CB02120122486300120122C96300120121
:100BB30022F663001201223F640012012240650005
:100BC3001201229965001201221567001201229772
:100BD3006700120122B2670012012223680012018A
:100BE30022E06800120122A36900120122316A0087
:100BF300120122E86A00120122FB6A001201229408
:100C03006B001201222B6C00120122526C001201A4
:100C130022BB6C00120122056D00120122536D00EC
:100C2300120122F86D00120122966E001201222396
:100C33006F00120122946F00120122DB6F00120178
:100C4300223370001201226570001201221F71000D
:100C53001201222672001201226F72001201228CED
:100C63007200120122AB7200120122DE7300120124
:100C730022957400120122BA7400120122CF74006B
:100C83001201223F7500120122807500120122A475
:100C9300760012012225770012012241B8021201C7
:100CA300228CB80212012298B8021201226CB902F6
:100CB30012012283B902120122C0B902120122F1E8
:100CC300B90212012229BA021201227FBA021201C9
:100CD3002295BA02120122D1BA02120122E4BA0207
:100CE3001201220BBB021201223FBB021201226539
:100CF300BC02120122AFBD02120122ABBE021201DD
:100D030022C8BF02120122FB7F0012012279DC01FB
:100D1300120122B4DC0112012206E0011201226257
:100D2300E10112012221E20112012288E5011201EF
:100D33002272E601120122BEE601120122D8E60167
:100D430012012215E70112012220E7011201225F9D
:100D5300E70112012268E70112012212E8011201E0
:100D630022E9E8011201223DE9011201229AE90177
:100D73001201220CEA01120122A0A801120122FF92
:100D8300AB0112012205AC0112012236B30112019B
:100D9300223DB701120122E1FC02120122BEFD0233
:100DA30012012202FE021201223CFE02120122D48F
:100DB300FE0212012243FF021201224CFF02120122
:100DC3002258FF0212012272FF021201229CFF022B
:100DD300120122CCFF021201222C920312012239AA
:100DE30092031201225392031201228692031201EB
:100DF30022C492031201222993031201223E930378
:100E03001201224993031201225693031201226D08
:100E130093031201227B930312012286930312018F
:100E230022929303120122A19303120122AC930392
:100E3300120122CF9303120122739403120122831E
:100E430094031201229D9403120122BA9403120106
:100E530022D59403120122FA940312012205950369
:100E63001201221A95031201222E95031201228FD9
:100E730095031201229595031201229B95031201FA
:100E830022A19503120122B99503120122EC9503C5
:100E93001201220580021201229C800212012234D7
:100EA30081021201222482021201225B82021201B8
:100EB300226E8202120122DC820212012277840254
:100EC3001201229E84021201224085021201227520
:100ED3008502120122868502120122FF8502120178
:100EE30022208602120122388602120122908702F2
:100EF300120122998902120122E98B02120122ECCA
:100F03008C021201223B8D021201225BEB011201C2
:100F13002258EC0112012243ED011201224DED0191
:100F23001201226FED011201227BED01120122CD8C
:100F3300EE01120122FCEE011201222CF00112013A
:100F4300226EF0011201229AF10112012270F201C4
:100F5300120122C2F20112012221F30112012258CD
:100F6300F30112012293F3011201222EF701120160
:100F73002247F701120122C9F701120122D7F70113
:100F83001201222CF8011201223AF801120122A7C0
:100F9300F80112012219F9011201225FF90112016C
:100FA300220C99021201222E9902120122189B028D
:100FB300120122BD9E0212012200A002120122DAB6
:100FC300A002120122BABA03120122DFBA031201EC
:100FD3002250BB031201225B7700120122647700C7
:100FE3001201226D77001201229E7800120122BDA8
:100FF3007A00120122F37A001201222D7B001201E2
:1010030022637B001201229D7B00120122D17B000F
:10101300120122FD7B00120122467C001201228074
:101023007C00120122C87C001201221E7D001201E5
:1010330022537D00120122AE7D00120122E87D00C1
:10104300120122397E001201226F7E00120122A9B1
:101053007E00120122D77E00120122FA7E001201C5
:1010630022ADC003120122D9C00312012234C103ED
:101073001201223EC1031201224EC1031201221C9E
:10108300F30212012243F3021201227EF302120140
:10109300222EC3031201229A4500120122AA4800FC
:1010A3001201223F4A00120122BA4A0012012266AB
:1010B3004B00120122094C00120122A14C00120123
:1010C30022D04C00120122685100120122FA510071
:1010D300120122365300120122A05300120122549E
:1010E30054001201220A5700120122445700120130
:1010F30022AE57001201220B580012012268580039
:10110300120122C55800120122B05900120122F621
:101113005900120122415A00120122645A0012019D
:1011230022AB5B00120122BF5B001201222E5D0085
:101133001201226D5D00120122AD5D001201220039
:101143005E00120122215E001201225F5E00120185
:1011530022856000120122C6600012012261610033
:10116300120122D36100120122146300120122DA58
:10117300E20212012280E302120122C5E4021201FB
:10118300224EE5021201223BE6021201227AE60216
:10119300120122E4E60212012252E702120122F1B5
:1011A300C30312012217AD03120122E2AF0312019E
:1011B30022D6FF0112012258C10312012268C10382
:1011C3001201227CC103120122F8C103120122126F
:1011D300AA03120122BAAA03120122FCAC031201D0
:1011E30022F3FF01120122DFC303120122AABD036E
:1011F300120122DBBD0312012205BE031201226389
:10120300BE031201225ED40212012273D402120120
:1012130022CFD4021201223AD50212012282D50230
:10122300120122F4D5021201221DD6021201222B31
:10123300D6021201228DD602120122CBD60212014E
:1012430022E6D60212012281D7021201222AD802F3
:10125300120122ADD802120122E6D8021201227134
:10126300D902120122C8D90212012226DA0212017E
:101273002238DA021201225EDA0212012267DA024E
:10128300120122B8DB02120122FAB4031201226115
:10129300B5031201221EB6031201229CB6031201EA
:1012A3002289A203120122BCA203120122EEA3038C
:1012B30012012232A4031201220EA503120122708D
:1012C300BC031201224EBD03120122F0AF0312012F
:1012D3002235B0031201227BB00312012244B20370
:1012E3001201229EC203120122B9C203120122C9B2
:1012F300C203120122FBC10312012259AE021201E1
:101303002235AF021201227CAF02120122B9AF02D1
:1013130012012227B00212012281B002120122F12E
:10132300B002120122C1B102120122B0B2021201B3
:101333002227B302120122C3B40212012250B502C2
:10134300120122C3B5021201223FB6021201225634
:10135300B6021201227BB702120122D5B702120193
:1013630022E8F90112012208FA011201220EFB01FF
:101373001201225AFB011201227AFB01120122CD32
:10138300FB011201223AFC0112012280FC0112012D
:1013930022E4FC0112012206820112012233870199
:1013A300120122368A011201225F8A011201228868
:1013B3008A011201223A8B01120122238D011201AB
:1013C300226E8E01120122878E01120122BE930129
:1013D300120122F793011201223B94011201224CC4
:1013E30095011201224A8903120122B58B031201CE
:1013F30022688C03120122868C03120122A88C031B
:10140300120122798D03120122A78D031201221AE0
:10141300F802120122A3F802120122C0F8021201FB
:1014230022BDF9021201224AFA0212012275FB02BD
:1014330012012290FF01120122B3C303120122DD24
:101443007F00E066701008A3E066700A08A3E066F8
:10145300700408A3E06622C3E7960809E796080923
:10146300E7960809E79622C3E09608A3E09608A347
:10147300E09608A3E09622C008C3E096F50808A307
:10148300E096420808A3E096420808A3E0964508C0
:101493007001D3D00822080808EAC0E0EBC0E08658
:1014A300F0E7A4FA180986F0E7A42AFA180986F0E7
:1014B300E7A42AFA180986F0E7A42AFA1986F0E7BE
:1014C300A4FBE5F02AFA190886F0E7A42BFBE5F064
:1014D3003AFA190886F0E7A42BFBE5F03AFA181854
:1014E3000986F0E7A4C5F02BFBE43AFA1908E7C52F
:1014F300F0C6A426F6E5F03BFBE43AFA1886F0E7DB
:10150300A4F6E5F00826F6E43B08F6E43A08F6D03C
:10151300E0FBD0E0FA226016080808C6C313C61819
:10152300C613C618C613C618C613C6D5E0EA22707A
:1015330009080808226016181818C6C333C608C657
:1015430033C608C633C608C633C6D5E0EA22E62743
:10155300F60809E637F60809E637F60809E637F626
:1015630022E026F608A3E036F608A3E036F608A341
:10157300E036F622E026F008A3E036F008A3E036D2
:10158300F008A3E036F022C3E697F60809E697F6DB
:101593000809E697F60809E697F622C3E096F008ED
:1015A300A3E096F008A3E096F008A3E096F022E00B
:1015B30056F608A3E056F608A3E056F608A3E0564D
:1015C300F622E056F008A3E056F008A3E056F00830
:1015D300A3E056F022E0F608A3E0F608A3E0F6083D
:1015E300A3E0F622E6F008A3E6F008A3E6F008A3DA
:1015F300E6F022E0FAA3E0FBA3E0FCA3E0FD22E097
:10160300F8A3E0F9A3E0FAA3E0FB22E8F0A3E9F0F2
:10161300A3EAF0A3EBF022CAC0E0E6F0A308DAFAEB
:10162300D0E0FA22CAC0E0E0A3C582CCC582C5835C
:10163300CDC583F0A3C582CCC582C583CDC583DA6E
:10164300E6D0E0CA22C3E498F8E499F91216898037
:1016530026C3E49AFAE49BFBE920E7E9121689E43E
:1016630098F8E499F922C3E498F8E499F9121689F1
:10167300E498F8E499F9C3E49AFAE49BFB22EB209B
:10168300E7CFE920E7E0B90010BB0008E88AF0845F
:10169300F8AAF022E4FBC8FA22EB70227B10C833CD
:1016A300C8C933C9335007C39AC3DBF280069A50C3
:1016B300012ADBEAC833F4C8C933F4C9FA2275F046
:1016C30008E4C833C8C933C933C99AC99B5004C98C
:1016D3002AC93BD5F0ECFBC833F4C8E4C9FA22604D
:1016E3000D08C6A2E713C618C613C6D5E0F32260D9
:1016F3000C08C6C313C618C613C6D5E0F42270047B
:1017030022600D18C6C333C608C633C6D5E0F41825
:1017130022251810AF08F518400C15198008F51884
:1017230040021519D2AF2200C0D0251810AF08F51A
:1017330018500C05198008F51850020519D2AFD0BE
:10174300D0222518F58210AF08F518400C15198022
:1017530008F51840021519D2AF851983222518F50B
:1017630082E43519F583222518F8E43519F9222581
:1017730018FAE43519FB222518FCE43519FD22E497
:10178300732518C582C0E0E51934FFC583C0E0E5C1
:1017930018C3958224F810AF0885831985821880B1
:1017A30008858319858218D2AFCEF0A3E520F0A374
:1017B3007808E608F0A3DEFAEFF0A3E58124FAF84F
:1017C300E608F0A3E608F0A3E608F0A30808E60895
:1017D300F0A3E608F0A315811581D0E0FED0E0F870
:1017E300158115811581E8C0E0EEC0E0222518C5FA
:1017F30082C0E0E51934FFC583C0E0E518C39582D4
:1018030024F910AF08858319858218800885831908
:10181300858218D2AFCEF0A3E520F0A37808E608BE
:10182300F0A3DEFAEFF0A3E58124FBF8E608F0A3CA
:10183300E608F0A30808E608F0A3E608F0A315817C
:101843001581D0E0FED0E0F815811581E8C0E0EE07
:10185300C0E022851983851882E0A3FEE0A3F5206A
:101863007808E0A3F608DFFAE0A3FFE0A3C0E0E016
:10187300A3C0E0E0A3C0E0E0A3C0E0E0A3C0E010A9
:10188300AF08858218858319800885821885831996
:10189300D2AFD083D08202011F851983851882E0DD
:1018A300A3FEE0A3F5207808E0A3F608DFFAE0A39F
:1018B300FFE0A3C0E0E0A3C0E0E0A3C0E0E0A3C07A
:1018C300E010AF0885821885831980088582188502
:1018D3008319D2AFD083D08222C0D02518C582C04D
:1018E300E0E51934FFC583C0E0E518C3958224F30E
:1018F30010AF08858319858218800885831985822E
:1019030018D2AFC8F0A3E9F0A3EAF0A3EBF0A379F0
:1019130008E709F0A3D8FAECF0A3EDF0A3EEF0A3E7
:10192300EFF0A3D0E0F0A3D0E0F0A3D0E0F0A3E584
:1019330020F0A3E5F0F0A322851983851882E0C087
:10194300E0A3E0F9A3E0FAA3E0FBA37808E0F6083C
:10195300A3DFFAE0FCA3E0FDA3E0FEA3E0FFA3E026
:10196300C0E0A3E0C0E0A3E0F5D0A3E0F520A3E04E
:10197300A3F5F010AF088583198582188008858345
:1019830019858218D2AFD082D083D0E0F8D0E0326C
:1019930074048006740280027401C0E0F404121718
:1019A30045D0E012161A227404800474028000CC1D
:1019B300C0E0EDC0E0E518C39CCCAD1950011D108B
:1019C300AF068C188D1980068C188D19D2AF12169C
:1019D30027D0E0FDD0E0FC22D083D082E9C0E0E450
:1019E30093A3C386F0C5F095F0F908E493A386F0BA
:1019F300C5F095F0700BE493A3C3994005E9048007
:101A030002A3E475F002A42582F582E5F03583F59F
:101A130083D0E0F9E493A3C0E0E493C0E022D08351
:101A2300D082ECC0E0EDC0E0E493A3FCE493A3FD1B
:101A3300ED4C600D121A6DEC24FFFCED34FFFD80BC
:101A4300EFE493A3FCE493A3FDED4C600D121AACF9
:101A5300EC24FFFCED34FFFD80EFD0E0FDD0E0FC93
:101A6300E493A3C0E0E493C0E022C0E0C3E4939610
:101A7300087401939618400FE49366700808740184
:101A830093661870007019A3A3C3E49396087401B6
:101A9300939618A3A3400DD0E0D0E0D0E0021A5DE6
:101AA300A3A3A3A3A3A3D0E022C0E0C0F088F0E4E3
:101AB300936670080874019366187000A8F0A3A3D6
:101AC300700BD0F0D0E0D0E0D0E0021A5DA3A3D039
:041AD300F0D0E0224D
:101AD80074F61217F0EAFEEBFF8C088D09EE243439
:101AE800F8E43FF9E8FCE9FDEE2435121DEBFAEEC7
:101AF8002437121DEBF88508F0A4C885F00A85097B
:101B0800F0A4250AF9EA28F8E439F97A257B0012C5
:101B18001689EA8C828D83F0FA131313541FF8EE9A
:101B280028F8E43FF9E8245DF582E439F583E0C05C
:101B3800E074075AF8D0E0B800028004C313D8FC58
:101B4800A2E0EE50082434F582E43F8018243612CF
:101B58001DEBF5F0EA84A8F0EE28F8E43FF9E82454
:101B680038F582E439F583E0F97F0302189C74F7AD
:101B78001217F0EAFEEBFFEE2434121DEBC0E0EE84
:101B88002435F582E43FF583D0E0F08E828F83A37D
:101B9800A3A3A3A3A3A3C082C0838E828F83A3A37E
:101BA800A3A3A3E0F8A3E0F9D083D082E0C398F51B
:101BB80008A3E099F509EE247F121DEB6401703E3D
:101BC800EE2480F582E43FF583C082C0838E828F45
:101BD80083A3A3A3A3A3E0240108A3E03400F9D0BE
:101BE80083D082E0687003A3E06970127CB17D0441
:101BF800120C47EE247FF582E43FF583E4F0AC084D
:101C0800AD09EEFAEFFB121AD8E9F91225437F0263
:101C180002189CC082C083851882851983E0F8A3C6
:101C2800E0F9C3EA9CEB9D5010C3EC98ED99401B7A
:101C3800C3EA98EB995014800EC3EA98EB994007D1
:101C4800C3EC98ED994004790180027900D083D0E3
:101C58008222EAC39CFAEB9DFB2274EF1217F090E4
:101C68000376E064086005E06407702A9061C8E0C4
:101C780060249003A4E0F4601DE0F875F00BA4C89C
:101C8800AAF02AF974A628FE740339FF8E828F837E
:101C9800A3A3A3E07003021D70906060E0C0E0EEB3
:101CA8002468F582E43FF583D0E0F0750C21750DCA
:101CB80005750800750900E5D914F50AE5D9540336
:101CC800F50E60127403650E6043E50A600AEE249F
:101CD80067121DEB7002807590051CE06401601F9F
:101CE800121DE860047A0480027A00E50AC39AFAB1
:101CF80095E0FB120AF18A088B09EA45097005127A
:101D08000E758064121DE870048A0C8B0DE50A605C
:101D180012850C82850D83F50BE5D9F0A3150BE52B
:101D28000B70F6121DE8604474FC250AF50A780C5D
:101D3800121997AC0AA90EEEFAEFFB120D01740204
:101D480012172AE97026AA08AB0912128F793D8E5C
:101D5800828F83A3A3A3A3E0FA7B00120953EEFAB0
:101D6800EFFB120C6B120D137900806F7403650E74
:101D78006051850A107511007810121997AC0CADD6
:101D88000DAA08AB09120CC5740212172AEE2468B2
:101D9800121DEB64807004747F8001E0F50C780CF0
:101DA80012199BE50EF50C780C12199BA90AAC08C0
:101DB800AD099003A4E0FA7B0012092974021217F6
:101DC8002A8013900376E06408600BAC0CAD0DEE2E
:101DD800FAEFFB120D8B120E8179017F0A02189C13
:101DE800EE2483F582E43FF583E02274F21217F0C3
:101DF80074FC121714EAFEEBFF8909A2AFE433F56D
:101E080008C2AF021EBDE0601B780C121997AC0B1C
:101E1800A90EEEFAEFFB120CFB740212172A7404D7
:101E2800250BF50B7401250BF5D9850ED9E50B604B
:101E380018F50A850C82850D83E0F5D9A385820CF7
:101E480085830D150AE50A70EA75E195EE2463F8B5
:101E5800E43FF97A007B00A2AFE433F50BC2AF8808
:101E6800828983E0FCA3E0FDEC4D603A8882898397
:101E7800E0FAA3E0FB8A828B83E0FCA3E0FD888282
:101E88008983ECF0A3EDF08A828B83E4F0A3F088D9
:101E9800828983E0FCA3E0FDEC4D700A8882898387
:101EA800A3A3E4F0A3F0E50BA2E092AF12128F9087
:101EB80004B8E004F0EE2463121DEBF8A3E0F9E89F
:101EC800496064EE2463121DEB2402F8A3E0340099
:101ED800F988828983E5822402F50CE43583F50DBF
:101EE800E0F50BA3E0F50EEE2462121DEB64017021
:101EF800369061D0E0F8121DE860047C0480027C12
:101F0800007480C398FA95E0FBE50B2CF8E43400E4
:101F1800F9E82402F8500109C3EA98EB99A2D265BE
:101F2800D0334003021E0E9004B8E0604D9004B90F
:101F3800E0F89004B8E0C398500C74026509703A50
:101F48009004BAE060348E828F83A3A3A3A3E085B4
:101F58001882851983121F927402121760E8121FE3
:101F6800929004B7E028F0740212177AAA18AB19F5
:101F7800790112097D9004B8E4F0E508A2E092AF77
:101F8800740412172A7F0702189CF0A3E4F0900447
:101F9800B8E0F8228521878522C622C0E074EB12BA
:101FA80018DCA2AFE433F508C2AF759B00906182DC
:101FB800E0A2E05030E591A2E0502A7591FE74014C
:101FC80065217021122136120DCD1221241219AA71
:101FD8001222ED740412172AE964017005790112BE
:101FE8000E09121C62906182E0A2E5505DE591A2A3
:101FF800E550577591DF900376E064076005E0646B
:1020080008702F12213674016521703E120DCD1211
:1020180021241219AA1222ED740412172AE9640164
:1020280070057901120E097901EEFAEFFB121DF322
:102038008018E0640D7013900398E004F064287031
:1020480002E4F07A00E0F9120E87906182E0A2E6DD
:1020580040030220F9E591A2E640030220F97591B8
:10206800BF900376E064057008120DB5120DC180AB
:1020780003120DBB752100120E15E9900377F07954
:1020880000120E09120BB77A017B00900375E0F974
:1020980012125F907803E064427056900520E014B5
:1020A800F0704EC2AF1220B000782AD0E0F618D0F7
:1020B800E0F6E59F5407F87005750DFF8003750D70
:1020C8007FC4C0E07829E6F50A08E6550DF50B74DB
:1020D8000B780A1216F2D0E0250AF8906270E0A296
:1020E800E740F8E8C333906272F0906270E0D2E0A3
:1020F800F0906181E0A2E35009E5E9A2E35003759D
:10210800E9F7A3E0A2E75009E591A2E7500375912A
:102118007FE508A2E092AF7F0802193B8E828F8389
:10212800E0F8A3E0C82416F582E438F5832290038A
:10213800A4E0F875F00BA4C8AAF02AF974A628FE42
:10214800740339FF22C0E0C0D0C082C0839061838D
:10215800E0A2E05009E5BFA2E0500375BFFEE0A28F
:10216800E15009E5BFA2E1500375BFFDE0A2E250CE
:1021780009E5BFA2E2500375BFFBE0A2E35009E501
:10218800BFA2E3500375BFF7E0A2E45009E5BFA280
:10219800E4500375BFEFE0A2E55009E5BFA2E550A2
:1021A8000375BFDFE0A2E65009E5BFA2E65003755C
:1021B800BFBFD083D082D0D0D0E032C0E074F2125A
:1021C80018DCE5A7A2E6500FE5A1A2E6500953A73F
:1021D800BF75A1BF122217E5A7A2E5500CE5A1A281
:1021E800E5500653A7DF75A1DFE5A7A2E15009E591
:1021F800A1A2E1500375A1FDE5A7A2E2500CE5A15B
:10220800A2E2500653A7FB75A1FB7F0102193B749C
:10221800F71217F0752101900376E0640670151225
:102228000D378A828B83A3A3A3A3A3A3E0FAA3E019
:10223800FB120DA3A2AFE433FED2AF90037CE0649F
:102248000170187A207B00900375E0F91213857AE3
:10225800207B00900375E0F9121265906182E0D24C
:10226800E6F090051DE0602185C622801690037B6C
:10227800E064017008E5C654F84405F5C653BEFC91
:10228800121F9C7401652160E4EEA2E092AF7F0208
:1022980002189C008E238F24858228858327851821
:1022A80082851983E0CEA3E0CF852882852783EB3A
:1022B800C9EAC8EDCBECCA75F010C3E833C8E933F6
:1022C800C9EA33CAEB33CBC3EA9EF526EB9FF52563
:1022D800B35004AB25AA26EC33CCED33CDD5F0DAD8
:1022E800AE23AF242274F11217F08A088B098C0AE6
:1022F8008D0B9081B178081215B2740F121760789F
:102308000C1215D89081B1780C1215B27808790C96
:1023180012145A90816550107808790C12158A7831
:102328000812147A4014800E780C790812158A78ED
:102338000C12147A50047901800279007F0802187F
:102348009C74ED1217F08A088B098C0A8D0B90810A
:10235800B178081215B27413121760780C1215D8D8
:102368009081B1780C1215B2780C790812145A4081
:10237800117808790C12158AAA08AB09AC0AAD0BBA
:102388008022751000751100751200751301781000
:10239800790C12158A78107908121551AA10AB1108
:1023A800AC12AD137F0C02189C9081B178081215FD
:1023B800D88A828B8378081215C57F0402189C740A
:1023C800F51217F08C828D8378081215D88A828BC3
:1023D80083780812159E12241FC3E09CF0A3E09D89
:1023E800122411402290818D78081215D88A828B88
:1023F8008378081215778A828B83A3A3A3A3E0248A
:1024080020F0A3E0344EF080A0F088828983C3E0F6
:102418009420A3E0944E22EA2404F8E43BF98C8249
:102428008D83A3A3A3A3E0FCA3E0FD888289832274
:1024380074F51217F0E9FE9004D3E0FAA3E0FBEE7E
:1024480029F8E433F974E928F582748039F583E0D2
:102458002AF508A3E03BF509780812199790819DA1
:102468001215F612229C740212172A8A088B098CFC
:102478000A8D0B74107808121519AA08AB097F0485
:1024880002189C74F11217F08A0C8B0D8C0E8D0FAC
:1024980074111217601219AE7411121760E024013A
:1024A800F508A3E03400F509E4F50AF50B780C7992
:1024B8000812149990817178081215D8780C790847
:1024C800121499AA0CAB0DAC0EAD0F12229C74021B
:1024D80012172A8B09EA450960047A0180027A00FA
:1024E800EC2AFCE43DFD7413121760E0F8A3E0F950
:1024F800E8FEE9FFECF8EDF97A717B02121689889B
:10250800088909E4F50AF50B8E828F83780812157D
:10251800E7ECF8EDF97A717B021216898A088B09C3
:10252800740578081217018E828F83A3A3A3A3E5ED
:1025380008F0A3E509F07F0802189CC082C083E96F
:10254800906000F0D083D08222C0E0C0D0E8C0E024
:10255800E9C0E0A2AFE433F8D2AFC2C7E8F9E8A215
:10256800E092AFD0E0F9D0E0F8D0D0D0E032C2AFFE
:1025780002000022FFFFFFFFFFFFFFFFC082C083B2
:10258800E99015D2F0D083D08202011F74F6121799
:1025980084E99002E8F0900348E0F50875090074B2
:1025A800027808121701AA08AB091212D79002E99B
:1025B800122F479002E9123334606F900348E07598
:1025C800F003A4FAABF01212D7900306122F47902B
:1025D8000306123334700B9002E91233051212DD30
:1025E80080489003061242997AFF7BFF12116F7A96
:1025F8000080198A087509007402780812170112F8
:102608003D4174FF122747E4F0A3F00A900348E025
:10261800F8EAC39840DD79051208159002E8E0F958
:102628001207017A9F7B08120A91023DE474F412A2
:1026380017848A088B09EB548060479002E8E0F918
:102648001212478A0A8B0BAE0AAF0BEE4F602A8E26
:10265800828F83E064B0701A120827E960148E82B2
:102668008F83A3A3A3A3E0F9EE2405FAE43FFB12AA
:1026780007F7EEFAEFFB121235AA08E5096480FBAA
:1026880080047A007B0002289774F212178474FB86
:10269800121714EAFEEBFFEE4F6045740312176041
:1026A800EEF0A3EFF0851882851983ECF0A3EDF026
:1026B8007402121760E9F0AA18AB191206FBE9F5C3
:1026C8000870757413121760E0F50AA3E0F50BE5BE
:1026D8000A450B60638E828F83122CD0EE4F7005F3
:1026E80075080280537A067B001212D78A0C8B0D6C
:1026F800A80CA90DE8497005750813803B888289E4
:1027080083E4122747EEF0A3EF122863E50AF0A34B
:10271800E50BF09002EC12285C9002EC6017E0FCEC
:10272800A3E08003EAFCEBFD8C828D8312285C70A9
:10273800F38C828D8312395CA9087405024519F05F
:10274800A312427BA32274F21217848908890C759C
:102758000D007403780C121701850C0A850D0B9077
:1027680002EBF09002E912376712285A602E121213
:10277800DD7900801D890C750D007402780C121724
:10278800019002E9123C008882F583A3A3E4F0A338
:10279800F009900348E0F8E9C39840D9900348E06D
:1027A800FA850AF0A4CAA8F0850BF0A428FB121237
:1027B800D78A0C8B0DAE0CAF0DEE4F70030228506C
:1027C800900348E0FC850AF0A4CCA8F0850BF0A49F
:1027D80028FD79001212237C0080318D0C750D00C4
:1027E8007403780C1217018A828B83122855888209
:1027F8008983E4F0122862A3A3F0A3F00DEDC3953A
:102808000840D8EE250AFEEF350BFF0C900348E090
:10281800F8ECC39850288C0C750D007402780C12D3
:1028280017019002E9122855E82402500109FAE933
:10283800FB8A828B83EEF0A3EFF07D0080BFE50872
:102848009002EBF079008002791302451C123C04D7
:10285800F922A3A3123309EA4B22A312427BA3A3B2
:10286800A32274F41217847900EAA2E0501F7508B5
:1028780044750981780812199779107C047D007ACB
:10288800D47B1512080F740212172AE9F980007F09
:1028980004021856C082C0839002EC123334601CC4
:1028A80088828983A3A3E06A7003A3E06B88828986
:1028B8008370E8A3A3A3A312330580047A007B00E6
:1028C80002258D74F212178474FD121714EAFEEBB8
:1028D800FF851882851983E4F0A3F074021217604B
:1028E8007401F012333170141209CB1212D790020E
:1028F800EF122F471233317003022A5D123047EE70
:102908002404F50AE43FF50B850A82F583E024FEEA
:10291800603C24FC607424FE607E24FE700302295F
:10292800AD24FE70030229BA24FE70030229C724CD
:10293800FE70030229D424FE70030229E124FC70EE
:1029480003022A0224FE7003022A1A022A561209D6
:10295800CB9002F1EAF0A3EB122A69120443E96072
:1029680003022A569002F11219AE8E828F83A3A316
:10297800A3A3A312429985088285098312330512FD
:1029880007DF740212172A022A56AC18AD19EEFA9C
:10299800EFFB12082D022A25AC18AD19EEFAEFFB51
:1029A8001208338078AC18AD19EEFAEFFB1208392B
:1029B800806BAC18AD19EEFAEFFB12083F805EACE5
:1029C80018AD19EEFAEFFB1208458051AC18AD1995
:1029D800EEFAEFFB12084B8044740212176A880C57
:1029E800890D780C121997740212177AEEFAEFFB18
:1029F800120851740212172A8023AC18AD19EEFA86
:102A0800EFFB120857E9F870167402121760E4F029
:102A1800803CAC18AD19EEFAEFFB12085DE9F8E856
:102A2800602C8E828F83A3E064146022850A8285DD
:102A38000B83E09002F1F085188285198312330523
:102A48009002F2122F47E8A3122A6912043DEEFA07
:102A5800EFFB1207B57402121760E0F97403024520
:102A680019F07CF17D0285088285098312330922D9
:102A780074E812178474FA1217147404121760ECAD
:102A8800F0A3EDF08A128B13EA2405F50EE4351352
:102A9800F50FEA2402F510E43513F511851082F5D7
:102AA800831233051205338A0A8B0B7508007C03E1
:102AB8007D0079007AF17B02121223E50E2402F5DB
:102AC80016E4350FF517740212176A880C890D7809
:102AD8000C121997850E82850F83A3A3A3A3E0F593
:102AE8000C750D00780C121997E50E2405F50CE409
:102AF800350FF50D780C12199785168285178312F4
:102B0800360C120719740612172A8A0C8B0DE50C5D
:102B1800450D7003022C998020851882851983E061
:102B280088828983F00508851882851983A3E0C007
:102B3800E0122CDAD0E0F00508E50A24FBFAE50BF0
:102B480034FFFBC3E5089AE49B4003022C997E00FE
:102B58007F00851282851383A3A3A3A3E0F50978D8
:102B68000912199BE4F514F51578141219977514C0
:102B7800EE75150278141219979002EF1219AE74B7
:102B8800091217601219AEE50A24F9F9AC0CAD0D5B
:102B9800851082851183123305120887740912176C
:102BA8002AE96003022C3A850E82850F83A3A3A32A
:102BB800A3A3A3A3E0F89002EEE0687075E0F51413
:102BC8008E157814121997124296850E82850F83F6
:102BD800A3A3A3A3A3A3A3A312330512121D7402D4
:102BE80012172AE9604C9002F2123334703BE4F574
:102BF8001478141219977CFF7DFF79078510828558
:102C080011831233051207F1740212172A12333A8C
:102C18007017850E82850F8312443374041217606F
:102C2800123CF412363D022CCD850C82850D8312A0
:102C38002CD0A818A9198814891578141219977412
:102C4800041217601219AE851682851783122F3D5C
:102C5800120725740412172A8A0C8B0DEE4F700385
:102C6800022B16122CDAEE122CE51235F3EF122C89
:102C7800E5F8A3E03400F9E50C450D6003022B21CB
:102C88008882898374FFF00508122CDA74FFF00536
:102C980008E508601A1313543F122F4D12044FE928
:102CA80060099002F212330512128F79008016859E
:102CB8000E82850F831244337404121760123CF499
:102CC80012395C790A0235C6A3A3A3A3E0FEA3E0E8
:102CD800FF22A8089002F2E0281235F322F0050836
:102CE800089002F2E0282274E812178474FA121786
:102CF800147402121760122F477404121760ECF054
:102D0800A3EDF07402121760E024051235DCE0F53B
:102D18000CA3E0F50D7402121760E02402F510A36D
:102D2800E03400F511851082F5831233051205335E
:102D3800750800750900EA24FCFEEB34FFFF8008E3
:102D4800050CE50C7002050DA808C3EE98EF940079
:102D58005003022EF9A818A919880E890F780E12A7
:102D68001997851482851583A3A3A3A312429D12E4
:102D78001997E5142405F50EE43515F50F780E12AC
:102D88001997851482851583122F3B12071974062B
:102D980012172A8A0E8B0FEA450F7003022EF9EAE2
:102DA8002404F516E4350FF517851682F583E0F54A
:102DB8000CA3E0F50D8518828519831242998A8241
:102DC8008B83A3A3A3E0F9851082851183123305B1
:102DD800120707E9F5096003022EF9740212176059
:102DE800123603F509780912199BE4F512F51378E0
:102DF800121219977512EE7513027812121997901C
:102E080002EF1219AE74071217601219AEEEF9AC80
:102E18000EAD0F8510828511831233051208877451
:102E28000912172AE9F5096003022EF9E508703F2F
:102E3800E4F50EF50F780E1219977CFF7DFF7909DE
:102E48008510828511831233051207F17402121757
:102E58002A123629700D7404121760122F30791156
:102E6800022F2D9002EEE024029002F2F0801490DE
:102E780002F2E0FA9002EEE0790024025001096AB9
:102E8800497072A8089002EEE0FAE82AFAE43400E1
:102E9800FBEE9AEF9B405A851682851783E0C0E0C7
:102EA8009002F3122CDFD0E0F00508851682851712
:102EB80083A3E0C0E0089002F3122CDFD0E0F00515
:102EC800089002EE12429D121997124296A8081213
:102ED80035D012120B740212172A9002EEE0250860
:102EE800F50874FF650C700474FF650D6003022D0E
:102EF80048E508601F9002F2E0F5F0E50884122F1B
:102F08004D120455E960099002F312330512128F2D
:102F180079008011E509700375090A7404121760B5
:102F2800122F30A9090235C612376BE50CF0A3E55C
:102F38000DF022A3A3124528AA0CAB0D22A3A3EAE5
:102F4800F0A3EBF0229002F1F07CF17D0285108273
:102F58008511831233092274EC12178474FC12173A
:102F680014123A6C740212177A1232FF12071F8A6F
:102F78000C8B0DEA450D7003023037123047A81844
:102F8800A9198810891178101219977CFF7DFF798B
:102F98000B8508828509831233051207F174021222
:102FA800172A12313D700C850A82850B8312363A36
:102FB8000230448E828F83A3A3A3A3E0F512781274
:102FC80012199BE4F512F51378121219977512F17C
:102FD800751302781212199778101219977409123A
:102FE80017601219AE7409121760E0F9AC0CAD0D38
:102FF8008508828509831233051208877409121718
:103008002AE9FE70157CF17D028508828509831204
:10301800330512045BE97009802074166E70027E15
:10302800009002F212330512128FEE7004800B7EAC
:1030380001850A82850B83123959EEF902396EEE41
:103048002402F508E43FF5092274EC12178474FC95
:10305800121714EAFEEBFF8C0E8D0FEE2405F5080F
:10306800E43FF509740212177A85088285098312EC
:10307800330512071F8A0C8B0DEA450D70030231C8
:103088002DEE2402F50AE43FF50BA818A9198810BB
:10309800891178101219977CFF7DFF790D1232FF84
:1030A8001207F1740212172A12313D700B8508823B
:1030B80085098312363A807A8E828F83A3A3A3A3CD
:1030C800E0F512781212199B850882850983A3A35B
:1030D8001219AE7512F17513027812121997781039
:1030E80012199774091217601219AE740912176031
:1030F800E0F91232FB120887740912172AE9FE70E8
:103108000F7CF17D021232FF120461E97009802000
:1031180074166E70027E009002F212330512128F3E
:10312800EE7004800B7E0185088285098312395967
:10313800EEF902396E123344F510A3E0F511EA45B1
:10314800112274E812178474FE1217148A168B174A
:103158008C148D15EA2405F50CE43517F50DEA24D1
:1031680002F50EE43517F50F850E82F58312330547
:103178001205338A088B09750B007C037D007900E2
:103188007AF17B02121223750A00E50814F510047F
:1031980024FFF508E50934FFF50980549002F1E0B1
:1031A800FA9002EEE0F8EA28F8E43400F9E5089825
:1031B800E50999500D9002F1E0F8E510C3989002E6
:1031C800EEF0E0F512751300781212199712429674
:1031D8009002F2E02AFAA3E03400FB12120B740208
:1031E80012172A9002EEE0F89002F1E028F0050AA2
:1031F800850C82850D83A3A3123C1040030232E0A4
:103208009002F1E0C39508E4950940030232E0AE6C
:103218000AEE2EFEE433FF12331FAC18AD1912422A
:10322800B1E439FB12071F8A128B13AC12AD13ECF1
:103238004D701B750B0112330F12395D9002F2129B
:10324800285C600312128FA90B74020235C8851618
:1032580082851783A3A3A3A3E0F50B780B12199B10
:10326800E4F512F51378121219977512EE75130218
:1032780078121219979002EF1219AE74071217609C
:103288001219AEA910850E82850F83123305120814
:1032980087740912172AE9F50B709B9002F2123312
:1032A8003460030231A4E4F512F513781212199769
:1032B8007CFF7DFF790F850E82850F8312330512FF
:1032C80007F1740212172A12333A60030231A4126A
:1032D800330F12363E0232517CF17D02850E828513
:1032E8000F83123305120467E96003023244790040
:1032F800023251AC0CAD0D850A82850B831233095D
:1033080022E0FAA3E0FB2212331FE0FAA3E0F9EA75
:1033180085148285158322850C82850D83E02EF81D
:10332800A3E03FF988828983229002EF124437E8AC
:103338004922123344F8A3E0F9E849229002F2EA5C
:10334800F0A3EBF09002F2E02274E812178474FA0A
:103358001217147404121760122F478C168D1774E5
:1033680004121760E02405F50EA3E03400F50F748D
:1033780004121760E024021235DC123305120533FB
:103388008A0A8B0B7F007E00A818A919880889096A
:103398007808121997850E82850F83A3A3A3A3E04B
:1033A800F5088E097808121997E50E2405F508E442
:1033B800350FF5097808121997850E82850F83A3B2
:1033C800A312360C120719740612172A8A0C8B0DD1
:1033D80080291235FDF00F1235FDF00F9002EE1224
:1033E8003948121997124296EFF81235D012120B7B
:1033F800740212172A9002EEE02FFFE50C450D70BB
:103408000302348C851882851983123A7EA3A3A3FC
:10341800E0F9851482851583123305120707E9FE42
:10342800E50C2404F510E4350DF511EE7050740424
:10343800121760123603F508780812199BE4F5088C
:10344800F50978081219977508EE750902780812B7
:1034580019979002EF1219AE74071217601219AE7D
:10346800E50A24FAF9AC0CAD0D8514828515831292
:103478003305120887740912172AE9FE60391236D3
:103488001912395CEF70030235B39002F2E0F5F0DF
:10349800EF849002F1F07CF17D028514828515831A
:1034A80012330512046DE960099002F31233051214
:1034B800128F79000235C68F08EF703BE4F512F5DC
:1034C8001378121219977CFF7DFF79118514828574
:1034D80015831233051207F1740212172A123629BE
:1034E800700912361912363D0235C69002EEE024F4
:1034F800049002F2F080359002EEE0F89002F2E0DB
:10350800FAE82404FCE43400FDEC6A4D600302345C
:1035180092E50A24FAFAE50B34FFFBE50828F8E4FB
:103528003400F9EA98EB99500302349285108285A9
:103538001183E0C0E09002F3E02FF8A3E0340088A4
:1035480082F583D0E0F00F851082851183A3E0C057
:10355800E01235EAD0E0F00F740212176A88088981
:1035680009780812199774021217601219AE850E9D
:1035780082850F83122F3B120725740412172A8A9B
:103588000C8B0DEA450D70030233DA7402121760D2
:10359800E0C0E01235EAD0E0F00F7402121760A321
:1035A800E0C0E01235EAD0E00233E2EE70027E0AB3
:1035B800850E82850F8312361F12395CEEF9740668
:1035C80012172A7F100218569002F3E028FAA3E097
:1035D8003400FB22F514A3E03400F515851482F5B8
:1035E80083221235EE229002F3E02FFAA3E0340092
:1035F8008A82F583221235EE74FF2212376BA3A359
:10360800A3A3E022124528850E82850F8312330971
:103618002285108285118312443785168285178387
:10362800229002F3EAF0A3EBF09002F3124437E899
:103638004922123962E8F0A3E9F079112274EA12FA
:10364800178474FE1217148A088B098C128D13EADA
:103658002405FEE43509FFAC18AD198E828F83125C
:10366800330512071F8A0C8B0DEE2406F50EE43F76
:10367800F50FEA450D700302373DE5082402F50A07
:10368800E43509F50B8A828B83A3A3A3E0A2E55056
:103698002885188285198312330512087B8A108BB6
:1036A80011EA4511602079121232FB8510828511CA
:1036B80083121782E9F50C707F850E82850F83E0EF
:1036C800600979528011750C0E806D850882850914
:1036D80083A3A3A3A3E0F9E4F508F5097808121970
:1036E800978E828F83A3A3E0F50878081219978E26
:1036F800828F83A3A3A31219AE8E828F831242995D
:103708001232FF12088D740612172AE9F50C70118F
:10371800850E82850F83E0702D1232FF12047380AC
:10372800257416650C7011750C0074181217601248
:103738003767E48010750C0112442F8512828513B7
:1037480083E8F0A3E9F0850E82850F83E0600479B1
:10375800008002A90C740212172A7F0E0218561252
:10376800376B22E0F8A3E0F58388822274EC121705
:103778008474F71217148A0A8B0B8C108D11EA24A3
:1037880005FEE4350BFF750C00AC18AD198E828F61
:103798008312330512071F8A088B09EA450970034B
:1037A800023933E50A2402F50A5002050B8A828B96
:1037B80083A3A3A3E0A2E5502F851882851983125D
:1037C800330512087B8A0C8B0DEA450D604F791280
:1037D800AC08AD091232FF850C82850D8312178261
:1037E800E9F50C6003023936850A82850B83E0F51A
:1037F80008A3E0F509AA08FB12086FEA4B70197ACA
:10380800FF7BFF12086FEA4B70030239298A828B0B
:1038180083E508F0A3E509F07508008008750C0E2B
:1038280002393605089002EBE0F8E508C398400332
:1038380002392985080E750F007403780E121701D6
:103848008A828B83A3A3E0250EF8A3E0350F123CF0
:10385800FD70D08E828F83123951122F478E828F3E
:1038680083A3A3123951122F45EE2404F508E43F2F
:10387800F509850882F583E088828983A3A3A3A339
:10388800F0A3E4F0EE2405F50EE43FF50F850E8273
:10389800F583123951A3A3A3A3122F4575120775F7
:1038A80013007812121997EEFCEFFD7404121772C8
:1038B80012120B740212172AE4F5127812121997D1
:1038C800850882850983E0FC7D0079171232FF1292
:1038D80007F1740212172A7407121760122F47741F
:1038E80007121760E0FA4B603D850882850983124C
:1038F8003948121997850E82850F83124299121240
:103908000B740212172A740212177A1232FF120469
:1039180079E96026740712176012330512128F8036
:1039280019750C098008750C118003750C01124477
:103938002F85108285118312395CA90C740980289F
:10394800E0F508750900780822123309888289830E
:1039580022123962E8F0A3E9F022E0F8A3E0F98541
:103968000E82850F8322740412172A7F0C021856C0
:1039780074EC121784123A6C751000EE2402F50CE0
:10398800E43FF50D850C82F58312330512086F8A22
:10399800088B09EA45097003023A50850A82850BAB
:1039A80083E064016003023A45AC08AD09AA0AAB9A
:1039B8000B120863E9606E850882850983122CD290
:1039C800EE2406F50AE43FF50B8E828F83A3A3123B
:1039D80019AE8E828F83A3A3A3A31219AE850A8280
:1039E800850B831219AE79188E828F83123A7E1254
:1039F800330512088D740612172AE9F874166870D0
:103A08000B850A82850B83E4F0A38014E860128E8C
:103A1800828F83123305850E82850F83EAF0A3EB2C
:103A2800F088108018780E121997AC08AD09EEFAD4
:103A3800EFFB120869740212172AE9F510AA08ABFD
:103A480009120875E510700E850C82850D831233F6
:103A58000512047F8009741665107003751000A99B
:103A680010023973EAFEEBFF8C0E8D0FEE2405F57C
:103A78000AE43FF50B22124528850C82850D832226
:103A880074EA1217847508007509007E007F0075B6
:103A98000A00EC2402F510E43DF5118035EC6508C8
:103AA8007003ED65096003023B3D88828983A3A307
:103AB800E06A7003A3E06B707C88828983A3A3A368
:103AC800A3124433EE28FEEF39FFEA28FAEB39FB5C
:103AD800050A123C0D503A850A0C750D00740378DE
:103AE8000C121701851082851183123C00123CFDCF
:103AF800601FE508450970A58C088D0988828983AF
:103B0800122CD088828983A3A3E02EFAA3E03F80F9
:103B1800BEE50AC394025003023BFB750800750911
:103B280000EE4F6010EEFAEFFB1212898A0E8B0F2F
:103B3800EA450F70057900023BFD750B00023BD08A
:103B4800850B0C750D007403780C12170185108213
:103B5800851183E0250CF50CA3E0350DF50DE50C7A
:103B68002406F514E4350DF515851482F583123D08
:103B7800026042E50C2404F512E4350DF5138512B4
:103B880082F5831219AEE50E2508FAE50F3509FB13
:103B980012120B740212172A851282851383E025EC
:103BA80008F508A3E03509F50985148285158312FF
:103BB800330512128FE50B600D7C087D007900AA91
:103BC8000CAB0D121223050BE50BC3950A5003022B
:103BD8003B4885108285118312443388828983A3E8
:103BE800A3A3A3A3A3E50EF0A3E50F122863EEF0A9
:103BF800A3EFF07901023762123C0422E0250CF8A9
:103C0800A3E0350D229002EBE0F8E50AC398227490
:103C1800F01217848A0E8B0F8C0A8D0B750D0075A8
:103C28000C0080507916EE2406F508E43FF5098E5D
:103C3800828F83A3A31219AE8E828F83A3A3A3A31B
:103C48001219AE8508828509831219AE850E828500
:103C58000F83A3A312330512088D740612172AE9DD
:103C6800F50D7416650D706C850882850983E4F07E
:103C7800A3F0050C9002EBE0F8E50CC3985066AA97
:103C88000C8A0875090074037808121701850A82DE
:103C9800850B83A3A3123D4CE8FEE9FF8E828F8338
:103CA800123D026040EA2401F508E43400F5099069
:103CB80002EBE065087002E509601488828983A335
:103CC800A3A3A3A3A3A3A31233346003023C2C79B8
:103CD80018023C2EE9609B12442F741012176012D0
:103CE8003CF412395CA90D7F08021856E0FAA3E0EB
:103CF800F5838A8222F988828983124528EC4D222D
:103D080074F61217847C0080010C900348E0F8ECEC
:103D1800C398501E8C0875090074027808121701A0
:103D2800123D41E06A7003A3E06B70DDE8FAE9FB3D
:103D380080047A007B00023DE49002E9123D4C8841
:103D480082898322E02508F8A3E03509F92274F274
:103D58001217848A088B09750A0080278E828F8340
:103D6800A3A3A3A312285A600312128F7C087D0014
:103D78007900EEFAEFFB1212238E828F83E4F0A310
:103D8800F0050A123C0D5027850A0C750D007403C6
:103D9800780C121701850882850983A3A3E0250CF6
:103DA800FEA3E0350DFF8E828F8312333470AD850C
:103DB800088285098374FFF0A3F002451C74F6128B
:103DC80017841208218A828B83E582458370067ADC
:103DD800007B008007A3A3A3A31233057F02021868
:103DE8005674F412178489088C828D83E0640270FB
:103DF8003C1243D2FEA3E0F9EEF874026870037433
:103E080029697029750A02750B00780A12199774C6
:103E1800101217601219AE74101217601219AEA999
:103E280008121181740612172AE9F9800279010231
:103E3800289774E812178474FB121714E9851882FE
:103E4800851983F08A168B17ECFEEDFF7510008E2E
:103E5800828F83A3A3A3E0A2E4502D741D121760E0
:103E680012330512087B8A828B83E58245837003AF
:103E7800024271790AEEFCEFFDAA16AB17121782FF
:103E8800E9F5106003024274741F121760E0F50828
:103E9800A3E0F5097421121760E0F50AA3E0F50B19
:103EA8007423121760E0F50EA3E0F50F8E828F835E
:103EB800E064026003024212A3124433850882853B
:103EC8000983A3858212858313EE2406F50CE43F4B
:103ED800F50D888289831242B1F514E439F5157815
:103EE80014121A21010000280128143F0700022893
:103EF800D93F0328473F00290841012933410229B6
:103F0800D440032908410429AC411242E50E450F6B
:103F1800600302420D850C82850D83124433E8FA52
:103F2800E9FB8A828B83E0850A82850B831242BC77
:103F38001219978A828B83A3E0FCA3E0024196E5DD
:103F48000E450F600302420D850A82850B837401BA
:103F5800F01242A6850882850983F07C007D008ED8
:103F6800828F83A3A3A3A3E02401FAA3E03400FB78
:103F780012071FEA4B60408A828B83E02402F8858F
:103F88000A82850B83E028F0EA2404F8E43BF988E8
:103F9800828983E08512828513831242CA1242BC49
:103FA8001219978A828B83A3124299E5082403FA8F
:103FB800E43509FB02419B850A82850B83E02404D2
:103FC800F07C047D007900AA12AB1312122302427E
:103FD80074E50E450F600302420D1242A6FEA3E0EF
:103FE800FF850A82850B837404F0EE8508828509B3
:103FF80083F0EF851282851383F0740312177AEE2B
:10400800FAEFFB12071F8A0C8B0DEA450D700302AD
:1040180040B78A828B83A3A3122CD0740112176A2B
:10402800880E890F780E12199774051217601219E5
:10403800AE7CFF7DFF120725740412172A8B0FEA46
:10404800450F7033850C82850D8312429D12199796
:10405800850C82850D83A31219AE7C027D007AD16E
:104068007B81120521740412172AE9700A7401125F
:10407800176074FFF0A3F08E828F83E064027039BA
:10408800750C02750D00780C1219978E828F83A318
:10409800124299E5082404FAE43509FB12120B745C
:1040A8000212172A850A82850B83E024028009748C
:1040B80001121760EEF0A3EFF074011217601242BC
:1040C8008B7401121760124282024207E50E450FF7
:1040D800600302420D850C82850D83124521AA16C4
:1040E800AB17121187850A82850B837402F0850845
:1040F80082850983EAF0851282851383EB02420ADE
:10410800E50E450F600302420D1242A6F8A3E0F93E
:10411800850A82850B837402F0E885088285098305
:10412800F0E985128285138302420A850C82850D87
:1041380083123305121205EAFAF8C3950EE4950FB7
:10414800405CE8650E450F70047A0080218518826E
:10415800851983E0FCE50E2CFCE4350FFDC3EC98D3
:10416800ED94005003E08005E50ECAC39AFAEA858B
:104178000A82850B83F08A0A750B00780A12199750
:10418800850C82850D83E0250EFCA3E0350FFDAA82
:1041980008AB0912120B740212172A024274751026
:1041A80007024274E50E450F705B850C82850D830E
:1041B800124433850A82850B837407F088828983C9
:1041C80012428312427BE0851282851383F0E82431
:1041D80002FAE439FB8A828B8312428B8A828B83B0
:1041E800124282A3A3122862124290F0E82405F832
:1041F80050010988828983124290A31242CAA3A35C
:10420800A3A3F0806775100B8062741D12176012EB
:1042180033051208218A828B83E5824583604A121E
:104228004433880C890DE8450D603E7425121760EB
:10423800E0F510781012199B780E121997780A1267
:10424800199778081219977407121760E0F9EEFCAD
:10425800EFFDAA16AB17850C82850D8312178274A1
:104268000712172AE9F510800375100EA9107405B6
:104278000235C8F088828983A322A3E08508828555
:104288000983221242D1F0221242D1A3A322900222
:10429800EF12452822E0F50E750F00780E22850CE6
:1042A80082850D8312376BE022E0FAA3E0F8E4C8B8
:1042B800F9EA2822F08A828B83E0F50A750B0078E8
:1042C8000A2212427B1242D122E0850882850983A4
:1042D800A3A32274EE12178474FE1217148A088B93
:1042E80009ECFEEDFF890AAC18AD19EEFAEFFB12E6
:1042F800071F8A0C8B0DEA450D70030243C385180E
:10430800828519831233051208218A828B83E582FC
:10431800458370030243BEA3A3124433880E890F5A
:10432800E8450F70030243BE7414121760E0F510DD
:10433800A3E0F511E50AF50B780B12199B74191215
:1043480017601219AE7810121997741B121760E0D3
:10435800F9AC0CAD0DAA08AB09850E82850F831246
:104368001782740512172AE9F50B705274FE650A54
:10437800604C850C82850D83E0640270411243D243
:10438800FAA3E0F9EAF87402687003742969702ED8
:104398008510828511831242B1F50CE439F50D7848
:1043A8000C121997EEFCEFFDAA08AB091208A574C8
:1043B8000212172A8008750B0E8003750B01A90BD2
:1043C800740212172A7F0A021856A31244378882E9
:1043D8008983E02274F612178474FE121714740C81
:1043E800121760124433E8851882851983F0740126
:1043F800121760E9F0E4F508F509780812199775BD
:1044080008027808121997740412176A880889092B
:10441800780812199779FE12088D740612172A74F3
:104428000212172A023DE48E828F8312443722E05B
:10443800F8A3E0F92274F7121784EAFEEBFF890863
:10444800900306124299121187EA5402600BA908D8
:10445800EEFAEFFB120713800279017F010218566A
:1044680074F212178474FE121714EAFEEBFF890A1D
:104478007401650A60147402650A600302451779BD
:1044880001120AAFE96003024517EEFAEFFB1208C2
:104498006FEA4B6003120875A818A91988088909DA
:1044A8007808121997750802750900780812199783
:1044B8007508E975098178081219977CFF7DFF7ADC
:1044C800017B00120719740612172A8038850882A2
:1044D800850983A3A3A3A3A3A3124521EEFAEFFBA7
:1044E80012116FE4F50CF50D780C1219977402127D
:1044F80017601219AE7CFF7DFFAA08AB09120725C9
:10450800740412172A8A088B09E508450970BE74D5
:104518000212172A7F0602185612376B12452822F4
:10452800E0FCA3E0FD2274F41217848A088B09ECDE
:10453800FEEDFF9015D2E0F4604B7A097B00121271
:104548002FEA4B60408A828B8374B1F0A3E4124552
:1045580090F08A828B83A3A3E508F0A3E5091245AE
:1045680090A3EEF0A3EFF0740C1217601244338A94
:10457800828B83A3A3A3A3A3A3A312395C9015D210
:10458800E0F912123B022897F08A828B83A3A3A337
:10459800A32274EE12178474FA1217148A0A8B0B6A
:1045A800E9FF8C088D097E00850A0C850B0D780CB7
:1045B8001219DB0004107648E245054624464746B2
:1045C8006A468D46BE46E146F8462847D747FA4729
:1045D8001D484B4876487648514774016F701985D5
:1045E8000882850983E0C39403500D8508828509F4
:1045F80083E09016BEF080027E1802489E74026F17
:104608007015850882850983E0F8A3E0F99016BF44
:10461800E8F0A3E9F080027E1802489E74016F70EA
:1046280019850882850983E0C39402500D850882A4
:10463800850983E0900749F080027E1802489E743D
:10464800016F7019850882850983E0C39405500DB0
:10465800850882850983E090074AF080027E180267
:10466800489E74016F7019850882850983E0C39498
:1046780002500D850882850983E090074BF080027F
:104688007E1802489E74106F7027750C10750D0007
:10469800780C121997AC08AD097A4C7B0712120BEB
:1046A800740212172A8A0C8B0D850C82850D838063
:1046B800027E1802489E74016F7019850882850968
:1046C80083E0C39402500D850882850983E0900732
:1046D8005CF080027E1802489E74016F700D850898
:1046E80082850983E09016C2F080027E1802489EF7
:1046F80074046F702690819D780C1215D8850882F5
:10470800850983780C12146A5011850882850983FB
:1047180012160290075E12160E80027E1802489E3C
:10472800EF70211206B9E97013121115E9F50D7928
:104738005012135BE9F50C121103800A9007F1740B
:1047480001F080027E1802489E74076F707C750E17
:1047580006750F00780E121997850882850983A3BC
:10476800AC82AD83740212177212121174021217FE
:104778002A8A108B1185100E85110F7C007D00AAE6
:1047880018AB19850882850983E0F91210A9E9F5A3
:104798000CE50CC3940A502E1206B9E97015A90C41
:1047A80012111BE9F50E795012135BE9F50D121180
:1047B800038019A80C790074F228F582740739F57A
:1047C800837401F080067E0280027E1802489E747F
:1047D800016F7019850882850983E0C39402500D22
:1047E800850882850983E090075DF080027E1802C3
:1047F800489E74016F7019850882850983E0C39407
:104808000A500D850882850983E09016C1F0800260
:104818007E1802489E74016F702585088285098379
:10482800E0C394074019850882850983E0C3941181
:10483800500D850882850983E09016C3F080577E65
:1048480018805374016F70229007F0E0F50C85080A
:1048580082850983E09007F0F0E50C70399007F045
:10486800E064017031121103802C7E188028C3E5A2
:104878000A9427E50B9400501B74026F7016850884
:1048880082850983E0FCA3E0FDAA0AAB0B12053977
:10489800E9FE80027E02EEF9740612172A7F0A02E8
:1048A800185674EC12178474DA121714890D8A12C8
:1048B8008B138C0A8D0B743A121760E0F50C9081FB
:1048C8003EAC18AD197406121627AC18AD19AA1209
:1048D800AB13A90D1210A9E9FEEEC3940A40030216
:1048E8004A1EEEF91210E5E9FF9016BEE064027068
:1048F80004740180027400F508780812199BAD0C45
:10490800EFFCEEF9AA0AAB0B121157740112172A21
:104918007C147D00790074121217721212238A0E09
:104928008B0F850E08850F09741212177A7A107585
:10493800F006EEA42424F9121355E9703C7C107992
:10494800FF7412121772121283E9702D7422121753
:1049580060AC82AD837A0475F006EEA42425F912C2
:104968001355E9F508741212177AEFA2E0E433F947
:10497800AA0AAB0B1205C3E9F8740612177A7A0C67
:1049880074702EF9121355E97079740612177212A1
:1049980010D9750E00E50EC394045067A80E79006F
:1049A800E875F003A4C8AAF075F000A42AFA75F017
:1049B80003E9A42AF97406121760E58228F508E5C8
:1049C8008339F509850882850983E0F8A3E0F9E8C9
:1049D80049602C850882850983A3A3E0F510751129
:1049E800007810121997850882850983E0FCA3E0F6
:1049F800FDAA0AAB0B120893740212172AE9F805EC
:104A08000E8092EFA2E1500E900748E0F9AA0AAB97
:104A18000B120899E9F87404650C700F9016BEE043
:104A280064027007AA0AAB0B12115179007426129E
:104A3800172A7F0C02185674F7121784EAFEEBFF48
:104A48001206B9E970679007F1E06401701B121152
:104A580015E9F5089007F17400F07C0A7D007900EB
:104A68007AF27B071212238039750800E508C3948F
:104A78000A502FA808790074F228F582740739F5CE
:104A880083E064017018A90812111BE9FAA80879D3
:104A98000074F228F582740739F5837400F005086C
:104AA80080CA795012135BE9F5081211037F0102DD
:104AB800185674F2121784890BEAFEEBFF8C088DE6
:104AC80009750A0AE50B600C146009146044146047
:104AD80064024B5FEEFAEFFB1210F7E9F50AE50AFC
:104AE800C3940A5072E5084509606C750C06750D8B
:104AF80000780C121997EEFCEFFDAA08AB09121208
:104B08000B740212172A8A0C8B0D850C82850D8373
:104B18008045EEFAEFFB1210F1E9F50AE50AC394B5
:104B28000A5034E5084509602EAA08AB09A90A12FB
:104B380010EBE98022EEFAEFFB1210FDE9F50AE529
:104B48000AC3940A5011E5084509600BAA08AB0985
:104B5800A90A1210EBE9F8A90A7F0602185674F29E
:104B68001217848A0C8B0DE9FF7E1574FF650C7093
:104B78000474FF650D702A750800E508C3940A508F
:104B880014EFFC7A027B00A9081210C7E960027EC4
:104B980000050880E5EF60627A3F7B11120AD38036
:104BA80059AA0CAB0D120AA38A0A8B0B850A088531
:104BB8000B09E508450960407C007D00E5082405EF
:104BC800FAE43509FB850882850983A3A3A3A3E03A
:104BD800F91210A9E9F50AE50AC3940A500EEFFC88
:104BE8007A027B00A90A1210C7E97E00EF600BAABF
:104BF80008AB0912113F80027E14EEF97F060218F5
:104C08005674EE1217848A0E8B0F8C0A8D0B741251
:104C1800121760E0F50CA3E0F50D75081574FF6533
:104C28000E700474FF650F701E7E00EEC3940A5068
:104C380061AC0CAD0DAA0AAB0BEEF91210CDE96010
:104C4800037508000E80E4AA0EAB0F120AA38A109F
:104C58008B11AE10AF11EE4F60357C007D00EE2455
:104C680005FAE43FFB8E828F83A3A3A3A3E0F91286
:104C780010A9E9F509E509C3940A5016AC0CAD0D65
:104C8800AA0AAB0BA9091210CDE9750800800375B3
:104C98000814A9087F0A02185674F7121784EAFE46
:104CA800EBFF900762EEF0A3EFF0900748E0FC7D81
:104CB800007A267B00120539E9F508900748E0F9E3
:104CC8001207FD7F0102185674F012178474EC1253
:104CD80017148A0C8B0D850C82850D83A3A3E02401
:104CE800FA700302514924FD7003024FBE14700389
:104CF800024DC014601024FD7003024F6614700347
:104D0800024FFD02515CAE0CAF0D900762E0F8A3B4
:104D1800E0F9E8496066900762E0F8A3E0F5838867
:104D280082E0F8A3E0F9E8496052EE240CF582E449
:104D38003FF583E0F508780812199BEE240BF582FD
:104D4800E43FF583E0F98E828F83A3A3A3A3A3A3F3
:104D5800A3A3A3E0FCA3E0FDEE2403FAE43FFB9049
:104D68000762E0F8A3E0F5838882E0F8A3E0F58322
:104D78008882121782740112172A80398E828F83D3
:104D8800A3A3A3A3A3A3A3A3A31219AE90075E1280
:104D980015F61205D5740212172AE9601879018EE2
:104DA800828F83A3A3A3A3A3A3A3A3A3E0FAA3E04F
:104DB800FB1205CFE902515CAE0CAF0D7508008EF1
:104DC800828F83A3E06003024EE88E828F83A3A3C1
:104DD800A3A3A3E0A2E04003024EE89007FCE0F89A
:104DE800A3E0F9E8496003024EE87C0E7D007900F3
:104DF800AA18AB191212238A0A8B0BAA0AAB0BEE5C
:104E0800240CF582E43FF583E0F8A3E0F9E8496073
:104E180036750A06750B00780A121997EE240CF5F8
:104E280082E43FF583E02410FCA3E03400FD740223
:104E380012177212120B740212172A8A0A8B0B8528
:104E48000A82850B83804F8E828F83A3A3A3E0FA07
:104E5800A3E0FB120AA38A0E8B0F850E0A850F0B9F
:104E6800E50A450B602D750E06750F00780E1219B0
:104E780097E50A2405FCE4350BFD7402121772123B
:104E8800120B740212172A8A0E8B0F850E82850F59
:104E980083800302515C8E828F83A3A3A3A3A3E024
:104EA800A2E25004D2F08002C2F0A2F0E433F87912
:104EB80000740C121760E048F0A3E049F0EEFCEF34
:104EC800FDAA18AB191210DFE970127A027B009064
:104ED8000748E0F912125FE9790002515E7508157A
:104EE800900762E0F8A3E0F9E849606F900762E094
:104EF800F8A3E0F5838882A3A3E0F8A3E0F9E849E2
:104F080060598E828F83A3E0FC79018E828F83A300
:104F1800A3A3E0FAA3E0FB900762E0F8A3E0F5831F
:104F28008882A3A3E0F8A3E0F5838882121782E5BC
:104F3800086028AC0879038E828F83A3A3A3E0FAC4
:104F4800A3E0FB900762E0F8A3E0F5838882A3A3BF
:104F5800E0F8A3E0F583888212178202515CAE0C58
:104F6800AF0D900762E0F8A3E0F9E84960459007C3
:104F780062E0F8A3E0F5838882A3A3E0F8A3E0F950
:104F8800E849602F850C82850D83A3E0FC79028EA9
:104F9800828F83A3A3A3E0FAA3E0FB900762E0F863
:104FA800A3E0F5838882A3A3E0F8A3E0F5838882D1
:104FB80012178202515CAE0CAF0D7C007D00EE240E
:104FC80004FAE43FFB8E828F83A3A3A3E0F91210B7
:104FD800A9E9F508E508C3940A5017EE240AFCE489
:104FE8003FFD7A0475F006E508A42425F912134F4D
:104FF800E9F802515CAE0CAF0D90075DE0601990C6
:1050080016C1E0F98E828F83A3A3A3E0FAA3E0FB85
:105018001205CFE9F802515C9016BEE070167905CA
:105028008E828F83A3A3A3E0FAA3E0FB1205CFE946
:10503800F802515C8E828F83A3A3A3E0FAA3E0FB5E
:10504800120AA38A0A8B0B850A08850B09E508450D
:1050580009700302515C8E828F83A3A3A3A3A3A329
:10506800A3E0A2E0506D850882850983A3A3A3A3CA
:10507800E060608E828F83A3A3A3A3A3A3A3A3A3AB
:10508800E0F50AA3E0F50B7409780A1216F2E50AAE
:105098005401F8E50B5400F9E8A2E04036740E120A
:1050A800177AE5082405FAE43509FB85088285099D
:1050B80083A3A3A3A3E0F91210A9E9701679038EBC
:1050C800828F83A3A3A3E0FAA3E0FB1205CFE9F83C
:1050D80002515CEE2405FCE43FFD850882850983C6
:1050E800A3A3A3A3E0F98E828F83A3A3A3E0FAA3CB
:1050F800E0FB12114B900762E0F8A3E0F9E8496081
:1051080053900762E0F8A3E0F5838882A3A3E0F850
:10511800A3E0F9E849603D7C0079008E828F83A383
:10512800A3A3E0FAA3E0FB900762E0F8A3E0F5830D
:105138008882A3A3E0F8A3E0F5838882121782800F
:1051480013AE0CAF0D8E828F83A3A3A3E0FAA3E066
:10515800FB1210A37901741412172A7F080218563B
:1051680074F512178474F21217148909EAFEEBFF1A
:105178008C0AAC18AD197A0E75F006E509A424203E
:10518800F9121355E9705F7C0679FFAA18AB19125A
:105198001283E97051740C121760E0F8A3E0F9E883
:1051A800F508E50A6005EE42088004EEF45208A806
:1051B800087900740C121760E0687003A3E0696056
:1051C80021A8087900740C121760E8F0A3E9F0AC84
:1051D80018AD197A0E75F006E509A42420F9121302
:1051E8004FE9790180027900740E12172A7F0302B1
:1051F800185674F012178474E6121714890B8A0C67
:105208008B0DECFEEDFF740C12177A7A0E75F00612
:10521800E50BA42420F9121355E9600302532A7CF4
:105228000679FF740C121772121283E96003025395
:105238002AAC18AD197A0C7470250BF9121355E9BC
:105248006003025326750A00AA18AB191210D9E593
:105258000C450D702E7C0C7900AA18AB191212831C
:10526800E9600302530C7C0C7D007900AA18AB1985
:105278001212238A088B09850882850983750A0119
:1052880002530CAC18AD19AA0CAB0D1210D38A0E30
:105298008B0F850E08850F09E50845097030EE4F1C
:1052A800601BAC18AD197A007B001210D38A0E8BE4
:1052B8000FA80EA90F88088909E8497004790080A9
:1052C80063850882850983E50CF0A3E50DF0850860
:1052D80082850983A3A3E0F87900EE687002EF697C
:1052E8006022EEC0E0850882850983A3A3D0E0F0A0
:1052F800EE4F700D8508828509837400F0A3740051
:10530800F0750A01E50A6016AA18AB191210D9AC93
:1053180018AD197A0C7470250BF912134FE979013D
:1053280080027900741A12172A7F0802185674F638
:105338001217848A088B097E00EEC394045050EE3D
:10534800F87900E875F003A4C8AAF075F000A42A5B
:10535800FA75F003E9A42AF9EC28F582ED39F5830A
:10536800E065087004A3E065097021EEF87900E8AB
:1053780075F003A4C8AAF075F000A42AFA75F00322
:10538800E9A42AF9EC28FAED39FB80070E80AA7AFD
:10539800007B007F0202185674F71217847C00EC19
:1053A800C39404400302544FECF87900E875F00305
:1053B800A4C8ADF075F000A42DFD75F003E9A42D87
:1053C800F9EA28F582EB39F583E0F4FEA3E0F4FF6F
:1053D800ECF87900E875F003A4C8ADF075F000A406
:1053E8002DFD75F003E9A42DF9EA28F582EB39F5CE
:1053F80083EEF0A3EFF0ECF87900E875F003A4C8A9
:10540800ADF075F000A42DFD75F003E9A42DF9EABF
:1054180028F582EB39F583A3A3E0F4C0E0ECF87932
:1054280000E875F003A4C8ADF075F000A42DFD7573
:10543800F003E9A42DF9EA28F582EB39F583A3A353
:10544800D0E0F00C0253A77F0102185674F012172F
:105458008474F4121714EAFEEBFF8C088D09900788
:10546800FCE0F8A3E0F9E849702CEE4F6006E50887
:10547800450970057901025700EEFAEFFB1210F7A3
:10548800E99016C4F09016C4E0C3940A40081211BB
:1054980009E99016C4F09016C4E0C3940A400302C8
:1054A80056FE9007FCE0F8A3E0F9E84960030255CE
:1054B8004AEEFCEFFD7A0E75F0069016C4E0A424BF
:1054C80020F912134FE9F50C7C0C7D0079FFAA181E
:1054D800AB191212238A0E8B0F850E0A850F0BAC9F
:1054E80018AD197A0C9016C4E02470F912134FE91C
:1054F800F50D750E0E750F00780E121997EEFCEF6C
:10550800FD9016C4E0F87900E875F00EA4C8AAF07A
:1055180075F000A42AFA75F00EE9A42AF974642833
:10552800FA740739FB12120B740212172A8A0E8BAF
:105538000FA80EA90F9007FCE508F0A3E509F002F3
:1055480056FA9007FCE0F8A3E0C82406F582C834B0
:1055580000F583E0F8A3E0F9E84960439007FCE030
:10556800F8A3E0C82406F582C83400F583E0FCA35C
:10557800E0FD7A1B75F0069016C4E0A42421F91208
:10558800134FE9F89007FCE0F9A3E0C92406F58277
:10559800C93400F5837400F0A37400F00256FA9041
:1055A80007FCE0F8A3E0C8240AF582C83400F583B4
:1055B800E0F8A3E0F9E84960439007FCE0F8A3E0CD
:1055C800C8240AF582C83400F583E0FCA3E0FD7A1C
:1055D8001B75F0069016C4E0A42422F912134FE9B3
:1055E800F89007FCE0F9A3E0C9240AF582C9340061
:1055F800F5837400F0A37400F00256FA9007FCE0FB
:10560800F8A3E0C8240CF582C83400F583E0F8A3B9
:10561800E0F9E84960439007FCE0F8A3E0C8240CEF
:10562800F582C83400F583E0FCA3E0FD7A1075F03C
:10563800069016C4E0A42423F912134FE9F8900742
:10564800FCE0F9A3E0C9240CF582C93400F58374A1
:1056580000F0A37400F00256FA9007FCE0F8A3E00B
:10566800C82408F582C83400F583E0F8A3E0F9E817
:1056780049606F9007FCE0F8A3E0C82408F582C8E9
:105688003400F583E0FCA3E0FD7A1075F00690166F
:10569800C4E0A42424F912134FE9F50A9007FCE0AA
:1056A800F8A3E0C82408F582C83400F583E0241084
:1056B800FCA3E03400FD7A0475F0069016C4E0A45B
:1056C8002425F912134FE9F89007FCE0F9A3E0C983
:1056D8002408F582C93400F5837400F0A37400F03F
:1056E80080109007F0E0600312115D1211457901F6
:1056F8008006790080027901740C12172A7F08024B
:10570800185674F712178474F2121714E9FEAC18BD
:10571800AD197A0E75F006EEA42420F9121355E996
:10572800700E740C121760E0F8A3E0F9E8F9800233
:105738007900740E12172A7F0102185674F4121792
:105748008474F21217148909EAFEEBFFE509C39481
:105758000A5004EE4F700479028041AC18AD197AF2
:105768000E75F006E509A42420F9121355E9F50889
:10577800E5087026750A06750B00780A12199774E1
:105788000212177AEEFAEFFB12120B740212172AA2
:105798008A0A8B0B850A82850B83A908740E121757
:1057A8002A7F0402185674F4121784EAFEEBFF7578
:1057B8000800E508C3940A5043750A06750B00787B
:1057C8000A121997EEFCEFFDA8087900E875F00EAB
:1057D800A4C8AAF075F000A42AFA75F00EE9A42A64
:1057E800F9746A28FA740739FB12121D7402121729
:1057F8002AE96004A9088006050880B6790A7F04AA
:1058080002185674F4121784EAFEEBFF750800E5D7
:1058180008C3940A5043750A06750B00780A1219D2
:1058280097EEFCEFFDA8087900E875F00EA4C8AA69
:10583800F075F000A42AFA75F00EE9A42AF9746448
:1058480028FA740739FB12121D740212172AE9602C
:1058580004A9088006050880B6790A7F040218564C
:1058680074F712178474F0121714EAFEEBFF750828
:1058780000E508C3940A5039AC18AD197A1075F0D0
:1058880006E508A42423F9121355E970207C107941
:10589800FFAA18AB19121283E97012EEFCEFFDAAE9
:1058A80018AB1912059FE97004A90880060508803D
:1058B800C0790A741012172A7F0102185674F4125C
:1058C8001784750800E508C3940A400302599FA885
:1058D800087900E875F00EA4C8AAF075F000A42AAB
:1058E800FA75F00EE9A42AF9746428FC740739FDE6
:1058F8007A0E75F006E508A42420F9121355E9700C
:105908000302599A7C067D0079FFAA087B00EA7594
:10591800F00EA4CAA8F075F000A428F875F00EEBF4
:10592800A428FB74642AFA74073BFB1212238A0A20
:105938008B0BAE0AAF0B7C067D0079FFAA087B00B3
:10594800EA75F00EA4CAA8F075F000A428F875F05E
:105958000EEBA428FB746A2AFA74073BFB12122385
:105968008A0A8B0BAC0AAD0BA8087900E875F00E13
:10597800A4C8AAF075F000A42AFA75F00EE9A42AC2
:10598800F9747028F582740739F5837400F0A374EC
:1059980000F005080258CD9007F0E0600312115D91
:1059A8001211457F0402185674F71217847E00EE10
:1059B800C3940A50327C0679FFEEFA7B00EA75F050
:1059C8000EA4CAA8F075F000A428F875F00EEBA490
:1059D80028FB74642AFA74073BFB121283E96004FB
:1059E800EEF980050E80C8790A7F0102185674F70F
:1059F8001217847E007F00EFC3940A50357C067925
:105A0800FFC9FDC9EFF87900E875F00EA4C8AAF03F
:105A180075F000A42AFA75F00EE9A42AF97464282E
:105A2800FA740739FBCDF9CD121283E970010E0F14
:105A380080C5EEF97F0102185674F71217847E00AC
:105A48007F00EFC3940A500DEE700AEFF912111B94
:105A5800E9FE0F80EDEEF97F0102185674F0121777
:105A68008474CB12171489099016C4E06509701D57
:105A78007A017B00900748E0F9121265E97A027B07
:105A880000900748E0F9121265E9121169742712AB
:105A9800177A7A0E75F006E509A42420F912135531
:105AA800E96003025B9C7C0679FF74271217721267
:105AB8001283E96003025B9C7C0E7D0079FF7427EA
:105AC8001217721212238A0A8B0B850A0C850B0D8A
:105AD8007C1B7D0079FF740C1217721212238A0E38
:105AE8008B0F850E0A850F0B7C0C7D0079FFAA1899
:105AF800AB191212238A0E8B0FAE0EAF0F7427123A
:105B0800177A7A0E75F006E509A42420F912134FC6
:105B1800E9F508740C12177A7A1B75F006E509A4E2
:105B28002421F912134FE94208740C12177A7A1BD0
:105B380075F006E509A42422F912134FE942087406
