:020000040000FA
:06000000020107022229A3
:03000B0002265278
:03002B0002262D7D
:0300530002229FE7
:1000830002207FE5C754F84401F5C7790122000037
:100093000080FB120086B900030200F1E4792178A5
:1000A30008B800028004F709D8FCE479297802B87B
:1000B30000028004F709D8FCE490028178F67913F2
:1000C3008002F0A3D8FCD9FA7A767B1590013778B1
:1000D3002379048015E493A3AD82AE838A828B8354
:1000E300F0A3AA82AB838D828E83D8E9D9E7758288
:1000F3009A7583FF740112011975829175830074D7
:100103000012011975D00075813F751881751902A8
:10011300759F00020096C09FF59FE473D09F22D085
:1001230083D082C09FE493C0E0740193C0E0740263
:1001330093F59F22FF0000B4000028002800283018
:1001430075A000A000A000A00000080008E001F0D6
:10015300001000100010001000100010005000509C
:1001630000500010001000D0070000000000000F36
:100173000001000500307507001000010081FF0039
:10018300000000FFFFFF7B0699068106BD06FF0204
:10019300020208025000A0000000E80302D381011C
:1001A3000000CE8102D781010000D11502DD81015B
:1001B3000000BF0202D781010000D21502DF8101D6
:1001C3000000D50202D781010000D31502E18101AD
:1001D3000000D70202D781010000D41502E3810891
:1001E3000000D80202D781010000D51502E5810184
:1001F3000000D615FF0100FF2002D381010000C2D9
:100203008102D7810100003A1602E7810000000055
:100213000002DB8103000006031700290D290D29C5
:100223000D290D290D290D290D290D290D290D291B
:100233000D290D290DCF0FE10FC90F020202020292
:1002430002020202010D000000100102D38101002D
:1002530000C58102D7810100007D160209820100D9
:1002630000400702D7810100007E160207820100C9
:1002730000178102D7810100007F16020582010069
:1002830000FB8002D781010000801602F781010084
:1002930000958002D781010000811602ED810100E3
:1002A30000838002D7810100008216020D820100C3
:1002B30000A78002D781010000831602E9810100B3
:1002C30000B98002D781010000841602F581010084
:1002D30000098102D7810100008516020382010013
:1002E30000861601E8030577100A0D0950504746AA
:1002F30075656C4761756765051250002003020A36
:10030300000201060302F0FF5050474675656C4733
:10031300617567650000000000000000002D1200F9
:1003230000391200003F1207010101090101011008
:10033300000101E803000010024173796E6320425B
:10034300756C6B0053796E632042756C6B0002D33E
:1003530081010000CB8102D781010000791702F1EE
:1003630081000000530802DB810300007B0802D9EF
:10037300810100007B1702D7810100007A1702F385
:1003830081010000670802D98101000086170A1065
:100393000A02436F6D6D616E6400526573706F6E18
:1003A3007365004D61696C626F78004465766963BB
:1003B3006520496E666F0002D381010000C8810287
:1003C300D781010000D01702FB810300007F0802E0
:1003D300D981010000D41702D781010000D117028F
:1003E300FD81000000810802DB810300009B0802FD
:1003F300D981010000DC1702D781010000D2170266
:10040300FF81030000830802D981010000E5170280
:10041300D781010000D3170201820100009708026F
:10042300D981010000ED17FFFFFF000130750302C2
:1004330001060000000000000000000000000000B2
:100443000000000000000000000000000000FFFFAB
:100453000600800CE80312012288AB031201229BE1
:10046300AB03120122CCAB0312012206AC0312012F
:10047300225FAC03120122A6AC03120122EEAC03ED
:100483001201221DAD031201224CAD03120122837E
:10049300AD03120122CAAD03120122E3AD0312011F
:1004A3002238AE0312012251AE031201229FAE0382
:1004B300120122D9AE03120122A0CB02120122A300
:1004C300CC02120122DCCC02120122FFCC02120167
:1004D3002211CD021201224FCD02120122CBCD02F5
:1004E30012012293CE02120122B5CE021201224C36
:1004F300CF021201229ECF02120122CFCF0212019C
:1005030022DCCF0212012246D0021201229DD00228
:10051300120122A0D002120122D9D002120122DC40
:10052300D002120122E6D0021201223AD1021201B4
:10053300227BD102120122AED102120122EBD1029F
:10054300120122EDD20212012291D302120122FAE8
:10055300D30212012238D402120122D79F031201BF
:1005630022FF9F031201222CA00312012264A00385
:10057300120122C2A0031201220EA103120122754D
:10058300A103120122B5A103120122F2A103120158
:100593002220A203120122CAA203120122D4A2031F
:1005A300120122E1A20312012214A3031201222049
:1005B300A30312012238A30312012242A30312014F
:1005C30022CDCB03120122DBCB03120122F3CB0397
:1005D3001201220ACC03120122CCBA0112012276A3
:1005E300BB0112012289BC0112012205BD011201C6
:1005F3002223BE011201225FBE01120122FABE01B3
:10060300120122DEBF01120122AAC0011201223807
:10061300C201120122A9C20112012263C301120104
:100623002255C40112012295C40112012249C501B8
:100633001201227BC50112012271C701120122B3EB
:10064300C701120122D1C70112012237C8011201C9
:100653002206C901120122CAC901120122E9CB01F2
:1006630012012219E40212012203E502120122AE51
:10067300E502120122FFE502120122AFE602120196
:100683002220E70212012205E80212012239E802C0
:1006930012012232E9021201226FE9021201224BF6
:1006A300EA021201228AEA02120122A6EA021201D6
:1006B300223CBF03120122C0BF03120122EBBF037E
:1006C30012012205C103120122D0A303120122E663
:1006D300A30312012204A40312012215A50312018C
:1006E300221FA5031201224AA60312012241A703D6
:1006F300120122AEA703120122A8F002120122DE88
:10070300F10212012215F2021201226CF20212010D
:100713002281F402120122169601120122A29601ED
:100723001201220698011201221298011201224D90
:100733009801120122BC9801120122C599011201EC
:1007430022CE9A01120122959B01120122F29C01F1
:10075300120122109D011201222D9D01120122DAA4
:100763009D01120122579E011201227F9E01120157
:100773002249A1011201224EA10112012267A30104
:10078300120122B5A30112012225A4011201226341
:10079300A4011201223FA501120122FFA5011201AA
:1007A300224BA6011201224EA60112012292A6019A
:1007B300120122DAA60112012219A7011201223B1A
:1007C300A7011201226FA701120122D2A701120170
:1007D300220080031201220E800312012261800392
:1007E300120122808003120122C580031201220913
:1007F3008203120122A48203120122E8820312015E
:1008030022128303120122818303120122C783036D
:100813001201223E8403120122EF8403120122B447
:100823002600120122C426001201226527001201AC
:1008330022C127001201227E28001201229A2900D8
:10084300120122CC2900120122FB2900120122A845
:100853002B001201221F2E001201228F30001201E1
:10086300228131001201227A3200120122813400E6
:10087300120122753700120122A43800120122A8A6
:100883003A00120122B83B00120122473D00120137
:1008930022383E00120122863E00120122F53E005C
:1008A300120122193F001201226A3F001201220B9A
:1008B30044001201220C45001201226D4500120171
:1008C300229845001201225E46001201229D9B03DD
:1008D300120122A79B03120122EC9B0312012200A7
:1008E3009C03120122909C03120122C99C03120152
:1008F30022049D031201222D9D03120122819D03D7
:10090300120122969D03120122B89D03120122CDEA
:100913009D03120122E19D03120122F69D031201A0
:1009230022309E031201225C9E03120122A59E0324
:10093300120122179F031201225A9F0312012284DC
:100943009F03120122AF9F03120122B9CA031201AE
:10095300221CA402120122FFA4021201227AA50280
:10096300120122B5A50212012206A7021201229446
:10097300A70212012226AA02120122D8AA021201F8
:1009830022E4AB0212012257AD02120122B0AD02E2
:100993001201220B93031201224E9303120122D25E
:1009A3009303120122A99603120122D0BA03120162
:1009B3002282BB031201227EBC03120122BDBC03AF
:1009C30012012217BD0312012227C3031201228A37
:1009D300C30312012227C4031201225CC4031201C0
:1009E300228CC403120122C7C403120122E7C403E9
:1009F300120122FF89031201228B8A031201224A68
:100A03008B03120122628C031201227C8E031201DA
:100A130022888D02120122AD8D021201227A8E02EA
:100A23001201224E8F02120122BB8F02120122FBFE
:100A33008F02120122979002120122CB910212011E
:100A430022A692021201220593021201229193021D
:100A5300120122FF93021201228B9402120122D16E
:100A63009402120122439502120122D5950212012A
:100A730022769602120122969602120122DE960235
:100A830012012227970212012243970212012269BF
:100A93009702120122E39702120122F19702120137
:100AA30022809802120122E9980212012251FB02CC
:100AB300120122D6FB0212012218FC02120122FCAF
:100AC300FC0212012269FD02120122ADFD02120194
:100AD30022F1FD021201221EFE0212012246FE0233
:100AE3001201227EFE02120122BCFE02120122E347
:100AF300FE021201225DFF02120122A7FF02120170
:100B030022F6CB0112012295CD01120122CDCF0194
:100B130012012221D0011201224CD00112012228FC
:100B2300D10112012258D10112012287D1011201F0
:100B3300229AD101120122DBD10112012208D20132
:100B430012012256D20112012292D201120122D79E
:100B5300D20112012224D3011201229ED3011201D8
:100B630022DFD501120122C9D70112012205D801C2
:100B730012012294D901120122D9D9011201224C66
:100B8300DA01120122A1DA01120122A6DA0112010D
:100B93002230DB011201224FDC0112012260DC0151
:100BA30012012201C2021201227AC202120122346C
:100BB300C8021201223FC902120122E8CA0212012D
:100BC3002276CB02120122786400120122F964001A
:100BD3001201222665001201226F650012012270A4
:100BE3006600120122C96600120122456800120143
:100BF30022C76800120122E2680012012253690031
:100C0300120122106A00120122D36A00120122612A
:100C13006B00120122186C001201222B6C001201CE
:100C230022C46C001201225B6D00120122826D004E
:100C3300120122EB6D00120122356E001201228394
:100C43006E00120122286F00120122C66F001201EA
:100C530022537000120122C470001201220B710092
:100C63001201226371001201229571001201224FB9
:100C730072001201225673001201229F73001201A7
:100C830022BC7300120122DB73001201220E7500D5
:100C9300120122C57500120122EA7500120122FF1A
:100CA30075001201226F7600120122B07600120144
:100CB30022D4770012012255780012012241B80292
:100CC3001201228CB80212012298B8021201226C7E
:100CD300B90212012283B902120122C0B902120120
:100CE30022F1B90212012229BA021201227FBA02A9
:100CF30012012295BA02120122D1BA02120122E490
:100D0300BA021201220BBB021201223FBB021201E3
:100D13002265BC02120122AFBD02120122ABBE0248
:100D2300120122C8BF02120122E7FF02120122832D
:100D3300DC01120122BEDC0112012210E0011201CA
:100D4300226CE1011201222BE20112012292E50140
:100D53001201227CE601120122C8E601120122E2FD
:100D6300E6011201221FE7011201222AE701120103
:100D73002269E70112012272E7011201221CE80134
:100D8300120122F3E80112012247E901120122A410
:100D9300E90112012216EA01120122AAA801120195
:100DA3002209AC011201220FAC0112012240B3014E
:100DB30012012247B70112012241AF031201221E81
:100DC300B00312012262B0031201229CB00312018C
:100DD3002234B103120122A3B103120122ACB103E5
:100DE300120122B8B103120122D2B103120122FC73
:100DF300B1031201222CB2031201225B97031201E9
:100E030022689703120122829703120122B59703E6
:100E1300120122F397031201225898031201226D43
:100E23009803120122789803120122859803120174
:100E3300229C9803120122AA9803120122B5980357
:100E4300120122C19803120122D09803120122DB5E
:100E53009803120122FE9803120122A299031201A0
:100E630022B29903120122CC9903120122E99903B8
:100E7300120122049A03120122299A031201223435
:100E83009A03120122499A031201225D9A03120165
:100E930022BE9A03120122C49A03120122CA9A03A0
:100EA300120122D09A03120122E89A031201221B93
:100EB3009B031201220580021201229C800212016F
:100EC300223481021201222482021201225B820255
:100ED3001201226E8202120122DC820212012277A7
:100EE30084021201229E8402120122408502120111
:100EF30022758502120122868502120122FF8502D4
:100F03001201222086021201223886021201229047
:100F13008702120122998902120122E98B0212012E
:100F230022EC8C021201223B8D0212012265EB019D
:100F330012012262EC011201224DED01120122572E
:100F4300ED0112012279ED0112012285ED01120159
:100F530022D7EE0112012206EF0112012236F0011F
:100F630012012278F001120122A4F1011201227A66
:100F7300F201120122CCF2011201222BF301120120
:100F83002262F3011201229DF30112012238F701BB
:100F930012012251F701120122D3F701120122E1BA
:100FA300F70112012236F80112012244F80112015D
:100FB30022B1F80112012223F90112012269F90178
:100FC3001201220C99021201222E990212012218F7
:100FD3009B02120122BD9E0212012200A0021201F5
:100FE30022DAA002120122F5C4031201221AC50358
:100FF3001201228BC5031201225ED4021201226761
:10100300D40212012270D402120122A1D5021201CC
:1010130022C0D702120122F6D70212012230D802CF
:1010230012012266D802120122A0D802120122D490
:10103300D80212012200D90212012249D902120157
:101043002283D902120122CBD90212012221DA0210
:1010530012012256DA02120122B1DA02120122EB44
:10106300DA021201223CDB0212012272DB021201BC
:1010730022ACDB02120122DADB02120122FDDB02C7
:101083001201229ACC03120122C6CC03120122219F
:10109300CD031201222BCD031201223BCD031201FA
:1010A300220185031201222885031201226385038D
:1010B300120122C6CF03120122CA4600120122DA0C
:1010C30049001201226F4B00120122EA4B00120168
:1010D30022964C00120122394D00120122D14D00FB
:1010E300120122004E001201229852001201222AFC
:1010F3005300120122665400120122D0540012013F
:10110300228455001201223A580012012274580019
:10111300120122DE58001201223B590012012298CB
:101123005900120122F55900120122E05A0012015E
:1011330022265B00120122715B00120122945B00E4
:10114300120122DB5C00120122EF5C001201225E1D
:101153005E001201229D5E00120122DD5E0012017B
:1011630022305F00120122515F001201228F5F00C3
:10117300120122B56100120122F6610012012291CF
:10118300620012012203630012012244640012016F
:101193002207EB02120122ADEB02120122F2EC0252
:1011A3001201227BED0212012268EE02120122A734
:1011B300EE0212012211EF021201227FEF0212014D
:1011C30022EFFF011201225FB5031201222AB803A5
:1011D30012012235D10312012293CE03120122A35D
:1011E300CE03120122B7CE0312012233CF03120121
:1011F300225AB20312012202B30312012244B5039D
:10120300120122A92600120122EC7F0012012248BA
:10121300F60212012258F60212012296F802120176
:101223002215FA0212012233FA0212012255FA029E
:1012330012012226FB0212012229FB021201224B78
:10124300FB02120122EDD00312012203D10312018A
:1012530022B38E03120122248F03120122418F0332
:10126300120122668F03120122958F03120122C4F9
:101273008F031201224391031201224192031201AF
:10128300228B7800120122FC7800120122737A006B
:10129300120122477C00120122847D0012012248A0
:1012A3007E00120122657E00120122B47E0012012B
:1012B30022F57E00120122367F001201225A7F009E
:1012C300120122897F0012012234C1031201228AF2
:1012D300C10312012207C20312012241C2031201F8
:1012E3002251C2031201228AC203120122ABC60396
:1012F30012012200C70312012291D0031201229787
:10130300C903120122C8C903120122F2C90312013F
:101313002250CA031201228BDC02120122A0DC023A
:10132300120122FCDC0212012267DD02120122AF4C
:10133300DD0212012221DE021201224ADE02120123
:101343002258DE02120122BADE02120122F8DE0264
:1013530012012213DF02120122AEDF021201225711
:10136300E002120122DAE00212012213E102120169
:10137300229EE102120122F5E10212012253E2024E
:1013830012012265E2021201228BE202120122946F
:10139300E202120122E5E30212012242BD0312011D
:1013A30022A9BD0312012266BE03120122E4BE0379
:1013B300120122B8A703120122EBA7031201221D77
:1013C300A90312012261A9031201223DAA031201FA
:1013D300225DC8031201223BC90312012238B8035C
:1013E3001201227DB803120122C3B8031201228C19
:1013F300BA0312012236CF0312012251CF03120185
:101403002261CF0312012245CD0312012259AE02FC
:1014130012012235AF021201227CAF02120122B95E
:10142300AF0212012227B00212012281B00212017F
:1014330022F1B002120122C1B102120122B0B202A2
:1014430012012227B302120122C3B4021201225055
:10145300B502120122C3B5021201223FB6021201E4
:101463002256B6021201227BB702120122D5B7021D
:10147300120122F2F90112012212FA0112012218B9
:10148300FB0112012264FB0112012284FB01120100
:1014930022D7FB0112012244FC011201228AFC0122
:1014A300120122EEFC011201221082011201223DDF
:1014B3008701120122408A01120122698A01120165
:1014C30022928A01120122448B011201222D8D01E5
:1014D300120122788E01120122918E01120122C87B
:1014E3009301120122019401120122459401120178
:1014F30022569501120122EECD03120122FECD03E5
:1015030012012253CE0312012271CE031201224B88
:10151300D003120122C1D00312012217D103E066C6
:10152300701008A3E066700A08A3E066700408A3BD
:10153300E06622C3E7960809E7960809E7960809D3
:10154300E79622C3E09608A3E09608A3E09608A3D3
:10155300E09622C008C3E096F50808A3E096420887
:1015630008A3E096420808A3E09645087001D3D08B
:101573000822080808EAC0E0EBC0E086F0E7A4FA16
:10158300180986F0E7A42AFA180986F0E7A42AFACC
:10159300180986F0E7A42AFA1986F0E7A4FBE5F018
:1015A3002AFA190886F0E7A42BFBE5F03AFA1908A2
:1015B30086F0E7A42BFBE5F03AFA18180986F0E762
:1015C300A4C5F02BFBE43AFA1908E7C5F0C6A42634
:1015D300F6E5F03BFBE43AFA1886F0E7A4F6E5F00B
:1015E3000826F6E43B08F6E43A08F6D0E0FBD0E040
:1015F300FA226016080808C6C313C618C613C6180D
:10160300C613C618C613C6D5E0EA2270090808082F
:10161300226016181818C6C333C608C633C608C6D0
:1016230033C608C633C6D5E0EA22E627F60809E63C
:1016330037F60809E637F60809E637F622E026F614
:1016430008A3E036F608A3E036F608A3E036F62250
:10165300E026F008A3E036F008A3E036F008A3E0A4
:1016630036F022C3E697F60809E697F60809E697E7
:10167300F60809E697F622C3E096F008A3E096F091
:1016830008A3E096F008A3E096F022E056F608A33C
:10169300E056F608A3E056F608A3E056F622E05615
:1016A300F008A3E056F008A3E056F008A3E056F0D4
:1016B30022E0F608A3E0F608A3E0F608A3E0F6228A
:1016C300E6F008A3E6F008A3E6F008A3E6F022E0BC
:1016D300FAA3E0FBA3E0FCA3E0FD22E0F8A3E0F91A
:1016E300A3E0FAA3E0FB22E8F0A3E9F0A3EAF0A366
:1016F300EBF022CAC0E0E6F0A308DAFAD0E0FA225F
:10170300CAC0E0E0A3C582CCC582C583CDC583F042
:10171300A3C582CCC582C583CDC583DAE6D0E0CA32
:1017230022C3E498F8E499F91217658026C3E49A72
:10173300FAE49BFBE920E7E9121765E498F8E499DA
:10174300F922C3E498F8E499F9121765E498F8E4E8
:1017530099F9C3E49AFAE49BFB22EB20E7CFE92053
:10176300E7E0B90010BB0008E88AF084F8AAF02289
:10177300E4FBC8FA22EB70227B10C833C8C933C913
:10178300335007C39AC3DBF280069A50012ADBEA7F
:10179300C833F4C8C933F4C9FA2275F008E4C8336E
:1017A300C8C933C933C99AC99B5004C92AC93BD58F
:1017B300F0ECFBC833F4C8E4C9FA22600D08C6A2F2
:1017C300E713C618C613C6D5E0F322600C08C6C3D8
:1017D30013C618C613C6D5E0F422700422600D1890
:1017E300C6C333C608C633C6D5E0F418222518107D
:1017F300AF08F518400C15198008F51840021519A3
:10180300D2AF2200C0D0251810AF08F518500C0530
:10181300198008F51850020519D2AFD0D022251827
:10182300F58210AF08F518400C15198008F518401B
:10183300021519D2AF851983222518F582E43519CB
:10184300F583222518F8E43519F9222518FAE43529
:1018530019FB222518FCE43519FD22E4732518C56C
:1018630082C0E0E51934FFC583C0E0E518C3958263
:1018730024F810AF08858319858218800885831999
:10188300858218D2AFCEF0A3E520F0A37808E6084E
:10189300F0A3DEFAEFF0A3E58124FAF8E608F0A35B
:1018A300E608F0A3E608F0A30808E608F0A3E608B4
:1018B300F0A315811581D0E0FED0E0F815811581E4
:1018C3001581E8C0E0EEC0E0222518C582C0E0E53E
:1018D3001934FFC583C0E0E518C3958224F910AF1E
:1018E300088583198582188008858319858218D213
:1018F300AFCEF0A3E520F0A37808E608F0A3DEFA64
:10190300EFF0A3E58124FBF8E608F0A3E608F0A3D3
:101913000808E608F0A3E608F0A315811581D0E0D6
:10192300FED0E0F815811581E8C0E0EEC0E0228525
:101933001983851882E0A3FEE0A3F5207808E0A3CD
:10194300F608DFFAE0A3FFE0A3C0E0E0A3C0E0E015
:10195300A3C0E0E0A3C0E0E0A3C0E010AF0885822D
:10196300188583198008858218858319D2AFD0839F
:10197300D08202011F851983851882E0A3FEE0A3AC
:10198300F5207808E0A3F608DFFAE0A3FFE0A3C0A0
:10199300E0E0A3C0E0E0A3C0E0E0A3C0E010AF0834
:1019A3008582188583198008858218858319D2AFAB
:1019B300D083D08222C0D02518C582C0E0E5193477
:1019C300FFC583C0E0E518C3958224F310AF0885F3
:1019D30083198582188008858319858218D2AFC838
:1019E300F0A3E9F0A3EAF0A3EBF0A37908E709F089
:1019F300A3D8FAECF0A3EDF0A3EEF0A3EFF0A3D09D
:101A0300E0F0A3D0E0F0A3D0E0F0A3E520F0A3E55D
:101A1300F0F0A322851983851882E0C0E0A3E0F9E2
:101A2300A3E0FAA3E0FBA37808E0F608A3DFFAE05B
:101A3300FCA3E0FDA3E0FEA3E0FFA3E0C0E0A3E07E
:101A4300C0E0A3E0F5D0A3E0F520A3E0A3F5F010F8
:101A5300AF088583198582188008858319858218C4
:101A6300D2AFD082D083D0E0F8D0E03274048006C5
:101A7300740280027401C0E0F404121821D0E01251
:101A830016F6227404800474028000CCC0E0EDC01A
:101A9300E0E518C39CCCAD1950011D10AF068C189E
:101AA3008D1980068C188D19D2AF121703D0E0FD63
:101AB300D0E0FC22D083D082E9C0E0E493A3C386C4
:101AC300F0C5F095F0F908E493A386F0C5F095F01E
:101AD300700BE493A3C3994005E9048002A3E47562
:101AE300F002A42582F582E5F03583F583D0E0F991
:101AF300E493A3C0E0E493C0E022D083D082ECC09F
:101B0300E0EDC0E0E493A3FCE493A3FDED4C600D92
:101B1300121B49EC24FFFCED34FFFD80EFE493A39B
:101B2300FCE493A3FDED4C600D121B88EC24FFFC39
:101B3300ED34FFFD80EFD0E0FDD0E0FCE493A3C0E3
:101B4300E0E493C0E022C0E0C3E4939608740193F9
:101B53009618400FE4936670080874019366187032
:101B6300007019A3A3C3E49396087401939618A372
:101B7300A3400DD0E0D0E0D0E0021B39A3A3A3A380
:101B8300A3A3D0E022C0E0C0F088F0E4936670081D
:101B93000874019366187000A8F0A3A3700BD0F02B
:101BA300D0E0D0E0D0E0021B39A3A3D0F0D0E022F4
:101BB40074F61218CCEAFEEBFF8C088D09EE24347F
:101BC400F8E43FF9E8FCE9FDEE2435121EC7FAEE0D
:101BD4002437121EC7F88508F0A4C885F00A8509C1
:101BE400F0A4250AF9EA28F8E439F97A257B0012E9
:101BF4001765EA8C828D83F0FA131313541FF8EEE1
:101C040028F8E43FF9E8245DF582E439F583E0C07F
:101C1400E074075AF8D0E0B800028004C313D8FC7B
:101C2400A2E0EE50082434F582E43F8018243612F2
:101C34001EC7F5F0EA84A8F0EE28F8E43FF9E8249A
:101C440038F582E439F583E0F97F0302197874F7F3
:101C54001218CCEAFEEBFFEE2434121EC7C0E0EEED
:101C64002435F582E43FF583D0E0F08E828F83A3A0
:101C7400A3A3A3A3A3A3C082C0838E828F83A3A3A1
:101C8400A3A3A3E0F8A3E0F9D083D082E0C398F53E
:101C940008A3E099F509EE247F121EC76401703E83
:101CA400EE2480F582E43FF583C082C0838E828F68
:101CB40083A3A3A3A3A3E0240108A3E03400F9D0E1
:101CC40083D082E0687003A3E06970127CB17D0464
:101CD400120C69EE247FF582E43FF583E4F0AC084E
:101CE400AD09EEFAEFFB121BB4E9F912261F7F02CD
:101CF400021978C082C083851882851983E0F8A30D
:101D0400E0F9C3EA9CEB9D5010C3EC98ED99401B9D
:101D1400C3EA98EB995014800EC3EA98EB994007F4
:101D2400C3EC98ED994004790180027900D083D006
:101D34008222EAC39CFAEB9DFB2274EF1218CC902A
:101D44000376E064086005E06407702A9061C8E0E7
:101D540060249003A4E0F4601DE0F875F00BA4C8BF
:101D6400AAF02AF974A628FE740339FF8E828F83A1
:101D7400A3A3A3E07003021E4C906060E0C0E0EEF9
:101D84002468F582E43FF583D0E0F0750C21750DED
:101D940005750800750900E5D914F50AE5D9540359
:101DA400F50E60127403650E6043E50A600AEE24C2
:101DB40067121EC77002807590051CE06401601FE5
:101DC400121EC460047A0480027A00E50AC39AFAF7
:101DD40095E0FB120B138A088B09EA45097005127A
:101DE4000E978064121EC470048A0C8B0DE50A6081
:101DF40012850C82850D83F50BE5D9F0A3150BE54F
:101E04000B70F6121EC4604474FC250AF50A780CA3
:101E1400121A73AC0AA90EEEFAEFFB120D23740228
:101E2400121806E97026AA08AB091213A1793D8E8F
:101E3400828F83A3A3A3A3E0FA7B00120975EEFAB1
:101E4400EFFB120C8D120D357900806F7403650E53
:101E54006051850A107511007810121A73AC0CAD1C
:101E64000DAA08AB09120CE77402121806EE2468D6
:101E7400121EC764807004747F8001E0F50C780C36
:101E8400121A77E50EF50C780C121A77A90AAC0829
:101E9400AD099003A4E0FA7B0012094B74021218F6
:101EA400068013900376E06408600BAC0CAD0DEE75
:101EB400FAEFFB120DAD120EA379017F0A02197815
:101EC400EE2483F582E43FF583E02274F21218CC09
:101ED40074FC1217F0EAFEEBFF8909A2AFE433F5B4
:101EE40008C2AF021F99E0601B780C121A73AC0B86
:101EF400A90EEEFAEFFB120D1D74021218067404FB
:101F0400250BF50B7401250BF5D9850ED9E50B606E
:101F140018F50A850C82850D83E0F5D9A385820C1A
:101F240085830D150AE50A70EA75E195EE2463F8D8
:101F3400E43FF97A007B00A2AFE433F50BC2AF882B
:101F4400828983E0FCA3E0FDEC4D603A88828983BA
:101F5400E0FAA3E0FB8A828B83E0FCA3E0FD8882A5
:101F64008983ECF0A3EDF08A828B83E4F0A3F088FC
:101F7400828983E0FCA3E0FDEC4D700A88828983AA
:101F8400A3A3E4F0A3F0E50BA2E092AF1213A19097
:101F940004B8E004F0EE2463121EC7F8A3E0F9E8E5
:101FA400496064EE2463121EC72402F8A3E03400DF
:101FB400F988828983E5822402F50CE43583F50DE2
:101FC400E0F50BA3E0F50EEE2462121EC764017067
:101FD400369061D0E0F8121EC460047C0480027C58
:101FE400007480C398FA95E0FBE50B2CF8E4340008
:101FF400F9E82402F8500109C3EA98EB99A2D265E2
:10200400D0334003021EEA9004B8E0604D9004B956
:10201400E0F89004B8E0C398500C74026509703A73
:102024009004BAE060348E828F83A3A3A3A3E085D7
:10203400188285198312206E740212183CE812204B
:102044006E9004B7E028F07402121856AA18AB195F
:10205400790112099F9004B8E4F0E508A2E092AF78
:1020640074041218067F07021978F0A3E4F09004B0
:10207400B8E0F8228521878522C622C0E074EB12DD
:1020840019B8A2AFE433F508C2AF759B0090618222
:10209400E0A2E05030E591A2E0502A7591FE74016F
:1020A40065217021122212120DEF122200121A86DB
:1020B4001223C97404121806E96401700579011227
:1020C4000E2B121D3E906182E0A2E5505DE591A2C7
:1020D400E550577591DF900376E064076005E0648E
:1020E40008702F12221274016521703E120DEF1236
:1020F4002200121A861223C97404121806E9640114
:1021040070057901120E2B7901EEFAEFFB121ECF46
:102114008018E0640D7013900398E004F064287054
:1021240002E4F07A00E0F9120EA9906182E0A2E6DE
:1021340040030221D5E591A2E640030221D5759121
:10214400BF900376E064057008120DD7120DE3808A
:1021540003120DDD752100120E37E9900377F07933
:1021640000120E2B120BD97A017B00900375E0F953
:10217400121371907803E064427056900520E014C5
:10218400F0704EC2AF12218C00782AD0E0F618D03D
:10219400E0F6E59F5407F87005750DFF8003750D93
:1021A4007FC4C0E07829E6F50A08E6550DF50B74FE
:1021B4000B780A1217CED0E0250AF8906270E0A2DC
:1021C400E740F8E8C333906272F0906270E0D2E0C6
:1021D400F0906181E0A2E35009E5E9A2E3500375C0
:1021E400E9F7A3E0A2E75009E591A2E7500375914E
:1021F4007FE508A2E092AF7F08021A178E828F83D0
:10220400E0F8A3E0C82416F582E438F583229003AD
:10221400A4E0F875F00BA4C8AAF02AF974A628FE65
:10222400740339FF22C0E0C0D0C082C083906183B0
:10223400E0A2E05009E5BFA2E0500375BFFEE0A2B2
:10224400E15009E5BFA2E1500375BFFDE0A2E250F1
:1022540009E5BFA2E2500375BFFBE0A2E35009E524
:10226400BFA2E3500375BFF7E0A2E45009E5BFA2A3
:10227400E4500375BFEFE0A2E55009E5BFA2E550C5
:102284000375BFDFE0A2E65009E5BFA2E65003757F
:10229400BFBFD083D082D0D0D0E032C0E074F2127D
:1022A40019B8E5A7A2E6500FE5A1A2E6500953A785
:1022B400BF75A1BF1222F3E5A7A2E5500CE5A1A2C8
:1022C400E5500653A7DF75A1DFE5A7A2E15009E5B4
:1022D400A1A2E1500375A1FDE5A7A2E2500CE5A17E
:1022E400A2E2500653A7FB75A1FB7F01021A1774E3
:1022F400F71218CC752101900376E064067015126C
:102304000D598A828B83A3A3A3A3A3A3E0FAA3E01A
:10231400FB120DC5A2AFE433FED2AF90037CE064A0
:102324000170187A207B00900375E0F91214977AF3
:10233400207B00900375E0F9121377906182E0D25C
:10234400E6F090051DE0602185C622801690037B8F
:10235400E064017008E5C654F84405F5C653BEFCB4
:102364001220787401652160E4EEA2E092AF7F024E
:10237400021978008E238F24858228858327851867
:1023840082851983E0CEA3E0CF852882852783EB5D
:10239400C9EAC8EDCBECCA75F010C3E833C8E93319
:1023A400C9EA33CAEB33CBC3EA9EF526EB9FF52586
:1023B400B35004AB25AA26EC33CCED33CDD5F0DAFB
:1023C400AE23AF242274F11218CC8A088B098C0A2C
:1023D4008D0B9081B2780812168E740F12183C7807
:1023E4000C1216B49081B2780C12168E7808790CFF
:1023F40012153690816650107808790C121666789A
:10240400081215564014800E780C79081216667856
:102414000C12155650047901800279007F080219C4
:102424007874ED1218CC8A088B098C0A8D0B908174
:10243400B2780812168E741312183C780C1216B463
:102444009081B2780C12168E780C790812153640E9
:10245400117808790C121666AA08AB09AC0AAD0B00
:102464008022751000751100751200751301781023
:10247400790C1216667810790812162DAA10AB1171
:10248400AC12AD137F0C0219789081B27808121641
:10249400B48A828B8378081216A17F040219787497
:1024A400F51218CC8C828D8378081216B48A828B2C
:1024B40083780812167A1224FBC3E09CF0A3E09DF3
:1024C4001224ED402290819678081216B48A828BE9
:1024D4008378081216538A828B83A3A3A3A3E024D0
:1024E40020F0A3E0344EF080A0F088828983C3E01A
:1024F4009420A3E0944E22EA2404F8E43BF98C826D
:102504008D83A3A3A3A3E0FCA3E0FD888289832297
:1025140074F51218CCE9FE9004D3E0FAA3E0FBEEC4
:1025240029F8E433F974DB28F582748039F583E003
:102534002AF508A3E03BF5097808121A7390819EE6
:102544001216D212237874021218068A088B098C88
:102554000A8D0B741078081215F5AA08AB097F04CC
:1025640002197874F11218CC8A0C8B0D8C0E8D0F15
:10257400741112183C121A8A741112183CE02401C6
:10258400F508A3E03400F509E4F50AF50B780C79B5
:102594000812157590817278081216B4780C7908AF
:1025A400121575AA0CAB0DAC0EAD0F122378740284
:1025B4001218068B09EA450960047A0180027A0040
:1025C400EC2AFCE43DFD741312183CE0F8A3E0F996
:1025D400E8FEE9FFECF8EDF97A717B0212176588E1
:1025E400088909E4F50AF50B8E828F8378081216A0
:1025F400C3ECF8EDF97A717B021217658A088B092E
:10260400740578081217DD8E828F83A3A3A3A3E534
:1026140008F0A3E509F07F08021978C082C083E9B5
:10262400906000F0D083D08222C0E0C0D0E8C0E047
:10263400E9C0E0A2AFE433F8D2AFC2C7E8F9E8A238
:10264400E092AFD0E0F9D0E0F8D0D0D0E032C0E0F2
:1026540074F21219B8A2AFE433FED2AFE5BAF87936
:102664000090084FE8F0A3E9F0A8BB7900E4C8F9AA
:1026740090084FE048F0A3E049F0E5B5540F900806
:102684004EF090084AE0FAA3E0FB900849E0F91202
:102694001371E9EEF8EEA2E092AF7F01021A17C2BD
:1026A400AF0200002202011FFFFFFFFFFFFFFFFF39
:1026B400C082C083E9901639F0D083D08202011F12
:1026C40074F6121860E99002E8F0900348E0F50807
:1026D400750900740278081217DDAA08AB091213F1
:1026E400E99002E91230779002E9123464606F9045
:1026F4000348E075F003A4FAABF01213E990030663
:10270400123077900306123464700B9002E912348D
:10271400351213EF80489003061243C97AFF7BFFFA
:102724001211917A0080198A0875090074027808D8
:102734001217DD123E7174FF122877E4F0A3F00A39
:10274400900348E0F8EAC39840DD79051208379011
:1027540002E8E0F91207237AC17B08120AB3023FA8
:102764001474F41218608A088B09EB548060479043
:1027740002E8E0F91213598A0A8B0BAE0AAF0BEE8A
:102784004F602A8E828F83E064B0701A120849E980
:1027940060148E828F83A3A3A3A3E0F9EE2405FA29
:1027A400E43FFB120819EEFAEFFB121347AA08E5FF
:1027B400096480FB80047A007B000229C774F2124A
:1027C400186074FB1217F0EAFEEBFFEE4F604574DD
:1027D4000312183CEEF0A3EFF0851882851983EC00
:1027E400F0A3EDF0740212183CE9F0AA18AB191228
:1027F400071DE9F5087075741312183CE0F50AA377
:10280400E0F50BE50A450B60638E828F83122E0080
:10281400EE4F700575080280537A067B001213E9A7
:102824008A0C8B0DA80CA90DE84970057508138056
:102834003B88828983E4122877EEF0A3EF12299370
:10284400E50AF0A3E50BF09002EC12298C9002EC5F
:102854006017E0FCA3E08003EAFCEBFD8C828D832F
:1028640012298C70F38C828D83123A8CA90874051A
:10287400024649F0A31243ABA32274F212186089F2
:1028840008890C750D007403780C1217DD850C0A89
:10289400850D0B9002EBF09002E912389712298A09
:1028A400602E1213EF7900801D890C750D007402DF
:1028B400780C1217DD9002E9123D308882F583A36B
:1028C400A3E4F0A3F009900348E0F8E9C39840D9E1
:1028D400900348E0FA850AF0A4CAA8F0850BF0A496
:1028E40028FB1213E98A0C8B0DAE0CAF0DEE4F7062
:1028F40003022980900348E0FC850AF0A4CCA8F0E8
:10290400850BF0A428FD79001213357C0080318DED
:102914000C750D007403780C1217DD8A828B8312F8
:10292400298588828983E4F0122992A3A3F0A3F075
:102934000DEDC3950840D8EE250AFEEF350BFF0CCC
:10294400900348E0F8ECC39850288C0C750D007483
:1029540002780C1217DD9002E9122985E82402504E
:102964000109FAE9FB8A828B83EEF0A3EFF07D0084
:1029740080BFE5089002EBF07900800279130246EB
:102984004C123D34F922A3A3123439EA4B22A31288
:1029940043ABA3A3A32274F41218607900EAA2E063
:1029A400501F75084A7509817808121A7379107CCA
:1029B400047D007A3B7B161208317402121806E972
:1029C400F980007F04021932C082C0839002EC12A5
:1029D4003464601C88828983A3A3E06A7003A3E043
:1029E4006B8882898370E8A3A3A3A312343580047F
:1029F4007A007B000226BD74F212186074FD12176F
:102A0400F0EAFEEBFF851882851983E4F0A3F074E5
:102A14000212183C7401F012346170141209ED12A0
:102A240013E99002EF1230771234617003022B8D98
:102A3400123177EE2404F50AE43FF50B850A82F59A
:102A440083E024FE603C24FC607424FE607E24FE4B
:102A54007003022ADD24FE7003022AEA24FE7003B6
:102A6400022AF724FE7003022B0424FE7003022BB7
:102A74001124FC7003022B3224FE7003022B4A0241
:102A84002B861209ED9002F1EAF0A3EB122B9912B6
:102A94000465E96003022B869002F1121A8A8E8281
:102AA4008F83A3A3A3A3A31243C9850882850983A3
:102AB4001234351208017402121806022B86AC185F
:102AC400AD19EEFAEFFB12084F022B55AC18AD19F5
:102AD400EEFAEFFB1208558078AC18AD19EEFAEF58
:102AE400FB12085B806BAC18AD19EEFAEFFB120811
:102AF40061805EAC18AD19EEFAEFFB1208678051E5
:102B0400AC18AD19EEFAEFFB12086D804474021292
:102B14001846880C890D780C121A73740212185610
:102B2400EEFAEFFB12087374021218068023AC1835
:102B3400AD19EEFAEFFB120879E9F8701674021277
:102B4400183CE4F0803CAC18AD19EEFAEFFB120827
:102B54007FE9F8E8602C8E828F83A3E064146022FE
:102B6400850A82850B83E09002F1F085188285192D
:102B7400831234359002F2123077E8A3122B9912A3
:102B8400045FEEFAEFFB1207D7740212183CE0F967
:102B94007403024649F07CF17D028508828509832D
:102BA4001234392274E812186074FA1217F074049B
:102BB40012183CECF0A3EDF08A128B13EA2405F50D
:102BC4000EE43513F50FEA2402F510E43513F5117C
:102BD400851082F5831234351205558A0A8B0B75DC
:102BE40008007C037D0079007AF17B02121335E53D
:102BF4000E2402F516E4350FF517740212184688F0
:102C04000C890D780C121A73850E82850F83A3A389
:102C1400A3A3E0F50C750D00780C121A73E50E24CD
:102C240005F50CE4350FF50D780C121A7385168230
:102C340085178312373C12073B74061218068A0C58
:102C44008B0DE50C450D7003022DC980208518827B
:102C5400851983E088828983F0050885188285199F
:102C640083A3E0C0E0122E0AD0E0F00508E50A24B0
:102C7400FBFAE50B34FFFBC3E5089AE49B4003022F
:102C84002DC97E007F00851282851383A3A3A3A38D
:102C9400E0F5097809121A77E4F514F51578141299
:102CA4001A737514EE7515027814121A739002EFE4
:102CB400121A8A740912183C121A8AE50A24F9F9BC
:102CC400AC0CAD0D8510828511831234351208A920
:102CD4007409121806E96003022D6A850E82850FB5
:102CE40083A3A3A3A3A3A3A3E0F89002EEE06870D8
:102CF40075E0F5148E157814121A731243C6850EF6
:102D040082850F83A3A3A3A3A3A3A3A31234351281
:102D1400132F7402121806E9604C9002F212346404
:102D2400703BE4F5147814121A737CFF7DFF790765
:102D34008510828511831234351208137402121817
:102D44000612346A7017850E82850F8312456374E8
:102D54000412183C123E2412376D022DFD850C829C
:102D6400850D83122E00A818A919881489157814C2
:102D7400121A73740412183C121A8A851682851763
:102D84008312306D12074774041218068A0C8B0DD7
:102D9400EE4F7003022C46122E0AEE122E15123735
:102DA40023EF122E15F8A3E03400F9E50C450D606D
:102DB40003022C518882898374FFF00508122E0ABD
:102DC40074FFF00508E508601A1313543F12307DB0
:102DD400120471E960099002F21234351213A179D8
:102DE400008016850E82850F8312456374041218C1
:102DF4003C123E24123A8C790A0236F6A3A3A3A30A
:102E0400E0FEA3E0FF22A8089002F2E02812372394
:102E140022F00508089002F2E0282274E8121860F3
:102E240074FA1217F0740212183C123077740412F8
:102E3400183CECF0A3EDF0740212183CE0240512E7
:102E4400370CE0F50CA3E0F50D740212183CE024F5
:102E540002F510A3E03400F511851082F5831234D5
:102E640035120555750800750900EA24FCFEEB349B
:102E7400FFFF8008050CE50C7002050DA808C3EEE1
:102E840098EF94005003023029A818A919880E89D4
:102E94000F780E121A73851482851583A3A3A3A336
:102EA4001243CD121A73E5142405F50EE43515F515
:102EB4000F780E121A7385148285158312306B12E3
:102EC400073B74061218068A0E8B0FEA450F70032F
:102ED400023029EA2404F516E4350FF51785168225
:102EE400F583E0F50CA3E0F50D85188285198312AE
:102EF40043C98A828B83A3A3A3E0F9851082851139
:102F040083123435120729E9F50960030230297464
:102F14000212183C123733F5097809121A77E4F5CE
:102F240012F5137812121A737512EE7513027812D1
:102F3400121A739002EF121A8A740712183C121AAA
:102F44008AEEF9AC0EAD0F851082851183123435EB
:102F54001208A97409121806E9F509600302302958
:102F6400E508703FE4F50EF50F780E121A737CFF36
:102F74007DFF790985108285118312343512081377
:102F84007402121806123759700D740412183C1288
:102F94003060791102305D9002EEE024029002F27A
:102FA400F080149002F2E0FA9002EEE0790024023C
:102FB4005001096A497072A8089002EEE0FAE82A02
:102FC400FAE43400FBEE9AEF9B405A85168285178B
:102FD40083E0C0E09002F3122E0FD0E0F0050885E4
:102FE4001682851783A3E0C0E0089002F3122E0F27
:102FF400D0E0F005089002EE1243CD121A7312438A
:10300400C6A80812370012131D7402121806900283
:10301400EEE02508F50874FF650C700474FF650D77
:103024006003022E78E508601F9002F2E0F5F0E5F7
:10303400088412307D120477E960099002F3123497
:10304400351213A179008011E509700375090A741A
:103054000412183C123060A9090236F612389BE5B6
:103064000CF0A3E50DF022A3A3124658AA0CAB0D55
:1030740022A3A3EAF0A3EBF0229002F1F07CF17D0D
:10308400028510828511831234392274EC1218607F
:1030940074FC1217F0123B9C740212185612342F4F
:1030A4001207418A0C8B0DEA450D70030231671239
:1030B4003177A818A919881089117810121A737C0D
:1030C400FF7DFF790B850882850983123435120848
:1030D40013740212180612326D700C850A82850B65
:1030E4008312376A0231748E828F83A3A3A3A3E071
:1030F400F5127812121A77E4F512F5137812121AEF
:10310400737512F17513027812121A737810121A69
:1031140073740912183C121A8A740912183CE0F9E3
:10312400AC0CAD0D8508828509831234351208A9CB
:103134007409121806E9FE70157CF17D0285088277
:1031440085098312343512047DE9700980207416D0
:103154006E70027E009002F21234351213A1EE70EA
:1031640004800B7E01850A82850B83123A89EEF96D
:10317400023A9EEE2402F508E43FF5092274EC12AB
:10318400186074FC1217F0EAFEEBFF8C0E8D0FEE44
:103194002405F508E43FF5097402121856850882DF
:1031A4008509831234351207418A0C8B0DEA450DCB
:1031B400700302325DEE2402F50AE43FF50BA81811
:1031C400A919881089117810121A737CFF7DFF7970
:1031D4000D12342F120813740212180612326D7075
:1031E4000B85088285098312376A807A8E828F83E1
:1031F400A3A3A3A3E0F5127812121A778508828597
:103204000983A3A3121A8A7512F175130278121294
:103214001A737810121A73740912183C121A8A74E9
:103224000912183CE0F912342B1208A97409121877
:1032340006E9FE700F7CF17D0212342F120483E93B
:103244007009802074166E70027E009002F21234AF
:10325400351213A1EE7004800B7E01850882850966
:1032640083123A89EEF9023A9E123474F510A3E0FF
:10327400F511EA45112274E812186074FE1217F071
:103284008A168B178C148D15EA2405F50CE4351772
:10329400F50DEA2402F50EE43517F50F850E82F5D7
:1032A400831234351205558A088B09750B007C038B
:1032B4007D0079007AF17B02121335750A00E50866
:1032C40014F5100424FFF508E50934FFF5098054CA
:1032D4009002F1E0FA9002EEE0F8EA28F8E4340013
:1032E400F9E50898E50999500D9002F1E0F8E51028
:1032F400C3989002EEF0E0F5127513007812121ADA
:10330400731243C69002F2E02AFAA3E03400FB12DF
:10331400131D74021218069002EEE0F89002F1E018
:1033240028F0050A850C82850D83A3A3123D404035
:10333400030234109002F1E0C39508E495094003B8
:10334400023410AE0AEE2EFEE433FF12344FAC18F2
:10335400AD191243E1E439FB1207418A128B13AC15
:1033640012AD13EC4D701B750B0112343F123A8DE4
:103374009002F212298C60031213A1A90B740202A9
:1033840036F8851682851783A3A3A3A3E0F50B78EB
:103394000B121A77E4F512F5137812121A737512D8
:1033A400EE7513027812121A739002EF121A8A74CD
:1033B4000712183C121A8AA910850E82850F8312EF
:1033C40034351208A97409121806E9F50B709B909C
:1033D40002F212346460030232D4E4F512F5137875
:1033E40012121A737CFF7DFF790F850E82850F837D
:1033F400123435120813740212180612346A600368
:103404000232D412343F12376E0233817CF17D02D2
:10341400850E82850F83123435120489E960030214
:1034240033747900023381AC0CAD0D850A82850BAF
:103434008312343922E0FAA3E0FB2212344FE0FA7B
:10344400A3E0F9EA85148285158322850C82850D13
:1034540083E02EF8A3E03FF988828983229002EF6B
:10346400124567E84922123474F8A3E0F9E84922C6
:103474009002F2EAF0A3EBF09002F2E02274E81278
:10348400186074FA1217F0740412183C1230778C16
:10349400168D17740412183CE02405F50EA3E034CD
:1034A40000F50F740412183CE0240212370C123495
:1034B400351205558A0A8B0B7F007E00A818A919BE
:1034C400880889097808121A73850E82850F83A3E8
:1034D400A3A3A3E0F5088E097808121A73E50E2455
:1034E40005F508E4350FF5097808121A73850E827C
:1034F400850F83A3A312373C12073B7406121806E8
:103504008A0C8B0D802912372DF00F12372DF00FF6
:103514009002EE123A78121A731243C6EFF8123779
:103524000012131D74021218069002EEE02FFFE53C
:103534000C450D70030235BC851882851983123B36
:10354400AEA3A3A3E0F98514828515831234351242
:103554000729E9FEE50C2404F510E4350DF511EE18
:103564007050740412183C123733F5087808121A94
:1035740077E4F508F5097808121A737508EE7509E9
:10358400027808121A739002EF121A8A740712183A
:103594003C121A8AE50A24FAF9AC0CAD0D851482A2
:1035A4008515831234351208A97409121806E9FE28
:1035B4006039123749123A8CEF70030236E39002F5
:1035C400F2E0F5F0EF849002F1F07CF17D028514D5
:1035D4008285158312343512048FE960099002F351
:1035E4001234351213A179000236F68F08EF703BBE
:1035F400E4F512F5137812121A737CFF7DFF79112A
:103604008514828515831234351208137402121836
:1036140006123759700912374912376D0236F6907F
:1036240002EEE024049002F2F080359002EEE0F81D
:103634009002F2E0FAE82404FCE43400FDEC6A4D64
:1036440060030235C2E50A24FAFAE50B34FFFBE510
:103654000828F8E43400F9EA98EB9950030235C2DB
:10366400851082851183E0C0E09002F3E02FF8A377
:10367400E034008882F583D0E0F00F851082851154
:1036840083A3E0C0E012371AD0E0F00F74021218DE
:1036940046880889097808121A73740212183C12B1
:1036A4001A8A850E82850F8312306B1207477404C1
:1036B4001218068A0C8B0DEA450D700302350A7444
:1036C4000212183CE0C0E012371AD0E0F00F740286
:1036D40012183CA3E0C0E012371AD0E0023512EE13
:1036E40070027E0A850E82850F8312374F123A8C40
:1036F400EEF974061218067F100219329002F3E0F4
:1037040028FAA3E03400FB22F514A3E03400F515F5
:10371400851482F5832212371E229002F3E02FFAD9
:10372400A3E034008A82F5832212371E74FF22122A
:10373400389BA3A3A3A3E022124658850E82850FCB
:1037440083123439228510828511831245678516C8
:1037540082851783229002F3EAF0A3EBF09002F340
:10376400124567E84922123A92E8F0A3E9F0791188
:103774002274EA12186074FE1217F08A088B098CFE
:10378400128D13EA2405FEE43509FFAC18AD198E39
:10379400828F831234351207418A0C8B0DEE240676
:1037A400F50EE43FF50FEA450D700302386DE508A8
:1037B4002402F50AE43509F50B8A828B83A3A3A3BB
:1037C400E0A2E55028851882851983123435120841
:1037D4009D8A108B11EA45116020791212342B85D1
:1037E400108285118312185EE9F50C707F850E82B4
:1037F400850F83E0600979528011750C0E806D8508
:103804000882850983A3A3A3A3E0F9E4F508F509D5
:103814007808121A738E828F83A3A3E0F5087808C0
:10382400121A738E828F83A3A3A3121A8A8E828F95
:10383400831243C912342F1208AF7406121806E912
:10384400F50C7011850E82850F83E0702D12342FD4
:1038540012049580257416650C7011750C0074188B
:1038640012183C123897E48010750C0112455F85DC
:103874001282851383E8F0A3E9F0850E82850F8315
:10388400E0600479008002A90C74021218067F0E0D
:1038940002193212389B22E0F8A3E0F583888222D1
:1038A40074EC12186074F71217F08A0A8B0B8C10E0
:1038B4008D11EA2405FEE4350BFF750C00AC18AD40
:1038C400198E828F831234351207418A088B09EAD4
:1038D40045097003023A63E50A2402F50A50020519
:1038E4000B8A828B83A3A3A3E0A2E5502F851882C1
:1038F40085198312343512089D8A0C8B0DEA450D07
:10390400604F7912AC08AD0912342F850C82850DF5
:103914008312185EE9F50C6003023A66850A828513
:103924000B83E0F508A3E0F509AA08FB120891EA65
:103934004B70197AFF7BFF120891EA4B7003023A2D
:10394400598A828B83E508F0A3E509F075080080A5
:1039540008750C0E023A6605089002EBE0F8E508DB
:10396400C3984003023A5985080E750F0074037812
:103974000E1217DD8A828B83A3A3E0250EF8A3E041
:10398400350F123E2D70D08E828F83123A81123001
:10399400778E828F83A3A3123A81123075EE2404AA
:1039A400F508E43FF509850882F583E08882898378
:1039B400A3A3A3A3F0A3E4F0EE2405F50EE43FF5DE
:1039C4000F850E82F583123A81A3A3A3A312307547
:1039D4007512077513007812121A73EEFCEFFD745A
:1039E4000412184E12131D7402121806E4F512780C
:1039F40012121A73850882850983E0FC7D00791709
:103A040012342F1208137402121806740712183C89
:103A1400123077740712183CE0FA4B603D85088237
:103A2400850983123A78121A73850E82850F8312E0
:103A340043C912131D740212180674021218561286
:103A4400342F12049BE96026740712183C12343593
:103A54001213A18019750C098008750C1180037567
:103A64000C0112455F851082851183123A8CA90CD2
:103A740074098028E0F508750900780822123439A1
:103A84008882898322123A92E8F0A3E9F022E0F8CE
:103A9400A3E0F9850E82850F832274041218067F31
:103AA4000C02193274EC121860123B9C751000EE73
:103AB4002402F50CE43FF50D850C82F583123435B0
:103AC4001208918A088B09EA45097003023B808534
:103AD4000A82850B83E064016003023B75AC08AD88
:103AE40009AA0AAB0B120885E9606E85088285096C
:103AF40083122E02EE2406F50AE43FF50B8E828F24
:103B040083A3A3121A8A8E828F83A3A3A3A3121A58
:103B14008A850A82850B83121A8A79188E828F838A
:103B2400123BAE1234351208AF7406121806E9F8C7
:103B3400741668700B850A82850B83E4F0A38014E5
:103B4400E860128E828F83123435850E82850F834E
:103B5400EAF0A3EBF088108018780E121A73AC0800
:103B6400AD09EEFAEFFB12088B7402121806E9F5A0
:103B740010AA08AB09120897E510700E850C82850F
:103B84000D831234351204A1800974166510700374
:103B9400751000A910023AA3EAFEEBFF8C0E8D0FFC
:103BA400EE2405F50AE43FF50B22124658850C82F3
:103BB400850D832274EA1218607508007509007E69
:103BC400007F00750A00EC2402F510E43DF5118035
:103BD40035EC65087003ED65096003023C6D88826D
:103BE4008983A3A3E06A7003A3E06B707C88828955
:103BF40083A3A3A3A3124563EE28FEEF39FFEA28AB
:103C0400FAEB39FB050A123D3D503A850A0C750D55
:103C1400007403780C1217DD851082851183123D20
:103C240030123E2D601FE508450970A58C088D09EA
:103C340088828983122E0088828983A3A3E02EFAC6
:103C4400A3E03F80BEE50AC394025003023D2B75F6
:103C54000800750900EE4F6010EEFAEFFB12139B9B
:103C64008A0E8B0FEA450F70057900023D2D750B06
:103C740000023D00850B0C750D007403780C1217BF
:103C8400DD851082851183E0250CF50CA3E0350D4C
:103C9400F50DE50C2406F514E4350DF515851482AF
:103CA400F583123E326042E50C2404F512E4350D2E
:103CB400F513851282F583121A8AE50E2508FAE5B2
:103CC4000F3509FB12131D74021218068512828522
:103CD4001383E02508F508A3E03509F50985148266
:103CE4008515831234351213A1E50B600D7C087D14
:103CF400007900AA0CAB0D121335050BE50BC39527
:103D04000A5003023C78851082851183124563882A
:103D1400828983A3A3A3A3A3A3E50EF0A3E50F12B3
:103D24002993EEF0A3EFF07901023892123D342288
:103D3400E0250CF8A3E0350D229002EBE0F8E50A4B
:103D4400C3982274F01218608A0E8B0F8C0A8D0BA4
:103D5400750D00750C0080507916EE2406F508E404
:103D64003FF5098E828F83A3A3121A8A8E828F83D2
:103D7400A3A3A3A3121A8A850882850983121A8A27
:103D8400850E82850F83A3A31234351208AF7406FF
:103D9400121806E9F50D7416650D706C8508828598
:103DA4000983E4F0A3F0050C9002EBE0F8E50CC302
:103DB400985066AA0C8A08750900740378081217CB
:103DC400DD850A82850B83A3A3123E7CE8FEE9FF0E
:103DD4008E828F83123E326040EA2401F508E43477
:103DE40000F5099002EBE065087002E509601488AB
:103DF400828983A3A3A3A3A3A3A3A312346460030C
:103E0400023D5C7918023D5EE9609B12455F7410C7
:103E140012183C123E24123A8CA90D7F0802193262
:103E2400E0FAA3E0F5838A8222F988828983124624
:103E340058EC4D2274F61218607C0080010C90033B
:103E440048E0F8ECC398501E8C0875090074027899
:103E5400081217DD123E71E06A7003A3E06B70DD97
:103E6400E8FAE9FB80047A007B00023F149002E93F
:103E7400123E7C8882898322E02508F8A3E0350974
:103E8400F92274F21218608A088B09750A008027D7
:103E94008E828F83A3A3A3A312298A60031213A182
:103EA4007C087D007900EEFAEFFB1213358E828FC9
:103EB40083E4F0A3F0050A123D3D5027850A0C75F2
:103EC4000D007403780C1217DD850882850983A31D
:103ED400A3E0250CFEA3E0350DFF8E828F83123400
:103EE4006470AD85088285098374FFF0A3F00246EF
:103EF4004C74F61218601208438A828B83E582455B
:103F04008370067A007B008007A3A3A3A312343531
:103F14007F0202193274F412186089088C828D832E
:103F2400E06402703C124502FEA3E0F9EEF874026C
:103F34006870037429697029750A02750B00780A80
:103F4400121A73741012183C121A8A741012183C44
:103F5400121A8AA9081211A37406121806E9F98024
:103F64000279010229C774E812186074FB1217F071
:103F7400E9851882851983F08A168B17ECFEEDFF0C
:103F84007510008E828F83A3A3A3E0A2E4502D7446
:103F94001D12183C12343512089D8A828B83E582E7
:103FA400458370030243A1790AEEFCEFFDAA16AB28
:103FB4001712185EE9F51060030243A4741F121867
:103FC4003CE0F508A3E0F509742112183CE0F50A79
:103FD400A3E0F50B742312183CE0F50EA3E0F50FF3
:103FE4008E828F83E064026003024342A31245631E
:103FF400850882850983A3858212858313EE2406AE
:10400400F50CE43FF50D888289831243E1F514E44D
:1040140039F5157814121AFD0100002801284440CE
:104024000700022809410328774000293842012962
:10403400634202290442032938420429DC424243F0
:10404400E50E450F600302433D850C82850D831206
:104054004563E8FAE9FB8A828B83E0850A82850B53
:10406400831243EC121A738A828B83A3E0FCA3E0CD
:104074000242C6E50E450F600302433D850A828570
:104084000B837401F01243D6850882850983F07C82
:10409400007D008E828F83A3A3A3A3E02401FAA34F
:1040A400E03400FB120741EA4B60408A828B83E0D4
:1040B4002402F8850A82850B83E028F0EA2404F8B8
:1040C400E43BF988828983E0851282851383124355
:1040D400FA1243EC121A738A828B83A31243C9E542
:1040E400082403FAE43509FB0242CB850A82850BD6
:1040F40083E02404F07C047D007900AA12AB13123F
:1041040013350243A4E50E450F600302433D1243F9
:10411400D6FEA3E0FF850A82850B837404F0EE8546
:104124000882850983F0EF851282851383F0740376
:10413400121856EEFAEFFB1207418A0C8B0DEA4572
:104144000D70030241E78A828B83A3A3122E0074AD
:1041540001121846880E890F780E121A737405120C
:10416400183C121A8A7CFF7DFF1207477404121848
:10417400068B0FEA450F7033850C82850D8312433D
:10418400CD121A73850C82850D83A3121A8A7C02C0
:104194007D007AD57B811205437404121806E970F8
:1041A4000A740112183C74FFF0A3F08E828F83E02E
:1041B40064027039750C02750D00780C121A738E36
:1041C400828F83A31243C9E5082404FAE43509FB6A
:1041D40012131D7402121806850A82850B83E024CB
:1041E400028009740112183CEEF0A3EFF07401127E
:1041F400183C1243BB740112183C1243B2024337F9
:10420400E50E450F600302433D850C82850D831244
:104214004651AA16AB171211A9850A82850B83741D
:1042240002F0850882850983EAF08512828513836A
:10423400EB02433AE50E450F600302433D1243D6B9
:10424400F8A3E0F9850A82850B837402F0E88508F7
:1042540082850983F0E985128285138302433A85B6
:104264000C82850D83123435121317EAFAF8C395BC
:104274000EE4950F405CE8650E450F70047A0080EB
:1042840021851882851983E0FCE50E2CFCE4350FAA
:10429400FDC3EC98ED94005003E08005E50ECAC31D
:1042A4009AFAEA850A82850B83F08A0A750B0078EC
:1042B4000A121A73850C82850D83E0250EFCA3E097
:1042C400350FFDAA08AB0912131D74021218060259
:1042D40043A47510070243A4E50E450F705B850CDB
:1042E40082850D83124563850A82850B837407F0EA
:1042F400888289831243B31243ABE085128285130B
:1043040083F0E82402FAE439FB8A828B831243BBEC
:104314008A828B831243B2A3A31229921243C0F060
:10432400E82405F8500109888289831243C0A31246
:1043340043FAA3A3A3A3F0806775100B8062741DD6
:1043440012183C1234351208438A828B83E5824565
:1043540083604A124563880C890DE8450D603E74FC
:104364002512183CE0F5107810121A77780E121AFC
:1043740073780A121A737808121A73740712183CA5
:10438400E0F9EEFCEFFDAA16AB17850C82850D83D0
:1043940012185E7407121806E9F510800375100EE2
:1043A400A91074050236F8F088828983A322A3E059
:1043B40085088285098322124401F022124401A354
:1043C400A3229002EF12465822E0F50E750F0078F2
:1043D4000E22850C82850D8312389BE022E0FAA31D
:1043E400E0F8E4C8F9EA2822F08A828B83E0F50A2F
:1043F400750B00780A221243AB12440122E08508AF
:1044040082850983A3A32274EE12186074FE121726
:10441400F08A088B09ECFEEDFF890AAC18AD19EEA1
:10442400FAEFFB1207418A0C8B0DEA450D7003026B
:1044340044F38518828519831234351208438A821D
:104444008B83E582458370030244EEA3A312456384
:10445400880E890FE8450F70030244EE7414121895
:104464003CE0F510A3E0F511E50AF50B780B121A00
:1044740077741912183C121A8A7810121A73741B62
:1044840012183CE0F9AC0CAD0DAA08AB09850E82FC
:10449400850F8312185E7405121806E9F50B705225
:1044A40074FE650A604C850C82850D83E06402709D
:1044B40041124502FAA3E0F9EAF874026870037441
:1044C4002969702E8510828511831243E1F50CE46D
:1044D40039F50D780C121A73EEFCEFFDAA08AB093E
:1044E4001208C774021218068008750B0E80037533
:1044F4000B01A90B74021218067F0A021932A312C7
:10450400456788828983E02274F612186074FE126B
:1045140017F0740C12183C124563E885188285194B
:1045240083F0740112183CE9F0E4F508F509780801
:10453400121A737508027808121A73740412184652
:10454400880889097808121A7379FE1208AF74066C
:104554001218067402121806023F148E828F8312F8
:10456400456722E0F8A3E0F92274F7121860EAFE26
:10457400EBFF89089003061243C91211A9EA5402F9
:10458400600BA908EEFAEFFB120735800279017F70
:104594000102193274F212186074FE1217F0EAFE66
:1045A400EBFF890A7401650A60147402650A6003EA
:1045B4000246477901120AD1E96003024647EEFA3E
:1045C400EFFB120891EA4B6003120897A818A91987
:1045D400880889097808121A737508027509007821
:1045E40008121A737508DB7509817808121A737C2E
:1045F400FF7DFF7A017B0012073B740612180680C8
:1046040038850882850983A3A3A3A3A3A3124651D3
:10461400EEFAEFFB121191E4F50CF50D780C121A79
:1046240073740212183C121A8A7CFF7DFFAA08AB2D
:104634000912074774041218068A088B09E508450D
:104644000970BE74021218067F0602193212389BD2
:1046540012465822E0FCA3E0FD2274F41218608A8A
:10466400088B09ECFEEDFF901639E0F4604B7A09F3
:104674007B00121341EA4B60408A828B8374B1F051
:10468400A3E41246C0F08A828B83A3A3E508F0A3B7
:10469400E5091246C0A3EEF0A3EFF0740C12183C27
:1046A4001245638A828B83A3A3A3A3A3A3A3123A71
:1046B4008C901639E0F912134D0229C7F08A828BC7
:1046C40083A3A3A3A32274EE12186074FA1217F042
:1046D4008A0A8B0BE9FF8C088D097E00850A0C85FC
:1046E4000B0D780C121AB7000410A649124735476F
:1046F400544777479A47BD47EE47114828485848DA
:1047040007492A494D497B49A649A649814874016C
:104714006F7019850882850983E0C39403500D8561
:104724000882850983E0901725F080027E180249EB
:10473400CE74026F7015850882850983E0F8A3E0C2
:10474400F9901726E8F0A3E9F080027E180249CE1A
:1047540074016F7019850882850983E0C39402503F
:104764000D850882850983E0900749F080027E1850
:104774000249CE74016F7019850882850983E0C3EC
:104784009405500D850882850983E090074AF080DE
:10479400027E180249CE74016F701985088285095A
:1047A40083E0C39402500D850882850983E0900755
:1047B4004BF080027E180249CE74106F7027750C7E
:1047C40010750D00780C121A73AC08AD097A4C7B85
:1047D4000712131D74021218068A0C8B0D850C82A5
:1047E400850D8380027E180249CE74016F7019858D
:1047F4000882850983E0C39402500D8508828509E7
:1048040083E090075CF080027E180249CE74016F49
:10481400700D850882850983E0901729F080027E57
:10482400180249CE74046F702690819E780C12167B
:10483400B4850882850983780C12154650118508C1
:10484400828509831216DE90075E1216EA80027EC4
:10485400180249CEEF70211206DBE97013121137EA
:10486400E9F50D795012146DE9F50C121125800A41
:104874009007F17401F080027E180249CE74076F2C
:10488400707C750E06750F00780E121A73850882F7
:10489400850983A3AC82AD83740212184E121323CC
:1048A40074021218068A108B1185100E85110F7C64
:1048B400007D00AA18AB19850882850983E0F912E6
:1048C40010CBE9F50CE50CC3940A502E1206DBE973
:1048D4007015A90C12113DE9F50E795012146DE909
:1048E400F50D1211258019A80C790074F228F582AF
:1048F400740739F5837401F080067E0280027E1805
:104904000249CE74016F7019850882850983E0C35A
:104914009402500D850882850983E090075DF0803C
:10492400027E180249CE74016F70198508828509C8
:1049340083E0C3940A500D850882850983E09017AB
:1049440028F080027E180249CE74016F7025850814
:1049540082850983E0C39407401985088285098309
:10496400E0C39411500D850882850983E090172ACD
:10497400F080577E18805374016F70229007F0E026
:10498400F50C850882850983E09007F0F0E50C704A
:10499400399007F0E064017031121125802C7E18E3
:1049A4008028C3E50A9427E50B9400501B74026F1A
:1049B4007016850882850983E0FCA3E0FDAA0AAB92
:1049C4000B12055BE9FE80027E02EEF974061218F2
:1049D400067F0A02193274EC12186074DA1217F0A6
:1049E400890D8A128B138C0A8D0B743A12183CE0D1
:1049F400F50C908132AC18AD197406121703AC187B
:104A0400AD19AA12AB13A90D1210CBE9FEEEC39493
:104A14000A4003024B4EEEF9121107E9FF901725E5
:104A2400E064027004740180027400F508780812CE
:104A34001A77AD0CEFFCEEF9AA0AAB0B12117974DC
:104A4400011218067C147D007900741212184E129B
:104A540013358A0E8B0F850E08850F0974121218F0
:104A6400567A1075F006EEA42424F9121467E9703E
:104A74003C7C1079FF741212184E121395E9702DB4
:104A8400742212183CAC82AD837A0475F006EEA44D
:104A94002425F9121467E9F5087412121856EFA2C6
:104AA400E0E433F9AA0AAB0B1205E5E9F87406123F
:104AB40018567A0C74702EF9121467E9707974061A
:104AC40012184E1210FB750E00E50EC394045067C5
:104AD400A80E7900E875F003A4C8AAF075F000A444
:104AE4002AFA75F003E9A42AF9740612183CE5823F
:104AF40028F508E58339F509850882850983E0F8F6
:104B0400A3E0F9E849602C850882850983A3A3E022
:104B1400F5107511007810121A73850882850983BF
:104B2400E0FCA3E0FDAA0AAB0B1208B5740212184C
:104B340006E9F8050E8092EFA2E1500E900748E0D6
:104B4400F9AA0AAB0B1208BBE9F87404650C700FE0
:104B5400901725E064027007AA0AAB0B121173794F
:104B64000074261218067F0C02193274F7121860AA
:104B7400EAFEEBFF1206DBE970679007F1E06401DF
:104B8400701B121137E9F5089007F17400F07C0AE4
:104B94007D0079007AF27B0712133580397508009D
:104BA400E508C3940A502FA808790074F228F58206
:104BB400740739F583E064017018A90812113DE9FE
:104BC400FAA808790074F228F582740739F5837419
:104BD40000F0050880CA795012146DE9F508121125
:104BE400257F0102193274F2121860890BEAFEEB78
:104BF400FF8C088D09750A0AE50B600C1460091412
:104C04006044146064024C8FEEFAEFFB121119E950
:104C1400F50AE50AC3940A5072E5084509606C7503
:104C24000C06750D00780C121A73EEFCEFFDAA0841
:104C3400AB0912131D74021218068A0C8B0D850C15
:104C440082850D838045EEFAEFFB121113E9F50A14
:104C5400E50AC3940A5034E5084509602EAA08AB56
:104C640009A90A12110DE98022EEFAEFFB12111FB5
:104C7400E9F50AE50AC3940A5011E5084509600BF1
:104C8400AA08AB09A90A12110DE9F8A90A7F0602BC
:104C9400193274F21218608A0C8B0DE9FF7E1574B8
:104CA400FF650C700474FF650D702A750800E50833
:104CB400C3940A5014EFFC7A027B00A9081210E98D
:104CC400E960027E00050880E5EF60627A617B118D
:104CD400120AF58059AA0CAB0D120AC58A0A8B0B6D
:104CE400850A08850B09E508450960407C007D00BC
:104CF400E5082405FAE43509FB850882850983A3C0
:104D0400A3A3A3E0F91210CBE9F50AE50AC3940AB8
:104D1400500EEFFC7A027B00A90A1210E9E97E002A
:104D2400EF600BAA08AB0912116180027E14EEF940
:104D34007F0602193274EE1218608A0E8B0F8C0AE9
:104D44008D0B741212183CE0F50CA3E0F50D7508F8
:104D54001574FF650E700474FF650F701E7E00EEFF
:104D6400C3940A5061AC0CAD0DAA0AAB0BEEF91258
:104D740010EFE960037508000E80E4AA0EAB0F1271
:104D84000AC58A108B11AE10AF11EE4F60357C004E
:104D94007D00EE2405FAE43FFB8E828F83A3A3A358
:104DA400A3E0F91210CBE9F509E509C3940A5016FA
:104DB400AC0CAD0DAA0AAB0BA9091210EFE97508EA
:104DC400008003750814A9087F0A02193274F712C7
:104DD4001860EAFEEBFF900762EEF0A3EFF0900795
:104DE40048E0FC7D007A267B0012055BE9F508901B
:104DF4000748E0F912081F7F0102193274F01218F3
:104E04006074EC1217F08A0C8B0D850C82850D836F
:104E1400A3A3E024FA700302527924FD7003025024
:104E2400EE147003024EF014601024FD700302505F
:104E34009614700302512D02528CAE0CAF0D9007E4
:104E440062E0F8A3E0F9E8496066900762E0F8A33D
:104E5400E0F5838882E0F8A3E0F9E8496052EE24A3
:104E64000CF582E43FF583E0F5087808121A77EE32
:104E7400240BF582E43FF583E0F98E828F83A3A3AC
:104E8400A3A3A3A3A3A3A3E0FCA3E0FDEE2403FA3E
:104E9400E43FFB900762E0F8A3E0F5838882E0F842
:104EA400A3E0F583888212185E7401121806803913
:104EB4008E828F83A3A3A3A3A3A3A3A3A3121A8A5B
:104EC40090075E1216D21205F77402121806E960F2
:104ED4001879018E828F83A3A3A3A3A3A3A3A3A35F
:104EE400E0FAA3E0FB1205F1E902528CAE0CAF0D1F
:104EF4007508008E828F83A3E060030250188E82AF
:104F04008F83A3A3A3A3A3E0A2E0400302501890BD
:104F140007FCE0F8A3E0F9E84960030250187C0EAE
:104F24007D007900AA18AB191213358A0A8B0BAAD3
:104F34000AAB0BEE240CF582E43FF583E0F8A3E022
:104F4400F9E8496036750A06750B00780A121A7377
:104F5400EE240CF582E43FF583E02410FCA3E03456
:104F640000FD740212184E12131D74021218068AE0
:104F74000A8B0B850A82850B83804F8E828F83A3D5
:104F8400A3A3E0FAA3E0FB120AC58A0E8B0F850ED9
:104F94000A850F0BE50A450B602D750E06750F008B
:104FA400780E121A73E50A2405FCE4350BFD74022D
:104FB40012184E12131D74021218068A0E8B0F85D6
:104FC4000E82850F83800302528C8E828F83A3A36B
:104FD400A3A3A3E0A2E25004D2F08002C2F0A2F0A4
:104FE400E433F87900740C12183CE048F0A3E0496B
:104FF400F0EEFCEFFDAA18AB19121101E970127A58
:10500400027B00900748E0F9121371E9790002521B
:105014008E750815900762E0F8A3E0F9E849606F1F
:10502400900762E0F8A3E0F5838882A3A3E0F8A3E5
:10503400E0F9E84960598E828F83A3E0FC79018E00
:10504400828F83A3A3A3E0FAA3E0FB900762E0F8B6
:10505400A3E0F5838882A3A3E0F8A3E0F583888224
:1050640012185EE5086028AC0879038E828F83A34A
:10507400A3A3E0FAA3E0FB900762E0F8A3E0F583C2
:105084008882A3A3E0F8A3E0F583888212185E0265
:10509400528CAE0CAF0D900762E0F8A3E0F9E8493A
:1050A4006045900762E0F8A3E0F5838882A3A3E05B
:1050B400F8A3E0F9E849602F850C82850D83A3E00D
:1050C400FC79028E828F83A3A3A3E0FAA3E0FB9072
:1050D4000762E0F8A3E0F5838882A3A3E0F8A3E0E5
:1050E400F583888212185E02528CAE0CAF0D7C00E0
:1050F4007D00EE2404FAE43FFB8E828F83A3A3A3F6
:10510400E0F91210CBE9F508E508C3940A5017EE4C
:10511400240AFCE43FFD7A0475F006E508A424257E
:10512400F9121461E9F802528CAE0CAF0D90075DD0
:10513400E06019901728E0F98E828F83A3A3A3E07F
:10514400FAA3E0FB1205F1E9F802528C901725E06E
:10515400701679058E828F83A3A3A3E0FAA3E0FBE4
:105164001205F1E9F802528C8E828F83A3A3A3E087
:10517400FAA3E0FB120AC58A0A8B0B850A08850B81
:1051840009E5084509700302528C8E828F83A3A31C
:10519400A3A3A3A3A3E0A2E0506D8508828509839D
:1051A400A3A3A3A3E060608E828F83A3A3A3A3A37E
:1051B400A3A3A3A3E0F50AA3E0F50B7409780A12EC
:1051C40017CEE50A5401F8E50B5400F9E8A2E040D3
:1051D40036740E121856E5082405FAE43509FB85E1
:1051E4000882850983A3A3A3A3E0F91210CBE97075
:1051F4001679038E828F83A3A3A3E0FAA3E0FB12A4
:1052040005F1E9F802528CEE2405FCE43FFD850823
:1052140082850983A3A3A3A3E0F98E828F83A3A32A
:10522400A3E0FAA3E0FB12116D900762E0F8A3E09B
:10523400F9E8496053900762E0F8A3E0F5838882B7
:10524400A3A3E0F8A3E0F9E849603D7C0079008E6F
:10525400828F83A3A3A3E0FAA3E0FB900762E0F8A4
:10526400A3E0F5838882A3A3E0F8A3E0F583888212
:1052740012185E8013AE0CAF0D8E828F83A3A3A38E
:10528400E0FAA3E0FB1210C5790174141218067F2A
:105294000802193274F512186074F21217F08909B1
:1052A400EAFEEBFF8C0AAC18AD197A0E75F006E530
:1052B40009A42420F9121467E9705F7C0679FFAA17
:1052C40018AB19121395E97051740C12183CE0F8DC
:1052D400A3E0F9E8F508E50A6005EE42088004EE6B
:1052E400F45208A8087900740C12183CE0687003A2
:1052F400A3E0696021A8087900740C12183CE8F056
:10530400A3E9F0AC18AD197A0E75F006E509A424EA
:1053140020F9121461E9790180027900740E1218DF
:10532400067F0302193274F012186074E61217F043
:10533400890B8A0C8B0DECFEEDFF740C1218567A57
:105344000E75F006E50BA42420F9121467E9600336
:1053540002545A7C0679FF740C12184E121395E904
:10536400600302545AAC18AD197A0C7470250BF909
:10537400121467E96003025456750A00AA18AB199F
:105384001210FBE50C450D702E7C0C7900AA18ABAD
:1053940019121395E9600302543C7C0C7D007900DA
:1053A400AA18AB191213358A088B09850882850956
:1053B40083750A0102543CAC18AD19AA0CAB0D124A
:1053C40010F58A0E8B0F850E08850F09E50845092F
:1053D4007030EE4F601BAC18AD197A007B001210D0
:1053E400F58A0E8B0FA80EA90F88088909E8497061
:1053F4000479008063850882850983E50CF0A3E5C0
:105404000DF0850882850983A3A3E0F87900EE688E
:105414007002EF696022EEC0E0850882850983A3EB
:10542400A3D0E0F0EE4F700D8508828509837400E7
:10543400F0A37400F0750A01E50A6016AA18AB1906
:105444001210FBAC18AD197A0C7470250BF91214F8
:1054540061E9790180027900741A1218067F080242
:10546400193274F61218608A088B097E00EEC39410
:10547400045050EEF87900E875F003A4C8AAF0755A
:10548400F000A42AFA75F003E9A42AF9EC28F582BD
:10549400ED39F583E065087004A3E065097021EE39
:1054A400F87900E875F003A4C8AAF075F000A42AFE
:1054B400FA75F003E9A42AF9EC28FAED39FB800720
:1054C4000E80AA7A007B007F0202193274F7121848
:1054D400607C00ECC39404400302557FECF879002F
:1054E400E875F003A4C8ADF075F000A42DFD75F0C7
:1054F40003E9A42DF9EA28F582EB39F583E0F4FEFB
:10550400A3E0F4FFECF87900E875F003A4C8ADF06B
:1055140075F000A42DFD75F003E9A42DF9EA28F532
:1055240082EB39F583EEF0A3EFF0ECF87900E8753F
:10553400F003A4C8ADF075F000A42DFD75F003E9E7
:10554400A42DF9EA28F582EB39F583A3A3E0F4C08E
:10555400E0ECF87900E875F003A4C8ADF075F0004C
:10556400A42DFD75F003E9A42DF9EA28F582EB39A1
:10557400F583A3A3D0E0F00C0254D77F01021932C3
:1055840074F012186074F41217F0EAFEEBFF8C0842
:105594008D099007FCE0F8A3E0F9E849702CEE4F80
:1055A4006006E508450970057901025830EEFAEF06
:1055B400FB121119E990172BF090172BE0C3940AF2
:1055C400400812112BE990172BF090172BE0C3948D
:1055D4000A400302582E9007FCE0F8A3E0F9E849DA
:1055E400600302567AEEFCEFFD7A0E75F006901712
:1055F4002BE0A42420F9121461E9F50C7C0C7D0045
:1056040079FFAA18AB191213358A0E8B0F850E0A6F
:10561400850F0BAC18AD197A0C90172BE02470F998
:10562400121461E9F50D750E0E750F00780E121A3D
:1056340073EEFCEFFD90172BE0F87900E875F00E9F
:10564400A4C8AAF075F000A42AFA75F00EE9A42AF9
:10565400F9746428FA740739FB12131D74021218C2
:10566400068A0E8B0FA80EA90F9007FCE508F0A37D
:10567400E509F002582A9007FCE0F8A3E0C82406E4
:10568400F582C83400F583E0F8A3E0F9E849604303
:105694009007FCE0F8A3E0C82406F582C83400F5BE
:1056A40083E0FCA3E0FD7A1B75F00690172BE0A4C1
:1056B4002421F9121461E9F89007FCE0F9A3E0C988
:1056C4002406F582C93400F5837400F0A37400F055
:1056D40002582A9007FCE0F8A3E0C8240AF582C81F
:1056E4003400F583E0F8A3E0F9E84960439007FC4F
:1056F400E0F8A3E0C8240AF582C83400F583E0FC8E
:10570400A3E0FD7A1B75F00690172BE0A42422F980
:10571400121461E9F89007FCE0F9A3E0C9240AF542
:1057240082C93400F5837400F0A37400F002582A8F
:105734009007FCE0F8A3E0C8240CF582C83400F517
:1057440083E0F8A3E0F9E84960439007FCE0F8A39C
:10575400E0C8240CF582C83400F583E0FCA3E0FD26
:105764007A1075F00690172BE0A42423F912146123
:10577400E9F89007FCE0F9A3E0C9240CF582C934E8
:1057840000F5837400F0A37400F002582A9007FC1B
:10579400E0F8A3E0C82408F582C83400F583E0F8F3
:1057A400A3E0F9E849606F9007FCE0F8A3E0C8249F
:1057B40008F582C83400F583E0FCA3E0FD7A107597
:1057C400F00690172BE0A42424F9121461E9F50AD9
:1057D4009007FCE0F8A3E0C82408F582C83400F57B
:1057E40083E02410FCA3E03400FD7A0475F00690F5
:1057F400172BE0A42425F9121461E9F89007FCE0C2
:10580400F9A3E0C92408F582C93400F5837400F0D3
:10581400A37400F080109007F0E0600312117F126F
:10582400116779018006790080027901740C1218DD
:10583400067F0802193274F712186074F21217F016
:10584400E9FEAC18AD197A0E75F006EEA42420F921
:10585400121467E9700E740C12183CE0F8A3E0F916
:10586400E8F980027900740E1218067F01021932D9
:1058740074F412186074F21217F08909EAFEEBFF4F
:10588400E509C3940A5004EE4F700479028041ACD8
:1058940018AD197A0E75F006E509A42420F912143E
:1058A40067E9F508E5087026750A06750B00780A9D
:1058B400121A737402121856EEFAEFFB12131D74C7
:1058C400021218068A0A8B0B850A82850B83A908A3
:1058D400740E1218067F0402193274F4121860EA66
:1058E400FEEBFF750800E508C3940A5043750A06E9
:1058F400750B00780A121A73EEFCEFFDA808790004
:10590400E875F00EA4C8AAF075F000A42AFA75F0A0
:105914000EE9A42AF9746A28FA740739FB12132FC2
:105924007402121806E96004A9088006050880B606
:10593400790A7F0402193274F4121860EAFEEBFF4C
:10594400750800E508C3940A5043750A06750B00F0
:10595400780A121A73EEFCEFFDA8087900E875F0D6
:105964000EA4C8AAF075F000A42AFA75F00EE9A4F2
:105974002AF9746428FA740739FB12132F7402127B
:105984001806E96004A9088006050880B6790A7F2C
:105994000402193274F712186074F01217F0EAFE58
:1059A400EBFF750800E508C3940A5039AC18AD192B
:1059B4007A1075F006E508A42423F9121467E97037
:1059C400207C1079FFAA18AB19121395E97012EE16
:1059D400FCEFFDAA18AB191205C1E97004A90880EF
:1059E40006050880C0790A74101218067F0102198E
:1059F4003274F4121860750800E508C3940A400371
:105A0400025ACFA8087900E875F00EA4C8AAF07568
:105A1400F000A42AFA75F00EE9A42AF9746428FCAB
:105A2400740739FD7A0E75F006E508A42420F912EE
:105A34001467E97003025ACA7C067D0079FFAA083C
:105A44007B00EA75F00EA4CAA8F075F000A428F84B
:105A540075F00EEBA428FB74642AFA74073BFB125E
:105A640013358A0A8B0BAE0AAF0B7C067D0079FFD7
:105A7400AA087B00EA75F00EA4CAA8F075F000A489
:105A840028F875F00EEBA428FB746A2AFA74073B15
:105A9400FB1213358A0A8B0BAC0AAD0BA8087900EC
:105AA400E875F00EA4C8AAF075F000A42AFA75F0FF
:105AB4000EE9A42AF9747028F582740739F5837401
:105AC40000F0A37400F005080259FD9007F0E060AF
:105AD4000312117F1211677F0402193274F712182E
:105AE400607E00EEC3940A50327C0679FFEEFA7BA6
:105AF40000EA75F00EA4CAA8F075F000A428F875A1
:105B0400F00EEBA428FB74642AFA74073BFB12130F
:105B140095E96004EEF980050E80C8790A7F0102D8
:105B2400193274F71218607E007F00EFC3940A5094
:105B3400357C0679FFC9FDC9EFF87900E875F00EE8
