:020000040000FA
:0600000002010702226567
:03000B0002268E3C
:03002B0002266941
:030053000222DBAB
:100083000220BBE5C754F84401F5C77901220000FB
:100093000080FB120086B900030200F1E4792178A5
:1000A30008B800028004F709D8FCE479297802B87B
:1000B30000028004F709D8FCE490028178037914E4
:1000C3008002F0A3D8FCD9FA7A837B1590013778A4
:1000D3002379048015E493A3AD82AE838A828B8354
:1000E300F0A3AA82AB838D828E83D8E9D9E7758288
:1000F3009E7583FF740112011975829175830074D3
:100103000012011975D00075813F751881751902A8
:10011300759F00020096C09FF59FE473D09F22D085
:1001230083D082C09FE493C0E0740193C0E0740263
:1001330093F59F22FF0000B4000028002800283018
:1001430075A000A000A000A00000080008E001F0D6
:10015300001000100010001000100010005000509C
:1001630000500010001000D0070000000000000F36
:100173000001000500307507001000010081FF0039
:10018300000000FFFFFF7B0699068106BD06FF0204
:10019300020208025000A0000000E80302D581011A
:1001A3000000D28102D981010000DE1502DF810146
:1001B3000000BF0202D981010000DF1502E18101C5
:1001C3000000D50202D981010000E01502E381019C
:1001D3000000D70202D981010000E11502E5810880
:1001E3000000D80202D981010000E21502E7810173
:1001F3000000E315FF0100FF2002D581010000C6C6
:100203008102D981010000471602E9810000000044
:100213000002DD8103000006031700290D290D29C3
:100223000D290D290D290D290D290D290D290D291B
:100233000D290D290DCF0FE10FC90F020202020292
:1002430002020202010D000000100102D58101002B
:1002530000C98102D9810100008A16020D820100C2
:1002630000400702D9810100008B16020B820100B6
:1002730000178102D9810100008C16020982010056
:1002830000FB8002D9810100008D1602FB81010071
:1002930000958002D9810100008E1602F1810100D0
:1002A30000838002D9810100008F160211820100B0
:1002B30000A78002D981010000901602ED810100A0
:1002C30000B98002D981010000911602EB8101007F
:1002D30000098102D9810100009216020782010000
:1002E30000931601E8030577100A0D09505047469D
:1002F30075656C4761756765051250002003020A36
:10030300000201060302F0FF5050474675656C4733
:1003130061756765000000000000000000331200F3
:10032300003F1200004512070101010901010110FC
:10033300000101E803000010024173796E6320425B
:10034300756C6B0053796E632042756C6B0002D53C
:1003530081010000CF8102D981010000861702F5D7
:1003630081000000600802DD81030000880802DBD1
:1003730081010000881702D981010000871702F765
:1003830081010000740802DB8101000093170A1049
:100393000A02436F6D6D616E6400526573706F6E18
:1003A3007365004D61696C626F78004465766963BB
:1003B3006520496E666F0002D581010000CC810281
:1003C300D981010000DD1702FF810300008C0802C0
:1003D300DB81010000E11702D981010000DE170271
:1003E30001820000008E0802DD81030000A80802DC
:1003F300DB81010000E91702D981010000DF170248
:100403000382030000900802DB81010000F217025F
:10041300D981010000E017020582010000A408024F
:10042300DB81010000FA17FFFFFF000130750302B3
:1004330001060000000000000000000000000000B2
:100443000000000000000000000000000000FFFFAB
:100453000600800CE80312012225AC0312012238A6
:10046300AC0312012269AC03120122A3AC031201F3
:1004730022FCAC0312012243AD031201228BAD0314
:10048300120122BAAD03120122E9AD0312012220A7
:10049300AE0312012267AE0312012280AE031201E2
:1004A30022D5AE03120122EEAE031201223CAF03AA
:1004B30012012276AF03120122A0CB02120122A362
:1004C300CC02120122DCCC02120122FFCC02120167
:1004D3002211CD021201224FCD02120122CBCD02F5
:1004E30012012293CE02120122B5CE021201224C36
:1004F300CF021201229ECF02120122CFCF0212019C
:1005030022DCCF0212012246D0021201229DD00228
:10051300120122A0D002120122D9D002120122DC40
:10052300D002120122E6D0021201223AD1021201B4
:10053300227BD102120122AED102120122EBD1029F
:10054300120122EDD20212012291D302120122FAE8
:10055300D30212012238D402120122E7FB02120154
:10056300220FFC021201223CFC0212012274FC0243
:10057300120122D2FC021201221EFD021201228567
:10058300FD02120122C5FD0212012202FE02120126
:100593002230FE02120122DAFE02120122E4FE02DE
:1005A300120122F1FE0212012224FF021201223063
:1005B300FF0212012248FF0212012252FF0212011E
:1005C300220DD0031201221BD00312012233D003C8
:1005D3001201224AD003120122D0BA011201227A57
:1005E300BB011201228DBC0112012209BD011201BE
:1005F3002227BE0112012263BE01120122FEBE01A7
:10060300120122E2BF01120122AEC0011201223CFB
:10061300C201120122ADC20112012267C3011201FC
:100623002259C40112012299C4011201224DC501AC
:100633001201227FC50112012275C701120122B7DF
:10064300C701120122D5C7011201223BC8011201C1
:10065300220AC901120122CEC901120122EDCB01E6
:10066300120122C77800120122B179001201225C23
:100673007A00120122AD7A001201225D7B00120181
:1006830022CE7B00120122B37C00120122E77C0000
:10069300120122E07D001201221D7E00120122F9C7
:1006A3007E00120122387F00120122547F001201C2
:1006B30022D9BF031201225DC00312012288C003A5
:1006C300120122A2C1031201226DA403120122838B
:1006D300A403120122A1A403120122B2A503120151
:1006E30022BCA503120122E7A603120122DEA703FF
:1006F3001201224BA8031201221BF1021201225103
:10070300F20212012288F202120122DFF202120126
:1007130022F4F4021201221A9601120122A6960172
:100723001201220A98011201221698011201225184
:100733009801120122C09801120122C999011201E4
:1007430022D29A01120122999B01120122F69C01E5
:10075300120122149D01120122319D01120122DE98
:100763009D011201225B9E01120122839E0112014F
:10077300224DA10112012252A1011201226BA301F8
:10078300120122B9A30112012229A4011201226735
:10079300A40112012243A50112012203A6011201A1
:1007A300224FA60112012252A60112012296A6018E
:1007B300120122DEA6011201221DA7011201223F0E
:1007C300A70112012273A701120122D6A701120168
:1007D300220080031201220E800312012261800392
:1007E300120122808003120122C580031201220913
:1007F3008203120122A48203120122E8820312015E
:1008030022128303120122818303120122C783036D
:100813001201223E8403120122EF8403120122F00B
:100823002600120122002700120122A12700120133
:1008330022FD2700120122BA2800120122D6290024
:10084300120122082A00120122372A00120122E48F
:100853002B001201225B2E00120122CB3000120169
:1008630022BD3100120122B63200120122BD340032
:10087300120122B13700120122E03800120122E4F2
:100883003A00120122F43B00120122833D001201BF
:1008930022743E00120122C23E00120122313F00A7
:1008A300120122553F00120122A63F0012012247E6
:1008B3004400120122484500120122A945001201F9
:1008C30022D445001201229A460012012233A003CA
:1008D3001201223DA00312012282A00312012296DB
:1008E300A00312012226A1031201225FA103120118
:1008F300229AA103120122C3A10312012217A20308
:100903001201222CA2031201224EA203120122631E
:10091300A20312012277A2031201228CA203120165
:1009230022C6A203120122F2A2031201223BA30355
:10093300120122ADA303120122F0A3031201221A12
:10094300A40312012245A40312012205CD031201BF
:10095300221CA402120122FFA4021201227AA50280
:10096300120122B5A50212012206A7021201229446
:10097300A70212012226AA02120122D8AA021201F8
:1009830022E4AB0212012257AD02120122B0AD02E2
:10099300120122A19703120122E497031201226894
:1009A30098031201223F9B031201226DBB03120124
:1009B300221FBC031201221BBD031201225ABD03D5
:1009C300120122B4BD03120122C4C3031201222760
:1009D300C403120122C4C403120122F9C403120185
:1009E3002229C50312012264C50312012284C5030F
:1009F300120122FF89031201228B8A031201224A68
:100A03008B03120122628C031201227C8E031201DA
:100A130022888D02120122AD8D021201227A8E02EA
:100A23001201224E8F02120122BB8F02120122FBFE
:100A33008F02120122979002120122CB910212011E
:100A430022A692021201220593021201229193021D
:100A5300120122FF93021201228B9402120122D16E
:100A63009402120122439502120122D5950212012A
:100A730022769602120122969602120122DE960235
:100A830012012227970212012243970212012269BF
:100A93009702120122E39702120122F19702120137
:100AA30022809802120122E99802120122B38E03D6
:100AB300120122388F031201227A8F031201225E60
:100AC3009003120122CB90031201220F9103120112
:100AD30022539103120122809103120122A8910350
:100AE300120122E091031201221E920312012245F8
:100AF3009203120122BF92031201220993031201EE
:100B030022FACB0112012299CD01120122D1CF0188
:100B130012012225D00112012250D0011201222CF0
:100B2300D1011201225CD1011201228BD1011201E8
:100B3300229ED101120122DFD1011201220CD20126
:100B43001201225AD20112012296D201120122DB92
:100B5300D20112012228D301120122A2D3011201D0
:100B630022E3D501120122CDD70112012209D801B6
:100B730012012298D901120122DDD901120122505A
:100B8300DA01120122A5DA01120122AADA01120105
:100B93002234DB0112012253DC0112012264DC0145
:100BA30012012201C2021201227AC202120122346C
:100BB300C8021201223FC902120122E8CA0212012D
:100BC3002276CB02120122B46400120122356500A1
:100BD300120122626500120122AB6500120122ACF0
:100BE30066001201220567001201228168001201CA
:100BF300220369001201221E69001201228F69007B
:100C03001201224C6A001201220F6B001201229D75
:100C13006B00120122546C00120122676C00120156
:100C230022006D00120122976D00120122BE6D0099
:100C3300120122276E00120122716E00120122BFDF
:100C43006E00120122646F00120122027000120171
:100C5300228F7000120122007100120122477100DD
:100C63001201229F7100120122D171001201228B05
:100C73007200120122927300120122DB730012012F
:100C830022F873001201221774001201224A750020
:100C93001201220176001201222676001201223B64
:100CA3007600120122AB7600120122EC76001201CB
:100CB3002210780012012291780012012241B80219
:100CC3001201228CB80212012298B8021201226C7E
:100CD300B90212012283B902120122C0B902120120
:100CE30022F1B90212012229BA021201227FBA02A9
:100CF30012012295BA02120122D1BA02120122E490
:100D0300BA021201220BBB021201223FBB021201E3
:100D13002265BC02120122AFBD02120122ABBE0248
:100D2300120122C8BF02120122FB7F001201228797
:100D3300DC01120122C2DC0112012214E0011201C2
:100D43002270E1011201222FE20112012296E50134
:100D530012012280E601120122CCE601120122E6F1
:100D6300E60112012223E7011201222EE7011201FB
:100D7300226DE70112012276E70112012220E80128
:100D8300120122F7E8011201224BE901120122A804
:100D9300E9011201221AEA01120122AEA80112018D
:100DA300220DAC0112012213AC0112012244B30142
:100DB3001201224BB701120122DEAF03120122BB43
:100DC300B003120122FFB00312012239B103120151
:100DD30022D1B10312012240B20312012249B2030C
:100DE30012012255B2031201226FB203120122999A
:100DF300B203120122C9B203120122F19B031201B1
:100E030022FE9B03120122189C031201224B9C0316
:100E1300120122899C03120122EE9C031201220378
:100E23009D031201220E9D031201221B9D03120139
:100E330022329D03120122409D031201224B9D0386
:100E4300120122579D03120122669D031201227192
:100E53009D03120122949D03120122389E03120165
:100E630022489E03120122629E031201227F9E03E7
:100E73001201229A9E03120122BF9E03120122CA6B
:100E83009E03120122DF9E03120122F39E0312012D
:100E930022549F031201225A9F03120122609F03CF
:100EA300120122669F031201227E9F03120122B1C7
:100EB3009F031201220580021201229C800212016B
:100EC300223481021201222482021201225B820255
:100ED3001201226E8202120122DC820212012277A7
:100EE30084021201229E8402120122408502120111
:100EF30022758502120122868502120122FF8502D4
:100F03001201222086021201223886021201229047
:100F13008702120122998902120122E98B0212012E
:100F230022EC8C021201223B8D0212012269EB0199
:100F330012012266EC0112012251ED011201225B22
:100F4300ED011201227DED0112012289ED01120151
:100F530022DBEE011201220AEF011201223AF00113
:100F63001201227CF001120122A8F1011201227E5A
:100F7300F201120122D0F2011201222FF301120118
:100F83002266F301120122A1F3011201223CF701AF
:100F930012012255F701120122D7F701120122E5AE
:100FA300F7011201223AF80112012248F801120155
:100FB30022B5F80112012227F9011201226DF9016C
:100FC3001201220C99021201222E990212012218F7
:100FD3009B02120122BD9E0212012200A0021201F5
:100FE30022DAA00212012292C503120122B7C5031D
:100FF30012012228C6031201225ED40212012267C3
:10100300D40212012270D402120122A1D5021201CC
:1010130022C0D702120122F6D70212012230D802CF
:1010230012012266D802120122A0D802120122D490
:10103300D80212012200D90212012249D902120157
:101043002283D902120122CBD90212012221DA0210
:1010530012012256DA02120122B1DA02120122EB44
:10106300DA021201223CDB0212012272DB021201BC
:1010730022ACDB02120122DADB02120122FDDB02C7
:10108300120122DAD00312012206D10312012261D6
:10109300D1031201226BD1031201227BD10312016E
:1010A300220185031201222885031201226385038D
:1010B30012012261D30312012206470012012216F4
:1010C3004A00120122AB4B00120122264C001201EE
:1010D30022D24C00120122754D001201220D4E0046
:1010E3001201223C4E00120122D452001201226648
:1010F3005300120122A254001201220C55001201C6
:1011030022C05500120122765800120122B0580065
:101113001201221A5900120122775900120122D416
:101123005900120122315A001201221C5B001201E4
:1011330022625B00120122AD5B00120122D05B0030
:10114300120122175D001201222B5D001201229A67
:101153005E00120122D95E00120122195F00120102
:10116300226C5F001201228D5F00120122CB5F000F
:10117300120122F16100120122326200120122CD1A
:1011830062001201223F63001201228064001201F7
:10119300227AEB0212012220EC0212012265ED02F7
:1011A300120122EEED02120122DBEE021201221ADB
:1011B300EF0212012284EF02120122F2EF02120166
:1011C300226BD403120122FCB503120122C7B80318
:1011D3001201223CD4031201222ED2031201223E19
:1011E300D20312012252D203120122CED2031201E0
:1011F30022F7B2031201229FB303120122E1B503C6
:10120300120122E5260012012259D403120122BB46
:10121300F602120122CBF6021201220CF90212018C
:101223002242FA02120122ABFA02120122C9FA0285
:10123300120122EBFA02120122BCFB02120122BFAD
:10124300FB02120122E1FB0212012219CE03120159
:101253002239CE031201227DCE03120122F4CE03E2
:1012630012012212D40312012228D40312012249AB
:101273009303120122BA9303120122D7930312019B
:1012830022FC93031201222B94031201225A94038A
:10129300120122D99503120122D7960312012219B2
:1012A300E4021201228AE40212012201E60212017F
:1012B30022D5E70212012212E902120122D6E90223
:1012C300120122F3E90212012242EA0212012283ED
:1012D300EA02120122C4EA02120122E8EA0212011E
:1012E3002217EB02120122D1C10312012227C203EA
:1012F300120122A4C203120122DEC203120122EE52
:10130300C20312012227C30312012248C703120199
:10131300229DC703120122FAC8031201222AC9031C
:10132300120122C0C9031201224ECA03120122E391
:10133300CB0312012214CC031201223ECC0312016F
:10134300229CCC031201228BDC02120122A0DC02BC
:10135300120122FCDC0212012267DD02120122AF1C
:10136300DD0212012221DE021201224ADE021201F3
:101373002258DE02120122BADE02120122F8DE0234
:1013830012012213DF02120122AEDF0212012257E1
:10139300E002120122DAE00212012213E102120139
:1013A300229EE102120122F5E10212012253E2021E
:1013B30012012265E2021201228BE202120122943F
:1013C300E202120122E5E302120122DFBD03120150
:1013D3002246BE0312012203BF0312012281BF036F
:1013E30012012255A80312012288A803120122BA6E
:1013F300A903120122FEA903120122DAAA03120190
:1014030022A9CA0312012287CB03120122D5B803F2
:101413001201221AB90312012260B903120122290F
:10142300BB03120122D1D203120122ECD203120117
:1014330022FCD20312012285D10312012259AE02EA
:1014430012012235AF021201227CAF02120122B92E
:10145300AF0212012227B00212012281B00212014F
:1014630022F1B002120122C1B102120122B0B20272
:1014730012012227B302120122C3B4021201225025
:10148300B502120122C3B5021201223FB6021201B4
:101493002256B6021201227BB702120122D5B702ED
:1014A300120122F6F90112012216FA011201221C7D
:1014B300FB0112012268FB0112012288FB011201C8
:1014C30022DBFB0112012248FC011201228EFC01E6
:1014D300120122F2FC0112012214820112012241A3
:1014E3008701120122448A011201226D8A0112012D
:1014F30022968A01120122488B01120122318D01A9
:101503001201227C8E01120122958E01120122CC3E
:10151300930112012205940112012249940112013F
:10152300225A950112012223CF0312012233CF0342
:101533001201224ACF03120122B6CF03120122CD98
:10154300CF03120122EBCF03120122B57F00120158
:1015530022E6D303120122E0FF02E066701008A323
:10156300E066700A08A3E066700408A3E06622C37D
:10157300E7960809E7960809E7960809E79622C35C
:10158300E09608A3E09608A3E09608A3E09622C09D
:1015930008C3E096F50808A3E096420808A3E0967E
:1015A300420808A3E09645087001D3D00822080832
:1015B30008EAC0E0EBC0E086F0E7A4FA180986F079
:1015C300E7A42AFA180986F0E7A42AFA180986F08C
:1015D300E7A42AFA1986F0E7A4FBE5F02AFA19082A
:1015E30086F0E7A42BFBE5F03AFA190886F0E7A4A6
:1015F3002BFBE5F03AFA18180986F0E7A4C5F02B9F
:10160300FBE43AFA1908E7C5F0C6A426F6E5F03B71
:10161300FBE43AFA1886F0E7A4F6E5F00826F6E4C8
:101623003B08F6E43A08F6D0E0FBD0E0FA22601675
:10163300080808C6C313C618C613C618C613C618A7
:10164300C613C6D5E0EA22700908080822601618F6
:101653001818C6C333C608C633C608C633C608C679
:1016630033C6D5E0EA22E627F60809E637F6080985
:10167300E637F60809E637F622E026F608A3E03651
:10168300F608A3E036F608A3E036F622E026F008D3
:10169300A3E036F008A3E036F008A3E036F022C357
:1016A300E697F60809E697F60809E697F60809E6C5
:1016B30097F622C3E096F008A3E096F008A3E0961D
:1016C300F008A3E096F022E056F608A3E056F608E9
:1016D300A3E056F608A3E056F622E056F008A3E08E
:1016E30056F008A3E056F008A3E056F022E0F6080F
:1016F300A3E0F608A3E0F608A3E0F622E6F008A3C9
:10170300E6F008A3E6F008A3E6F022E0FAA3E0FB84
:10171300A3E0FCA3E0FD22E0F8A3E0F9A3E0FAA331
:10172300E0FB22E8F0A3E9F0A3EAF0A3EBF022CA7E
:10173300C0E0E6F0A308DAFAD0E0FA22CAC0E0E09B
:10174300A3C582CCC582C583CDC583F0A3C582CC96
:10175300C582C583CDC583DAE6D0E0CA22C3E49847
:10176300F8E499F91217A18026C3E49AFAE49BFBE3
:10177300E920E7E91217A1E498F8E499F922C3E410
:1017830098F8E499F91217A1E498F8E499F9C3E4F5
:101793009AFAE49BFB22EB20E7CFE920E7E0B900CC
:1017A30010BB0008E88AF084F8AAF022E4FBC8FA28
:1017B30022EB70227B10C833C8C933C9335007C327
:1017C3009AC3DBF280069A50012ADBEAC833F4C8D5
:1017D300C933F4C9FA2275F008E4C833C8C933C958
:1017E30033C99AC99B5004C92AC93BD5F0ECFBC83D
:1017F30033F4C8E4C9FA22600D08C6A2E713C61879
:10180300C613C6D5E0F322600C08C6C313C618C6B8
:1018130013C6D5E0F422700422600D18C6C333C684
:1018230008C633C6D5E0F41822251810AF08F518FA
:10183300400C15198008F51840021519D2AF220083
:10184300C0D0251810AF08F518500C05198008F5FD
:101853001850020519D2AFD0D0222518F58210AF47
:1018630008F518400C15198008F51840021519D20F
:10187300AF851983222518F582E43519F5832225CE
:1018830018F8E43519F9222518FAE43519FB22254D
:1018930018FCE43519FD22E4732518C582C0E0E580
:1018A3001934FFC583C0E0E518C3958224F810AF4F
:1018B300088583198582188008858319858218D243
:1018C300AFCEF0A3E520F0A37808E608F0A3DEFA94
:1018D300EFF0A3E58124FAF8E608F0A3E608F0A305
:1018E300E608F0A30808E608F0A3E608F0A31581CC
:1018F3001581D0E0FED0E0F8158115811581E8C08F
:10190300E0EEC0E0222518C582C0E0E51934FFC52A
:1019130083C0E0E518C3958224F910AF08858319C5
:101923008582188008858319858218D2AFCEF0A3EB
:10193300E520F0A37808E608F0A3DEFAEFF0A3E5CC
:101943008124FBF8E608F0A3E608F0A30808E608FC
:10195300F0A3E608F0A315811581D0E0FED0E0F8EE
:1019630015811581E8C0E0EEC0E022851983851852
:1019730082E0A3FEE0A3F5207808E0A3F608DFFAEF
:10198300E0A3FFE0A3C0E0E0A3C0E0E0A3C0E0E089
:10199300A3C0E0E0A3C0E010AF08858218858319D7
:1019A3008008858218858319D2AFD083D082020143
:1019B3001F851983851882E0A3FEE0A3F52078082C
:1019C300E0A3F608DFFAE0A3FFE0A3C0E0E0A3C0D2
:1019D300E0E0A3C0E0E0A3C0E010AF088582188573
:1019E30083198008858218858319D2AFD083D0826A
:1019F30022C0D02518C582C0E0E51934FFC583C0D5
:101A0300E0E518C3958224F310AF08858319858216
:101A1300188008858319858218D2AFC8F0A3E9F02E
:101A2300A3EAF0A3EBF0A37908E709F0A3D8FAEC53
:101A3300F0A3EDF0A3EEF0A3EFF0A3D0E0F0A3D07A
:101A4300E0F0A3D0E0F0A3E520F0A3E5F0F0A322BB
:101A5300851983851882E0C0E0A3E0F9A3E0FAA327
:101A6300E0FBA37808E0F608A3DFFAE0FCA3E0FDBF
:101A7300A3E0FEA3E0FFA3E0C0E0A3E0C0E0A3E097
:101A8300F5D0A3E0F520A3E0A3F5F010AF0885831C
:101A9300198582188008858319858218D2AFD08270
:101AA300D083D0E0F8D0E032740480067402800260
:101AB3007401C0E0F40412185DD0E01217322274EE
:101AC30004800474028000CCC0E0EDC0E0E518C3DC
:101AD3009CCCAD1950011D10AF068C188D198006D2
:101AE3008C188D19D2AF12173FD0E0FDD0E0FC2245
:101AF300D083D082E9C0E0E493A3C386F0C5F09518
:101B0300F0F908E493A386F0C5F095F0700BE49325
:101B1300A3C3994005E9048002A3E475F002A42558
:101B230082F582E5F03583F583D0E0F9E493A3C031
:101B3300E0E493C0E022D083D082ECC0E0EDC0E0CB
:101B4300E493A3FCE493A3FDED4C600D121B85EC21
:101B530024FFFCED34FFFD80EFE493A3FCE493A3A7
:101B6300FDED4C600D121BC4EC24FFFCED34FFFDB6
:101B730080EFD0E0FDD0E0FCE493A3C0E0E493C0A9
:101B8300E022C0E0C3E49396087401939618400FD3
:101B9300E49366700808740193661870007019A3C3
:101BA300A3C3E49396087401939618A3A3400DD09E
:101BB300E0D0E0D0E0021B75A3A3A3A3A3A3D0E0CE
:101BC30022C0E0C0F088F0E49366700808740193C3
:101BD30066187000A8F0A3A3700BD0F0D0E0D0E09B
:0C1BE300D0E0021B75A3A3D0F0D0E022DC
:101BF00074F6121908EAFEEBFF8C088D09EE243406
:101C0000F8E43FF9E8FCE9FDEE2435121F03FAEE93
:101C10002437121F03F88508F0A4C885F00A850947
:101C2000F0A4250AF9EA28F8E439F97A257B0012AC
:101C300017A1EA8C828D83F0FA131313541FF8EE68
:101C400028F8E43FF9E8245DF582E439F583E0C043
:101C5000E074075AF8D0E0B800028004C313D8FC3F
:101C6000A2E0EE50082434F582E43F8018243612B6
:101C70001F03F5F0EA84A8F0EE28F8E43FF9E82421
:101C800038F582E439F583E0F97F030219B474F77B
:101C9000121908EAFEEBFFEE2434121F03C0E0EE37
:101CA0002435F582E43FF583D0E0F08E828F83A364
:101CB000A3A3A3A3A3A3C082C0838E828F83A3A365
:101CC000A3A3A3E0F8A3E0F9D083D082E0C398F502
:101CD00008A3E099F509EE247F121F036401703E0A
:101CE000EE2480F582E43FF583C082C0838E828F2C
:101CF00083A3A3A3A3A3E0240108A3E03400F9D0A5
:101D000083D082E0687003A3E06970127CB17D0427
:101D1000120C69EE247FF582E43FF583E4F0AC0811
:101D2000AD09EEFAEFFB121BF0E9F912265B7F0218
:101D30000219B4C082C083851882851983E0F8A394
:101D4000E0F9C3EA9CEB9D5010C3EC98ED99401B61
:101D5000C3EA98EB995014800EC3EA98EB994007B8
:101D6000C3EC98ED994004790180027900D083D0CA
:101D70008222EAC39CFAEB9DFB2274EF12190890B1
:101D80000376E064086005E06407702A9061C8E0AB
:101D900060249003A4E0F4601DE0F875F00BA4C883
:101DA000AAF02AF974A628FE740339FF8E828F8365
:101DB000A3A3A3E07003021E88906060E0C0E0EE81
:101DC0002468F582E43FF583D0E0F0750C21750DB1
:101DD00005750800750900E5D914F50AE5D954031D
:101DE000F50E60127403650E6043E50A600AEE2486
:101DF00067121F037002807590051CE06401601F6C
:101E0000121F0060047A0480027A00E50AC39AFA7D
:101E100095E0FB120B138A088B09EA45097005123D
:101E20000E978064121F0070048A0C8B0DE50A6007
:101E300012850C82850D83F50BE5D9F0A3150BE512
:101E40000B70F6121F00604474FC250AF50A780C2A
:101E5000121AAFAC0AA90EEEFAEFFB120D237402B0
:101E6000121842E97026AA08AB091213D1793D8EE7
:101E7000828F83A3A3A3A3E0FA7B00120975EEFA75
:101E8000EFFB120C8D120D357900806F7403650E17
:101E90006051850A107511007810121AAFAC0CADA4
:101EA0000DAA08AB09120CE77402121842EE24685E
:101EB000121F0364807004747F8001E0F50C780CBD
:101EC000121AB3E50EF50C780C121AB3A90AAC0875
:101ED000AD099003A4E0FA7B0012094B74021218BA
:101EE000428013900376E06408600BAC0CAD0DEEFD
:101EF000FAEFFB120DAD120EA379017F0A0219B49D
:101F0000EE2483F582E43FF583E02274F21219088F
:101F100074FC12182CEAFEEBFF8909A2AFE433F53A
:101F200008C2AF021FD5E0601B780C121AAFAC0BD1
:101F3000A90EEEFAEFFB120D1D7402121842740482
:101F4000250BF50B7401250BF5D9850ED9E50B6032
:101F500018F50A850C82850D83E0F5D9A385820CDE
:101F600085830D150AE50A70EA75E195EE2463F89C
:101F7000E43FF97A007B00A2AFE433F50BC2AF88EF
:101F8000828983E0FCA3E0FDEC4D603A888289837E
:101F9000E0FAA3E0FB8A828B83E0FCA3E0FD888269
:101FA0008983ECF0A3EDF08A828B83E4F0A3F088C0
:101FB000828983E0FCA3E0FDEC4D700A888289836E
:101FC000A3A3E4F0A3F0E50BA2E092AF1213D1902B
:101FD00004B8E004F0EE2463121F03F8A3E0F9E86C
:101FE000496064EE2463121F032402F8A3E0340066
:101FF000F988828983E5822402F50CE43583F50DA6
:10200000E0F50BA3E0F50EEE2462121F03640170ED
:10201000369061D0E0F8121F0060047C0480027CDE
:10202000007480C398FA95E0FBE50B2CF8E43400CB
:10203000F9E82402F8500109C3EA98EB99A2D265A5
:10204000D0334003021F269004B8E0604D9004B9DD
:10205000E0F89004B8E0C398500C74026509703A37
:102060009004BAE060348E828F83A3A3A3A3E0859B
:1020700018828519831220AA7402121878E8122097
:10208000AA9004B7E028F07402121892AA18AB19AB
:10209000790112099F9004B8E4F0E508A2E092AF3C
:1020A00074041218427F070219B4F0A3E4F09004FC
:1020B000B8E0F8228521878522C622C0E074EB12A1
:1020C00019F4A2AFE433F508C2AF759B00906182AA
:1020D000E0A2E05030E591A2E0502A7591FE740133
:1020E0006521702112224E120DEF12223C121AC2EB
:1020F0001224057404121842E96401700579011272
:102100000E2B121D7A906182E0A2E5505DE591A24E
:10211000E550577591DF900376E064076005E06451
:1021200008702F12224E74016521703E120DEF12BD
:10213000223C121AC21224057404121842E96401E6
:1021400070057901120E2B7901EEFAEFFB121F0BCD
:102150008018E0640D7013900398E004F064287018
:1021600002E4F07A00E0F9120EA9906182E0A2E6A2
:102170004003022211E591A2E6400302221175916B
:10218000BF900376E064057008120DD7120DE3804E
:1021900003120DDD752100120E37E9900377F079F7
:1021A00000120E2B120BD97A017B00900375E0F917
:1021B0001213A1907803E064427056900520E01459
:1021C000F0704EC2AF1221C800782AD0E0F618D0C5
:1021D000E0F6E59F5407F87005750DFF8003750D57
:1021E0007FC4C0E07829E6F50A08E6550DF50B74C2
:1021F0000B780A12180AD0E0250AF8906270E0A263
:10220000E740F8E8C333906272F0906270E0D2E089
:10221000F0906181E0A2E35009E5E9A2E350037583
:10222000E9F7A3E0A2E75009E591A2E75003759111
:102230007FE508A2E092AF7F08021A538E828F8357
:10224000E0F8A3E0C82416F582E438F58322900371
:10225000A4E0F875F00BA4C8AAF02AF974A628FE29
:10226000740339FF22C0E0C0D0C082C08390618374
:10227000E0A2E05009E5BFA2E0500375BFFEE0A276
:10228000E15009E5BFA2E1500375BFFDE0A2E250B5
:1022900009E5BFA2E2500375BFFBE0A2E35009E5E8
:1022A000BFA2E3500375BFF7E0A2E45009E5BFA267
:1022B000E4500375BFEFE0A2E55009E5BFA2E55089
:1022C0000375BFDFE0A2E65009E5BFA2E650037543
:1022D000BFBFD083D082D0D0D0E032C0E074F21241
:1022E00019F4E5A7A2E6500FE5A1A2E6500953A70D
:1022F000BF75A1BF12232FE5A7A2E5500CE5A1A24F
:10230000E5500653A7DF75A1DFE5A7A2E15009E577
:10231000A1A2E1500375A1FDE5A7A2E2500CE5A141
:10232000A2E2500653A7FB75A1FB7F01021A53746A
:10233000F7121908752101900376E06406701512F2
:102340000D598A828B83A3A3A3A3A3A3E0FAA3E0DE
:10235000FB120DC5A2AFE433FED2AF90037CE06464
:102360000170187A207B00900375E0F91214C77A87
:10237000207B00900375E0F91213A7906182E0D2F0
:10238000E6F090051DE0602185C622801690037B53
:10239000E064017008E5C654F84405F5C653BEFC78
:1023A0001220B47401652160E4EEA2E092AF7F02D6
:1023B0000219B4008E238F248582288583278518EF
:1023C00082851983E0CEA3E0CF852882852783EB21
:1023D000C9EAC8EDCBECCA75F010C3E833C8E933DD
:1023E000C9EA33CAEB33CBC3EA9EF526EB9FF5254A
:1023F000B35004AB25AA26EC33CCED33CDD5F0DABF
:10240000AE23AF242274F11219088A088B098C0AB2
:102410008D0B9081B278081216CA740F1218787852
:102420000C1216F09081B2780C1216CA7808790C4A
:1024300012157290816650107808790C1216A278E5
:10244000081215924014800E780C79081216A278A2
:102450000C12159250047901800279007F0802194C
:10246000B474ED1219088A088B098C0A8D0B9081BF
:10247000B278081216CA7413121878780C1216F073
:102480009081B2780C1216CA780C79081215724035
:10249000117808790C1216A2AA08AB09AC0AAD0B88
:1024A00080227510007511007512007513017810E7
:1024B000790C1216A278107908121669AA10AB11BD
:1024C000AC12AD137F0C0219B49081B278081216C9
:1024D000F08A828B8378081216DD7F040219B474A7
:1024E000F51219088C828D8378081216F08A828B77
:1024F0008378081216B6122537C3E09CF0A3E09D3E
:10250000122529402290819A78081216F08A828B2F
:1025100083780812168F8A828B83A3A3A3A3E02457
:1025200020F0A3E0344EF080A0F088828983C3E0DD
:102530009420A3E0944E22EA2404F8E43BF98C8230
:102540008D83A3A3A3A3E0FCA3E0FD88828983225B
:1025500074F5121908E9FE9004D3E0FAA3E0FBEE4B
:1025600029F8E433F974DB28F582748039F583E0C7
:102570002AF508A3E03BF5097808121AAF9081A26A
:1025800012170E1223B474021218428A088B098C97
:102590000A8D0B74107808121631AA08AB097F0453
:1025A0000219B474F11219088A0C8B0D8C0E8D0F60
:1025B0007411121878121AC67411121878E02401D6
:1025C000F508A3E03400F509E4F50AF50B780C7979
:1025D000081215B190817278081216F0780C7908FB
:1025E0001215B1AA0CAB0DAC0EAD0F1223B47402D0
:1025F0001218428B09EA450960047A0180027A00C8
:10260000EC2AFCE43DFD7413121878E0F8A3E0F91D
:10261000E8FEE9FFECF8EDF97A717B021217A18868
:10262000088909E4F50AF50B8E828F837808121663
:10263000FFECF8EDF97A717B021217A18A088B0979
:10264000740578081218198E828F83A3A3A3A3E5BB
:1026500008F0A3E509F07F080219B4C082C083E93D
:10266000906000F0D083D08222C0E0C0D0E8C0E00B
:10267000E9C0E0A2AFE433F8D2AFC2C7E8F9E8A2FC
:10268000E092AFD0E0F9D0E0F8D0D0D0E032C0E0B6
:1026900074F21219F4A2AFE433FED2AFE5BAF879BE
:1026A0000090085CE8F0A3E9F0A8BB7900E4C8F961
:1026B00090085CE048F0A3E049F0E5B5540F9008BD
:1026C0005BF0900857E0FAA3E0FB900856E0F9129F
:1026D00013A1E9EEF8EEA2E092AF7F01021A53C215
:1026E000AF0200002202011FFFFFFFFFFFFFFFFFFD
:1026F000C082C083E9901646F0D083D08202011FC9
:1027000074F612189CE99002E8F0900348E0F5088E
:1027100075090074027808121819AA08AB09121476
:10272000199002E91230B39002E91234A0606F9060
:102730000348E075F003A4FAABF0121419900306F5
:102740001230B39003061234A0700B9002E91234D9
:102750007112141F80489003061244057AFF7BFF14
:102760001211917A0080198A08750900740278089C
:10277000121819123EAD74FF1228B3E4F0A3F00A48
:10278000900348E0F8EAC39840DD790512083790D5
:1027900002E8E0F91207237AC17B08120AB3023F6C
:1027A0005074F412189C8A088B09EB54806047908F
:1027B00002E8E0F91213898A0A8B0BAE0AAF0BEE1E
:1027C0004F602A8E828F83E064B0701A120849E944
:1027D00060148E828F83A3A3A3A3E0F9EE2405FAED
:1027E000E43FFB120819EEFAEFFB121377AA08E593
:1027F000096480FB80047A007B00022A0374F212D1
:10280000189C74FB12182CEAFEEBFFEE4F60457427
:1028100003121878EEF0A3EFF0851882851983EC87
:10282000F0A3EDF07402121878E9F0AA18AB1912AF
:10283000071DE9F50870757413121878E0F50AA3FE
:10284000E0F50BE50A450B60638E828F83122E3C08
:10285000EE4F700575080280537A067B001214193A
:102860008A0C8B0DA80CA90DE8497005750813801A
:102870003B88828983E41228B3EEF0A3EF1229CFBC
:10288000E50AF0A3E50BF09002EC1229C89002ECE7
:102890006017E0FCA3E08003EAFCEBFD8C828D83F3
:1028A0001229C870F38C828D83123AC8A908740566
:1028B000024685F0A31243E7A32274F212189C8902
:1028C00008890C750D007403780C121819850C0A10
:1028D000850D0B9002EBF09002E91238D31229C655
:1028E000602E12141F7900801D890C750D00740272
:1028F000780C1218199002E9123D6C8882F583A3B6
:10290000A3E4F0A3F009900348E0F8E9C39840D9A4
:10291000900348E0FA850AF0A4CAA8F0850BF0A459
:1029200028FB1214198A0C8B0DAE0CAF0DEE4F70F4
:10293000030229BC900348E0FC850AF0A4CCA8F06F
:10294000850BF0A428FD79001213657C0080318D81
:102950000C750D007403780C1218198A828B83127F
:1029600029C188828983E4F01229CEA3A3F0A3F0C1
:102970000DEDC3950840D8EE250AFEEF350BFF0C90
:10298000900348E0F8ECC39850288C0C750D007447
:1029900002780C1218199002E91229C1E824025099
:1029A0000109FAE9FB8A828B83EEF0A3EFF07D0048
:1029B00080BFE5089002EBF07900800279130246AF
:1029C00088123D70F922A3A3123475EA4B22A31298
:1029D00043E7A3A3A32274F412189C7900EAA2E0AF
:1029E000501F75084A7509817808121AAF79107C52
:1029F000047D007A487B161208317402121842E9ED
:102A0000F980007F0402196EC082C0839002EC122C
:102A100034A0601C88828983A3A3E06A7003A3E0CA
:102A20006B8882898370E8A3A3A3A3123471800406
:102A30007A007B000226F974F212189C74FD1218B9
:102A40002CEAFEEBFF851882851983E4F0A3F0746D
:102A5000021218787401F012349D70141209ED12EC
:102A600014199002EF1230B312349D7003022BC977
:102A70001231B3EE2404F50AE43FF50B850A82F522
:102A800083E024FE603C24FC607424FE607E24FE0F
:102A90007003022B1924FE7003022B2624FE700300
:102AA000022B3324FE7003022B4024FE7003022B02
:102AB0004D24FC7003022B6E24FE7003022B860251
:102AC0002BC21209ED9002F1EAF0A3EB122BD51202
:102AD0000465E96003022BC29002F1121AC68E82CD
:102AE0008F83A3A3A3A3A31244058508828509832A
:102AF0001234711208017402121842022BC2AC186F
:102B0000AD19EEFAEFFB12084F022B91AC18AD197C
:102B1000EEFAEFFB1208558078AC18AD19EEFAEF1B
:102B2000FB12085B806BAC18AD19EEFAEFFB1208D4
:102B300061805EAC18AD19EEFAEFFB1208678051A8
:102B4000AC18AD19EEFAEFFB12086D804474021256
:102B50001882880C890D780C121AAF740212189220
:102B6000EEFAEFFB12087374021218428023AC18BD
:102B7000AD19EEFAEFFB120879E9F870167402123B
:102B80001878E4F0803CAC18AD19EEFAEFFB1208AF
:102B90007FE9F8E8602C8E828F83A3E064146022C2
:102BA000850A82850B83E09002F1F08518828519F1
:102BB000831234719002F21230B3E8A3122BD512B3
:102BC000045FEEFAEFFB1207D77402121878E0F9EF
:102BD0007403024685F07CF17D02850882850983B5
:102BE0001234752274E812189C74FA12182C7404AA
:102BF000121878ECF0A3EDF08A128B13EA2405F595
:102C00000EE43513F50FEA2402F510E43513F5113F
:102C1000851082F5831234711205558A0A8B0B7563
:102C200008007C037D0079007AF17B02121365E5D0
:102C30000E2402F516E4350FF51774021218828877
:102C40000C890D780C121AAF850E82850F83A3A311
:102C5000A3A3E0F50C750D00780C121AAFE50E2455
:102C600005F50CE4350FF50D780C121AAF851682B8
:102C700085178312377812073B74061218428A0CA4
:102C80008B0DE50C450D7003022E05802085188202
:102C9000851983E088828983F00508851882851963
:102CA00083A3E0C0E0122E46D0E0F00508E50A2438
:102CB000FBFAE50B34FFFBC3E5089AE49B400302F3
:102CC0002E057E007F00851282851383A3A3A3A314
:102CD000E0F5097809121AB3E4F514F51578141221
:102CE0001AAF7514EE7515027814121AAF9002EF30
:102CF000121AC67409121878121AC6E50A24F9F9CC
:102D0000AC0CAD0D8510828511831234711208A9A7
:102D10007409121842E96003022DA6850E82850F00
:102D200083A3A3A3A3A3A3A3E0F89002EEE068709B
:102D300075E0F5148E157814121AAF124402850E40
:102D400082850F83A3A3A3A3A3A3A3A31234711209
:102D5000135F7402121842E9604C9002F21234A020
:102D6000703BE4F5147814121AAF7CFF7DFF7907ED
:102D7000851082851183123471120813740212189F
:102D8000421234A67017850E82850F8312459F74F8
:102D900004121878123E601237A9022E39850C826F
:102DA000850D83122E3CA818A9198814891578144A
:102DB000121AAF7404121878121AC6851682851773
:102DC000831230A912074774041218428A0C8B0D23
:102DD000EE4F7003022C82122E46EE122E51123745
:102DE0005FEF122E51F8A3E03400F9E50C450D60B9
:102DF00003022C8D8882898374FFF00508122E4609
:102E000074FFF00508E508601A1313543F1230B937
:102E1000120471E960099002F21234711213D1792F
:102E2000008016850E82850F8312459F7404121848
:102E300078123E60123AC8790A023732A3A3A3A3DC
:102E4000E0FEA3E0FF22A8089002F2E02812375F1C
:102E500022F00508089002F2E0282274E812189C7B
:102E600074FA12182C74021218781230B374041207
:102E70001878ECF0A3EDF07402121878E024051233
:102E80003748E0F50CA3E0F50D7402121878E02441
:102E900002F510A3E03400F511851082F583123499
:102EA00071120555750800750900EA24FCFEEB3423
:102EB000FFFF8008050CE50C7002050DA808C3EEA5
:102EC00098EF94005003023065A818A919880E895C
:102ED0000F780E121AAF851482851583A3A3A3A3BE
:102EE000124409121AAFE5142405F50EE43515F560
:102EF0000F780E121AAF8514828515831230A7122F
:102F0000073B74061218428A0E8B0FEA450F7003B6
:102F1000023065EA2404F516E4350FF517851682AC
:102F2000F583E0F50CA3E0F50D8518828519831271
:102F300044058A828B83A3A3A3E0F98510828511BF
:102F400083123471120729E9F509600302306574B0
:102F50000212187812376FF5097809121AB3E4F5DE
:102F600012F5137812121AAF7512EE751302781259
:102F7000121AAF9002EF121AC67407121878121ABA
:102F8000C6EEF9AC0EAD0F85108285118312347137
:102F90001208A97409121842E9F5096003023065A4
:102FA000E508703FE4F50EF50F780E121AAF7CFFBE
:102FB0007DFF7909851082851183123471120813FF
:102FC0007402121842123795700D74041218781298
:102FD000309C79110230999002EEE024029002F2C6
:102FE000F080149002F2E0FA9002EEE07900240200
:102FF0005001096A497072A8089002EEE0FAE82AC6
:10300000FAE43400FBEE9AEF9B405A85168285174E
:1030100083E0C0E09002F3122E4BD0E0F00508856B
:103020001682851783A3E0C0E0089002F3122E4BAE
:10303000D0E0F005089002EE124409121AAF1244D3
:1030400002A80812373C12134D7402121842900263
:10305000EEE02508F50874FF650C700474FF650D3B
:103060006003022EB4E508601F9002F2E0F5F0E57F
:1030700008841230B9120477E960099002F312341F
:10308000711213D179008011E509700375090A7472
:103090000412187812309CA9090237321238D7E589
:1030A0000CF0A3E50DF022A3A3124694AA0CAB0DDD
:1030B00022A3A3EAF0A3EBF0229002F1F07CF17DD1
:1030C000028510828511831234752274EC12189CCB
:1030D00074FC12182C123BD8740212189212346B22
:1030E0001207418A0C8B0DEA450D70030231A312C1
:1030F00031B3A818A919881089117810121AAF7C59
:10310000FF7DFF790B8508828509831234711208CF
:103110001374021218421232A9700C850A82850BB0
:10312000831237A60231B08E828F83A3A3A3A3E0BC
:10313000F5127812121AB3E4F512F5137812121A76
:10314000AF7512F17513027812121AAF7810121AB5
:10315000AF7409121878121AC67409121878E0F9B7
:10316000AC0CAD0D8508828509831234711208A953
:103170007409121842E9FE70157CF17D02850882FF
:1031800085098312347112047DE970098020741658
:103190006E70027E009002F21234711213D1EE7042
:1031A00004800B7E01850A82850B83123AC5EEF9F5
:1031B000023ADAEE2402F508E43FF5092274EC1233
:1031C000189C74FC12182CEAFEEBFF8C0E8D0FEE8F
:1031D0002405F508E43FF509740212189285088267
:1031E0008509831234711207418A0C8B0DEA450D53
:1031F0007003023299EE2402F50AE43FF50BA81899
:10320000A919881089117810121AAF7CFF7DFF79F7
:103210000D12346B12081374021218421232A97084
:103220000B8508828509831237A6807A8E828F8368
:10323000A3A3A3A3E0F5127812121AB3850882851E
:103240000983A3A3121AC67512F17513027812121C
:103250001AAF7810121AAF7409121878121AC674BD
:1032600009121878E0F91234671208A974091218C3
:1032700042E9FE700F7CF17D0212346B120483E987
:103280007009802074166E70027E009002F2123473
:10329000711213D1EE7004800B7E018508828509BE
:1032A00083123AC5EEF9023ADA1234B0F510A3E00F
:1032B000F511EA45112274E812189C74FE12182CBC
:1032C0008A168B178C148D15EA2405F50CE4351736
:1032D000F50DEA2402F50EE43517F50F850E82F59B
:1032E000831234711205558A088B09750B007C0313
:1032F0007D0079007AF17B02121365750A00E508FA
:1033000014F5100424FFF508E50934FFF50980548D
:103310009002F1E0FA9002EEE0F8EA28F8E43400D6
:10332000F9E50898E50999500D9002F1E0F8E510EB
:10333000C3989002EEF0E0F5127513007812121A9D
:10334000AF1244029002F2E02AFAA3E03400FB122A
:10335000134D74021218429002EEE0F89002F1E070
:1033600028F0050A850C82850D83A3A3123D7C40BD
:103370000302344C9002F1E0C39508E49509400340
:1033800002344CAE0AEE2EFEE433FF12348BAC183E
:10339000AD1912441DE439FB1207418A128B13AC9C
:1033A00012AD13EC4D701B750B0112347B123AC930
:1033B0009002F21229C860031213D1A90B74020201
:1033C0003734851682851783A3A3A3A3E0F50B7872
:1033D0000B121AB3E4F512F5137812121AAF751224
:1033E000EE7513027812121AAF9002EF121AC67419
:1033F00007121878121AC6A910850E82850F83123B
:1034000034711208A97409121842E9F50B709B90E7
:1034100002F21234A06003023310E4F512F51378BF
:1034200012121AAF7CFF7DFF790F850E82850F8304
:1034300012347112081374021218421234A6600377
:1034400002331012347B1237AA0233BD7CF17D02A5
:10345000850E82850F83123471120489E96003029C
:1034600033B079000233BDAC0CAD0D850A82850BFB
:103470008312347522E0FAA3E0FB2212348BE0FAC7
:10348000A3E0F9EA85148285158322850C82850DD7
:1034900083E02EF8A3E03FF988828983229002EF2F
:1034A0001245A3E849221234B0F8A3E0F9E8492212
:1034B0009002F2EAF0A3EBF09002F2E02274E8123C
:1034C000189C74FA12182C74041218781230B38CE9
:1034D000168D177404121878E02405F50EA3E03455
:1034E00000F50F7404121878E024021237481234E1
:1034F000711205558A0A8B0B7F007E00A818A91946
:10350000880889097808121AAF850E82850F83A36F
:10351000A3A3A3E0F5088E097808121AAFE50E24DC
:1035200005F508E4350FF5097808121AAF850E8203
:10353000850F83A3A312377812073B740612184233
:103540008A0C8B0D8029123769F00F123769F00F42
:103550009002EE123AB4121AAF124402EFF8123788
:103560003C12134D74021218429002EEE02FFFE558
:103570000C450D70030235F8851882851983123BBE
:10358000EAA3A3A3E0F9851482851583123471128E
:103590000729E9FEE50C2404F510E4350DF511EEDC
:1035A0007050740412187812376FF5087808121AE0
:1035B000B3E4F508F5097808121AAF7508EE750935
:1035C000027808121AAF9002EF121AC67407121886
:1035D00078121AC6E50A24FAF9AC0CAD0D851482EE
:1035E0008515831234711208A97409121842E9FE74
:1035F0006039123785123AC8EF700302371F900204
:10360000F2E0F5F0EF849002F1F07CF17D02851498
:103610008285158312347112048FE960099002F3D8
:103620001234711213D179000237328F08EF703BD8
:10363000E4F512F5137812121AAF7CFF7DFF7911B1
:1036400085148285158312347112081374021218BE
:103650004212379570091237851237A90237329016
:1036600002EEE024049002F2F080359002EEE0F8E1
:103670009002F2E0FAE82404FCE43400FDEC6A4D28
:1036800060030235FEE50A24FAFAE50B34FFFBE598
:103690000828F8E43400F9EA98EB9950030235FE63
:1036A000851082851183E0C0E09002F3E02FF8A33B
:1036B000E034008882F583D0E0F00F851082851118
:1036C00083A3E0C0E0123756D0E0F00F7402121866
:1036D00082880889097808121AAF740212187812C1
:1036E0001AC6850E82850F831230A712074774040D
:1036F0001218428A0C8B0DEA450D70030235467490
:1037000002121878E0C0E0123756D0E0F00F7402D1
:10371000121878A3E0C0E0123756D0E002354EEE22
:1037200070027E0A850E82850F8312378B123AC88B
:10373000EEF974061218427F1002196E9002F3E03F
:1037400028FAA3E03400FB22F514A3E03400F515B9
:10375000851482F5832212375A229002F3E02FFA61
:10376000A3E034008A82F5832212375A74FF2212B2
:1037700038D7A3A3A3A3E022124694850E82850F17
:1037800083123475228510828511831245A3851614
:1037900082851783229002F3EAF0A3EBF09002F304
:1037A0001245A3E84922123ACEE8F0A3E9F07911D4
:1037B0002274EA12189C74FE12182C8A088B098C49
:1037C000128D13EA2405FEE43509FFAC18AD198EFD
:1037D000828F831234711207418A0C8B0DEE2406FE
:1037E000F50EE43FF50FEA450D70030238A9E50830
:1037F0002402F50AE43509F50B8A828B83A3A3A37F
:10380000E0A2E550288518828519831234711208C8
:103810009D8A108B11EA4511602079121234678558
:10382000108285118312189AE9F50C707F850E823B
:10383000850F83E0600979528011750C0E806D85CB
:103840000882850983A3A3A3A3E0F9E4F508F50999
:103850007808121AAF8E828F83A3A3E0F508780848
:10386000121AAF8E828F83A3A3A3121AC68E828FE1
:103870008312440512346B1208AF7406121842E921
:10388000F50C7011850E82850F83E0702D12346B5C
:1038900012049580257416650C7011750C0074184F
:1038A0001218781238D3E48010750C0112459B85EC
:1038B0001282851383E8F0A3E9F0850E82850F83D9
:1038C000E0600479008002A90C74021218427F0E95
:1038D00002196E1238D722E0F8A3E0F5838882221D
:1038E00074EC12189C74F712182C8A0A8B0B8C102B
:1038F0008D11EA2405FEE4350BFF750C00AC18AD04
:10390000198E828F831234711207418A088B09EA5B
:1039100045097003023A9FE50A2402F50A500205A0
:103920000B8A828B83A3A3A3E0A2E5502F85188284
:1039300085198312347112089D8A0C8B0DEA450D8E
:10394000604F7912AC08AD0912346B850C82850D7D
:103950008312189AE9F50C6003023AA2850A82855F
:103960000B83E0F508A3E0F509AA08FB120891EA29
:103970004B70197AFF7BFF120891EA4B7003023AF1
:10398000958A828B83E508F0A3E509F0750800802D
:1039900008750C0E023AA205089002EBE0F8E50863
:1039A000C3984003023A9585080E750F007403789A
:1039B0000E1218198A828B83A3A3E0250EF8A3E0C8
:1039C000350F123E6970D08E828F83123ABD12304D
:1039D000B38E828F83A3A3123ABD1230B1EE2404BA
:1039E000F508E43FF509850882F583E0888289833C
:1039F000A3A3A3A3F0A3E4F0EE2405F50EE43FF5A2
:103A00000F850E82F583123ABDA3A3A3A31230B192
:103A10007512077513007812121AAFEEFCEFFD74E1
:103A20000412188A12134D7402121842E4F5127827
:103A300012121AAF850882850983E0FC7D00791790
:103A400012346B1208137402121842740712187899
:103A50001230B37407121878E0FA4B603D85088283
:103A6000850983123AB4121AAF850E82850F83122C
:103A7000440512134D740212184274021218921265
:103A8000346B12049BE960267407121878123471A3
:103A90001213D18019750C098008750C11800375FB
:103AA0000C0112459B851082851183123AC8A90C1E
:103AB00074098028E0F50875090078082212347529
:103AC0008882898322123ACEE8F0A3E9F022E0F856
:103AD000A3E0F9850E82850F832274041218427FB9
:103AE0000C02196E74EC12189C123BD8751000EE83
:103AF0002402F50CE43FF50D850C82F58312347138
:103B00001208918A088B09EA45097003023BBC85BB
:103B10000A82850B83E064016003023BB1AC08AD0F
:103B200009AA0AAB0B120885E9606E85088285092F
:103B300083122E3EEE2406F50AE43FF50B8E828FAB
:103B400083A3A3121AC68E828F83A3A3A3A3121AE0
:103B5000C6850A82850B83121AC679188E828F83D6
:103B6000123BEA1234711208AF7406121842E9F8D7
:103B7000741668700B850A82850B83E4F0A38014A9
:103B8000E860128E828F83123471850E82850F83D6
:103B9000EAF0A3EBF088108018780E121AAFAC0888
:103BA000AD09EEFAEFFB12088B7402121842E9F528
:103BB00010AA08AB09120897E510700E850C8285D3
:103BC0000D831234711204A18009741665107003FC
:103BD000751000A910023ADFEAFEEBFF8C0E8D0F84
:103BE000EE2405F50AE43FF50B22124694850C827B
:103BF000850D832274EA12189C7508007509007EF1
:103C0000007F00750A00EC2402F510E43DF51180F8
:103C100035EC65087003ED65096003023CA98882F4
:103C20008983A3A3E06A7003A3E06B707C88828918
:103C300083A3A3A3A312459FEE28FEEF39FFEA2832
:103C4000FAEB39FB050A123D79503A850A0C750DDD
:103C5000007403780C121819851082851183123DA7
:103C60006C123E69601FE508450970A58C088D0936
:103C700088828983122E3C88828983A3A3E02EFA4E
:103C8000A3E03F80BEE50AC394025003023D67757E
:103C90000800750900EE4F6010EEFAEFFB1213CB2F
:103CA0008A0E8B0FEA450F70057900023D69750B8E
:103CB00000023D3C850B0C750D007403780C121846
:103CC00019851082851183E0250CF50CA3E0350DD4
:103CD000F50DE50C2406F514E4350DF51585148273
:103CE000F583123E6E6042E50C2404F512E4350DB6
:103CF000F513851282F583121AC6E50E2508FAE53A
:103D00000F3509FB12134D74021218428512828579
:103D10001383E02508F508A3E03509F50985148229
:103D20008515831234711213D1E50B600D7C087D6B
:103D3000007900AA0CAB0D121365050BE50BC395BA
:103D40000A5003023CB485108285118312459F8876
:103D5000828983A3A3A3A3A3A3E50EF0A3E50F1277
:103D600029CFEEF0A3EFF079010238CE123D702298
:103D7000E0250CF8A3E0350D229002EBE0F8E50A0F
:103D8000C3982274F012189C8A0E8B0F8C0A8D0B2C
:103D9000750D00750C0080507916EE2406F508E4C8
:103DA0003FF5098E828F83A3A3121AC68E828F835A
:103DB000A3A3A3A3121AC6850882850983121AC673
:103DC000850E82850F83A3A31234711208AF740687
:103DD000121842E9F50D7416650D706C8508828520
:103DE0000983E4F0A3F0050C9002EBE0F8E50CC3C6
:103DF000985066AA0C8A087509007403780812188E
:103E000019850A82850B83A3A3123EB8E8FEE9FF59
:103E10008E828F83123E6E6040EA2401F508E434FE
:103E200000F5099002EBE065087002E5096014886E
:103E3000828983A3A3A3A3A3A3A3A31234A0600393
:103E4000023D987918023D9AE9609B12459B7410D7
:103E5000121878123E60123AC8A90D7F0802196E36
:103E6000E0FAA3E0F5838A8222F9888289831246E8
:103E700094EC4D2274F612189C7C0080010C900387
:103E800048E0F8ECC398501E8C087509007402785D
:103E900008121819123EADE06A7003A3E06B70DDE2
:103EA000E8FAE9FB80047A007B00023F509002E9C7
:103EB000123EB88882898322E02508F8A3E03509FC
:103EC000F92274F212189C8A088B09750A0080275F
:103ED0008E828F83A3A3A3A31229C660031213D1DA
:103EE0007C087D007900EEFAEFFB1213658E828F5D
:103EF00083E4F0A3F0050A123D795027850A0C757A
:103F00000D007403780C121819850882850983A3A3
:103F1000A3E0250CFEA3E0350DFF8E828F831234C3
:103F2000A070AD85088285098374FFF0A3F0024676
:103F30008874F612189C1208438A828B83E58245A6
:103F40008370067A007B008007A3A3A3A3123471B9
:103F50007F0202196E74F412189C89088C828D837A
:103F6000E06402703C12453EFEA3E0F9EEF87402F4
:103F70006870037429697029750A02750B00780A44
:103F8000121AAF7410121878121AC6741012187818
:103F9000121AC6A9081211A37406121842E9F98070
:103FA000027901022A0374E812189C74FB12182C7F
:103FB000E9851882851983F08A168B17ECFEEDFFD0
:103FC0007510008E828F83A3A3A3E0A2E4502D740A
:103FD0001D12187812347112089D8A828B83E58233
:103FE000458370030243DD790AEEFCEFFDAA16ABB0
:103FF0001712189AE9F51060030243E0741F1218B3
:1040000078E0F508A3E0F5097421121878E0F50AC4
:10401000A3E0F50B7423121878E0F50EA3E0F50F7A
:104020008E828F83E06402600302437EA312459F69
:10403000850882850983A3858212858313EE240671
:10404000F50CE43FF50D8882898312441DF514E4D4
:1040500039F5157814121B39010000280128804019
:104060000700022845410328B34000297442012972
:104070009F420229404203297442042918437E4387
:10408000E50E450F6003024379850C82850D83128E
:10409000459FE8FAE9FB8A828B83E0850A82850BDB
:1040A00083124428121AAF8A828B83A3E0FCA3E018
:1040B000024302E50E450F6003024379850A8285BB
:1040C0000B837401F0124412850882850983F07C09
:1040D000007D008E828F83A3A3A3A3E02401FAA313
:1040E000E03400FB120741EA4B60408A828B83E098
:1040F0002402F8850A82850B83E028F0EA2404F87C
:10410000E43BF988828983E0851282851383124417
:1041100036124428121AAF8A828B83A3124405E513
:10412000082403FAE43509FB024307850A82850B5C
:1041300083E02404F07C047D007900AA12AB131202
:1041400013650243E0E50E450F6003024379124414
:1041500012FEA3E0FF850A82850B837404F0EE85CE
:104160000882850983F0EF851282851383F074033A
:10417000121892EEFAEFFB1207418A0C8B0DEA45FA
:104180000D70030242238A828B83A3A3122E3C74F8
:1041900001121882880E890F780E121AAF74051258
:1041A0001878121AC67CFF7DFF1207477404121894
:1041B000428B0FEA450F7033850C82850D831244C4
:1041C00009121AAF850C82850D83A3121AC67C02D0
:1041D0007D007AD77B811205437404121842E9707E
:1041E0000A740112187874FFF0A3F08E828F83E0B6
:1041F00064027039750C02750D00780C121AAF8EBE
:10420000828F83A3124405E5082404FAE43509FBF0
:1042100012134D7402121842850A82850B83E02422
:104220000280097401121878EEF0A3EFF074011205
:1042300018781243F774011218781243EE02437390
:10424000E50E450F6003024379850C82850D8312CC
:10425000468DAA16AB171211A9850A82850B8374A5
:1042600002F0850882850983EAF08512828513832E
:10427000EB024376E50E450F6003024379124412C8
:10428000F8A3E0F9850A82850B837402F0E88508BB
:1042900082850983F0E9851282851383024376853E
:1042A0000C82850D83123471121347EAFAF8C39514
:1042B0000EE4950F405CE8650E450F70047A0080AF
:1042C00021851882851983E0FCE50E2CFCE4350F6E
:1042D000FDC3EC98ED94005003E08005E50ECAC3E1
:1042E0009AFAEA850A82850B83F08A0A750B0078B0
:1042F0000A121AAF850C82850D83E0250EFCA3E01F
:10430000350FFDAA08AB0912134D740212184202B0
:1043100043E07510070243E0E50E450F705B850C26
:1043200082850D8312459F850A82850B837407F071
:10433000888289831243EF1243E7E0851282851356
:1043400083F0E82402FAE439FB8A828B831243F774
:104350008A828B831243EEA3A31229CE1243FCF070
:10436000E82405F8500109888289831243FCA312CE
:104370004436A3A3A3A3F0806775100B8062741D5D
:104380001218781234711208438A828B83E58245B1
:1043900083604A12459F880C890DE8450D603E7484
:1043A00025121878E0F5107810121AB3780E121A48
:1043B000AF780A121AAF7808121AAF740712187879
:1043C000E0F9EEFCEFFDAA16AB17850C82850D8394
:1043D00012189A7407121842E9F510800375100E2E
:1043E000A9107405023734F088828983A322A3E0E0
:1043F0008508828509832212443DF02212443DA3A0
:10440000A3229002EF12469422E0F50E750F007879
:104410000E22850C82850D831238D7E022E0FAA3A4
:10442000E0F8E4C8F9EA2822F08A828B83E0F50AF2
:10443000750B00780A221243E712443D22E08508FA
:1044400082850983A3A32274EE12189C74FE1218AD
:104450002C8A088B09ECFEEDFF890AAC18AD19EE29
:10446000FAEFFB1207418A0C8B0DEA450D7003022F
:10447000452F8518828519831234711208438A8268
:104480008B83E5824583700302452AA3A312459FCF
:10449000880E890FE8450F700302452A741412181C
:1044A00078E0F510A3E0F511E50AF50B780B121A88
:1044B000B37419121878121AC67810121AAF741B36
:1044C000121878E0F9AC0CAD0DAA08AB09850E8284
:1044D000850F8312189A7405121842E9F50B705271
:1044E00074FE650A604C850C82850D83E064027061
:1044F0004112453EFAA3E0F9EAF8740268700374C9
:104500002969702E85108285118312441DF50CE4F3
:1045100039F50D780C121AAFEEFCEFFDAA08AB09C5
:104520001208C774021218428008750B0E800375BA
:104530000B01A90B74021218427F0A02196EA31212
:1045400045A388828983E02274F612189C74FE12B7
:10455000182C740C12187812459FE885188285195A
:1045600083F07401121878E9F0E4F508F509780889
:10457000121AAF7508027808121AAF740412188262
:10458000880889097808121AAF79FE1208AF7406F4
:104590001218427402121842023F508E828F831208
:1045A00045A322E0F8A3E0F92274F712189CEAFE72
:1045B000EBFF89089003061244051211A9EA540280
:1045C000600BA908EEFAEFFB120735800279017F34
:1045D0000102196E74F212189C74FE12182CEAFE75
:1045E000EBFF890A7401650A60147402650A6003AE
:1045F0000246837901120AD1E96003024683EEFA8A
:10460000EFFB120891EA4B6003120897A818A9194A
:10461000880889097808121AAF75080275090078A8
:1046200008121AAF7508DD7509817808121AAF7C77
:10463000FF7DFF7A017B0012073B7406121842804F
:1046400038850882850983A3A3A3A3A3A312468D5B
:10465000EEFAEFFB121191E4F50CF50D780C121A3D
:10466000AF7402121878121AC67CFF7DFFAA08AB3D
:104670000912074774041218428A088B09E5084595
:104680000970BE74021218427F0602196E1238D7E2
:1046900012469422E0FCA3E0FD2274F412189C8AD6
:1046A000088B09ECFEEDFF901646E0F4604B7A09AA
:1046B0007B00121371EA4B60408A828B8374B1F0E5
:1046C000A3E41246FCF08A828B83A3A3E508F0A33F
:1046D000E5091246FCA3EEF0A3EFF0740C12187873
:1046E00012459F8A828B83A3A3A3A3A3A3A3123AF9
:1046F000C8901646E0F912137D022A03F08A828BD5
:1047000083A3A3A3A32274EE12189C74FA12182C8C
:104710008A0A8B0BE9FF8C088D097E00850A0C85BF
:104720000B0D780C121AF3000410E2494E47714742
:104730009047B347D647F9472A484D4864489448BC
:10474000434966498949B749E249E249BD4874018C
:104750006F7019850882850983E0C39403500D8525
:104760000882850983E0901732F080027E18024AA1
:104770000A74026F7015850882850983E0F8A3E04A
:10478000F9901733E8F0A3E9F080027E18024A0A94
:1047900074016F7019850882850983E0C394025003
:1047A0000D850882850983E0900749F080027E1814
:1047B000024A0A74016F7019850882850983E0C373
:1047C0009405500D850882850983E090074AF080A2
:1047D000027E18024A0A74016F70198508828509E1
:1047E00083E0C39402500D850882850983E0900719
:1047F0004BF080027E18024A0A74106F7027750C05
:1048000010750D00780C121AAFAC08AD097A4C7B0C
:104810000712134D74021218428A0C8B0D850C82FC
:10482000850D8380027E18024A0A74016F70198513
:104830000882850983E0C39402500D8508828509AA
:1048400083E090075CF080027E18024A0A74016FD0
:10485000700D850882850983E0901736F080027E0E
:1048600018024A0A74046F70269081A2780C1216FE
:10487000F0850882850983780C121582501185080D
:104880008285098312171A90075E12172680027E0E
:1048900018024A0AEF70211206DBE9701312113771
:1048A000E9F50D795012149DE9F50C121125800AD5
:1048B0009007F17401F080027E18024A0A74076FB3
:1048C000707C750E06750F00780E121AAF8508827F
:1048D000850983A3AC82AD83740212188A12135324
:1048E00074021218428A108B1185100E85110F7CEC
:1048F000007D00AA18AB19850882850983E0F912AA
:1049000010CBE9F50CE50CC3940A502E1206DBE936
:104910007015A90C12113DE9F50E795012149DE99C
:10492000F50D1211258019A80C790074F228F58272
:10493000740739F5837401F080067E0280027E18C8
:10494000024A0A74016F7019850882850983E0C3E1
:104950009402500D850882850983E090075DF08000
:10496000027E18024A0A74016F701985088285094F
:1049700083E0C3940A500D850882850983E090176F
:1049800035F080027E18024A0A74016F702585088E
:1049900082850983E0C394074019850882850983CD
:1049A000E0C39411500D850882850983E090173784
:1049B000F080577E18805374016F70229007F0E0EA
:1049C000F50C850882850983E09007F0F0E50C700E
:1049D000399007F0E064017031121125802C7E18A7
:1049E0008028C3E50A9427E50B9400501B74026FDE
:1049F0007016850882850983E0FCA3E0FDAA0AAB56
:104A00000B12055BE9FE80027E02EEF974061218B5
:104A1000427F0A02196E74EC12189C74DA12182C78
:104A2000890D8A128B138C0A8D0B743A121878E058
:104A3000F50C908132AC18AD19740612173FAC1802
:104A4000AD19AA12AB13A90D1210CBE9FEEEC39457
:104A50000A4003024B8AEEF9121107E9FF90173260
:104A6000E064027004740180027400F50878081292
:104A70001AB3AD0CEFFCEEF9AA0AAB0B1211797464
:104A8000011218427C147D007900741212188A12E7
:104A900013658A0E8B0F850E08850F097412121884
:104AA000927A1075F006EEA42424F9121497E97096
:104AB0003C7C1079FF741212188A1213C5E9702D0C
:104AC0007422121878AC82AD837A0475F006EEA4D5
:104AD0002425F9121497E9F5087412121892EFA21E
:104AE000E0E433F9AA0AAB0B1205E5E9F874061203
:104AF00018927A0C74702EF9121497E97079740672
:104B000012188A1210FB750E00E50EC3940450674C
:104B1000A80E7900E875F003A4C8AAF075F000A407
:104B20002AFA75F003E9A42AF97406121878E582C6
:104B300028F508E58339F509850882850983E0F8B9
:104B4000A3E0F9E849602C850882850983A3A3E0E6
:104B5000F5107511007810121AAF85088285098347
:104B6000E0FCA3E0FDAA0AAB0B1208B57402121810
:104B700042E9F8050E8092EFA2E1500E900748E05E
:104B8000F9AA0AAB0B1208BBE9F87404650C700FA4
:104B9000901732E064027007AA0AAB0B1211737906
:104BA0000074261218427F0C02196E74F712189CBA
:104BB000EAFEEBFF1206DBE970679007F1E06401A3
:104BC000701B121137E9F5089007F17400F07C0AA8
:104BD0007D0079007AF27B07121365803975080031
:104BE000E508C3940A502FA808790074F228F582CA
:104BF000740739F583E064017018A90812113DE9C2
:104C0000FAA808790074F228F582740739F58374DC
:104C100000F0050880CA795012149DE9F5081211B8
:104C2000257F0102196E74F212189C890BEAFEEBC3
:104C3000FF8C088D09750A0AE50B600C14600914D5
:104C40006044146064024CCBEEFAEFFB121119E9D8
:104C5000F50AE50AC3940A5072E5084509606C75C7
:104C60000C06750D00780C121AAFEEFCEFFDAA08C9
:104C7000AB0912134D74021218428A0C8B0D850C6D
:104C800082850D838045EEFAEFFB121113E9F50AD8
:104C9000E50AC3940A5034E5084509602EAA08AB1A
:104CA00009A90A12110DE98022EEFAEFFB12111F79
:104CB000E9F50AE50AC3940A5011E5084509600BB5
:104CC000AA08AB09A90A12110DE9F8A90A7F060280
:104CD000196E74F212189C8A0C8B0DE9FF7E157404
:104CE000FF650C700474FF650D702A750800E508F7
:104CF000C3940A5014EFFC7A027B00A9081210E951
:104D0000E960027E00050880E5EF60627A617B1150
:104D1000120AF58059AA0CAB0D120AC58A0A8B0B30
:104D2000850A08850B09E508450960407C007D007F
:104D3000E5082405FAE43509FB850882850983A383
:104D4000A3A3A3E0F91210CBE9F50AE50AC3940A7C
:104D5000500EEFFC7A027B00A90A1210E9E97E00EE
:104D6000EF600BAA08AB0912116180027E14EEF904
:104D70007F0602196E74EE12189C8A0E8B0F8C0A35
:104D80008D0B7412121878E0F50CA3E0F50D750880
:104D90001574FF650E700474FF650F701E7E00EEC3
:104DA000C3940A5061AC0CAD0DAA0AAB0BEEF9121C
:104DB00010EFE960037508000E80E4AA0EAB0F1235
:104DC0000AC58A108B11AE10AF11EE4F60357C0012
:104DD0007D00EE2405FAE43FFB8E828F83A3A3A31C
:104DE000A3E0F91210CBE9F509E509C3940A5016BE
:104DF000AC0CAD0DAA0AAB0BA9091210EFE97508AE
:104E0000008003750814A9087F0A02196E74F7124E
:104E1000189CEAFEEBFF900762EEF0A3EFF090071C
:104E200048E0FC7D007A267B0012055BE9F50890DE
:104E30000748E0F912081F7F0102196E74F012187A
:104E40009C74EC12182C8A0C8B0D850C82850D83BA
:104E5000A3A3E024FA70030252B524FD70030251AB
:104E60002A147003024F2C14601024FD70030250AA
:104E7000D21470030251690252C8AE0CAF0D9007F4
:104E800062E0F8A3E0F9E8496066900762E0F8A301
:104E9000E0F5838882E0F8A3E0F9E8496052EE2467
:104EA0000CF582E43FF583E0F5087808121AB3EEBA
:104EB000240BF582E43FF583E0F98E828F83A3A370
:104EC000A3A3A3A3A3A3A3E0FCA3E0FDEE2403FA02
:104ED000E43FFB900762E0F8A3E0F5838882E0F806
:104EE000A3E0F583888212189A740112184280395F
:104EF0008E828F83A3A3A3A3A3A3A3A3A3121AC6E3
:104F000090075E12170E1205F77402121842E9603C
:104F10001879018E828F83A3A3A3A3A3A3A3A3A322
:104F2000E0FAA3E0FB1205F1E90252C8AE0CAF0DA6
:104F30007508008E828F83A3E060030250548E8236
:104F40008F83A3A3A3A3A3E0A2E040030250549045
:104F500007FCE0F8A3E0F9E84960030250547C0E36
:104F60007D007900AA18AB191213658A0A8B0BAA67
:104F70000AAB0BEE240CF582E43FF583E0F8A3E0E6
:104F8000F9E8496036750A06750B00780A121AAFFF
:104F9000EE240CF582E43FF583E02410FCA3E0341A
:104FA00000FD740212188A12134D74021218428AFC
:104FB0000A8B0B850A82850B83804F8E828F83A399
:104FC000A3A3E0FAA3E0FB120AC58A0E8B0F850E9D
:104FD0000A850F0BE50A450B602D750E06750F004F
:104FE000780E121AAFE50A2405FCE4350BFD7402B5
:104FF00012188A12134D74021218428A0E8B0F85F2
:105000000E82850F8380030252C88E828F83A3A3F2
:10501000A3A3A3E0A2E25004D2F08002C2F0A2F067
:10502000E433F87900740C121878E048F0A3E049F2
:10503000F0EEFCEFFDAA18AB19121101E970127A1B
:10504000027B00900748E0F91213A1E979000252AF
:10505000CA750815900762E0F8A3E0F9E849606FA7
:10506000900762E0F8A3E0F5838882A3A3E0F8A3A9
:10507000E0F9E84960598E828F83A3E0FC79018EC4
:10508000828F83A3A3A3E0FAA3E0FB900762E0F87A
:10509000A3E0F5838882A3A3E0F8A3E0F5838882E8
:1050A00012189AE5086028AC0879038E828F83A3D2
:1050B000A3A3E0FAA3E0FB900762E0F8A3E0F58386
:1050C0008882A3A3E0F8A3E0F583888212189A02ED
:1050D00052C8AE0CAF0D900762E0F8A3E0F9E849C2
:1050E0006045900762E0F8A3E0F5838882A3A3E01F
:1050F000F8A3E0F9E849602F850C82850D83A3E0D1
:10510000FC79028E828F83A3A3A3E0FAA3E0FB9035
:105110000762E0F8A3E0F5838882A3A3E0F8A3E0A8
:10512000F583888212189A0252C8AE0CAF0D7C002B
:105130007D00EE2404FAE43FFB8E828F83A3A3A3B9
:10514000E0F91210CBE9F508E508C3940A5017EE10
:10515000240AFCE43FFD7A0475F006E508A4242542
:10516000F9121491E9F80252C8AE0CAF0D90075D28
:10517000E06019901735E0F98E828F83A3A3A3E036
:10518000FAA3E0FB1205F1E9F80252C8901732E0E9
:10519000701679058E828F83A3A3A3E0FAA3E0FBA8
:1051A0001205F1E9F80252C88E828F83A3A3A3E00F
:1051B000FAA3E0FB120AC58A0A8B0B850A08850B45
:1051C00009E508450970030252C88E828F83A3A3A4
:1051D000A3A3A3A3A3E0A2E0506D85088285098361
:1051E000A3A3A3A3E060608E828F83A3A3A3A3A342
:1051F000A3A3A3A3E0F50AA3E0F50B7409780A12B0
:10520000180AE50A5401F8E50B5400F9E8A2E04059
:1052100036740E121892E5082405FAE43509FB8568
:105220000882850983A3A3A3A3E0F91210CBE97038
:105230001679038E828F83A3A3A3E0FAA3E0FB1267
:1052400005F1E9F80252C8EE2405FCE43FFD8508AB
:1052500082850983A3A3A3A3E0F98E828F83A3A3EE
:10526000A3E0FAA3E0FB12116D900762E0F8A3E05F
:10527000F9E8496053900762E0F8A3E0F58388827B
:10528000A3A3E0F8A3E0F9E849603D7C0079008E33
:10529000828F83A3A3A3E0FAA3E0FB900762E0F868
:1052A000A3E0F5838882A3A3E0F8A3E0F5838882D6
:1052B00012189A8013AE0CAF0D8E828F83A3A3A316
:1052C000E0FAA3E0FB1210C5790174141218427FB2
:1052D0000802196E74F512189C74F212182C8909C0
:1052E000EAFEEBFF8C0AAC18AD197A0E75F006E5F4
:1052F00009A42420F9121497E9705F7C0679FFAAAB
:1053000018AB191213C5E97051740C121878E0F833
:10531000A3E0F9E8F508E50A6005EE42088004EE2E
:10532000F45208A8087900740C121878E068700329
:10533000A3E0696021A8087900740C121878E8F0DD
:10534000A3E9F0AC18AD197A0E75F006E509A424AE
:1053500020F9121491E9790180027900740E121873
:10536000427F0302196E74F012189C74E612182C16
:10537000890B8A0C8B0DECFEEDFF740C1218927ADF
:105380000E75F006E50BA42420F9121497E96003CA
:105390000254967C0679FF740C12188A1213C5E920
:1053A0006003025496AC18AD197A0C7470250BF991
:1053B000121497E96003025492750A00AA18AB19F7
:1053C0001210FBE50C450D702E7C0C7900AA18AB71
:1053D000191213C5E960030254787C0C7D00790032
:1053E000AA18AB191213658A088B098508828509EA
:1053F00083750A01025478AC18AD19AA0CAB0D12D2
:1054000010F58A0E8B0F850E08850F09E5084509F2
:105410007030EE4F601BAC18AD197A007B00121093
:10542000F58A0E8B0FA80EA90F88088909E8497024
:105430000479008063850882850983E50CF0A3E583
:105440000DF0850882850983A3A3E0F87900EE6852
:105450007002EF696022EEC0E0850882850983A3AF
:10546000A3D0E0F0EE4F700D8508828509837400AB
:10547000F0A37400F0750A01E50A6016AA18AB19CA
:105480001210FBAC18AD197A0C7470250BF91214BC
:1054900091E9790180027900741A1218427F08029A
:1054A000196E74F612189C8A088B097E00EEC3945C
:1054B000045050EEF87900E875F003A4C8AAF0751E
:1054C000F000A42AFA75F003E9A42AF9EC28F58281
:1054D000ED39F583E065087004A3E065097021EEFD
:1054E000F87900E875F003A4C8AAF075F000A42AC2
:1054F000FA75F003E9A42AF9EC28FAED39FB8007E4
:105500000E80AA7A007B007F0202196E74F71218CF
:105510009C7C00ECC3940440030255BBECF879007A
:10552000E875F003A4C8ADF075F000A42DFD75F08A
:1055300003E9A42DF9EA28F582EB39F583E0F4FEBE
:10554000A3E0F4FFECF87900E875F003A4C8ADF02F
:1055500075F000A42DFD75F003E9A42DF9EA28F5F6
:1055600082EB39F583EEF0A3EFF0ECF87900E87503
:10557000F003A4C8ADF075F000A42DFD75F003E9AB
:10558000A42DF9EA28F582EB39F583A3A3E0F4C052
:10559000E0ECF87900E875F003A4C8ADF075F00010
:1055A000A42DFD75F003E9A42DF9EA28F582EB3965
:1055B000F583A3A3D0E0F00C0255137F0102196E0E
:1055C00074F012189C74F412182CEAFEEBFF8C088D
:1055D0008D099007FCE0F8A3E0F9E849702CEE4F44
:1055E0006006E50845097005790102586CEEFAEF8E
:1055F000FB121119E9901738F0901738E0C3940A9C
:10560000400812112BE9901738F0901738E0C39436
:105610000A400302586A9007FCE0F8A3E0F9E84961
:1056200060030256B6EEFCEFFD7A0E75F006901799
:1056300038E0A42420F9121491E9F50C7C0C7D00CB
:1056400079FFAA18AB191213658A0E8B0F850E0A03
:10565000850F0BAC18AD197A0C901738E02470F94F
:10566000121491E9F50D750E0E750F00780E121AD1
:10567000AFEEFCEFFD901738E0F87900E875F00E1A
:10568000A4C8AAF075F000A42AFA75F00EE9A42ABD
:10569000F9746428FA740739FB12134D7402121856
:1056A000428A0E8B0FA80EA90F9007FCE508F0A305
:1056B000E509F00258669007FCE0F8A3E0C824066C
:1056C000F582C83400F583E0F8A3E0F9E8496043C7
:1056D0009007FCE0F8A3E0C82406F582C83400F582
:1056E00083E0FCA3E0FD7A1B75F006901738E0A478
:1056F0002421F9121491E9F89007FCE0F9A3E0C91C
:105700002406F582C93400F5837400F0A37400F018
:105710000258669007FCE0F8A3E0C8240AF582C8A6
:105720003400F583E0F8A3E0F9E84960439007FC12
:10573000E0F8A3E0C8240AF582C83400F583E0FC51
:10574000A3E0FD7A1B75F006901738E0A42422F937
:10575000121491E9F89007FCE0F9A3E0C9240AF5D6
:1057600082C93400F5837400F0A37400F002586617
:105770009007FCE0F8A3E0C8240CF582C83400F5DB
:1057800083E0F8A3E0F9E84960439007FCE0F8A360
:10579000E0C8240CF582C83400F583E0FCA3E0FDEA
:1057A0007A1075F006901738E0A42423F9121491AA
:1057B000E9F89007FCE0F9A3E0C9240CF582C934AC
:1057C00000F5837400F0A37400F00258669007FCA3
:1057D000E0F8A3E0C82408F582C83400F583E0F8B7
:1057E000A3E0F9E849606F9007FCE0F8A3E0C82463
:1057F00008F582C83400F583E0FCA3E0FD7A10755B
:10580000F006901738E0A42424F9121491E9F50A5F
:105810009007FCE0F8A3E0C82408F582C83400F53E
:1058200083E02410FCA3E03400FD7A0475F00690B8
:105830001738E0A42425F9121491E9F89007FCE048
:10584000F9A3E0C92408F582C93400F5837400F097
:10585000A37400F080109007F0E0600312117F1233
:10586000116779018006790080027901740C1218A1
:10587000427F0802196E74F712189C74F212182CE9
:10588000E9FEAC18AD197A0E75F006EEA42420F9E5
:10589000121497E9700E740C121878E0F8A3E0F96E
:1058A000E8F980027900740E1218427F0102196E25
:1058B00074F412189C74F212182C8909EAFEEBFF9A
:1058C000E509C3940A5004EE4F700479028041AC9C
:1058D00018AD197A0E75F006E509A42420F9121402
:1058E00097E9F508E5087026750A06750B00780A31
:1058F000121AAF7402121892EEFAEFFB12134D74E3
:10590000021218428A0A8B0B850A82850B83A9082A
:10591000740E1218427F0402196E74F412189CEA75
:10592000FEEBFF750800E508C3940A5043750A06AC
:10593000750B00780A121AAFEEFCEFFDA80879008B
:10594000E875F00EA4C8AAF075F000A42AFA75F064
:105950000EE9A42AF9746A28FA740739FB12135F56
:105960007402121842E96004A9088006050880B68E
:10597000790A7F0402196E74F412189CEAFEEBFF98
:10598000750800E508C3940A5043750A06750B00B4
:10599000780A121AAFEEFCEFFDA8087900E875F05E
:1059A0000EA4C8AAF075F000A42AFA75F00EE9A4B6
:1059B0002AF9746428FA740739FB12135F7402120F
:1059C0001842E96004A9088006050880B6790A7FB4
:1059D0000402196E74F712189C74F012182CEAFE67
:1059E000EBFF750800E508C3940A5039AC18AD19EF
:1059F0007A1075F006E508A42423F9121497E970CB
:105A0000207C1079FFAA18AB191213C5E97012EEA9
:105A1000FCEFFDAA18AB191205C1E97004A90880B2
:105A200006050880C0790A74101218427F01021915
:105A30006E74F412189C750800E508C3940A4003BC
:105A4000025B0BA8087900E875F00EA4C8AAF075EF
:105A5000F000A42AFA75F00EE9A42AF9746428FC6F
:105A6000740739FD7A0E75F006E508A42420F912B2
:105A70001497E97003025B067C067D0079FFAA0893
:105A80007B00EA75F00EA4CAA8F075F000A428F80F
:105A900075F00EEBA428FB74642AFA74073BFB1222
:105AA00013658A0A8B0BAE0AAF0B7C067D0079FF6B
:105AB000AA087B00EA75F00EA4CAA8F075F000A44D
:105AC00028F875F00EEBA428FB746A2AFA74073BD9
:105AD000FB1213658A0A8B0BAC0AAD0BA808790080
:105AE000E875F00EA4C8AAF075F000A42AFA75F0C3
:105AF0000EE9A42AF9747028F582740739F58374C5
:105B000000F0A37400F00508025A399007F0E06035
:105B10000312117F1211677F0402196E74F71218B5
:105B20009C7E00EEC3940A50327C0679FFEEFA7B2D
:105B300000EA75F00EA4CAA8F075F000A428F87564
