:020000040000FA
:06000000020107022211BB
:03000B0002263A90
:03002B0002261595
:03005300022287FF
:10008300022067E5C754F84401F5C779012200004F
:100093000080FB120086B900030200F1E4792178A5
:1000A30008B800028004F709D8FCE479297802B87B
:1000B30000028004F709D8FCE490028178F57913F3
:1000C3008002F0A3D8FCD9FA7A757B1590013778B2
:1000D3002379048015E493A3AD82AE838A828B8354
:1000E300F0A3AA82AB838D828E83D8E9D9E7758288
:1000F300987583FF740112011975829175830074D9
:100103000012011975D00075813F751881751902A8
:10011300759F00020096C09FF59FE473D09F22D085
:1001230083D082C09FE493C0E0740193C0E0740263
:1001330093F59F22FF0000B4000028002800283018
:1001430075A000A000A000A00000080008E001F0D6
:10015300001000100010001000100010005000509C
:1001630000500010001000D0070000000000000F36
:100173000001000500307507001000010081FF0039
:10018300000000FFFFFF7B0699068106BD06FF0204
:10019300020208025000A0000000E80302D181011E
:1001A3000000CE8102D581010000D01502DB810160
:1001B3000000BF0202D581010000D11502DD8101DB
:1001C3000000D50202D581010000D21502DF8101B2
:1001D3000000D70202D581010000D31502E1810896
:1001E3000000D80202D581010000D41502E3810189
:1001F3000000D515FF0100FF2002D181010000C2DC
:100203008102D581010000391602E581000000005A
:100213000002D98103000006031700290D290D29C7
:100223000D290D290D290D290D290D290D290D291B
:100233000D290D290DCF0FE10FC90F020202020292
:1002430002020202010D000000100102D18101002F
:1002530000C58102D5810100007C160209820100DC
:1002630000400702D5810100007D160207820100CC
:1002730000158102D5810100007E16020382010070
:1002830000F98002D5810100007F1602018201007E
:1002930000938002D581010000801602FF810100D6
:1002A30000818002D581010000811602F1810100E5
:1002B30000A58002D581010000821602E7810100BA
:1002C30000B78002D581010000831602EF8101008F
:1002D30000078102D581010000841602FD8101001F
:1002E30000851601E8030577100A070101010901DA
:1002F300010110000101E803000010024173796E4F
:10030300632042756C6B0053796E632042756C6B8E
:100313000002D181010000CB8102D5810100003BA5
:100323001702EB81000000370802D9810300005F48
:100333000802D7810100003D1702D5810100003C6E
:100343001702ED810100004B0802D781010000482C
:10035300170A100A02436F6D6D616E640052657374
:10036300706F6E7365004D61696C626F78004465F0
:100373007669636520496E666F0002D181010000D2
:10038300C88102D581010000921702F581030000A4
:10039300630802D781010000961702D5810100008E
:1003A300931702F781000000650802D9810300005A
:1003B3007F0802D7810100009E1702D5810100004A
:1003C300941702F981030000670802D78101000036
:1003D300A71702D581010000951702FB81010000D8
:1003E3007B0802D781010000AF17FFFFFF00013038
:1003F3007503020106000000000000000000000079
:1004030000000000000000000000000000000000E9
:1004130000FFFF0600800CE8030D095050474675A6
:10042300656C4761756765051250002003020A0079
:100433000201060302F0FF5050474675656C4761A1
:10044300756765000000000000000000DF14000075
:10045300EB140000F11412012288AB031201229B5A
:10046300AB03120122CCAB0312012206AC0312012F
:10047300225FAC03120122A6AC03120122EEAC03ED
:100483001201221DAD031201224CAD03120122837E
:10049300AD03120122CAAD03120122E3AD0312011F
:1004A3002238AE0312012251AE031201229FAE0382
:1004B300120122D9AE03120122A0CB02120122A300
:1004C300CC02120122DCCC02120122FFCC02120167
:1004D3002211CD021201224FCD02120122CBCD02F5
:1004E30012012293CE02120122B5CE021201224C36
:1004F300CF021201229ECF02120122CFCF0212019C
:1005030022DCCF0212012246D0021201229DD00228
:10051300120122A0D002120122D9D002120122DC40
:10052300D002120122E6D0021201223AD1021201B4
:10053300227BD102120122AED102120122EBD1029F
:10054300120122EDD20212012291D302120122FAE8
:10055300D30212012238D402120122D79F031201BF
:1005630022FF9F031201222CA00312012264A00385
:10057300120122C2A0031201220EA103120122754D
:10058300A103120122B5A103120122F2A103120158
:100593002220A203120122CAA203120122D4A2031F
:1005A300120122E1A20312012214A3031201222049
:1005B300A30312012238A30312012242A30312014F
:1005C30022CDCB03120122DBCB03120122F3CB0397
:1005D3001201220ACC03120122CABA0112012274A7
:1005E300BB0112012287BC0112012203BD011201CA
:1005F3002221BE011201225DBE01120122F8BE01B9
:10060300120122DCBF01120122A8C001120122360D
:10061300C201120122A7C20112012261C301120108
:100623002253C40112012293C40112012247C501BE
:1006330012012279C5011201226FC701120122B1F1
:10064300C701120122CFC70112012235C8011201CD
:100653002204C901120122C8C901120122E7CB01F8
:1006630012012219E40212012203E502120122AE51
:10067300E502120122FFE502120122AFE602120196
:100683002220E70212012205E80212012239E802C0
:1006930012012232E9021201226FE9021201224BF6
:1006A300EA021201228AEA02120122A6EA021201D6
:1006B300223CBF03120122C0BF03120122EBBF037E
:1006C30012012205C103120122D0A303120122E663
:1006D300A30312012204A40312012215A50312018C
:1006E300221FA5031201224AA60312012241A703D6
:1006F300120122AEA703120122A8F002120122DE88
:10070300F10212012215F2021201226CF20212010D
:100713002281F402120122149601120122A09601F1
:100723001201220498011201221098011201224B96
:100733009801120122BA9801120122C399011201F0
:1007430022CC9A01120122939B01120122F09C01F7
:100753001201220E9D011201222B9D01120122D8AA
:100763009D01120122559E011201227D9E0112015B
:100773002247A1011201224CA10112012265A3010A
:10078300120122B3A30112012223A4011201226147
:10079300A4011201223DA501120122FDA5011201AE
:1007A3002249A6011201224CA60112012290A601A0
:1007B300120122D8A60112012217A7011201223920
:1007C300A7011201226DA701120122D0A701120174
:1007D300220080031201220E800312012261800392
:1007E300120122808003120122C580031201220913
:1007F3008203120122A48203120122E8820312015E
:1008030022128303120122818303120122C783036D
:100813001201223E8403120122EF84031201229C5F
:100823002600120122AC26001201224D27001201DC
:1008330022A9270012012266280012012282290020
:10084300120122B42900120122E32900120122908D
:100853002B00120122072E00120122773000120111
:10086300226931001201226232001201226934002E
:100873001201225D37001201228C380012012290EE
:100883003A00120122A03B001201222F3D00120167
:1008930022203E001201226E3E00120122DD3E00A4
:1008A300120122013F00120122523F00120122F3E2
:1008B3004300120122F444001201225545001201A3
:1008C300228045001201224646001201229D9B030D
:1008D300120122A79B03120122EC9B0312012200A7
:1008E3009C03120122909C03120122C99C03120152
:1008F30022049D031201222D9D03120122819D03D7
:10090300120122969D03120122B89D03120122CDEA
:100913009D03120122E19D03120122F69D031201A0
:1009230022309E031201225C9E03120122A59E0324
:10093300120122179F031201225A9F0312012284DC
:100943009F03120122AF9F03120122B9CA031201AE
:10095300221CA402120122FFA4021201227AA50280
:10096300120122B5A50212012206A7021201229446
:10097300A70212012226AA02120122D8AA021201F8
:1009830022E4AB0212012257AD02120122B0AD02E2
:100993001201220B93031201224E9303120122D25E
:1009A3009303120122A99603120122D0BA03120162
:1009B3002282BB031201227EBC03120122BDBC03AF
:1009C30012012217BD0312012227C3031201228A37
:1009D300C30312012227C4031201225CC4031201C0
:1009E300228CC403120122C7C403120122E7C403E9
:1009F300120122FF89031201228B8A031201224A68
:100A03008B03120122628C031201227C8E031201DA
:100A130022888D02120122AD8D021201227A8E02EA
:100A23001201224E8F02120122BB8F02120122FBFE
:100A33008F02120122979002120122CB910212011E
:100A430022A692021201220593021201229193021D
:100A5300120122FF93021201228B9402120122D16E
:100A63009402120122439502120122D5950212012A
:100A730022769602120122969602120122DE960235
:100A830012012227970212012243970212012269BF
:100A93009702120122E39702120122F19702120137
:100AA30022809802120122E9980212012251FB02CC
:100AB300120122D6FB0212012218FC02120122FCAF
:100AC300FC0212012269FD02120122ADFD02120194
:100AD30022F1FD021201221EFE0212012246FE0233
:100AE3001201227EFE02120122BCFE02120122E347
:100AF300FE021201225DFF02120122A7FF02120170
:100B030022F4CB0112012293CD01120122CBCF019A
:100B13001201221FD0011201224AD0011201222602
:100B2300D10112012256D10112012285D1011201F4
:100B33002298D101120122D9D10112012206D20138
:100B430012012254D20112012290D201120122D5A4
:100B5300D20112012222D3011201229CD3011201DC
:100B630022DDD501120122C7D70112012203D801C8
:100B730012012292D901120122D7D9011201224A6C
:100B8300DA011201229FDA01120122A4DA01120111
:100B9300222EDB011201224DDC011201225EDC0157
:100BA30012012201C2021201227AC202120122346C
:100BB300C8021201223FC902120122E8CA0212012D
:100BC3002276CB02120122606400120122E164004A
:100BD3001201220E650012012257650012012258EC
:100BE3006600120122B166001201222D6800120173
:100BF30022AF6800120122CA68001201223B690079
:100C0300120122F86900120122BB6A001201224973
:100C13006B00120122006C00120122136C001201FE
:100C230022AC6C00120122436D001201226A6D0096
:100C3300120122D36D001201221D6E001201226BDC
:100C43006E00120122106F00120122AE6F0012011A
:100C5300223B7000120122AC7000120122F37000DB
:100C63001201224B71001201227D71001201223701
:100C730072001201223E73001201228773001201D7
:100C830022A47300120122C37300120122F674001E
:100C9300120122AD7500120122D27500120122E762
:100CA3007500120122577600120122987600120174
:100CB30022BC77001201223D780012012241B802C2
:100CC3001201228CB80212012298B8021201226C7E
:100CD300B90212012283B902120122C0B902120120
:100CE30022F1B90212012229BA021201227FBA02A9
:100CF30012012295BA02120122D1BA02120122E490
:100D0300BA021201220BBB021201223FBB021201E3
:100D13002265BC02120122AFBD02120122ABBE0248
:100D2300120122C8BF021201229126001201228160
:100D3300DC01120122BCDC011201220EE0011201CE
:100D4300226AE10112012229E20112012290E50146
:100D53001201227AE601120122C6E601120122E003
:100D6300E6011201221DE70112012228E701120107
:100D73002267E70112012270E7011201221AE8013A
:100D8300120122F1E80112012245E901120122A216
:100D9300E90112012214EA01120122A8A801120199
:100DA3002207AC011201220DAC011201223EB30154
:100DB30012012245B70112012241AF031201221E83
:100DC300B00312012262B0031201229CB00312018C
:100DD3002234B103120122A3B103120122ACB103E5
:100DE300120122B8B103120122D2B103120122FC73
:100DF300B1031201222CB2031201225B97031201E9
:100E030022689703120122829703120122B59703E6
:100E1300120122F397031201225898031201226D43
:100E23009803120122789803120122859803120174
:100E3300229C9803120122AA9803120122B5980357
:100E4300120122C19803120122D09803120122DB5E
:100E53009803120122FE9803120122A299031201A0
:100E630022B29903120122CC9903120122E99903B8
:100E7300120122049A03120122299A031201223435
:100E83009A03120122499A031201225D9A03120165
:100E930022BE9A03120122C49A03120122CA9A03A0
:100EA300120122D09A03120122E89A031201221B93
:100EB3009B031201220580021201229C800212016F
:100EC300223481021201222482021201225B820255
:100ED3001201226E8202120122DC820212012277A7
:100EE30084021201229E8402120122408502120111
:100EF30022758502120122868502120122FF8502D4
:100F03001201222086021201223886021201229047
:100F13008702120122998902120122E98B0212012E
:100F230022EC8C021201223B8D0212012263EB019F
:100F330012012260EC011201224BED011201225534
:100F4300ED0112012277ED0112012283ED0112015D
:100F530022D5EE0112012204EF0112012234F00125
:100F630012012276F001120122A2F101120122786C
:100F7300F201120122CAF20112012229F301120124
:100F83002260F3011201229BF30112012236F701C1
:100F93001201224FF701120122D1F701120122DFC0
:100FA300F70112012234F80112012242F801120161
:100FB30022AFF80112012221F90112012267F9017E
:100FC3001201220C99021201222E990212012218F7
:100FD3009B02120122BD9E0212012200A0021201F5
:100FE30022DAA002120122F5C4031201221AC50358
:100FF3001201228BC5031201225ED4021201226761
:10100300D40212012270D402120122A1D5021201CC
:1010130022C0D702120122F6D70212012230D802CF
:1010230012012266D802120122A0D802120122D490
:10103300D80212012200D90212012249D902120157
:101043002283D902120122CBD90212012221DA0210
:1010530012012256DA02120122B1DA02120122EB44
:10106300DA021201223CDB0212012272DB021201BC
:1010730022ACDB02120122DADB02120122FDDB02C7
:101083001201229ACC03120122C6CC03120122219F
:10109300CD031201222BCD031201223BCD031201FA
:1010A300220185031201222885031201226385038D
:1010B3001201221BCF03120122B24600120122C2E7
:1010C3004900120122574B00120122D24B00120198
:1010D300227E4C00120122214D00120122B94D0043
:1010E300120122E84D001201228052001201221245
:1010F30053001201224E5400120122B8540012016F
:10110300226C55001201222258001201225C580061
:10111300120122C658001201222359001201228013
:101123005900120122DD5900120122C85A0012018E
:10113300220E5B00120122595B001201227C5B002C
:10114300120122C35C00120122D75C001201224665
:101153005E00120122855E00120122C55E001201AB
:1011630022185F00120122395F00120122775F000B
:101173001201229D6100120122DE61001201227917
:101183006200120122EB62001201222C64001201A0
:101193002207EB02120122ADEB02120122F2EC0252
:1011A3001201227BED0212012268EE02120122A734
:1011B300EE0212012211EF021201227FEF0212014D
:1011C30022E7FF021201225FB5031201222AB803AC
:1011D3001201225ED00312012245CD0312012255D2
:1011E300CD0312012269CD03120122E5CD031201C1
:1011F300225AB20312012202B30312012244B5039D
:10120300120122F8FF02120122EDFF011201221640
:10121300D0031201222CD003120122B38E03120138
:1012230022248F03120122418F03120122668F03AE
:10123300120122958F03120122C48F03120122434C
:1012430091031201224192031201227378001201C9
:1012530022E478001201225B7A001201222F7C0023
:101263001201226C7D00120122307E001201224DF8
:101273007E001201229C7E00120122DD7E001201FB
:10128300221E7F00120122427F00120122717F0081
:1012930012012234C1031201228AC103120122075F
:1012A300C20312012241C20312012251C2031201DD
:1012B300228AC203120122ABC60312012200C70312
:1012C300120122E6CF0312012297C903120122C899
:1012D300C903120122F2C90312012250CA031201E7
:1012E300228BDC02120122A0DC02120122FCDC02AE
:1012F30012012267DD02120122AFDD021201222157
:10130300DE021201224ADE0212012258DE0212011B
:1013130022BADE02120122F8DE0212012213DF02D8
:10132300120122AEDF0212012257E002120122DA79
:10133300E00212012213E1021201229EE1021201D4
:1013430022F5E10212012253E20212012265E202B6
:101353001201228BE20212012294E202120122E51F
:10136300E30212012242BD03120122A9BD031201AD
:101373002266BE03120122E4BE03120122B8A703B0
:10138300120122EBA7031201221DA90312012261FC
:10139300A9031201223DAA031201225DC80312010F
:1013A300223BC90312012238B8031201227DB8037C
:1013B300120122C3B8031201228CBA031201228B39
:1013C300CE03120122A6CE03120122B6CE031201CE
:1013D30022E8CD0312012259AE0212012235AF02D7
:1013E3001201227CAF02120122B9AF02120122279D
:1013F300B00212012281B002120122F1B0021201E5
:1014030022C1B102120122B0B20212012227B30299
:10141300120122C3B40212012250B502120122C3E7
:10142300B5021201223FB60212012256B602120180
:10143300227BB702120122D5B702120122F0F90171
:1014430012012210FA0112012216FB01120122627B
:10145300FB0112012282FB01120122D5FB011201C1
:101463002242FC0112012288FC01120122ECFC0140
:101473001201220E82011201223B87011201223E38
:101483008A01120122678A01120122908A01120144
:1014930022428B011201222B8D01120122768E0131
:1014A3001201228F8E01120122C69301120122FF23
:1014B3009301120122439401120122549501120156
:1014C3002248F60212012258F60212012296F8026D
:1014D30012012215FA0212012233FA0212012255D5
:1014E300FA0212012226FB0212012229FB02120137
:1014F300224BFB02120122A0CF03120122D47F0050
:1015030012012240D003E066701008A3E066700A5F
:1015130008A3E066700408A3E06622C3E7960809FF
:10152300E7960809E7960809E79622C3E09608A319
:10153300E09608A3E09608A3E09622C008C3E096CD
:10154300F50808A3E096420808A3E096420808A31A
:10155300E09645087001D3D00822080808EAC0E0E5
:10156300EBC0E086F0E7A4FA180986F0E7A42AFAAC
:10157300180986F0E7A42AFA180986F0E7A42AFADC
:101583001986F0E7A4FBE5F02AFA190886F0E7A428
:101593002BFBE5F03AFA190886F0E7A42BFBE5F0FC
:1015A3003AFA18180986F0E7A4C5F02BFBE43AFAD7
:1015B3001908E7C5F0C6A426F6E5F03BFBE43AFAC2
:1015C3001886F0E7A4F6E5F00826F6E43B08F6E40F
:1015D3003A08F6D0E0FBD0E0FA226016080808C605
:1015E300C313C618C613C618C613C618C613C6D562
:1015F300E0EA227009080808226016181818C6C302
:1016030033C608C633C608C633C608C633C6D5E0D4
:10161300EA22E627F60809E637F60809E637F60868
:1016230009E637F622E026F608A3E036F608A3E03B
:1016330036F608A3E036F622E026F008A3E036F0FB
:1016430008A3E036F008A3E036F022C3E697F608D5
:1016530009E697F60809E697F60809E697F622C31E
:10166300E096F008A3E096F008A3E096F008A3E064
:1016730096F022E056F608A3E056F608A3E056F6E5
:1016830008A3E056F622E056F008A3E056F008A3BC
:10169300E056F008A3E056F022E0F608A3E0F608CF
:1016A300A3E0F608A3E0F622E6F008A3E6F008A319
:1016B300E6F008A3E6F022E0FAA3E0FBA3E0FCA334
:1016C300E0FD22E0F8A3E0F9A3E0FAA3E0FB22E8BF
:1016D300F0A3E9F0A3EAF0A3EBF022CAC0E0E6F03E
:1016E300A308DAFAD0E0FA22CAC0E0E0A3C582CCAC
:1016F300C582C583CDC583F0A3C582CCC582C5830E
:10170300CDC583DAE6D0E0CA22C3E498F8E499F9B8
:1017130012174D8026C3E49AFAE49BFBE920E7E91C
:1017230012174DE498F8E499F922C3E498F8E49980
:10173300F912174DE498F8E499F9C3E49AFAE49B93
:10174300FB22EB20E7CFE920E7E0B90010BB00085C
:10175300E88AF084F8AAF022E4FBC8FA22EB7022AC
:101763007B10C833C8C933C9335007C39AC3DBF2EC
:1017730080069A50012ADBEAC833F4C8C933F4C996
:10178300FA2275F008E4C833C8C933C933C99AC902
:101793009B5004C92AC93BD5F0ECFBC833F4C8E419
:1017A300C9FA22600D08C6A2E713C618C613C6D528
:1017B300E0F322600C08C6C313C618C613C6D5E0EF
:1017C300F422700422600D18C6C333C608C633C69C
:1017D300D5E0F41822251810AF08F518400C151998
:1017E3008008F51840021519D2AF2200C0D0251881
:1017F30010AF08F518500C05198008F518500205AC
:1018030019D2AFD0D0222518F58210AF08F51840B1
:101813000C15198008F51840021519D2AF851983E4
:10182300222518F582E43519F583222518F8E435C5
:1018330019F9222518FAE43519FB222518FCE43599
:1018430019FD22E4732518C582C0E0E51934FFC5EC
:1018530083C0E0E518C3958224F810AF0885831987
:101863008582188008858319858218D2AFCEF0A3AC
:10187300E520F0A37808E608F0A3DEFAEFF0A3E58D
:101883008124FAF8E608F0A3E608F0A3E608F0A33B
:101893000808E608F0A3E608F0A315811581D0E057
:1018A300FED0E0F8158115811581E8C0E0EEC0E0B7
:1018B300222518C582C0E0E51934FFC583C0E0E5E1
:1018C30018C3958224F910AF08858319858218807F
:1018D30008858319858218D2AFCEF0A3E520F0A343
:1018E3007808E608F0A3DEFAEFF0A3E58124FBF81D
:1018F300E608F0A3E608F0A30808E608F0A3E60864
:10190300F0A315811581D0E0FED0E0F81581158193
:10191300E8C0E0EEC0E022851983851882E0A3FECB
:10192300E0A3F5207808E0A3F608DFFAE0A3FFE0E0
:10193300A3C0E0E0A3C0E0E0A3C0E0E0A3C0E0E018
:10194300A3C0E010AF0885821885831980088582BB
:1019530018858319D2AFD083D08202011F851983E2
:10196300851882E0A3FEE0A3F5207808E0A3F6083B
:10197300DFFAE0A3FFE0A3C0E0E0A3C0E0E0A3C080
:10198300E0E0A3C0E010AF088582188583198008C2
:10199300858218858319D2AFD083D08222C0D02507
:1019A30018C582C0E0E51934FFC583C0E0E518C35C
:1019B300958224F310AF08858319858218800885E2
:1019C3008319858218D2AFC8F0A3E9F0A3EAF0A384
:1019D300EBF0A37908E709F0A3D8FAECF0A3EDF054
:1019E300A3EEF0A3EFF0A3D0E0F0A3D0E0F0A3D0F8
:1019F300E0F0A3E520F0A3E5F0F0A32285198385A9
:101A03001882E0C0E0A3E0F9A3E0FAA3E0FBA37827
:101A130008E0F608A3DFFAE0FCA3E0FDA3E0FEA3E1
:101A2300E0FFA3E0C0E0A3E0C0E0A3E0F5D0A3E0C3
:101A3300F520A3E0A3F5F010AF088583198582187C
:101A43008008858319858218D2AFD082D083D0E0F5
:101A5300F8D0E03274048006740280027401C0E09E
:101A6300F404121809D0E01216DE22740480047400
:101A7300028000CCC0E0EDC0E0E518C39CCCAD19FA
:101A830050011D10AF068C188D1980068C188D1906
:101A9300D2AF1216EBD0E0FDD0E0FC22D083D0828F
:101AA300E9C0E0E493A3C386F0C5F095F0F908E438
:101AB30093A386F0C5F095F0700BE493A3C399400C
:101AC30005E9048002A3E475F002A42582F582E50A
:101AD300F03583F583D0E0F9E493A3C0E0E493C049
:101AE300E022D083D082ECC0E0EDC0E0E493A3FC1D
:101AF300E493A3FDED4C600D121B31EC24FFFCEDD0
:101B030034FFFD80EFE493A3FCE493A3FDED4C606D
:101B13000D121B70EC24FFFCED34FFFD80EFD0E0D1
:101B2300FDD0E0FCE493A3C0E0E493C0E022C0E076
:101B3300C3E49396087401939618400FE493667078
:101B43000808740193661870007019A3A3C3E49383
:101B530096087401939618A3A3400DD0E0D0E0D06B
:101B6300E0021B21A3A3A3A3A3A3D0E022C0E0C050
:101B7300F088F0E4936670080874019366187000A7
:101B8300A8F0A3A3700BD0F0D0E0D0E0D0E0021B0C
:081B930021A3A3D0F0D0E02251
:101B9C0074F61218B4EAFEEBFF8C088D09EE2434AF
:101BAC00F8E43FF9E8FCE9FDEE2435121EAFFAEE3D
:101BBC002437121EAFF88508F0A4C885F00A8509F1
:101BCC00F0A4250AF9EA28F8E439F97A257B001201
:101BDC00174DEA8C828D83F0FA131313541FF8EE11
:101BEC0028F8E43FF9E8245DF582E439F583E0C098
:101BFC00E074075AF8D0E0B800028004C313D8FC94
:101C0C00A2E0EE50082434F582E43F80182436120A
:101C1C001EAFF5F0EA84A8F0EE28F8E43FF9E824CA
:101C2C0038F582E439F583E0F97F0302196074F723
:101C3C001218B4EAFEEBFFEE2434121EAFC0E0EE35
:101C4C002435F582E43FF583D0E0F08E828F83A3B8
:101C5C00A3A3A3A3A3A3C082C0838E828F83A3A3B9
:101C6C00A3A3A3E0F8A3E0F9D083D082E0C398F556
:101C7C0008A3E099F509EE247F121EAF6401703EB3
:101C8C00EE2480F582E43FF583C082C0838E828F80
:101C9C0083A3A3A3A3A3E0240108A3E03400F9D0F9
:101CAC0083D082E0687003A3E06970127CB17D047C
:101CBC00120C69EE247FF582E43FF583E4F0AC0866
:101CCC00AD09EEFAEFFB121B9CE9F91226077F0215
:101CDC00021960C082C083851882851983E0F8A33D
:101CEC00E0F9C3EA9CEB9D5010C3EC98ED99401BB6
:101CFC00C3EA98EB995014800EC3EA98EB9940070D
:101D0C00C3EC98ED994004790180027900D083D01E
:101D1C008222EAC39CFAEB9DFB2274EF1218B4905A
:101D2C000376E064086005E06407702A9061C8E0FF
:101D3C0060249003A4E0F4601DE0F875F00BA4C8D7
:101D4C00AAF02AF974A628FE740339FF8E828F83B9
:101D5C00A3A3A3E07003021E34906060E0C0E0EE29
:101D6C002468F582E43FF583D0E0F0750C21750D05
:101D7C0005750800750900E5D914F50AE5D9540371
:101D8C00F50E60127403650E6043E50A600AEE24DA
:101D9C0067121EAF7002807590051CE06401601F15
:101DAC00121EAC60047A0480027A00E50AC39AFA27
:101DBC0095E0FB120B138A088B09EA450970051292
:101DCC000E978064121EAC70048A0C8B0DE50A60B1
:101DDC0012850C82850D83F50BE5D9F0A3150BE567
:101DEC000B70F6121EAC604474FC250AF50A780CD4
:101DFC00121A5BAC0AA90EEEFAEFFB120D23740259
:101E0C001217EEE97026AA08AB0912136B793D8EF6
:101E1C00828F83A3A3A3A3E0FA7B00120975EEFAC9
:101E2C00EFFB120C8D120D357900806F7403650E6B
:101E3C006051850A107511007810121A5BAC0CAD4C
:101E4C000DAA08AB09120CE774021217EEEE246807
:101E5C00121EAF64807004747F8001E0F50C780C66
:101E6C00121A5FE50EF50C780C121A5FA90AAC0871
:101E7C00AD099003A4E0FA7B0012094B740212170F
:101E8C00EE8013900376E06408600BAC0CAD0DEEA5
:101E9C00FAEFFB120DAD120EA379017F0A02196045
:101EAC00EE2483F582E43FF583E02274F21218B439
:101EBC0074FC1217D8EAFEEBFF8909A2AFE433F5E4
:101ECC0008C2AF021F81E0601B780C121A5BAC0BCE
:101EDC00A90EEEFAEFFB120D1D74021217EE74042C
:101EEC00250BF50B7401250BF5D9850ED9E50B6087
:101EFC0018F50A850C82850D83E0F5D9A385820C33
:101F0C0085830D150AE50A70EA75E195EE2463F8F0
:101F1C00E43FF97A007B00A2AFE433F50BC2AF8843
:101F2C00828983E0FCA3E0FDEC4D603A88828983D2
:101F3C00E0FAA3E0FB8A828B83E0FCA3E0FD8882BD
:101F4C008983ECF0A3EDF08A828B83E4F0A3F08814
:101F5C00828983E0FCA3E0FDEC4D700A88828983C2
:101F6C00A3A3E4F0A3F0E50BA2E092AF12136B90E5
:101F7C0004B8E004F0EE2463121EAFF8A3E0F9E815
:101F8C00496064EE2463121EAF2402F8A3E034000F
:101F9C00F988828983E5822402F50CE43583F50DFA
:101FAC00E0F50BA3E0F50EEE2462121EAF64017097
:101FBC00369061D0E0F8121EAC60047C0480027C88
:101FCC00007480C398FA95E0FBE50B2CF8E4340020
:101FDC00F9E82402F8500109C3EA98EB99A2D265FA
:101FEC00D0334003021ED29004B8E0604D9004B987
:101FFC00E0F89004B8E0C398500C74026509703A8C
:10200C009004BAE060348E828F83A3A3A3A3E085EF
:10201C0018828519831220567402121824E8122093
:10202C00569004B7E028F0740212183EAA18AB19A7
:10203C00790112099F9004B8E4F0E508A2E092AF90
:10204C0074041217EE7F07021960F0A3E4F09004F9
:10205C00B8E0F8228521878522C622C0E074EB12F5
:10206C0019A0A2AFE433F508C2AF759B0090618252
:10207C00E0A2E05030E591A2E0502A7591FE740187
:10208C00652170211221FA120DEF1221E8121A6E3D
:10209C001223B174041217EEE96401700579011270
:1020AC000E2B121D26906182E0A2E5505DE591A2F7
:1020BC00E550577591DF900376E064076005E064A6
:1020CC0008702F1221FA74016521703E120DEF1267
:1020DC0021E8121A6E1223B174041217EEE964018E
:1020EC0070057901120E2B7901EEFAEFFB121EB777
:1020FC008018E0640D7013900398E004F06428706D
:10210C0002E4F07A00E0F9120EA9906182E0A2E6F6
:10211C0040030221BDE591A2E640030221BD759169
:10212C00BF900376E064057008120DD7120DE380A2
:10213C0003120DDD752100120E37E9900377F0794B
:10214C0000120E2B120BD97A017B00900375E0F96B
:10215C0012133B907803E064427056900520E01413
:10216C00F0704EC2AF12217400782AD0E0F618D06D
:10217C00E0F6E59F5407F87005750DFF8003750DAB
:10218C007FC4C0E07829E6F50A08E6550DF50B7416
:10219C000B780A1217B6D0E0250AF8906270E0A20C
:1021AC00E740F8E8C333906272F0906270E0D2E0DE
:1021BC00F0906181E0A2E35009E5E9A2E3500375D8
:1021CC00E9F7A3E0A2E75009E591A2E75003759166
:1021DC007FE508A2E092AF7F080219FF8E828F8301
:1021EC00E0F8A3E0C82416F582E438F583229003C6
:1021FC00A4E0F875F00BA4C8AAF02AF974A628FE7E
:10220C00740339FF22C0E0C0D0C082C083906183C8
:10221C00E0A2E05009E5BFA2E0500375BFFEE0A2CA
:10222C00E15009E5BFA2E1500375BFFDE0A2E25009
:10223C0009E5BFA2E2500375BFFBE0A2E35009E53C
:10224C00BFA2E3500375BFF7E0A2E45009E5BFA2BB
:10225C00E4500375BFEFE0A2E55009E5BFA2E550DD
:10226C000375BFDFE0A2E65009E5BFA2E650037597
:10227C00BFBFD083D082D0D0D0E032C0E074F21295
:10228C0019A0E5A7A2E6500FE5A1A2E6500953A7B5
:10229C00BF75A1BF1222DBE5A7A2E5500CE5A1A2F8
:1022AC00E5500653A7DF75A1DFE5A7A2E15009E5CC
:1022BC00A1A2E1500375A1FDE5A7A2E2500CE5A196
:1022CC00A2E2500653A7FB75A1FB7F010219FF7414
:1022DC00F71218B4752101900376E064067015129C
:1022EC000D598A828B83A3A3A3A3A3A3E0FAA3E033
:1022FC00FB120DC5A2AFE433FED2AF90037CE064B9
:10230C000170187A207B00900375E0F91214617A41
:10231C00207B00900375E0F9121341906182E0D2AA
:10232C00E6F090051DE0602185C622801690037BA7
:10233C00E064017008E5C654F84405F5C653BEFCCC
:10234C001220607401652160E4EEA2E092AF7F027E
:10235C00021960008E238F24858228858327851897
:10236C0082851983E0CEA3E0CF852882852783EB75
:10237C00C9EAC8EDCBECCA75F010C3E833C8E93331
:10238C00C9EA33CAEB33CBC3EA9EF526EB9FF5259E
:10239C00B35004AB25AA26EC33CCED33CDD5F0DA13
:1023AC00AE23AF242274F11218B48A088B098C0A5C
:1023BC008D0B9081B27808121676740F121824784F
:1023CC000C12169C9081B2780C1216767808790C47
:1023DC0012151E90816650107808790C12164E78E2
:1023EC000812153E4014800E780C790812164E789F
:1023FC000C12153E50047901800279007F080219F5
:10240C006074ED1218B48A088B098C0A8D0B9081BC
:10241C00B278081216767413121824780C12169CC3
:10242C009081B2780C121676780C790812151E4031
:10243C00117808790C12164EAA08AB09AC0AAD0B30
:10244C00802275100075110075120075130178103B
:10245C00790C12164E78107908121615AA10AB11B9
:10246C00AC12AD137F0C0219609081B27808121671
:10247C009C8A828B8378081216897F0402196074F7
:10248C00F51218B48C828D83780812169C8A828B74
:10249C008378081216621224E3C3E09CF0A3E09D3B
:1024AC001224D54022908182780812169C8A828B45
:1024BC0083780812163B8A828B83A3A3A3A3E02400
:1024CC0020F0A3E0344EF080A0F088828983C3E032
:1024DC009420A3E0944E22EA2404F8E43BF98C8285
:1024EC008D83A3A3A3A3E0FCA3E0FD8882898322B0
:1024FC0074F51218B4E9FE9004D3E0FAA3E0FBEEF5
:10250C0029F8E433F974D928F582748039F583E01D
:10251C002AF508A3E03BF5097808121A5B90819E16
:10252C001216BA12236074021217EE8A088B098CE9
:10253C000A8D0B741078081215DDAA08AB097F04FC
:10254C0002196074F11218B48A0C8B0D8C0E8D0F5D
:10255C007411121824121A727411121824E0240126
:10256C00F508A3E03400F509E4F50AF50B780C79CD
:10257C000812155D908172780812169C780C7908F7
:10258C0012155DAA0CAB0DAC0EAD0F1223607402CC
:10259C001217EE8B09EA450960047A0180027A0071
:1025AC00EC2AFCE43DFD7413121824E0F8A3E0F9C6
:1025BC00E8FEE9FFECF8EDF97A717B0212174D8811
:1025CC00088909E4F50AF50B8E828F8378081216B8
:1025DC00ABECF8EDF97A717B0212174D8A088B0976
:1025EC00740578081217C58E828F83A3A3A3A3E565
:1025FC0008F0A3E509F07F08021960C082C083E9E6
:10260C00906000F0D083D08222C0E0C0D0E8C0E05F
:10261C00E9C0E0A2AFE433F8D2AFC2C7E8F9E8A250
:10262C00E092AFD0E0F9D0E0F8D0D0D0E032C0E00A
:10263C0074F21219A0A2AFE433FED2AFE5BAF87966
:10264C0000900833E8F0A3E9F0A8BB7900E4C8F9DE
:10265C00900833E048F0A3E049F0E5B5540F90083A
:10266C0032F090082EE0FAA3E0FB90082DE0F9126E
:10267C00133BE9EEF8EEA2E092AF7F010219FFC224
:10268C00AF0200002202011FFFFFFFFFFFFFFFFF51
:10269C00C082C083E9901638F0D083D08202011F2B
:1026AC0074F6121848E99002E8F0900348E0F50837
:1026BC00750900740278081217C5AA08AB09121321
:1026CC00B39002E912305F9002E912344C606F90C3
:1026DC000348E075F003A4FAABF01213B3900306B1
:1026EC0012305F90030612344C700B9002E91234D6
:1026FC001D1213B980489003061243B17AFF7BFF79
:10270C001211917A0080198A0875090074027808F0
:10271C001217C5123E5974FF12285FE4F0A3F00A99
:10272C00900348E0F8EAC39840DD79051208379029
:10273C0002E8E0F91207237AC17B08120AB3023EC1
:10274C00FC74F41218488A088B09EB54806047908B
:10275C0002E8E0F91213238A0A8B0BAE0AAF0BEED8
:10276C004F602A8E828F83E064B0701A120849E998
:10277C0060148E828F83A3A3A3A3E0F9EE2405FA41
:10278C00E43FFB120819EEFAEFFB121311AA08E54D
:10279C00096480FB80047A007B000229AF74F2127A
:1027AC00184874FB1217D8EAFEEBFFEE4F60457425
:1027BC0003121824EEF0A3EFF0851882851983EC30
:1027CC00F0A3EDF07402121824E9F0AA18AB191258
:1027DC00071DE9F50870757413121824E0F50AA3A7
:1027EC00E0F50BE50A450B60638E828F83122DE8B2
:1027FC00EE4F700575080280537A067B001213B3F6
:10280C008A0C8B0DA80CA90DE8497005750813806E
:10281C003B88828983E412285FEEF0A3EF12297BB8
:10282C00E50AF0A3E50BF09002EC1229749002EC8F
:10283C006017E0FCA3E08003EAFCEBFD8C828D8347
:10284C0012297470F38C828D83123A74A908740562
:10285C00024631F0A3124393A32274F21218488952
:10286C0008890C750D007403780C1217C5850C0AB9
:10287C00850D0B9002EBF09002E912387F12297251
:10288C00602E1213B97900801D890C750D0074022D
:10289C00780C1217C59002E9123D188882F583A3B3
:1028AC00A3E4F0A3F009900348E0F8E9C39840D9F9
:1028BC00900348E0FA850AF0A4CAA8F0850BF0A4AE
:1028CC0028FB1213B38A0C8B0DAE0CAF0DEE4F70B0
:1028DC0003022968900348E0FC850AF0A4CCA8F018
:1028EC00850BF0A428FD79001212FF7C0080318D3D
:1028FC000C750D007403780C1217C58A828B831229
:10290C00296D88828983E4F012297AA3A3F0A3F0BD
:10291C000DEDC3950840D8EE250AFEEF350BFF0CE4
:10292C00900348E0F8ECC39850288C0C750D00749B
:10293C0002780C1217C59002E912296DE824025096
:10294C000109FAE9FB8A828B83EEF0A3EFF07D009C
:10295C0080BFE5089002EBF0790080027913024603
:10296C0034123D1CF922A3A3123421EA4B22A312E8
:10297C004393A3A3A32274F41218487900EAA2E0AB
:10298C00501F75084A7509817808121A5B79107CFA
:10299C00047D007A3A7B1612083174021217EEE9A4
:1029AC00F980007F0402191AC082C0839002EC12D5
:1029BC00344C601C88828983A3A3E06A7003A3E073
:1029CC006B8882898370E8A3A3A3A312341D8004AF
:1029DC007A007B000226A574F212184874FD1217B7
:1029EC00D8EAFEEBFF851882851983E4F0A3F07416
:1029FC00021218247401F012344970141209ED12E9
:102A0C0013B39002EF12305F1234497003022B752E
:102A1C0012315FEE2404F50AE43FF50B850A82F5CA
:102A2C0083E024FE603C24FC607424FE607E24FE63
:102A3C007003022AC524FE7003022AD224FE7003FE
:102A4C00022ADF24FE7003022AEC24FE7003022A01
:102A5C00F924FC7003022B1A24FE7003022B3202A1
:102A6C002B6E1209ED9002F1EAF0A3EB122B8112FE
:102A7C000465E96003022B6E9002F1121A728E82C9
:102A8C008F83A3A3A3A3A31243B1850882850983D3
:102A9C0012341D12080174021217EE022B6EAC18C0
:102AAC00AD19EEFAEFFB12084F022B3DAC18AD1925
:102ABC00EEFAEFFB1208558078AC18AD19EEFAEF70
:102ACC00FB12085B806BAC18AD19EEFAEFFB120829
:102ADC0061805EAC18AD19EEFAEFFB1208678051FD
:102AEC00AC18AD19EEFAEFFB12086D8044740212AB
:102AFC00182E880C890D780C121A5B740212183E71
:102B0C00EEFAEFFB12087374021217EE8023AC1866
:102B1C00AD19EEFAEFFB120879E9F870167402128F
:102B2C001824E4F0803CAC18AD19EEFAEFFB120857
:102B3C007FE9F8E8602C8E828F83A3E06414602216
:102B4C00850A82850B83E09002F1F0851882851945
:102B5C008312341D9002F212305FE8A3122B811203
:102B6C00045FEEFAEFFB1207D77402121824E0F997
:102B7C007403024631F07CF17D028508828509835D
:102B8C001234212274E812184874FA1217D87404FB
:102B9C00121824ECF0A3EDF08A128B13EA2405F53D
:102BAC000EE43513F50FEA2402F510E43513F51194
:102BBC00851082F58312341D1205558A0A8B0B750C
:102BCC0008007C037D0079007AF17B021212FFE58C
:102BDC000E2402F516E4350FF517740212182E8820
:102BEC000C890D780C121A5B850E82850F83A3A3BA
:102BFC00A3A3E0F50C750D00780C121A5BE50E24FE
:102C0C0005F50CE4350FF50D780C121A5B85168260
:102C1C0085178312372412073B74061217EE8A0CA1
:102C2C008B0DE50C450D7003022DB18020851882AB
:102C3C00851983E088828983F005088518828519B7
:102C4C0083A3E0C0E0122DF2D0E0F00508E50A24E1
:102C5C00FBFAE50B34FFFBC3E5089AE49B40030247
:102C6C002DB17E007F00851282851383A3A3A3A3BD
:102C7C00E0F5097809121A5FE4F514F515781412C9
:102C8C001A5B7514EE7515027814121A5B9002EF2C
:102C9C00121A727409121824121A72E50A24F9F91C
:102CAC00AC0CAD0D85108285118312341D1208A950
:102CBC0074091217EEE96003022D52850E82850FFE
:102CCC0083A3A3A3A3A3A3A3E0F89002EEE06870F0
:102CDC0075E0F5148E157814121A5B1243AE850E3E
:102CEC0082850F83A3A3A3A3A3A3A3A312341D12B2
:102CFC0012F974021217EEE9604C9002F212344C85
:102D0C00703BE4F5147814121A5B7CFF7DFF790795
:102D1C0085108285118312341D1208137402121748
:102D2C00EE1234527017850E82850F8312454B7448
:102D3C0004121824123E0C123755022DE5850C8214
:102D4C00850D83122DE8A818A919881489157814F3
:102D5C00121A5B7404121824121A728516828517C3
:102D6C008312305512074774041217EE8A0C8B0D20
:102D7C00EE4F7003022C2E122DF2EE122DFD123797
:102D8C000BEF122DFDF8A3E03400F9E50C450D60B6
:102D9C0003022C398882898374FFF00508122DF206
:102DAC0074FFF00508E508601A1313543F123065E0
:102DBC00120471E960099002F212341D12136B793E
:102DCC00008016850E82850F8312454B74041218F1
:102DDC0024123E0C123A74790A0236DEA3A3A3A382
:102DEC00E0FEA3E0FF22A8089002F2E02812370BC5
:102DFC0022F00508089002F2E0282274E812184824
:102E0C0074FA1217D8740212182412305F74041258
:102E1C001824ECF0A3EDF07402121824E02405122F
:102E2C0036F4E0F50CA3E0F50D7402121824E0243E
:102E3C0002F510A3E03400F511851082F5831234ED
:102E4C001D120555750800750900EA24FCFEEB34CB
:102E5C00FFFF8008050CE50C7002050DA808C3EEF9
:102E6C0098EF94005003023011A818A919880E8904
:102E7C000F780E121A5B851482851583A3A3A3A366
:102E8C001243B5121A5BE5142405F50EE43515F55D
:102E9C000F780E121A5B851482851583123053122B
:102EAC00073B74061217EE8A0E8B0FEA450F700360
:102EBC00023011EA2404F516E4350FF51785168255
:102ECC00F583E0F50CA3E0F50D85188285198312C6
:102EDC0043B18A828B83A3A3A3E0F9851082851169
:102EEC008312341D120729E9F509600302301174AD
:102EFC000212182412371BF5097809121A5FE4F52F
:102F0C0012F5137812121A5B7512EE751302781201
:102F1C00121A5B9002EF121A727407121824121A0A
:102F2C0072EEF9AC0EAD0F85108285118312341D33
:102F3C001208A974091217EEE9F5096003023011A1
:102F4C00E508703FE4F50EF50F780E121A5B7CFF66
:102F5C007DFF790985108285118312341D120813A7
:102F6C0074021217EE123741700D740412182412E9
:102F7C00304879110230459002EEE024029002F2C2
:102F8C00F080149002F2E0FA9002EEE07900240254
:102F9C005001096A497072A8089002EEE0FAE82A1A
:102FAC00FAE43400FBEE9AEF9B405A8516828517A3
:102FBC0083E0C0E09002F3122DF7D0E0F005088515
:102FCC001682851783A3E0C0E0089002F3122DF758
:102FDC00D0E0F005089002EE1243B5121A5B1243D2
:102FEC00AEA8081236E81212E774021217EE90021D
:102FFC00EEE02508F50874FF650C700474FF650D90
:10300C006003022E60E508601F9002F2E0F5F0E527
:10301C000884123065120477E960099002F31234C7
:10302C001D12136B79008011E509700375090A7480
:10303C0004121824123048A9090236DE123883E52E
:10304C000CF0A3E50DF022A3A3124640AA0CAB0D85
:10305C0022A3A3EAF0A3EBF0229002F1F07CF17D25
:10306C00028510828511831234212274EC121848C7
:10307C0074FC1217D8123B84740212183E123417C7
:10308C001207418A0C8B0DEA450D700302314F1269
:10309C00315FA818A919881089117810121A5B7C55
:1030AC00FF7DFF790B85088285098312341D120878
:1030BC001374021217EE123255700C850A82850BAE
:1030CC008312375202315C8E828F83A3A3A3A3E0B9
:1030DC00F5127812121A5FE4F512F5137812121A1F
:1030EC005B7512F17513027812121A5B7810121AB2
:1030FC005B7409121824121A727409121824E0F95C
:10310C00AC0CAD0D85088285098312341D1208A9FB
:10311C0074091217EEE9FE70157CF17D02850882A8
:10312C0085098312341D12047DE970098020741600
:10313C006E70027E009002F212341D12136BEE7050
:10314C0004800B7E01850A82850B83123A71EEF99D
:10315C00023A86EE2402F508E43FF5092274EC12DB
:10316C00184874FC1217D8EAFEEBFF8C0E8D0FEE8C
:10317C002405F508E43FF509740212183E8508820F
:10318C0085098312341D1207418A0C8B0DEA450DFB
:10319C007003023245EE2402F50AE43FF50BA81841
:1031AC00A919881089117810121A5B7CFF7DFF79A0
:1031BC000D12341712081374021217EE12325570D6
:1031CC000B850882850983123752807A8E828F8311
:1031DC00A3A3A3A3E0F5127812121A5F85088285C7
:1031EC000983A3A3121A727512F1751302781212C5
:1031FC001A5B7810121A5B7409121824121A727462
:10320C0009121824E0F91234131208A974091217C0
:10321C00EEE9FE700F7CF17D02123417120483E983
:10322C007009802074166E70027E009002F21234C7
:10323C001D12136BEE7004800B7E018508828509CC
:10324C0083123A71EEF9023A8612345CF510A3E05F
:10325C00F511EA45112274E812184874FE1217D8B9
:10326C008A168B178C148D15EA2405F50CE435178A
:10327C00F50DEA2402F50EE43517F50F850E82F5EF
:10328C008312341D1205558A088B09750B007C03BB
:10329C007D0079007AF17B021212FF750A00E508B5
:1032AC0014F5100424FFF508E50934FFF5098054E2
:1032BC009002F1E0FA9002EEE0F8EA28F8E434002B
:1032CC00F9E50898E50999500D9002F1E0F8E51040
:1032DC00C3989002EEF0E0F5127513007812121AF2
:1032EC005B1243AE9002F2E02AFAA3E03400FB1228
:1032FC0012E774021217EE9002EEE0F89002F1E081
:10330C0028F0050A850C82850D83A3A3123D284065
:10331C00030233F89002F1E0C39508E495094003E9
:10332C000233F8AE0AEE2EFEE433FF123437AC183B
:10333C00AD191243C9E439FB1207418A128B13AC45
:10334C0012AD13EC4D701B750B01123427123A752C
:10335C009002F2122974600312136BA90B7402020F
:10336C0036E0851682851783A3A3A3A3E0F50B781B
:10337C000B121A5FE4F512F5137812121A5B751220
:10338C00EE7513027812121A5B9002EF121A727415
:10339C0007121824121A72A910850E82850F831237
:1033AC00341D1208A974091217EEE9F50B709B90E5
:1033BC0002F212344C60030232BCE4F512F51378BD
:1033CC0012121A5B7CFF7DFF790F850E82850F83AD
:1033DC0012341D12081374021217EE1234526003C9
:1033EC000232BC1234271237560233697CF17D024B
:1033FC00850E82850F8312341D120489E960030245
:10340C00335C7900023369AC0CAD0D850A82850BF7
:10341C008312342122E0FAA3E0FB22123437E0FAC3
:10342C00A3E0F9EA85148285158322850C82850D2B
:10343C0083E02EF8A3E03FF988828983229002EF83
:10344C0012454FE8492212345CF8A3E0F9E849220E
:10345C009002F2EAF0A3EBF09002F2E02274E81290
:10346C00184874FA1217D8740412182412305F8C8E
:10347C00168D177404121824E02405F50EA3E034FD
:10348C0000F50F7404121824E024021236F41234DE
:10349C001D1205558A0A8B0B7F007E00A818A919EE
:1034AC00880889097808121A5B850E82850F83A318
:1034BC00A3A3A3E0F5088E097808121A5BE50E2485
:1034CC0005F508E4350FF5097808121A5B850E82AC
:1034DC00850F83A3A312372412073B74061217EE31
:1034EC008A0C8B0D8029123715F00F123715F00F3F
:1034FC009002EE123A60121A5B1243AEEFF81236DB
:10350C00E81212E774021217EE9002EEE02FFFE5BC
:10351C000C450D70030235A4851882851983123B66
:10352C0096A3A3A3E0F985148285158312341D128A
:10353C000729E9FEE50C2404F510E4350DF511EE30
:10354C007050740412182412371BF5087808121ADC
:10355C005FE4F508F5097808121A5B7508EE750931
:10356C00027808121A5B9002EF121A727407121882
:10357C0024121A72E50A24FAF9AC0CAD0D851482EA
:10358C0085158312341D1208A974091217EEE9FE71
:10359C006039123731123A74EF70030236CB900255
:1035AC00F2E0F5F0EF849002F1F07CF17D028514ED
:1035BC008285158312341D12048FE960099002F381
:1035CC0012341D12136B79000236DE8F08EF703B3C
:1035DC00E4F512F5137812121A5B7CFF7DFF79115A
:1035EC0085148285158312341D1208137402121768
:1035FC00EE12374170091237311237550236DE9010
:10360C0002EEE024049002F2F080359002EEE0F835
:10361C009002F2E0FAE82404FCE43400FDEC6A4D7C
:10362C0060030235AAE50A24FAFAE50B34FFFBE540
:10363C000828F8E43400F9EA98EB9950030235AA0B
:10364C00851082851183E0C0E09002F3E02FF8A38F
:10365C00E034008882F583D0E0F00F85108285116C
:10366C0083A3E0C0E0123702D0E0F00F740212180E
:10367C002E880889097808121A5B74021218241211
:10368C001A72850E82850F83123053120747740409
:10369C001217EE8A0C8B0DEA450D70030234F2748E
:1036AC0002121824E0C0E0123702D0E0F00F7402CE
:1036BC00121824A3E0C0E0123702D0E00234FAEE74
:1036CC0070027E0A850E82850F83123737123A7488
:1036DC00EEF974061217EE7F1002191A9002F3E03D
:1036EC0028FAA3E03400FB22F514A3E03400F5150E
:1036FC00851482F58322123706229002F3E02FFA0A
:10370C00A3E034008A82F5832212370674FF22125A
:10371C003883A3A3A3A3E022124640850E82850F13
:10372C00831234212285108285118312454F851610
:10373C0082851783229002F3EAF0A3EBF09002F358
:10374C0012454FE84922123A7AE8F0A3E9F07911D0
:10375C002274EA12184874FE1217D88A088B098C46
:10376C00128D13EA2405FEE43509FFAC18AD198E51
:10377C00828F8312341D1207418A0C8B0DEE2406A6
:10378C00F50EE43FF50FEA450D7003023855E508D8
:10379C002402F50AE43509F50B8A828B83A3A3A3D3
:1037AC00E0A2E5502885188285198312341D120871
:1037BC009D8A108B11EA4511602079121234138501
:1037CC001082851183121846E9F50C707F850E82E4
:1037DC00850F83E0600979528011750C0E806D8520
:1037EC000882850983A3A3A3A3E0F9E4F508F509EE
:1037FC007808121A5B8E828F83A3A3E0F5087808F1
:10380C00121A5B8E828F83A3A3A3121A728E828FDD
:10381C00831243B11234171208AF74061217EEE973
:10382C00F50C7011850E82850F83E0702D12341704
:10383C0012049580257416650C7011750C007418A3
:10384C0012182412387FE48010750C01124547853C
:10385C001282851383E8F0A3E9F0850E82850F832D
:10386C00E0600479008002A90C74021217EE7F0E3E
:10387C0002191A12388322E0F8A3E0F58388822219
:10388C0074EC12184874F71217D88A0A8B0B8C1028
:10389C008D11EA2405FEE4350BFF750C00AC18AD58
:1038AC00198E828F8312341D1207418A088B09EA04
:1038BC0045097003023A4BE50A2402F50A50020549
:1038CC000B8A828B83A3A3A3E0A2E5502F851882D9
:1038DC0085198312341D12089D8A0C8B0DEA450D37
:1038EC00604F7912AC08AD09123417850C82850D26
:1038FC0083121846E9F50C6003023A4E850A82855C
:10390C000B83E0F508A3E0F509AA08FB120891EA7D
:10391C004B70197AFF7BFF120891EA4B7003023A45
:10392C00418A828B83E508F0A3E509F075080080D5
:10393C0008750C0E023A4E05089002EBE0F8E5080B
:10394C00C3984003023A4185080E750F0074037842
:10395C000E1217C58A828B83A3A3E0250EF8A3E071
:10396C00350F123E1570D08E828F83123A69123049
:10397C005F8E828F83A3A3123A6912305DEE24040A
:10398C00F508E43FF509850882F583E08882898390
:10399C00A3A3A3A3F0A3E4F0EE2405F50EE43FF5F6
:1039AC000F850E82F583123A69A3A3A3A312305D8F
:1039BC007512077513007812121A5BEEFCEFFD748A
:1039CC00041218361212E774021217EEE4F512788C
:1039DC0012121A5B850882850983E0FC7D00791739
:1039EC0012341712081374021217EE7407121824EB
:1039FC0012305F7407121824E0FA4B603D85088280
:103A0C00850983123A60121A5B850E82850F831228
:103A1C0043B11212E774021217EE740212183E121E
:103A2C00341712049BE96026740712182412341DF3
:103A3C0012136B8019750C098008750C11800375B5
:103A4C000C01124547851082851183123A74A90C1A
:103A5C0074098028E0F508750900780822123421D1
:103A6C008882898322123A7AE8F0A3E9F022E0F8FE
:103A7C00A3E0F9850E82850F832274041217EE7F62
:103A8C000C02191A74EC121848123B84751000EED3
:103A9C002402F50CE43FF50D850C82F58312341DE0
:103AAC001208918A088B09EA45097003023B688564
:103ABC000A82850B83E064016003023B5DAC08ADB8
:103ACC0009AA0AAB0B120885E9606E850882850984
:103ADC0083122DEAEE2406F50AE43FF50B8E828F55
:103AEC0083A3A3121A728E828F83A3A3A3A3121A89
:103AFC0072850A82850B83121A7279188E828F83D3
:103B0C00123B9612341D1208AF74061217EEE9F828
:103B1C00741668700B850A82850B83E4F0A38014FD
:103B2C00E860128E828F8312341D850E82850F837E
:103B3C00EAF0A3EBF088108018780E121A5BAC0830
:103B4C00AD09EEFAEFFB12088B74021217EEE9F5D1
:103B5C0010AA08AB09120897E510700E850C828527
:103B6C000D8312341D1204A18009741665107003A4
:103B7C00751000A910023A8BEAFEEBFF8C0E8D0F2C
:103B8C00EE2405F50AE43FF50B22124640850C8223
:103B9C00850D832274EA1218487508007509007E99
:103BAC00007F00750A00EC2402F510E43DF511804D
:103BBC0035EC65087003ED65096003023C5588829D
:103BCC008983A3A3E06A7003A3E06B707C8882896D
:103BDC0083A3A3A3A312454BEE28FEEF39FFEA28DB
:103BEC00FAEB39FB050A123D25503A850A0C750D86
:103BFC00007403780C1217C5851082851183123D51
:103C0C0018123E15601FE508450970A58C088D0932
:103C1C0088828983122DE888828983A3A3E02EFAF7
:103C2C00A3E03F80BEE50AC394025003023D137526
:103C3C000800750900EE4F6010EEFAEFFB121365E9
:103C4C008A0E8B0FEA450F70057900023D15750B36
:103C5C0000023CE8850B0C750D007403780C1217F0
:103C6C00C5851082851183E0250CF50CA3E0350D7C
:103C7C00F50DE50C2406F514E4350DF515851482C7
:103C8C00F583123E1A6042E50C2404F512E4350D5E
:103C9C00F513851282F583121A72E50E2508FAE5E2
:103CAC000F3509FB1212E774021217EE851282858A
:103CBC001383E02508F508A3E03509F5098514827E
:103CCC0085158312341D12136BE50B600D7C087D7A
:103CDC00007900AA0CAB0D1212FF050BE50BC39576
:103CEC000A5003023C6085108285118312454B8873
:103CFC00828983A3A3A3A3A3A3E50EF0A3E50F12CC
:103D0C00297BEEF0A3EFF0790102387A123D1C22E8
:103D1C00E0250CF8A3E0350D229002EBE0F8E50A63
:103D2C00C3982274F01218488A0E8B0F8C0A8D0BD4
:103D3C00750D00750C0080507916EE2406F508E41C
:103D4C003FF5098E828F83A3A3121A728E828F8302
:103D5C00A3A3A3A3121A72850882850983121A726F
:103D6C00850E82850F83A3A312341D1208AF74062F
:103D7C001217EEE9F50D7416650D706C85088285C9
:103D8C000983E4F0A3F0050C9002EBE0F8E50CC31A
:103D9C00985066AA0C8A08750900740378081217E3
:103DAC00C5850A82850B83A3A3123E64E8FEE9FF56
:103DBC008E828F83123E1A6040EA2401F508E434A7
:103DCC0000F5099002EBE065087002E509601488C3
:103DDC00828983A3A3A3A3A3A3A3A312344C60033C
:103DEC00023D447918023D46E9609B124547741028
:103DFC00121824123E0C123A74A90D7F0802191ADB
:103E0C00E0FAA3E0F5838A8222F98882898312463C
:103E1C0040EC4D2274F61218487C0080010C900383
:103E2C0048E0F8ECC398501E8C08750900740278B1
:103E3C00081217C5123E59E06A7003A3E06B70DDDF
:103E4C00E8FAE9FB80047A007B00023EFC9002E970
:103E5C00123E648882898322E02508F8A3E03509A4
:103E6C00F92274F21218488A088B09750A00802707
:103E7C008E828F83A3A3A3A3122972600312136BE8
:103E8C007C087D007900EEFAEFFB1212FF8E828F18
:103E9C0083E4F0A3F0050A123D255027850A0C7522
:103EAC000D007403780C1217C5850882850983A34D
:103EBC00A3E0250CFEA3E0350DFF8E828F83123418
:103ECC004C70AD85088285098374FFF0A3F002461F
:103EDC003474F61218481208438A828B83E58245A3
:103EEC008370067A007B008007A3A3A3A312341D62
:103EFC007F0202191A74F412184889088C828D8377
:103F0C00E06402703C1244EAFEA3E0F9EEF874029D
:103F1C006870037429697029750A02750B00780A98
:103F2C00121A5B7410121824121A727410121824BC
:103F3C00121A72A9081211A374061217EEE9F9806D
:103F4C000279010229AF74E812184874FB1217D8D1
:103F5C00E9851882851983F08A168B17ECFEEDFF24
:103F6C007510008E828F83A3A3A3E0A2E4502D745E
:103F7C001D12182412341D12089D8A828B83E5822F
:103F8C0045837003024389790AEEFCEFFDAA16AB58
:103F9C0017121846E9F510600302438C741F1218AF
:103FAC0024E0F508A3E0F5097421121824E0F50AC1
:103FBC00A3E0F50B7423121824E0F50EA3E0F50F23
:103FCC008E828F83E06402600302432AA312454B66
:103FDC00850882850983A3858212858313EE2406C6
:103FEC00F50CE43FF50D888289831243C9F514E47E
:103FFC0039F5157814121AE50100002801282C4017
:10400C0007000228F14003285F40002920420129C3
:10401C004B420229EC41032920420429C4422A4381
:10402C00E50E450F6003024325850C82850D831236
:10403C00454BE8FAE9FB8A828B83E0850A82850B83
:10404C00831243D4121A5B8A828B83A3E0FCA3E015
:10405C000242AEE50E450F6003024325850A8285B8
:10406C000B837401F01243BE850882850983F07CB2
:10407C00007D008E828F83A3A3A3A3E02401FAA367
:10408C00E03400FB120741EA4B60408A828B83E0EC
:10409C002402F8850A82850B83E028F0EA2404F8D0
:1040AC00E43BF988828983E085128285138312436D
:1040BC00E21243D4121A5B8A828B83A31243B1E5BA
:1040CC00082403FAE43509FB0242B3850A82850B06
:1040DC0083E02404F07C047D007900AA12AB131257
:1040EC0012FF02438CE50E450F6003024325124379
:1040FC00BEFEA3E0FF850A82850B837404F0EE8577
:10410C000882850983F0EF851282851383F074038E
:10411C0012183EEEFAEFFB1207418A0C8B0DEA45A2
:10412C000D70030241CF8A828B83A3A3122DE874F6
:10413C000112182E880E890F780E121A5B74051254
:10414C001824121A727CFF7DFF1207477404121791
:10415C00EE8B0FEA450F7033850C82850D8312436D
:10416C00B5121A5B850C82850D83A3121A727C0220
:10417C007D007AD37B8112054374041217EEE9702B
:10418C000A740112182474FFF0A3F08E828F83E05E
:10419C0064027039750C02750D00780C121A5B8E66
:1041AC00828F83A31243B1E5082404FAE43509FB9A
:1041BC001212E774021217EE850A82850B83E02433
:1041CC000280097401121824EEF0A3EFF0740112AE
:1041DC0018241243A3740112182412439A02431F89
:1041EC00E50E450F6003024325850C82850D831275
:1041FC004639AA16AB171211A9850A82850B83744E
:10420C0002F0850882850983EAF085128285138382
:10421C00EB024322E50E450F60030243251243BE19
:10422C00F8A3E0F9850A82850B837402F0E885080F
:10423C0082850983F0E985128285138302432285E6
:10424C000C82850D8312341D1212E1EAFAF8C39523
:10425C000EE4950F405CE8650E450F70047A008003
:10426C0021851882851983E0FCE50E2CFCE4350FC2
:10427C00FDC3EC98ED94005003E08005E50ECAC335
:10428C009AFAEA850A82850B83F08A0A750B007804
:10429C000A121A5B850C82850D83E0250EFCA3E0C7
:1042AC00350FFDAA08AB091212E774021217EE02C1
:1042BC00438C75100702438CE50E450F705B850C23
:1042CC0082850D8312454B850A82850B837407F01A
:1042DC008882898312439B124393E0851282851353
:1042EC0083F0E82402FAE439FB8A828B831243A31D
:1042FC008A828B8312439AA3A312297A1243A8F0C1
:10430C00E82405F8500109888289831243A8A31276
:10431C0043E2A3A3A3A3F0806775100B8062741D06
:10432C0012182412341D1208438A828B83E58245AD
:10433C0083604A12454B880C890DE8450D603E742C
:10434C0025121824E0F5107810121A5F780E121A44
:10435C005B780A121A5B7808121A5B74071218241D
:10436C00E0F9EEFCEFFDAA16AB17850C82850D83E8
:10437C0012184674071217EEE9F510800375100E2B
:10438C00A91074050236E0F088828983A322A3E089
:10439C00850882850983221243E9F0221243E9A39E
:1043AC00A3229002EF12464022E0F50E750F007822
:1043BC000E22850C82850D83123883E022E0FAA34D
:1043CC00E0F8E4C8F9EA2822F08A828B83E0F50A47
:1043DC00750B00780A221243931243E922E08508F8
:1043EC0082850983A3A32274EE12184874FE121757
:1043FC00D88A088B09ECFEEDFF890AAC18AD19EED2
:10440C00FAEFFB1207418A0C8B0DEA450D70030283
:10441C0044DB85188285198312341D1208438A8265
:10442C008B83E582458370030244D6A3A312454BCC
:10443C00880E890FE8450F70030244D674141218C5
:10444C0024E0F510A3E0F511E50AF50B780B121A30
:10445C005F7419121824121A727810121A5B741BDA
:10446C00121824E0F9AC0CAD0DAA08AB09850E822C
:10447C00850F8312184674051217EEE9F50B70526E
:10448C0074FE650A604C850C82850D83E0640270B5
:10449C00411244EAFAA3E0F9EAF874026870037472
:1044AC002969702E8510828511831243C9F50CE49D
:1044BC0039F50D780C121A5BEEFCEFFDAA08AB096E
:1044CC001208C774021217EE8008750B0E80037564
:1044DC000B01A90B74021217EE7F0A02191AA31210
:1044EC00454F88828983E02274F612184874FE12B4
:1044FC0017D8740C12182412454BE88518828519AC
:10450C0083F07401121824E9F0E4F508F509780831
:10451C00121A5B7508027808121A5B740412182EB2
:10452C00880889097808121A5B79FE1208AF74069C
:10453C001217EE74021217EE023EFC8E828F83125B
:10454C00454F22E0F8A3E0F92274F7121848EAFE6E
:10455C00EBFF89089003061243B11211A9EA540229
:10456C00600BA908EEFAEFFB120735800279017F88
:10457C000102191A74F212184874FE1217D8EAFEC6
:10458C00EBFF890A7401650A60147402650A600302
:10459C0002462F7901120AD1E9600302462FEEFA86
:1045AC00EFFB120891EA4B6003120897A818A9199F
:1045BC00880889097808121A5B7508027509007851
:1045CC0008121A5B7508D97509817808121A5B7C78
:1045DC00FF7DFF7A017B0012073B74061217EE80F9
:1045EC0038850882850983A3A3A3A3A3A312463904
:1045FC00EEFAEFFB121191E4F50CF50D780C121A92
:10460C005B7402121824121A727CFF7DFFAA08AB8D
:10461C000912074774041217EE8A088B09E508453E
:10462C000970BE74021217EE7F0602191A12388333
:10463C0012464022E0FCA3E0FD2274F41218488AD2
:10464C00088B09ECFEEDFF901638E0F4604B7A090C
:10465C007B0012130BEA4B60408A828B8374B1F09F
:10466C00A3E41246A8F08A828B83A3A3E508F0A3E7
:10467C00E5091246A8A3EEF0A3EFF0740C1218246F
:10468C0012454B8A828B83A3A3A3A3A3A3A3123AA1
:10469C0074901638E0F91213170229AFF08A828B46
:1046AC0083A3A3A3A32274EE12184874FA1217D88A
:1046BC008A0A8B0BE9FF8C088D097E00850A0C8514
:1046CC000B0D780C121A9F0004108E49FA461D47E8
:1046DC003C475F478247A547D647F94710484048B3
:1046EC00EF481249354963498E498E49694874012E
:1046FC006F7019850882850983E0C39403500D857A
:10470C000882850983E0901724F080027E18024904
:10471C00B674026F7015850882850983E0F8A3E0F2
:10472C00F9901725E8F0A3E9F080027E180249B64B
:10473C0074016F7019850882850983E0C394025057
:10474C000D850882850983E0900749F080027E1868
:10475C000249B674016F7019850882850983E0C31C
:10476C009405500D850882850983E090074AF080F6
:10477C00027E180249B674016F701985088285098A
:10478C0083E0C39402500D850882850983E090076D
:10479C004BF080027E180249B674106F7027750CAE
:1047AC0010750D00780C121A5BAC08AD097A4C7BB5
:1047BC00071212E774021217EE8A0C8B0D850C820D
:1047CC00850D8380027E180249B674016F701985BD
:1047DC000882850983E0C39402500D8508828509FF
:1047EC0083E090075CF080027E180249B674016F7A
:1047FC00700D850882850983E0901728F080027E71
:10480C00180249B674046F702690819E780C1216AB
:10481C009C850882850983780C12152E5011850809
:10482C00828509831216C690075E1216D280027E0C
:10483C00180249B6EF70211206DBE970131211371A
:10484C00E9F50D7950121437E9F50C121125800A8F
:10485C009007F17401F080027E180249B674076F5C
:10486C00707C750E06750F00780E121A5B85088227
:10487C00850983A3AC82AD8374021218361212ED33
:10488C0074021217EE8A108B1185100E85110F7C95
:10489C00007D00AA18AB19850882850983E0F912FE
:1048AC0010CBE9F50CE50CC3940A502E1206DBE98B
:1048BC007015A90C12113DE9F50E7950121437E957
:1048CC00F50D1211258019A80C790074F228F582C7
:1048DC00740739F5837401F080067E0280027E181D
:1048EC000249B674016F7019850882850983E0C38B
:1048FC009402500D850882850983E090075DF08055
:10490C00027E180249B674016F70198508828509F8
:10491C0083E0C3940A500D850882850983E09017C3
:10492C0027F080027E180249B674016F7025850845
:10493C0082850983E0C39407401985088285098321
:10494C00E0C39411500D850882850983E0901729E6
:10495C00F080577E18805374016F70229007F0E03E
:10496C00F50C850882850983E09007F0F0E50C7062
:10497C00399007F0E064017031121125802C7E18FB
:10498C008028C3E50A9427E50B9400501B74026F32
:10499C007016850882850983E0FCA3E0FDAA0AABAA
:1049AC000B12055BE9FE80027E02EEF9740612170B
:1049BC00EE7F0A02191A74EC12184874DA1217D81E
:1049CC00890D8A128B138C0A8D0B743A121824E001
:1049DC00F50C908132AC18AD1974061216EBAC18AC
:1049EC00AD19AA12AB13A90D1210CBE9FEEEC394AC
:1049FC000A4003024B36EEF9121107E9FF90172417
:104A0C00E064027004740180027400F508780812E6
:104A1C001A5FAD0CEFFCEEF9AA0AAB0B121179740C
:104A2C00011217EE7C147D007900741212183612E4
:104A3C0012FF8A0E8B0F850E08850F09741212183F
:104A4C003E7A1075F006EEA42424F9121431E970A4
:104A5C003C7C1079FF741212183612135FE9702D1A
:104A6C007422121824AC82AD837A0475F006EEA47D
:104A7C002425F9121431E9F508741212183EEFA22C
:104A8C00E0E433F9AA0AAB0B1205E5E9F874061257
:104A9C00183E7A0C74702EF9121431E97079740680
:104AAC001218361210FB750E00E50EC394045067F5
:104ABC00A80E7900E875F003A4C8AAF075F000A45C
:104ACC002AFA75F003E9A42AF97406121824E5826F
:104ADC0028F508E58339F509850882850983E0F80E
:104AEC00A3E0F9E849602C850882850983A3A3E03B
:104AFC00F5107511007810121A5B850882850983F0
:104B0C00E0FCA3E0FDAA0AAB0B1208B57402121765
:104B1C00EEE9F8050E8092EFA2E1500E900748E006
:104B2C00F9AA0AAB0B1208BBE9F87404650C700FF8
:104B3C00901724E064027007AA0AAB0B1211737968
:104B4C000074261217EE7F0C02191A74F71218480B
:104B5C00EAFEEBFF1206DBE970679007F1E06401F7
:104B6C00701B121137E9F5089007F17400F07C0AFC
:104B7C007D0079007AF27B071212FF8039750800EC
:104B8C00E508C3940A502FA808790074F228F5821E
:104B9C00740739F583E064017018A90812113DE916
:104BAC00FAA808790074F228F582740739F5837431
:104BBC0000F0050880CA7950121437E9F508121173
:104BCC00257F0102191A74F2121848890BEAFEEBC0
:104BDC00FF8C088D09750A0AE50B600C146009142A
:104BEC006044146064024C77EEFAEFFB121119E981
:104BFC00F50AE50AC3940A5072E5084509606C751C
:104C0C000C06750D00780C121A5BEEFCEFFDAA0871
:104C1C00AB091212E774021217EE8A0C8B0D850C7D
:104C2C0082850D838045EEFAEFFB121113E9F50A2C
:104C3C00E50AC3940A5034E5084509602EAA08AB6E
:104C4C0009A90A12110DE98022EEFAEFFB12111FCD
:104C5C00E9F50AE50AC3940A5011E5084509600B09
:104C6C00AA08AB09A90A12110DE9F8A90A7F0602D4
:104C7C00191A74F21218488A0C8B0DE9FF7E157400
:104C8C00FF650C700474FF650D702A750800E5084B
:104C9C00C3940A5014EFFC7A027B00A9081210E9A5
:104CAC00E960027E00050880E5EF60627A617B11A5
:104CBC00120AF58059AA0CAB0D120AC58A0A8B0B85
:104CCC00850A08850B09E508450960407C007D00D4
:104CDC00E5082405FAE43509FB850882850983A3D8
:104CEC00A3A3A3E0F91210CBE9F50AE50AC3940AD1
:104CFC00500EEFFC7A027B00A90A1210E9E97E0043
:104D0C00EF600BAA08AB0912116180027E14EEF958
:104D1C007F0602191A74EE1218488A0E8B0F8C0A31
:104D2C008D0B7412121824E0F50CA3E0F50D750828
:104D3C001574FF650E700474FF650F701E7E00EE17
:104D4C00C3940A5061AC0CAD0DAA0AAB0BEEF91270
:104D5C0010EFE960037508000E80E4AA0EAB0F1289
:104D6C000AC58A108B11AE10AF11EE4F60357C0066
:104D7C007D00EE2405FAE43FFB8E828F83A3A3A370
:104D8C00A3E0F91210CBE9F509E509C3940A501612
:104D9C00AC0CAD0DAA0AAB0BA9091210EFE9750802
:104DAC00008003750814A9087F0A02191A74F712F7
:104DBC001848EAFEEBFF900762EEF0A3EFF09007C5
:104DCC0048E0FC7D007A267B0012055BE9F5089033
:104DDC000748E0F912081F7F0102191A74F0121823
:104DEC004874EC1217D88A0C8B0D850C82850D83B8
:104DFC00A3A3E024FA700302526124FD7003025055
:104E0C00D6147003024ED814601024FD70030250A7
:104E1C007E147003025115025274AE0CAF0D900744
:104E2C0062E0F8A3E0F9E8496066900762E0F8A355
:104E3C00E0F5838882E0F8A3E0F9E8496052EE24BB
:104E4C000CF582E43FF583E0F5087808121A5FEE62
:104E5C00240BF582E43FF583E0F98E828F83A3A3C4
:104E6C00A3A3A3A3A3A3A3E0FCA3E0FDEE2403FA56
:104E7C00E43FFB900762E0F8A3E0F5838882E0F85A
:104E8C00A3E0F583888212184674011217EE80395C
:104E9C008E828F83A3A3A3A3A3A3A3A3A3121A728B
:104EAC0090075E1216BA1205F774021217EEE9603B
:104EBC001879018E828F83A3A3A3A3A3A3A3A3A377
:104ECC00E0FAA3E0FB1205F1E9025274AE0CAF0D4F
:104EDC007508008E828F83A3E060030250008E82DF
:104EEC008F83A3A3A3A3A3E0A2E0400302500090EE
:104EFC0007FCE0F8A3E0F9E84960030250007C0EDF
:104F0C007D007900AA18AB191212FF8A0A8B0BAA22
:104F1C000AAB0BEE240CF582E43FF583E0F8A3E03A
:104F2C00F9E8496036750A06750B00780A121A5BA7
:104F3C00EE240CF582E43FF583E02410FCA3E0346E
:104F4C0000FD74021218361212E774021217EE8A60
:104F5C000A8B0B850A82850B83804F8E828F83A3ED
:104F6C00A3A3E0FAA3E0FB120AC58A0E8B0F850EF1
:104F7C000A850F0BE50A450B602D750E06750F00A3
:104F8C00780E121A5BE50A2405FCE4350BFD74025D
:104F9C001218361212E774021217EE8A0E8B0F8556
:104FAC000E82850F8380030252748E828F83A3A39B
:104FBC00A3A3A3E0A2E25004D2F08002C2F0A2F0BC
:104FCC00E433F87900740C121824E048F0A3E0499B
:104FDC00F0EEFCEFFDAA18AB19121101E970127A70
:104FEC00027B00900748E0F912133BE9790002526A
:104FFC0076750815900762E0F8A3E0F9E849606F50
:10500C00900762E0F8A3E0F5838882A3A3E0F8A3FD
:10501C00E0F9E84960598E828F83A3E0FC79018E18
:10502C00828F83A3A3A3E0FAA3E0FB900762E0F8CE
:10503C00A3E0F5838882A3A3E0F8A3E0F58388823C
:10504C00121846E5086028AC0879038E828F83A37A
:10505C00A3A3E0FAA3E0FB900762E0F8A3E0F583DA
:10506C008882A3A3E0F8A3E0F58388821218460295
:10507C005274AE0CAF0D900762E0F8A3E0F9E8496A
:10508C006045900762E0F8A3E0F5838882A3A3E073
:10509C00F8A3E0F9E849602F850C82850D83A3E025
:1050AC00FC79028E828F83A3A3A3E0FAA3E0FB908A
:1050BC000762E0F8A3E0F5838882A3A3E0F8A3E0FD
:1050CC00F5838882121846025274AE0CAF0D7C0028
:1050DC007D00EE2404FAE43FFB8E828F83A3A3A30E
:1050EC00E0F91210CBE9F508E508C3940A5017EE65
:1050FC00240AFCE43FFD7A0475F006E508A4242597
:10510C00F912142BE9F8025274AE0CAF0D90075D36
:10511C00E06019901727E0F98E828F83A3A3A3E098
:10512C00FAA3E0FB1205F1E9F8025274901724E09F
:10513C00701679058E828F83A3A3A3E0FAA3E0FBFC
:10514C001205F1E9F80252748E828F83A3A3A3E0B7
:10515C00FAA3E0FB120AC58A0A8B0B850A08850B99
:10516C0009E508450970030252748E828F83A3A34C
:10517C00A3A3A3A3A3E0A2E0506D850882850983B5
:10518C00A3A3A3A3E060608E828F83A3A3A3A3A396
:10519C00A3A3A3A3E0F50AA3E0F50B7409780A1204
:1051AC0017B6E50A5401F8E50B5400F9E8A2E04003
:1051BC0036740E12183EE5082405FAE43509FB8511
:1051CC000882850983A3A3A3A3E0F91210CBE9708D
:1051DC001679038E828F83A3A3A3E0FAA3E0FB12BC
:1051EC0005F1E9F8025274EE2405FCE43FFD850854
:1051FC0082850983A3A3A3A3E0F98E828F83A3A343
:10520C00A3E0FAA3E0FB12116D900762E0F8A3E0B3
:10521C00F9E8496053900762E0F8A3E0F5838882CF
:10522C00A3A3E0F8A3E0F9E849603D7C0079008E87
:10523C00828F83A3A3A3E0FAA3E0FB900762E0F8BC
:10524C00A3E0F5838882A3A3E0F8A3E0F58388822A
:10525C001218468013AE0CAF0D8E828F83A3A3A3BE
:10526C00E0FAA3E0FB1210C5790174141217EE7F5B
:10527C000802191A74F512184874F21217D8890911
:10528C00EAFEEBFF8C0AAC18AD197A0E75F006E548
:10529C0009A42420F9121431E9705F7C0679FFAA65
:1052AC0018AB1912135FE97051740C121824E0F842
:1052BC00A3E0F9E8F508E50A6005EE42088004EE83
:1052CC00F45208A8087900740C121824E0687003D2
:1052DC00A3E0696021A8087900740C121824E8F086
:1052EC00A3E9F0AC18AD197A0E75F006E509A42403
:1052FC0020F912142BE9790180027900740E12172F
:10530C00EE7F0302191A74F012184874E61217D8BB
:10531C00890B8A0C8B0DECFEEDFF740C12183E7A87
:10532C000E75F006E50BA42420F9121431E9600384
:10533C000254427C0679FF740C12183612135FE982
:10534C006003025442AC18AD197A0C7470250BF939
:10535C00121431E9600302543E750A00AA18AB1905
:10536C001210FBE50C450D702E7C0C7900AA18ABC5
:10537C001912135FE960030254247C0C7D00790040
:10538C00AA18AB191212FF8A088B098508828509A5
:10539C0083750A01025424AC18AD19AA0CAB0D127A
:1053AC0010F58A0E8B0F850E08850F09E508450947
:1053BC007030EE4F601BAC18AD197A007B001210E8
:1053CC00F58A0E8B0FA80EA90F88088909E8497079
:1053DC000479008063850882850983E50CF0A3E5D8
:1053EC000DF0850882850983A3A3E0F87900EE68A7
:1053FC007002EF696022EEC0E0850882850983A304
:10540C00A3D0E0F0EE4F700D8508828509837400FF
:10541C00F0A37400F0750A01E50A6016AA18AB191E
:10542C001210FBAC18AD197A0C7470250BF9121410
:10543C002BE9790180027900741A1217EE7F0802A9
:10544C00191A74F61218488A088B097E00EEC39458
:10545C00045050EEF87900E875F003A4C8AAF07572
:10546C00F000A42AFA75F003E9A42AF9EC28F582D5
:10547C00ED39F583E065087004A3E065097021EE51
:10548C00F87900E875F003A4C8AAF075F000A42A16
:10549C00FA75F003E9A42AF9EC28FAED39FB800738
:1054AC000E80AA7A007B007F0202191A74F7121878
:1054BC00487C00ECC394044003025567ECF8790077
:1054CC00E875F003A4C8ADF075F000A42DFD75F0DF
:1054DC0003E9A42DF9EA28F582EB39F583E0F4FE13
:1054EC00A3E0F4FFECF87900E875F003A4C8ADF084
:1054FC0075F000A42DFD75F003E9A42DF9EA28F54B
:10550C0082EB39F583EEF0A3EFF0ECF87900E87557
:10551C00F003A4C8ADF075F000A42DFD75F003E9FF
:10552C00A42DF9EA28F582EB39F583A3A3E0F4C0A6
:10553C00E0ECF87900E875F003A4C8ADF075F00064
:10554C00A42DFD75F003E9A42DF9EA28F582EB39B9
:10555C00F583A3A3D0E0F00C0254BF7F0102191A0B
:10556C0074F012184874F41217D8EAFEEBFF8C088A
:10557C008D099007FCE0F8A3E0F9E849702CEE4F98
:10558C006006E508450970057901025818EEFAEF36
:10559C00FB121119E990172AF090172AE0C3940A0C
:1055AC00400812112BE990172AF090172AE0C394A7
:1055BC000A40030258169007FCE0F8A3E0F9E8490A
:1055CC006003025662EEFCEFFD7A0E75F006901742
:1055DC002AE0A42420F912142BE9F50C7C0C7D0094
:1055EC0079FFAA18AB191212FF8A0E8B0F850E0ABF
:1055FC00850F0BAC18AD197A0C90172AE02470F9B2
:10560C0012142BE9F50D750E0E750F00780E121A8B
:10561C005BEEFCEFFD90172AE0F87900E875F00ED0
:10562C00A4C8AAF075F000A42AFA75F00EE9A42A11
:10563C00F9746428FA740739FB1212E77402121712
:10564C00EE8A0E8B0FA80EA90F9007FCE508F0A3AD
:10565C00E509F00258129007FCE0F8A3E0C8240614
:10566C00F582C83400F583E0F8A3E0F9E84960431B
:10567C009007FCE0F8A3E0C82406F582C83400F5D6
:10568C0083E0FCA3E0FD7A1B75F00690172AE0A4DA
:10569C002421F912142BE9F89007FCE0F9A3E0C9D6
:1056AC002406F582C93400F5837400F0A37400F06D
:1056BC000258129007FCE0F8A3E0C8240AF582C84F
:1056CC003400F583E0F8A3E0F9E84960439007FC67
:1056DC00E0F8A3E0C8240AF582C83400F583E0FCA6
:1056EC00A3E0FD7A1B75F00690172AE0A42422F99A
:1056FC0012142BE9F89007FCE0F9A3E0C9240AF591
:10570C0082C93400F5837400F0A37400F0025812BF
:10571C009007FCE0F8A3E0C8240CF582C83400F52F
:10572C0083E0F8A3E0F9E84960439007FCE0F8A3B4
:10573C00E0C8240CF582C83400F583E0FCA3E0FD3E
:10574C007A1075F00690172AE0A42423F912142B72
:10575C00E9F89007FCE0F9A3E0C9240CF582C93400
:10576C0000F5837400F0A37400F00258129007FC4B
:10577C00E0F8A3E0C82408F582C83400F583E0F80B
:10578C00A3E0F9E849606F9007FCE0F8A3E0C824B7
:10579C0008F582C83400F583E0FCA3E0FD7A1075AF
:1057AC00F00690172AE0A42424F912142BE9F50A28
:1057BC009007FCE0F8A3E0C82408F582C83400F593
:1057CC0083E02410FCA3E03400FD7A0475F006900D
:1057DC00172AE0A42425F912142BE9F89007FCE011
:1057EC00F9A3E0C92408F582C93400F5837400F0EC
:1057FC00A37400F080109007F0E0600312117F1288
:10580C00116779018006790080027901740C1217F6
:10581C00EE7F0802191A74F712184874F21217D88E
:10582C00E9FEAC18AD197A0E75F006EEA42420F939
:10583C00121431E9700E740C121824E0F8A3E0F97C
:10584C00E8F980027900740E1217EE7F0102191A22
:10585C0074F412184874F21217D88909EAFEEBFF97
:10586C00E509C3940A5004EE4F700479028041ACF0
:10587C0018AD197A0E75F006E509A42420F9121456
:10588C0031E9F508E5087026750A06750B00780AEB
:10589C00121A5B740212183EEEFAEFFB1212E77446
:1058AC00021217EE8A0A8B0B850A82850B83A908D4
:1058BC00740E1217EE7F0402191A74F4121848EAC7
:1058CC00FEEBFF750800E508C3940A5043750A0601
:1058DC00750B00780A121A5BEEFCEFFDA808790034
:1058EC00E875F00EA4C8AAF075F000A42AFA75F0B9
:1058FC000EE9A42AF9746A28FA740739FB1212F912
:10590C0074021217EEE96004A9088006050880B637
:10591C00790A7F0402191A74F4121848EAFEEBFF94
:10592C00750800E508C3940A5043750A06750B0008
:10593C00780A121A5BEEFCEFFDA8087900E875F006
:10594C000EA4C8AAF075F000A42AFA75F00EE9A40A
:10595C002AF9746428FA740739FB1212F9740212CA
:10596C0017EEE96004A9088006050880B6790A7F5D
:10597C000402191A74F712184874F01217D8EAFEB8
:10598C00EBFF750800E508C3940A5039AC18AD1943
:10599C007A1075F006E508A42423F9121431E97085
:1059AC00207C1079FFAA18AB1912135FE97012EE64
:1059BC00FCEFFDAA18AB191205C1E97004A9088007
:1059CC0006050880C0790A74101217EE7F010219BF
:1059DC001A74F4121848750800E508C3940A4003B9
:1059EC00025AB7A8087900E875F00EA4C8AAF07599
:1059FC00F000A42AFA75F00EE9A42AF9746428FCC4
:105A0C00740739FD7A0E75F006E508A42420F91206
:105A1C001431E97003025AB27C067D0079FFAA08A2
:105A2C007B00EA75F00EA4CAA8F075F000A428F863
:105A3C0075F00EEBA428FB74642AFA74073BFB1276
:105A4C0012FF8A0A8B0BAE0AAF0B7C067D0079FF26
:105A5C00AA087B00EA75F00EA4CAA8F075F000A4A1
:105A6C0028F875F00EEBA428FB746A2AFA74073B2D
:105A7C00FB1212FF8A0A8B0BAC0AAD0BA80879003B
:105A8C00E875F00EA4C8AAF075F000A42AFA75F017
:105A9C000EE9A42AF9747028F582740739F5837419
:105AAC0000F0A37400F005080259E59007F0E060DF
:105ABC000312117F1211677F0402191A74F712185E
:105ACC00487E00EEC3940A50327C0679FFEEFA7BD6
:105ADC0000EA75F00EA4CAA8F075F000A428F875B9
:105AEC00F00EEBA428FB74642AFA74073BFB121328
:105AFC005FE96004EEF980050E80C8790A7F010227
:105B0C00191A74F71218487E007F00EFC3940A50DC
:105B1C00357C0679FFC9FDC9EFF87900E875F00E00
:105B2C00A4C8AAF075F000A42AFA75F00EE9A42A0C
