:020000040000FA
:060000000201070220F9D5
:03002B000224FDAF
:0300530002216F18
:10008300021F4FE5C754F84401F5C7790122000068
:100093000080FB120086B900030200F1E4792178A5
:1000A30008B800028004F709D8FCE479297802B87B
:1000B30000028004F709D8FCE490028178A979133F
:1000C3008002F0A3D8FCD9FA7A297B1590013778FE
:1000D300B879038015E493A3AD82AE838A828B83C0
:1000E300F0A3AA82AB838D828E83D8E9D9E7758288
:1000F300897583FF740112011975829175830074E8
:100103000012011975D00075813F751881751902A8
:10011300759F00020096C09FF59FE473D09F22D085
:1001230083D082C09FE493C0E0740193C0E0740263
:1001330093F59F22FF0000B4000028002800283018
:1001430075A000A000A000A00000080008E001F0D6
:10015300001000100010001000100010005000509C
:1001630000500010001000D0070000000000000F36
:100173000001000500307507001000010081FF0039
:10018300000000FFFFFF10062E0616065206FF02B0
:10019300020208025000A0000000E80302CC810123
:1001A3000000BF8102D081010000841502D68101C5
:1001B3000000BF0202D081010000851502D8810131
:1001C3000000D50202D081010000861502DA810108
:1001D3000000D70202D081010000871502FA8108CE
:1001E3000000D80202D081010000881502DE8101DF
:1001F30000008915FF0100FF2002CC81010000C52A
:100203008102D081010000ED1502E08100000000B1
:100213000002D48103000006031700BE0CBE0CBE0F
:100223000CBE0CBE0CBE0CBE0CBE0CBE0CBE0CBE7B
:100233000CBE0CBE0C640F760F5E0F0202020202AC
:1002430002020202010D000000100102CC81010034
:1002530000BC8102D081010000301602F68101004A
:1002630000400702D081010000311602F281010033
:1002730000158102D081010000321602F0810100D5
:1002830000078102D081010000331602E2810100E0
:1002930000818002D0810100003416022281010016
:1002A30000A58002D081010000351602DC81010027
:1002B30000938002D081010000361602EE81010016
:1002C30000B78002D081010000371602FC810100D3
:1002D30000F98002D081010000381602F481010088
:1002E30000391601E8030577100A0A120A02436F60
:1002F3006D6D616E6400526573706F6E7365004D52
:1003030061696C626F780044657669636520496E44
:10031300666F0002CC81010000C28102D08101001E
:1003230000DF1602E6810300002F0802D2810100DC
:1003330000E31602D081010000E01602E8811200FA
:1003430000310802D4810300004B0802D28101006E
:1003530000EB1602D081010000E11602EA810A00D7
:1003630000330802D281010000F41602D08101009B
:1003730000E21602EC810A0000470802D281010064
:1003830000FC16FFFFFF00013075030201060000A9
:10039300000000000000000000000000000000005A
:1003A30000000000000000000000FFFF0600800CBA
:1003B300E8030D095050474675656C4761756765DD
:1003C300051250002003020A000201060302F0FF97
:1003D3005050474675656C476175676500000000BE
:1003E3000000000000C6130000D813120122389D3C
:1003F300031201224B9D031201227C9D0312012251
:10040300B69D031201220F9E03120122569E031270
:1004130001229E9E03120122CD9E03120122FC9E05
:1004230003120122339F031201227A9F0312012236
:10043300939F03120122E89F0312012201A00312DA
:1004430001224FA00312012289A003120122077780
:10045300001201220A7800120122437800120122BD
:10046300667800120122787800120122B678001211
:100473000122327900120122FA79001201221C7A38
:1004830000120122B37A00120122057B001201221D
:10049300367B00120122437B00120122AD7B001246
:1004A3000122047C00120122077C00120122407CFD
:1004B30000120122437C001201224D7C0012012212
:1004C300A17C00120122E27C00120122157D0012A0
:1004D3000122527D00120122547E00120122F87E75
:1004E30000120122617F001201229F7F001201226C
:1004F300879103120122AF9103120122DC910312AF
:100503000122149203120122729203120122BE925B
:100513000312012225930312012265930312012280
:10052300A29303120122D093031201227A9403129D
:100533000122849403120122919403120122C49490
:1005430003120122D09403120122E8940312012220
:10055300F2940312012282BC0312012290BC031203
:100563000122A8BC03120122BFBC03120122BBBAA1
:100573000112012265BB0112012278BC0112012282
:10058300F4BC0112012212BE011201224EBE01125D
:100593000122E9BE01120122CDBF0112012299C03D
:1005A3000112012227C20112012298C20112012263
:1005B30052C30112012244C40112012284C4011254
:1005C300012238C5011201226AC50112012260C746
:1005D30001120122A2C701120122C0C70112012286
:1005E30026C801120122F5C801120122B9C901125C
:1005F3000122D8CB011201225BDB0212012245DC6E
:1006030002120122F0DC0212012241DD0212012258
:10061300F1DD0212012262DE0212012247DF021221
:1006230001227BDF0212012274E002120122B1E0F7
:10063300021201228DE102120122CCE102120122F7
:10064300E8E10212012296B3031201221AB4031243
:10065300012245B4031201225FB5031201228095E2
:1006630003120122969503120122B495031201226B
:10067300C59603120122CF9603120122FA970312A1
:100683000122F198031201225E990312012249E229
:10069300021201227FE302120122B6E302120122B7
:1006A3000DE40212012222E6021201220596011232
:1006B3000122919601120122F5970112012201985C
:1006C300011201223C9801120122AB98011201226E
:1006D300B49901120122BD9A01120122849B0112D5
:1006E3000122E19C01120122FF9C011201221C9DA7
:1006F30001120122C99D01120122469E011201220B
:100703006E9E0112012238A1011201223DA10112A4
:10071300012256A301120122A4A30112012214A44F
:100723000112012252A4011201222EA5011201225B
:10073300EEA5011201223AA6011201223DA60112E1
:10074300012281A601120122C9A60112012208A7D2
:10075300011201222AA7011201225EA7011201221E
:10076300C1A701120122E9E702120122F7E70212EF
:1007730001224AE80212012269E802120122AEE8CC
:1007830002120122F2E9021201228DEA021201226F
:10079300D1EA02120122FBEA021201226AEB0212DF
:1007A3000122B0EB0212012227EC02120122D8EC43
:1007B30002120122302500120122402500120122DB
:1007C300E125001201223D2600120122FA26001221
:1007D300012216280012012248280012012277283C
:1007E30000120122242A001201229B2C0012012252
:1007F3000B2F00120122FD2F00120122F6300012EE
:100803000122FD3200120122F135001201222037AC
:1008130000120122243900120122343A001201226B
:10082300C33B00120122B43C00120122023D00121C
:100833000122713D00120122953D00120122E63D85
:100843000012012287420012012288430012012272
:10085300E94300120122144400120122DA44001277
:1008630001224D8D03120122578D031201229C8D0B
:1008730003120122B08D03120122408E03120122C2
:10088300798E03120122B48E03120122DD8E03122C
:100893000122318F03120122468F03120122688F36
:1008A300031201227D8F03120122918F0312012271
:1008B300A68F03120122E08F031201220C90031270
:1008C3000122559003120122C790031201220A91BB
:1008D300031201223491031201225F9103120122B8
:1008E3006EBB031201221CA402120122FFA40212F6
:1008F30001227AA502120122B5A50212012206A73E
:100903000212012294A70212012226AA0212012234
:10091300D8AA02120122E4AB0212012257AD02123D
:100923000122B0AD021201229AFB02120122DDFB69
:100933000212012261FC0212012238FF021201227B
:100943002AAF03120122DCAF03120122D8B0031233
:10095300012217B10312012271B1031201228EB5D4
:1009630003120122F1B5031201228EB603120122F2
:10097300C3B603120122F3B6031201222EB70312E8
:1009830001224EB703120122E6F60212012272F788
:100993000212012231F80212012249F90212012244
:1009A30063FB02120122888D02120122AD8D021215
:1009B30001227A8E021201224E8F02120122BB8F74
:1009C30002120122FB8F02120122979002120122CE
:1009D300CB9102120122A692021201220593021266
:1009E3000122919302120122FF93021201228B949E
:1009F30002120122D1940212012243950212012212
:100A0300D5950212012276960212012296960212BF
:100A13000122DE9602120122279702120122439736
:100A230002120122699702120122E39702120122A4
:100A3300F19702120122809802120122E998021210
:100A43000122008003120122858003120122C78044
:100A530003120122AB810312012218820312012225
:100A63005C8203120122A08203120122CD820312AF
:100A73000122F582031201222D83031201226B83CB
:100A8300031201229283031201220C840312012216
:100A9300568403120122E5CB0112012284CD0112F7
:100AA3000122BCCF0112012210D0011201223BD03E
:100AB3000112012217D10112012247D10112012291
:100AC30076D10112012289D101120122CAD1011268
:100AD3000122F7D10112012245D20112012281D252
:100AE30001120122C6D20112012213D301120122E3
:100AF3008DD301120122CED501120122B8D70112E2
:100B03000122F4D70112012283D901120122C8D98B
:100B1300011201223BDA0112012290DA01120122B1
:100B230095DA011201221FDB011201223EDC0112C0
:100B330001224FDC0112012201C2021201227AC2F8
:100B43000212012234C8021201223FC902120122F9
:100B5300E8CA0212012276CB02120122F4620012C9
:100B63000122756300120122A26300120122EB63CA
:100B730000120122EC6400120122456500120122D9
:100B8300C166001201224367001201225E67001250
:100B93000122CF67001201228C68001201224F69E3
:100BA30000120122DD6900120122946A001201225F
:100BB300A76A00120122406B00120122D76B0012B8
:100BC3000122FE6B00120122676C00120122B16C3C
:100BD30000120122FF6C00120122A46D00120122F7
:100BE300426E00120122CF6E00120122406F0012EA
:100BF3000122876F00120122DF6F001201221170A0
:100C030000120122CB7000120122D27100120122C4
:100C13001B72001201223872001201225772001255
:100C230001228A73001201224174001201226674A8
:100C3300001201227B7400120122EB7400120122C4
:100C43002C7500120122507600120122D176001277
:100C5300012241B8021201228CB80212012298B873
:100C6300021201226CB90212012283B9021201227B
:100C7300C0B902120122F1B90212012229BA0212E9
:100C830001227FBA0212012295BA02120122D1BABD
:100C930002120122E4BA021201220BBB0212012248
:100CA3003FBB0212012265BC02120122AFBD021238
:100CB3000122ABBE02120122C8BF02120122F17F40
:100CC3000012012272DC01120122ADDC01120122A9
:100CD300FFDF011201225BE1011201221AE201127C
:100CE300012281E5011201226BE601120122B7E61E
:100CF30001120122D1E6011201220EE701120122A3
:100D030019E70112012258E70112012261E70112DA
:100D130001220BE801120122E2E80112012236E965
:100D23000112012293E90112012205EA01120122B3
:100D330099A801120122F8AB01120122FEAB0112A4
:100D430001222FB30112012236B701120122F1A0B1
:100D530003120122CEA10312012212A203120122C5
:100D63004CA203120122E4A20312012253A3031291
:100D730001225CA30312012268A30312012282A3AE
:100D830003120122ACA303120122DCA303120122EA
:100D93000B890312012218890312012232890312DB
:100DA3000122658903120122A38903120122088A01
:100DB300031201221D8A03120122288A031201222F
:100DC300358A031201224C8A031201225A8A031222
:100DD3000122658A03120122718A03120122808A89
:100DE300031201228B8A03120122AE8A031201220B
:100DF300528B03120122628B031201227C8B03129A
:100E03000122998B03120122B48B03120122D98B85
:100E130003120122E48B03120122F98B0312012234
:100E23000D8C031201226E8C03120122748C0312A7
:100E330001227A8C03120122808C03120122988CE6
:100E430003120122CB8C031201220580021201221C
:100E53009C80021201223481021201222482021296
:100E630001225B82021201226E8202120122DC82C3
:100E7300021201227784021201229E8402120122AD
:100E83004085021201227585021201228685021213
:100E93000122FF85021201222086021201223886D6
:100EA3000212012290870212012299890212012261
:100EB300E98B02120122EC8C021201223B8D0212F9
:100EC300012254EB0112012251EC011201223CEDEB
:100ED3000112012246ED0112012268ED01120122E5
:100EE30074ED01120122C6EE01120122F5EE011288
:100EF300012225F00112012267F00112012293F170
:100F03000112012269F201120122BBF20112012234
:100F13001AF30112012251F3011201228CF301127F
:100F2300012227F70112012240F701120122C2F721
:100F330001120122D0F70112012225F80112012228
:100F430033F801120122A0F80112012212F9011251
:100F5300012258F9011201220C99021201222E9941
:100F630002120122189B02120122BD9E02120122CB
:100F730000A002120122DAA0021201225CB70312BE
:100F8300012281B703120122F2B703120122A0CB7F
:100F930002120122A9CB02120122B2CB02120122B8
:100FA300E3CC0212012202CF0212012238CF021235
:100FB300012272CF02120122A8CF02120122E2CF34
:100FC3000212012216D00212012242D00212012281
:100FD3008BD002120122C5D0021201220DD10212BE
:100FE300012263D10212012298D102120122F3D10C
:100FF300021201222DD2021201227ED202120122FA
:10100300B4D202120122EED2021201221CD3021226
:1010130001223FD3021201224FBD031201227BBDE5
:1010230003120122D6BD03120122E0BD03120122E5
:10103300F0BD03120122E8F1021201220FF20212A3
:1010430001224AF202120122D0BF031201224645B5
:1010530000120122564800120122EB49001201221C
:10106300664A00120122124B00120122B54B0012F4
:1010730001224D4C001201227C4C0012012214511A
:1010830000120122A65100120122E2520012012293
:101093004C5300120122005400120122B6560012D2
:1010A3000122F056001201225A5700120122B757AB
:1010B3000012012214580012012271580012012259
:1010C3005C5900120122A25900120122ED590012AB
:1010D3000122105A00120122575B001201226B5B9E
:1010E30000120122DA5C00120122195D00120122B2
:1010F300595D00120122AC5D00120122CD5D001288
:1011030001220B5E00120122316000120122726083
:10111300001201220D61001201227F6100120122DF
:10112300C06200120122E8A9031201228EAA03124F
:1011330001227BAB03120122BAAB0312012224ACBE
:1011430003120122B8C0031201220FA703120122C6
:10115300DAA9031201229BC003120122FABD031272
:1011630001220ABE031201221EBE031201229ABEED
:10117300031201220AA403120122B2A403120122C0
:10118300F4A603120122F47F00120122EAFF0212E5
:101193000122EAEC021201225BED02120122D2EEDD
:1011A30002120122A5F00212012269F102120122A8
:1011B30086F1021201224CBA031201227DBA0312F4
:1011C3000122A7BA0312012205BB03120122CDD3C8
:1011D30002120122E2D3021201223ED402120122A0
:1011E300A9D402120122F1D40212012263D5021200
:1011F30001228CD5021201229AD502120122FCD5BA
:10120300021201223AD60212012255D602120122FB
:10121300F0D60212012299D7021201221CD802121F
:10122300012255D802120122E0D80212012237D935
:101233000212012295D902120122A7D90212012218
:10124300CDD902120122D6D90212012227DB0212C2
:1012530001229CB10312012203B203120122C0B284
:10126300031201223EB303120122689903120122E1
:101273009B9903120122CD9A03120122119B03129F
:101283000122ED9B0312012212B903120122F0B9CC
:101293000312012292AC03120122D7AC03120122E2
:1012A3001DAD03120122E6AE0312012240BF031259
:1012B30001225BBF031201226BBF031201229DBEF9
:1012C3000312012259AE0212012235AF021201228A
:1012D3007CAF02120122B9AF0212012227B002121F
:1012E300012281B002120122F1B002120122C1B126
:1012F30002120122B0B20212012227B3021201220A
:10130300C3B40212012250B502120122C3B5021264
:1013130001223FB60212012256B6021201227BB706
:1013230002120122D5B702120122E1F901120122B0
:1013330001FA0112012207FB0112012253FB0112E0
:10134300012273FB01120122C6FB0112012233FCAD
:101353000112012279FC01120122DDFC011201229A
:10136300FF81011201222C87011201222F8A01120F
:101373000122588A01120122818A01120122338B30
:10138300011201221C8D01120122678E011201221A
:10139300808E01120122B79301120122F0930112F0
:1013A30001223494011201224595011201229684EF
:1013B300031201229286031201224587031201229E
:1013C30063870312012285870312012264880312B3
:1013D3000122738803120122D5880312012255C00A
:1013E30003120122C57F00120122DEFF01E06670B5
:1013F3001008A3E066700A08A3E066700408A3E07F
:101403006622C3E7960809E7960809E7960809E7FD
:101413009622C3E09608A3E09608A3E09608A3E00B
:101423009622C008C3E096F50808A3E09642080890
:10143300A3E096420808A3E09645087001D3D008BC
:1014430022080808EAC0E0EBC0E086F0E7A4FA1837
:101453000986F0E7A42AFA180986F0E7A42AFA18FD
:101463000986F0E7A42AFA1986F0E7A4FBE5F02A37
:10147300FA190886F0E7A42BFBE5F03AFA19088677
:10148300F0E7A42BFBE5F03AFA18180986F0E7A475
:10149300C5F02BFBE43AFA1908E7C5F0C6A426F613
:1014A300E5F03BFBE43AFA1886F0E7A4F6E5F0082A
:1014B30026F6E43B08F6E43A08F6D0E0FBD0E0FA7F
:1014C300226016080808C6C313C618C613C618C672
:1014D30013C618C613C6D5E0EA2270090808082205
:1014E3006016181818C6C333C608C633C608C633F1
:1014F300C608C633C6D5E0EA22E627F60809E6376A
:10150300F60809E637F60809E637F622E026F60874
:10151300A3E036F608A3E036F608A3E036F622E0A9
:1015230026F008A3E036F008A3E036F008A3E0367F
:10153300F022C3E697F60809E697F60809E697F658
:101543000809E697F622C3E096F008A3E096F008B0
:10155300A3E096F008A3E096F022E056F608A3E095
:1015630056F608A3E056F608A3E056F622E056F036
:1015730008A3E056F008A3E056F008A3E056F022D3
:10158300E0F608A3E0F608A3E0F608A3E0F622E6F7
:10159300F008A3E6F008A3E6F008A3E6F022E0FAD9
:1015A300A3E0FBA3E0FCA3E0FD22E0F8A3E0F9A3A2
:1015B300E0FAA3E0FB22E8F0A3E9F0A3EAF0A3EB4F
:1015C300F022CAC0E0E6F0A308DAFAD0E0FA22CAB1
:1015D300C0E0E0A3C582CCC582C583CDC583F0A39B
:1015E300C582CCC582C583CDC583DAE6D0E0CA22E5
:1015F300C3E498F8E499F91216348026C3E49AFAFE
:10160300E49BFBE920E7E9121634E498F8E499F93E
:1016130022C3E498F8E499F9121634E498F8E499AB
:10162300F9C3E49AFAE49BFB22EB20E7CFE920E736
:10163300E0B90010BB0008E88AF084F8AAF022E4BD
:10164300FBC8FA22EB70227B10C833C8C933C933F5
:101653005007C39AC3DBF280069A50012ADBEAC81B
:1016630033F4C8C933F4C9FA2275F008E4C833C89F
:10167300C933C933C99AC99B5004C92AC93BD5F098
:10168300ECFBC833F4C8E4C9FA22600D08C6A2E72C
:1016930013C618C613C6D5E0F322600C08C6C313DD
:1016A300C618C613C6D5E0F422700422600D18C60E
:1016B300C333C608C633C6D5E0F41822251810AFC5
:1016C30008F518400C15198008F51840021519D2B1
:1016D300AF2200C0D0251810AF08F518500C05191B
:1016E3008008F51850020519D2AFD0D0222518F57D
:1016F3008210AF08F518400C15198008F518400240
:101703001519D2AF851983222518F582E43519F509
:1017130083222518F8E43519F9222518FAE4351936
:10172300FB222518FCE43519FD22E4732518C58234
:10173300C0E0E51934FFC583C0E0E518C3958224F2
:10174300F810AF0885831985821880088583198569
:101753008218D2AFCEF0A3E520F0A37808E608F014
:10176300A3DEFAEFF0A3E58124FAF8E608F0A3E696
:1017730008F0A3E608F0A30808E608F0A3E608F0DB
:10178300A315811581D0E0FED0E0F81581158115F0
:1017930081E8C0E0EEC0E0222518C582C0E0E5196B
:1017A30034FFC583C0E0E518C3958224F910AF0860
:1017B3008583198582188008858319858218D2AF9D
:1017C300CEF0A3E520F0A37808E608F0A3DEFAEF55
:1017D300F0A3E58124FBF8E608F0A3E608F0A308EC
:1017E30008E608F0A3E608F0A315811581D0E0FE12
:1017F300D0E0F815811581E8C0E0EEC0E02285193C
:1018030083851882E0A3FEE0A3F5207808E0A3F621
:1018130008DFFAE0A3FFE0A3C0E0E0A3C0E0E0A399
:10182300C0E0E0A3C0E0E0A3C0E010AF08858218E9
:101833008583198008858218858319D2AFD083D018
:101843008202011F851983851882E0A3FEE0A3F5B8
:10185300207808E0A3F608DFFAE0A3FFE0A3C0E0E6
:10186300E0A3C0E0E0A3C0E0E0A3C0E010AF0885C0
:1018730082188583198008858218858319D2AFD091
:1018830083D08222C0D02518C582C0E0E51934FF79
:10189300C583C0E0E518C3958224F310AF088583A0
:1018A300198582188008858319858218D2AFC8F0FC
:1018B300A3E9F0A3EAF0A3EBF0A37908E709F0A307
:1018C300D8FAECF0A3EDF0A3EEF0A3EFF0A3D0E091
:1018D300F0A3D0E0F0A3D0E0F0A3E520F0A3E5F07F
:1018E300F0A322851983851882E0C0E0A3E0F9A361
:1018F300E0FAA3E0FBA37808E0F608A3DFFAE0FC34
:10190300A3E0FDA3E0FEA3E0FFA3E0C0E0A3E0C0EB
:10191300E0A3E0F5D0A3E0F520A3E0A3F5F010AF3A
:10192300088583198582188008858319858218D2D2
:10193300AFD082D083D0E0F8D0E032740480067454
:101943000280027401C0E0F4041216F0D0E0121514
:10195300C5227404800474028000CCC0E0EDC0E0B2
:10196300E518C39CCCAD1950011D10AF068C188D22
:101973001980068C188D19D2AF1215D2D0E0FDD084
:10198300E0FC22D083D082E9C0E0E493A3C386F0D5
:10199300C5F095F0F908E493A386F0C5F095F070CF
:1019A3000BE493A3C3994005E9048002A3E475F013
:1019B30002A42582F582E5F03583F583D0E0F9E4CE
:1019C30093A3C0E0E493C0E022D083D082ECC0E0D4
:1019D300EDC0E0E493A3FCE493A3FDED4C600D1292
:1019E3001A18EC24FFFCED34FFFD80EFE493A3FC15
:1019F300E493A3FDED4C600D121A57EC24FFFCEDAC
:101A030034FFFD80EFD0E0FDD0E0FCE493A3C0E021
:101A1300E493C0E022C0E0C3E49396087401939674
:101A230018400FE4936670080874019366187000F9
:101A33007019A3A3C3E49396087401939618A3A300
:101A4300400DD0E0D0E0D0E0021A08A3A3A3A3A3E3
:101A5300A3D0E022C0E0C0F088F0E49366700808E9
:101A630074019366187000A8F0A3A3700BD0F0D094
:0F1A7300E0D0E0D0E0021A08A3A3D0F0D0E02228
:101A840074F612179BEAFEEBFF8C088D09EE2434E2
:101A9400F8E43FF9E8FCE9FDEE2435121D97FAEE6F
:101AA4002437121D97F88508F0A4C885F00A850923
:101AB400F0A4250AF9EA28F8E439F97A257B00121A
:101AC4001634EA8C828D83F0FA131313541FF8EE44
:101AD40028F8E43FF9E8245DF582E439F583E0C0B1
:101AE400E074075AF8D0E0B800028004C313D8FCAD
:101AF400A2E0EE50082434F582E43F801824361224
:101B04001D97F5F0EA84A8F0EE28F8E43FF9E824FC
:101B140038F582E439F583E0F97F0302184774F756
:101B240012179BEAFEEBFFEE2434121D97C0E0EE81
:101B34002435F582E43FF583D0E0F08E828F83A3D1
:101B4400A3A3A3A3A3A3C082C0838E828F83A3A3D2
:101B5400A3A3A3E0F8A3E0F9D083D082E0C398F56F
:101B640008A3E099F509EE247F121D976401703EE5
:101B7400EE2480F582E43FF583C082C0838E828F99
:101B840083A3A3A3A3A3E0240108A3E03400F9D012
:101B940083D082E0687003A3E06970127CB17D0495
:101BA400120BFEEE247FF582E43FF583E4F0AC08EB
:101BB400AD09EEFAEFFB121A84E9F91224EF7F0261
:101BC400021847C082C083851882851983E0F8A370
:101BD400E0F9C3EA9CEB9D5010C3EC98ED99401BCF
:101BE400C3EA98EB995014800EC3EA98EB99400726
:101BF400C3EC98ED994004790180027900D083D038
:101C04008222EAC39CFAEB9DFB2274EF12179B908D
:101C14000376E064086005E06407702A9061C8E018
:101C240060249003A4E0F4601DE0F875F00BA4C8F0
:101C3400AAF02AF974A628FE740339FF8E828F83D2
:101C4400A3A3A3E07003021D1C906060E0C0E0EE5B
:101C54002468F582E43FF583D0E0F0750C21750D1E
:101C640005750800750900E5D914F50AE5D954038A
:101C7400F50E60127403650E6043E50A600AEE24F3
:101C840067121D977002807590051CE06401601F47
:101C9400121D9460047A0480027A00E50AC39AFA59
:101CA40095E0FB120AA88A088B09EA450970051217
:101CB4000E2C8064121D9470048A0C8B0DE50A604E
:101CC40012850C82850D83F50BE5D9F0A3150BE580
:101CD4000B70F6121D94604474FC250AF50A780C06
:101CE400121942AC0AA90EEEFAEFFB120CB87402F8
:101CF4001216D5E97026AA08AB09121258793D8E3E
:101D0400828F83A3A3A3A3E0FA7B0012090AEEFA4D
:101D1400EFFB120C22120CCA7900806F7403650E5B
:101D24006051850A107511007810121942AC0CAD7F
:101D34000DAA08AB09120C7C74021216D5EE2468A5
:101D4400121D9764807004747F8001E0F50C780C98
:101D5400121946E50EF50C780C121946A90AAC08BE
:101D6400AD099003A4E0FA7B001208E07402121695
:101D7400D58013900376E06408600BAC0CAD0DEED7
:101D8400FAEFFB120D42120E3879017F0A0218474E
:101D9400EE2483F582E43FF583E02274F212179B6C
:101DA40074FC1216BFEAFEEBFF8909A2AFE433F517
:101DB40008C2AF021E69E0601B780C121942AC0B1A
:101DC400A90EEEFAEFFB120CB274021216D57404CB
:101DD400250BF50B7401250BF5D9850ED9E50B60A0
:101DE40018F50A850C82850D83E0F5D9A385820C4C
:101DF40085830D150AE50A70EA75E195EE2463F80A
:101E0400E43FF97A007B00A2AFE433F50BC2AF885C
:101E1400828983E0FCA3E0FDEC4D603A88828983EB
:101E2400E0FAA3E0FB8A828B83E0FCA3E0FD8882D6
:101E34008983ECF0A3EDF08A828B83E4F0A3F0882D
:101E4400828983E0FCA3E0FDEC4D700A88828983DB
:101E5400A3A3E4F0A3F0E50BA2E092AF1212589012
:101E640004B8E004F0EE2463121D97F8A3E0F9E847
:101E7400496064EE2463121D972402F8A3E0340041
:101E8400F988828983E5822402F50CE43583F50D13
:101E9400E0F50BA3E0F50EEE2462121D97640170C9
:101EA400369061D0E0F8121D9460047C0480027CBA
:101EB400007480C398FA95E0FBE50B2CF8E4340039
:101EC400F9E82402F8500109C3EA98EB99A2D26513
:101ED400D0334003021DBA9004B8E0604D9004B9B9
:101EE400E0F89004B8E0C398500C74026509703AA5
:101EF4009004BAE060348E828F83A3A3A3A3E08509
:101F04001882851983121F3E740212170BE8121FE0
:101F14003E9004B7E028F07402121725AA18AB19F2
:101F240079011209349004B8E4F0E508A2E092AF14
:101F340074041216D57F07021847F0A3E4F0900446
:101F4400B8E0F8228521878522C622C0E074EB120E
:101F54001887A2AFE433F508C2AF759B0090618285
:101F6400E0A2E05030E591A2E0502A7591FE7401A0
:101F7400652170211220E2120D841220D01219550D
:101F840012229974041216D5E964017005790112BC
:101F94000DC0121C0E906182E0A2E5505DE591A295
:101FA400E550577591DF900376E064076005E064BF
:101FB40008702F1220E274016521703E120D841204
:101FC40020D012195512229974041216D5E964010D
:101FD40070057901120DC07901EEFAEFFB121D9F15
:101FE4008018E0640D7013900398E004F064287086
:101FF40002E4F07A00E0F9120E3E906182E0A2E67B
:1020040040030220A5E591A2E640030220A57591B4
:10201400BF900376E064057008120D6C120D788091
:1020240003120D72752100120DCCE9900377F0793B
:1020340000120DC0120B6E7A017B00900375E0F95B
:10204400121228907803E064427056900520E01440
:10205400F0704EC2AF12205C00782AD0E0F618D09F
:10206400E0F6E59F5407F87005750DFF8003750DC4
:102074007FC4C0E07829E6F50A08E6550DF50B742F
:102084000B780A12169DD0E0250AF8906270E0A23F
:10209400E740F8E8C333906272F0906270E0D2E0F7
:1020A400F0906181E0A2E35009E5E9A2E3500375F1
:1020B400E9F7A3E0A2E75009E591A2E7500375917F
:1020C4007FE508A2E092AF7F080218E68E828F8334
:1020D400E0F8A3E0C82416F582E438F583229003DF
:1020E400A4E0F875F00BA4C8AAF02AF974A628FE97
:1020F400740339FF22C0E0C0D0C082C083906183E2
:10210400E0A2E05009E5BFA2E0500375BFFEE0A2E3
:10211400E15009E5BFA2E1500375BFFDE0A2E25022
:1021240009E5BFA2E2500375BFFBE0A2E35009E555
:10213400BFA2E3500375BFF7E0A2E45009E5BFA2D4
:10214400E4500375BFEFE0A2E55009E5BFA2E550F6
:102154000375BFDFE0A2E65009E5BFA2E6500375B0
:10216400BFBFD083D082D0D0D0E032C0E074F212AE
:102174001887E5A7A2E6500FE5A1A2E6500953A7E8
:10218400BF75A1BF1221C3E5A7A2E5500CE5A1A22A
:10219400E5500653A7DF75A1DFE5A7A2E15009E5E5
:1021A400A1A2E1500375A1FDE5A7A2E2500CE5A1AF
:1021B400A2E2500653A7FB75A1FB7F010218E67447
:1021C400F712179B752101900376E06406701512CF
:1021D4000CEE8A828B83A3A3A3A3A3A3E0FAA3E0B8
:1021E400FB120D5AA2AFE433FED2AF90037CE0643D
:1021F4000170187A207B00900375E0F912134E7A6F
:10220400207B00900375E0F912122E906182E0D2D7
:10221400E6F090051DE0602185C622801690037BC0
:10222400E064017008E5C654F84405F5C653BEFCE5
:10223400121F487401652160E4EEA2E092AF7F02B0
:10224400021847008E238F248582288583278518CA
:1022540082851983E0CEA3E0CF852882852783EB8E
:10226400C9EAC8EDCBECCA75F010C3E833C8E9334A
:10227400C9EA33CAEB33CBC3EA9EF526EB9FF525B7
:10228400B35004AB25AA26EC33CCED33CDD5F0DA2C
:10229400AE23AF242274F112179B8A088B098C0A8F
:1022A4008D0B9081AC780812155D740F12170B78A2
:1022B4000C1215839081AC780C12155D7808790C9A
:1022C40012140590816450107808790C1215357831
:1022D400081214254014800E780C790812153578EC
:1022E4000C12142550047901800279007F08021829
:1022F4004774ED12179B8A088B098C0A8D0B908109
:10230400AC780812155D741312170B780C12158330
:102314009081AC780C12155D780C79081214054084
:10232400117808790C121535AA08AB09AC0AAD0B63
:102334008022751000751100751200751301781054
:10234400790C121535781079081214FCAA10AB1107
:10235400AC12AD137F0C0218479081AC78081215AB
:10236400838A828B8378081215707F04021847745D
:10237400F512179B8C828D8378081215838A828BC1
:102384008378081215491223CBC3E09CF0A3E09D87
:102394001223BD402290817C78081215838A828B97
:1023A4008378081215228A828B83A3A3A3A3E02433
:1023B40020F0A3E0344EF080A0F088828983C3E04B
:1023C4009420A3E0944E22EA2404F8E43BF98C829E
:1023D4008D83A3A3A3A3E0FCA3E0FD8882898322C9
:1023E40074F512179BE9FE9004D3E0FAA3E0FBEE28
:1023F40029F8E433F974D928F582748039F583E037
:102404002AF508A3E03BF509780812194290819057
:102414001215A112224874021216D58A088B098C4F
:102424000A8D0B741078081214C4AA08AB097F042F
:1024340002184774F112179B8A0C8B0D8C0E8D0FAA
:10244400741112170B121959741112170BE024018D
:10245400F508A3E03400F509E4F50AF50B780C79E6
:10246400081214449081707808121583780C790846
:10247400121444AA0CAB0DAC0EAD0F122248740218
:102484001216D58B09EA450960047A0180027A00A4
:10249400EC2AFCE43DFD741312170BE0F8A3E0F9F9
:1024A400E8FEE9FFECF8EDF97A717B021216348844
:1024B400088909E4F50AF50B8E828F8378081215D2
:1024C40092ECF8EDF97A717B021216348A088B09C2
:1024D400740578081216AC8E828F83A3A3A3A3E598
:1024E40008F0A3E509F07F08021847C082C083E919
:1024F400906000F0D083D08222C0E0C0D0E8C0E079
:10250400E9C0E0A2AFE433F8D2AFC2C7E8F9E8A269
:10251400E092AFD0E0F9D0E0F8D0D0D0E032C2AF52
:1025240002000022FFFFFFFFFFFFFFFFC082C08306
:10253400E99015ECF0D083D08202011F74F61217D3
:102544002FE99002E8F0900348E0F508750900745B
:102554000278081216ACAA08AB091212A09002E97C
:10256400122EF39002E91232E0606F900348E07596
:10257400F003A4FAABF01212A0900306122EF3900B
:1025840003061232E0700B9002E91232B11212A665
:1025940080489003061242457AFF7BFF1211267A87
:1025A4000080198A08750900740278081216AC12A2
:1025B4003CED74FF1226F3E4F0A3F00A900348E024
:1025C400F8EAC39840DD79051207CC9002E8E0F9F7
:1025D4001206B87A567B08120A48023D9074F41227
:1025E400172F8A088B09EB548060479002E8E0F9C2
:1025F4001212108A0A8B0BAE0AAF0BEE4F602A8EB2
:10260400828F83E064B0701A1207DEE960148E8250
:102614008F83A3A3A3A3E0F9EE2405FAE43FFB12FE
:1026240007AEEEFAEFFB1211FEAA08E5096480FB7F
:1026340080047A007B0002284374F212172F74FB83
:102644001216BFEAFEEBFFEE4F6045740312170B40
:10265400EEF0A3EFF0851882851983ECF0A3EDF07A
:10266400740212170BE9F0AA18AB191206B2E9F5B5
:10267400087075741312170BE0F50AA3E0F50BE567
:102684000A450B60638E828F83122C7CEE4F70059B
:1026940075080280537A067B001212A08A0C8B0DF7
:1026A400A80CA90DE8497005750813803B88828938
:1026B40083E41226F3EEF0A3EF12280FE50AF0A349
:1026C400E50BF09002EC1228089002EC6017E0FC95
:1026D400A3E08003EAFCEBFD8C828D831228087052
:1026E400F38C828D83123908A90874050244C5F05D
:1026F400A3124227A32274F212172F8908890C759A
:102704000D007403780C1216AC850C0A850D0B9021
:1027140002EBF09002E9123713122806602E12120F
:10272400A67900801D890C750D007402780C1216B0
:10273400AC9002E9123BAC8882F583A3A3E4F0A336
:10274400F009900348E0F8E9C39840D9900348E0C1
:10275400FA850AF0A4CAA8F0850BF0A428FB12128B
:10276400A08A0C8B0DAE0CAF0DEE4F70030227FC4C
:10277400900348E0FC850AF0A4CCA8F0850BF0A4F3
:1027840028FD79001211EC7C0080318D0C750D0050
:102794007403780C1216AC8A828B83122801888207
:1027A4008983E4F012280EA3A3F0A3F00DEDC395E2
:1027B4000840D8EE250AFEEF350BFF0C900348E0E5
:1027C400F8ECC39850288C0C750D007402780C1228
:1027D40016AC9002E9122801E82402500109FAE932
:1027E400FB8A828B83EEF0A3EFF07D0080BFE508C7
:1027F4009002EBF07900800279130244C8123BB0D6
:10280400F922A3A31232B5EA4B22A3124227A3A3AF
:10281400A32274F412172F7900EAA2E0501F75085E
:102824004A750981780812194279107C047D007A6E
:10283400EE7B151207C674021216D5E9F980007FE3
:1028440004021801C082C0839002EC1232E0601CC2
:1028540088828983A3A3E06A7003A3E06B888289DA
:102864008370E8A3A3A3A31232B180047A007B008F
:1028740002253974F212172F74FD1216BFEAFEEB0B
:10288400FF851882851983E4F0A3F0740212170BF4
:102894007401F01232DD70141209821212A0900237
:1028A400EF122EF31232DD7003022A09122FF3EE17
:1028B4002404F50AE43FF50B850A82F583E024FE3F
:1028C400603C24FC607424FE607E24FE70030229B4
:1028D4005924FE700302296624FE7003022973241E
:1028E400FE700302298024FE700302298D24FC70EB
:1028F400030229AE24FE70030229C6022A02120929
:10290400829002F1EAF0A3EB122A151203FAE960AD
:1029140003022A029002F11219598E828F83A3A313
:10292400A3A3A31242458508828509831232B112FA
:10293400079674021216D5022A02AC18AD19EEFAE3
:10294400EFFB1207E40229D1AC18AD19EEFAEFFB44
:102954001207EA8078AC18AD19EEFAEFFB1207F013
:10296400806BAC18AD19EEFAEFFB1207F6805EAC83
:1029740018AD19EEFAEFFB1207FC8051AC18AD1933
:10298400EEFAEFFB12080280447402121715880C49
:10299400890D780C1219427402121725EEFAEFFB16
:1029A40012080874021216D58023AC18AD19EEFA79
:1029B400EFFB12080EE9F87016740212170BE4F01C
:1029C400803CAC18AD19EEFAEFFB120814E9F8E8F4
:1029D400602C8E828F83A3E064146022850A828532
:1029E4000B83E09002F1F08518828519831232B1CD
:1029F4009002F2122EF3E8A3122A151203F4EEFA4F
:102A0400EFFB12076C740212170BE0F97403024413
:102A1400C5F07CF17D028508828509831232B522D6
:102A240074E812172F74FA1216BF740412170BEC01
:102A3400F0A3EDF08A128B13EA2405F50EE43513A6
:102A4400F50FEA2402F510E43513F511851082F52B
:102A5400831232B11204EA8A0A8B0B7508007C03D4
:102A64007D0079007AF17B021211ECE50E2402F567
:102A740016E4350FF5177402121715880C890D78B2
:102A84000C121942850E82850F83A3A3A3A3E0F53C
:102A94000C750D00780C121942E50E2405F50CE4B2
:102AA400350FF50D780C121942851682851783129D
:102AB40035B81206D074061216D58A0C8B0DE50CA7
:102AC400450D7003022C458020851882851983E00A
:102AD40088828983F00508851882851983A3E0C05C
:102AE400E0122C86D0E0F00508E50A24FBFAE50B99
:102AF40034FFFBC3E5089AE49B4003022C457E00A7
:102B04007F00851282851383A3A3A3A3E0F509782C
:102B140009121946E4F514F51578141219427514BE
:102B2400EE75150278141219429002EF12195974B5
:102B34000912170B121959E50A24F9F9AC0CAD0D59
:102B44008510828511831232B112083E740912165F
:102B5400D5E96003022BE6850E82850F83A3A3A328
:102B6400A3A3A3A3E0F89002EEE0687075E0F51467
:102B74008E157814121942124242850E82850F83F3
:102B8400A3A3A3A3A3A3A3A31232B11211E67402B5
:102B94001216D5E9604C9002F21232E0703BE4F573
:102BA4001478141219427CFF7DFF79078510828501
:102BB40011831232B11207A874021216D51232E62A
:102BC4007017850E82850F831243DF740412170B6E
:102BD400123CA01235E9022C79850C82850D8312F2
:102BE4002C7CA818A9198814891578141219427410
:102BF4000412170B121959851682851783122EE9B0
:102C04001206DC74041216D58A0C8B0DEE4F700379
:102C1400022AC2122C86EE122C9112359FEF122C2E
:102C240091F8A3E03400F9E50C450D6003022ACDC8
:102C34008882898374FFF00508122C8674FFF005DE
:102C440008E508601A1313543F122EF9120406E91A
:102C540060099002F21232B112125879008016857E
:102C64000E82850F831243DF740412170B123CA0EB
:102C7400123908790A023572A3A3A3A3E0FEA3E0E4
:102C8400FF22A8089002F2E02812359F22F00508DE
:102C9400089002F2E0282274E812172F74FA121630
:102CA400BF740212170B122EF3740412170BECF0FC
:102CB400A3EDF0740212170BE02405123588E0F539
:102CC4000CA3E0F50D740212170BE02402F510A317
:102CD400E03400F511851082F5831232B11204EA52
:102CE400750800750900EA24FCFEEB34FFFF800838
:102CF400050CE50C7002050DA808C3EE98EF9400CE
:102D04005003022EA5A818A919880E890F780E124F
:102D14001942851482851583A3A3A3A312424912E1
:102D24001942E5142405F50EE43515F50F780E1255
:102D34001942851482851583122EE71206D0740673
:102D44001216D58A0E8B0FEA450F7003022EA5EAE0
:102D54002404F516E4350FF517851682F583E0F59E
:102D64000CA3E0F50D8518828519831242458A82E9
:102D74008B83A3A3A3E0F98510828511831232B15A
:102D84001206BEE9F5096003022EA5740212170BA0
:102D94001235AFF5097809121946E4F512F51378DE
:102DA400121219427512EE7513027812121942901A
:102DB40002EF121959740712170B121959EEF9ACD4
:102DC4000EAD0F8510828511831232B112083E7444
:102DD400091216D5E9F5096003022EA5E508703F2E
:102DE400E4F50EF50F780E1219427CFF7DFF790988
:102DF4008510828511831232B11207A8740212164B
:102E0400D51235D5700D740412170B122EDC7911FE
:102E1400022ED99002EEE024029002F2F080149087
:102E240002F2E0FA9002EEE0790024025001096A0D
:102E3400497072A8089002EEE0FAE82AFAE4340035
:102E4400FBEE9AEF9B405A851682851783E0C0E01B
:102E54009002F3122C8BD0E0F005088516828517BA
:102E640083A3E0C0E0089002F3122C8BD0E0F005BD
:102E7400089002EE124249121942124242A8081264
:102E8400357C1211D474021216D59002EEE0250896
:102E9400F50874FF650C700474FF650D6003022C63
:102EA400F4E508601F9002F2E0F5F0E50884122EC4
:102EB400F912040CE960099002F31232B1121258AB
:102EC40079008011E509700375090A740412170B5F
:102ED400122EDCA909023572123717E50CF0A3E5AE
:102EE4000DF022A3A31244D4AA0CAB0D22A3A3EA8F
:102EF400F0A3EBF0229002F1F07CF17D02851082C8
:102F04008511831232B52274EC12172F74FC121639
:102F1400BF123A1874021217251232AB1206D68A5F
:102F24000C8B0DEA450D7003022FE3122FF3A81842
:102F3400A9198810891178101219427CFF7DFF7934
:102F44000B8508828509831232B11207A874021214
:102F540016D51230E9700C850A82850B831235E68A
:102F6400022FF08E828F83A3A3A3A3E0F51278121D
:102F7400121946E4F512F51378121219427512F17A
:102F84007513027812121942781012194274091238
:102F9400170B121959740912170BE0F9AC0CAD0D8B
:102FA4008508828509831232B112083E740912160B
:102FB400D5E9FE70157CF17D0285088285098312AE
:102FC40032B1120412E97009802074166E70027E08
:102FD400009002F21232B1121258EE7004800B7E8D
:102FE40001850A82850B83123905EEF902391AEE3E
:102FF4002402F508E43FF5092274EC12172F74FC3F
:103004001216BFEAFEEBFF8C0E8D0FEE2405F508B9
:10301400E43FF50974021217258508828509831295
:1030240032B11206D68A0C8B0DEA450D70030230BC
:10303400D9EE2402F50AE43FF50BA818A919881063
:10304400891178101219427CFF7DFF790D1232AB81
:103054001207A874021216D51230E9700B85088283
:103064008509831235E6807A8E828F83A3A3A3A376
:10307400E0F5127812121946850882850983A3A304
:103084001219597512F17513027812121942781037
:10309400121942740912170B121959740912170BD9
:1030A400E0F91232A712083E74091216D5E9FE702F
:1030B4000F7CF17D021232AB120418E970098020F2
:1030C40074166E70027E009002F21232B11212581F
:1030D400EE7004800B7E0185088285098312390510
:1030E400EEF902391A1232F0F510A3E0F511EA45AF
:1030F400112274E812172F74FE1216BF8A168B174A
:103104008C148D15EA2405F50CE43517F50DEA2425
:1031140002F50EE43517F50F850E82F5831232B1F0
:103124001204EA8A088B09750B007C037D00790080
:103134007AF17B021211EC750A00E50814F510040B
:1031440024FFF508E50934FFF50980549002F1E005
:10315400FA9002EEE0F8EA28F8E43400F9E5089879
:10316400E50999500D9002F1E0F8E510C39890023A
:10317400EEF0E0F512751300781212194212424271
:103184009002F2E02AFAA3E03400FB1211D4740294
:103194001216D59002EEE0F89002F1E028F0050A4C
:1031A400850C82850D83A3A3123BBC400302328CA1
:1031B4009002F1E0C39508E49509400302328CAE15
:1031C4000AEE2EFEE433FF1232CBAC18AD191242D4
:1031D4005DE439FB1206D68A128B13AC12AD13ECE4
:1031E4004D701B750B011232BB1239099002F21299
:1031F40028086003121258A90B740202357485164C
:1032040082851783A3A3A3A3E0F50B780B121946B9
:10321400E4F512F51378121219427512EE751302C1
:1032240078121219429002EF121959740712170BEF
:10323400121959A910850E82850F831232B1120812
:103244003E74091216D5E9F50B709B9002F2123206
:10325400E06003023150E4F512F5137812121942BA
:103264007CFF7DFF790F850E82850F831232B112A8
:1032740007A874021216D51232E660030231501206
:1032840032BB1235EA0231FD7CF17D02850E828566
:103294000F831232B112041EE960030231F0790087
:1032A4000231FDAC0CAD0D850A82850B831232B55B
:1032B40022E0FAA3E0FB221232CBE0FAA3E0F9EA1F
:1032C40085148285158322850C82850D83E02EF872
:1032D400A3E03FF988828983229002EF1243E3E856
:1032E40049221232F0F8A3E0F9E849229002F2EA06
:1032F400F0A3EBF09002F2E02274E812172F74FAB4
:103304001216BF740412170B122EF38C168D177439
:103314000412170BE02405F50EA3E03400F50F7436
:103324000412170BE024021235881232B11204EA97
:103334008A0A8B0B7F007E00A818A91988088909BE
:103344007808121942850E82850F83A3A3A3A3E0F4
:10335400F5088E097808121942E50E2405F508E4EB
:10336400350FF5097808121942850E82850F83A35B
:10337400A31235B81206D074061216D58A0C8B0D1A
:1033840080291235A9F00F1235A9F00F9002EE1220
:1033940038F4121942124242EFF812357C1211D459
:1033A40074021216D59002EEE02FFFE50C450D7065
:1033B40003023438851882851983123A2AA3A3A3F9
:1033C400E0F98514828515831232B11206BEE9FE36
:1033D400E50C2404F510E4350DF511EE7050740479
:1033E40012170B1235AFF5087808121946E4F508E0
:1033F400F50978081219427508EE75090278081261
:1034040019429002EF121959740712170B12195925
:10341400E50A24FAF9AC0CAD0D85148285158312E6
:1034240032B112083E74091216D5E9FE603912351C
:10343400C5123908EF700302355F9002F2E0F5F02F
:10344400EF849002F1F07CF17D028514828515836E
:103454001232B1120424E960099002F31232B1125B
:10346400125879000235728F08EF703BE4F512F5BB
:103474001378121219427CFF7DFF7911851482851D
:1034840015831232B11207A874021216D51235D55B
:1034940070091235C51235E90235729002EEE02446
:1034A400049002F2F080359002EEE0F89002F2E02F
:1034B400FAE82404FCE43400FDEC6A4D60030234B1
:1034C4003EE50A24FAFAE50B34FFFBE50828F8E4A4
:1034D4003400F9EA98EB99500302343E8510828552
:1034E4001183E0C0E09002F3E02FF8A3E0340088F9
:1034F40082F583D0E0F00F851082851183A3E0C0AC
:10350400E0123596D0E0F00F74021217158808897E
:10351400097808121942740212170B121959850EF0
:1035240082850F83122EE71206DC74041216D58AE4
:103534000C8B0DEA450D7003023386740212170BCF
:10354400E0C0E0123596D0E0F00F740212170BA31E
:10355400E0C0E0123596D0E002338EEE70027E0AAF
:10356400850E82850F831235CB123908EEF9740665
:103574001216D57F100218019002F3E028FAA3E096
:103584003400FB22F514A3E03400F515851482F50C
:10359400832212359A229002F3E02FFAA3E034003A
:1035A4008A82F5832212359A74FF22123717A3A355
:1035B400A3A3E0221244D4850E82850F831232B570
:1035C400228510828511831243E385168285178331
:1035D400229002F3EAF0A3EBF09002F31243E3E843
:1035E400492212390EE8F0A3E9F079112274EA12A3
:1035F400172F74FE1216BF8A088B098C128D13EADA
:103604002405FEE43509FFAC18AD198E828F8312B0
:1036140032B11206D68A0C8B0DEE2406F50EE43F69
:10362400F50FEA450D70030236E9E5082402F50AB0
:10363400E43509F50B8A828B83A3A3A3E0A2E550AA
:10364400288518828519831232B11208328A108BA8
:1036540011EA4511602079121232A7851082851172
:103664008312172DE9F50C707F850E82850F83E098
:10367400600979528011750C0E806D850882850968
:1036840083A3A3A3A3E0F9E4F508F50978081219C4
:10369400428E828F83A3A3E0F50878081219428E24
:1036A400828F83A3A3A31219598E828F831242455A
:1036B4001232AB12084474061216D5E9F50C7011D7
:1036C400850E82850F83E0702D1232AB12042A809E
:1036D400257416650C7011750C00741812170B12F2
:1036E4003713E48010750C011243DB8512828513B5
:1036F40083E8F0A3E9F0850E82850F83E060047906
:10370400008002A90C74021216D57F0E0218011251
:10371400371722E0F8A3E0F58388822274EC1217AD
:103724002F74F71216BF8A0A8B0B8C108D11EA24A2
:1037340005FEE4350BFF750C00AC18AD198E828FB5
:10374400831232B11206D68A088B09EA450970033E
:103754000238DFE50A2402F50A5002050B8A828B3F
:1037640083A3A3A3E0A2E5502F85188285198312B1
:1037740032B11208328A0C8B0DEA450D604F791272
:10378400AC08AD091232AB850C82850D8312172D5E
:10379400E9F50C60030238E2850A82850B83E0F5C3
:1037A40008A3E0F509AA08FB120826EA4B70197A67
:1037B400FF7BFF120826EA4B70030238D58A828BFE
:1037C40083E508F0A3E509F07508008008750C0E80
:1037D4000238E205089002EBE0F8E508C3984003DC
:1037E4000238D585080E750F007403780E1216ACD6
:1037F4008A828B83A3A3E0250EF8A3E0350F123C45
:10380400A970D08E828F831238FD122EF38E828F90
:1038140083A3A31238FD122EF1EE2404F508E43F2D
:10382400F509850882F583E088828983A3A3A3A38D
:10383400F0A3E4F0EE2405F50EE43FF50F850E82C7
:10384400F5831238FDA3A3A3A3122EF175120775F5
:1038540013007812121942EEFCEFFD740412171DC6
:103864001211D474021216D5E4F512781212194208
:10387400850882850983E0FC7D0079171232AB123A
:1038840007A874021216D5740712170B122EF374BC
:103894000712170BE0FA4B603D85088285098312F5
:1038A40038F4121942850E82850F83124245121193
:1038B400D474021216D574021217251232AB1204F4
:1038C40030E96026740712170B1232B112125880B5
:1038D40019750C098008750C118003750C011243CD
:1038E400DB851082851183123908A90C740980289C
:1038F400E0F5087509007808221232B588828983B8
:103904002212390EE8F0A3E9F022E0F8A3E0F985E9
:103914000E82850F832274041216D57F0C021801BF
:1039240074EC12172F123A18751000EE2402F50CDD
:10393400E43FF50D850C82F5831232B11208268A14
:10394400088B09EA450970030239FC850A82850B54
:1039540083E0640160030239F1AC08AD09AA0AAB43
:103964000B12081AE9606E850882850983122C7E81
:10397400EE2406F50AE43FF50B8E828F83A3A3128F
:1039840019598E828F83A3A3A3A3121959850A827E
:10399400850B8312195979188E828F83123A2A1251
:1039A40032B112084474061216D5E9F87416687018
:1039B4000B850A82850B83E4F0A38014E860128EE1
:1039C400828F831232B1850E82850F83EAF0A3EBD6
:1039D400F088108018780E121942AC08AD09EEFA7E
:1039E400EFFB12082074021216D5E9F510AA08ABF1
:1039F4000912082CE510700E850C82850D83123295
:103A0400B11204368009741665107003751000A98C
:103A14001002391FEAFEEBFF8C0E8D0FEE2405F524
:103A24000AE43FF50B221244D4850C82850D8322CF
:103A340074EA12172F7508007509007E007F00755F
:103A44000A00EC2402F510E43DF5118035EC65081C
:103A54007003ED65096003023AE988828983A3A3B0
:103A6400E06A7003A3E06B707C88828983A3A3A3BC
:103A7400A31243DFEE28FEEF39FFEA28FAEB39FB05
:103A8400050A123BB9503A850A0C750D0074037887
:103A94000C1216AC851082851183123BAC123CA922
:103AA400601FE508450970A58C088D098882898303
:103AB400122C7C88828983A3A3E02EFAA3E03F80A2
:103AC400BEE50AC394025003023BA77508007509BA
:103AD40000EE4F6010EEFAEFFB1212528A0E8B0FBB
:103AE400EA450F70057900023BA9750B00023B7C87
:103AF400850B0C750D007403780C1216AC851082BE
:103B0400851183E0250CF50CA3E0350DF50DE50CCE
:103B14002406F514E4350DF515851482F583123C5D
:103B2400AE6042E50C2404F512E4350DF51385125C
:103B340082F583121959E50E2508FAE50F3509FBBC
:103B44001211D474021216D5851282851383E025CE
:103B540008F508A3E03509F5098514828515831253
:103B640032B1121258E50B600D7C087D007900AA71
:103B74000CAB0D1211EC050BE50BC3950A500302B7
:103B84003AF48510828511831243DF88828983A3E6
:103B9400A3A3A3A3A3E50EF0A3E50F12280FEEF051
:103BA400A3EFF0790102370E123BB022E0250CF8A6
:103BB400A3E0350D229002EBE0F8E50AC3982274E5
:103BC400F012172F8A0E8B0F8C0A8D0B750D007552
:103BD4000C0080507916EE2406F508E43FF5098EB2
:103BE400828F83A3A31219598E828F83A3A3A3A3C5
:103BF400121959850882850983121959850E8285FF
:103C04000F83A3A31232B112084474061216D5E925
:103C1400F50D7416650D706C850882850983E4F0D2
:103C2400A3F0050C9002EBE0F8E50CC3985066AAEB
:103C34000C8A08750900740378081216AC850A8288
:103C4400850B83A3A3123CF8E8FEE9FF8E828F83E1
:103C5400123CAE6040EA2401F508E43400F5099012
:103C640002EBE065087002E509601488828983A389
:103C7400A3A3A3A3A3A3A31232E06003023BD879B6
:103C840018023BDAE9609B1243DB741012170B1223
:103C94003CA0123908A90D7F08021801E0FAA3E03C
:103CA400F5838A8222F9888289831244D4EC4D22D6
:103CB40074F612172F7C0080010C900348E0F8EC96
:103CC400C398501E8C08750900740278081216AC4B
:103CD400123CEDE06A7003A3E06B70DDE8FAE9FBE7
:103CE40080047A007B00023D909002E9123CF8883F
:103CF40082898322E02508F8A3E03509F92274F2C9
:103D040012172F8A088B09750A0080278E828F83E9
:103D1400A3A3A3A312280660031212587C087D00F3
:103D24007900EEFAEFFB1211EC8E828F83E4F0A39C
:103D3400F0050A123BB95027850A0C750D0074036F
:103D4400780C1216AC850882850983A3A3E0250CA0
:103D5400FEA3E0350DFF8E828F831232E070AD85B5
:103D6400088285098374FFF0A3F00244C874F61234
:103D7400172F1207D88A828B83E582458370067ACF
:103D8400007B008007A3A3A3A31232B17F02021811
:103D94000174F412172F89088C828D83E0640270F9
:103DA4003C12437EFEA3E0F9EEF8740268700374DB
:103DB40029697029750A02750B00780A1219427470
:103DC4001012170B121959741012170B121959A942
:103DD4000812112C74061216D5E9F9800279010231
:103DE400284374E812172F74FB1216BFE985188252
:103DF400851983F08A168B17ECFEEDFF7510008E83
:103E0400828F83A3A3A3E0A2E4502D741D12170B89
:103E14001232B11208328A828B83E58245837003A1
:103E240002421D790AEEFCEFFDAA16AB1712172DFC
:103E3400E9F5106003024220741F12170BE0F50825
:103E4400A3E0F509742112170BE0F50AA3E0F50BC2
:103E5400742312170BE0F50EA3E0F50F8E828F8307
:103E6400E0640260030241BEA31243DF8508828539
:103E74000983A3858212858313EE2406F50CE43F9F
:103E8400F50D8882898312425DF514E439F51578BD
:103E9400141219CC010000280128C03E0700022892
:103EA400853F0328F33E0029B4400129DF4002295D
:103EB40080400329B44004295841BE41E50E450F12
:103EC40060030241B9850C82850D831243DFE8FA51
:103ED400E9FB8A828B83E0850A82850B8312426820
:103EE4001219428A828B83A3E0FCA3E0024142E5DB
:103EF4000E450F60030241B9850A82850B83740164
:103F0400F0124252850882850983F07C007D008E80
:103F1400828F83A3A3A3A3E02401FAA3E03400FBCC
:103F24001206D6EA4B60408A828B83E02402F8852D
:103F34000A82850B83E028F0EA2404F8E43BF9883C
:103F4400828983E085128285138312427612426845
:103F54001219428A828B83A3124245E5082403FA8C
:103F6400E43509FB024147850A82850B83E024047A
:103F7400F07C047D007900AA12AB131211EC02420A
:103F840020E50E450F60030241B9124252FEA3E040
:103F9400FF850A82850B837404F0EE850882850907
:103FA40083F0EF851282851383F07403121725EED4
:103FB400FAEFFB1206D68A0C8B0DEA450D7003024C
:103FC40040638A828B83A3A3122C7C74011217157D
:103FD400880E890F780E121942740512170B1219E4
:103FE400597CFF7DFF1206DC74041216D58B0FEA90
:103FF400450F7033850C82850D8312424912194294
:10400400850C82850D83A31219597C027D007ACE1A
:104014007B811204D874041216D5E9700A74011253
:10402400170B74FFF0A3F08E828F83E06402703963
:10403400750C02750D00780C1219428E828F83A3C1
:10404400124245E5082404FAE43509FB1211D4743C
:10405400021216D5850A82850B83E0240280097436
:104064000112170BEEF0A3EFF0740112170B1242BA
:1040740037740112170B12422E0241B3E50E450F9D
:1040840060030241B9850C82850D831244CDAA16C2
:10409400AB17121132850A82850B837402F08508EE
:1040A40082850983EAF0851282851383EB0241B687
:1040B400E50E450F60030241B9124252F8A3E0F93C
:1040C400850A82850B837402F0E88508828509835A
:1040D400F0E98512828513830241B6850C82850D31
:1040E400831232B11211CEEAFAF8C3950EE4950F99
:1040F400405CE8650E450F70047A008021851882C3
:10410400851983E0FCE50E2CFCE4350FFDC3EC9827
:10411400ED94005003E08005E50ECAC39AFAEA85DF
:104124000A82850B83F08A0A750B00780A121942F9
:10413400850C82850D83E0250EFCA3E0350FFDAAD6
:1041440008AB091211D474021216D502422075105C
:1041540007024220E50E450F705B850C82850D83B6
:104164001243DF850A82850B837407F08882898372
:1041740012422F124227E0851282851383F0E8242D
:1041840002FAE439FB8A828B831242378A828B8358
:1041940012422EA3A312280E12423CF0E82405F882
:1041A4005001098882898312423CA3124276A3A358
:1041B400A3A3F0806775100B8062741D12170B1295
:1041C40032B11207D88A828B83E5824583604A1212
:1041D40043DF880C890DE8450D603E742512170BEA
:1041E400E0F5107810121946780E121942780A1266
:1041F40019427808121942740712170BE0F9EEFC01
:10420400EFFDAA16AB17850C82850D8312172D744A
:10421400071216D5E9F510800375100EA910740560
:10422400023574F088828983A322A3E085088285FD
:1042340009832212427DF02212427DA3A32290021E
:10424400EF1244D422E0F50E750F00780E22850C8F
:1042540082850D83123717E022E0FAA3E0F8E4C860
:10426400F9EA2822F08A828B83E0F50A750B00783C
:104274000A2212422712427D22E0850882850983A0
:10428400A3A32274EE12172F74FE1216BF8A088B92
:1042940009ECFEEDFF890AAC18AD19EEFAEFFB123A
:1042A40006D68A0C8B0DEA450D700302436F851800
:1042B400828519831232B11207D88A828B83E582F0
:1042C4004583700302436AA3A31243DF880E890F58
:1042D400E8450F700302436A741412170BE0F510DB
:1042E400A3E0F511E50AF50B780B121946741912BF
:1042F400170B1219597810121942741B12170BE07C
:10430400F9AC0CAD0DAA08AB09850E82850F83129A
:10431400172D74051216D5E9F50B705274FE650A53
:10432400604C850C82850D83E06402704112437EEB
:10433400FAA3E0F9EAF87402687003742969702E2C
:1043440085108285118312425DF50CE439F50D78F0
:104354000C121942EEFCEFFDAA08AB0912085C74BA
:10436400021216D58008750B0E8003750B01A90B7C
:1043740074021216D57F0A021801A31243E388823D
:104384008983E02274F612172F74FE1216BF740C80
:1043940012170B1243DFE8851882851983F0740124
:1043A40012170BE9F0E4F508F509780812194275BB
:1043B400080278081219427404121715880889092A
:1043C400780812194279FE12084474061216D5743C
:1043D400021216D5023D908E828F831243E322E0AF
:1043E400F8A3E0F92274F712172FEAFEEBFF89080D
:1043F400900306124245121132EA5402600BA908D6
:10440400EEFAEFFB1206CA800279017F010218015D
:1044140074F212172F74FE1216BFEAFEEBFF890A1C
:104424007401650A60147402650A60030244C37966
:1044340001120A66E960030244C3EEFAEFFB1208B4
:1044440026EA4B600312082CA818A91988088909C0
:104454007808121942750802750900780812194281
:104464007508D475098178081219427CFF7DFF7A9A
:10447400017B001206D074061216D5803885088296
:10448400850983A3A3A3A3A3A31244CDEEFAEFFB50
:10449400121126E4F50CF50D780C1219427402126F
:1044A400170B1219597CFF7DFFAA08AB091206DC11
:1044B40074041216D58A088B09E508450970BE7480
:1044C400021216D57F060218011237171244D4229D
:1044D400E0FCA3E0FD2274F412172F8A088B09EC88
:1044E400FEEDFF9015ECE0F4604B7A097B001211AD
:1044F400F8EA4B60408A828B8374B1F0A3E41245DE
:104504003CF08A828B83A3A3E508F0A3E509124556
:104514003CA3EEF0A3EFF0740C12170B1243DF8AE6
:10452400828B83A3A3A3A3A3A3A31239089015EC9E
:10453400E0F9121204022843F08A828B83A3A3A316
:10454400A32274EE12172F74FA1216BF8A0A8B0B69
:10455400E9FF8C088D097E00850A0C850B0D780C0B
:1045640012198600041022488E45B145D045F34502
:10457400164639466A468D46A446D4468347A6471E
:10458400C947F74722482248FD4674016F701985D0
:104594000882850983E0C39403500D850882850948
:1045A40083E09016D8F080027E1802484A74026FA5
:1045B4007015850882850983E0F8A3E0F99016D97F
:1045C400E8F0A3E9F080027E1802484A74016F7093
:1045D40019850882850983E0C39402500D850882F9
:1045E400850983E0900749F080027E1802484A74E6
:1045F400016F7019850882850983E0C39405500D05
:10460400850882850983E090074AF080027E1802BB
:10461400484A74016F7019850882850983E0C39440
:1046240002500D850882850983E090074BF08002D3
:104634007E1802484A74106F7027750C10750D00AF
:10464400780C121942AC08AD097A4C7B071211D4CC
:1046540074021216D58A0C8B0D850C82850D83800D
:10466400027E1802484A74016F7019850882850910
:1046740083E0C39402500D850882850983E0900786
:104684005CF080027E1802484A74016F700D850840
:1046940082850983E09016DCF080027E1802484A85
:1046A40074046F7026908190780C121583850882AB
:1046B400850983780C1214155011850882850983A5
:1046C4001215AD90075E1215B980027E1802484A91
:1046D400EF7021120670E970131210CCE9F50D7910
:1046E40050121324E9F50C1210BA800A9007F174E1
:1046F40001F080027E1802484A74076F707C750EC0
:1047040006750F00780E121942850882850983A365
:10471400AC82AD83740212171D1211DA74021216E0
:10472400D58A108B1185100E85110F7C007D00AA8F
:1047340018AB19850882850983E0F9121060E9F540
:104744000CE50CC3940A502E120670E97015A90CDE
:104754001210D2E9F50E7950121324E9F50D121056
:10476400BA8019A80C790074F228F582740739F517
:10477400837401F080067E0280027E1802484A7427
:10478400016F7019850882850983E0C39402500D76
:10479400850882850983E090075DF080027E180217
:1047A400484A74016F7019850882850983E0C394AF
:1047B4000A500D850882850983E09016DBF080029B
:1047C4007E1802484A74016F702585088285098322
:1047D400E0C394074019850882850983E0C39411D6
:1047E400500D850882850983E09016DDF080577EA0
:1047F40018805374016F70229007F0E0F50C85085F
:1048040082850983E09007F0F0E50C70399007F099
:10481400E0640170311210BA802C7E188028C3E540
:104824000A9427E50B9400501B74026F70168508D8
:1048340082850983E0FCA3E0FDAA0AAB0B1204F015
:10484400E9FE80027E02EEF974061216D57F0A0292
:10485400180174EC12172F74DA1216BF890D8A121C
:104864008B138C0A8D0B743A12170BE0F50C9081A4
:1048740038AC18AD1974061215D2AC18AD19AA12B9
:10488400AB13A90D121060E9FEEEC3940A400302B3
:1048940049CAEEF912109CE9FF9016D8E064027040
:1048A40004740180027400F5087808121946AD0CEE
:1048B400EFFCEEF9AA0AAB0B12110E74011216D515
:1048C4007C147D007900741212171D1211EC8A0EEB
:1048D4008B0F850E08850F0974121217257A10752F
:1048E400F006EEA42424F912131EE9703C7C10791E
:1048F400FF741212171D12124CE9702D7422121734
:104904000BAC82AD837A0475F006EEA42425F9126B
:10491400131EE9F5087412121725EFA2E0E433F927
:10492400AA0AAB0B12057AE9F874061217257A0C59
:1049340074702EF912131EE97079740612171D1281
:104944001090750E00E50EC394045067A80E79000C
:10495400E875F003A4C8AAF075F000A42AFA75F06B
:1049640003E9A42AF9740612170BE58228F508E571
:104974008339F509850882850983E0F8A3E0F9E81D
:1049840049602C850882850983A3A3E0F51075117D
:10499400007810121942850882850983E0FCA3E09F
:1049A400FDAA0AAB0B12084A74021216D5E9F805DF
:1049B4000E8092EFA2E1500E900748E0F9AA0AABEC
:1049C4000B120850E9F87404650C700F9016D8E0C7
:1049D40064027007AA0AAB0B12110879007426123C
:1049E40016D57F0C02180174F712172FEAFEEBFF9D
:1049F400120670E970679007F1E06401701B1210F1
:104A0400CCE9F5089007F17400F07C0A7D00790088
:104A14007AF27B071211EC8039750800E508C3941B
:104A24000A502FA808790074F228F582740739F522
:104A340083E064017018A9081210D2E9FAA8087971
:104A44000074F228F582740739F5837400F00508C0
:104A540080CA7950121324E9F5081210BA7F0102B2
:104A6400180174F212172F890BEAFEEBFF8C088DE4
:104A740009750A0AE50B600C14600914604414609B
:104A840064024B0BEEFAEFFB1210AEE9F50AE50AED
:104A9400C3940A5072E5084509606C750C06750DDF
:104AA40000780C121942EEFCEFFDAA08AB091211B2
:104AB400D474021216D58A0C8B0D850C82850D8355
:104AC4008045EEFAEFFB1210A8E9F50AE50AC39453
:104AD4000A5034E5084509602EAA08AB09A90A1250
:104AE40010A2E98022EEFAEFFB1210B4E9F50AE510
:104AF4000AC3940A5011E5084509600BAA08AB09DA
:104B0400A90A1210A2E9F8A90A7F0602180174F290
:104B140012172F8A0C8B0DE9FF7E1574FF650C703C
:104B24000474FF650D702A750800E508C3940A50E3
:104B340014EFFC7A027B00A90812107EE960027E61
:104B440000050880E5EF60627AF67B10120A8A801D
:104B540059AA0CAB0D120A5A8A0A8B0B850A0885CE
:104B64000B09E508450960407C007D00E508240543
:104B7400FAE43509FB850882850983A3A3A3A3E08E
:104B8400F9121060E9F50AE50AC3940A500EEFFC25
:104B94007A027B00A90A12107EE97E00EF600BAA5C
:104BA40008AB091210F680027E14EEF97F06021893
:104BB4000174EE12172F8A0E8B0F8C0A8D0B741250
:104BC40012170BE0F50CA3E0F50D75081574FF65DD
:104BD4000E700474FF650F701E7E00EEC3940A50BD
:104BE40061AC0CAD0DAA0AAB0BEEF9121084E960AE
:104BF400037508000E80E4AA0EAB0F120A5A8A103D
:104C04008B11AE10AF11EE4F60357C007D00EE24A9
:104C140005FAE43FFB8E828F83A3A3A3A3E0F912DA
:104C24001060E9F509E509C3940A5016AC0CAD0D02
:104C3400AA0AAB0BA909121084E975080080037550
:104C44000814A9087F0A02180174F712172FEAFE44
:104C5400EBFF900762EEF0A3EFF0900748E0FC7DD5
:104C6400007A267B001204F0E9F508900748E0F981
:104C74001207B47F0102180174F012172F74EC129A
:104C840016BF8A0C8B0D850C82850D83A3A3E024AB
:104C9400FA70030250F524FD7003024F6A14700386
:104CA400024D6C14601024FD7003024F1214700343
:104CB400024FA9025108AE0CAF0D900762E0F8A3B1
:104CC400E0F9E8496066900762E0F8A3E0F58388BC
:104CD40082E0F8A3E0F9E8496052EE240CF582E49E
:104CE4003FF583E0F5087808121946EE240BF582A7
:104CF400E43FF583E0F98E828F83A3A3A3A3A3A348
:104D0400A3A3A3E0FCA3E0FDEE2403FAE43FFB909D
:104D14000762E0F8A3E0F5838882E0F8A3E0F58376
:104D2400888212172D74011216D580398E828F83D2
:104D3400A3A3A3A3A3A3A3A3A312195990075E1229
:104D440015A112058C74021216D5E9601879018E2A
:104D5400828F83A3A3A3A3A3A3A3A3A3E0FAA3E0A3
:104D6400FB120586E9025108AE0CAF0D7508008EE2
:104D7400828F83A3E06003024E948E828F83A3A369
:104D8400A3A3A3E0A2E04003024E949007FCE0F842
:104D9400A3E0F9E8496003024E947C0E7D0079009B
:104DA400AA18AB191211EC8A0A8B0BAA0AAB0BEEE8
:104DB400240CF582E43FF583E0F8A3E0F9E84960C8
:104DC40036750A06750B00780A121942EE240CF5A2
:104DD40082E43FF583E02410FCA3E03400FD740278
:104DE40012171D1211D474021216D58A0A8B0B8560
:104DF4000A82850B83804F8E828F83A3A3A3E0FA5C
:104E0400A3E0FB120A5A8A0E8B0F850E0A850F0B3C
:104E1400E50A450B602D750E06750F00780E121904
:104E240042E50A2405FCE4350BFD740212171D1239
:104E340011D474021216D58A0E8B0F850E82850F3B
:104E44008380030251088E828F83A3A3A3A3A3E0CC
:104E5400A2E25004D2F08002C2F0A2F0E433F87966
:104E640000740C12170BE048F0A3E049F0EEFCEFDD
:104E7400FDAA18AB19121096E970127A027B009001
:104E84000748E0F9121228E9790002510A75081559
:104E9400900762E0F8A3E0F9E849606F900762E0E8
:104EA400F8A3E0F5838882A3A3E0F8A3E0F9E84936
:104EB40060598E828F83A3E0FC79018E828F83A355
:104EC400A3A3E0FAA3E0FB900762E0F8A3E0F58374
:104ED4008882A3A3E0F8A3E0F583888212172DE566
:104EE400086028AC0879038E828F83A3A3A3E0FA19
:104EF400A3E0FB900762E0F8A3E0F5838882A3A314
:104F0400E0F8A3E0F583888212172D025108AE0C55
:104F1400AF0D900762E0F8A3E0F9E8496045900717
:104F240062E0F8A3E0F5838882A3A3E0F8A3E0F9A4
:104F3400E849602F850C82850D83A3E0FC79028EFD
:104F4400828F83A3A3A3E0FAA3E0FB900762E0F8B7
:104F5400A3E0F5838882A3A3E0F8A3E0F583888225
:104F640012172D025108AE0CAF0D7C007D00EE240B
:104F740004FAE43FFB8E828F83A3A3A3E0F912100B
:104F840060E9F508E508C3940A5017EE240AFCE426
:104F94003FFD7A0475F006E508A42425F9121318D8
:104FA400E9F8025108AE0CAF0D90075DE06019906E
:104FB40016DBE0F98E828F83A3A3A3E0FAA3E0FBC0
:104FC400120586E9F80251089016D8E070167905A2
:104FD4008E828F83A3A3A3E0FAA3E0FB120586E9E4
:104FE400F80251088E828F83A3A3A3E0FAA3E0FB07
:104FF400120A5A8A0A8B0B850A08850B09E50845AB
:105004000970030251088E828F83A3A3A3A3A3A3D1
:10501400A3E0A2E0506D850882850983A3A3A3A31E
:10502400E060608E828F83A3A3A3A3A3A3A3A3A3FF
:10503400E0F50AA3E0F50B7409780A12169DE50A57
:105044005401F8E50B5400F9E8A2E04036740E125E
:105054001725E5082405FAE43509FB850882850946
:1050640083A3A3A3A3E0F9121060E9701679038E59
:10507400828F83A3A3A3E0FAA3E0FB120586E9F8D9
:10508400025108EE2405FCE43FFD8508828509836E
:10509400A3A3A3A3E0F98E828F83A3A3A3E0FAA31F
:1050A400E0FB121102900762E0F8A3E0F9E849601E
:1050B40053900762E0F8A3E0F5838882A3A3E0F8A5
:1050C400A3E0F9E849603D7C0079008E828F83A3D8
:1050D400A3A3E0FAA3E0FB900762E0F8A3E0F58362
:1050E4008882A3A3E0F8A3E0F583888212172D80B9
:1050F40013AE0CAF0D8E828F83A3A3A3E0FAA3E0BB
:10510400FB12105A790174141216D57F0802180183
:1051140074F512172F74F21216BF8909EAFEEBFF19
:105124008C0AAC18AD197A0E75F006E509A4242092
:10513400F912131EE9705F7C0679FFAA18AB1912E5
:10514400124CE97051740C12170BE0F8A3E0F9E863
:10515400F508E50A6005EE42088004EEF45208A85A
:10516400087900740C12170BE0687003A3E06960FF
:1051740021A8087900740C12170BE8F0A3E9F0AC2D
:1051840018AD197A0E75F006E509A42420F9121356
:1051940018E9790180027900740E1216D57F030292
:1051A400180174F012172F74E61216BF890B8A0CBB
:1051B4008B0DECFEEDFF740C1217257A0E75F006BC
:1051C400E50BA42420F912131EE960030252D67CD5
:1051D4000679FF740C12171D12124CE96003025277
:1051E400D6AC18AD197A0C7470250BF912131EE99C
:1051F40060030252D2750A00AA18AB19121090E586
:105204000C450D702E7C0C7900AA18AB1912124CA7
:10521400E960030252B87C0C7D007900AA18AB192E
:105224001211EC8A088B09850882850983750A01A5
:105234000252B8AC18AD19AA0CAB0D12108A8A0E22
:105244008B0F850E08850F09E50845097030EE4F70
:10525400601BAC18AD197A007B0012108A8A0E8B81
:105264000FA80EA90F88088909E8497004790080FD
:1052740063850882850983E50CF0A3E50DF08508B4
:1052840082850983A3A3E0F87900EE687002EF69D0
:105294006022EEC0E0850882850983A3A3D0E0F0F4
:1052A400EE4F700D8508828509837400F0A37400A5
:1052B400F0750A01E50A6016AA18AB19121090AC31
:1052C40018AD197A0C7470250BF9121318E97901C9
:1052D40080027900741A1216D57F0802180174F638
:1052E40012172F8A088B097E00EEC394045050EEE7
:1052F400F87900E875F003A4C8AAF075F000A42AB0
:10530400FA75F003E9A42AF9EC28F582ED39F5835E
:10531400E065087004A3E065097021EEF87900E8FF
:1053240075F003A4C8AAF075F000A42AFA75F00376
:10533400E9A42AF9EC28FAED39FB80070E80AA7A51
:10534400007B007F0202180174F712172F7C00EC17
:10535400C3940440030253FBECF87900E875F003AE
:10536400A4C8ADF075F000A42DFD75F003E9A42DDB
:10537400F9EA28F582EB39F583E0F4FEA3E0F4FFC3
:10538400ECF87900E875F003A4C8ADF075F000A45A
:105394002DFD75F003E9A42DF9EA28F582EB39F522
:1053A40083EEF0A3EFF0ECF87900E875F003A4C8FD
:1053B400ADF075F000A42DFD75F003E9A42DF9EA14
:1053C40028F582EB39F583A3A3E0F4C0E0ECF87987
:1053D40000E875F003A4C8ADF075F000A42DFD75C8
:1053E400F003E9A42DF9EA28F582EB39F583A3A3A8
:1053F400D0E0F00C0253537F0102180174F012172D
:105404002F74F41216BFEAFEEBFF8C088D09900787
:10541400FCE0F8A3E0F9E849702CEE4F6006E508DB
:105424004509700579010256ACEEFAEFFB1210AE95
:10543400E99016DEF09016DEE0C3940A40081210DC
:10544400C0E99016DEF09016DEE0C3940A40030231
:1054540056AA9007FCE0F8A3E0F9E8496003025477
:10546400F6EEFCEFFD7A0E75F0069016DEE0A4244D
:1054740020F9121318E9F50C7C0C7D0079FFAA18A9
:10548400AB191211EC8A0E8B0F850E0A850F0BAC2B
:1054940018AD197A0C9016DEE02470F9121318E98D
:1054A400F50D750E0E750F00780E121942EEFCEF15
:1054B400FD9016DEE0F87900E875F00EA4C8AAF0B5
:1054C40075F000A42AFA75F00EE9A42AF974642888
:1054D400FA740739FB1211D474021216D58A0E8B92
:1054E4000FA80EA90F9007FCE508F0A3E509F00248
:1054F40056A69007FCE0F8A3E0C82406F582C83459
:1055040000F583E0F8A3E0F9E84960439007FCE084
:10551400F8A3E0C82406F582C83400F583E0FCA3B0
:10552400E0FD7A1B75F0069016DEE0A42421F91242
:105534001318E9F89007FCE0F9A3E0C92406F58202
:10554400C93400F5837400F0A37400F00256A690E9
:1055540007FCE0F8A3E0C8240AF582C83400F58308
:10556400E0F8A3E0F9E84960439007FCE0F8A3E021
:10557400C8240AF582C83400F583E0FCA3E0FD7A70
:105584001B75F0069016DEE0A42422F9121318E924
:10559400F89007FCE0F9A3E0C9240AF582C93400B5
:1055A400F5837400F0A37400F00256A69007FCE0A3
:1055B400F8A3E0C8240CF582C83400F583E0F8A30E
:1055C400E0F9E84960439007FCE0F8A3E0C8240C44
:1055D400F582C83400F583E0FCA3E0FD7A1075F091
:1055E400069016DEE0A42423F9121318E9F89007B4
:1055F400FCE0F9A3E0C9240CF582C93400F58374F6
:1056040000F0A37400F00256A69007FCE0F8A3E0B3
:10561400C82408F582C83400F583E0F8A3E0F9E86B
:1056240049606F9007FCE0F8A3E0C82408F582C83D
:105634003400F583E0FCA3E0FD7A1075F0069016C3
:10564400DEE0A42424F9121318E9F50A9007FCE01B
:10565400F8A3E0C82408F582C83400F583E02410D8
:10566400FCA3E03400FD7A0475F0069016DEE0A495
:105674002425F9121318E9F89007FCE0F9A3E0C90E
:105684002408F582C93400F5837400F0A37400F093
:1056940080109007F0E060031211141210FC7901DD
:1056A4008006790080027901740C1216D57F0802F5
:1056B400180174F712172F74F21216BFE9FEAC1812
:1056C400AD197A0E75F006EEA42420F912131EE922
:1056D400700E740C12170BE0F8A3E0F9E8F98002DD
:1056E4007900740E1216D57F0102180174F4121792
:1056F4002F74F21216BF8909EAFEEBFFE509C39481
:105704000A5004EE4F700479028041AC18AD197A46
:105714000E75F006E509A42420F912131EE9F50814
:10572400E5087026750A06750B00780A121942748A
:1057340002121725EEFAEFFB1211D474021216D5D9
:105744008A0A8B0B850A82850B83A908740E1216AC
:10575400D57F0402180174F412172FEAFEEBFF75CB
:105764000800E508C3940A5043750A06750B0078CF
:105774000A121942EEFCEFFDA8087900E875F00E54
:10578400A4C8AAF075F000A42AFA75F00EE9A42AB8
:10579400F9746A28FA740739FB1211E674021216B6
:1057A400D5E96004A9088006050880B6790A7F0453
:1057B40002180174F412172FEAFEEBFF750800E5D6
:1057C40008C3940A5043750A06750B00780A121927
:1057D40042EEFCEFFDA8087900E875F00EA4C8AA13
:1057E400F075F000A42AFA75F00EE9A42AF974649D
:1057F40028FA740739FB1211E674021216D5E9600F
:1058040004A9088006050880B6790A7F04021801F5
:1058140074F712172F74F01216BFEAFEEBFF750827
:1058240000E508C3940A5039AC18AD197A1075F024
:1058340006E508A42423F912131EE970207C1079CC
:10584400FFAA18AB1912124CE97012EEFCEFFDAA74
:1058540018AB19120556E97004A9088006050880DA
:10586400C0790A74101216D57F0102180174F4125B
:10587400172F750800E508C3940A400302594BA882
:10588400087900E875F00EA4C8AAF075F000A42AFF
:10589400FA75F00EE9A42AF9746428FC740739FD3A
:1058A4007A0E75F006E508A42420F912131EE97097
:1058B400030259467C067D0079FFAA087B00EA753D
:1058C400F00EA4CAA8F075F000A428F875F00EEB49
:1058D400A428FB74642AFA74073BFB1211EC8A0AAD
:1058E4008B0BAE0AAF0B7C067D0079FFAA087B0008
:1058F400EA75F00EA4CAA8F075F000A428F875F0B3
:105904000EEBA428FB746A2AFA74073BFB1211EC11
:105914008A0A8B0BAC0AAD0BA8087900E875F00E67
:10592400A4C8AAF075F000A42AFA75F00EE9A42A16
:10593400F9747028F582740739F5837400F0A37440
:1059440000F005080258799007F0E0600312111482
:105954001210FC7F0402180174F712172F7E00EE58
:10596400C3940A50327C0679FFEEFA7B00EA75F0A4
:105974000EA4CAA8F075F000A428F875F00EEBA4E4
:1059840028FB74642AFA74073BFB12124CE9600486
:10599400EEF980050E80C8790A7F0102180174F7B8
:1059A40012172F7E007F00EFC3940A50357C0679CE
:1059B400FFC9FDC9EFF87900E875F00EA4C8AAF094
:1059C40075F000A42AFA75F00EE9A42AF974642883
:1059D400FA740739FBCDF9CD12124CE970010E0FA0
:1059E40080C5EEF97F0102180174F712172F7E00AB
:1059F4007F00EFC3940A500DEE700AEFF91210D233
:105A0400E9FE0F80EDEEF97F0102180174F0121720
:105A14002F74CB1216BF89099016DEE06509701D3C
:105A24007A017B00900748E0F912122EE97A027B92
:105A340000900748E0F912122EE91211207427127F
:105A440017257A0E75F006E509A42420F912131E11
:105A5400E96003025B487C0679FF742712171D1264
:105A6400124CE96003025B487C0E7D0079FF7427C9
:105A740012171D1211EC8A0A8B0B850A0C850B0D6B
:105A84007C1B7D0079FF740C12171D1211EC8A0E19
:105A94008B0F850E0A850F0B7C0C7D0079FFAA18ED
:105AA400AB191211EC8A0E8B0FAE0EAF0F742712C6
:105AB40017257A0E75F006E509A42420F9121318A7
:105AC400E9F508740C1217257A1B75F006E509A48C
:105AD4002421F9121318E94208740C1217257A1BB1
:105AE40075F006E509A42422F9121318E942087492
:105AF4000C1217257A1075F006E509A42423F9126F
:105B04001318E94208740C1217257A1075F006E58B
:105B140009A42424F9121318E94208740C12172555
:105B24007A0475F006E509A42425F9121318E9424C
:105B340008AC18AD197A0C74702509F9121318E918
