:020000040000FA
:0600000002010702229D2F
:03000B000226C604
:03002B000226A109
:0300530002231372
:100083000220F3E5C754F84401F5C77901220000C3
:100093000080FB120086B900030200F1E4792178A5
:1000A30008B800028004F709D8FCE479297802B87B
:1000B30000028004F709D8FCE4900281780F7914D8
:1000C3008002F0A3D8FCD9FA7A8F7B159001377898
:1000D3003079048015E493A3AD82AE838A828B8347
:1000E300F0A3AA82AB838D828E83D8E9D9E7758288
:1000F3009E7583FF740112011975829175830074D3
:100103000012011975D00075813F751881751902A8
:10011300759F00020096C09FF59FE473D09F22D085
:1001230083D082C09FE493C0E0740193C0E0740263
:1001330093F59F22FF0000B4000028002800283018
:1001430075A000A000A000A00000080008E001F0D6
:10015300001000100010001000100010005000509C
:1001630000500010001000D0070000000000000F36
:100173000001000500307507001000010081FF0039
:10018300000000FFFFFF8E06AC069406D006FF02B8
:10019300020208025000A0000000E80302D581011A
:1001A3000000D28102D981010000EA1502DF81013A
:1001B3000000C30202D981010000EB1502E18101B5
:1001C3000000D90202D981010000EC1502E381018C
:1001D3000000DB0202D981010000ED1502E5810870
:1001E3000000DC0202D981010000EE1502E7810163
:1001F3000000EF15FF0100FF2002D581010000C6BA
:100203008102D981010000531602E9810000000038
:100213000002DD810300000A0317003C0D3C0D3C86
:100223000D3C0D3C0D3C0D3C0D3C0D3C0D3C0D3C83
:100233000D3C0D3C0DE20FF40FDC0F020202020233
:1002430002020202010D000000100102D58101002B
:1002530000C98102D9810100009616020D820100B6
:1002630000440702D9810100009716020B820100A6
:1002730000178102D981010000981602098201004A
:1002830000FB8002D981010000991602FB81010065
:1002930000958002D9810100009A1602F1810100C4
:1002A30000838002D9810100009B160211820100A4
:1002B30000A78002D9810100009C1602ED81010094
:1002C30000B98002D9810100009D1602EB81010073
:1002D30000098102D9810100009E160207820100F4
:1002E300009F1601E8030577100A0D095050474691
:1002F30075656C4761756765051250002003020A36
:10030300000201060302F0FF5050474675656C4733
:1003130061756765000000000000000000461200E0
:1003230000521200005812070101010901010110D6
:10033300000101E803000010024173796E6320425B
:10034300756C6B0053796E632042756C6B0002D53C
:1003530081010000CF8102D981010000921702F5CB
:1003630081000000640802DD810300008C0802DBC9
:1003730081010000941702D981010000931702F74D
:1003830081010000780802DB810100009F170A1039
:100393000A02436F6D6D616E6400526573706F6E18
:1003A3007365004D61696C626F78004465766963BB
:1003B3006520496E666F0002D581010000CC810281
:1003C300D981010000E91702FF81030000900802B0
:1003D300DB81010000ED1702D981010000EA170259
:1003E3000182000000920802DD81030000AC0802D4
:1003F300DB81010000F51702D981010000EB170230
:100403000382030000940802DB81010000FE17024F
:10041300D981010000EC17020582010000A808023F
:10042300DB810100000618FFFFFF000130750302A6
:1004330001060000000000000000000000000000B2
:100443000000000000000000000000000000FFFFAB
:100453000600800CE80300000200000000000064B6
:10046300156A1512012296D60312012225AC031236
:10047300012238AC0312012269AC03120122A3AC9E
:1004830003120122FCAC0312012243AD0312012229
:100493008BAD03120122BAAD03120122E9AD03129F
:1004A300012220AE0312012267AE0312012280AEA5
:1004B30003120122D5AE03120122EEAE0312012272
:1004C3003CAF0312012276AF03120122A0CB02122A
:1004D3000122A3CC02120122DCCC02120122FFCCA6
:1004E3000212012211CD021201224FCD021201226A
:1004F300CBCD0212012293CE02120122B5CE0212FB
:1005030001224CCF021201229ECF02120122CFCF31
:1005130002120122DCCF0212012246D00212012272
:100523009DD002120122A0D002120122D9D00212C0
:100533000122DCD002120122E6D0021201223AD1BA
:10054300021201227BD102120122AED10212012238
:10055300EBD102120122EDD20212012291D3021237
:100563000122FAD30212012238D402120122E7FB3C
:10057300021201220FFC021201223CFC0212012290
:1005830074FC02120122D2FC021201221EFD02128D
:10059300012285FD02120122C5FD0212012202FE83
:1005A3000212012230FE02120122DAFE021201229D
:1005B300E4FE02120122F1FE0212012224FF0212C2
:1005C300012230FF0212012248FF0212012252FFD0
:1005D30002120122BDD203120122CBD20312012245
:1005E300E3D203120122FAD203120122D0BA01127A
:1005F30001227ABB011201228DBC0112012209BD25
:100603000112012227BE0112012263BE011201223F
:10061300FEBE01120122E2BF01120122AEC001128D
:1006230001223CC201120122ADC20112012267C3A1
:100633000112012259C40112012299C4011201229B
:100643004DC5011201227FC50112012275C7011296
:100653000122B7C701120122D5C7011201223BC8EB
:10066300011201220AC901120122CEC9011201227B
:10067300EDCB01120122FF7800120122E979001269
:100683000122947A00120122E57A00120122957B5D
:1006930000120122067C00120122EB7C00120122CF
:1006A3001F7D00120122187E00120122557E0012C6
:1006B3000122317F00120122707F001201228C7F00
:1006C30000120122BDC20312012241C303120122FF
:1006D3006CC30312012286C4031201226DA4031208
:1006E300012283A403120122A1A403120122B2A5B1
:1006F30003120122BCA503120122E7A60312012261
:10070300DEA7031201224BA8031201221BF10212DE
:10071300012251F20212012288F202120122DFF2B7
:1007230002120122F4F4021201221A96011201228A
:10073300A696011201220A980112012216980112AB
:100743000122519801120122C09801120122C99974
:1007530001120122D29A01120122999B0112012254
:10076300F69C01120122149D01120122319D0112F6
:100773000122DE9D011201225B9E01120122839E52
:10078300011201224DA10112012252A101120122E3
:100793006BA301120122B9A30112012229A40112A0
:1007A300012267A40112012243A50112012203A61B
:1007B300011201224FA60112012252A601120122A7
:1007C30096A601120122DEA6011201221DA7011223
:1007D30001223FA70112012273A701120122D6A70A
:1007E300011201220080031201220E800312012252
:1007F300618003120122808003120122C58003124B
:100803000122098203120122A48203120122E88237
:100813000312012212830312012281830312012294
:10082300C783031201223E8403120122EF840312C1
:100833000122282700120122382700120122D9277A
:1008430000120122352800120122F228001201228F
:100853000E2A00120122402A001201226F2A0012DE
:1008630001221C2C00120122932E001201220331BB
:1008730000120122F53100120122EE320012012290
:10088300F53400120122E93700120122183900124F
:1008930001221C3B001201222C3C00120122BB3D11
:1008A30000120122AC3E00120122FA3E0012012284
:1008B300693F001201228D3F00120122DE3F001228
:1008C30001227F4400120122804500120122E145EA
:1008D300001201220C4600120122D246001201220C
:1008E30033A0031201223DA00312012282A00312AE
:1008F300012296A00312012226A1031201225FA165
:10090300031201229AA103120122C3A1031201229D
:1009130017A2031201222CA2031201224EA20312D8
:10092300012263A20312012277A2031201228CA2E5
:1009330003120122C6A203120122F2A20312012210
:100943003BA303120122ADA303120122F0A303125E
:1009530001221AA40312012245A403120122A9D1E0
:10096300031201221CA402120122FFA4021201227B
:100973007AA502120122B5A50212012206A70212CC
:10098300012294A70212012226AA02120122D8AA46
:1009930002120122E4AB0212012257AD021201221C
:1009A300B0AD02120122A19703120122E4970312B0
:1009B30001226898031201223F9B0312012251BEB8
:1009C3000312012203BF03120122FFBF03120122FC
:1009D3003EC00312012298C003120122A8C60312CB
:1009E30001220BC703120122A8C703120122DDC78C
:1009F300031201220DC80312012248C80312012267
:100A030068C803120122FF89031201228B8A031291
:100A130001224A8B03120122628C031201227C8E73
:100A230003120122888D02120122AD8D02120122CE
:100A33007A8E021201224E8F02120122BB8F021202
:100A43000122FB8F02120122979002120122CB9105
:100A530002120122A692021201220593021201221E
:100A6300919302120122FF93021201228B9402122C
:100A73000122D19402120122439502120122D5953B
:100A83000212012276960212012296960212012286
:100A9300DE960212012227970212012243970212C5
:100AA3000122699702120122E39702120122F197B0
:100AB30002120122809802120122E99802120122F5
:100AC300B38E03120122388F031201227A8F03128D
:100AD30001225E9003120122CB90031201220F9197
:100AE3000312012253910312012280910312012266
:100AF300A89103120122E091031201221E92031214
:100B03000122459203120122BF920312012209938B
:100B130003120122FACB0112012299CD0112012203
:100B2300D1CF0112012225D00112012250D001128E
:100B330001222CD1011201225CD1011201228BD19D
:100B4300011201229ED101120122DFD101120122E1
:100B53000CD2011201225AD20112012296D20112A1
:100B63000122DBD20112012228D301120122A2D3D6
:100B730001120122E3D501120122CDD70112012274
:100B830009D80112012298D901120122DDD90112DB
:100B9300012250DA01120122A5DA01120122AADA96
:100BA3000112012234DB0112012253DC0112012262
:100BB30064DC0112012201C2021201227AC2021272
:100BC300012234C8021201223FC902120122E8CADB
:100BD3000212012276CB02120122EC6400120122DE
:100BE3006D65001201229A6500120122E36500126D
:100BF3000122E466001201223D6700120122B96856
:100C0300001201223B6900120122566900120122DF
:100C1300C76900120122846A00120122476B001285
:100C23000122D56B001201228C6C001201229F6CF1
:100C330000120122386D00120122CF6D0012012231
:100C4300F66D001201225F6E00120122A96E0012DE
:100C53000122F76E001201229C6F001201223A70EA
:100C630000120122C7700012012238710012012202
:100C73007F7100120122D771001201220972001242
:100C83000122C37200120122CA73001201221374DB
:100C9300001201223074001201224F74001201224B
:100CA3008275001201223976001201225E7600124B
:100CB3000122737600120122E376001201222477C7
:100CC30000120122487800120122C9780012012281
:100CD30041B8021201228CB80212012298B8021202
:100CE30001226CB90212012283B902120122C0B996
:100CF30002120122F1B90212012229BA02120122BF
:100D03007FBA0212012295BA02120122D1BA02124B
:100D13000122E4BA021201220BBB021201223FBBE1
:100D23000212012265BC02120122AFBD021201228E
:100D3300ABBE02120122C8BF021201221D270012FC
:100D4300012287DC01120122C2DC0112012214E01C
:100D53000112012270E1011201222FE2011201228C
:100D630096E50112012280E601120122CCE601126E
:100D73000122E6E60112012223E7011201222EE7F6
:100D8300011201226DE70112012276E7011201220D
:100D930020E801120122F7E8011201224BE90112B6
:100DA3000122A8E9011201221AEA01120122AEA8C6
:100DB300011201220DAC0112012213AC0112012216
:100DC30044B3011201224BB701120122DEAF031219
:100DD3000122BBB003120122FFB00312012239B179
:100DE30003120122D1B10312012240B203120122E4
:100DF30049B20312012255B2031201226FB2031248
:100E0300012299B203120122C9B203120122F19BFA
:100E130003120122FE9B03120122189C03120122DA
:100E23004B9C03120122899C03120122EE9C0312A4
:100E33000122039D031201220E9D031201221B9D19
:100E430003120122329D03120122409D031201224B
:100E53004B9D03120122579D03120122669D03122B
:100E63000122719D03120122949D03120122389ED7
:100E730003120122489E03120122629E03120122E1
:100E83007F9E031201229A9E03120122BF9E031228
:100E93000122CA9E03120122DF9E03120122F39E46
:100EA30003120122549F031201225A9F03120122AB
:100EB300609F03120122669F031201227E9F031289
:100EC3000122B19F031201220580021201229C809C
:100ED300021201223481021201222482021201220F
:100EE3005B82021201226E8202120122DC82021252
:100EF30001227784021201229E840212012240857C
:100F03000212012275850212012286850212012234
:100F1300FF85021201222086021201223886021264
:100F23000122908702120122998902120122E98B80
:100F330002120122EC8C021201223B8D02120122C9
:100F430069EB0112012266EC0112012251ED01123B
:100F530001225BED011201227DED0112012289EDD7
:100F630001120122DBEE011201220AEF011201221A
:100F73003AF0011201227CF001120122A8F10112C0
:100F830001227EF201120122D0F2011201222FF37B
:100F93000112012266F301120122A1F301120122BF
:100FA3003CF70112012255F701120122D7F7011272
:100FB3000122E5F7011201223AF80112012248F851
:100FC30001120122B5F80112012227F901120122AF
:100FD3006DF9011201220C99021201222E990212BB
:100FE3000122189B02120122BD9E0212012200A0BF
:100FF30002120122DAA00212012236CA03120122CE
:101003005BCA03120122CCCA031201225ED402126C
:10101300012267D40212012270D402120122A1D547
:1010230002120122C0D702120122F6D702120122B4
:1010330030D80212012266D802120122A0D802126D
:101043000122D4D80212012200D90212012249D965
:101053000212012283D902120122CBD902120122E8
:1010630021DA0212012256DA02120122B1DA021245
:101073000122EBDA021201223CDB0212012272DBB3
:1010830002120122ACDB02120122DADB021201227C
:10109300FDDB021201228AD303120122B6D303120B
:1010A300012211D4031201221BD4031201222BD4D7
:1010B3000312012201850312012228850312012252
:1010C30063850312012211D6031201223E47001247
:1010D30001224E4A00120122E34B001201225E4C10
:1010E300001201220A4D00120122AD4D001201220D
:1010F300454E00120122744E001201220C530012BD
:1011030001229E5300120122DA5400120122445597
:1011130000120122F85500120122AE5800120122DA
:10112300E85800120122525900120122AF5900124D
:1011330001220C5A00120122695A00120122545B47
:10114300001201229A5B00120122E55B00120122C8
:10115300085C001201224F5D00120122635D001240
:101163000122D25E00120122115F00120122515F9F
:1011730000120122A45F00120122C55F00120122A6
:101183000360001201222962001201226A62001226
:101193000122056300120122776300120122B86461
:1011A300001201227AEB0212012220EC0212012228
:1011B30065ED02120122EEED02120122DBEE0212B4
:1011C30001221AEF0212012284EF02120122F2EF2E
:1011D30002120122BCD703120122E0B8031201223A
:1011E300ABBB031201229FD703120122DED40312E9
:1011F3000122EED40312012202D5031201227ED56D
:1012030003120122F7B2031201229FB30312012238
:10121300E1B503120122F3FF01120122ED7F001257
:101223000122BBF602120122CBF6021201220CF9B3
:101233000212012242FA02120122ABFA0212012225
:10124300C9FA02120122EBFA02120122BCFB0212BA
:101253000122BFFB02120122E1FB0212012276C826
:101263000312012296C803120122DAC803120122D3
:10127300EDC80312012200C90312012290C903120F
:10128300012207CA0312012275D7031201228BD749
:1012930003120122499303120122BA93031201227A
:1012A300D79303120122FC93031201222B940312FE
:1012B30001225A9403120122D99503120122D796CF
:1012C3000312012219E4021201228AE4021201220A
:1012D30001E602120122D5E70212012212E90212EB
:1012E3000122D6E902120122F3E90212012242EAA3
:1012F3000212012283EA02120122C4EA021201222B
:10130300E8EA0212012217EB02120122B5C403120A
:1013130001220BC50312012288C503120122C2C593
:1013230003120122D2C5031201220BC603120122AA
:10133300ECCB0312012241CC031201229ECD0312F6
:101343000122CECD0312012264CE03120122F2CE7A
:101353000312012287D003120122B8D00312012203
:10136300E2D00312012240D1031201228BDC0212CC
:101373000122A0DC02120122FCDC0212012267DD41
:1013830002120122AFDD0212012221DE021201222A
:101393004ADE0212012258DE02120122BADE0212D2
:1013A3000122F8DE0212012213DF02120122AEDF54
:1013B3000212012257E002120122DAE00212012294
:1013C30013E1021201229EE102120122F5E102124F
:1013D300012253E20212012265E2021201228BE290
:1013E3000212012294E202120122E5E30212012217
:1013F300C3C0031201222AC103120122E7C103124F
:10140300012265C20312012255A80312012288A8F2
:1014130003120122BAA903120122FEA90312012217
:10142300DAAA031201224DCF031201222BD0031299
:101433000122B9BB03120122FEBB0312012244BCE9
:10144300031201220DBE0312012281D503120122D0
:101453009CD503120122ACD50312012235D4031209
:10146300012259AE0212012235AF021201227CAFD2
:1014730002120122B9AF0212012227B00212012285
:1014830081B002120122F1B002120122C1B1021293
:101493000122B0B20212012227B302120122C3B405
:1014A3000212012250B502120122C3B50212012217
:1014B3003FB60212012256B6021201227BB7021274
:1014C3000122D5B702120122F6F90112012216FAFE
:1014D300011201221CFB0112012268FB01120122ED
:1014E30088FB01120122DBFB0112012248FC0112DD
:1014F30001228EFC01120122F2FC0112012214824C
:1015030001120122418701120122448A01120122A0
:101513006D8A01120122968A01120122488B01125F
:101523000122318D011201227C8E01120122958E3E
:1015330001120122CC93011201220594011201220E
:101543004994011201225A9501120122FCB503129A
:1015530001220CB60312012231B603120122B6B6E0
:10156300031201229FB70312012286B8031201223C
:1015730089B803120122A0B803120122BEB80312D4
:10158300012203D70312012249D703120122E0FFEC
:1015930002E066701008A3E066700A08A3E06670B4
:1015A3000408A3E06622C3E7960809E7960809E75B
:1015B300960809E79622C3E09608A3E09608A3E0FD
:1015C3009608A3E09622C008C3E096F50808A3E0B6
:1015D30096420808A3E096420808A3E096450870DF
:1015E30001D3D00822080808EAC0E0EBC0E086F087
:1015F300E7A4FA180986F0E7A42AFA180986F0E79F
:10160300A42AFA180986F0E7A42AFA1986F0E7A4AF
:10161300FBE5F02AFA190886F0E7A42BFBE5F03A7C
:10162300FA190886F0E7A42BFBE5F03AFA18180933
:1016330086F0E7A4C5F02BFBE43AFA1908E7C5F0F6
:10164300C6A426F6E5F03BFBE43AFA1886F0E7A4D5
:10165300F6E5F00826F6E43B08F6E43A08F6D0E0AF
:10166300FBD0E0FA226016080808C6C313C618C6E2
:1016730013C618C613C618C613C6D5E0EA227009E6
:10168300080808226016181818C6C333C608C633DC
:10169300C608C633C608C633C6D5E0EA22E627F62F
:1016A3000809E637F60809E637F60809E637F622A9
:1016B300E026F608A3E036F608A3E036F608A3E032
:1016C30036F622E026F008A3E036F008A3E036F071
:1016D30008A3E036F022C3E697F60809E697F60872
:1016E30009E697F60809E697F622C3E096F008A301
:1016F300E096F008A3E096F008A3E096F022E05607
:10170300F608A3E056F608A3E056F608A3E056F65B
:1017130022E056F008A3E056F008A3E056F008A331
:10172300E056F022E0F608A3E0F608A3E0F608A3EB
:10173300E0F622E6F008A3E6F008A3E6F008A3E645
:10174300F022E0FAA3E0FBA3E0FCA3E0FD22E0F833
:10175300A3E0F9A3E0FAA3E0FB22E8F0A3E9F0A3F6
:10176300EAF0A3EBF022CAC0E0E6F0A308DAFAD06D
:10177300E0FA22CAC0E0E0A3C582CCC582C583CD0E
:10178300C583F0A3C582CCC582C583CDC583DAE604
:10179300D0E0CA22C3E498F8E499F91217D8802656
:1017A300C3E49AFAE49BFBE920E7E91217D8E4982B
:1017B300F8E499F922C3E498F8E499F91217D8E404
:1017C30098F8E499F9C3E49AFAE49BFB22EB20E747
:1017D300CFE920E7E0B90010BB0008E88AF084F8FD
:1017E300AAF022E4FBC8FA22EB70227B10C833C8AC
:1017F300C933C9335007C39AC3DBF280069A500139
:101803002ADBEAC833F4C8C933F4C9FA2275F008ED
:10181300E4C833C8C933C933C99AC99B5004C92A18
:10182300C93BD5F0ECFBC833F4C8E4C9FA22600D18
:1018330008C6A2E713C618C613C6D5E0F322600C88
:1018430008C6C313C618C613C6D5E0F42270042213
:10185300600D18C6C333C608C633C6D5E0F41822D4
:10186300251810AF08F518400C15198008F5184015
:10187300021519D2AF2200C0D0251810AF08F518F1
:10188300500C05198008F51850020519D2AFD0D0B5
:10189300222518F58210AF08F518400C1519800899
:1018A300F51840021519D2AF851983222518F58240
:1018B300E43519F583222518F8E43519F92225189A
:1018C300FAE43519FB222518FCE43519FD22E473EB
:1018D3002518C582C0E0E51934FFC583C0E0E518CB
:1018E300C3958224F810AF08858319858218800870
:1018F300858319858218D2AFCEF0A3E520F0A378B3
:1019030008E608F0A3DEFAEFF0A3E58124FAF8E68F
:1019130008F0A3E608F0A3E608F0A30808E608F039
:10192300A3E608F0A315811581D0E0FED0E0F815F9
:101933008115811581E8C0E0EEC0E0222518C5823B
:10194300C0E0E51934FFC583C0E0E518C3958224E0
:10195300F910AF0885831985821880088583198556
:101963008218D2AFCEF0A3E520F0A37808E608F002
:10197300A3DEFAEFF0A3E58124FBF8E608F0A3E683
:1019830008F0A30808E608F0A3E608F0A3158115FC
:1019930081D0E0FED0E0F815811581E8C0E0EEC00B
:1019A300E022851983851882E0A3FEE0A3F5207861
:1019B30008E0A3F608DFFAE0A3FFE0A3C0E0E0A39A
:1019C300C0E0E0A3C0E0E0A3C0E0E0A3C0E010AF4C
:1019D300088582188583198008858218858319D222
:1019E300AFD083D08202011F851983851882E0A3BB
:1019F300FEE0A3F5207808E0A3F608DFFAE0A3FFF2
:101A0300E0A3C0E0E0A3C0E0E0A3C0E0E0A3C0E047
:101A130010AF08858218858319800885821885830D
:101A230019D2AFD083D08222C0D02518C582C0E09E
:101A3300E51934FFC583C0E0E518C3958224F3108C
:101A4300AF088583198582188008858319858218D4
:101A5300D2AFC8F0A3E9F0A3EAF0A3EBF0A37908AF
:101A6300E709F0A3D8FAECF0A3EDF0A3EEF0A3EFAF
:101A7300F0A3D0E0F0A3D0E0F0A3D0E0F0A3E52002
:101A8300F0A3E5F0F0A322851983851882E0C0E076
:101A9300A3E0F9A3E0FAA3E0FBA37808E0F608A328
:101AA300DFFAE0FCA3E0FDA3E0FEA3E0FFA3E0C0B8
:101AB300E0A3E0C0E0A3E0F5D0A3E0F520A3E0A31A
:101AC300F5F010AF0885831985821880088583197E
:101AD300858218D2AFD082D083D0E0F8D0E03274C0
:101AE300048006740280027401C0E0F404121894A6
:101AF300D0E0121769227404800474028000CCC001
:101B0300E0EDC0E0E518C39CCCAD1950011D10AF4A
:101B1300068C188D1980068C188D19D2AF12177682
:101B2300D0E0FDD0E0FC22D083D082E9C0E0E49392
:101B3300A3C386F0C5F095F0F908E493A386F0C536
:101B4300F095F0700BE493A3C3994005E904800278
:101B5300A3E475F002A42582F582E5F03583F583CD
:101B6300D0E0F9E493A3C0E0E493C0E022D083D0B3
:101B730082ECC0E0EDC0E0E493A3FCE493A3FDEDAD
:101B83004C600D121BBCEC24FFFCED34FFFD80EF19
:101B9300E493A3FCE493A3FDED4C600D121BFBEC5B
:101BA30024FFFCED34FFFD80EFD0E0FDD0E0FCE44A
:101BB30093A3C0E0E493C0E022C0E0C3E49396089B
:101BC3007401939618400FE49366700808740193A8
:101BD300661870007019A3A3C3E493960874019365
:101BE3009618A3A3400DD0E0D0E0D0E0021BACA335
:101BF300A3A3A3A3A3D0E022C0E0C0F088F0E493A2
:101C03006670080874019366187000A8F0A3A370A7
:101C13000BD0F0D0E0D0E0D0E0021BACA3A3D0F017
:031C2300D0E022EC
:101C280074F612193FEAFEEBFF8C088D09EE243496
:101C3800F8E43FF9E8FCE9FDEE2435121F3BFAEE23
:101C48002437121F3BF88508F0A4C885F00A8509D7
:101C5800F0A4250AF9EA28F8E439F97A257B001274
:101C680017D8EA8C828D83F0FA131313541FF8EEF9
:101C780028F8E43FF9E8245DF582E439F583E0C00B
:101C8800E074075AF8D0E0B800028004C313D8FC07
:101C9800A2E0EE50082434F582E43F80182436127E
:101CA8001F3BF5F0EA84A8F0EE28F8E43FF9E824B1
:101CB80038F582E439F583E0F97F030219EB74F70C
:101CC80012193FEAFEEBFFEE2434121F3BC0E0EE90
:101CD8002435F582E43FF583D0E0F08E828F83A32C
:101CE800A3A3A3A3A3A3C082C0838E828F83A3A32D
:101CF800A3A3A3E0F8A3E0F9D083D082E0C398F5CA
:101D080008A3E099F509EE247F121F3B6401703E99
:101D1800EE2480F582E43FF583C082C0838E828FF3
:101D280083A3A3A3A3A3E0240108A3E03400F9D06C
:101D380083D082E0687003A3E06970127CB57D04EB
:101D4800120C7CEE247FF582E43FF583E4F0AC08C6
:101D5800AD09EEFAEFFB121C28E9F91226937F026F
:101D68000219EBC082C083851882851983E0F8A325
:101D7800E0F9C3EA9CEB9D5010C3EC98ED99401B29
:101D8800C3EA98EB995014800EC3EA98EB99400780
:101D9800C3EC98ED994004790180027900D083D092
:101DA8008222EAC39CFAEB9DFB2274EF12193F9042
:101DB800037AE064086005E06407702A9061C8E06F
:101DC80060249003A8E0F4601DE0F875F00BA4C847
:101DD800AAF02AF974AA28FE740339FF8E828F8329
:101DE800A3A3A3E07003021EC0906060E0C0E0EE11
:101DF8002468F582E43FF583D0E0F0750C25750D75
:101E080005750800750900E5D914F50AE5D95403E4
:101E1800F50E60127403650E6043E50A600AEE244D
:101E280067121F3B70028075900520E06401601FF7
:101E3800121F3860047A0480027A00E50AC39AFA0D
:101E480095E0FB120B268A088B09EA4509700512F2
:101E58000EAA8064121F3870048A0C8B0DE50A6084
:101E680012850C82850D83F50BE5D9F0A3150BE5DA
:101E78000B70F6121F38604474FC250AF50A780CBA
:101E8800121AE6AC0AA90EEEFAEFFB120D3674022E
:101E9800121879E97026AA08AB091213F6793D8E53
:101EA800828F83A3A3A3A3E0FA7B00120988EEFA2A
:101EB800EFFB120CA0120D487900806F7403650EB9
:101EC8006051850A107511007810121AE6AC0CAD35
:101ED8000DAA08AB09120CFA7402121879EE2468DC
:101EE800121F3B64807004747F8001E0F50C780C4D
:101EF800121AEAE50EF50C780C121AEAA90AAC08CF
:101F0800AD099003A8E0FA7B0012095E740212186A
:101F180079801390037AE06408600BAC0CAD0DEE89
:101F2800FAEFFB120DC0120EB679017F0A0219EB07
:101F3800EE2483F582E43FF583E02274F212193F20
:101F480074FC121863EAFEEBFF8909A2AFE433F5CB
:101F580008C2AF02200DE0601B780C121AE6AC0B29
:101F6800A90EEEFAEFFB120D307402121879740400
:101F7800250BF50B7401250BF5D9850ED9E50B60FA
:101F880018F50A850C82850D83E0F5D9A385820CA6
:101F980085830D150AE50A70EA75E195EE2463F864
:101FA800E43FF97A007B00A2AFE433F50BC2AF88B7
:101FB800828983E0FCA3E0FDEC4D603A8882898346
:101FC800E0FAA3E0FB8A828B83E0FCA3E0FD888231
:101FD8008983ECF0A3EDF08A828B83E4F0A3F08888
:101FE800828983E0FCA3E0FDEC4D700A8882898336
:101FF800A3A3E4F0A3F0E50BA2E092AF1213F690CE
:1020080004BCE004F0EE2463121F3BF8A3E0F9E8F7
:10201800496064EE2463121F3B2402F8A3E03400F5
:10202800F988828983E5822402F50CE43583F50D6D
:10203800E0F50BA3E0F50EEE2462121F3B6401707D
:10204800369061D0E0F8121F3860047C0480027C6E
:10205800007480C398FA95E0FBE50B2CF8E4340093
:10206800F9E82402F8500109C3EA98EB99A2D2656D
:10207800D0334003021F5E9004BCE0604D9004BD65
:10208800E0F89004BCE0C398500C74026509703AFB
:102098009004BEE060348E828F83A3A3A3A3E0855F
:1020A80018828519831220E274021218AFE81220F0
:1020B800E29004BBE028F074021218C9AA18AB1900
:1020C80079011209B29004BCE4F0E508A2E092AFED
:1020D80074041218797F070219EBF0A3E4F0900456
:1020E800BCE0F8228521878522C622C0E074EB1265
:1020F8001A2BA2AFE433F508C2AF759B009061823A
:10210800E0A2E05030E591A2E0502A7591FE7401FA
:1021180065217021122286120E02122274121AF9F7
:1021280012243D7404121879E964017005790112CA
:102138000E3E121DB2906182E0A2E5505DE591A2CB
:10214800E550577591DF90037AE064076005E06415
:1021580008702F12228674016521703E120E021239
:102168002274121AF912243D7404121879E96401D0
:1021780070057901120E3E7901EEFAEFFB121F434A
:102188008018E0640D701390039CE004F0642870DC
:1021980002E4F07A00E0F9120EBC906182E0A2E657
:1021A8004003022249E591A2E640030222497591C3
:1021B800BF90037AE064057008120DEA120DF680EC
:1021C80003120DF0752100120E4AE990037BF07995
:1021D80000120E3E120BEC7A017B00900379E0F9B5
:1021E8001213C6907803E064427056900524E014F8
:1021F800F0704EC2AF12220000782AD0E0F618D054
:10220800E0F6E59F5407F87005750DFF8003750D1E
:102218007FC4C0E07829E6F50A08E6550DF50B7489
:102228000B780A121841D0E0250AF8906270E0A2F3
:10223800E740F8E8C333906272F0906270E0D2E051
:10224800F0906181E0A2E35009E5E9A2E35003754B
:10225800E9F7A3E0A2E75009E591A2E750037591D9
:102268007FE508A2E092AF7F08021A8A8E828F83E8
:10227800E0F8A3E0C82416F582E438F58322900339
:10228800A8E0F875F00BA4C8AAF02AF974AA28FEE9
:10229800740339FF22C0E0C0D0C082C0839061833C
:1022A800E0A2E05009E5BFA2E0500375BFFEE0A23E
:1022B800E15009E5BFA2E1500375BFFDE0A2E2507D
:1022C80009E5BFA2E2500375BFFBE0A2E35009E5B0
:1022D800BFA2E3500375BFF7E0A2E45009E5BFA22F
:1022E800E4500375BFEFE0A2E55009E5BFA2E55051
:1022F8000375BFDFE0A2E65009E5BFA2E65003750B
:10230800BFBFD083D082D0D0D0E032C0E074F21208
:102318001A2BE5A7A2E6500FE5A1A2E6500953A79C
:10232800BF75A1BF122367E5A7A2E5500CE5A1A2DE
:10233800E5500653A7DF75A1DFE5A7A2E15009E53F
:10234800A1A2E1500375A1FDE5A7A2E2500CE5A109
:10235800A2E2500653A7FB75A1FB7F01021A8A74FB
:10236800F712193F75210190037AE064067015127F
:102378000D6C8A828B83A3A3A3A3A3A3E0FAA3E093
:10238800FB120DD8A2AFE433FED2AF900380E06415
:102398000170187A207B00900379E0F91214EC7A26
:1023A800207B00900379E0F91213CC906182E0D28F
:1023B800E6F0900521E0602185C622801690037F13
:1023C800E064017008E5C654F84405F5C653BEFC40
:1023D8001220EC7401652160E4EEA2E092AF7F0266
:1023E8000219EB008E238F24858228858327851880
:1023F80082851983E0CEA3E0CF852882852783EBE9
:10240800C9EAC8EDCBECCA75F010C3E833C8E933A4
:10241800C9EA33CAEB33CBC3EA9EF526EB9FF52511
:10242800B35004AB25AA26EC33CCED33CDD5F0DA86
:10243800AE23AF242274F112193F8A088B098C0A43
:102448008D0B9081B27808121701740F1218AF78AB
:102458000C1217279081B2780C1217017808790CA2
:102468001215A990816650107808790C1216D9783F
:10247800081215C94014800E780C79081216D978FC
:102488000C1215C950047901800279007F080219DD
:10249800EB74ED12193F8A088B098C0A8D0B908119
:1024A800B2780812170174131218AF780C12172794
:1024B8009081B2780C121701780C79081215A9408E
:1024C800117808790C1216D9AA08AB09AC0AAD0B19
:1024D80080227510007511007512007513017810AF
:1024E800790C1216D9781079081216A0AA10AB1117
:1024F800AC12AD137F0C0219EB9081B27808121759
:10250800278A828B8378081217147F040219EB74C8
:10251800F512193F8C828D8378081217278A828BCF
:102528008378081216ED12256FC3E09CF0A3E09D96
:10253800122561402290819A78081217278A828B87
:102548008378081216C68A828B83A3A3A3A3E024E8
:1025580020F0A3E0344EF080A0F088828983C3E0A5
:102568009420A3E0944E22EA2404F8E43BF98C82F8
:102578008D83A3A3A3A3E0FCA3E0FD888289832223
:1025880074F512193FE9FE9004D7E0FAA3E0FBEED8
:1025980029F8E433F974DB28F582748039F583E08F
:1025A8002AF508A3E03BF5097808121AE69081A2FB
:1025B8001217451223EC74021218798A088B098CB9
:1025C8000A8D0B74107808121668AA08AB097F04E4
:1025D8000219EB74F112193F8A0C8B0D8C0E8D0FBA
:1025E80074111218AF121AFD74111218AFE02401F9
:1025F800F508A3E03400F509E4F50AF50B780C7941
:10260800081215E89081727808121727780C790853
:102618001215E8AA0CAB0DAC0EAD0F1223EC740228
:102628001218798B09EA450960047A0180027A0058
:10263800EC2AFCE43DFD74131218AFE0F8A3E0F9AE
:10264800E8FEE9FFECF8EDF97A717B021217D888F9
:10265800088909E4F50AF50B8E828F83780812172A
:1026680036ECF8EDF97A717B021217D88A088B09D3
:10267800740578081218508E828F83A3A3A3A3E54C
:1026880008F0A3E509F07F080219EBC082C083E9CE
:10269800906000F0D083D08222C0E0C0D0E8C0E0D3
:1026A800E9C0E0A2AFE433F8D2AFC2C7E8F9E8A2C4
:1026B800E092AFD0E0F9D0E0F8D0D0D0E032C0E07E
:1026C80074F2121A2BA2AFE433FED2AFE5BAF8794E
:1026D80000900860E8F0A3E9F0A8BB7900E4C8F925
:1026E800900860E048F0A3E049F0E5B5540F900881
:1026F8005FF090085BE0FAA3E0FB90085AE0F9125B
:1027080013C6E9EEF8EEA2E092AF7F01021A8AC280
:10271800AF0200002202011FFFFFFFFFFFFFFFFFC4
:10272800C082C083E9901652F0D083D08202011F84
:1027380074F61218D3E99002ECF090034CE0F50817
:1027480075090074027808121850AA08AB09121407
:102758003E9002ED1230EB9002ED1234D8606F908B
:10276800034CE075F003A4FAABF012143E90030A90
:102778001230EB90030A1234D8700B9002ED123429
:10278800A9121444804890030A12443D7AFF7BFF43
:102798001211A47A0080198A087509007402780851
:1027A800121850123EE574FF1228EBE4F0A3F00A69
:1027B80090034CE0F8EAC39840DD790512084A9086
:1027C80002ECE0F91207367AD47B08120AC6023FF7
:1027D8008874F41218D38A088B09EB5480604790E8
:1027E80002ECE0F91213AE8A0A8B0BAE0AAF0BEEBD
:1027F8004F602A8E828F83E064B0701A12085CE9F9
:1028080060148E828F83A3A3A3A3E0F9EE2405FAB4
:10281800E43FFB12082CEEFAEFFB12139CAA08E522
:10282800096480FB80047A007B00022A3B74F21260
:1028380018D374FB121863EAFEEBFFEE4F60457481
:10284800031218AFEEF0A3EFF0851882851983EC18
:10285800F0A3EDF074021218AFE9F0AA18AB191240
:102868000730E9F508707574131218AFE0F50AA37C
:10287800E0F50BE50A450B60638E828F83122E7498
:10288800EE4F700575080280537A067B0012143EDD
:102898008A0C8B0DA80CA90DE849700575081380E2
:1028A8003B88828983E41228EBEEF0A3EF122A0713
:1028B800E50AF0A3E50BF09002F0122A009002F06E
:1028C8006017E0FCA3E08003EAFCEBFD8C828D83BB
:1028D800122A0070F38C828D83123B00A9087405BC
:1028E8000246BDF0A312441FA32274F21218D38922
:1028F80008890C750D007403780C121850850C0AA1
:10290800850D0B9002EFF09002ED12390B1229FEA3
:10291800602E1214447900801D890C750D00740214
:10292800780C1218509002ED123DA48882F583A30A
:10293800A3E4F0A3F00990034CE0F8E9C39840D968
:1029480090034CE0FA850AF0A4CAA8F0850BF0A41D
:1029580028FB12143E8A0C8B0DAE0CAF0DEE4F7097
:10296800030229F490034CE0FC850AF0A4CCA8F0FB
:10297800850BF0A428FD790012138A7C0080318D24
:102988000C750D007403780C1218508A828B831210
:1029980029F988828983E4F0122A06A3A3F0A3F018
:1029A8000DEDC3950840D8EE250AFEEF350BFF0C58
:1029B80090034CE0F8ECC39850288C0C750D00740B
:1029C80002780C1218509002ED1229F9E8240250EE
:1029D8000109FAE9FB8A828B83EEF0A3EFF07D0010
:1029E80080BFE5089002EFF0790080027913024673
:1029F800C0123DA8F922A3A31234ADEA4B22A312B8
:102A0800441FA3A3A32274F41218D37900EAA2E006
:102A1800501F75084A7509817808121AE679107CE2
:102A2800047D007A547B161208447402121879E95E
:102A3800F980007F040219A5C082C0839002F012B9
:102A480034D8601C88828983A3A3E06A7003A3E05A
:102A58006B8882898370E8A3A3A3A31234A9800496
:102A68007A007B0002273174F21218D374FD121811
:102A780063EAFEEBFF851882851983E4F0A3F074FE
:102A8800021218AF7401F01234D57014120A001231
:102A9800143E9002F31230EB1234D57003022C016D
:102AA8001231EBEE2404F50AE43FF50B850A82F5B2
:102AB80083E024FE603C24FC607424FE607E24FED7
:102AC8007003022B5124FE7003022B5E24FE700358
:102AD800022B6B24FE7003022B7824FE7003022B5A
:102AE8008524FC7003022BA624FE7003022BBE0271
:102AF8002BFA120A009002F5EAF0A3EB122C0D1241
:102B08000478E96003022BFA9002F5121AFD8E820E
:102B18008F83A3A3A3A3A312443D850882850983B9
:102B28001234A91208147402121879022BFAAC187C
:102B3800AD19EEFAEFFB120862022BC9AC18AD19F9
:102B4800EEFAEFFB1208688078AC18AD19EEFAEFD0
:102B5800FB12086E806BAC18AD19EEFAEFFB120889
:102B680074805EAC18AD19EEFAEFFB12087A80514A
:102B7800AC18AD19EEFAEFFB12088080447402120B
:102B880018B9880C890D780C121AE674021218C943
:102B9800EEFAEFFB12088674021218798023AC183B
:102BA800AD19EEFAEFFB12088CE9F87016740212F0
:102BB80018AFE4F0803CAC18AD19EEFAEFFB120840
:102BC80092E9F8E8602C8E828F83A3E06414602277
:102BD800850A82850B83E09002F5F08518828519B5
:102BE800831234A99002F61230EBE8A3122C0D12CE
:102BF8000472EEFAEFFB1207EA74021218AFE0F95A
:102C080074030246BDF07CF57D0285088285098340
:102C18001234AD2274E81218D374FA1218637404CB
:102C28001218AFECF0A3EDF08A128B13EA2405F525
:102C38000EE43513F50FEA2402F510E43513F51107
:102C4800851082F5831234A91205688A0A8B0B75E0
:102C580008007C037D0079007AF57B0212138AE56F
:102C68000E2402F516E4350FF51774021218B98808
:102C78000C890D780C121AE6850E82850F83A3A3A2
:102C8800A3A3E0F50C750D00780C121AE6E50E24E6
:102C980005F50CE4350FF50D780C121AE685168249
:102CA8008517831237B012074E74061218798A0CEA
:102CB8008B0DE50C450D7003022E3D802085188292
:102CC800851983E088828983F0050885188285192B
:102CD80083A3E0C0E0122E7ED0E0F00508E50A24C8
:102CE800FBFAE50B34FFFBC3E5089AE49B400302BB
:102CF8002E3D7E007F00851282851383A3A3A3A3A4
:102D0800E0F5097809121AEAE4F514F515781412B1
:102D18001AE67514F27515027814121AE69002F381
:102D2800121AFD74091218AF121AFDE50A24F9F9EE
:102D3800AC0CAD0D8510828511831234A91208BC24
:102D48007409121879E96003022DDE850E82850F59
:102D580083A3A3A3A3A3A3A3E0F89002F2E068705F
:102D680075E0F5148E157814121AE612443A850E99
:102D780082850F83A3A3A3A3A3A3A3A31234A91299
:102D880013847402121879E9604C9002F61234D850
:102D9800703BE4F5147814121AE67CFF7DFF79077E
:102DA8008510828511831234A9120826740212181C
:102DB800791234DE7017850E82850F831245D77419
:102DC800041218AF123E981237E1022E71850C8258
:102DD800850D83122E74A818A919881489157814DA
:102DE800121AE674041218AF121AFD851682851796
:102DF800831230E112075A74041218798A0C8B0D69
:102E0800EE4F7003022CBA122E7EEE122E89123764
:102E180097EF122E89F8A3E03400F9E50C450D6010
:102E280003022CC58882898374FFF00508122E7E60
:102E380074FFF00508E508601A1313543F1230F1C7
:102E4800120484E960099002F61234A91213F67983
:102E5800008016850E82850F831245D774041218D8
:102E6800AF123E98123B00790A02376AA3A3A3A3C4
:102E7800E0FEA3E0FF22A8089002F6E028123797A8
:102E880022F00508089002F6E0282274E81218D308
:102E980074FA12186374021218AF1230EB74041229
:102EA80018AFECF0A3EDF074021218AFE02405128D
:102EB8003780E0F50CA3E0F50D74021218AFE0249A
:102EC80002F510A3E03400F511851082F583123461
:102ED800A9120568750800750900EA24FCFEEB34A0
:102EE800FFFF8008050CE50C7002050DA808C3EE6D
:102EF80098EF9400500302309DA818A919880E89EC
:102F08000F780E121AE6851482851583A3A3A3A34E
:102F1800124441121AE6E5142405F50EE43515F5B8
:102F28000F780E121AE68514828515831230DF1287
:102F3800074E74061218798A0E8B0FEA450F700334
:102F480002309DEA2404F516E4350FF5178516823C
:102F5800F583E0F50CA3E0F50D8518828519831239
:102F6800443D8A828B83A3A3A3E0F985108285114F
:102F7800831234A912073CE9F509600302309D74F5
:102F8800021218AF1237A7F5097809121AEAE4F500
:102F980012F5137812121AE67512F27513027812E6
:102FA800121AE69002F3121AFD74071218AF121AD9
:102FB800FDEEF9AC0EAD0F8510828511831234A990
:102FC8001208BC7409121879E9F509600302309DEA
:102FD800E508703FE4F50EF50F780E121AE67CFF4F
:102FE8007DFF79098510828511831234A91208267C
:102FF80074021218791237CD700D74041218AF12BA
:1030080030D479110230D19002F2E024029002F615
:10301800F080149002F6E0FA9002F2E079002402BF
:103028005001096A497072A8089002F2E0FAE82A89
:10303800FAE43400FBEE9AEF9B405A851682851716
:1030480083E0C0E09002F7122E83D0E0F0050885F7
:103058001682851783A3E0C0E0089002F7122E833A
:10306800D0E0F005089002F2124441121AE6124428
:103078003AA808123774121372740212187990025F
:10308800F2E02508F50874FF650C700474FF650DFF
:103098006003022EECE508601F9002F6E0F5F0E50B
:1030A80008841230F112048AE960099002F7123498
:1030B800A91213F679008011E509700375090A74DD
:1030C800041218AF1230D4A90902376A12390FE571
:1030D8000CF0A3E50DF022A3A31246CCAA0CAB0D6D
:1030E80022A3A3EAF0A3EBF0229002F5F07CF57D91
:1030F800028510828511831234AD2274EC1218D324
:1031080074FC121863123C1074021218C91234A30A
:103118001207548A0C8B0DEA450D70030231DB123D
:1031280031EBA818A919881089117810121AE67CB1
:10313800FF7DFF790B8508828509831234A912085F
:103148002674021218791232E1700C850A82850BF6
:10315800831237DE0231E88E828F83A3A3A3A3E014
:10316800F5127812121AEAE4F512F5137812121A07
:10317800E67512F57513027812121AE67810121A0B
:10318800E674091218AF121AFD74091218AFE0F9A3
:10319800AC0CAD0D8508828509831234A91208BCD0
:1031A8007409121879E9FE70157CF57D028508828C
:1031B8008509831234A9120490E9700980207416D5
:1031C8006E70027E009002F61234A91213F6EE70A9
:1031D80004800B7E01850A82850B83123AFDEEF985
:1031E800023B12EE2402F508E43FF5092274EC12C2
:1031F80018D374FC121863EAFEEBFF8C0E8D0FEEE9
:103208002405F508E43FF50974021218C9850882F7
:103218008509831234A91207548A0C8B0DEA450DCF
:1032280070030232D1EE2402F50AE43FF50BA81828
:10323800A919881089117810121AE67CFF7DFF7988
:103248000D1234A312082674021218791232E17092
:103258000B8508828509831237DE807A8E828F83F8
:10326800A3A3A3A3E0F5127812121AEA85088285AF
:103278000983A3A3121AFD7512F5751302781212A9
:103288001AE67810121AE674091218AF121AFD74A9
:10329800091218AFE0F912349F1208BC7409121809
:1032A80079E9FE700F7CF57D021234A3120496E9C9
:1032B8007009802074166E70027E009002F6123437
:1032C800A91213F6EE7004800B7E01850882850929
:1032D80083123AFDEEF9023B121234E8F510A3E02E
:1032E800F511EA45112274E81218D374FE12186316
:1032F8008A168B178C148D15EA2405F50CE43517FE
:10330800F50DEA2402F50EE43517F50F850E82F562
:10331800831234A91205688A088B09750B007C038F
:103328007D0079007AF57B0212138A750A00E50898
:1033380014F5100424FFF508E50934FFF509805455
:103348009002F5E0FA9002F2E0F8EA28F8E4340096
:10335800F9E50898E50999500D9002F5E0F8E510AF
:10336800C3989002F2F0E0F5127513007812121A61
:10337800E612443A9002F6E02AFAA3E03400FB127F
:10338800137274021218799002F2E0F89002F5E0D4
:1033980028F0050A850C82850D83A3A3123DB4404D
:1033A800030234849002F5E0C39508E495094003CC
:1033B800023484AE0AEE2EFEE433FF1234C3AC1896
:1033C800AD19124455E439FB1207548A128B13AC19
:1033D80012AD13EC4D701B750B011234B3123B0187
:1033E8009002F6122A0060031213F6A90B74020267
:1033F800376C851682851783A3A3A3A3E0F50B7802
:103408000B121AEAE4F512F5137812121AE675127D
:10341800F27513027812121AE69002F3121AFD746A
:10342800071218AF121AFDA910850E82850F831294
:1034380034A91208BC7409121879E9F50B709B902D
:1034480002F61234D86003023348E4F512F5137813
:1034580012121AE67CFF7DFF790F850E82850F8395
:103468001234A912082674021218791234DE600385
:103478000233481234B31237E20233F57CF57D0289
:10348800850E82850F831234A912049CE960030219
:1034980033E879000233F5AC0CAD0D850A82850B53
:1034A800831234AD22E0FAA3E0FB221234C3E0FA1F
:1034B800A3E0F9EA85148285158322850C82850D9F
:1034C80083E02EF8A3E03FF988828983229002F3F3
:1034D8001245DBE849221234E8F8A3E0F9E849226A
:1034E8009002F6EAF0A3EBF09002F6E02274E812FC
:1034F80018D374FA12186374041218AF1230EB8CD4
:10350800168D1774041218AFE02405F50EA3E034E5
:1035180000F50F74041218AFE02402123780123439
:10352800A91205688A0A8B0B7F007E00A818A919C2
:10353800880889097808121AE6850E82850F83A300
:10354800A3A3A3E0F5088E097808121AE6E50E246D
:1035580005F508E4350FF5097808121AE6850E8294
:10356800850F83A3A31237B012074E740612187979
:103578008A0C8B0D80291237A1F00F1237A1F00F9A
:103588009002F2123AEC121AE612443AEFF81237A5
:103598007412137274021218799002F2E02FFFE588
:1035A8000C450D7003023630851882851983123C4C
:1035B80022A3A3A3E0F98514828515831234A912E6
:1035C800073CE9FEE50C2404F510E4350DF511EE91
:1035D800705074041218AF1237A7F5087808121A39
:1035E800EAE4F508F5097808121AE67508F275098B
:1035F800027808121AE69002F3121AFD74071218DC
:10360800AF121AFDE50A24FAF9AC0CAD0D85148247
:103618008515831234A91208BC7409121879E9FEB9
:1036280060391237BD123B00EF7003023757900222
:10363800F6E0F5F0EF849002F5F07CF57D02851454
:10364800828515831234A91204A2E960099002F751
:103658001234A91213F6790002376A8F08EF703B0B
:10366800E4F512F5137812121AE67CFF7DFF791142
:103678008514828515831234A9120826740212183B
:10368800791237CD70091237BD1237E102376A90C7
:1036980002F2E024049002F6F080359002F2E0F89D
:1036A8009002F6E0FAE82404FCE43400FDEC6A4DEC
:1036B8006003023636E50A24FAFAE50B34FFFBE527
:1036C8000828F8E43400F9EA98EB995003023636F2
:1036D800851082851183E0C0E09002F7E02FF8A3FF
:1036E800E034008882F583D0E0F00F8510828511E0
:1036F80083A3E0C0E012378ED0E0F00F74021218F6
:10370800B9880889097808121AE674021218AF12E3
:103718001AFD850E82850F831230DF12075A740452
:103728001218798A0C8B0DEA450D700302357E74E8
:10373800021218AFE0C0E012378ED0E0F00F74022A
:103748001218AFA3E0C0E012378ED0E0023586EE43
:1037580070027E0A850E82850F831237C3123B00E2
:10376800EEF974061218797F100219A59002F7E095
:1037780028FAA3E03400FB22F514A3E03400F51581
:10378800851482F58322123792229002F7E02FFAED
:10379800A3E034008A82F5832212379274FF221242
:1037A800390FA3A3A3A3E0221246CC850E82850F6E
:1037B800831234AD228510828511831245DB85166C
:1037C80082851783229002F7EAF0A3EBF09002F7C4
:1037D8001245DBE84922123B06E8F0A3E9F079112B
:1037E8002274EA1218D374FE1218638A088B098CA3
:1037F800128D13EA2405FEE43509FFAC18AD198EC5
:10380800828F831234A91207548A0C8B0DEE24067A
:10381800F50EE43FF50FEA450D70030238E1E508BF
:103828002402F50AE43509F50B8A828B83A3A3A346
:10383800E0A2E550288518828519831234A9120858
:10384800B08A108B11EA45116020791212349F85D5
:1038580010828511831218D1E9F50C707F850E82CC
:10386800850F83E0600979528011750C0E806D8593
:103878000882850983A3A3A3A3E0F9E4F508F50961
:103888007808121AE68E828F83A3A3E0F5087808D9
:10389800121AE68E828F83A3A3A3121AFD8E828F3B
:1038A8008312443D1234A31208C27406121879E92F
:1038B800F50C7011850E82850F83E0702D1234A3EC
:1038C8001204A880257416650C7011750C00741804
:1038D8001218AF12390BE48010750C011245D3850C
:1038E8001282851383E8F0A3E9F0850E82850F83A1
:1038F800E0600479008002A90C74021218797F0E26
:103908000219A512390F22E0F8A3E0F58388822274
:1039180074EC1218D374F71218638A0A8B0B8C1084
:103928008D11EA2405FEE4350BFF750C00AC18ADCB
:10393800198E828F831234A91207548A088B09EAD8
:1039480045097003023AD7E50A2402F50A50020530
:103958000B8A828B83A3A3A3E0A2E5502F8518824C
:103968008519831234A91208B08A0C8B0DEA450D0B
:10397800604F7912AC08AD091234A3850C82850D0D
:10398800831218D1E9F50C6003023ADA850A8285B8
:103998000B83E0F508A3E0F509AA08FB1208A4EADE
:1039A8004B70197AFF7BFF1208A4EA4B7003023AA6
:1039B800CD8A828B83E508F0A3E509F075080080BD
:1039C80008750C0E023ADA05089002EFE0F8E508EF
:1039D800C3984003023ACD85080E750F007403782A
:1039E8000E1218508A828B83A3A3E0250EF8A3E059
:1039F800350F123EA170D08E828F83123AF51230A5
:103A0800EB8E828F83A3A3123AF51230E9EE2404D9
:103A1800F508E43FF509850882F583E08882898303
:103A2800A3A3A3A3F0A3E4F0EE2405F50EE43FF569
:103A38000F850E82F583123AF5A3A3A3A31230E9EA
:103A48007512077513007812121AE6EEFCEFFD7472
:103A5800041218C11213727402121879E4F512785C
:103A680012121AE6850882850983E0FC7D00791721
:103A78001234A3120826740212187974071218AFA8
:103A88001230EB74071218AFE0FA4B603D850882DC
:103A9800850983123AEC121AE6850E82850F831285
:103AA800443D121372740212187974021218C91262
:103AB80034A31204AEE9602674071218AF1234A9B1
:103AC8001213F68019750C098008750C118003759E
:103AD8000C011245D3851082851183123B00A90C75
:103AE80074098028E0F5087509007808221234ADB9
:103AF8008882898322123B06E8F0A3E9F022E0F8E5
:103B0800A3E0F9850E82850F832274041218797F49
:103B18000C0219A574EC1218D3123C10751000EEA3
:103B28002402F50CE43FF50D850C82F5831234A9C7
:103B38001208A48A088B09EA45097003023BF48538
:103B48000A82850B83E064016003023BE9AC08AD9F
:103B580009AA0AAB0B120898E9606E8508828509E4
:103B680083122E76EE2406F50AE43FF50B8E828F3B
:103B780083A3A3121AFD8E828F83A3A3A3A3121A71
:103B8800FD850A82850B83121AFD79188E828F8330
:103B9800123C221234A91208C27406121879E9F8E4
:103BA800741668700B850A82850B83E4F0A3801471
:103BB800E860128E828F831234A9850E82850F8366
:103BC800EAF0A3EBF088108018780E121AE6AC0819
:103BD800AD09EEFAEFFB12089E7402121879E9F5A6
:103BE80010AA08AB091208AAE510700E850C828588
:103BF8000D831234A91204B4800974166510700379
:103C0800751000A910023B17EAFEEBFF8C0E8D0F12
:103C1800EE2405F50AE43FF50B221246CC850C820A
:103C2800850D832274EA1218D37508007509007E81
:103C3800007F00750A00EC2402F510E43DF51180C0
:103C480035EC65087003ED65096003023CE1888284
:103C58008983A3A3E06A7003A3E06B707C888289E0
:103C680083A3A3A3A31245D7EE28FEEF39FFEA28C2
:103C7800FAEB39FB050A123DB1503A850A0C750D6D
:103C8800007403780C121850851082851183123D38
:103C9800A4123EA1601FE508450970A58C088D098E
:103CA80088828983122E7488828983A3A3E02EFADE
:103CB800A3E03F80BEE50AC394025003023D9F750E
:103CC8000800750900EE4F6010EEFAEFFB1213F0D2
:103CD8008A0E8B0FEA450F70057900023DA1750B1E
:103CE80000023D74850B0C750D007403780C1218D6
:103CF80050851082851183E0250CF50CA3E0350D65
:103D0800F50DE50C2406F514E4350DF5158514823A
:103D1800F583123EA66042E50C2404F512E4350D45
:103D2800F513851282F583121AFDE50E2508FAE5CA
:103D38000F3509FB121372740212187985128285E5
:103D48001383E02508F508A3E03509F509851482F1
:103D58008515831234A91213F6E50B600D7C087DD6
:103D6800007900AA0CAB0D12138A050BE50BC3955D
:103D78000A5003023CEC8510828511831245D788CE
:103D8800828983A3A3A3A3A3A3E50EF0A3E50F123F
:103D98002A07EEF0A3EFF07901023906123DA822B6
:103DA800E0250CF8A3E0350D229002EFE0F8E50AD3
:103DB800C3982274F01218D38A0E8B0F8C0A8D0BBD
:103DC800750D00750C0080507916EE2406F508E490
:103DD8003FF5098E828F83A3A3121AFD8E828F83EB
:103DE800A3A3A3A3121AFD850882850983121AFDCD
:103DF800850E82850F83A3A31234A91208C2740604
:103E0800121879E9F50D7416650D706C85088285B0
:103E18000983E4F0A3F0050C9002EFE0F8E50CC389
:103E2800985066AA0C8A0875090074037808121855
:103E380050850A82850B83A3A3123EF0E8FEE9FFB2
:103E48008E828F83123EA66040EA2401F508E4348E
:103E580000F5099002EFE065087002E50960148832
:103E6800828983A3A3A3A3A3A3A3A31234D8600323
:103E7800023DD07918023DD2E9609B1245D37410F7
:103E88001218AF123E98123B00A90D7F080219A51F
:103E9800E0FAA3E0F5838A8222F9888289831246B0
:103EA800CCEC4D2274F61218D37C0080010C9003E0
:103EB8004CE0F8ECC398501E8C0875090074027821
:103EC80008121850123EE5E06A7003A3E06B70DD3B
:103ED800E8FAE9FB80047A007B00023F889002ED53
:103EE800123EF08882898322E02508F8A3E035098C
:103EF800F92274F21218D38A088B09750A008027F0
:103F08008E828F83A3A3A3A31229FE60031213F644
:103F18007C087D007900EEFAEFFB12138A8E828FFF
:103F280083E4F0A3F0050A123DB15027850A0C7509
:103F38000D007403780C121850850882850983A334
:103F4800A3E0250CFEA3E0350DFF8E828F8312348B
:103F5800D870AD85088285098374FFF0A3F0024606
:103F6800C074F61218D31208568A828B83E58245EC
:103F78008370067A007B008007A3A3A3A31234A949
:103F88007F020219A574F41218D389088C828D83D4
:103F9800E06402703C124576FEA3E0F9EEF8740284
:103FA8006870037429697029750A02750B00780A0C
:103FB800121AE674101218AF121AFD74101218AF04
:103FC800121AFDA9081211B67406121879E9F980B7
:103FD800027901022A3B74E81218D374FB121863A1
:103FE800E9851882851983F08A168B17ECFEEDFF98
:103FF8007510008E828F83A3A3A3E0A2E4502D74D2
:104008001D1218AF1234A91208B08A828B83E58278
:1040180045837003024415790AEEFCEFFDAA16AB3E
:10402800171218D1E9F5106003024418741F12180A
:10403800AFE0F508A3E0F50974211218AFE0F50A1E
:10404800A3E0F50B74231218AFE0F50EA3E0F50F0B
:104058008E828F83E0640260030243B6A31245D7C1
:10406800850882850983A3858212858313EE240639
:10407800F50CE43FF50D88828983124455F514E464
:1040880039F5157814121B70010000280128B84072
:10409800070002287D410328EB400029AC42012992
:1040A800D742022978420329AC4204295043B64337
:1040B800E50E450F60030243B1850C82850D83121E
:1040C80045D7E8FAE9FB8A828B83E0850A82850B6B
:1040D80083124460121AE68A828B83A3E0FCA3E071
:1040E80002433AE50E450F60030243B1850A828513
:1040F8000B837401F012444A850882850983F07C99
:10410800007D008E828F83A3A3A3A3E02401FAA3DA
:10411800E03400FB120754EA4B60408A828B83E04C
:104128002402F8850A82850B83E028F0EA2404F843
:10413800E43BF988828983E08512828513831244DF
:104148006E124460121AE68A828B83A312443DE5FC
:10415800082403FAE43509FB02433F850A82850BEC
:1041680083E02404F07C047D007900AA12AB1312CA
:10417800138A024418E50E450F60030243B1124446
:104188004AFEA3E0FF850A82850B837404F0EE855E
:104198000882850983F0EF851282851383F0740302
:1041A8001218C9EEFAEFFB1207548A0C8B0DEA4578
:1041B8000D700302425B8A828B83A3A3122E747450
:1041C800011218B9880E890F780E121AE6740512B2
:1041D80018AF121AFD7CFF7DFF12075A74041218DB
:1041E800798B0FEA450F7033850C82850D83124455
:1041F80041121AE6850C82850D83A3121AFD7C02F2
:104208007D007AD77B811205567404121879E970FB
:104218000A74011218AF74FFF0A3F08E828F83E046
:1042280064027039750C02750D00780C121AE68E4E
:10423800828F83A312443DE5082404FAE43509FB80
:104248001213727402121879850A82850B83E0248E
:1042580002800974011218AFEEF0A3EFF074011296
:1042680018AF12442F74011218AF1244260243AB40
:10427800E50E450F60030243B1850C82850D83125C
:1042880046C5AA16AB171211BC850A82850B837422
:1042980002F0850882850983EAF0851282851383F6
:1042A800EB0243AEE50E450F60030243B112444AE8
:1042B800F8A3E0F9850A82850B837402F0E8850883
:1042C80082850983F0E98512828513830243AE85CE
:1042D8000C82850D831234A912136CEAFAF8C3957F
:1042E8000EE4950F405CE8650E450F70047A008077
:1042F80021851882851983E0FCE50E2CFCE4350F36
:10430800FDC3EC98ED94005003E08005E50ECAC3A8
:104318009AFAEA850A82850B83F08A0A750B007877
:104328000A121AE6850C82850D83E0250EFCA3E0AF
:10433800350FFDAA08AB091213727402121879021C
:104348004418751007024418E50E450F705B850C7C
:1043580082850D831245D7850A82850B837407F001
:104368008882898312442712441FE08512828513AC
:1043780083F0E82402FAE439FB8A828B8312442F03
:104388008A828B83124426A3A3122A06124434F08D
:10439800E82405F850010988828983124434A3125D
:1043A800446EA3A3A3A3F0806775100B8062741DED
:1043B8001218AF1234A91208568A828B83E58245F7
:1043C80083604A1245D7880C890DE8450D603E7414
:1043D800251218AFE0F5107810121AEA780E121AA2
:1043E800E6780A121AE67808121AE674071218AF65
:1043F800E0F9EEFCEFFDAA16AB17850C82850D835C
:104408001218D17407121879E9F510800375100E87
:10441800A910740502376CF088828983A322A3E06F
:1044280085088285098322124475F022124475A3F7
:10443800A3229002F31246CC22E0F50E750F007805
:104448000E22850C82850D8312390FE022E0FAA333
:10445800E0F8E4C8F9EA2822F08A828B83E0F50ABA
:10446800750B00780A2212441F12447522E0850851
:1044780082850983A3A32274EE1218D374FE12183E
:10448800638A088B09ECFEEDFF890AAC18AD19EEBA
:10449800FAEFFB1207548A0C8B0DEA450D700302E4
:1044A80045678518828519831234A91208568A82AD
:1044B8008B83E58245837003024562A3A31245D727
:1044C800880E890FE8450F700302456274141218AC
:1044D800AFE0F510A3E0F511E50AF50B780B121A19
:1044E800EA74191218AF121AFD7810121AE6741B22
:1044F8001218AFE0F9AC0CAD0DAA08AB09850E8215
:10450800850F831218D17405121879E9F50B7052CA
:1045180074FE650A604C850C82850D83E064027028
:1045280041124576FAA3E0F9EAF874026870037458
:104538002969702E851082851183124455F50CE483
:1045480039F50D780C121AE6EEFCEFFDAA08AB0956
:104558001208DA74021218798008750B0E80037538
:104568000B01A90B74021218797F0A0219A5A3126C
:1045780045DB88828983E02274F61218D374FE1210
:104588001863740C1218AF1245D7E885188285197C
:1045980083F074011218AFE9F0E4F508F50978081A
:1045A800121AE67508027808121AE674041218B985
:1045B800880889097808121AE679FE1208C2740672
:1045C8001218797402121879023F888E828F83122A
:1045D80045DB22E0F8A3E0F92274F71218D3EAFECB
:1045E800EBFF890890030A12443D1211BCEA5402F9
:1045F800600BA908EEFAEFFB120748800279017FE9
:10460800010219A574F21218D374FE121863EAFE97
:10461800EBFF890A7401650A60147402650A600375
:104628000246BB7901120AE4E960030246BBEEFACE
:10463800EFFB1208A4EA4B60031208AAA818A919EC
:10464800880889097808121AE67508027509007839
:1046580008121AE67508DD7509817808121AE67CD1
:10466800FF7DFF7A017B0012074E740612187980CD
:1046780038850882850983A3A3A3A3A3A31246C5EB
:10468800EEFAEFFB1211A4E4F50CF50D780C121AF2
:10469800E674021218AF121AFD7CFF7DFFAA08AB60
:1046A8000912075A74041218798A088B09E5084513
:1046B8000970BE74021218797F060219A512390F03
:1046C8001246CC22E0FCA3E0FD2274F41218D38A2F
:1046D800088B09ECFEEDFF901652E0F4604B7A0966
:1046E8007B00121396EA4B60408A828B8374B1F088
:1046F800A3E4124734F08A828B83A3A3E508F0A3CE
:10470800E509124734A3EEF0A3EFF0740C1218AFCA
:104718001245D78A828B83A3A3A3A3A3A3A3123B87
:1047280000901652E0F91213A2022A3BF08A828BFB
:1047380083A3A3A3A32274EE1218D374FA121863E6
:104748008A0A8B0BE9FF8C088D097E00850A0C8587
:104758000B0D780C121B2A0004101A4A8647A94729
:10476800C847EB470E483148624885489C48CC48C2
:104778007B499E49C149EF491A4A1A4AF5487401CA
:104788006F7019850882850983E0C39403500D85ED
:104798000882850983E090173EF080027E18024A5D
:1047A8004274026F7015850882850983E0F8A3E0DA
:1047B800F990173FE8F0A3E9F080027E18024A4218
:1047C80074016F7019850882850983E0C3940250CB
:1047D8000D850882850983E090074DF080027E18D8
:1047E800024A4274016F7019850882850983E0C303
:1047F8009405500D850882850983E090074EF08066
:10480800027E18024A4274016F7019850882850970
:1048180083E0C39402500D850882850983E09007E0
:104828004FF080027E18024A4274106F7027750C90
:1048380010750D00780C121AE6AC08AD097A507B99
:104848000712137274021218798A0C8B0D850C8268
:10485800850D8380027E18024A4274016F701985A3
:104868000882850983E0C39402500D850882850972
:1048780083E0900760F080027E18024A4274016F5C
:10488800700D850882850983E0901742F080027ECA
:1048980018024A4274046F70269081A2780C12178D
:1048A80027850882850983780C1215B95011850867
:1048B8008285098312175190076212175D80027E64
:1048C80018024A42EF70211206EEE9701312114ADB
:1048D800E9F50D79501214C2E9F50C121138800A65
:1048E8009007F57401F080027E18024A4274076F3F
:1048F800707C750E06750F00780E121AE685088210
:10490800850983A3AC82AD8374021218C11213788F
:1049180074021218798A108B1185100E85110F7C7C
:10492800007D00AA18AB19850882850983E0F91271
:1049380010DEE9F50CE50CC3940A502E1206EEE9D8
:104948007015A90C121150E9F50E79501214C2E92C
:10495800F50D1211388019A80C790074F628F58223
:10496800740739F5837401F080067E0280027E1890
:10497800024A4274016F7019850882850983E0C371
:104988009402500D850882850983E0900761F080C4
:10499800027E18024A4274016F70198508828509DF
:1049A80083E0C3940A500D850882850983E0901737
:1049B80041F080027E18024A4274016F7025850812
:1049C80082850983E0C39407401985088285098395
:1049D800E0C39411500D850882850983E090174340
:1049E800F080577E18805374016F70229007F4E0AE
:1049F800F50C850882850983E09007F4F0E50C70D2
:104A0800399007F4E064017031121138802C7E1857
:104A18008028C3E50A9427E50B9400501B74026FA5
:104A28007016850882850983E0FCA3E0FDAA0AAB1D
:104A38000B12056EE9FE80027E02EEF9740612186A
:104A4800797F0A0219A574EC1218D374DA12186364
:104A5800890D8A128B138C0A8D0B743A1218AFE0E9
:104A6800F50C908132AC18AD197406121776AC1893
:104A7800AD19AA12AB13A90D1210DEE9FEEEC3940C
:104A88000A4003024BC2EEF912111AE9FF90173ED1
:104A9800E064027004740180027400F5087808125A
:104AA8001AEAAD0CEFFCEEF9AA0AAB0B12118C74E2
:104AB800011218797C147D00790074121218C11241
:104AC800138A8A0E8B0F850E08850F097412121827
:104AD800C97A1075F006EEA42424F91214BCE97002
:104AE8003C7C1079FF74121218C11213EAE9702D78
:104AF80074221218AFAC82AD837A0475F006EEA466
:104B08002425F91214BCE9F50874121218C9EFA289
:104B1800E0E433F9AA0AAB0B1205F8E9F8740612B7
:104B280018C97A0C74702EF91214BCE970797406DD
:104B38001218C112110E750E00E50EC394045067C9
:104B4800A80E7900E875F003A4C8AAF075F000A4CF
:104B58002AFA75F003E9A42AF974061218AFE58257
:104B680028F508E58339F509850882850983E0F881
:104B7800A3E0F9E849602C850882850983A3A3E0AE
:104B8800F5107511007810121AE6850882850983D8
:104B9800E0FCA3E0FDAA0AAB0B1208C874021218C5
:104BA80079E9F8050E8092EFA2E1500E90074CE0EB
:104BB800F9AA0AAB0B1208CEE9F87404650C700F59
:104BC80090173EE064027007AA0AAB0B12118679AF
:104BD8000074261218797F0C0219A574F71218D3DD
:104BE800EAFEEBFF1206EEE970679007F5E0640154
:104BF800701B12114AE9F5089007F57400F07C0A59
:104C08007D0079007AF67B0712138A8039750800CF
:104C1800E508C3940A502FA808790074F628F5828D
:104C2800740739F583E064017018A908121150E976
:104C3800FAA808790074F628F582740739F58374A0
:104C480000F0050880CA79501214C2E9F50812115B
:104C5800387F010219A574F21218D3890BEAFEEB0A
:104C6800FF8C088D09750A0AE50B600C146009149D
:104C78006044146064024D03EEFAEFFB12112CE954
:104C8800F50AE50AC3940A5072E5084509606C758F
:104C98000C06750D00780C121AE6EEFCEFFDAA085A
:104CA800AB0912137274021218798A0C8B0D850CD9
:104CB80082850D838045EEFAEFFB121126E9F50A8D
:104CC800E50AC3940A5034E5084509602EAA08ABE2
:104CD80009A90A121120E98022EEFAEFFB1211321B
:104CE800E9F50AE50AC3940A5011E5084509600B7D
:104CF800AA08AB09A90A121120E9F8A90A7F060235
:104D080019A574F21218D38A0C8B0DE9FF7E15745D
:104D1800FF650C700474FF650D702A750800E508BE
:104D2800C3940A5014EFFC7A027B00A9081210FC05
:104D3800E960027E00050880E5EF60627A747B1105
:104D4800120B088059AA0CAB0D120AD88A0A8B0BD1
:104D5800850A08850B09E508450960407C007D0047
:104D6800E5082405FAE43509FB850882850983A34B
:104D7800A3A3A3E0F91210DEE9F50AE50AC3940A31
:104D8800500EEFFC7A027B00A90A1210FCE97E00A3
:104D9800EF600BAA08AB0912117480027E14EEF9B9
:104DA8007F060219A574EE1218D38A0E8B0F8C0A8F
:104DB8008D0B74121218AFE0F50CA3E0F50D750811
:104DC8001574FF650E700474FF650F701E7E00EE8B
:104DD800C3940A5061AC0CAD0DAA0AAB0BEEF912E4
:104DE8001102E960037508000E80E4AA0EAB0F12E9
:104DF8000AD88A108B11AE10AF11EE4F60357C00C7
:104E08007D00EE2405FAE43FFB8E828F83A3A3A3E3
:104E1800A3E0F91210DEE9F509E509C3940A501672
:104E2800AC0CAD0DAA0AAB0BA909121102E9750861
:104E3800008003750814A9087F0A0219A574F712DF
:104E480018D3EAFEEBFF900766EEF0A3EFF09007A9
:104E58004CE0FC7D007A267B0012056EE9F508908F
:104E6800074CE0F91208327F010219A574F01218F4
:104E7800D374EC1218638A0C8B0D850C82850D8314
:104E8800A3A3E024FA70030252ED24FD700302513B
:104E980062147003024F6414601024FD7003025101
:104EA8000A1470030251A1025300AE0CAF0D900713
:104EB80066E0F8A3E0F9E8496066900766E0F8A3C1
:104EC800E0F5838882E0F8A3E0F9E8496052EE242F
:104ED8000CF582E43FF583E0F5087808121AEAEE4B
:104EE800240BF582E43FF583E0F98E828F83A3A338
:104EF800A3A3A3A3A3A3A3E0FCA3E0FDEE2403FACA
:104F0800E43FFB900766E0F8A3E0F5838882E0F8C9
:104F1800A3E0F58388821218D174011218798039B8
:104F28008E828F83A3A3A3A3A3A3A3A3A3121AFD73
:104F380090076212174512060A7402121879E9607E
:104F48001879018E828F83A3A3A3A3A3A3A3A3A3EA
:104F5800E0FAA3E0FB120604E9025300AE0CAF0D21
:104F68007508008E828F83A3E0600302508C8E82C6
:104F78008F83A3A3A3A3A3E0A2E0400302508C90D5
:104F88000800E0F8A3E0F9E849600302508C7C0EC1
:104F98007D007900AA18AB1912138A8A0A8B0BAA0A
:104FA8000AAB0BEE240CF582E43FF583E0F8A3E0AE
:104FB800F9E8496036750A06750B00780A121AE690
:104FC800EE240CF582E43FF583E02410FCA3E034E2
:104FD80000FD74021218C112137274021218798A31
:104FE8000A8B0B850A82850B83804F8E828F83A361
:104FF800A3A3E0FAA3E0FB120AD88A0E8B0F850E52
:105008000A850F0BE50A450B602D750E06750F0016
:10501800780E121AE6E50A2405FCE4350BFD740245
:105028001218C112137274021218798A0E8B0F8526
:105038000E82850F8380030253008E828F83A3A381
:10504800A3A3A3E0A2E25004D2F08002C2F0A2F02F
:10505800E433F87900740C1218AFE048F0A3E04983
:10506800F0EEFCEFFDAA18AB19121114E970127AD0
:10507800027B0090074CE0F91213C6E9790002534D
:1050880002750815900766E0F8A3E0F9E849606F33
:10509800900766E0F8A3E0F5838882A3A3E0F8A36D
:1050A800E0F9E84960598E828F83A3E0FC79018E8C
:1050B800828F83A3A3A3E0FAA3E0FB900766E0F83E
:1050C800A3E0F5838882A3A3E0F8A3E0F5838882B0
:1050D8001218D1E5086028AC0879038E828F83A363
:1050E800A3A3E0FAA3E0FB900766E0F8A3E0F5834A
:1050F8008882A3A3E0F8A3E0F58388821218D1027E
:105108005300AE0CAF0D900766E0F8A3E0F9E8494C
:105118006045900766E0F8A3E0F5838882A3A3E0E2
:10512800F8A3E0F9E849602F850C82850D83A3E098
:10513800FC79028E828F83A3A3A3E0FAA3E0FB90FD
:105148000766E0F8A3E0F5838882A3A3E0F8A3E06C
:10515800F58388821218D1025300AE0CAF0D7C0083
:105168007D00EE2404FAE43FFB8E828F83A3A3A381
:10517800E0F91210DEE9F508E508C3940A5017EEC5
:10518800240AFCE43FFD7A0475F006E508A424250A
:10519800F91214B6E9F8025300AE0CAF0D9007618E
:1051A800E06019901741E0F98E828F83A3A3A3E0F2
:1051B800FAA3E0FB120604E9F802530090173EE058
:1051C800701679058E828F83A3A3A3E0FAA3E0FB70
:1051D800120604E9F80253008E828F83A3A3A3E08A
:1051E800FAA3E0FB120AD88A0A8B0B850A08850BFA
:1051F80009E508450970030253008E828F83A3A333
:10520800A3A3A3A3A3E0A2E0506D85088285098328
:10521800A3A3A3A3E060608E828F83A3A3A3A3A309
:10522800A3A3A3A3E0F50AA3E0F50B7409780A1277
:105238001841E50A5401F8E50B5400F9E8A2E040EA
:1052480036740E1218C9E5082405FAE43509FB85F9
:105258000882850983A3A3A3A3E0F91210DEE970ED
:105268001679038E828F83A3A3A3E0FAA3E0FB122F
:105278000604E9F8025300EE2405FCE43FFD850826
:1052880082850983A3A3A3A3E0F98E828F83A3A3B6
:10529800A3E0FAA3E0FB121180900766E0F8A3E010
:1052A800F9E8496053900766E0F8A3E0F58388823F
:1052B800A3A3E0F8A3E0F9E849603D7C0079008EFB
:1052C800828F83A3A3A3E0FAA3E0FB900766E0F82C
:1052D800A3E0F5838882A3A3E0F8A3E0F58388829E
:1052E8001218D18013AE0CAF0D8E828F83A3A3A3A7
:1052F800E0FAA3E0FB1210D8790174141218797F30
:10530800080219A574F51218D374F21218638909E2
:10531800EAFEEBFF8C0AAC18AD197A0E75F006E5BB
:1053280009A42420F91214BCE9705F7C0679FFAA4D
:1053380018AB191213EAE97051740C1218AFE0F89F
:10534800A3E0F9E8F508E50A6005EE42088004EEF6
:10535800F45208A8087900740C1218AFE0687003BA
:10536800A3E0696021A8087900740C1218AFE8F06E
:10537800A3E9F0AC18AD197A0E75F006E509A42476
:1053880020F91214B6E9790180027900740E121816
:10539800797F030219A574F01218D374E612186302
:1053A800890B8A0C8B0DECFEEDFF740C1218C97A70
:1053B8000E75F006E50BA42420F91214BCE960036D
:1053C8000254CE7C0679FF740C1218C11213EAE954
:1053D80060030254CEAC18AD197A0C7470250BF921
:1053E8001214BCE960030254CA750A00AA18AB1962
:1053F80012110EE50C450D702E7C0C7900AA18AB25
:10540800191213EAE960030254B07C0C7D0079009C
:10541800AA18AB1912138A8A088B0985088285098C
:1054280083750A010254B0AC18AD19AA0CAB0D1261
:1054380011088A0E8B0F850E08850F09E5084509A6
:105448007030EE4F601BAC18AD197A007B0012115A
:10545800088A0E8B0FA80EA90F88088909E84970D9
:105468000479008063850882850983E50CF0A3E54B
:105478000DF0850882850983A3A3E0F87900EE681A
:105488007002EF696022EEC0E0850882850983A377
:10549800A3D0E0F0EE4F700D850882850983740073
:1054A800F0A37400F0750A01E50A6016AA18AB1992
:1054B80012110EAC18AD197A0C7470250BF9121470
:1054C800B6E9790180027900741A1218797F080206
:1054D80019A574F61218D38A088B097E00EEC394B6
:1054E800045050EEF87900E875F003A4C8AAF075E6
:1054F800F000A42AFA75F003E9A42AF9EC28F58249
:10550800ED39F583E065087004A3E065097021EEC4
:10551800F87900E875F003A4C8AAF075F000A42A89
:10552800FA75F003E9A42AF9EC28FAED39FB8007AB
:105538000E80AA7A007B007F020219A574F7121860
:10554800D37C00ECC3940440030255F3ECF87900D3
:10555800E875F003A4C8ADF075F000A42DFD75F052
:1055680003E9A42DF9EA28F582EB39F583E0F4FE86
:10557800A3E0F4FFECF87900E875F003A4C8ADF0F7
:1055880075F000A42DFD75F003E9A42DF9EA28F5BE
:1055980082EB39F583EEF0A3EFF0ECF87900E875CB
:1055A800F003A4C8ADF075F000A42DFD75F003E973
:1055B800A42DF9EA28F582EB39F583A3A3E0F4C01A
:1055C800E0ECF87900E875F003A4C8ADF075F000D8
:1055D800A42DFD75F003E9A42DF9EA28F582EB392D
:1055E800F583A3A3D0E0F00C02554B7F010219A567
:1055F80074F01218D374F4121863EAFEEBFF8C08E7
:105608008D09900800E0F8A3E0F9E849702CEE4F06
:105618006006E5084509700579010258A4EEFAEF1D
:10562800FB12112CE9901744F0901744E0C3940A38
:10563800400812113EE9901744F0901744E0C394D3
:105648000A40030258A2900800E0F8A3E0F9E849EC
:1056580060030256EEEEFCEFFD7A0E75F006901729
:1056680044E0A42420F91214B6E9F50C7C0C7D0062
:1056780079FFAA18AB1912138A8A0E8B0F850E0AA6
:10568800850F0BAC18AD197A0C901744E02470F90B
:105698001214B6E9F50D750E0E750F00780E121A74
:1056A800E6EEFCEFFD901744E0F87900E875F00E9F
:1056B800A4C8AAF075F000A42AFA75F00EE9A42A85
:1056C800F9746828FA740739FB12137274021218F5
:1056D800798A0E8B0FA80EA90F900800E508F0A391
:1056E800E509F002589E900800E0F8A3E0C82406F7
:1056F800F582C83400F583E0F8A3E0F9E84960438F
:10570800900800E0F8A3E0C82406F582C83400F544
:1057180083E0FCA3E0FD7A1B75F006901744E0A433
:105728002421F91214B6E9F8900800E0F9A3E0C9B9
:105738002406F582C93400F5837400F0A37400F0E0
:1057480002589E900800E0F8A3E0C8240AF582C831
:105758003400F583E0F8A3E0F9E8496043900800D5
:10576800E0F8A3E0C8240AF582C83400F583E0FC19
:10577800A3E0FD7A1B75F006901744E0A42422F9F3
:105788001214B6E9F8900800E0F9A3E0C9240AF574
:1057980082C93400F5837400F0A37400F002589EA7
:1057A800900800E0F8A3E0C8240CF582C83400F59E
:1057B80083E0F8A3E0F9E8496043900800E0F8A323
:1057C800E0C8240CF582C83400F583E0FCA3E0FDB2
:1057D8007A1075F006901744E0A42423F91214B641
:1057E800E9F8900800E0F9A3E0C9240CF582C9346F
:1057F80000F5837400F0A37400F002589E9008002E
:10580800E0F8A3E0C82408F582C83400F583E0F87E
:10581800A3E0F9E849606F900800E0F8A3E0C82425
:1058280008F582C83400F583E0FCA3E0FD7A107522
:10583800F006901744E0A42424F91214B6E9F50AF6
:10584800900800E0F8A3E0C82408F582C83400F501
:1058580083E02410FCA3E03400FD7A0475F0069080
:105868001744E0A42425F91214B6E9F8900800E0DA
:10587800F9A3E0C92408F582C93400F5837400F05F
:10588800A37400F080109007F4E0600312119212E4
:10589800117A79018006790080027901740C121856
:1058A800797F080219A574F71218D374F2121863D5
:1058B800E9FEAC18AD197A0E75F006EEA42420F9AD
:1058C8001214BCE9700E740C1218AFE0F8A3E0F9DA
:1058D800E8F980027900740E1218797F010219A57F
:1058E80074F41218D374F21218638909EAFEEBFFF4
:1058F800E509C3940A5004EE4F700479028041AC64
:1059080018AD197A0E75F006E509A42420F91214C9
:10591800BCE9F508E5087026750A06750B00780AD3
:10592800121AE674021218C9EEFAEFFB1213727417
:10593800021218798A0A8B0B850A82850B83A908BB
:10594800740E1218797F040219A574F41218D3EA98
:10595800FEEBFF750800E508C3940A5043750A0674
:10596800750B00780A121AE6EEFCEFFDA80879001C
:10597800E875F00EA4C8AAF075F000A42AFA75F02C
:105988000EE9A42AF9746E28FA740739FB121384F5
:105998007402121879E96004A9088006050880B61F
:1059A800790A7F040219A574F41218D3EAFEEBFFF2
:1059B800750800E508C3940A5043750A06750B007C
:1059C800780A121AE6EEFCEFFDA8087900E875F0EF
:1059D8000EA4C8AAF075F000A42AFA75F00EE9A47E
:1059E8002AF9746828FA740739FB121384740212AE
:1059F8001879E96004A9088006050880B6790A7F45
:105A0800040219A574F71218D374F0121863EAFE89
:105A1800EBFF750800E508C3940A5039AC18AD19B6
:105A28007A1075F006E508A42423F91214BCE9706D
:105A3800207C1079FFAA18AB191213EAE97012EE4C
:105A4800FCEFFDAA18AB191205D4E97004A9088067
:105A580006050880C0790A74101218797F010219A6
:105A6800A574F41218D3750800E508C3940A400316
:105A7800025B43A8087900E875F00EA4C8AAF0757F
:105A8800F000A42AFA75F00EE9A42AF9746828FC33
:105A9800740739FD7A0E75F006E508A42420F9127A
:105AA80014BCE97003025B3E7C067D0079FFAA08FE
:105AB8007B00EA75F00EA4CAA8F075F000A428F8D7
:105AC80075F00EEBA428FB74682AFA74073BFB12E6
:105AD800138A8A0A8B0BAE0AAF0B7C067D0079FF0E
:105AE800AA087B00EA75F00EA4CAA8F075F000A415
:105AF80028F875F00EEBA428FB746E2AFA74073B9D
:105B0800FB12138A8A0A8B0BAC0AAD0BA808790022
:105B1800E875F00EA4C8AAF075F000A42AFA75F08A
:105B28000EE9A42AF9747428F582740739F5837488
:105B380000F0A37400F00508025A719007F4E060C1
